:020000041001E9
:1000000000B5324B212058609868022188439860DF
:10001000D860186158612E4B002199600221596106
:100020000121F02299502B49196001219960352056
:1000300000F044F80222904214D00621196600F024
:1000400034F8196E01211966002018661A6600F04E
:100050002CF8196E196E196E052000F02FF8012189
:100060000842F9D1002199601B49196000215960AB
:100070001A491B48016001219960EB211966A021F2
:10008000196600F012F800219960164914480160C1
:100090000121996001BC002800D000471248134993
:1000A000086003C880F30888084703B5996A0420EC
:1000B0000142FBD001200142F8D103BD02B5186610
:1000C0001866FFF7F2FF186E186E02BD00000240BE
:1000D000000000180000070000035F00212200005C
:1000E000F4000018222000A00001001008ED00E03C
:1000F00000000000000000000000000074B24E7A12
:1001000000200420F7010110CB010110CD010110E6
:10011000C9010110C9010110C9010110C901011073
:10012000C9010110C9010110C901011009290710F5
:10013000C9010110C90101103528071085290710D0
:10014000C1010110C1010110C1010110C101011063
:10015000C1010110C1010110C1010110C101011053
:10016000C1010110C1010110C1010110C101011043
:10017000C1010110C1010110C1010110C101011033
:10018000C1010110C1010110C1010110C101011023
:10019000C1010110C1010110C1010110C101011013
:1001A000C1010110C1010110C1010110C101011003
:1001B000C1010110C1010110C1010110C1010110F3
:1001C000EFF30580103800BE00BE00BE00BE00BECA
:1001D00000BE00BEF2EB8871247110104471101043
:1001E0003802011090A31AE71E481F49086006C88C
:1001F00081F3088810471D480068002801D019487D
:10020000F3E70DA40ECC002902D000F012F8F9E7B4
:100210001749184A002000E001C19142FCD116495B
:100220008847164988471649884700BEFDE701C937
:1002300001C29A42FBD3704744711010C0000020E5
:10024000201C0020A48C10100000042000000420BA
:10025000A48C1010001004200010042000000000E6
:10026000704700000000000008ED00E0000000D032
:10027000201C0020DCDE022055110210D5020110E6
:1002800015110210F8B5C04606480749091A8B1027
:10029000C90FC91810B5491003D0044B002B00D06A
:1002A000984710BD201C0020201C002000000000EA
:1002B000054B10B5002B03D00449054800E000BFF2
:1002C000FFF7E2FF10BDC04600000000643F0120C0
:1002D00098FB0710002110B5002013F0B5F9062097
:1002E0000DF014FDD02340221B065A620F485A61BC
:1002F00011F0A0F80E4811F09DF804F027FE4BF025
:1003000019FD64F0FDFC0B4811F094F80121062062
:100310004FF096FC32200CF055FD002106204FF0E6
:100320008FFC32200CF04EFDF0E7C04698FB071022
:10033000B4FB0710D4FB0710024A136801331360A3
:100340007047C046A820012070B505000B480C007E
:1003500011F070F829000A4811F0F0F8002C08D0CC
:100360002100084811F0EAF8074811F063F872B666
:10037000FEE7064811F05EF8F6E7C046F0FB07100E
:1003800014FC071028FC07104CFC071038FC071061
:10039000034B0360034B0B6080239B00136070478B
:1003A000487C00205CC50220034B0360034B0B60BC
:1003B000C0239B0013607047F87D00205CCD0220B5
:1003C00000487047B8FC08100048704754FC0810FB
:1003D00070B5002800D173E0032852D1414D11219E
:1003E000280013F081FC280069F0FEF8002800D1F5
:1003F00075E03D4C2B786380012839D06B78A38061
:10040000022835D0AB78E380032831D0EB78238104
:1004100004282DD02B796381052829D06B79A381FD
:10042000062825D0AB79E381072821D0EB792382F8
:1004300008281DD02B7A6382092819D06B7AA382F1
:100440000A2815D0AB7AE3820B2811D0EB7A2383EC
:100450000C280DD02B7B63830D2809D06B7BA383E5
:100460000E2805D0AB7BE383102801D1EB7B2384DE
:10047000C023013040009B0003439BB22380200037
:1004800070BD052829D8194B8000C458002CF6D01F
:10049000200069F0A9F8050020281CD8002807D002
:1004A0000023134AE15C0133118002329D42F9D8E6
:1004B000C02301356D009B002B430B4C9BB2DDE745
:1004C0000B4C0A4B2000196802220FF02BF9C123B4
:1004D000023C9B00D2E72025E0E70024CFE7054B54
:1004E000014CCBE76872002024ED00202812002088
:1004F00026ED00200203000010B55B485FF07EF897
:1005000004F0C4FB04F050FC4CF02CFB05F08CFB19
:1005100000283ED055485FF071F84EF0F1F9040024
:1005200005F0DCFE4CF00CF9002800D095E0002C22
:100530002FD14CF00DFA01000200073117324C4860
:100540005FF05CF84CF004FA8E23C35C0400002BCF
:1005500030D18D23E35C002B37D18A23E35C002B61
:1005600047D14BF08DFC002807D004F0BFFF03F00B
:10057000B7F88B23E35C002B5BD18C23E35C002B6F
:100580004DD18F23E35C002B3DD13A485FF036F824
:1005900010BD39485FF032F84CF062FA011EC8D045
:1005A00036485FF02BF84CF0D3F98E23C35C04007F
:1005B000002BCED004F014FD314B00284AD001228C
:1005C0001A718D23E35C002BC7D0B7239B00E01882
:1005D00060F074FF002836D004F05AFE0122284B48
:1005E0000D202849DA704BF0D1FB8A23E35C002B05
:1005F000B7D001F069FF0122214B0B2022491A706C
:100600004BF0C4FBADE705F061FA06F091F9012269
:100610001B4B04201D495A714BF0B8FBB5E703F0A2
:1006200051FA0122164B0C2019499A704BF0AEFB7F
:10063000A7E757F051FF0122114B0E2015495A70C0
:100640004BF0A4FB99E714485EF0D8FF04F020FEBD
:100650000222C4E702221A717BE710485EF0CEFF47
:10066000002C96D165E7C046ACFC07100CFD0710C6
:100670005CFD07102CFE0710D4FC071088FD071046
:1006800034DD0120F8FD071004FE071024FE0710DA
:1006900018FE071010FE0710BCFD071038FD0710EC
:1006A00070B505280CD82C4B2C4D8400E1582B5CE0
:1006B000012B42D02A485EF0A1FF2A4B1B599F46CE
:1006C000294B010018005EF099FF002070BD05F075
:1006D000FDF906F02DF90123042024496B714BF03C
:1006E00055FB0120F2E757F0F7FE01230E202049C9
:1006F0006B704BF04BFB0120E8E704F0C9FD0123D0
:100700000D201C49EB704BF041FB0120DEE704F0AB
:1007100067FC0028D9D001230F2017492B714BF01B
:1007200035FB0120D2E703F0CDF901230C2013495A
:10073000AB704BF02BFB0120C8E711485EF05EFF69
:10074000C3E701F0C1FE01230B200E492B704BF0D3
:100750001DFB0120BAE7C046E4FC081034DD01208F
:100760009CFE0710CCFC081058FE071024FE071052
:1007700010FE0710F8FD0710B8FE071018FE07104E
:100780007CFE071004FE071010B5052805D8044BA1
:100790008000C15803485EF031FF002010BDC04604
:1007A000E4FC0810C4FE0710052802D8024B185CB0
:1007B00070470220FCE7C04634DD0120052803D83D
:1007C000024B8000C05870470148FCE7E4FC081069
:1007D000ECFE0710F0B5D6464F464646C0B58AB087
:1007E0004CF0B6F8040035485EF008FF344B9A46EA
:1007F00018005EF003FF33485EF000FF50465EF0E5
:10080000FDFE31485EF0FAFE30485EF0F7FE8A23C6
:10081000E35C002B50D02E4B04938B23E35C002B26
:1008200048D02B4B05938C23E35C04AD002B3FD0C9
:10083000274BAB608D23E35C002B37D0244BEB6060
:100840008E23E35C002B2FD0214B2B618F23E35CA5
:10085000002B27D01E4B01AF3A006B611D4B1E4E83
:1008600013CB13C2182399461C4B1D4C9846A14428
:10087000337802CC9B004046FB5804CD5EF0BEFEB0
:1008800001364C45F4D150465EF0B8FE15485EF096
:10089000B5FE15485EF0B2FE0AB0E0BCBA46B146FD
:1008A000A846F0BD114BD6E7104BCEE70F4BC6E77D
:1008B0000E4BBEE70D4BB5E70C4BADE7C0C50810BE
:1008C00000FF0710C0FF07100400081038000810D0
:1008D000F4FE0710FCFC081034DD0120F8000810BD
:1008E000E4FC08100C0108103801081088F2081008
:1008F00010B564F071FB10BDF0B5DE4657464E46AC
:100900004546E0B585B04CF023F8F2234F4E5B002E
:100910000400C05833684E4F98426AD04D4B9846F9
:100920004D4B99464D4B9A464D4D2B689B46002B9F
:1009300044D02BF05BFC02AB187002040002120ED4
:10094000000E5A7098700022584602991CF0B6FEAC
:10095000FF21286800221CF0C1FEF4222B685200FF
:10096000A058934601932BF041FC03AB187002048E
:100970000002120E000E5A7098700022039901981E
:100980001CF0B6FEF6235B00E15C286800221CF038
:10099000C9FEEE23FF33E15C286800221CF0CCFE88
:1009A000286800220121F2251CF0B2FE5B466D0092
:1009B000E25861592B485EF021FE6059F4235B0038
:1009C000E35842463B60F62330605B00E35C137003
:1009D000EE234A46FF33E35C1370F82352465B0074
:1009E000E358136005B0F0BCBB46B246A946A0462A
:1009F000F0BDF4235B00E2583B689A4200D08DE7DB
:100A0000144B9846F6235B00E25C43461B789A42FF
:100A100004D0114B9946114B9A4685E70E4B9946E7
:100A2000EE23FF33E25C4B461B789A4202D00B4B1D
:100A30009A4679E7094B9A46F8235B00E2585346F9
:100A40001B689A4200D06FE7CCE7C04654120020E2
:100A50005012002049120020481200204C120020A1
:100A6000A87F00209C010810F0B5DE464546574699
:100A70004E46E0B5D748D3B05EF0C0FD60F076FBDF
:100A8000D5485EF0BBFD0120D44962F0E7FED44DAD
:100A90002860002801D101F01AFBD2485EF0AEFDBB
:100AA00060F022FB692064F097FACF485EF0A6FD63
:100AB000322064F091FACD485EF0A0FD29F05EF896
:100AC000CB485EF09BFDCB4833F06AFACA485EF033
:100AD00095FDA022F0215200C8485EF08FFDA021B4
:100AE000C74AF0200092C74B0322490025F086FB3D
:100AF000C54C2060002801D101F0EAF9C3485EF03E
:100B00007DFD0021206820F069FBC1485EF076FD84
:100B10009621C04849015EF071FD002320680093D2
:100B2000962300225B01BC491FF0BEFEBB485EF06D
:100B300065FDBB485EF062FD13F030FDB9485EF024
:100B40005DFD4BF005FF0600B7485EF057FDFFF76F
:100B5000D3FEB64B18680E93002804D03100A231A2
:100B6000FF3139F071FE4BF0F3FE0E9A030010686E
:100B7000002809D0FA2252009B5C0121002B01D1F0
:100B800001F0CAF914F072FFA9485EF037FD0020A9
:100B900060F0C2FA60F004FC20681FF0C9FD070095
:100BA000A44839005EF02AFD64F04EFAA24BAB4631
:100BB0000393FA235B00814680469A4606003D0077
:100BC00011E02EF073FA01210B204BF0F3F84B46A5
:100BD000E71A4346E31A534513D2984B9F421CD859
:100BE000052064F0F9F960F0D5FBA84222D264F048
:100BF0002BFA0400801BB442E3D033F04FF92600F7
:100C0000DFE760F0C7FB3B0001002A0003985EF0BD
:100C1000F5FC8A4BA0469F42E2D960F0BBFB3E0048
:100C20002F00874C010033003A0020005D465EF043
:100C3000E5FC00E05D46642064F0CEF960F0AAFBBC
:100C4000804B010018005EF0D9FC7F485EF0D6FCB6
:100C500000242000053460F05FFAE4B21E2064F046
:100C6000BBF9692CF5D1642060F056FA77485EF044
:100C7000C5FC77485EF0C2FC64F0E6F9499064F088
:100C8000E3F9744B744F0A931860744B38609A46BA
:100C9000734BFA260593734BB6009946724B4C463C
:100CA0001D93724B0C93724B2893724B2E93724B85
:100CB0002593724B1293724B2693724B3793724B60
:100CC0002493724B2093724B1F93724B3393724B4E
:100CD0003493724B2793724B3593724B0F93724B35
:100CE0002393724B1C93724B1E93724B2B93724B3C
:100CF0002993724B2C93724B3193724B3293724BFC
:100D00003893724B2F93724B3993724B3A93724BC9
:100D10003B93724B3C93724B3D93724B3E93724BA1
:100D20004393724B3F93724B4093724B4293724B7F
:100D30001A93724B1993724B1893724B1393724B15
:100D40002D93724B2193724B3693724B3093724BAF
:100D50004193724B1593724B1B93724B1693724BCC
:100D60001793724B9846724BC3460693714B994644
:100D700064F06AF953461B68C31AB34223D20121B7
:100D80000B204BF017F864F05FF980464BF0E0FD64
:100D900042463B68D31ACA2252008258934200D37B
:100DA000CAE0FA212868490062F020FF012800D13A
:100DB000C2E20A2064F010F964F046F953461B6859
:100DC000C31AB342DBD35346186005984BF0BAFC04
:100DD000D5E7C0464802081080020810003F0120F5
:100DE000FC3E0120F40208101C0308103403081014
:100DF00058030810F1080110700308109803081038
:100E0000211207109911071014250120F40308106E
:100E10002004081058040810002200208C04081038
:100E2000B0040810CC040810E4040810D07F00209F
:100E300014050810440508107C050810B70B0000C5
:100E4000B8050810F80508102C0608104C06081004
:100E500080060810484F0220D42401207CED002099
:100E6000B4060810C0680220D8240120B87F0020F2
:100E7000B8060810E806081008FD08105C120020EB
:100E8000A4DB0810E8010810E0010810B4240120D8
:100E9000F0010810FC0108101402081008020810E4
:100EA00020020810D47F002044120020DC240120FE
:100EB000DBDE022004070810C0F20020080708103B
:100EC00008250120D5DE022028020810B87108107C
:100ED00090A40810B2DE0220D4DE022004250120F6
:100EE000D2DE0220FC24012040020810D3DE0220C2
:100EF0000025012034020810B1DE02205812002023
:100F0000AC7F00204012002010070810F0F00020F5
:100F1000180708104C07081084070810B07F00203D
:100F2000B0DE0220BC7F0020AFDE0220F8240120CA
:100F3000D0DE0220F405012043460A2128683B60E8
:100F400062F054FE8046012800D02AE7FFF7D4FC67
:100F50004BF0FEFC00230390A3778A33C35C002B85
:100F600001D000F0FCFC8B23039AD35C002B01D052
:100F700000F0E6FC8C23039AD35C002B01D000F038
:100F8000D0FC8D23039AD35C002B01D000F090FCA1
:100F90008E23039AD35C002B01D000F09DFC8F239D
:100FA000039AD35C002B01D000F0AAFCA37F5A1E49
:100FB0009341637754F07EFB099054F0ABFB0390B0
:100FC0000D9054F09BFB079054F0E8FC109051F00A
:100FD00031FA002800D1FEE1027E1492002A00D1ED
:100FE000F9E1039B002B00D0F5E1002398460B9319
:100FF000089302F0BFFD049064F026F81D9A11904A
:101000001368C31AB34200D80EE2049B1060002B91
:1010100000D024E2637A002B01D000F0C2FD237CD3
:10102000002B07D0119AE368D31AC94A934201D919
:10103000002323742378002B00D127E2089B002B88
:1010400011D1119B636001232372002323704BF0A5
:101050007FFC119A6368D31AC622520082589A42C2
:1010600001D801F0CBF8049B002B00D0F1E1002265
:10107000039B9046013BDBB2032B02D8259AD35C3D
:101080009846129B1B78434503D14023E35C002B19
:1010900016D04BF05DFC0E9A0300106800280CD0AF
:1010A000424652019B18F533FF331B780121002B78
:1010B00001D100F0B0FC14F0D9FC4246129B1A702A
:1010C0004BF046FC0E9B1B68002B1BD0109A002A8D
:1010D00000D007E3039A012A01D100F0CBFE227A67
:1010E000002A0FD1C222FF329046049A8044002A7F
:1010F00001D001F02CF84146209868F029FA002828
:1011000000D0F8E2079B0A2B00D106E3039B023BC9
:10111000DBB2012B08D9079B042B01D900F05DFD40
:10112000002B01D100F02FFE012322931F9B11936E
:101130000F9B1B689846002B2FD04022079B0499D9
:10114000013BA25CDBB2002900D131E2002A01D1CF
:1011500000F087FD0122239952420A6000221C9967
:101160000A701E9901320A70032B01D900F080FD2C
:1011700002F0A2FC0F9B1B6898461F991C9868F010
:10118000E7F9002801D000F01AFC0121404614F0D4
:10119000F9FC002801D000F02BFC099B002B00D1AA
:1011A00080E1099B98460C9B1868002846D01A9B42
:1011B000049A1B78002A00D0B4E2089A002A00D0D2
:1011C000B0E2032B00D11AE30123199A5B421360AA
:1011D0001A9A043313700B9B002B00D11FE3099B59
:1011E000002B00D11BE3012114F0CCFC002801D01E
:1011F00000F058FF4346002B01D100F0B2FD199AD0
:10120000136898451AD04346FA211360890088452F
:1012100001D200F0E2FF4F4B984501D800F0CAFE22
:1012200040460DF0FFF9102103002C9A21980FF091
:10123000E9FE0C9B2199186839F006FB189B1B6886
:10124000002B14D0139B1B6898464023E35C002BB3
:1012500001D000F015FC089B002B00D0B0E2039BEE
:10126000002B04D1237C002B01D100F08FFE159BB5
:101270001B689846002B1BD04023E35C002B00D05A
:101280005BE11B9B0B9A1B78002A01D100F0B6FC96
:10129000099A002A04D1049A002A00D1A8E0E26B3E
:1012A0002D498A4201D900F0B8FC012B00D062E13F
:1012B000169B1B689846002B2DD04023E35C002B27
:1012C00002D00023179A1370637F002B00D005E132
:1012D000039B002B00D1D0E3012B01D100F09EFD38
:1012E000023BDBB2022B00D8F8E0179B089A1B7870
:1012F0000D93002A00D0EEE0002B07D001214046DC
:1013000014F040FC002801D100F0B3FE00230D933F
:10131000179B0D9A1A7040230022E25400210023EB
:101320000022286862F0B0F9FA212868490062F0CA
:101330005DFC012800D03CE563F086FE5B461B683F
:101340008046002B0AD0C01A984500D084E005E002
:10135000871300000F270000973A00005B464246C3
:101360001A604BF0F5FA069B1B78002B0DD1FA2181
:101370008933FF33C05889000DF054F949460B6892
:10138000834202D30123069A13702DF08FFE80460C
:1013900063F05AFEFA210A9B89001B68C01A0DF0FF
:1013A00041F94B460022186000210023286862F0B2
:1013B0006BF94346642B07D84146052900D2052125
:1013C00049A863F0BBFDD3E44BF0C2FAC2235B0033
:1013D000C3589846F0E7039B012B00D1CEE2032BC4
:1013E00000D139E3002398460B930893149300E649
:1013F000039A002A14D1227C002A11D1227A002AD1
:101400000ED1042B00D153E70121404614F0BAFB62
:10141000002801D100F005FE04231B9A137047E752
:10142000002B00D044E7EFE7637A002B00D1F6E20F
:10143000049B002B00D1B4E32378002B00D013E3EE
:10144000089A002A00D0FDE2237A2270002B00D0F7
:10145000FDE50323984614E632F020FD7EE70C9B61
:1014600041461A6828985EF0C9F80C9B1868002855
:1014700006D0012114F086FB01002E985EF0BEF824
:10148000012363722378002B00D0EDE2089B002B30
:1014900000D19AE300234022237423720133A35422
:1014A0002370E0E5E36B9846002B11D0FB22079BED
:1014B000063B134200D176E6237C002B00D072E677
:1014C000049B002B00D06EE6237A002B00D06AE646
:1014D0000023984667E6022B00D019E763F0B4FDBD
:1014E000A369C31AF92B25D90122237FA061534098
:1014F000169A23771168884601D100F079FCFF2005
:1015000000042AF073FE42AB18730304000242A9E0
:101510001B0E000E88734B730022404645991CF049
:10152000CDF8169A0121106814F02CFB002801D088
:1015300000F0C4FE02230D93EAE600231B9A137009
:101540000B9B002B00D1D7E3099B002B01D000F0AF
:101550005EFC049B002B08D1039B002B00D053E7BB
:10156000237C002B00D04FE748E7E36BCE4A934241
:1015700001D900F035FDCC2000042AF037FE42AB43
:101580001876030400021B0E42AA000E53769076D2
:101590004899404600221CF091F8159B01211868DB
:1015A00014F0F0FA002801D000F042FD012334E7E6
:1015B000217C002900D1CBE3002A00D0EBE11E9A68
:1015C0001170032B00D8D8E5039B022B00D1D4E582
:1015D000032B00D1D1E5237C002B5BD063692A93D8
:1015E000002B00D055E3079B062B01D100F079FDBD
:1015F000109B002B01D000F00BFF0B9B002B04D0A5
:10160000099B002B01D000F0F2FE637F002B01D07C
:1016100000F0A8FD3A9A1370079B0A2B01D100F045
:1016200088FE039B002B01D100F025FE042B01D185
:1016300000F00DFF109B002B01D000F0EEFE039B8D
:10164000012B04D1099B002B01D100F021FF0B9B42
:10165000002B01D000F019FF237C002B02D1229B2C
:10166000002B04D0119B002B01D000F00CFE0F9B2F
:101670000121186814F086FA002801D100F0FEFE5E
:10168000099B002B00D08CE5E36B9846002B00D023
:1016900012E71DE7079B062B01D100F022FD109BEE
:1016A000002B01D100F051FC24991C9867F050FFE9
:1016B000002801D000F07CFE0121404614F062FABF
:1016C000002801D000F072FD099B002B00D068E5D6
:1016D000E36B9846002B00D1FAE6079B0A2B00D05B
:1016E000EAE660E5249B20989846414667F030FF83
:1016F000002800D106E5209B414698461F2218008D
:1017000066F0D2FC00234146CB770E9B186839F077
:101710009BF8079B0A2B00D0F8E401232293269B19
:10172000119305E5022B00D13EE30123199A5B4298
:1017300013601A9A033313700B9B002B00D1BAE18C
:10174000099B002B00D1B6E1012114F01BFA0028FF
:101750007CD1049B002B00D181E0089B002B00D1A1
:10176000BCE1199B1B6843451AD04246199B1A607D
:10177000B04501D200F0A3FC4C4B984500D8CFE314
:10178000FA21404689000CF04DFF102103002C9AED
:1017900021980FF037FC0C9B2199186839F054F808
:1017A000189B1B68002B00D161E5139B1B689846B2
:1017B0004023E35C002B03D00123139A5B421360A8
:1017C00053F08AFF139B011E1B68109309D06420FD
:1017D000099B58430CF026FF642800DC02E36423D5
:1017E0009846109B984500D141E5189B0022186847
:1017F000414634F0E7FA4246139B1A6037E540321F
:10180000A25C002A00D1E6E40122199952420A6042
:101810001A9A13700B9B002B01D000F011FC039B54
:10182000002B06D1237C002B03D1237A002B00D17F
:10183000E5E0012114F0A6F90C9A031E106800D00F
:10184000DDE0012114F09EF9002808D00C9B012155
:10185000186814F00BF9049B002B00D07DE70B9B5C
:10186000002B00D0C6E4FB22079B063B134200D1AD
:10187000C0E4237C002B00D0BCE4237A002B00D0F2
:10188000B8E4039B002B00D0D8E4199A1368023304
:1018900000D1D3E402235B4213600C9B419918688A
:1018A00038F0D2FFCAE4C046973A00000F27000084
:1018B0000320FEF779FF012801D1FFF769FBA37F21
:1018C0005A1CA2770322E318DA778E23039AD35C9B
:1018D000002B01D1FFF763FB0420FEF765FF012811
:1018E00001D1FFF75CFBA37F5A1CA2770422E31807
:1018F000DA778F23039AD35C002B01D1FFF756FBD5
:101900000520FEF751FFA37F012801D1FFF74FFB10
:1019100005215A1CD2B2E318D977A2771300FFF73A
:1019200046FB0220FEF740FF012801D1FFF729FB0B
:10193000A37F5A1CA2770222E318DA77FFF721FB74
:101940000120FEF731FF012801D1FFF713FBA37F30
:101950005A1CA2770122E318DA77FFF70BFB00206D
:10196000FEF722FF012801D1FFF7FDFAA37F5A1CE1
:10197000A2770022E318DA77FFF7F5FA099B002B2C
:1019800000D1FEE1E36301230B930893002314933A
:10199000FFF72FFB0022012123984942016000211B
:1019A0001C9801701E990A70032B00D90CE61F9930
:1019B0001C9867F0CDFD002801D1FFF7E6FB4046FB
:1019C0001F9938F041FF1C9B0F22984618001F9961
:1019D00066F06AFB00234246D3730F9B01211B680C
:1019E0009846404614F0CEF8002801D1FFF7D5FB09
:1019F0000F9B0121186814F039F8FFF7CEFB012185
:101A000014F0C0F8002800D029E70C9B01211868C9
:101A100013F0E0FF23E713F0DDFFFFF74EFB049A1E
:101A2000237C6272002B01D1FFF704FB002A01D155
:101A3000FFF7F8FA2378002B16D1089A002A01D173
:101A400000F0DBFC4022237423720123A354237093
:101A500003239846FFF715FB00230B9301230893FC
:101A600000231493FFF7C5FA089B002B01D1FFF761
:101A7000E8FA03239846FFF704FB179B1B783BE427
:101A80000123139A5B421360089B002B00D097E65A
:101A9000039B002B00D094E0237C002B00D090E02F
:101AA00001235B421093237A5A1E934142465B42C4
:101AB0001A40904695E6049B002B00D1AFE6012129
:101AC00014F060F8002800D147E60C9B012118684B
:101AD00013F0CCFF089B002B00D042E60C9B0121A9
:101AE000186814F04FF8002800D06DE3237A002B1B
:101AF00000D173E1E36B9846002B00D16EE1199B96
:101B00001B6843452BD04246FA21199B89001A6075
:101B1000884500D2B4E2E94B984500D9D5E3642169
:101B200040460CF07FFD0A2110900CF07BFD0A214D
:101B3000119010980CF076FD119B00912B9A1021BA
:101B400021980FF05FFA219B424698461900309881
:101B50005DF054FD0C9B4146186838F075FE189BEB
:101B60001B68002B01D1FFF782FB139B1B68984673
:101B70004023E35C002B00D00BE2039B002B01D041
:101B8000FFF775FB237C002B01D0FFF770FB237A56
:101B9000002B01D0FFF76BFB4346109300239846C0
:101BA0001FE6119BE3600123237401F085FF0023EE
:101BB0006372237C6061002B01D0FFF733FAFFF7DB
:101BC00039FA01235B4210930BE62370237A002B32
:101BD00001D0FFF73CFAFFF746FA062B00D0D2E01F
:101BE00053F092FD01232293279B1193022801D0E9
:101BF000FFF79EFA339B1193FFF79AFA049A002A93
:101C000001D1FFF7F5FB09990A1E01D1FFF747FB48
:101C1000AB498A4201D8FFF748FBAA498A4200D95A
:101C200069E1022B01D1FFF743FBA7482AF0DEFA56
:101C300042AB1875030400021B0E42AA000E537536
:101C400090754799404600221BF038FD159B0121F5
:101C5000186813F097FF002800D0D2E10223FFF7A5
:101C6000DCFB01221E990A70032B01D8FFF780FAD2
:101C7000039B022B01D1FFF77BFA032B01D1FFF766
:101C800077FA01F019FF002800D1E8E101F014FF14
:101C90002A9064212A980CF0C5FC239A8046136888
:101CA000984219D010600A210CF0BCFC834B2A9A90
:101CB00010909A4200D980E20A2140460CF0B2FC12
:101CC000109B00912B9A102129980FF09BF90F9BE4
:101CD0002999186838F0B8FD0F9B0121186813F096
:101CE00051FF002801D1FFF758FA0F9B0121186816
:101CF00013F0BCFEFFF751FA049B002B01D1FFF754
:101D000083FB099A002A00D12FE46D4B9A4200D838
:101D100031E46C4B9A4288D96C482AF067FA42AB9E
:101D20001874030400021B0E42AA000E5374907430
:101D30004699404600221BF0C1FC159B0121186802
:101D400013F020FF002800D063E10323FFF765FBB9
:101D5000002A00D01EE61E990978002900D12EE441
:101D600019E6039B002B01D0FFF768FA237C002BB8
:101D700001D0FFF763FA237A002B01D0FFF75EFA58
:101D800083E5109B69E6039B002B00D0B8E0237C21
:101D9000002B00D029E1149B002B00D1FCE2229300
:101DA000349B1193FFF7C4F93E33E35C002B00D062
:101DB000BBE4049B002B01D1FFF70DFA089B002B1D
:101DC00000D044E1012113F0DDFE002800D185E6BA
:101DD0000C9B0121186813F049FE7FE601F0ACFE70
:101DE00080468CE6C3430200DB171A409046F8E4B5
:101DF0000121404613F0C6FE002801D0FFF79AFBF0
:101E0000169B0121186813F0E5FDFFF793FB1A00FC
:101E10002B4B9A4201D8FFF7AEFB7AE70B9B002BC6
:101E200000D1BBE0179B1B78012B01D1FFF770FAA3
:101E3000FF2000022AF0DAF942AB18720304000214
:101E40001B0E42AA000E5372907244994046002223
:101E50001BF034FC169B0121186813F093FE002838
:101E600001D1FFF755FA169B0121186813F0FEFD0A
:101E7000FFF74EFA0C214AA854F054FE002800D077
:101E800005E1079B0A2B00D147E4042B00D9A2E20D
:101E9000002B01D0FFF748F9099B002B00D0A7E0E9
:101EA0000F9B1B689846002B01D1FFF7FBFA01231B
:101EB000229300231193FFF740F9C0460F2700003B
:101EC000973A00001F4E00000099FF000A820500AB
:101ED000C5485DF093FBC5485DF090FB286862F053
:101EE00043F8002062F0E8FC53B0F0BCBB46B246B9
:101EF000A946A046F0BD032B01D1FFF7D9F90BE7A6
:101F0000042B00D1D5E0109B002B00D19AE20023D6
:101F100022931193FFF70CF913F05CFDFEF734FEEA
:101F2000642140460CF07EFB0A2180460CF07AFBCF
:101F30000A21109040460CF075FB109B00912B9AE3
:101F4000102121980FF05EF825E40B9B002B01D1A6
:101F5000FFF75BFB099B002B01D1FFF756FB2F9985
:101F60001C9867F0F5FA002800D059E20F9B012178
:101F7000186813F007FE002801D1FFF712F90F9B34
:101F80000121186813F072FDFFF70BF94346109317
:101F900089E50123139A5B42136079E5099B002BC5
:101FA00001D1FFF79BFA079B062B01D0FFF79DF9A4
:101FB000FFF794FA642140460CF034FB0A21804676
:101FC0000CF030FB0A21109040460CF02BFB109BCC
:101FD00000912B9A102121980FF014F8FFF729F99E
:101FE000834A934200D820E696E6109B002B8ED1C0
:101FF0000B9B002B8BD1237C229300231193FFF7A3
:1020000097F8159B0121186813F030FD0223FFF7A4
:1020100004FA159B0121186813F028FD0323FFF72C
:10202000FCF9159B0121186813F0D4FCFFF7F4F9B3
:10203000159B0121186813F019FD0123FFF7EDF935
:10204000099B002B01D0FFF7FCFBFFF7E8FB012108
:1020500013F098FD002801D1FFF783FB35E5079BBE
:10206000062B3ED0109B002B01D0FFF7CEFAFFF7D6
:10207000C4FA169B0121186813F0ACFCFFF746F96F
:10208000434610212D9A21980EF0BCFF5BE50B22F0
:1020900058484AA966F008F8564B109A9846DA72E2
:1020A000FFF729F80C9B0121186813F0DFFCFFF7FC
:1020B000D6FB0123229300231193FFF739F84346FF
:1020C00010212D9A21980EF09DFFFFF764FB4A48DE
:1020D0005DF094FA45485DF091FA002062F0ECFB67
:1020E00002E762F0B1FFFA22319BD2001B68C31AEB
:1020F000934206D3012232990B7853400B70319BE7
:10210000186053F001FB279B9846022801D1339BAE
:102110009846329B1B78002B01D0389B984641464D
:102120001C9867F015FA002800D025E10F9B0121CB
:10213000186813F027FD002800D012E1099B002B3E
:1021400001D0FFF72EF8E36B9846FFF72CF801213A
:10215000180013F017FD002800D023E1379B9846A4
:10216000FEF7C9FF62F070FF2C23FA21A26AE35C3C
:10217000821AC9008A4200D3B1E01A00A218D07FA7
:10218000FEF71CFB20210300399A4AA80EF03AFF03
:102190000F9B4AA9186838F057FB0F9B012118685C
:1021A00013F0F0FC002801D1FFF78EFA0F9B0121FC
:1021B000186813F05BFCFFF787FA030010212C9AD4
:1021C00029980EF01FFF82E50C9B0121186813F07F
:1021D0004DFC36985DF012FA88E410212D9A219872
:1021E0000EF010FFFFF725F8CC030810C40208100A
:1021F0001F4E0000ED680220980208104AF0A8FB6C
:102200000E9A03001068002808D0FA2252009B5C46
:102210000121002B00D1E7E013F028FC4AF098FBE5
:10222000C222FF3290460E9B80441B68002B03D0D5
:102230004146180038F008FB0B224146A04865F0E3
:1022400033FF002338229F498B54CB630B724AF033
:102250007FFB0E9A03001068002801D1FFF75EF89B
:10226000FA2252009B5C0121002B00D1B8E013F050
:10227000FDFBFFF753F8237C002B40D0249B1193E8
:10228000109B002B36D011991C9867F061F900283B
:102290003DD10F9B0121186813F074FC002801D177
:1022A000FFF712FA0F9B0121186813F0DFFB099B5F
:1022B000002B01D1FFF70CFAFEF773FF169B0121EB
:1022C000186813F0D3FBFFF735F940460CF0AAF974
:1022D000102103002C9A21980EF094FE33E4013370
:1022E000A27FDBB29A4200D88FE01A002C21A062B4
:1022F000635443E72F9B11930B9B002BC3D1349B5B
:102300001193149B002BBED1359B1193BBE70F9B00
:102310001868119B9846190038F096FA1C9B4146A4
:1023200098460F22180065F0BFFE00234246D37383
:10233000AFE762F089FE3C993B9B0A68FA211B7863
:10234000821AC9008A4205D301223C9953403B9A24
:1023500008601370269A1192002B94D0389B119329
:1023600091E70F9B0121186813F080FB099B002B5C
:1023700000D1E8E6FEF715FF0F9B4146186838F0DC
:1023800063FA1C9B414698460F22180065F08CFEAC
:1023900000234246D373C9E601232293359B119350
:1023A000FEF7C6FE0E9B0121186813F05FFBD5E611
:1023B0004046249938F048FA1C9B0F229846180092
:1023C000249965F071FE00234246D3730F9B1B686E
:1023D0009846FFF771F9062B01D1FFF701FC5BE589
:1023E00013F0F8FAFEF79AFF13F0F4FA16E7049BDD
:1023F000002B01D0FFF709F9B1E5237A2270002BF9
:1024000001D0FEF724FEFFF724F8002200236DE739
:102410000F9B1B689846FFF747F9249B119332E7FF
:102420000F9B18682F9B9846190038F00DFA1C9BDB
:10243000414698460F22180065F036FE00234246BA
:10244000D37393E5039B012B00D0D1E524E562F023
:10245000FBFD3E993D9B0A68FA211B78821AC90050
:102460008A4205D301223E9953403D9A0860137079
:10247000002B00D072E7439B119304E70F9B0121CF
:10248000186813F0A7FAFFF7FBF82F9B1193FAE6F1
:1024900062F0DAFD40993F9B0A68FA211B78821AA4
:1024A000C9008A4205D30122409953403F9A0860EF
:1024B0001370002B00D051E7429B1193E3E6C04616
:1024C000ED680220C068022010B50C4C84B023686F
:1024D000002B04D00A485DF091F804B010BD094B00
:1024E000C0220293084B0949019301230848009335
:1024F000D200002362F0ACF82060EEE7182501203E
:102500008C070810184C00201C250120A807081073
:10251000690A0110014B18687047C0461825012050
:10252000F0B504000D00160087B000283DD0082249
:10253000002104A80DF0F0F8002D15D0290020008E
:102540004EF060FC63780500002B04D0032B0DD007
:10255000280007B0F0BD2778FB1EDBB2112B26D870
:10256000814A9B00D3589F4604ADE7E727790028AE
:1025700000D182E0042800D18EE0032821D0861FFC
:1025800073425E41063655F0FDFF0F230122040021
:102590006B441E70FF210192009310323B0055F0F6
:1025A000B1FF200056F004FCD2E70325D0E7002855
:1025B00000D083E03A0030006C494EF065FD002504
:1025C000C6E70326DFE7002868D1300068494EF0EF
:1025D0005BFD0025BCE7002800D080E030006549A5
:1025E0004EF052FD0025B3E7002800D087E0300010
:1025F00061494EF049FD0025AAE7002856D1300078
:102600005E494EF041FD0025A2E7002800D086E09B
:1026100030005B494EF038FD002599E7002866D16F
:10262000300058494EF030FD002591E700286ED16A
:102630003000A26854494EF027FD002588E70028A5
:1026400000D089E0A468002C79D130004F494EF0C9
:102650001BFD00257CE7002869D13000E368A268F3
:102660004B494EF011FD002572E700282FD13000B4
:1026700048494EF009FD00256AE755F083FF040044
:102680003B001022FF210195009555F03BFF2000F3
:1026900056F08EFB00255BE7092674E74EF024FB1D
:1026A0003D49020030004EF0EFFC51E74EF01CFBBC
:1026B0003A49020030004EF0E7FC49E74EF014FBC7
:1026C0003A000300364930004EF0DEFC40E74EF0A1
:1026D0000BFB3449020030004EF0D6FC38E74EF0D8
:1026E00003FB3149020030004EF0CEFC30E74EF0E3
:1026F000FBFA2E49020030004EF0C6FC28E74EF0EF
:10270000F3FA2B49020030004EF0BEFC20E74EF0F9
:10271000EBFA2849020030004EF0B6FC18E74EF004
:10272000E3FA2549020030004EF0AEFC10E74EF00F
:10273000DBFA2249020030004EF0A6FC08E7FA213D
:10274000200089000BF06EFF230002001C493000BE
:102750004EF09AFC0025FBE64EF0C6FA194902003D
:1027600030004EF091FCF3E60CFD0810A00A0810B2
:10277000BC080810F808081040090810540A08108E
:10278000B00908103C08081078090810B4070810B0
:10279000F40908107C080810D8080810780A0810F6
:1027A000CC0A08109C0808101C09081058080810CA
:1027B0005809081094090810D00908102C0A0810AC
:1027C000E007081014080810F0B507000C00150009
:1027D00089B000295DDD1668002E5AD00021142230
:1027E00002A80CF099FF3000924966F0B1FE002873
:1027F00021D1012C00D1D9E06E688F49300066F0FC
:10280000A7FE00285CD10023022C0FD0A86864F03A
:10281000CDFB002800D1F5E0FA239B00984200D9B7
:1028200002E143011B1A9B001B18DB0004226946CE
:1028300004930A7221E03000804966F089FE002886
:102840002AD030007E4966F083FE002800D07BE06D
:10285000012C00D1DCE06C687A49200066F078FE3B
:10286000002800D187E02000774966F071FE00283B
:1028700000D0B3E00A236A4613720822002168469A
:102880000CF04AFF3A00694602A8FFF749FE032808
:1028900000D9012009B0F0BD012C00D1A5E06E687F
:1028A0006549300066F054FE002813D1022C51D146
:1028B0000026002008236A46049613720590DCE780
:1028C0003000624966F044FE002821D105236A46A3
:1028D0001372D2E730005D4966F03AFE002835D029
:1028E0003000584966F034FE002828D101F0CCFAB7
:1028F000002871D0564A574938004EF0C5FB01F008
:10290000C9FA5549020038004EF0BEFB0020C1E76D
:102910003000524966F01CFE00286CD1022C7DD09C
:10292000A86864F043FB00281FD003236A46137293
:1029300043011B1A9B001B18DB0004939DE7320028
:10294000380047494EF0A0FB0220A3E709236A465E
:10295000137292E7A86864F029FB06000020032C9C
:10296000A8D0E86864F022FBA4E738003D494EF0A7
:102970008BFB03208EE702F039F902F049F93A495E
:10298000020038004EF080FB02F036F902F04CF9FC
:102990003649020038004EF077FB02F033F9344933
:1029A000020038004EF070FB002073E73149380018
:1029B0004EF06AFB304938004EF066FB2F49380074
:1029C0004EF062FB2E4938004EF05EFB38002D4978
:1029D0004EF05AFB03205DE72B4A8CE722003800BB
:1029E0002A494EF051FB022054E7380028494EF0A6
:1029F0004BFB03204EE73200380026494EF044FBE3
:102A0000022047E7380024494EF03EFB032041E70F
:102A1000380022494EF038FB03203BE738002049BC
:102A20004EF032FB032035E738001E494EF02CFBF8
:102A300003202FE7F40A08101C390810700C081046
:102A4000180D0810B40C08108C0D08100C2E08106E
:102A5000EC0A0810BC0C0810D40C0810F40B081079
:102A6000F00C0810280C0810400D0810580D081024
:102A7000700D0810000B0810CC7A0810200B0810FD
:102A8000540B08107C0B0810F00A0810940D081065
:102A9000780C0810480C0810AC0B0810200D08101A
:102AA000FC0B0810CC0B081070B504000E008AB0A7
:102AB000002811D004AD1422002128000CF02CFEB7
:102AC00003236E606B70A278033AD2B23F2A03D818
:102AD000494B92009B589F4600200AB070BDA388C6
:102AE000032B6CD903232B70E379A2791B021343C8
:102AF000227A12041A43637A1B061343AB60002246
:102B000000212800FFF70CFD0120E6E714232B70BD
:102B1000F5E7A388072B52D9E279A37912021A4369
:102B2000237AA17A1B041343627A12061A43E37ACA
:102B3000AA601B020B43217B09041943637B1B061C
:102B40000B431321EB602970D9E70A232B70D6E7DA
:102B500005232B70D3E7A2880023032A09D9E37940
:102B6000A2791B021343227A12041A43637A1B06CA
:102B700013430422AB602A70C1E7A388032B1ED93C
:102B8000E379A2791B02A11D13432CD109332B70C9
:102B9000B5E7A388032B12D90B23A4E70C2300224B
:102BA000002128002B70FFF7BBFC002113480AF01E
:102BB00041FA0022002100200BF024F9FEE755F035
:102BC000E1FC0F23032204006B441A70023AFF2138
:102BD000019200931032330055F094FC200056F01F
:102BE000E7F8012079E70822AB602A70CB788A7871
:102BF0001B021343EB6082E754FD0810204E0000D7
:102C0000002070470A4B10B51B78002B01D0002024
:102C100010BD53F049FE0028F9D042780378120223
:102C20001A438378C0781B04134300061843EFE768
:102C3000A7DE022010B501F08DFF002010BDC046B8
:102C400010B549F071FD10BD014B187A7047C046B0
:102C50001043002010B5114B1C7853F04DFA104B67
:102C60001B78002B0ED00F4B1B7A002B10D1012CA0
:102C700012D0022C04D0002C00D00624200010BD5D
:102C80000524FBE753F010FE064B1B7A002BEED019
:102C900062F0DAF9012CECD10424EFE7A3DE022084
:102CA000A7DE022010430020F8B5DE4657464E4608
:102CB00045460400E0B5002853D02F4B2F4E1D7819
:102CC000337A9A4653F018FA737A070099462C4BD8
:102CD0001B78002B25D02B4B00201B689846002327
:102CE0009B46337A002B30D1012D38D0022D40D0B5
:102CF000002D38D1534663704B4623774346A3617A
:102D00005B4663600023606100201F4A2570A77046
:102D1000A360E2602361F0BCBB46B246A946A04670
:102D2000F8BD53F0C1FD00281FD04278037812028D
:102D30001A4383781B041343C27812061A43904641
:102D4000C346337A0020002BCED062F07DF9FA2101
:102D500033688900C01A0BF065FC012DC6D104252B
:102D6000C8E70120D7E70625C4E700239846C346F5
:102D7000E7E70525BEE7C046A3DE0220104300209A
:102D8000A7DE0220A01C012014070810F0B50500E2
:102D90000E0089B0002848D00122404B1A70404BE9
:102DA000404A1960002313703F4A13603F4A137072
:102DB00062F04AF9012200233D4C3E4922720A701A
:102DC0003D4AE36010603D4A237410603C4A6F4600
:102DD00013603C4A206013603B4A606013703B4BB9
:102DE0001B78002B47D162F02FF9394B186038005F
:102DF00001F09CFF7969FF2904D00123D0228B4088
:102E00001206536101233348A3725CF0F7FB002DD7
:102E10001FD0002E04D130485CF0F0FB09B0F0BDAB
:102E200031002E485CF0EAFBF8E753F03DFD002846
:102E30002DD0437802781B021343827812041A4380
:102E4000C3781B06134322D0144B1D70144B1E6015
:102E5000AEE753F029FD00281DD042780378120216
:102E60001A438378C1781B041343090619431C488D
:102E70005CF0C4FBD2E769461A485EF065FD0028A5
:102E8000B1D1039B184A1360184A1360ABE7184886
:102E90005CF0B4FBC2E70021E9E7C046A7DE0220F0
:102EA000A01C0120AADE0220781C0120A5DE022041
:102EB00010430020A3DE02206C1C0120681C0120AE
:102EC000801C01201C110120A2DE0220A4DE0220B1
:102ED000701C0120EC0D0810600E0810100E081078
:102EE000AC0E0810381B012020110120741C012099
:102EF000BC0D081010B553F001FD002801D10420CD
:102F000010BD53F0D1FC0028F9D0437802781B02A1
:102F10001343827812041A43C3781B061343EED07E
:102F200000200021FFF732FF0020E9E710B5114C27
:102F300084B02368002B04D00F485CF05FFB04B022
:102F400010BD0E4B802202930D4B0E4901930123BD
:102F50000D480093D200002361F07AFB2060002826
:102F600003D00A485CF04AFBE9E7002108485CF01E
:102F700045FBE4E7D0F20020F00E0810F039002005
:102F8000D4F2002018FE071051400110140F081051
:102F9000440F081070B588B0050068460C0001F0B9
:102FA000C5FE05996E46FF2904D00123D0228B402F
:102FB0001206936100221E4B1E489A725CF01EFBA3
:102FC0001D4B1B78002B25D1002600221B4B1A70AD
:102FD0001B4B1A70002D12D04DF0D4FB002902DCDF
:102FE00003D1002801D049F00BFD301C0CF0B2FADF
:102FF00002000B00134821005CF000FB08E0301CCD
:103000000CF0A8FA02000B000F4821005CF0F6FA61
:1030100008B070BD31000D485EF096FC0028D3D199
:103020000B4BF06819680CF00CFA061CCDE7C04693
:1030300010430020780F0810A4DE0220A8DE022032
:10304000A3DE0220A00F0810D80F0810381B0120A3
:10305000941C0120F0B5CE46474680B5394B89B067
:10306000060068460C00197001F060FE0599E846FC
:10307000FF2904D00123D0228B4012069361002740
:10308000314D3248AF725CF0B9FA314B2F721F707C
:10309000304B1B78002B2FD12F4F00203B789846C8
:1030A000002B3AD12D4BEA6899461B68002B14D1AE
:1030B00031002B485CF0A2FA00232A4A3B701360CF
:1030C000294AAB721370294A1360294A1370082CDD
:1030D0000DD8284BA4001B599F46310026485CF0B0
:1030E0008DFA4B4642461A60E6E701F009FD09B049
:1030F000C0BCB946B046F0BD414620485EF024FC55
:103100000028C9D11E4B19684346D8680CF099F9BC
:10311000114F3B789846002BC4D00CF01BFA0200EC
:103120000B00184831005CF069FAC5E7032001F094
:1031300045FCDCE7022001F041FCD8E7012001F06A
:103140003DFCD4E7A6DE022010430020780F0810D3
:10315000A3DE0220A4DE0220A7DE0220801C0120C4
:10316000B0100810A01C0120AADE0220781C01204B
:10317000A5DE022054FE081050100810381B012054
:10318000201101201010081010B50B4C20680028E9
:103190000AD00A4B1B7A002B07D161F08DFB00236C
:1031A000074823605CF02AFA10BD06480021FFF7AB
:1031B00051FF2068F1E7C046D0F200201043002004
:1031C0000C110810FC100810104B10B51B78002BC8
:1031D0000ED10F4B1B7A002B05D10E4A1178002916
:1031E0000BD1002010BD08210B48FFF733FFF8E793
:1031F00000200A49FFF7CEFEF3E71370084A09489A
:103200001360094A13705CF0F9F9EAE7A8DE0220BE
:1032100010430020AADE02207C1108102C11081097
:10322000781C01203C110810A5DE022070B5214950
:1032300084B00091060051F0F9FB002822D0092348
:103240006A46D37361F000FF1B4D040013E00F23A7
:103250006B44180051F0E2FC022822D003281CD055
:1032600004280DD0052822D00C20012148F0A2FD11
:103270000A2061F0B1FE61F0E7FE001BA842E6D92A
:10328000082000E0092052F0F1F90C4B0100180071
:103290005CF0B4F9012004B070BD6B46D87B002807
:1032A000F1D1310006485CF0A9F90020F3E70120D4
:1032B000E9E7C0461027000074270000CC11081071
:1032C0008C11081070B582B0060053F017FB00286F
:1032D00032D03000214951F069FB002821D0092368
:1032E0006A46D37161F0B0FE1D4D040012E06B46DA
:1032F000D81D51F093FC022827D0032821D00428A0
:103300000DD0052827D00C20012148F053FD0A20BC
:1033100061F062FE61F098FE001BA842E7D9082028
:1033200000E0092052F0A2F90E4B010018005CF0F9
:1033300065F9012002B070BD0B485CF05FF9032015
:10334000F8E76B46D8790028ECD1310007485CF0EB
:1033500055F90020EEE70120E4E7C046881300009D
:10336000EC1300004C120810FC1108102412081075
:10337000F0B5314D06002B7A89B0002B52D12F4A7F
:103380001478002C53D101272D4B14701F702D4B36
:1033900018602D4B1C602D4B1C7061F055FE2C4BA2
:1033A000EC601F702B4B2C7418602B4B286018603E
:1033B0002A4B68601C602A4B2F721C60294B1C70C2
:1033C000294B6C461B78002B20D161F03DFE274B2A
:1033D0001860200001F0AAFC6169FF2904D00123D4
:1033E000D0228B401206536101232148AB725CF05E
:1033F00005F9002E06D031001E485CF0FFF80020D1
:1034000009B0F0BD1C485CF0F9F8F8E769461B48C4
:103410005EF09AFA0028D8D1039B194A1360194A22
:103420001360D2E718485CF0E9F80120E8E7174894
:103430005CF0E4F80520E3E710430020AADE022058
:10344000A7DE0220A01C0120781C0120A5DE02209E
:10345000A3DE02206C1C0120681C0120801C0120BE
:103460001C110120A2DE0220A4DE0220701C01201B
:10347000EC0D0810100E0810600E0810381B01200B
:1034800020110120741C012074120810B4120810BD
:1034900030B51C4C89B02378002B02D1002009B034
:1034A00030BD684601F042FC05996D46FF2904D005
:1034B0000123D0228B40120693610022124B134845
:1034C0009A725CF09BF8124B1B78002B0AD10022F9
:1034D000002300210F48217001700F490F485CF054
:1034E0008DF8DBE729000E485EF02EFA0028EED1B9
:1034F0000C4BE86819680BF0A4FF0CF02BF80200E5
:103500000B00E6E7A8DE022010430020780F081029
:10351000A4DE0220A3DE0220F4120810D80F081047
:10352000381B0120941C0120F0B557464E46DE465C
:103530004546E0B5524B81469A461B780C008FB049
:10354000002B00D07FE04F4B4F4F98461D783B7AC1
:10355000002B51D1002D4FD14C4B1B78002B6AD141
:1035600052F0CAFD002800D085E0494B1B78002BA3
:1035700000D172E04B46002B4BD0002C67D1AB2220
:10358000444B92009C58002C61D11E24424E434B68
:1035900043489B4600235A4606A913605EF0D4F9BF
:1035A00000284CD05B461B683E4A13604A463E4B9F
:1035B0001A603E4B1E6061F047FD3D4B01261860CE
:1035C0003C4B4246186053461E70032368461370F6
:1035D00001F0ACFB0599FF2903D0D0238E401B06D8
:1035E0005E6101233448BB725CF008F82200494652
:1035F00032485CF003F804E0290031485BF0FEFF3C
:10360000012528000FB0F0BCBB46B246A946A04633
:10361000F0BDAA221F4B92009A589146002C20D050
:103620006601361BB60036191300F600002AAED12B
:1036300064339946ABE723485BF0E0FFE0E75A4686
:10364000099B1360B0E720485BF0D8FFD8E766011C
:10365000361BB6003619F60099E71C485BF0CEFF22
:10366000CEE7AB2292009C584B46002B00D08AE755
:103670006433994687E716485BF0C0FFC0E7C04651
:10368000A8DE0220A3DE022010430020AADE0220D2
:10369000A4DE0220A845002030750000941C012003
:1036A000381B0120841C0120981C01208C1C012047
:1036B000901C0120881C0120EC0D08103414081007
:1036C000301308107813081000130810F0130810B6
:1036D000BC130810014B18787047C046A6DE0220C4
:1036E00030B53C4D87B00021142228000CF014F8AE
:1036F0000022394B68461A7001F018FB05996C4698
:10370000FF2904D00123D0228B40120693610023AD
:103710003248AB725BF072FF01F034F9200001F027
:1037200005FB25692E4CE9B220005EF003FA011E6C
:1037300014D120005EF0AAF8011E26D10122294BE7
:10374000290029481A705BF059FF284848F0C2FF49
:10375000011E0BD026485BF051FF0AE025485BF0C4
:103760004DFF224848F0B6FF011EF3D122485BF01E
:1037700045FF22485BF042FFAC23214C9B00E35CF9
:10378000002B06D1002007B030BD1E485BF036FF8D
:10379000E7E74CF0F7FF0200002915DDAE239B00A0
:1037A000E158002909D0043BE358551A1801C01A02
:1037B00003011B1A1B019D42E4D90120124B187012
:1037C00012485BF01BFFDDE70029DBD10028E5D1C3
:1037D000D8E7C04610430020A3DE0220780F08106F
:1037E000381B0120A4DE02207814081078FE08108F
:1037F00050150810E0140810101508109015081046
:10380000A8450020B0140810A9DE0220C015081039
:1038100010B5FFF765FF002010BDC046104B10B576
:103820001B78002B0ED10F4B1B7A002B05D10E4AB3
:10383000117800290BD1002010BD08210B48FFF79B
:1038400009FCF8E700200A49FFF7A4FBF3E713702F
:10385000084A09481360094A13705BF0CFFEEAE793
:10386000A8DE022010430020AADE02207C110810EE
:103870002C110810781C01203C110810A5DE022034
:10388000F0B5314D06002B7A89B0002B52D12F4A6A
:103890001478002C53D101272D4B14701F702D4B21
:1038A00018602D4B1C602D4B1C7061F0CDFB2C4B18
:1038B000EC601F702B4B2C7418602B4B2860186029
:1038C0002A4B68601C602A4B2F721C60294B1C70AD
:1038D000294B6C461B78002B20D161F0B5FB274BA0
:1038E0001860200001F022FA6169FF2904D0012349
:1038F000D0228B401206536101232148AB725BF04A
:103900007DFE002E06D031001E485BF077FE0020C1
:1039100009B0F0BD1C485BF071FEF8E769461B4832
:103920005EF012F80028D8D1039B194A1360194A97
:103930001360D2E718485BF061FE0120E8E7174802
:103940005BF05CFE0520E3E710430020AADE0220C6
:10395000A7DE0220A01C0120781C0120A5DE022089
:10396000A3DE02206C1C0120681C0120801C0120A9
:103970001C110120A2DE0220A4DE0220701C012006
:10398000EC0D0810100E0810600E0810381B0120F6
:1039900020110120741C012074120810B4120810A8
:1039A000F0B5334C89B0237A002B0FD1314A11780E
:1039B000002902D1002009B0F0BD13702E4A2F4813
:1039C00013602F4A13705BF019FEF3E700222D4BB2
:1039D00068461A7001F0AAF905996E46FF2904D0CD
:1039E0000123D0228B401206936100252648A57240
:1039F0005BF004FE254B25721D70254B1B78002BB8
:103A000020D10020234D2E78002E27D1224FE268AE
:103A10003B682249002B10D121485BF0EFFD0023C9
:103A2000204A2B701360134AA3721370124A13605A
:103A3000134A137001F064F8BCE71B485BF0DEFD2D
:103A40003E60ECE7310019485DF07EFF0028D8D1D8
:103A5000174BF06819680BF0F4FCD3E70BF07AFD14
:103A600002000B0013480D495BF0C8FDD7E7C046C4
:103A700010430020AADE0220781C01200416081042
:103A8000A5DE0220A6DE0220780F0810A3DE0220A9
:103A9000A4DE0220A7DE0220801C012044160810AC
:103AA000B0100810A01C012050100810381B012075
:103AB0002011012010100810014BD8687047C04633
:103AC0001043002010B5114C84B02368002B04D0A3
:103AD0000F485BF093FD04B010BD0E4B80220293A3
:103AE0000D4B0E49019301230D480093D200002392
:103AF00060F0AEFD2060002803D00A485BF07EFD38
:103B0000E9E7002108485BF079FDE4E7D0F2002006
:103B1000F00E0810F0390020D4F2002018FE071033
:103B200051400110140F0810440F0810014B186881
:103B30007047C046D0F200200C4B10B51B78002B0C
:103B400002D00B4B186810BD52F0AEFE00280AD010
:103B50004278037812021A438378C0781B04134317
:103B600000061843EFE70020EDE7C046A7DE02207D
:103B7000A01C0120014B187A7047C046104300205A
:103B800070B504000D00002809D0002907D0124BA1
:103B90001B7A002B04D003232370FC332B7070BDE1
:103BA0000E4B1B78002BF6D152F0A8FE002803D153
:103BB000002323702B70F2E752F076FE0028F7D036
:103BC000437802781B021343827812041A43C378A5
:103BD0001B061343DFD1EBE710430020A8DE0220D1
:103BE000F0B5CE46474680B59B4B07001B780E00CC
:103BF0009146002489B0002B00D0ECE0974998480A
:103C00000B785A0084520722013313400B70954BF6
:103C10001D78072D00D87AE00388211C9846438838
:103C20009C46444500D9C5E08BB2634500D9BAE053
:103C300089B2231C444500D2AFE09AB2624500D25B
:103C4000A9E082889BB290468A4200D981E0414631
:103C5000904689B29A4200D282E043469BB2032D3D
:103C600046D0C2888846914200D97DE041469846B8
:103C700089B2934200D275E043469BB2042D37D0FF
:103C800002898846914200D97DE04146984689B232
:103C9000934200D270E043469BB2052D28D0428962
:103CA0008846914200D990464146984689B293424F
:103CB00000D2904643469BB2062D19D08289884691
:103CC000914200D9A6E04146984689B2934200D27B
:103CD0009EE043469BB2072D0AD0C289101C8A423F
:103CE00000D9A2E081B2101C9A4200D29AE083B2BD
:103CF000002F00D03C80002E00D031804A46002AA0
:103D000000D0138009B0C0BCB946B046F0BD013543
:103D10000288EDB21D70211C944256D889B2231C32
:103D200094424DD39BB2012DE2D0428890468A4204
:103D300000D981E04146904689B29A4200D282E0A1
:103D400043469BB2022DD3D0828890468A4200D847
:103D50007DE788464146904689B29A4200D37CE787
:103D600098467AE7904687E790464146984689B25A
:103D7000934200D380E7F5E7904643469BB2052D7A
:103D800000D08CE7B4E790464146984689B293420A
:103D900000D380E7F0E7634653E743469AB26245B3
:103DA00000D34EE7F7E76146231C89B2444500D3B0
:103DB00043E7F2E741468BB2634500D838E7F2E7C4
:103DC000131C9BB2012DB0D192E7111C89B2231CA8
:103DD0009442A7D2F4E7694623485DF0B5FD002878
:103DE00000D00BE7214900980BF045FB0021051C92
:103DF0000BF070FB002800D000E71D49281C0BF0D9
:103E000077FB002826D1281C0BF09EFB84B2F5E638
:103E100090465EE790464146984689B2934200D369
:103E200057E7F5E7181C83B262E7081C81B2101C43
:103E30009A4200D35BE7F5E788464146904689B24F
:103E40009A4200D37CE7984643469BB2022D00D0AD
:103E50007AE74DE70648D7E7A4DE0220BADE022063
:103E6000B05F0020B9DE0220381B01200000C842EC
:103E700000E87D47034B987A013843425841C0B26D
:103E80007047C04610430020014B18787047C04669
:103E9000A8DE0220AE22024B920098587047C0461E
:103EA000A8450020F0B557464E46DE464546E0B5EB
:103EB000524B81469A461B780C008FB0002B00D0E5
:103EC0007FE04F4B4F4F98461D783B7A002B51D1E6
:103ED000002D4FD14C4B1B78002B6AD152F00CF9BE
:103EE000002800D086E0494B1B78002B00D172E0FF
:103EF0004B46002B4BD0002C67D1AB22444B920099
:103F00009C58002C61D11E24424E434B43489B4693
:103F100000235A4606A913605DF016FD00284CD018
:103F20005B461B683E4A13604A463E4B1A603E4B56
:103F30001E6061F089F83D4B012618603C4B4246FB
:103F4000186053461E7003236846137000F0EEFE9F
:103F50000599FF2903D0D0238E401B065E61012303
:103F60003448BB725BF04AFB2200494632485BF0A2
:103F700045FB04E0290031485BF040FB05252800A3
:103F80000FB0F0BCBB46B246A946A046F0BDAA227F
:103F90001F4B92009A589146002C21D06601361B87
:103FA000B60036191300F600002AAED164339946E4
:103FB000ABE723485BF022FBE0E75A46099B13601E
:103FC000B0E720485BF01AFBD8E76601361BB60065
:103FD0003619F60099E71C485BF010FB0125CEE787
:103FE000AB2292009C584B46002B00D089E76433EB
:103FF000994686E715485BF001FBBFE7A8DE022083
:10400000A3DE022010430020AADE0220A4DE02204C
:10401000A845002030750000941C0120381B0120A9
:10402000841C0120981C01208C1C0120901C012064
:10403000881C0120EC0D08103414081030130810EF
:104040007813081000130810F0130810BC130810A0
:10405000F0B5DE4657464E464546E0B5D648C1B0B7
:104060005BF0CCFAD54BD64D0293D64BD64E01938E
:10407000D64BD74C0493D74B0593D74B9946D74B88
:104080000793D74B0993D74B1593D74B1293D74B25
:104090000F93D74B1A93D74B1F93D74B2593D74BDF
:1040A0002F93D74B1E93D74B2393D74B3093D74B9C
:1040B0003193D74B2A93D74B2B93D74B2493D74B82
:1040C0002093D74B2193D74B1493D74B2893D74B9F
:1040D0001B93D74B2D93D74B2E93D74B1D93D74B79
:1040E0002293D74B1C93D74B2693D74B2793D74B71
:1040F0003393D74B3493D74B3593D74B0E93D74B42
:104100003693D74B2C93D74B0693D74B0893D74B6B
:104110000393D74B1093D74B0B93D74B0C93D74BA1
:104120001993D74B1693D74B1193D74B1793D74B64
:104130003293D74B1893D74B2993D74B9B46D74BEA
:104140005F460A93FA239B009A4660F07DFF2B6836
:10415000CB46C31A53452FD201210C2047F02AFE2B
:10416000002233789146002B7BD02378022B00D19C
:104170008DE0022B00D999E0002B00D19FE060F088
:1041800063FF5B465B688046C31A312B19D82378DE
:104190003A78002A02D0002B00D19BE002221420A2
:1041A0009343012B00D0642060F016FF60F04CFFB9
:1041B0002B68C31A5345CFD32860029848F0C2FA3F
:1041C000CAE7079B1B78002B00D1D9E0099838A9D2
:1041D0005DF0BAFB002800D0B2E13B9B159A181C99
:1041E00011680D930BF02DF9129A814611680D9804
:1041F0000BF07EF9002800D0E0E160F025FF0F9B76
:104200001968A74B411A994200D9A4E13378139356
:10421000002B00D181E0FC21484689050BF014F900
:104220000BF092F95B46D860149B1868002800D107
:10423000A6E00BF062F9011C48460BF051F95B4611
:10424000002800D19DE01B7A002B00D088E25B465D
:1042500042465A600023069A237013700E9A137018
:1042600034E052F04BFB019B80461B788146834231
:1042700000D17AE7217800283CD004985BF0BEF9A1
:104280004246019B1A702378022B00D071E751F04F
:1042900033FF8046002800D079E708985BF0AEF93C
:1042A000434642462370069B1A700FE0032B00D052
:1042B00074E7039B1B78002B20D1237068E73378C9
:1042C000002B03D14B46002B00D0EBE03B78002BBA
:1042D00000D168E751F010FF002801D023785DE796
:1042E00038700A985BF08AF900210020FFF7DAFDA8
:1042F000237853E705985BF081F9C1E751F0FCFEA4
:10430000002842D0039B1B78002B00D13FE7002000
:104310001099FEF73FFE23783AE752F0C5FA0D9068
:1043200000282DD0FC21484689050BF08DF80BF0B4
:104330000BF95B46DA68904200D959E160F084FEDF
:10434000FA221D9B0D901B685200C31A934200D3A2
:10435000A1E1229B0D9A1B68D31AC72B00D910E24A
:1043600052F0A2FA00280BD0437802781B021343C4
:10437000827812041A43C3781B06134300D11AE251
:104380005B4642465A60237802E760F05DFE0B9B75
:104390000C9A1B6812688046C31A934200D29DE0B3
:1043A000039B1B78002B00D1F1E600201999FEF742
:1043B000F1FD2378ECE6C0466016081018FE0710E1
:1043C00078ED0020ADDE0220A7DE02208C1608105A
:1043D000A3DE0220C016081010430020A4DE022035
:1043E000381B012020110120741C0120701C0120A9
:1043F000AADE0220A5DE0220781C0120F416081097
:104400003C1708107817081088170810BC170810F8
:10441000F81708102C1808106418081094180810C1
:10442000C4180810A01C0120EC180810801C0120E2
:104430000419081040190810681C01206C1C012088
:104440001C11012050160810581608105819081091
:1044500084190810DC190810A2DE0220141A0810B2
:10446000241A0810A6DE0220381A0810A8DE02203E
:104470006C1A0810901C01208C1C01207C1A08105A
:10448000941C0120841C0120881C01208C1A081017
:10449000981C0120941A0810A9DE0220A41A081002
:1044A000B70B000051F07AFA002800D06FE651F007
:1044B00025F9052800D06AE64DF0BCFF80460028AB
:1044C00000D19BE1037E002B00D197E10378042B00
:1044D00000D1D3E14EF08EF9237859E6099838A936
:1044E0005DF032FA002800D051E63B9B9946169BBE
:1044F000484619680AF0A5FF119B0D9019684846B7
:104500000AF0F6FF002847D04A46119B1A6042463F
:10451000179B1A60189B18680AF0EFFF011C0D9892
:104520000AF0DEFF002800D131E6039B1B78002B48
:1045300000D12CE601202999FEF72CFD237827E6EF
:104540000023994660F080FD0F9B1968D84B411AF3
:10455000994200D85AE61E985BF050F85B461B7AE9
:10456000002B00D0F7E03378002B00D1FDE020983D
:104570005BF044F821985BF041F85B4642465A6094
:104580003378002B00D065E60E9B1B78002B00D003
:1045900060E60233237006E64246179B1B68D31A77
:1045A000C34A9342B6D9039B1B78002B00D1EEE59A
:1045B00000203299FEF7EEFC2378E9E5129B0D9A74
:1045C0001A6060F041FD0F9B18601A9B1B78002B4E
:1045D00000D112E61F9B1B78002B00D00DE61F9A1E
:1045E00001331370259B2F9819685BF007F804E6D8
:1045F0000D99821A0B7849789146090219430D9B4F
:104600009B781B040B430D99C97809061943379110
:104610008A4200D9CDE04B46002B00D18EE6102215
:104620000D9938A80BF07EF84A46379B9B1A3893B1
:104630005B461B7C002B07D138AB1B8938AA0133A2
:10464000138101235A46137438A852F075F95B465A
:10465000D9681B9A4944D96013684B4413601A9B6C
:104660001B78002B00D169E61F9B1B78002B00D123
:1046700064E6259B1A68914200D25FE62D985AF0B5
:10468000BDFF5B461B7A002B00D176E700212E98F8
:10469000FEF7E0FC71E71B9B1B68002B00D15FE677
:1046A00001210C2047F086FB0020824950F05CFA83
:1046B000002800D1CEE0092338AA137060F0C4FCB2
:1046C00023000400994614E038A850F0A7FA022805
:1046D00000D1D1E0032800D1A7E004280FD005289D
:1046E00000D100E10C20012147F064FB0A2060F0BA
:1046F00073FC60F0A9FC704B001B9842E4D94C4657
:1047000008201C9B1B6801339946279B0D93139B24
:10471000002B01D0269B0D934A461C9B1A6050F03B
:10472000A5FF0D9903004A4633985AF067FF1C9B7A
:104730001968002900D113E634985AF05FFF01216F
:104740000C2047F037FB51F0D1F8002800D0B5E03D
:104750001C9B186004E602212398FEF77BFC02E70D
:1047600000212898FEF776FC07E751F0C5FC0028E9
:104770002BD13378002B00D0F9E624985AF03EFF75
:10478000FBE61B9B1B68002B00D1E9E501210C20F7
:1047900047F010FB0120474950F0E6F9139000283C
:1047A00089D11C9B09201B6801339946269B0D93D8
:1047B000B2E789462FE75B461B7A002B00D1DCE687
:1047C00003212C98FEF746FCD7E652F06DF800283E
:1047D0000AD0437802781B021343827812041A43EA
:1047E000C3781B0613433DD00A2052F037F92A98AC
:1047F0005AF004FF2B985AF001FFBEE652F054F82D
:10480000002800D1C3E4437802781B021343827866
:1048100012041A43C3781B06134300D1B7E40021E6
:104820000800FEF7B3FA2378B2E438AB18784C46A8
:10483000002800D065E700231B9A229913600D9A87
:104840000A601C990B60139B002B00D088E51D9B10
:104850001A6085E51C9B09201B6801339946279B3C
:104860000D9359E7052052F0F9F830985AF0C6FE3A
:1048700031985AF0C3FE80E64C46DCE738A852F087
:1048800047F8002800D182E4434638AADB7B927ABD
:104890009A4200D07BE4414638A8083163F044FADC
:1048A000002800D073E440464DF0A4FF6FE4C046FA
:1048B000B70B0000C4090000280A000035985AF020
:1048C0009DFE00231C9A13600E9A0133137050F062
:1048D000FBFF5B461B7A002B00D14EE60421369885
:1048E000FEF7B8FB49E64C4601200AE730B51C4C00
:1048F00089B02378002B01D109B030BD684600F0A3
:1049000015FA05996D46FF2904D00123D0228B406A
:10491000120693610022134B13489A725AF06EFEEE
:10492000124B1B78002B0AD10022002300211048D3
:10493000217001700F4910485AF060FEDCE7290031
:104940000E485DF001F80028EED10D4BE8681968BB
:104950000AF077FD0AF0FEFD02000B00E6E7C04614
:10496000A8DE022010430020780F0810A4DE0220E9
:10497000A3DE0220F4120810D80F0810381B012003
:10498000941C01200023074A10B51370064A0748FB
:104990001370074A1360074A1370074A13705AF0DE
:1049A0002DFE10BDCADE0220C4DE0220E81A081067
:1049B000D4DC0120C5DE0220B8DE022000213B4B02
:1049C00010B51A6801321A60394B1970394B1870DA
:1049D000394B1978022916D038490C780134E4B2E1
:1049E0000C70022C07D902211970072811D8344BFA
:1049F00080001B589F4601221A7007280DD8314BA2
:104A000080001B589F4607284AD82F4B80001B5810
:104A10009F46FF282FD12D4904E0FF2829D12B499B
:104A200005E02B492B485AF0E9FD10BD2849032326
:104A3000220029485AF0E2FDF7E72849F2E7284921
:104A4000F5E72849F3E72549F1E72749EFE7274943
:104A5000EDE72749EBE72249E4E72249E2E722496B
:104A6000E0E72249DEE72249DCE72249DFE7214986
:104A7000D8E72149DBE72049D4E715491F485AF018
:104A8000BDFDD2E71649F9E71449F7E71849F5E7FC
:104A90001649F3E71449F1E71249EFE71549EDE745
:104AA000FF2801D10949E9E71349E7E7D4DC0120F0
:104AB000B8DE0220C4DE0220CADE0220C5DE0220EB
:104AC000C8FE0810E8FE081008FF0810581B081060
:104AD000601B0810981B0810D01B0810481B0810FA
:104AE000101B0810181B0810241B0810341B08107A
:104AF0003C1B0810041B08100C1B0810681B081036
:104B000010B50F4A1378012B08D0002B05D10D4AA0
:104B10001378002B01D0013B137010BD0A4B19789C
:104B20000131C9B219700229F7D900231370074A5D
:104B300007481370034A13705AF060FDEDE7C04652
:104B4000CADE0220C5DE0220B8DE0220C4DE02205A
:104B5000F81B081070B5154C154D23782978072BD4
:104B60001DD8144A9B00D3589F46134A13485AF045
:104B700045FD0023124A2B701370124A23701370E4
:104B800070BD114AF2E7114AF0E7114AEEE7114A07
:104B9000ECE7114AEAE7114AE8E7114AE6E7FF2B9A
:104BA00001D1104AE2E7104AE0E7C046C4DE022025
:104BB000CADE022028FF0810601B0810281C0810FD
:104BC000C5DE0220B8DE0220101B0810181B0810DA
:104BD000241B0810341B08103C1B0810481B08102D
:104BE000041B0810581B08100C1B0810014B1878E8
:104BF0007047C046CADE0220014B18787047C04695
:104C0000C4DE0220014B18687047C046D4DC012086
:104C1000022803D8024B8000C05870470148FCE7C7
:104C200068FF08100C1B0810072813D80C4B8000D5
:104C30001B589F460B4870470B48FCE70B48FAE7A8
:104C40000B48F8E70B48F6E70B48F4E70B48F2E7A8
:104C50000B48F0E7FF2801D10A48ECE70A48EAE7E9
:104C600048FF0810601B0810101B0810181B0810C4
:104C7000241B0810341B08103C1B0810481B08108C
:104C8000041B0810581B08100C1B081070B51A4E96
:104C900084B030005AF0B2FC184D28005AF0AEFC37
:104CA000174918485AF0AAFC28005AF0A7FC01231B
:104CB00002930023144C154A0193009320210133E1
:104CC00020000CF09FF9210011485AF097FC11497F
:104CD00011485AF093FC114911485AF08FFC1149C0
:104CE00011485AF08BFC28005AF088FC30005AF02A
:104CF00085FC04B070BDC046C0C5081000FF071099
:104D00009C1C0810A41C08109CD90220781C0810B8
:104D1000C81C0810841C0810E01C0810901C081007
:104D2000F81C0810101D0810181D0810F8B5040014
:104D300047F064FC002813D04B23C75C013BC65CE2
:104D4000093BC55C0C33C15C0133C25C0133C35CFD
:104D5000200027606660A560E16022616361F8BDA4
:104D6000002300220021002500260027F0E7C0468E
:104D700010B50E23014A0CF045F910BD301D081086
:104D800010B5024847F0F4FD10BDC046A84500200C
:104D900010B547F0E7FE10BD002801D0472303609F
:104DA00000487047B0FF081010B5054847F01EFDD9
:104DB000041E01D1200010BD02485AF01FFCF9E783
:104DC00074FF0810441D081000487047480509107A
:104DD00070B50824002582B052485AF00FFC00211B
:104DE00000200EF031FC1023132212214E484AF00D
:104DF0005FFC152214214D484AF086FD0E204AF032
:104E0000F7FE00210E204AF01BFF0A2008F046F9A9
:104E100001210E204AF014FF0A2008F03FF944480F
:104E20005AF0ECFB434EFA21E0B289004AF03AFE18
:104E3000002804DB210030005AF0E0FB013501348A
:104E4000782CF0D1002D52D13B485AF0D7FBFA21F3
:104E5000242089004AF026FE002853DBFA2127206F
:104E600089004AF01FFE002857DB0923E1210022B8
:104E700000934902083B00204AF040FA06204AF01D
:104E8000B7FE0022012116204AF0BCFE0F204AF096
:104E9000AFFE00210F204AF0D3FE0E204AF0A8FEFC
:104EA00001210E204AF0CCFE02204AF0A1FE032090
:104EB0004AF09EFE11204AF09BFE012111204AF08B
:104EC000BFFEFA21072089004AF0C4FE0021072016
:104ED0004AF000FF0D204AF08BFE01210D204AF020
:104EE000AFFE16485AF08AFB002002B070BD2900C0
:104EF00013485AF083FBFA21242089004AF0D2FD9E
:104F00000028ABDA24210F485AF078FBFA21272039
:104F100089004AF0C7FD0028A7DA27210A485AF07D
:104F20006DFBA2E73C2A0810A0ACB903801A06006A
:104F3000702A0810942A0810C42A0810942B08100C
:104F4000F02A0810242B0810582B081010B5084818
:104F50005AF054FB074847F043FB041E04D10648AF
:104F60005AF04CFB200010BD04485AF047FBF9E70B
:104F7000C42B08103C050910042C08103C2C081008
:104F800010B50A2810D00C2808D0092805D100290E
:104F900017D10D490D485AF031FB10BD00290CD135
:104FA0000B485AF02BFBF8E7002904D106490948C1
:104FB0005AF024FBF1E70849F9E708485AF01EFBCC
:104FC000EBE70549E6E7C0467C2C0810C82C081022
:104FD000802C0810EC2C0810742C0810A42C08103D
:104FE00010B509485AF00AFB08485BF0D7FB041ECD
:104FF00006D05BF065FC06485AF000FB200010BDAF
:1050000004485AF0FBFAF9E7102D0810A005091022
:10501000842D08104C2D081010B5FFF79BFD0020C3
:1050200010BDC04610B5FFF761FC002010BDC046A2
:10503000C16810B58068FEF735FF03000120052B1D
:1050400001D8014AD05C10BDF805091010B5FEF773
:10505000A7FC03000120052B01D8014AD05C10BD3C
:10506000F805091010B58068FEF70AFC030001205E
:10507000052B01D8014AD05C10BDC046F8050910C7
:1050800010B5816800204DF081F910BD00487047CF
:105090000006091006207047F0B5DE4657464E461A
:1050A0004546E0B569488DB05AF0A8FA47F050FC83
:1050B000040002205CF044FAB722654B9200984647
:1050C000644B94460493644B644F9B4623006344B3
:1050D0000293634B634E9A46634B0793634B05936E
:1050E000634B0993634B0893634B0393634B0193A7
:1050F000634B0693634B0A93634B0B93FA239B001A
:10510000994623E0002861D04168002900D189E058
:1051100003985AF073FA01233370A368002B12D05E
:10512000DB68002B61D09847019B04001B78834209
:1051300009D000285DD006985AF060FA06205CF08D
:10514000FFF9019B1C7032205FF046FF5FF07CFF8F
:1051500043461B68C31A4B4526D201210D2046F059
:1051600029FE5FF071FF050050F0C8FA0400012825
:105170000DD006281ED00A282BD03C7047F0C4FA68
:1051800033780400002BBDD00028DCD0C5E75B4697
:10519000029A1B681289EB1A9342EED304205CF04A
:1051A000CFF95B461D60E8E743461860049847F076
:1051B000C9FAD2E73B78062B27D005205CF0C0F96E
:1051C000534607981D605AF019FAD6E70133337039
:1051D000B9E73B780A2B27D003205CF0B1F9059B97
:1051E00009981D605AF00AFAC7E7019B1B78002B4B
:1051F000A9D0FEF761FC011E22D00A985AF0FEF9F0
:1052000007205CF09DF900249BE75346029A1B6837
:10521000128AEB1A9342B0D305205CF091F9534601
:105220001D60AAE7089973E7059B184A1B68EB1AEB
:105230009342A2D903205CF083F9059B1D609CE793
:105240000B985AF0DBF900247BE7C046702E08105B
:1052500080ED0020F8FD07102CDD0120C2DE0220C9
:1052600030DD0120C3DE02208C2E081028DD012055
:10527000C42E0810682E0810F82E0810C1DE022077
:10528000182F0810342F0810642F0810B70B0000D7
:1052900010B50B4C84B02368002B01D004B010BDB6
:1052A000084B80220293084B0849019301230848C8
:1052B0000093520000235FF0CBF92060EEE7C04678
:1052C0006CDA0120A03B0020140901208C2F08106B
:1052D00099500110014B18687047C0466CDA0120E4
:1052E000002805D0002903D0036900200B60704717
:1052F0000120FCE70020704770B5041E24D016483A
:105300005AF07CF92369002B20D0F022134B9D58D2
:10531000002D01D1002070BD4BF034FA0023104A5B
:1053200009F0A6F9E46B80B2230C9842F2D1240470
:10533000230CA10BC91849008D42EBD82A0009485B
:105340005AF05CF90320E6E70120E4E70021064873
:105350005AF054F90320DEE79C2F0810A8450020DE
:1053600080510100F82F0810C82F081070B50C00EC
:1053700016001D0082B000280BD007485AF03EF9F5
:1053800000233200009320002B0052F073FA02B089
:1053900070BD0120FBE7C04628300810F8B50400B6
:1053A0000D00002843D002698A4242D3561AF022E7
:1053B000234B9B58002B01D0002914D120002661DB
:1053C000266250F06FFE041E08D050F04FF91D4BBE
:1053D000010018005AF012F92000F8BD31001A48F7
:1053E0005AF00CF9F8E74BF0CDF90023174A09F011
:1053F0003FF9E36B87B21A0CBA4205D11B041A0CB1
:105400009B0B9B185B00ED18A0231B039D4215D23C
:105410000A21280009F006F93F040743E76320004A
:105420002661266250F03EFE041ECED1D6E701244E
:10543000D2E707485AF0E2F80324CDE70548EBE746
:10544000A8450020BC30081094300810805101009D
:105450005C300810FFFF00000020704700207047FC
:1054600070B50C00002813D00161016250F01AFEE3
:10547000051E08D050F0FAF8064B010018005AF04B
:10548000BDF8280070BD210003485AF0B7F8F8E7CE
:105490000125F6E7BC3008109430081070B5041EE2
:1054A0001BD0056941614D192A000D485AF0A6F834
:1054B00020002561256250F0F5FD041E08D050F053
:1054C000D5F8084B010018005AF098F8200070BD7C
:1054D000290005485AF092F8F8E70124F6E7C0469B
:1054E000E4300810BC3008109430081010B50B4898
:1054F0005AF084F80A490B4850F022F9041E04D1EE
:1055000009485AF07BF8200010BD50F0AFF8074B67
:10551000010018005AF072F8F5E7C0460C31081087
:1055200038460020780609103C3108106C3108100C
:10553000F0B5C64600B5838804000D0088B0032B83
:105540004CD9C679837936021E432FD0477A037A25
:105550003F020E201F4303AB9846122200216844ED
:105560000AF0DAF8C22342469B001380002140462D
:105570009660D7604BF046FCE378002826D0021FE7
:10558000511E8A41022152428A430931694409323B
:105590000A70012200910192FF212800103252F07E
:1055A000B1FF002008B080BCB846F0BD0E2012222A
:1055B000002168440AF0B0F86A46114B002193813B
:1055C00003A84BF01FFCE378002814D10190009051
:1055D0001022FF21280052F095FFE2E7032303AADF
:1055E0001370C37801210092019111222800FE312D
:1055F00052F088FFD5E70B2209216A441170F1E7C8
:1056000009030000802370B50C4D1B01EB5A0C4CB4
:10561000E41A8C4200D90C00002C00D170BDEB18AC
:105620002200010018000AF07DF880221201AB5A16
:105630001B199BB2AB520022EA54EFE7A8410120AC
:10564000FF070000F0B5838804000D008DB0032B28
:1056500038D9082B2ED007AE811D042230000AF065
:1056600061F80023079F059304971E201222002152
:1056700068440AF051F81E4B002133803000B760B7
:105680004BF0C0FBE378002829D00438421E90413B
:10569000052142428A430A31694409320A700122D3
:1056A00000910192FF212800103252F02BFF0020C0
:1056B0000DB0F0BD811D082204A80AF033F807AE32
:1056C000049FD2E70323012107AA1370C378019135
:1056D000009228001122FE3152F014FFE7E70190FA
:1056E00000901022FF21280052F00CFFDFE7C04697
:1056F0000B030000F0B5C64600B5838804000D001A
:10570000A4B0002B3FD01E1C7F2B3AD8B6B232007B
:10571000A11D04A80AF006F80023102298466B4643
:105720009B18424619009A5580271D4859F066FF7C
:1057300043461C4E3F011C4904A8F3534BF0D6FCD2
:10574000F75B0020002F15D101220321174BF054E5
:10575000174BF25403AA90701780E3782800019148
:105760000092FC31F12252F0CDFE002024B080BC2A
:10577000B846F0BD0F4B1049F81808F02BFFC0B227
:10578000E2E77F26C2E7012104AA03331370C3783E
:105790000191009228001122FE3152F0B3FEE4E79D
:1057A000A8310810A8410120B00609100208000025
:1057B000040800000710000008100000F0B5DE46E5
:1057C00057464E4645460923E121E0B593B0009384
:1057D00000220020083B490249F090FD002800D13A
:1057E000C9E0012153F09EFA002800D0C3E0002355
:1057F0000022012153F042F980214903080052F0B0
:1058000001FF6249062053F0BFFA6149F02053F0CE
:10581000BBFA6049F12053F0B7FA5F49F22053F028
:10582000B3FA5E49092053F0AFFA01F081F8012282
:105830005B4B01215B481A7059F0E0FE5A4B36264B
:10584000994603AB9A46FA239B0098464023574F4C
:105850009B4607AC6E4409E0200053F089FA53F0F0
:1058600023FB54F00FFA01205FF0B6FB5FF0ECFB76
:105870003B68C31A434503D33860484646F062FF8D
:105880000121042046F096FA29220021200009F087
:1058900043FF46F039FF051E1AD08368002B17D04E
:1058A000027822709A68002A02D09047AB68607034
:1058B0005A6A002A02D09047AB686060DB68002B10
:1058C00006D09847002803D00222E3781343E37000
:1058D000FDF700FFA070FEF7D7FA002803D05A4664
:1058E000E3781343E370FEF7D5FA3080000C708044
:1058F000FFF77CF9A077FFF77FF92023FF22E2541E
:1059000015336B441900E0770DA8FEF739F94BF019
:10591000F7F9002813D08023E2785B421343E37049
:10592000234BFA229C466044FF239202904204D209
:10593000FA21890008F076FEC3B22822A35450F061
:10594000DBFBE3781843E07050F0D8FF002883D0E9
:10595000504650F0DDFF002800D17DE753469B7A8A
:105960001D1C072B00D907255146EAB20AA809F0E9
:10597000D9FEE57470E700205EF09EFF13B0F0BC26
:10598000BB46B246A946A046F0BDC04645560110EA
:10599000B5590110F55601103D5A0110315501104D
:1059A000B4DE0220D0310810F831081068ED002074
:1059B000E70300008023F0B5060008001D49DB0066
:1059C000CA5A1D4BC3B0CB5A9A4203D28024E4007A
:1059D000A4466244D21A92B2002A22D08024171C14
:1059E0006400A2421BD802AA944614000022BFB24F
:1059F000CD5C013201339B0592B225709B0D0134C1
:105A00009742F5D80C4A8B526246F378FF210092F8
:105A10000197F02252F076FD002043B0F0BD271C24
:105A2000E1E7F378FF2101920092102252F06AFD23
:105A3000F2E7C046B049012002040000030070B53F
:105A40009A88080084B0002A22D01C4C1C4AA25C10
:105A5000002A1DD01B499A79615C914225D95102D7
:105A6000521880210901615AD20092B2891A164E49
:105A70000D1C89B2DB78B1421DD8A218ADB20092DC
:105A8000FF21F222019552F03DFD002004B070BDCF
:105A90000F2203216A441170DB78023901910092D0
:105AA000FE31112252F02EFDEFE70F2203216A444E
:105AB000DB781170F1E7351CDFE7C046A841012013
:105AC00004080000020800000810000010B50B4C8C
:105AD00084B02368002B01D004B010BD084B802295
