:020000041001E9
:1000000000B5324B212058609868022188439860DF
:10001000D860186158612E4B002199600221596106
:100020000121F02299502B49196001219960352056
:1000300000F044F80222904214D00621196600F024
:1000400034F8196E01211966002018661A6600F04E
:100050002CF8196E196E196E052000F02FF8012189
:100060000842F9D1002199601B49196000215960AB
:100070001A491B48016001219960EB211966A021F2
:10008000196600F012F800219960164914480160C1
:100090000121996001BC002800D000471248134993
:1000A000086003C880F30888084703B5996A0420EC
:1000B0000142FBD001200142F8D103BD02B5186610
:1000C0001866FFF7F2FF186E186E02BD00000240BE
:1000D000000000180000070000035F00212200005C
:1000E000F4000018222000A00001001008ED00E03C
:1000F00000000000000000000000000074B24E7A12
:1001000000200420F7010110CB010110CD010110E6
:10011000C9010110C9010110C9010110C901011073
:10012000C9010110C9010110C9010110F9610710CD
:10013000C9010110C901011025610710756207107E
:10014000C1010110C1010110C1010110C101011063
:10015000C1010110C1010110C1010110C101011053
:10016000C1010110C1010110C1010110C101011043
:10017000C1010110C1010110C1010110C101011033
:10018000C1010110C1010110C1010110C101011023
:10019000C1010110C1010110C1010110C101011013
:1001A000C1010110C1010110C1010110C101011003
:1001B000C1010110C1010110C1010110C1010110F3
:1001C000EFF30580103800BE00BE00BE00BE00BECA
:1001D00000BE00BEF2EB8871AC920F10CC920F10F3
:1001E0003802011090A31AE71E481F49086006C88C
:1001F00081F3088810471D480068002801D019487D
:10020000F3E70DA40ECC002902D000F012F8F9E7B4
:100210001749184A002000E001C19142FCD116495B
:100220008847164988471649884700BEFDE701C937
:1002300001C29A42FBD37047CC920F10E00000201D
:10024000B01C00209CAE0F10000004200000042011
:100250009CAE0F10001004200010042000000000CD
:10026000704700000000000008ED00E0000000D032
:10027000B01C0020CCD6022035180210D502011087
:10028000F5170210F8B5C04606480749091A8B1041
:10029000C90FC91810B5491003D0044B002B00D06A
:1002A000984710BDB01C0020B01C002000000000CA
:1002B000054B10B5002B03D00449054800E000BFF2
:1002C000FFF7E2FF10BDC04600000000A03801208B
:1002D00088340810002110B5002014F0D9F8062049
:1002E0000EF040F8D02340221B065A620F485A6194
:1002F00011F010FC0E4811F00DFC04F029FE4CF03A
:1003000025F868F075F90B4811F004FC012106206E
:1003100050F078FC32200DF081F80021062050F0DA
:1003200071FC32200DF07AF8F0E7C04688340810EE
:10033000A4340810C4340810024A1368013313604F
:100340007047C0467419012070B505000B480C00B9
:1003500011F0E0FB29000A4811F060FC002C08D0E5
:100360002100084811F05AFC074811F0D3FB72B67F
:10037000FEE7064811F0CEFBF6E7C046E034081071
:1003800004350810183508103C35081028350810B9
:10039000034B0360034B0B6080239B00136070478B
:1003A0001879002044BD0220034B0360034B0B600F
:1003B000C0239B0013607047C87A002044C5022008
:1003C000004870475843091000487047F44209102C
:1003D00070B5002800D173E0032852D1414D11219E
:1003E000280011F037FC28006CF076FD002800D1C1
:1003F00075E03D4C2B786380012839D06B78A38061
:10040000022835D0AB78E380032831D0EB78238104
:1004100004282DD02B796381052829D06B79A381FD
:10042000062825D0AB79E381072821D0EB792382F8
:1004300008281DD02B7A6382092819D06B7AA382F1
:100440000A2815D0AB7AE3820B2811D0EB7A2383EC
:100450000C280DD02B7B63830D2809D06B7BA383E5
:100460000E2805D0AB7BE383102801D1EB7B2384DE
:10047000C023013040009B0003439BB22380200037
:1004800070BD052829D8194B8000C458002CF6D01F
:1004900020006CF021FD050020281CD8002807D082
:1004A0000023134AE15C0133118002329D42F9D8E6
:1004B000C02301356D009B002B430B4C9BB2DDE745
:1004C0000B4C0A4B2000196802220FF09BFCC12341
:1004D000023C9B00D2E72025E0E70024CFE7054B54
:1004E000014CCBE7386F0020BCE900204812002007
:1004F000BEE900200203000010B55A4862F024FD56
:1005000004F0C0FB04F04CFC4DF0BAFB05F024FCF9
:1005100000283ED0544862F017FD4EF035FE04002E
:1005200005F074FF4CF032FC002800D094E0002C61
:100530002FD14DF09BFA01000200073117324B48D2
:1005400062F002FD4DF092FA8F23C35C0400002B91
:1005500030D18E23E35C002B37D18D23E35C002B5D
:100560003ED18A23E35C002B4ED14BF095FF00284F
:1005700007D005F085FA03F0EBF88B23E35C002B42
:1005800056D18C23E35C002B48D1394862F0DCFC67
:1005900010BD384862F0D8FC4DF0F0FA011EC8D00A
:1005A000354862F0D1FC4DF061FA8F23C35C040042
:1005B000002BCED00122314B042031495A714BF02F
:1005C000F1FE8E23E35C002BC7D004F00BFD2B4B18
:1005D000002837D001221A718D23E35C002BC0D094
:1005E000B8239B00E01864F019FC00282DD004F01B
:1005F0007BFE0122214B0D202249DA704BF0D2FE06
:100600008A23E35C002BB0D001F02EFE01221B4BAD
:100610000B201D491A704BF0C5FEA6E703F002FA45
:100620000122164B0C2019499A704BF0BBFEACE727
:1006300059F0ACFB0122114B0E2015495A704BF0BA
:10064000B1FE9EE702221A7187E7124862F07CFC35
:1006500004F04AFE0222CDE70F4862F075FC002C40
:1006600097D166E79C350810FC3508104C36081009
:100670001C370810C435081078360810C0C2012095
:10068000AC360810F0360810FC3608101037081089
:1006900008370810B43608102836081070B5052839
:1006A0000CD82A4B2A4D8400E1582B5C012B3ED0FC
:1006B000284862F049FC284B1B599F46274B0100F4
:1006C000180062F041FC002070BD01230420244981
:1006D0006B714BF067FE0120F6E759F057FB0123E1
:1006E0000E2020496B704BF05DFE0120ECE704F01A
:1006F000FBFD01230D201C49EB704BF053FE012044
:10070000E2E704F06FFC0028DDD001230F20174939
:100710002B714BF047FE0120D6E703F083F901234C
:100720000C201349AB704BF03DFE0120CCE7114883
:1007300062F00AFCC7E701F097FD01230B200E4988
:100740002B704BF02FFE0120BEE7C04684430910FA
:10075000C0C201208C3708106C43091048370810BC
:10076000AC36081008370810F0360810A837081003
:10077000103708106C370810FC36081010B5052823
:1007800005D8044B8000C158034862F0DDFB00200F
:1007900010BDC04684430910B4370810052802D89C
:1007A000024B185C70470220FCE7C046C0C2012023
:1007B000052803D8024B8000C05870470148FCE769
:1007C00084430910DC370810F0B5D6464F4646463C
:1007D000C0B58AB04DF04AF90400354862F0B4FB68
:1007E000344B9A46180062F0AFFB334862F0ACFB22
:1007F000504662F0A9FB314862F0A6FB304862F037
:10080000A3FB8A23E35C002B50D02E4B04938B2355
:10081000E35C002B48D02B4B05938C23E35C04ADA9
:10082000002B3FD0274BAB608D23E35C002B37D0F0
:10083000244BEB608E23E35C002B2FD0214B2B61EC
:100840008F23E35C002B27D01E4B01AF3A006B6176
:100850001D4B1E4E13CB13C2182399461C4B1D4C27
:100860009846A144337802CC9B004046FB5804CD07
:1008700062F06AFB01364C45F4D1504662F064FBED
:10088000154862F061FB154862F05EFB0AB0E0BCFF
:10089000BA46B146A846F0BD114BD6E7104BCEE79D
:1008A0000F4BC6E70E4BBEE70D4BB5E70C4BADE764
:1008B0006C0B0910F0370810B0380810F438081025
:1008C00028390810E43708109C430910C0C20120E1
:1008D000E839081084430910FC390810283A081038
:1008E0006439091010B567F0EFFF10BDF0B5DE46B2
:1008F00057464E464546E0B585B04DF0B7F8F22371
:100900004F4E5B000400C05833684E4F98426AD087
:100910004D4B98464D4B99464D4B9A464D4D2B6845
:100920009B46002B44D02BF06DFF02AB18700204E5
:100930000002120E000E5A7098700022584602995A
:100940001DF0C8F9FF21286800221DF0D3F9F42218
:100950002B685200A058934601932BF053FF03AB32
:10096000187002040002120E000E5A7098700022D5
:10097000039901981DF0C8F9F6235B00E15C286833
:1009800000221DF0DBF9EE23FF33E15C2868002232
:100990001DF0DEF9286800220121F2251DF0C4F9BE
:1009A0005B466D00E25861592B4862F0CDFA605900
:1009B000F4235B00E35842463B60F62330605B0063
:1009C000E35C1370EE234A46FF33E35C1370F823B5
:1009D00052465B00E358136005B0F0BCBB46B2461C
:1009E000A946A046F0BDF4235B00E2583B689A425A
:1009F00000D08DE7144B9846F6235B00E25C43463B
:100A00001B789A4204D0114B9946114B9A4685E7C0
:100A10000E4B9946EE23FF33E25C4B461B789A421D
:100A200002D00B4B9A4679E7094B9A46F8235B00B4
:100A3000E25853461B689A4200D06FE7CCE7C046A5
:100A400078120020741200206E1200206D12002017
:100A500070120020787C00208C3A081070B50400D9
:100A600086B0642864DD642423001021324A02A881
:100A700010F038FE314E306800280FD0304D29007C
:100A80003AF0EEF93068002802D0012115F0FAFAA8
:100A90002C4B03CD03C31A002B7813702A4D286802
:100AA000002808D029493AF0DBF92868002802D04C
:100AB000012115F0E7FA264D2868002808D002A980
:100AC0003AF0CEF92868002802D0012115F0DAFAB0
:100AD000204D2E68002E1BD01F482BF093FE0204E1
:100AE00001AB120E5A70802218700002000E98702E
:100AF0000199300092021DF0EDF8286800222100D3
:100B000035F06CFC2868002802D0012115F0BAFAF3
:100B1000124B1868002802D0012115F067FA104B1B
:100B20001868002802D0012115F060FA06B070BDE7
:100B3000C343DB171C4097E7D03A0810A07C002085
:100B4000D83A0810801D0120A47C0020E43A081047
:100B5000887C00207C7C00200A820500987C002094
:100B60009C7C0020F0B5DE4657464E464546E0B533
:100B7000EB48D9B062F0E8F963F0A8FFE94862F009
:100B8000E3F90120E84966F0E1FAE84B9A4618607B
:100B9000002801D101F026FA002108200091E44B41
:100BA000E44A043166F03AF9E34D2860002800D1A8
:100BB000A2E21B2150F070FA002800D064E2DF4866
:100BC00062F0C2F9DE4862F0BFF963F03DFF6920D0
:100BD00067F07AFEDB4862F0B7F9322067F074FE06
:100BE000D94862F0B1F929F0D5FAD84862F0ACF9E9
:100BF000D74833F0E1FCD74862F0A6F9A022F021F3
:100C00005200D54862F0A0F9A021D44AF020009209
:100C1000D34B0322490025F0FDFDD24E3060002861
:100C200000D155E2D04862F08FF90021306820F001
:100C3000E1FDCE4862F088F99621CD48490162F085
:100C400083F9002330680093962300225B01C94991
:100C500020F036F9C84862F077F9C84862F074F9B4
:100C600014F0BEFAC64862F06FF94CF0FFFE0400C3
:100C7000C44862F069F9FFF739FEC34B18680D9359
:100C8000002804D02100A231FF313AF0E9F84CF0FD
:100C9000EDFE0D9A03001068002809D0FA225200D8
:100CA0009B5C0121002B01D101F0B2F815F0EAF9AB
:100CB000B64862F049F9002063F0DEFE64F020F8E7
:100CC000306820F041F88346B148594662F03CF95B
:100CD00067F032FEAF4BA9468046070006005D462E
:100CE000049313E02EF0EEFC01210B204BF06EFB81
:100CF0004346FA22E31A9B465200A31B934215D2A5
:100D0000A54B9B451ED8052067F0DEFD63F0F2FF82
:100D1000A84201D301F031F867F00EFE0400C01BB9
:100D2000BC42DFD033F0C6FB2700DBE763F0E2FF15
:100D30005B4601002A00049862F006F9964B2600F3
:100D40009B45E0D963F0D6FF5E46AB46934C01006D
:100D500033005A4620004D4662F0F6F8642067F0F2
:100D6000B3FD63F0C7FF8E4B0100180062F0ECF892
:100D70008C4862F0E9F800242000053463F07CFE22
:100D8000E4B21E2067F0A0FD692CF5D1642063F069
:100D900073FE854862F0D8F8844862F0D5F867F0B1
:100DA000CBFD4B9067F0C8FD814B824E0A931860D3
:100DB000814B30609846814B814F0593814B139353
:100DC000814B2F93814B4293814B1693814B4393DD
:100DD000814B3893814B3993814B2C93814B2093DA
:100DE000814B0C93814B2293814B3093814B1E930B
:100DF000814B1893814B2393814B2493814B119307
:100E0000814B3193814B3E93814B4193814B329384
:100E1000814B2593814B2D93814B3393814B2693AB
:100E2000814B3C93814B3493814B2793814B3D9372
:100E3000814B3A93814B3B93814B2893814B299370
:100E4000814B2E93814B1993814B3593814B2A9380
:100E5000814B3693814B3793814B2B93814B14936A
:100E6000814B1293814B1593814B1F93814B994674
:100E7000814B0993814B0693814B3F93814B409368
:100E8000FA239B009B465346CA46C146B0461E0005
:100E900067F052FD4B461B68C31A5B4539D20B20E5
:100EA00001214BF093FA2868002812D00023002279
:100EB00050A9509366F084FA01280AD1509C002C66
:100EC00000D01DE12868002250A966F079FA0128B7
:100ED000F4D067F031FD04004CF0C8FDCA2243464F
:100EE00052001B688258E31A934200D325E1FA218D
:100EF0003068490066F0F2FA012800D18EE20A203B
:100F000067F0E2FC67F018FD4B461B68C31A5B45AF
:100F1000C5D34B46186005984BF03AFFBFE7C04673
:100F2000683B0810A03B08103838012034380120F5
:100F3000DC1D0120301E0120D81D0120403C08107E
:100F4000743C08109C3C0810B43C0810D83C0810B5
:100F5000E5080110F03C0810183D0810814B0710FF
:100F6000F94A0710D41D0120743D0810A03D081057
:100F7000D83D0810002200200C3E0810303E08101A
:100F80004C3E0810643E0810A07C0020943E0810DF
:100F9000C43E0810FC3E0810B70B0000383F081094
:100FA000783F0810AC3F0810CC3F081000400810F4
:100FB00010470220A01D012010EA00203440081034
:100FC0008C6002206C120020404409103840081048
:100FD0007C120020A8430910EC3A0810FC3A0810D3
:100FE000F43A0810801D0120A47C002094380120D0
:100FF000B4EB081068120020887C002054400810D0
:1010000058400810A41D012008440910483B08104E
:101010005C3B081087D6022088ED0020BC20091018
:1010200086D6022084ED0020283B081085D60220B9
:1010300080ED0020343B0810043B0810103B0810E2
:1010400088D602208CED00203C3B08101C3B081089
:10105000E043091064120020604008107C7C0020EE
:1010600060120020807C0020A1D602208C7C002011
:10107000A2D60220C81D0120C3D60220B002012042
:10108000F0B50810543B08102421286850F004F8EB
:10109000002800D193E51C2128684FF0FDFF0028AF
:1010A00000D18CE50D2128684FF0F6FF002800D113
:1010B00085E50E2128684FF0EFFF002800D17EE57E
:1010C000252128684FF0E8FF002800D177E579E571
:1010D000CE4861F039FFCE4861F036FF53461868BC
:1010E00066F0BAFB002067F05FF859B0F0BCBB4671
:1010F000B246A946A046F0BDC64861F025FF61E5AD
:1011000023781B2B00D163E1242B00D170E11C2B31
:1011100000D03FE163880F2B0AD9A379012B00D1BE
:101120004BE2032B04D100225333FA54083BF8540A
:1011300020004FF05BFF2868C5E643460A2130686F
:101140001C6066F0CBF90400012800D0CFE6FFF761
:10115000CDFB42A8002384460F210E2042AA9373A0
:10116000D3734C934D934E934F93614460444FAB74
:101170004EAA039005F03CFD4DA904904CA859F0EF
:10118000CFF9002800D047E2049B002B00D0D6E224
:101190004CF06CFC049B0890BB778A23C35C002B4B
:1011A00000D03CE38B23089AD35C002B00D0DFE215
:1011B0008C23089AD35C002B00D0EBE28D23089A95
:1011C000D35C002B00D0F7E28E23089AD35C002B6F
:1011D00000D003E38F23089AD35C002B00D00FE3E9
:1011E000BB7F5A1E93417B7767F0A6FB4823FA5CCE
:1011F00001330792FB5C1A933B6C0F934C23FB5C0F
:101200001B935423FB5C10934B23FB5C0E93002B2E
:1012100000D085E2012A00D188E2D31E5A42534110
:1012200000220E9317924F23FB5C1C93002B09D0D6
:101230003B6D794AC31A934206D9002301223B65CC
:101240004E33FA5200231C937B7A002B00D156E2D6
:10125000109A002A05D101233B74BB6DF8607B61B5
:101260007A723B780E9A002B00D0FAE1002A01D165
:1012700000F00BFD01223B743B723B654E33FA528A
:1012800001233B7052F03EFD002801D100F0F9FC33
:101290000022037E1D92002B03D0079A5342534134
:1012A0001D9356233A7A387C21920F9AFB5C002AD0
:1012B00000D096E1FA6B0B92002A00D192E1FB215B
:1012C0001A9A063A0A4200D18CE1109A002A00D0FC
:1012D00088E1002800D085E1219A002A00D1ABE204
:1012E000002B00D1ADE2139B1B780493012B01D09E
:1012F00000F015FD4D33FB5C002B0BD0139B049AC3
:10130000210042981A7061F01FFE109B002B01D043
:1013100000F056FD0022079B0792013BDBB2032B36
:1013200002D82F9AD35C0793169B079A1B78140058
:10133000934205D14E23FB5C002B01D100F0D9FC78
:101340004CF094FB0D9A03001068002801D100F0C6
:10135000AAFC64011B19F533FF331B780121002B14
:1013600001D100F09AFC14F08DFE0D9B1C68169BB9
:10137000079A1A70089BC233FF330793002C00D1E1
:101380000CE3049B0D2B01D900F05CFF439A9B00FA
:10139000D3589F460D2B00D17EE00E2B00D1B4E038
:1013A000252B00D0C4E663881F2B00D8C0E654224A
:1013B0005621E3791840B8541A07D20F7A545522AF
:1013C0005B07DB0FBB546369A269FB65BA65AFE6D7
:1013D0006388132B00D8ABE6A379012B00D1A6E0DC
:1013E000032B00D0A4E65333F854083BF8549FE68F
:1013F0006388132B00D89BE6A379012B00D1A9E0C9
:10140000032B00D094E65333F85491E64C3D08107A
:10141000E43B0810143C08100F27000067F08CFA1A
:1014200053461B680400002B03D0C01A9C4200D016
:10143000C0E053461C604CF019FB099C2378002B3C
:101440000CD1FA218933FF33C05889000DF05AFCC2
:10145000069B1B68834201D3012323702EF032F9CF
:10146000040067F069FAFA210A9B89001B68C01A18
:101470000DF048FC069B0022186000210023306814
:1014800065F07AFD642C4CD82100052C00D2052192
:101490004BA867F0CBF9FBE463881F2B00D847E625
:1014A000E38804930423627A13405907C90F089113
:1014B0009107C90F0B911040227A2169079254229B
:1014C000BA5C8C46002A52D05522B95C0D3A0E9176
:1014D0000499B95207990232B9540132B854242000
:1014E00002A9091809780132B95402A9087E0E9997
:1014F0000132B85400294CD162467A64002B00D0E6
:101500002BE14E230122FA5412E663880F2B00D8F8
:101510000EE6A368E2683B647A64002BF1D0FB63BB
:10152000EFE74CF0A3FAC2235B00C458ACE75422A7
:10153000BB54E379013B5A4253415522BB5400232B
:10154000BB65E368002B00D123690122FB654E23B4
:10155000FA54EDE55422BB54E379013B5A4253411E
:101560005522BB54E2682369BA65FB65E0E5482271
:101570000499B95207990232B9540132B85424205F
:1015800002A9091809780132B95402A9097E013269
:10159000B954E26807923A6462467A64002B00D03C
:1015A000D0E06B461B7C012BABD1079B002BA8D056
:1015B000FB63A6E732F07EFF3BE754220021E3798C
:1015C000B952E268F965BA65012B9AD1227A032AE9
:1015D00001D100F063FD4F230022FA5400233B6544
:1015E0008FE70B92002B00D078E1109B002B00D1ED
:1015F00027E1139B1B7804930E9B002B00D182E301
:10160000049B052B01D000F0C6FC4933FB5C002B8A
:1016100000D176E1052471E6049B00204D9C002B4F
:1016200012D04F9B0493A3420ED9002C01D000F09E
:101630001FFDFFF713FA4E2300220021FA543068F1
:10164000002365F099FC52E4002CF2D064220023C0
:101650004C9800210EF048FA220000230DF090FB78
:10166000E7E7002A00D00DE60123786000203B72F6
:101670003A70C623089A5B00D358834200D901E62A
:101680004CF0F4F90D9A03001068002809D0FA22F2
:1016900052009B5C0121002B01D100F047FD14F0AA
:1016A000F1FC4CF0E3F90D9BC2301B68FF300400E5
:1016B000002B03D00100180039F0D2FB0B222100CF
:1016C000C6486AF069F900233822C5498B544B2279
:1016D0008B544F22CB638B540B720B654CF0C6F9C5
:1016E0000D9A030010680028A5D0FA2252009B5CD6
:1016F0000121002B00D132E214F0C4FC9BE71099C9
:101700003B7C7972002B00D1ABE5002900D0A8E525
:10171000FB68B44AC31A934200D8A2E53974A0E525
:1017200000231793079B012B00D07CE50F9B002B18
:1017300000D1E2E2FB63012317930E9373E542AB02
:10174000D87B76E7380021000B222D3014316AF067
:1017500023F938230022FA5423E721000B22143105
:101760009E486AF019F9382300219D4AD154C8E6F1
:101770000120FFF713F8012800D119E5BB7F5A1C9F
:10178000BA770122FB18DA778C23089AD35C002BF6
:1017900000D113E50220FFF701F8012800D10DE583
:1017A000BB7F5A1CBA770222FB18DA778D23089A7E
:1017B000D35C002B00D107E50320FEF7EFFF0128E3
:1017C00000D101E5BB7F5A1CBA770322FB18DA77F8
:1017D0008E23089AD35C002B00D1FBE40420FEF793
:1017E000DDFF012800D1F5E4BB7F5A1CBA77042243
:1017F000FB18DA778F23089AD35C002B00D1EFE433
:101800000520FEF7CBFFBB7F012800D1E9E40521CD
:101810005A1CD2B2FB18D977BA771300E1E4002042
:10182000FEF7BCFF012800D1BCE4BB7F5A1CBA778D
:10183000049AFB18DA77B5E4002B01D000F06AFCBB
:101840000B93139B1B7804931C9B002B01D000F07F
:1018500003FC1B9B002B00D0E5E3079B023B012B05
:1018600000D8D1E31A9B012B00D1E8E3022B01D170
:1018700000F0F1FC032B00D1E1E3042B00D1DEE307
:10188000062B01D100F0D2FC0A2B04D10E9B002BB9
:1018900001D000F0B5FC079B042B01D100F0A4FCA3
:1018A000012B01D100F083FC179B002B01D000F02D
:1018B00072FC002801D000F058FC219B002B01D0C5
:1018C00000F047FC049B002B01D000F033FC4E33AA
:1018D000FB5C002B00D11DE500240FE5139B1B785A
:1018E0000493012B00D01AE24D33FB5C002B00D196
:1018F0000BE5139B049A210042981A7061F024FBB7
:1019000003E5169B1B78032B00D0A0E30D9B1C68FE
:10191000089BC233FF330793002C00D16FE14D23A6
:10192000FB5C002B34D02D239C46BC4463460793BC
:10193000079920986BF084FA00282FD01F2207996E
:1019400020986AF029F80023209A20001100D3770C
:1019500039F086FA0C9B1B680793002B23D1189B48
:101960001868002859D0049B043BDBB2092B4DD8E2
:10197000359A9B00D3589F462D23FB5C002B07D044
:101980002D239C46BC4463460793D1E7399B0793BC
:10199000079920986BF054FA0028CFD10C9B1B6854
:1019A0000793002BDBD07B7F002B00D0C2E1049B90
:1019B000053B012B00D82CE1049B0C2B14D00122F9
:1019C0004A231E995242FB5C0A60049A0D2A00D9F0
:1019D00087E3319992008A589746C046B960022041
:1019E0008C600220871300007C69002C00D014E179
:1019F0001E9A0D3B07980121136014F0F7FA189B0B
:101A00001868002809D00B9B1C1E73D1012114F00B
:101A1000EDFA01232A9A5B421360379B1B680793F8
:101A2000002B24D00123049A9340D54A134200D0BE
:101A3000D9E093221201134219D0796C002916D0F3
:101A400064200F9B58430DF05DF90400642800DD0D
:101A5000F9E1C343DB171C402B9B1B68A34206D054
:101A600000222100079834F0B9FC2B9B1C60149BCA
:101A70001C68002C10D00499C24A129BCA40012154
:101A800008001B78104011427BD1002B04D0129B20
:101A90001870200014F0AAFA159B1C68002C00D1C5
:101AA000C9E57B7F002B06D1049B052B4AD8022B6E
:101AB00000D9FCE04AD166F03FFFBA693B7F821A49
:101AC000F92A03D9012253403B77B861159A14686B
:101AD000002B00D06BE2002C03D00121200014F079
:101AE00085FA02231F9A1370A5E53B7A002B00D0DC
:101AF00089E1FC6D012114F0C5FA2A9A1368A3420A
:101B00008BD0FA21146089008C4200D275E29E4B82
:101B10009C4200D862E120000DF0F4F8102103008F
:101B2000249A50A80FF0DEFD189B50A9186839F0D0
:101B300097F972E7159B1C68002C00D17BE57B7F31
:101B4000002BB8D1049B083B032BB4D91F9A137800
:101B5000002B00D16FE5002301212000137014F049
:101B600045FA68E50798012114F08CFA189B18686B
:101B7000002800D047E7149B1C68002CDAD0129B89
:101B80001B780B9A002A01D1FA6B0B927F4A0B99B2
:101B9000914200D9FCE0012B00D17DE7CC2001234C
:101BA000129A000413702AF02DFE2022212142AB4C
:101BB0009B18187042AA030452181B0E137022229D
:101BC00042AB9B1800220002000E18704A992000B8
:101BD0001CF080F8149B1868002800D15CE70121F4
:101BE00014F050FA58E7002436E7169B1B78032BB5
:101BF00000D02CE20D9B1C68002C00D0C6E60C9B8C
:101C00001B680793002B00D1A9E67B7F002B00D037
:101C100090E0BC6D002C00D1D1E6642120000DF0D5
:101C200071F81E990B68984226D008600A21079027
:101C30000DF068F8544B08909C4200D936E20A2116
:101C400007980DF05FF8089B0091239A102150A887
:101C50000FF048FD0C9C50A9206839F001F90F22C3
:101C6000119850A969F098FE0023119AD373236844
:101C70000793002B00D172E60121079814F002FAB5
:101C80006DE600231D93FFF70CFB3B7A002B01D17F
:101C9000FFF7F8FA7B68C01AEBE414F0A7F90D9B84
:101CA0001C68FFF764FB169B079A1A7076E61F9A6A
:101CB0001378012B00D1BEE4FF2001230002137032
:101CC0002AF0A0FD42AB1874030400021B0E42AAC6
:101CD000000E537490744699200000221BF0FAFF06
:101CE000159B1868002800D1A5E4012114F0CAF959
:101CF000A1E40D9B1C68FFF73DFB1B9B1793012381
:101D00000E93FFF790FA049B062B00D037E148337F
:101D1000FB5C002B00D168E70624FFF7EFFA0123F4
:101D20000493049A139B210042981A7061F00CF9F5
:101D3000FFF7EBFA66F000FE2C24FA22229B395DB5
:101D40001B680790C31AD20093423DD27918C87F0E
:101D5000FEF72EFD20210300309A50A80FF0C2FCA0
:101D60000C9C50A9206839F07BF82068002800D12D
:101D7000F5E5012114F086F9F1E54D46FEF7EEFF99
:101D8000CF060000303900000F270000973A00000E
:101D9000DB4A914242D8022B00D17DE60223129AFF
:101DA000D84813702AF02EFD42AB187703040002C6
:101DB00042AA1B0E000E537790774999002206E73E
:101DC00003230793FFF7B0FA481CB97F0CF09AFF82
:101DD000229B079AC9B239551A60B7E764212000DF
:101DE0000CF090FF0A2104000CF08CFF0A210790F0
:101DF00020000CF087FF079B0091239A102150A828
:101E00000FF070FC90E6FC6B002C00D072E670E6E0
:101E100014F0ECF8FEF74CFF0B9C6BE6032B00D1A3
:101E20003AE60323129AB84813702AF0EBFC42AB4F
:101E300018760304000242AA1B0E000E5376907619
:101E400048990022C3E6642406E63B9C012B00D19E
:101E50004EE166F071FD2999289B0A68FA211B78EA
:101E6000821AC9008A4205D3012229995340289A2F
:101E7000086013700C9A12680792002B00D0199C0E
:101E8000210011986AF0DCFF00285FD04FE066F077
:101E900053FDFA21279A349C12682378821AC900CC
:101EA0008A4204D301225340279A237010600C9A6F
:101EB000199C12680792002BE2D13D9CE0E766F086
:101EC0003BFDFA21259A329C12682378821AC900B8
:101ED0008A4204D301225340259A237010600C9A41
:101EE000199C12680792002BCAD12D9CC8E766F096
:101EF00023FDFA21269A339C12682378821AC9009E
:101F00008A4204D301225340269A237010600C9A0F
:101F1000199C12680792002BB2D13C9CB0E72D9C13
:101F2000210011986AF08CFF002800D1A4E621005E
:101F3000119C0F22200069F02FFD0023210007983B
:101F4000E37338F08DFF0C9B1B680793079B002BF6
:101F500000D104E50121079814F094F8FFE43F9CB8
:101F6000DEE72C9CDCE71D9B409C002BD8D0419CDD
:101F7000D6E72C9B07930BE5389B079308E50623D0
:101F800006240493049A139B210042981A7060F06F
:101F9000DBFFFFF7BAF9052305240493049A139B8A
:101FA000210042981A7060F0CFFFFFF7AEF9FF20D2
:101FB00000042AF027FC42AB1875030400021B0E34
:101FC00042AA000E537590754799200000221BF01D
:101FD00081FE159B1868002800D182E5012114F0CC
:101FE00051F87EE5494860F0AFFF494860F0ACFF2A
:101FF000002066F0D9F8FFF778F823001021369A10
:1020000050A80FF06FFB8FE5049B022B1AD14C33C5
:10201000FB5C002B57D1079B2F9A013BDBB2D35CB3
:102020000793FFF781F9049B032B63D14B33FB5CD0
:10203000002B01D1FFF76EF90324FFF75FF9049B32
:10204000022B3AD0022302240493FFF757F903230B
:1020500003240793FFF774F9049B072B19D1473327
:10206000FB5C002B01D1FFF755F90724FFF746F978
:102070009C464C98642260440023001B00210DF014
:1020800033FD0023049A0CF07BFEFEF7E7FCFFF71C
:10209000D2FA072307240493FFF730F94C32BB54DC
:1020A00066F04AFC509C3865FFF72BFA03001021BC
:1020B000249A50A80FF016FBCCE54C33FB5C002BA8
:1020C00001D1FFF727F90224FFF718F92E9911988B
:1020D0006AF0B6FE002800D1CEE52E9C27E73E9C94
:1020E0001EE70121079813F081FF0623049336E4CD
:1020F0003A9CAEE6032303240493FFF7FFF8C0469F
:102100001F4E00000099FF000A820500B83B08102E
:10211000E43B0810139B1B780493012B13D14D3320
:10212000FB5C002B0BD10B93FFF7F4F813F05EFF71
:10213000FFF7B7FA002300240493FFF7DFF800232A
:102140000B93FFF7DBF800230B9301330493FFF7A6
:10215000D5F8049B0D2B14D14133FB5C002B01D12E
:10216000FFF7D8F80D24FFF7C9F8049B0C2B0DD10D
:102170004233FB5C002B01D1FFF7CCF80C24FFF7B6
:10218000BDF80D230D240493FFF7B8F80C230C249D
:102190000493FFF7B3F8049B042B18D14A33FB5C7C
:1021A000002B01D1FFF7B6F80424FFF7A7F80F9B27
:1021B000002B01D0FFF778FB049B092B0FD145338F
:1021C000FB5C002B08D102330793FFF7ADF8042323
:1021D00004240493FFF792F80924FFF78FF80923EA
:1021E00009240493FFF78AF8049B0A2B14D1443383
:1021F000FB5C002B01D1FFF797F80A24FFF77EF86C
:10220000049B082B0DD14633FB5C002B01D1FFF75B
:1022100081F80824FFF772F80A230A240493FFF7D1
:102220006DF8082308240493FFF768F8049B0B2B30
:102230000CD14333FB5C002B01D1FFF76BF80B246F
:10224000FFF75CF800230493FFF7A2FB0B230B249A
:102250000493FFF753F8049B022B00D12DE70223D0
:1022600002240493FFF74AF810B50C4C84B023689D
:10227000002B04D00A4860F067FE04B010BD094B83
:10228000C0220293084B0949019301230848009397
:10229000D200002365F054FE2060EEE7501E0120BE
:1022A0006840081018480020541E0120844008107F
:1022B000650B0110F0B5C64600B504000D00160010
:1022C00086B0002846D00822002104A80DF094FD15
:1022D000002D19D02900200050F078FA637805000D
:1022E0000700002B06D0032B10D0380006B080BCAE
:1022F000B846F0BD23789846033BDBB2112B2BD8B0
:102300008D4A9B00D3589F4604ADE3E7636822786B
:10231000DEB2132A00D187E0002800D18DE0042D21
:1023200000D19AE0032D21D0063D6B425D41063578
:1023300057F0E6FE0F23012204006B441D70FF21BD
:10234000019200931032330057F09AFE200058F0AB
:10235000B1FBCAE70327C8E7002D00D095E042464D
:102360003000764950F074FB0027BEE70325DFE715
:1023700000287AD13000724950F06AFB0027B4E798
:10238000002800D093E030006E4950F061FB002738
:10239000ABE7002800D09AE030006B4950F058FBC2
:1023A0000027A2E7002868D13000684950F050FBB0
:1023B00000279AE7002800D099E03000644950F0E7
:1023C00047FB002791E7002879D13000614950F0A0
:1023D0003FFB002789E7002800D080E03000A2689A
:1023E0005D4950F035FB00277FE7002800D09BE0D7
:1023F000A468002C00D08AE03000584950F028FB37
:10240000002772E700287AD13000E368A2685449B7
:1024100050F01EFB002768E7002840D130005149EA
:1024200050F016FB002760E7EC321A40002816D166
:1024300000234D494D4860F087FD57F061FE0023B1
:1024400004001022FF2101930093330057F018FE7F
:10245000200058F02FFB002747E7092568E72B00ED
:102460004349424860F070FD59E750F00BF941498B
:102470000200300050F0ECFA37E750F003F93E4923
:102480000200300050F0E4FA2FE7280050F0FAF88C
:10249000424603003949300050F0DAFA25E750F09F
:1024A000F1F837490200300050F0D2FA1DE750F041
:1024B000E9F834490200300050F0CAFA15E750F04C
:1024C000E1F831490200300050F0C2FA0DE750F057
:1024D000D9F82E490200300050F0BAFA05E750F062
:1024E000D1F82B490200300050F0B2FAFDE650F06E
:1024F000C9F828490200300050F0AAFAF5E650F079
:10250000C1F825490200300050F0A2FAEDE6FA21A8
:10251000200089000CF0F6FB230002001F49300068
:1025200050F096FA0027E0E650F0ACF81C490200A3
:10253000300050F08DFAD8E6444409108843081062
:10254000A4410810E0410810284208103C4308103C
:102550009842081018410810604208109040081076
:10256000DC42081058410810D4430810D843081022
:1025700018440810C041081060430810B443081004
:1025800084410810044208103441081040420810E9
:102590007C420810B842081014430810BC400810D0
:1025A000F0400810F0B507000C00150089B00029B4
:1025B0005DDD1668002E5AD00021142202A80DF00D
:1025C0001BFC300092496AF03BFC002821D1012C11
:1025D00000D1D9E06E688F4930006AF031FC0028E4
:1025E0005CD10023022C0FD0A86868F057F90028AE
:1025F00000D1F5E0FA239B00984200D902E14301A3
:102600001B1A9B001B18DB000422694604930A7204
:1026100021E0300080496AF013FC00282AD0300005
:102620007E496AF00DFC002800D07BE0012C00D12F
:10263000DCE06C687A4920006AF002FC002800D1D6
:1026400087E0200077496AF0FBFB002800D0B3E068
:102650000A236A4613720822002168460DF0CCFB5B
:102660003A00694602A8FFF725FE032800D9012099
:1026700009B0F0BD012C00D1A5E06E6865493000BD
:102680006AF0DEFB002813D1022C51D10026002075
:1026900008236A46049613720590DCE7300062490D
:1026A0006AF0CEFB002821D105236A461372D2E7D7
:1026B00030005D496AF0C4FB002835D0300058492D
:1026C0006AF0BEFB002828D101F074FB002871D00D
:1026D000564A5749380050F0BBF901F071FB554993
:1026E0000200380050F0B4F90020C1E73000524930
:1026F0006AF0A6FB00286CD1022C7DD0A86868F097
:10270000CDF800281FD003236A46137243011B1A19
:102710009B001B18DB0004939DE7320038004749FB
:1027200050F096F90220A3E709236A46137292E754
:10273000A86868F0B3F806000020032CA8D0E86869
:1027400068F0ACF8A4E738003D4950F081F9032067
:102750008EE702F047FA02F057FA3A4902003800D1
:1027600050F076F902F044FA02F05AFA36490200C3
:10277000380050F06DF902F041FA34490200380097
:1027800050F066F9002073E73149380050F060F9E5
:102790003049380050F05CF92F49380050F058F9B2
:1027A0002E49380050F054F938002D4950F050F9B6
:1027B00003205DE72B4A8CE7220038002A4950F0BD
:1027C00047F9022054E73800284950F041F9032026
:1027D0004EE732003800264950F03AF9022047E728
:1027E0003800244950F034F9032041E738002249E9
:1027F00050F02EF903203BE73800204950F028F92B
:10280000032035E738001E4950F022F903202FE756
:102810002444081070760810A04508104846081097
:10282000E4450810BC460810C86708101C4408108E
:10283000EC450810044608102445081020460810EE
:10284000584508107046081088460810A046081021
:102850003044081030BD081050440810844408105B
:10286000AC44081020440810C4460810A8450810BD
:1028700078450810DC440810504608102C45081014
:10288000FC44081070B504000E008AB0002811D076
:1028900004AD1422002128000DF0AEFA03236E606F
:1028A0006B70A278033AD2B23F2A03D8514B920000
:1028B0009B589F4600200AB070BDA388032B00D808
:1028C0007BE003232B70E379A2791B021343227A66
:1028D00012041A43637A1B061343AB6000220021E3
:1028E0002800FFF7E7FCA3780F2B03D04FF008FF79
:1028F000013001D00120DEE74FF0D0FE0120DAE701
:1029000014232B70EAE7A388072B56D9E279A37921
:1029100012021A43237AA17A1B041343627A3648BF
:1029200012061A43E37AAA601B020B43217B0904B7
:102930001943637B1B060B43132129703100EB60A5
:1029400060F002FBCAE70A232B70C7E705232B7050
:10295000C4E7A2880023032A09D9E379A2791B02DC
:102960001343227A12041A43637A1B061343042288
:10297000AB602A70B2E7A388032B1ED9E379A27952
:102980001B02A11D13432CD109332B70A6E7A3888A
:10299000032B12D90B2395E70C23002200212800DA
:1029A0002B70FFF787FC002114480AF06FFE00220D
:1029B000002100200BF096FDFEE757F0A1FB0F234E
:1029C000032204006B441A70023AFF210192009323
:1029D0001032330057F054FB200058F06BF8012000
:1029E00069E70822AB602A70CB788A781B02134310
:1029F000EB6073E78C440910EC460810204E000091
:102A00000020704710B54AF0B5F910BDF0B54E463C
:102A10004546DE465746E0B56F4B704E1B78327A1E
:102A2000040015008BB0002B00D177E06C4B04251F
:102A30001B6815439B46002398460820694B19786C
:102A4000694B4F421B7838405B0003436748077867
:102A500010207F42384003431D43B37AEDB2012B6F
:102A600001D11F331D43002A02D1002900D177E094
:102A7000FF239A46FC3B99465D4B1B78002B52D1B5
:102A80000027002C05D15B4A5B4B12781B789A42D9
:102A90006ED0202125204EF033FA041E37D0564B3D
:102AA000564900931B78C57183710B78032203721A
:102AB000484660725046A072200001910B30002100
:102AC0000DF09AF9404620615846F3686061A361B1
:102AD0002000A7834EF012FB009A464B1278019912
:102AE0001A70474B0A781D70464B1A704A46464B7F
:102AF0001A705246454B1A704246454B1A605A4668
:102B0000444B1A60444BF2681A60444B1F800BB070
:102B1000F0BCBB46B246A946A046F0BD404B1B6880
:102B200098469B4689E73F4802A962F0BDFB002812
:102B3000A6D13D4902980DF00EF8002100900DF04D
:102B400039F8002700289CD1009F3849381C0DF027
:102B50003FF800283ED1381C0DF066F887B290E7A8
:102B6000334B1B78002B2FD100239A46994683E7DD
:102B7000234B1B78AB4200D08BE7224A1F4B1278C5
:102B80001B789A4200D084E71F4B1B784B4500D03E
:102B90007FE71E4B1B78534500D07AE71C4B1B6820
:102BA000434500D075E71B4B1B685B4500D070E7C1
:102BB000194BF2681B689A4200D06AE7174B1B88D2
:102BC000BB4200D065E7A2E7154B1B68002B00D085
:102BD0004EE7CAE71548BFE79AD60220083F002013
:102BE000681501209BD6022093D602209DD6022094
:102BF00097D602209C12002096D6022099D6022059
:102C00009B1200209A120020991200209812002096
:102C100094120020901200208C12002088120020B4
:102C2000D80901200C1401200000C84200E87D47AB
:102C300094D60220002210B5044B01201A70FFF731
:102C4000E5FE01F083FF002010BDC04699D60220AA
:102C5000014B187A7047C046083F0020044B1B7890
:102C6000002B02D1034B186870470020FCE7C046D8
:102C70009AD60220D8090120F8B5DE4657464E46BE
:102C800045460400E0B5002844D0254B254E1D786C
:102C9000254B377A1B789B46737A9A46234B1B78D1
:102CA000002B23D1224B00201B6898469946002F09
:102CB00024D1012D2CD0022D30D0002D2CD15B46FB
:102CC000A370534623774B46A361434663600023BA
:102CD00060610020174A25706770A360E26023617D
:102CE000F0BCBB46B246A946A046F8BD124B002038
:102CF0001B68994600239846002FDAD065F01CFE29
:102D0000FA2133688900C01A0BF0FCFF012DD2D1E3
:102D10000425D4E70120E3E70625D0E70525CEE723
:102D200096D60220083F002093D602209AD6022091
:102D3000D8090120644008106815012010B5114C15
:102D400084B02368002B04D00F4860F0FDF804B075
:102D500010BD0E4B802202930D4B0E4901930123AF
:102D60000D480093D200002365F0EAF820600028A7
:102D700003D00A4860F0E8F8E9E70021084860F06D
:102D8000E3F8E4E788EF0020384708109837002080
:102D90008CEF0020103708109D3F01105C47081091
:102DA0008C47081010B50B4B1C780B4B1B7A002B73
:102DB0000AD1012C0CD0022C04D0002C00D0062407
:102DC000200010BD0524FBE765F0B6FD012CF2D113
:102DD0000424F5E796D60220083F0020F0B58BB01A
:102DE00002AC050020000E0001F09CFF6169FF2984
:102DF00004D00123D0228B401206936100222E4B77
:102E00002E489A7260F0A0F82D4B1B78002B45D10C
:102E1000002700222B4B01201A702B4B1A70FFF752
:102E2000F5FD10211C204EF06BF8041E16D0032374
:102E30006A426A41C3805242033313400133037232
:102E40000123FC216B4043728905381C0CF06CFE99
:102E50000CF0EAFEE06020004EF050F9002D12D098
:102E60004FF0A4F9002902DC03D1002801D04AF078
:102E700055FE381C0CF0DEFE02000B00134831003A
:102E800060F062F808E0381C0CF0D4FE02000B0081
:102E90000F48310060F058F80BB0F0BD21000D482C
:102EA00062F002FA0028B3D10B4BE06819680CF00D
:102EB00038FE071CADE7C046083F0020C047081099
:102EC00097D602209BD6022096D60220E84708100B
:102ED000204808100C1401205C150120F0B5DE46D6
:102EE00057464E464546E0B54D4F89B03B78804643
:102EF0009A464C4B68460C001970914601F012FF3F
:102F00000599EB46FF2904D00123D0228B401206FD
:102F100093610025444E4548B57260F015F8444B66
:102F200035721D70434B1B78002B6AD100239B46E2
:102F300010211C204DF0E4FF051E11D001238371E8
:102F40005346FC21C3714B464472037289055846AF
:102F50000CF0EAFD0CF068FEE86028004EF0CEF8B8
:102F6000002C3DD1FC21344A8905136858460133B1
:102F700013600CF0D9FD0CF057FE304D2B68C018D3
:102F800028603B78002B25D058460CF053FE0200F9
:102F90000B002B4841465FF0D7FF00250120B5729A
:102FA000FFF734FD274B3D701D60274B1D70274BED
:102FB0001D60274B1D70082C05D8264BA4001B59FB
:102FC0009F4601F099FD09B0F0BCBB46B246A94648
:102FD000A046F0BD4146F2681F485FF0B5FFDCE750
:102FE0001E4A136801331360CBE7032001F0E2FCB3
:102FF000E9E7022001F0DEFCE5E7012001F0DAFC60
:10300000E1E75946164862F04FF9002800D08DE7F5
:10301000144B19685B46D8680CF083FD834687E73C
:103020009AD6022099D60220083F0020C0470810F7
:1030300096D6022097D60220F00901206C150120B7
:1030400058480810681501209DD60220441501201B
:1030500098D602208C45091098480810F4090120E0
:103060000C140120EC09012010B50B4C206800283D
:103070000AD00A4B1B7A002B07D165F095F8002384
:10308000074823605FF060FF10BD06480222002160
:10309000FFF724FF2068F0E788EF0020083F0020BA
:1030A000F4480810E4480810114B10B51B78002BA9
:1030B0000FD1104B1B7A002B05D10F4A1178002934
:1030C0000CD1002010BD062208210C48FFF706FF96
:1030D000F7E700200A49FFF781FEF2E71370094A7B
:1030E00009481360094A13705FF02EFFE9E7C046F4
:1030F0009BD60220083F00209DD60220644908107C
:1031000014490810441501202449081098D60220BB
:10311000F0B5C6461E001C4B050098461B681700FC
:1031200000B5002B1DD0182127204DF0E9FE041E0C
:1031300017D001234661154E002133704346856048
:103140000761186864F0CAF920004DF0D7FF4346C4
:103150000F49186864F0C2F9012806D00D485FF0E5
:10316000F3FE012080BCB846F0BD3378002B07D1B8
:10317000290009485FF0E8FE30780A28F1D8F1E725
:1031800006485FF0E1FEF7E7202902209D120020AB
:1031900010270000E449081074490810B4490810C9
:1031A000F8B5204B06001B78002B1FD01E4D2B6856
:1031B000002B19D00C2126204DF0A2FE041E13D0A6
:1031C00001231A4F0021866028683B7064F086F95D
:1031D00020004DF093FF2868154964F07FF901281D
:1031E00008D014485FF0B0FE0120F8BD12485FF02F
:1031F000ABFEF9E73B78002B0FD131000F485FF0B1
:10320000A3FE06211E204DF07BFE002801D04DF0CC
:1032100075FF38780A28E7D8E7E709485FF094FE99
:10322000F7E7C04694D60220202902209D120020F4
:10323000881300008C4A0810184A0810404A0810E9
:10324000684A0810F0B5D6464F464646C0B5040059
:103250000D0086B0002800D081E05A4B1B78002B6F
:1032600000D178E0584B1F68002F00D173E0574B16
:1032700018709846564B1960564B18700120FFF78E
:10328000C5FB65F059FB01239A46534E52463372F3
:1032900000239946F3603374504B30607060142102
:1032A0001B201A704DF02CFE002808D05346837165
:1032B0004B46C4710381C56007614DF01FFF002CB0
:1032C00000D02F0065F038FB1421814624204DF0FA
:1032D00017FE002816D00123837143461B7807612F
:1032E000C37100230381C36098464DF007FF4A462F
:1032F0003B4B01201A6042463A4B1A603A4B1F6022
:10330000FFF784FB394B1B78002B41D165F014FB90
:10331000374B1860684601F005FD0599FF2904D078
:103320000123D0228B401206536101233148B3722E
:103330005FF00AFE0120FFF769FB002C3BD0002D57
:1033400022D029002C485FF0FFFD06B0E0BCBA4651
:10335000B146A846F0BD29485FF0F6FDF5E71B4BE6
:1033600000269846012342461370194B012019602C
:10337000184B00271E70FFF749FB214B1E70214B95
:103380001E60214B1E707CE720485FF0DDFDDCE70E
:103390001F4F380061F0ACFF00221E4B1A601E4B1D
:1033A0001A60B2221D4B9200995A0029AED0380003
:1033B00061F0ECFFAAE7044B194819685FF0C4FDFF
:1033C000C3E7C04693D60220D80901209AD602202E
:1033D0006815012099D60220083F002096D60220C9
:1033E000B41D0120841200208012002097D60220F4
:1033F0003C150120E84A08100C4B0810B84A081088
:103400009DD602204415012098D602205C4B08105E
:103410000C140120EC09012040150120A0410020DE
:10342000A84B0810094B10B51B78002B0BD0084B8C
:1034300004201B68002B00D110BD00200021FFF7E5
:1034400001FF0020F8E70420F6E7C04694D60220EA
:10345000D809012010B50C4B01001B7A002B08D1B4
:103460000A4B1B78002B09D10120FFF7EBFE00204F
:1034700010BD07485FF068FD0120F9E705485FF0DF
:1034800063FD0520F4E7C046083F00209DD60220DA
:10349000EC4B08102C4C0810F0B54546DE4657465C
:1034A0004E46E0B5594B050098461B780C008FB08E
:1034B000002B00D08FE0564B9A461E78554B99460C
:1034C0001B7A002B63D1002E61D1534B1B78002B4C
:1034D00000D096E0514B1B78002B00D073E0504B8E
:1034E0001B78002B00D180E000285DD0002900D09F
:1034F00075E0AB224B4B92009C58002C6FD11E24E0
:10350000494F4A4B4A489B4600235A4606A9136036
:1035100061F0CAFE00285AD05B461B68454A13601A
:10352000454B1D60454B1F6065F006FA444B424613
:103530001860444B0327186001231370534614216D
:103540001B201F704DF0DCFC002806D00023C78034
:103550000381C56003614DF0D1FD684601F0E2FBD7
:103560000599FF2904D00123D0228B401206536114
:103570004A460123344893725FF0E6FC0120FFF7CE
:1035800045FA2200290031485FF0DEFC04E03100FA
:103590002F485FF0D9FC012630000FB0F0BCBB46CD
:1035A000B246A946A046F0BDAA221E4B92009D58E5
:1035B00000291ED04F017F1ABF007F18FF00002D89
:1035C0009FD164359DE723485FF0BEFCE3E75A4690
:1035D000099B1360A2E720485FF0B6FCDBE76701B8
:1035E0003F1BBF003F19FF008BE71C485FF0ACFC9E
:1035F000D1E7AB2292009C58002D00D07DE76435C6
:103600007BE717485FF0A0FCC5E7C0469BD60220C9
:1036100096D60220083F00209DD6022093D6022095
:1036200097D60220A0410020307500005C150120D3
:103630000C1401204C1501206015012054150120A7
:103640005815012050150120E84A0810A04D081017
:103650009C4C0810284D08106C4C08105C4D08104C
:10366000E44C081030B5294C89B02378002B02D1E6
:10367000002009B030BD684601F054FB05996D4645
:10368000FF2904D00123D0228B401206936100222F
:103690001F4B20489A725FF057FC1F4B1B78002B82
:1036A00027D1002500231D4A012023701370FFF746
:1036B000ADF910211C204DF023FC041E0FD0032374
:1036C000C3800823FC21FF3303818905281C0CF0EB
:1036D0002BFA0CF0A9FAE06020004DF00FFD281C39
:1036E0000CF0A8FA02000B000D480E495FF02CFC0C
:1036F000BEE729000C4861F0D7FD0028D1D10B4B63
:10370000E86819680CF00DFA051CCBE79BD602207F
:10371000083F0020C047081097D6022096D6022006
:1037200020480810E44D08100C1401205C150120FD
:10373000014B18787047C04699D60220002210B578
:10374000024B01201A70FFF761F910BD99D60220D3
:1037500070B55A4E88B00021142230000CF04CFB9A
:103760000022574B02AC20001A7001F0DBFA6169AD
:10377000FF2904D00123D0228B401206936100253B
:103780005048B5725FF0E0FB01F0F8F800950421B5
:103790000A204D4B4D4A63F041FB4D4D28600028F7
:1037A00012D00B214DF078FC0C2128684DF074FCF0
:1037B0000D2128684DF070FC0F2128684DF06CFC3D
:1037C000102128684DF068FC03220021414B009233
:1037D0000120002263F022FB3F4B1860200001F023
:1037E000A1FA25693D4CE9B2200061F0D9FE011E25
:1037F0001CD1200061F0FAFC011E35D10122384BAA
:10380000290038481A705FF09FFBB223364D9B00A9
:10381000EE5A002E0ED03100200061F0B7FD0028D6
:1038200047D1310031485FF08FFB03E030485FF053
:103830008BFB2D4D2F4849F073FA011E10D12E48F5
:103840005FF082FB2D485FF07FFB0120FFF7DEF881
:10385000AC239B00EB5C002B0BD1002008B070BDAB
:1038600027485FF071FBEDE726485FF06DFB1E4DCA
:10387000E0E74EF09BFC0200002915DDAE239B0023
:10388000E958002909D0043BEB58541A1801C01A12
:1038900003011B1A1B019C42DFD901201A4B18702F
:1038A0001A485FF051FBD8E70029D6D10028E5D1AE
:1038B000D3E7310016485FF047FBBBE7083F002025
:1038C00096D60220C047081014BD012068BD012013
:1038D00010BD012024290220202902200C140120DF
:1038E00097D60220F04D0810A0410020284E081065
:1038F000D04E0810C8450910004F0810804F08101E
:10390000404F0810A04E08109CD60220B04F08105F
:10391000604E081010B5FFF71BFF002010BDC04619
:10392000114B10B51B78002B0FD1104B1B7A002BBD
:1039300005D10F4A117800290CD1002010BD0622B4
:1039400008210C48FFF7CAFAF7E700200A49FFF7F9
:1039500045FAF2E71370094A09481360094A1370DF
:103960005FF0F2FAE9E7C0469BD60220083F00204C
:103970009DD60220644908101449081044150120FE
:103980002449081098D6022010B50C4B01001B7A70
:10399000002B08D10A4B1B78002B09D10120FFF71F
:1039A00051FC002010BD07485FF0CEFA0120F9E776
:1039B00005485FF0C9FA0520F4E7C046083F00203B
:1039C0009DD60220EC4B08102C4C081010B50C4B67
:1039D0001B7A002B0ED10B4A1178002901D100204F
:1039E00010BD1370084A09481360094A13705FF04C
:1039F000ABFAF4E7022200210648FFF76FFAEEE780
:103A0000083F00209DD6022044150120F44F0810E5
:103A100098D6022034500810014BD8687047C04631
:103A2000083F002010B5114C84B02368002B04D04F
:103A30000F485FF089FA04B010BD0E4B802202934C
:103A40000D4B0E49019301230D480093D200002332
:103A500064F076FA2060002803D00A485FF074FA18
:103A6000E9E7002108485FF06FFAE4E788EF0020FB
:103A700038470810983700208CEF002010370810C6
:103A80009D3F01105C4708108C470810014B1868D7
:103A90007047C04688EF0020044B1B78002B02D1F2
:103AA000034B186870470020FCE7C0469AD60220F6
:103AB000D8090120014B187A7047C046083F002002
:103AC000002809D0002907D00C4B1B7A002B04D00A
:103AD00003230370FC330B707047094B1B78002BDA
:103AE000F6D1084B1B78002B03D0074B1B68002B2B
:103AF000EED1002303700B70EEE7C046083F0020B4
:103B00009BD6022094D60220D8090120F0B5CE46DB
:103B1000474680B59B4B07001B780E00914600245A
:103B200089B0002B00D0ECE0974998480B785A00F8
:103B300084520722013313400B70954B1D78072DDB
:103B400000D87AE00388211C984643889C46444567
:103B500000D9C5E08BB2634500D9BAE089B2231C15
:103B6000444500D2AFE09AB2624500D2A9E0828813
:103B70009BB290468A4200D981E04146904689B284
:103B80009A4200D282E043469BB2032D46D0C288BF
:103B90008846914200D97DE04146984689B29342D9
:103BA00000D275E043469BB2042D37D00289884687
:103BB000914200D97DE04146984689B2934200D2B5
:103BC00070E043469BB2052D28D042898846914239
:103BD00000D990464146984689B2934200D2904619
:103BE00043469BB2062D19D082898846914200D95E
:103BF000A6E04146984689B2934200D29EE04346F1
:103C00009BB2072D0AD0C289101C8A4200D9A2E0BB
:103C100081B2101C9A4200D29AE083B2002F00D0E9
:103C20003C80002E00D031804A46002A00D013800C
:103C300009B0C0BCB946B046F0BD01350288EDB24E
:103C40001D70211C944256D889B2231C94424DD336
:103C50009BB2012DE2D0428890468A4200D981E091
:103C60004146904689B29A4200D282E043469BB2D6
:103C7000022DD3D0828890468A4200D87DE78846BC
:103C80004146904689B29A4200D37CE798467AE74B
:103C9000904687E790464146984689B2934200D3C2
:103CA00080E7F5E7904643469BB2052D00D08CE7B0
:103CB000B4E790464146984689B2934200D380E7E4
:103CC000F0E7634653E743469AB2624500D34EE7B6
:103CD000F7E76146231C89B2444500D343E7F2E786
:103CE00041468BB2634500D838E7F2E7131C9BB21C
:103CF000012DB0D192E7111C89B2231C9442A7D2A6
:103D0000F4E76946234861F0CFFA002800D00BE7BA
:103D1000214900980BF01FFF0021051C0BF04AFF02
:103D2000002800D000E71D49281C0BF051FF002897
:103D300026D1281C0BF078FF84B2F5E690465EE7AA
:103D400090464146984689B2934200D357E7F5E73B
:103D5000181C83B262E7081C81B2101C9A4200D37F
:103D60005BE7F5E788464146904689B29A4200D320
:103D70007CE7984643469BB2022D00D07AE74DE798
:103D80000648D7E797D60220ABD60220D05A0020AB
:103D9000AAD602200C1401200000C84200E87D478A
:103DA000034B987A013843425841C0B27047C0462D
:103DB000083F0020014B18787047C0469BD6022070
:103DC000AE22024B920098587047C046A041002096
:103DD000F0B54546DE4657464E46E0B5594B050020
:103DE00098461B780C008FB0002B00D08FE0564B0C
:103DF0009A461E78554B99461B7A002B63D1002EAC
:103E000061D1534B1B78002B00D097E0514B1B78AE
:103E1000002B00D073E0504B1B78002B00D180E0CA
:103E200000285DD0002900D075E0AB224B4B9200FA
:103E30009C58002C6FD11E24494F4A4B4A489B4640
:103E400000235A4606A9136061F02EFA00285AD0C2
:103E50005B461B68454A1360454B1D60454B1F6020
:103E600064F06AFD444B42461860444B03271860D7
:103E700001231370534614211B201F704DF040F88E
:103E8000002806D00023C7800381C56003614DF080
:103E900035F9684600F046FF0599FF2904D0012353
:103EA000D0228B40120653614A4601233448937254
:103EB0005FF04AF80120FEF7A9FD220029003148F1
:103EC0005FF042F804E031002F485FF03DF805262E
:103ED00030000FB0F0BCBB46B246A946A046F0BDCC
:103EE000AA221E4B92009D5800291FD04F017F1A15
:103EF000BF007F18FF00002D9FD164359DE7234848
:103F00005FF022F8E3E75A46099B1360A2E72048D6
:103F10005FF01AF8DBE767013F1BBF003F19FF00A6
:103F20008BE71C485FF010F80126D1E7AB22920026
:103F30009C58002D00D07CE764357AE716485FF086
:103F400003F8C4E79BD6022096D60220083F002043
:103F50009DD6022093D6022097D60220A0410020B1
:103F6000307500005C1501200C1401204C15012057
:103F7000601501205415012058150120501501200D
:103F8000E84A0810A04D08109C4C0810284D081055
:103F90006C4C08105C4D0810E44C0810F0B5DE467F
:103FA00057464E464546E0B5DA48C7B05EF0CCFF0E
:103FB000D94BDA4C9946DA4BFA260593D94B3EAFEA
:103FC0000693D94BB6009846D84B0493D84B0B9325
:103FD000D84B2193D84B0C93D84B0D93D84B0E93C1
:103FE000D84B0F93D84B9B46D84B9A46D84B554647
:103FF0000293D84BDA460A93D74B0993D74B2B93AE
:10400000D74BD84A9B461592D74A1492D74A2C923E
:10401000D74A2392D74A1A92D74A2492D74A229251
:10402000D74A2892D74A3092D74A3192D74A329209
:10403000D74A3392D74A3A92D74A0892D74A3B9204
:10404000D74A3C92D74A3D92D74A2D92D74A2E92D0
:10405000D74A2792D74A1C92D74A1D92D74A1E9216
:10406000D74A2F92D74A3692D74A3792D74A3892B0
:10407000D74A3992D74A1692D74A0792D74A179207
:10408000D74A1092D74A1192D74A2592D74A2092FE
:10409000D74A1B92D74A2692D74A3492D74A2992B6
:1040A000D74A3592D74A0192D74A13924246039291
:1040B00064F042FC4B461B68C31AB34244D20C2046
:1040C000012148F083F92068002849D153461B7824
:1040D000002B5AD1049B29781B789846029B1B78A9
:1040E000434500D1DCE14346002B00D14DE20A9864
:1040F0005EF02AFF4246029B29781A70022949D0B5
:10410000022900D9D3E1002900D10CE264F014FCAB
:104110005B465B688046C31A312B42D82978019BE5
:104120001B78002B02D0002900D1ECE102231420DF
:104130009943012933D164F0C7FB64F0FDFB4B4682
:104140001B68C31AB342BAD34B461860059848F0AF
:104150001FFE0C20012148F039F920680028B5D055
:104160000023A0463E9305E03E9C002C00D0C6E014
:10417000434618680022390063F022F90128F3D081
:1041800053461B784446002BA4D000232978984638
:104190000229B5D1039B1B78002B00D1A7E1642035
:1041A000C9E7159B1B78002B00D1A3E053461B7871
:1041B00039001498129361F077F8002800D035E2A6
:1041C000FB682C9A181C116819930BF0AAFC239A0F
:1041D0001890116819980BF0FBFC002800D06DE2D4
:1041E00064F0AAFB1A9B1968884B411A994200D9BE
:1041F00027E253461B78002B66D0FC2118988905CE
:104200000BF092FC0BF010FD5B460021D860279B61
:104210001F901B681991984201D21B1A199364F0E0
:104220008BFB1C9B1D9A1B6812681F992A90C31A4E
:10423000914200D1E2E2F92B1ED9142124204CF046
:104240005FFE002818D00123837153461B78199A0A
:10425000C371002303811F9B0261C3604CF04EFFBA
:104260001C992A981F9B08601D99199A0B601E9B28
:1042700000201A60FEF7CAFB279B1868002839D077
:104280000BF0ABFC011C18980BF09AFC5B46002865
:1042900031D01B7A002B00D19BE2012200212F9804
:1042A000FEF71CFE089B1B785A4641465160129A45
:1042B000002A00D09BE2039A1278002A00D196E2ED
:1042C000022364202B7036E7039B1B78002B00D160
:1042D0009BE2FC21189889050BF026FC0BF0A4FC4E
:1042E0005A46D268904200D902E20C9B1B68002B10
:1042F00000D16AE25B46424629785A600FE723788C
:104300000B3BDBB2052B00D98FE0069A9B00D358FC
:104310009F46C046405008100CEA002010BD012006
:1043200010370810B045091093D6022094D6022009
:1043300095D60220DC090120D809012092D602205E
:104340009D120020202902209AD6022096D6022013
:10435000A0D602206C500810A0500810D4500810AD
:10436000083F002097D602200C140120EC09012000
:10437000401501203C1501209DD6022098D6022030
:1043800044150120245108106C510810A851081040
:10439000B8510810EC51081099D602202852081084
:1043A0005C52081094520810C4520810F4520810BD
:1043B00068150120B41D0120841200208012002005
:1043C0001C5308103453081044530810805308102D
:1043D00098530810AC5308109BD60220E0530810E5
:1043E0005815012054150120F05308105C150120C8
:1043F0004C150120501501200054081060150120B3
:10440000085408109CD6022018540810B70B00005E
:1044100001230E9A13700F9B1868002805D0002303
:104420000022002162F0A8FD3E9C20004CF0DEFD41
:104430009EE600220E9B1A700F9B18680028F4D08D
:104440000023002162F098FD3E9CEEE7A379002B4B
:1044500000D0D9E0039A1370049A13700C9A136079
:104460000D9A13700B9A1370DFE70123039A1370F0
:10447000049A1370627B0B9B1A70072AD5D8219877
:10448000A11D0BF0BFFCD0E70023039A1370049A20
:1044900013700C9A13600D9A13700B9A1370C4E783
:1044A000012900D132E642D9022900D172E603295E
:1044B00000D03BE6079B1B78002B6AD0039B1B7840
:1044C000002B69D164F038FA109B119A1B681268AE
:1044D0008046C31A934265D3079B1B78002B00D1FB
:1044E0001CE625990020FEF779FC297817E6169836
:1044F0005EF02AFD00232B70089A1370019B1B7835
:10450000002B00D14BE6039B1B78002B00D046E626
:10451000019A139813705EF017FD00210020FFF739
:1045200057FC297802E653461B78002BE6D1434618
:10453000002BE3D00D9B1B78002BDFD14FF0E2FB6B
:104540008046002800D1AEE0037E002B00D1AAE017
:104550000378042B0DD10B9AC37B12789A4200D0BA
:10456000DCE501002198083167F056F8002800D0FA
:10457000D4E540464FF0A6FD2B985EF0E5FC022303
:104580002B7064F0D9F92978C9E509985EF0DCFC54
:10459000B0E500212B70C2E517990020FEF71EFC44
:1045A0002978BCE53900149860F07EFE002800D020
:1045B000B4E5FB68209A181C116812930BF0B1FA4D
:1045C0001B9B1890196812980BF002FB002858D01A
:1045D0001B9B129A1A604246269B1A60299B1868F8
:1045E0000BF0FBFA011C18980BF0EAFA002800D136
:1045F00094E5079B1B78002B00D18FE535990120AE
:10460000FEF7ECFB29788AE50123039A1370E3791E
:10461000013B5A425341049A1370E3680C9A1360A9
:10462000637A0D9A9B07DB0F1370FEE60023189345
:1046300064F082F91A9B1968864B411A994200D896
:10464000D7E531985EF080FC5B461B7A002B00D0EA
:10465000ACE053461B78002B00D0ADE0039B1B78E9
:10466000002B00D1B8E00C9B1B68002B00D0E8E0C9
:1046700033985EF069FC3A985EF066FC089B1B7804
:1046800012E64246269B1B68D31A724A9342A5D96A
:10469000079B1B78002B00D140E534990020FEF7E2
:1046A0009DFB29783BE50C9B1B68002B00D135E571
:1046B00000210800FEF7C6FD297830E5239B199AF2
:1046C0001A6064F039F91A9B1860249B1B78002B40
:1046D00000D185E5229B1B78002B00D080E5229A33
:1046E00001331370289B309819685EF02DFC77E534
:1046F0000C99831A09688B4200D90B00002B00D15A
:10470000F3E5C91AD3185A460C98D3601991016081
:10471000189364F011F91C9A189913681D9A1F9048
:104720001268C31A914200D183E0F92B1ED91421DB
:1047300024204CF0E5FB002818D001238371534658
:104740001B78199AC37100230381189B0261C3600F
:104750004CF0D4FC1C991F98189B08601D99199A5D
:104760000B601E9B00201A60FEF750F9249B1B78FB
:10477000002B00D1B9E5229B1B78002B00D1B4E5BA
:104780005B46D968289B1A68914200D2ADE53798FC
:104790005EF0DAFB5B461B7A002B1AD00122002167
:1047A0003898FEF79BFB089B1B787DE503220221CE
:1047B0003298FEF793FB4CE72D985EF0C5FB2E98E0
:1047C0005EF0C2FB089B1B786EE55B461B7A002BF4
:1047D00027D1089B1B7867E53D985EF0B5FB089BE9
:1047E0001B7861E55A464146089B51601B780022C0
:1047F0002A700432934300D080E67DE61E9A199910
:104800001268914200D016E536E55B461B7A002B14
:10481000E8D0042236981100FEF760FB089B1B7855
:1048200042E5052203213998FEF758FB089B1B78C7
:104830003AE5F92B9AD91E9B199A1B689A4295D092
:1048400075E73B985EF080FB3C985EF07DFB089B33
:104850001B7829E5B70B000030B5294C89B02378C7
:10486000002B01D109B030BD684600F05BFA059914
:104870006D46FF2904D00123D0228B40120693619C
:104880000022204B20489A725EF05EFB1F4B1B7883
:10489000002B27D1002500231D4A0120237013700F
:1048A000FEF7B4F810211C204CF02AFB041E0FD098
:1048B0000323C3800823FC21FF3303818905281CBF
:1048C0000BF032F90BF0B0F9E06020004CF016FC70
:1048D000281C0BF0AFF902000B000E480E495EF0E9
:1048E00033FBBFE729000D4860F0DEFC0028D1D182
:1048F0000B4BE86819680BF014F9051CCBE7C046B0
:104900009BD60220083F0020C047081097D60220FF
:1049100096D6022020480810E44D08100C140120FF
:104920005C150120014B18787047C04693D60220D1
:1049300070B50C00002806D0002904D00C4B1D785F
:10494000002D03D10D700025280070BD094B1B7888
:104950001E1C072B05D80849F2B20BF053FA26703B
:10496000F2E707260449F2B20BF04CFA2670EBE7A7
:1049700093D6022095D60220DC0901200023074AA5
:1049800010B51370064A07481370074A1360074AA8
:104990001370074A13705EF0D7FA10BDBDD602201F
:1049A000B5D602205C54081060C00120B6D60220A3
:1049B000A7D6022000213B4B10B51A6801321A60BD
:1049C000394B1970394B1870394B1978022916D0A8
:1049D00038490C780134E4B20C70022C07D902215A
:1049E0001970072811D8344B80001B589F460122AC
:1049F0001A7007280DD8314B80001B589F46072896
:104A00004AD82F4B80001B589F46FF282FD12D4995
:104A100004E0FF2829D12B4905E02B492B485EF003
:104A200093FA10BD28490323220029485EF08CFA2E
:104A3000F7E72849F2E72849F5E72849F3E7254948
:104A4000F1E72749EFE72749EDE72749EBE7224957
:104A5000E4E72249E2E72249E0E72249DEE722498A
:104A6000DCE72249DFE72149D8E72149DBE7204994
:104A7000D4E715491F485EF067FAD2E71649F9E70F
:104A80001449F7E71849F5E71649F3E71449F1E740
:104A90001249EFE71549EDE7FF2801D10949E9E798
:104AA0001349E7E760C00120A7D60220B5D602204F
:104AB000BDD60220B6D60220184609103846091085
:104AC00058460910CC540810D45408100C5508103E
:104AD00044550810BC540810845408108C54081015
:104AE00098540810A8540810B054081078540810AE
:104AF00080540810DC54081010B50F4A1378012BAD
:104B000008D0002B05D10D4A1378002B01D0013BB2
:104B1000137010BD0A4B19780131C9B219700229FE
:104B2000F7D900231370074A07481370034A13701C
:104B30005EF00AFAEDE7C046BDD60220B6D60220E6
:104B4000A7D60220B5D602206C55081070B5154CBA
:104B5000154D23782978072B1DD8144A9B00D3586C
:104B60009F46134A13485EF0EFF90023124A2B7058
:104B70001370124A2370137070BD114AF2E7114A84
:104B8000F0E7114AEEE7114AECE7114AEAE7114A69
:104B9000E8E7114AE6E7FF2B01D1104AE2E7104AA5
:104BA000E0E7C046B5D60220BDD6022078460910FF
:104BB000D45408109C550810B6D60220A7D602205F
:104BC000845408108C54081098540810A8540810E5
:104BD000B0540810BC54081078540810CC54081075
:104BE00080540810014B18787047C046BDD602208B
:104BF000014B18787047C046B5D60220014B1868A3
:104C00007047C04660C00120022803D8024B8000D4
:104C1000C05870470148FCE7B84609108054081096
:104C2000072813D80C4B80001B589F460B48704731
:104C30000B48FCE70B48FAE70B48F8E70B48F6E7A8
:104C40000B48F4E70B48F2E70B48F0E7FF2801D1E7
:104C50000A48ECE70A48EAE798460910D4540810D5
:104C6000845408108C54081098540810A854081044
:104C7000B0540810BC54081078540810CC540810D4
:104C80008054081070B51A4E84B030005EF05CF9A4
:104C9000184D28005EF058F9174918485EF054F98D
:104CA00028005EF051F90123154C02932133019342
:104CB000203B144A00932021013B20000CF012FD00
:104CC000210011485EF040F9104911485EF03CF9AE
:104CD000104911485EF038F9104911485EF034F976
:104CE00028005EF031F930005EF02EF904B070BD9E
:104CF0006C0B0910F03708101056081018560810E1
:104D000084D10220EC5508103C560810F8550810C4
:104D100054560810045608106C5608108456081093
:104D20008C560810F8B5040047F08EFF002813D009
:104D30004B23C75C013BC65C093BC55C0C33C15CC3
:104D40000133C25C0133C35C200027606660A5604C
:104D5000E16022616361F8BD00230022002100258B
:104D600000260027F0E7C04610B50F23014A0CF0DB
:104D7000B9FC10BDA456081010B5024848F086FED4
:104D800010BDC046A041002010B548F079FF10BD0D
:104D9000002801D0482303600048704700470910ED
:104DA00010B5054848F048F8041E01D1200010BD98
:104DB00002485EF0C9F8F9E7C4460910B856081071
:104DC00000487047AC4C091070B50824002582B02B
:104DD00055485EF0B9F8002100200FF059FB102370
:104DE0001322122151484BF0D1FA152214215048B8
:104DF0004BF0F8FB1B221A214D484BF039FC0E20DA
:104E00004BF0D8FE00210E204BF0FCFE0A2008F0EB
:104E100071FC01210E204BF0F5FE0A2008F06AFC1F
:104E200044485EF091F8444EFA21E0B289004BF01C
:104E300009FD002804DB210030005EF085F8013513
:104E40000134782CF0D1002D52D13C485EF07CF832
:104E5000FA21242089004BF05BFE002853DBFA2165
:104E6000272089004BF0EEFC002857DB0923E121C5
:104E7000002200934902083B00204BF0ADF80620C9
:104E80004BF098FE0022012116204BF09DFE0F20D2
:104E90004BF090FE00210F204BF0B4FE0E204BF0A3
:104EA00089FE01210E204BF0ADFE02204BF082FE68
:104EB00003204BF07FFE11204BF07CFE01211120DE
:104EC0004BF0A0FEFA21072089004BF0A5FE00213F
:104ED00007204BF0E1FE0D204BF06CFE01210D2070
:104EE0004BF090FE16485EF02FF8002002B070BD27
:104EF000290014485EF028F8FA21242089004BF09C
:104F000007FE0028ABDA24210F485EF01DF8FA21D5
:104F1000272089004BF096FC0028A7DA27210B48B0
:104F20005EF012F8A2E7C046F8630810A0ACB9031F
:104F3000801A06002C640810506408108064081061
:104F400050650810AC640810E0640810146508107F
:104F500010B508485DF0F8FF074847F067FE041EEB
:104F600004D106485DF0F0FF200010BD04485DF05C
:104F7000EBFFF9E780650810A04C0910C065081028
:104F8000F865081010B50A2810D00C2808D0092898
:104F900005D1002917D10D490D485DF0D5FF10BD91
:104FA00000290CD10B485DF0CFFFF8E7002904D1B0
:104FB000064909485DF0C8FFF1E70849F9E70848E4
:104FC0005DF0C2FFEBE70549E6E7C046386608102A
:104FD000846608103C660810A86608103066081041
:104FE0006066081010B509485DF0AEFF08485FF034
:104FF00085F8041E06D05FF013F906485DF0A4FFA3
:10500000200010BD04485DF09FFFF9E7CC66081052
:10501000044D0910406708100867081010B5FEF726
:105020008DFBFFF793FD002010BDC04610B5FFF7C4
:1050300013FC002010BDC046C16810B58068FEF7A3
:10504000C7FE03000120052B01D8014AD05C10BD2A
:105050005C4D091010B5FEF7B9FC03000120052BCB
:1050600001D8014AD05C10BD5C4D091010B58068B4
:10507000FEF78AFC03000120052B01D8014AD05C11
:1050800010BDC0465C4D091010B5816800204EF07F
:10509000DDFD10BD00487047644D091006207047C3
:1050A00010B565F0ADFBC0B25FF0FAFE10BDC046B2
:1050B00010B50B78040082B0FF2B01D002B010BDF8
:1050C0000A485DF041FFFA21094B01220193094B87
:1050D000890000930848002365F0ACFA074B0849A3
:1050E000186020004CF0C8F8E8E7C04624680810B3
:1050F0003CAA0120A15001104468081038AA0120E0
:105100006D51011070B5184C060020680D0082B07A
:10511000002808D065F068FB00281CD12068002812
:1051200001D0002D01D102B070BD3100002665F024
:1051300071FB2A00002304212068009665F0D6FA4E
:10514000246863F0F9FB002302000121200000968F
:1051500065F0CCFAE7E700232068002203210093E2
:1051600065F0C4FADAE7C04638AA012070B50C0031
:1051700082B0050048F07AFC237806001E2B09D87F
:105180000A2B28D90B3BDBB2132B24D84B4A9B00AC
:10519000D3589F46FD2B1ED149485DF0D5FE0B210B
:1051A00028004CF0AFF80C2128004CF0ABF80F2190
:1051B00028004CF0A7F8102128004CF0A3F81B2180
:1051C00028004CF09FF81C2128004CF09BF81E2171
:1051D00028004CF097F802B070BD3A485DF0B4FE7C
:1051E00002205FF05DFEF6E737485DF0ADFE04207B
:1051F0005FF056FEB8239B009C466644042031892C
:10520000FFF780FFE7E731485DF09EFE304C2068F5
:105210000028E0D065F0E8FA0028DCD00023206800
:1052200000220321009365F061FAD4E729485DF07C
:105230008BFE05205FF034FEB8239B009C4666443D
:105240000520318AFFF75EFFC5E723485DF07CFE4D
:1052500003205FF025FE03202049FFF753FFBAE744
:105260001F485DF071FE1A4C2068002803D065F0DD
:10527000BBFA00281AD106205FF012FEABE71948EE
:105280005DF062FE124C2068002803D065F0ACFA95
:10529000002803D107205FF003FE9CE7002320686D
:1052A00000220321009365F021FAF3E70023206830
:1052B00000220321009365F019FADCE7DC4D0910A8
:1052C000546808108C690810746808101869081070
:1052D00038AA01209C680810E0680810B80B00008C
:1052E0003C6908106469081010B50D4C82B0236841
:1052F000002B01D002B010BD0022200009494BF064
:105300006BFF00210D2047F09DF801200190FF3038
:105310000090054B2000054A05494BF085FFE9E761
:10532000E83C0120B4690810903D0120204A00208B
:10533000B1500110014B18687047C046E83C01208D
:10534000002805D0002903D0036900200B607047B6
:105350000120FCE70020704710B506210C204BF01F
:10536000CFFD002801D04BF0C9FE002010BDC04683
:1053700030B5040085B0002835D026485DF0E4FD46
:105380000E210B204BF0BCFD051E09D0684653F0E2
:1053900043F90023002828D128006B734BF0AEFEA0
:1053A0002369002B2FD0F0221B4B9D58002D02D1DA
:1053B000002005B030BD4CF0F9FE0023174A09F07B
:1053C000C7FCE46B80B2230C9842F1D12404230C77
:1053D000A10BC91849008D42EAD82A0010485DF097
:1053E000B3FD0320E5E70120E3E76B469B7AA81DA8
:1053F0001A1C072B00D907226946D2B20AF002FD17
:105400006B469B7AC8E7002106485DF09DFD0320AE
:10541000CFE7C046C4690810A041002080510100B8
:10542000206A0810F069081070B50C0016001D0005
:1054300082B000280BD007485DF086FD00233200C3
:10544000009320002B0053F0BBFF02B070BD012081
:10545000FBE7C046506A0810F8B504000D000028AC
:1054600043D002698A4242D3561AF022234B9B58FA
:10547000002B01D0002914D120002661266252F0B1
:10548000C5FC041E08D052F005F81D4B01001800A1
:105490005DF05AFD2000F8BD31001A485DF054FD62
:1054A000F8E74CF083FE0023174A09F051FCE36B48
:1054B00087B21A0CBA4205D11B041A0C9B0B9B181D
:1054C0005B00ED18A0231B039D4215D20A21280082
:1054D00009F018FC3F040743E763200026612662B9
:1054E00052F094FC041ECED1D6E70124D2E707483F
:1054F0005DF02AFD0324CDE70548EBE7A04100203D
:10550000E46A0810BC6A081080510100846A08101F
:10551000FFFF000000207047F0B5DE464E464546CE
:105520005746E0B5C84897B05DF00EFDC74B002563
:105530000393C74BC74C9B46C74B12AE9A46C74B0B
:105540000493C74B0993C74B0893C74B9946C74B66
:105550000293C74B0693C74B0A93C74B9846C74B5A
:105560000793C74B0D93C74B0F93C74B0B93C74B79
:105570000C9323781195002B56D0092330003370FB
:1055800051F00CFA0700012815D0039B32781B78E4
:1055900025700593022800D133E1022A00D17DE174
:1055A00004990B78FF2B02D00133DBB20B7039006A
:1055B00006985DF0C9FC2378002B35D014224346B1
:1055C00011A9186861F0FCFE0128D2D1119F002FAB
:1055D000CFD02378002B1ED009233000337051F038
:1055E000DDF90700012815D0039B32781B78257060
:1055F0000593022800D16AE1022A00D190E10499C2
:105600000B78FF2B02D00133DBB20B703900069808
:105610005DF09AFC119F3B781B3BDBB20C2B4CD806
:10562000079A9B00D3589F464B461B68002B00D11E
:10563000DFE063F081F95346FA221B689200C31A37
:10564000934200D3FCE05B461B68C01AF92800D8DF
:10565000CBE0012000272378002BAFD18C4951F0FB
:1056600043F9002800D1BDE001232370039B1F7084
:10567000A4E73A697B69B9680C985DF065FC092379
:105680003370B8683A697B69824F009751F08EF8A1
:10569000002800D119E13900300051F0A1F90621AC
:1056A000022802D13378002B22D010204BF028FCA6
:1056B000002801D04BF022FD119F38004BF096FCE2
:1056C00057E7B9680B985DF03FFC09233370B86861
:1056D000714951F02BF8002800D1F6E06E493000F6
:1056E00051F07EF906210228DFD13378002BDCD17E
:1056F0000D304BF005FC0028DCD1119FDDE7FB8865
:10570000012BDAD14A46FB6812680E9305929A4241
:1057100000D23DE12378002BCFD1059B002BCCD0CC
:1057200063F00AF95346FA221B689200C31A9342A7
:1057300000D357E15B461B68C01AF928BCD9002783
:105740002378002BB8D101205149784051F0CCF892
:10575000002800D148E101232370039B1F70119F93
:10576000ABE7FB88012BA8D14A46FB6812680E9371
:1057700005929A4200D2EAE00D985DF0E5FB2378AD
:10578000002B0AD10020424951F0AEF8002800D188
:1057900020E10123039A237013703B7A032B00D17D
:1057A00011E14B461D605B461D6053461D60049B26
:1057B000119F1D70029B38001D704BF017FCD8E63E
:1057C000FB88012B00D078E74A4615605A461560E1
:1057D00052461560049A38001570029A13704BF007
:1057E00005FCC6E60A985DF0AFFB2378002B00D0DD
:1057F000E4E6029B1B78002B00D0DFE60122524238
:10580000DDE6002A00D0C8E663F096F85B46186033
:10581000059B002B01D053461860049B10210E20DD
:105820001D704BF06DFB071E00D1C4E651F056FE13
:10583000B86051F065FEF86038004BF05FFCBAE6E6
:105840000020012707E7C0460C6B0810B4D60220E1
:10585000BCC00120C2D60220B8C00120A8D60220B8
:10586000346B0810746B0810B4C00120A9D6022054
:10587000DC6B08103C6C0810202D02202C4E091007
:10588000746C0810B86C0810F46C08102C6D0810BB
:10589000C4090000102700008813000009985DF07B
:1058A00053FB0222390008985DF04EFB51F012FFC5
:1058B00000282CD14B461D605B461D6053461D6081
:1058C000049B1D70029B1D7075E60621EDE6002A03
:1058D00000D091E663F030F85B461860059B002B22
:1058E00001D0534618600023049A10210E20137033
:1058F0004BF006FB071E00D18CE651F0EFFDB860BF
:1059000051F0FEFDF86038004BF0F8FB82E606210E
:105910000C204BF0F5FA0028CCD04BF0EFFBC9E798
:1059200009985DF011FB0222390008985DF00CFB2C
:1059300051F0D0FE002822D14B461D605B461D6011
:1059400053461D60049B1D70029B1D7062E652F061
:105950002FFE011E00D10FE7102230000AF052FA8C
:105960000E98059B31680022C31A994202D3059B09
:105970005A18121A3000326052F062FEFCE606211C
:105980000C204BF0BDFA0028D6D04BF0B7FBD3E784
:1059900052F00EFE011E0ED0102230000AF032FA34
:1059A0000E98059F32680021C31B9A4216D2300020
:1059B000316052F045FE4B460E9A1A602378002B58
:1059C00000D1ADE678E60A2052F090FE0F985DF027
:1059D000BBFAE6E60A985DF0B7FADEE6BC4662443A
:1059E000111AE4E70127ABE60A985DF0ADFA119FC2
:1059F00063E6C04670B50C00002813D00161016257
:105A000052F004FA051E08D051F044FD064B010087
:105A100018005DF099FA280070BD210003485DF080
:105A200093FAF8E70125F6E7E46A0810BC6A081063
:105A300070B5041E1BD0056941614D192A000D483F
:105A40005DF082FA20002561256252F0DFF9041E24
:105A500008D051F01FFD084B010018005DF074FAEA
:105A6000200070BD290005485DF06EFAF8E70124BA
:105A7000F6E7C046806D0810E46A0810BC6A08109A
:105A800010B5224884B05DF05FFA0021202000911B
:105A90001F4B204A043161F0C1F91F4C20600028DF
:105AA0001FD01B214BF0F8FA242120684BF0F4FAA8
:105AB0001C2120684BF0F0FA262120684BF0ECFA0C
:105AC000272120684BF0E8FA144B80220293144BF4
:105AD000144901930223144800935200002362F0FA
