:020000041001E9
:1000000000B5324B212058609868022188439860DF
:10001000D860186158612E4B002199600221596106
:100020000121F02299502B49196001219960352056
:1000300000F044F80222904214D00621196600F024
:1000400034F8196E01211966002018661A6600F04E
:100050002CF8196E196E196E052000F02FF8012189
:100060000842F9D1002199601B49196000215960AB
:100070001A491B48016001219960EB211966A021F2
:10008000196600F012F800219960164914480160C1
:100090000121996001BC002800D000471248134993
:1000A000086003C880F30888084703B5996A0420EC
:1000B0000142FBD001200142F8D103BD02B5186610
:1000C0001866FFF7F2FF186E186E02BD00000240BE
:1000D000000000180000070000035F00212200005C
:1000E000F4000018222000A00001001008ED00E03C
:1000F00000000000000000000000000074B24E7A12
:1001000000200420F7010110CB010110CD010110E6
:10011000C9010110C9010110C9010110C901011073
:10012000C9010110C9010110C9010110796307104B
:10013000C9010110C9010110A5620710F56307107C
:10014000C1010110C1010110C1010110C101011063
:10015000C1010110C1010110C1010110C101011053
:10016000C1010110C1010110C1010110C101011043
:10017000C1010110C1010110C1010110C101011033
:10018000C1010110C1010110C1010110C101011023
:10019000C1010110C1010110C1010110C101011013
:1001A000C1010110C1010110C1010110C101011003
:1001B000C1010110C1010110C1010110C1010110F3
:1001C000EFF30580103800BE00BE00BE00BE00BECA
:1001D00000BE00BEF2EB887164960F1084960F107B
:1001E0003802011090A31AE71E481F49086006C88C
:1001F00081F3088810471D480068002801D019487D
:10020000F3E70DA40ECC002902D000F012F8F9E7B4
:100210001749184A002000E001C19142FCD116495B
:100220008847164988471649884700BEFDE701C937
:1002300001C29A42FBD3704784960F10E000002061
:10024000B01C002054B20F10000004200000042055
:1002500054B20F1000100420001004200000000011
:10026000704700000000000008ED00E0000000D032
:10027000B01C0020CCD602206D190210D50201104E
:100280002D190210F8B5C04606480749091A8B1007
:10029000C90FC91810B5491003D0044B002B00D06A
:1002A000984710BDB01C0020B01C002000000000CA
:1002B000054B10B5002B03D00449054800E000BFF2
:1002C000FFF7E2FF10BDC04600000000A03801208B
:1002D00008360810002110B5002014F075F906202A
:1002E0000EF0DCF8D02340221B065A620F485A61F8
:1002F00011F0ACFC0E4811F0A9FC04F029FE4CF002
:10030000C1F868F035FA0B4811F0A0FC0121062075
:1003100050F014FD32200DF01DF90021062050F0A0
:100320000DFD32200DF016F9F0E7C0460836081032
:100330002436081044360810024A1368013313604B
:100340007047C0467419012070B505000B480C00B9
:1003500011F07CFC29000A4811F0FCFC002C08D0AC
:100360002100084811F0F6FC074811F06FFC72B646
:10037000FEE7064811F06AFCF6E7C0466036081052
:100380008436081098360810BC360810A8360810B5
:10039000034B0360034B0B6080239B00136070478B
:1003A0001879002044BD0220034B0360034B0B600F
:1003B000C0239B0013607047C87A002044C5022008
:1003C000004870470447091000487047A0460910CC
:1003D00070B5002800D173E0032852D1414D11219E
:1003E000280011F0D3FC28006CF036FE002800D164
:1003F00075E03D4C2B786380012839D06B78A38061
:10040000022835D0AB78E380032831D0EB78238104
:1004100004282DD02B796381052829D06B79A381FD
:10042000062825D0AB79E381072821D0EB792382F8
:1004300008281DD02B7A6382092819D06B7AA382F1
:100440000A2815D0AB7AE3820B2811D0EB7A2383EC
:100450000C280DD02B7B63830D2809D06B7BA383E5
:100460000E2805D0AB7BE383102801D1EB7B2384DE
:10047000C023013040009B0003439BB22380200037
:1004800070BD052829D8194B8000C458002CF6D01F
:1004900020006CF0E1FD050020281CD8002807D0C2
:1004A0000023134AE15C0133118002329D42F9D8E6
:1004B000C02301356D009B002B430B4C9BB2DDE745
:1004C0000B4C0A4B2000196802220FF037FDC123A4
:1004D000023C9B00D2E72025E0E70024CFE7054B54
:1004E000014CCBE7386F0020BCE900204812002007
:1004F000BEE900200203000010B55A4862F0E6FD94
:1005000004F0C0FB04F04CFC4DF056FC05F024FC5C
:1005100000283ED0544862F0D9FD4EF0D1FE0400D0
:1005200005F074FF4CF0CEFC002800D094E0002CC5
:100530002FD14DF037FB01000200073117324B4835
:1005400062F0C4FD4DF02EFB8F23C35C0400002B32
:1005500030D18E23E35C002B37D18D23E35C002B5D
:100560003ED18A23E35C002B4ED14CF031F80028B9
:1005700007D005F085FA03F0EBF88B23E35C002B42
:1005800056D18C23E35C002B48D1394862F09EFDA4
:1005900010BD384862F09AFD4DF08CFB011EC8D0AA
:1005A000354862F093FD4DF0FDFA8F23C35C0400E3
:1005B000002BCED00122314B042031495A714BF02F
:1005C0008DFF8E23E35C002BC7D004F00BFD2B4B7B
:1005D000002837D001221A718D23E35C002BC0D094
:1005E000B8239B00E01864F0DBFC00282DD004F059
:1005F0007BFE0122214B0D202249DA704BF06EFF69
:100600008A23E35C002BB0D001F02EFE01221B4BAD
:100610000B201D491A704BF061FFA6E703F002FAA8
:100620000122164B0C2019499A704BF057FFACE78A
:1006300059F048FC0122114B0E2015495A704BF01D
:100640004DFF9EE702221A7187E7124862F03EFDD5
:1006500004F04AFE0222CDE70F4862F037FD002C7D
:1006600097D166E71C3708107C370810CC37081084
:100670009C38081044370810F8370810C0C2012011
:100680002C380810703808107C3808109038081082
:100690008838081034380810A837081070B50528B5
:1006A0000CD82A4B2A4D8400E1582B5C012B3ED0FC
:1006B000284862F00BFD284B1B599F46274B010031
:1006C000180062F003FD002070BD012304202449BE
:1006D0006B714BF003FF0120F6E759F0F3FB0123A8
:1006E0000E2020496B704BF0F9FE0120ECE704F07E
:1006F000FBFD01230D201C49EB704BF0EFFE0120A8
:10070000E2E704F06FFC0028DDD001230F20174939
:100710002B714BF0E3FE0120D6E703F083F90123B0
:100720000C201349AB704BF0D9FE0120CCE71148E7
:1007300062F0CCFCC7E701F097FD01230B200E49C6
:100740002B704BF0CBFE0120BEE7C04630470910AE
:10075000C0C201200C39081018470910C838081009
:100760002C380810883808107038081028390810FC
:1007700090380810EC3808107C38081010B505289F
:1007800005D8044B8000C158034862F09FFC00204C
:1007900010BDC0463047091034390810052802D86A
:1007A000024B185C70470220FCE7C046C0C2012023
:1007B000052803D8024B8000C05870470148FCE769
:1007C000304709105C390810F0B5D6464F4646460A
:1007D000C0B58AB04DF0E6F90400354862F076FC09
:1007E000344B9A46180062F071FC334862F06EFC9C
:1007F000504662F06BFC314862F068FC304862F0B1
:1008000065FC8A23E35C002B50D02E4B04938B2392
:10081000E35C002B48D02B4B05938C23E35C04ADA9
:10082000002B3FD0274BAB608D23E35C002B37D0F0
:10083000244BEB608E23E35C002B2FD0214B2B61EC
:100840008F23E35C002B27D01E4B01AF3A006B6176
:100850001D4B1E4E13CB13C2182399461C4B1D4C27
:100860009846A144337802CC9B004046FB5804CD07
:1008700062F02CFC01364C45F4D1504662F026FC67
:10088000154862F023FC154862F020FC0AB0E0BC79
:10089000BA46B146A846F0BD114BD6E7104BCEE79D
:1008A0000F4BC6E70E4BBEE70D4BB5E70C4BADE764
:1008B000D00E091070390810303A0810743A081038
:1008C000A83A08106439081048470910C0C201202E
:1008D000683B0810304709107C3B0810A83B081003
:1008E000103D091010B568F0AFF810BDF0B5DE4648
:1008F00057464E464546E0B585B04DF053F9F223D4
:100900004F4E5B000400C05833684E4F98426AD087
:100910004D4B98464D4B99464D4B9A464D4D2B6845
:100920009B46002B44D02CF009F802AB187002044F
:100930000002120E000E5A7098700022584602995A
:100940001DF064FAFF21286800221DF06FFAF422DE
:100950002B685200A058934601932BF0EFFF03AB96
:10096000187002040002120E000E5A7098700022D5
:10097000039901981DF064FAF6235B00E15C286896
:1009800000221DF077FAEE23FF33E15C2868002295
:100990001DF07AFA286800220121F2251DF060FA84
:1009A0005B466D00E25861592B4862F08FFB60593D
:1009B000F4235B00E35842463B60F62330605B0063
:1009C000E35C1370EE234A46FF33E35C1370F823B5
:1009D00052465B00E358136005B0F0BCBB46B2461C
:1009E000A946A046F0BDF4235B00E2583B689A425A
:1009F00000D08DE7144B9846F6235B00E25C43463B
:100A00001B789A4204D0114B9946114B9A4685E7C0
:100A10000E4B9946EE23FF33E25C4B461B789A421D
:100A200002D00B4B9A4679E7094B9A46F8235B00B4
:100A3000E25853461B689A4200D06FE7CCE7C046A5
:100A400078120020741200206E1200206D12002017
:100A500070120020787C00200C3C081070B5040057
:100A600086B0642864DD642423001021324A02A881
:100A700010F0D4FE314E306800280FD0304D2900E0
:100A80003AF08AFA3068002802D0012115F096FB6E
:100A90002C4B03CD03C31A002B7813702A4D286802
:100AA000002808D029493AF077FA2868002802D0AF
:100AB000012115F083FB264D2868002808D002A9E3
:100AC0003AF06AFA2868002802D0012115F076FB76
:100AD000204D2E68002E1BD01F482BF02FFF020444
:100AE00001AB120E5A70802218700002000E98702E
:100AF0000199300092021DF089F928680022210036
:100B000035F008FD2868002802D0012115F056FBB9
:100B1000124B1868002802D0012115F003FB104B7E
:100B20001868002802D0012115F0FCFA06B070BD4B
:100B3000C343DB171C4097E7503C0810A07C002003
:100B4000583C0810801D0120A47C0020643C081043
:100B5000887C00207C7C00200A820500987C002094
:100B60009C7C0020F0B5DE4657464E464546E0B533
:100B7000EB48D9B062F0AAFA64F06AF8E94862F08A
:100B8000A5FA0120E84966F0A1FBE84B9A461860F7
:100B9000002801D101F026FA002108200091E44B41
:100BA000E44A043166F0FAF9E34D2860002800D1E8
:100BB000A2E21B2150F00CFB002800D064E2DF48C9
:100BC00062F084FADE4862F081FA63F0FFFF692088
:100BD00067F03AFFDB4862F079FA322067F034FFC1
:100BE000D94862F073FA29F071FBD84862F06EFAC6
:100BF000D74833F07DFDD74862F068FAA022F02193
:100C00005200D54862F062FAA021D44AF020009246
:100C1000D34B0322490025F099FED24E30600028C4
:100C200000D155E2D04862F051FA0021306820F03E
:100C30007DFECE4862F04AFA9621CD48490162F025
:100C400045FA002330680093962300225B01C949CE
:100C500020F0D2F9C84862F039FAC84862F036FA92
:100C600014F05AFBC64862F031FA4CF09BFF0400C6
:100C7000C44862F02BFAFFF739FEC34B18680D9396
:100C8000002804D02100A231FF313AF085F94CF060
:100C900089FF0D9A03001068002809D0FA2252003B
:100CA0009B5C0121002B01D101F0B2F815F086FA0E
:100CB000B64862F00BFA002063F0A0FF64F0E2F89F
:100CC000306820F0DDF88346B148594662F0FEF9FD
:100CD00067F0F2FEAF4BA9468046070006005D466E
:100CE000049313E02EF08AFD01210B204BF00AFC47
:100CF0004346FA22E31A9B465200A31B934215D2A5
:100D0000A54B9B451ED8052067F09EFE64F0B4F805
:100D1000A84201D301F031F867F0CEFE0400C01BF9
:100D2000BC42DFD033F062FC2700DBE764F0A4F8BC
:100D30005B4601002A00049862F0C8F9964B260031
:100D40009B45E0D964F098F85E46AB46934C0100B1
:100D500033005A4620004D4662F0B8F9642067F02F
:100D600073FE64F089F88E4B0100180062F0AEF952
:100D70008C4862F0ABF900242000053463F03EFF9C
:100D8000E4B21E2067F060FE692CF5D1642063F0A8
:100D900035FF854862F09AF9844862F097F967F068
:100DA0008BFE4B9067F088FE814B824E0A93186051
:100DB000814B30609846814B814F0593814B139353
:100DC000814B2F93814B4293814B1693814B4393DD
:100DD000814B3893814B3993814B2C93814B2093DA
:100DE000814B0C93814B2293814B3093814B1E930B
:100DF000814B1893814B2393814B2493814B119307
:100E0000814B3193814B3E93814B4193814B329384
:100E1000814B2593814B2D93814B3393814B2693AB
:100E2000814B3C93814B3493814B2793814B3D9372
:100E3000814B3A93814B3B93814B2893814B299370
:100E4000814B2E93814B1993814B3593814B2A9380
:100E5000814B3693814B3793814B2B93814B14936A
:100E6000814B1293814B1593814B1F93814B994674
:100E7000814B0993814B0693814B3F93814B409368
:100E8000FA239B009B465346CA46C146B0461E0005
:100E900067F012FE4B461B68C31A5B4539D20B2024
:100EA00001214BF02FFB2868002812D000230022DC
:100EB00050A9509366F044FB01280AD1509C002CA5
:100EC00000D01DE12868002250A966F039FB0128F6
:100ED000F4D067F0F1FD04004CF064FECA224346F2
:100EE00052001B688258E31A934200D325E1FA218D
:100EF0003068490066F0B2FB012800D18EE20A207A
:100F000067F0A2FD67F0D8FD4B461B68C31A5B452E
:100F1000C5D34B46186005984BF0D6FFBFE7C046D7
:100F2000E83C0810203D08103838012034380120F2
:100F3000DC1D0120301E0120D81D0120C03D0810FD
:100F4000F43D08101C3E0810343E0810583E0810AE
:100F5000E5080110703E0810983E0810054D071076
:100F60007D4C0710D41D0120F43E0810203F0810CE
:100F7000583F0810002200208C3F0810B03F081096
:100F8000CC3F0810E43F0810A07C0020144008105B
:100F9000444008107C400810B70B0000B84008100F
:100FA000F84008102C4108104C41081080410810EE
:100FB00010470220A01D012010EA0020B4410810B3
:100FC0008C6002206C120020EC470910B841081018
:100FD0007C120020544709106C3C08107C3C08101F
:100FE000743C0810801D0120A47C0020943801204E
:100FF00018EF081068120020887C0020D4410810E7
:10100000D8410810A41D0120B4470910C83C08109D
:10101000DC3C081087D6022088ED0020202409102F
:1010200086D6022084ED0020A83C081085D6022038
:1010300080ED0020B43C0810843C0810903C08105F
:1010400088D602208CED0020BC3C08109C3C081087
:101050008C47091064120020E04108107C7C0020BD
:1010600060120020807C0020A1D602208C7C002011
:10107000A2D60220C81D0120C3D60220B002012042
:1010800054B90810D43C08102421286850F0A0F866
:10109000002800D193E51C21286850F099F8002819
:1010A00000D18CE50D21286850F092F8002800D17D
:1010B00085E50E21286850F08BF8002800D17EE5E8
:1010C0002521286850F084F8002800D177E579E5DB
:1010D000CE4861F0FBFFCE4861F0F8FF5346186838
:1010E00066F07AFC002067F01FF959B0F0BCBB46EF
:1010F000B246A946A046F0BDC64861F0E7FF61E5EB
:1011000023781B2B00D163E1242B00D170E11C2B31
:1011100000D03FE163880F2B0AD9A379012B00D1BE
:101120004BE2032B04D100225333FA54083BF8540A
:1011300020004FF0F7FF2868C5E643460A213068D3
:101140001C6066F08BFA0400012800D0CFE6FFF7A0
:10115000CDFB42A8002384460F210E2042AA9373A0
:10116000D3734C934D934E934F93614460444FAB74
:101170004EAA039005F03CFD4DA904904CA859F0EF
:101180006BFA002800D047E2049B002B00D0D6E287
:101190004CF008FD049B0890BB778A23C35C002BAE
:1011A00000D03CE38B23089AD35C002B00D0DFE215
:1011B0008C23089AD35C002B00D0EBE28D23089A95
:1011C000D35C002B00D0F7E28E23089AD35C002B6F
:1011D00000D003E38F23089AD35C002B00D00FE3E9
:1011E000BB7F5A1E93417B7767F066FC4823FA5C0D
:1011F00001330792FB5C1A933B6C0F934C23FB5C0F
:101200001B935423FB5C10934B23FB5C0E93002B2E
:1012100000D085E2012A00D188E2D31E5A42534110
:1012200000220E9317924F23FB5C1C93002B09D0D6
:101230003B6D794AC31A934206D9002301223B65CC
:101240004E33FA5200231C937B7A002B00D156E2D6
:10125000109A002A05D101233B74BB6DF8607B61B5
:101260007A723B780E9A002B00D0FAE1002A01D165
:1012700000F00BFD01223B743B723B654E33FA528A
:1012800001233B7052F0DAFD002801D100F0F9FC97
:101290000022037E1D92002B03D0079A5342534134
:1012A0001D9356233A7A387C21920F9AFB5C002AD0
:1012B00000D096E1FA6B0B92002A00D192E1FB215B
:1012C0001A9A063A0A4200D18CE1109A002A00D0FC
:1012D00088E1002800D085E1219A002A00D1ABE204
:1012E000002B00D1ADE2139B1B780493012B01D09E
:1012F00000F015FD4D33FB5C002B0BD0139B049AC3
:10130000210042981A7061F0E1FE109B002B01D081
:1013100000F056FD0022079B0792013BDBB2032B36
:1013200002D82F9AD35C0793169B079A1B78140058
:10133000934205D14E23FB5C002B01D100F0D9FC78
:101340004CF030FC0D9A03001068002801D100F029
:10135000AAFC64011B19F533FF331B780121002B14
:1013600001D100F09AFC14F029FF0D9B1C68169B1C
:10137000079A1A70089BC233FF330793002C00D1E1
:101380000CE3049B0D2B01D900F05CFF439A9B00FA
:10139000D3589F460D2B00D17EE00E2B00D1B4E038
:1013A000252B00D0C4E663881F2B00D8C0E654224A
:1013B0005621E3791840B8541A07D20F7A545522AF
:1013C0005B07DB0FBB546369A269FB65BA65AFE6D7
:1013D0006388132B00D8ABE6A379012B00D1A6E0DC
:1013E000032B00D0A4E65333F854083BF8549FE68F
:1013F0006388132B00D89BE6A379012B00D1A9E0C9
:10140000032B00D094E65333F85491E6CC3E0810F9
:10141000643D0810943D08100F27000067F04CFB56
:1014200053461B680400002B03D0C01A9C4200D016
:10143000C0E053461C604CF0B5FB099C2378002BA0
:101440000CD1FA218933FF33C05889000DF0F6FC26
:10145000069B1B68834201D3012323702EF0CEF933
:10146000040067F029FBFA210A9B89001B68C01A57
:101470000DF0E4FC069B0022186000210023306878
:1014800065F03AFE642C4CD82100052C00D20521D1
:101490004BA867F08BFAFBE463881F2B00D847E664
:1014A000E38804930423627A13405907C90F089113
:1014B0009107C90F0B911040227A2169079254229B
:1014C000BA5C8C46002A52D05522B95C0D3A0E9176
:1014D0000499B95207990232B9540132B854242000
:1014E00002A9091809780132B95402A9087E0E9997
:1014F0000132B85400294CD162467A64002B00D0E6
:101500002BE14E230122FA5412E663880F2B00D8F8
:101510000EE6A368E2683B647A64002BF1D0FB63BB
:10152000EFE74CF03FFBC2235B00C458ACE754220A
:10153000BB54E379013B5A4253415522BB5400232B
:10154000BB65E368002B00D123690122FB654E23B4
:10155000FA54EDE55422BB54E379013B5A4253411E
:101560005522BB54E2682369BA65FB65E0E5482271
:101570000499B95207990232B9540132B85424205F
:1015800002A9091809780132B95402A9097E013269
:10159000B954E26807923A6462467A64002B00D03C
:1015A000D0E06B461B7C012BABD1079B002BA8D056
:1015B000FB63A6E733F01AF83BE754220021E379F6
:1015C000B952E268F965BA65012B9AD1227A032AE9
:1015D00001D100F063FD4F230022FA5400233B6544
:1015E0008FE70B92002B00D078E1109B002B00D1ED
:1015F00027E1139B1B7804930E9B002B00D182E301
:10160000049B052B01D000F0C6FC4933FB5C002B8A
:1016100000D176E1052471E6049B00204D9C002B4F
:1016200012D04F9B0493A3420ED9002C01D000F09E
:101630001FFDFFF713FA4E2300220021FA543068F1
:10164000002365F059FD52E4002CF2D064220023FF
:101650004C9800210EF0E4FA220000230DF02CFC3F
:10166000E7E7002A00D00DE60123786000203B72F6
:101670003A70C623089A5B00D358834200D901E62A
:101680004CF090FA0D9A03001068002809D0FA2255
:1016900052009B5C0121002B01D100F047FD14F0AA
:1016A0008DFD4CF07FFA0D9BC2301B68FF300400AB
:1016B000002B03D00100180039F06EFC0B22210032
:1016C000C6486AF029FA00233822C5498B544B22B8
:1016D0008B544F22CB638B540B720B654CF062FA28
:1016E0000D9A030010680028A5D0FA2252009B5CD6
:1016F0000121002B00D132E214F060FD9BE710992C
:101700003B7C7972002B00D1ABE5002900D0A8E525
:10171000FB68B44AC31A934200D8A2E53974A0E525
:1017200000231793079B012B00D07CE50F9B002B18
:1017300000D1E2E2FB63012317930E9373E542AB02
:10174000D87B76E7380021000B222D3014316AF067
:10175000E3F938230022FA5423E721000B22143145
:101760009E486AF0D9F9382300219D4AD154C8E631
:101770000120FFF713F8012800D119E5BB7F5A1C9F
:10178000BA770122FB18DA778C23089AD35C002BF6
:1017900000D113E50220FFF701F8012800D10DE583
:1017A000BB7F5A1CBA770222FB18DA778D23089A7E
:1017B000D35C002B00D107E50320FEF7EFFF0128E3
:1017C00000D101E5BB7F5A1CBA770322FB18DA77F8
:1017D0008E23089AD35C002B00D1FBE40420FEF793
:1017E000DDFF012800D1F5E4BB7F5A1CBA77042243
:1017F000FB18DA778F23089AD35C002B00D1EFE433
:101800000520FEF7CBFFBB7F012800D1E9E40521CD
:101810005A1CD2B2FB18D977BA771300E1E4002042
:10182000FEF7BCFF012800D1BCE4BB7F5A1CBA778D
:10183000049AFB18DA77B5E4002B01D000F06AFCBB
:101840000B93139B1B7804931C9B002B01D000F07F
:1018500003FC1B9B002B00D0E5E3079B023B012B05
:1018600000D8D1E31A9B012B00D1E8E3022B01D170
:1018700000F0F1FC032B00D1E1E3042B00D1DEE307
:10188000062B01D100F0D2FC0A2B04D10E9B002BB9
:1018900001D000F0B5FC079B042B01D100F0A4FCA3
:1018A000012B01D100F083FC179B002B01D000F02D
:1018B00072FC002801D000F058FC219B002B01D0C5
:1018C00000F047FC049B002B01D000F033FC4E33AA
:1018D000FB5C002B00D11DE500240FE5139B1B785A
:1018E0000493012B00D01AE24D33FB5C002B00D196
:1018F0000BE5139B049A210042981A7061F0E6FBF5
:1019000003E5169B1B78032B00D0A0E30D9B1C68FE
:10191000089BC233FF330793002C00D16FE14D23A6
:10192000FB5C002B34D02D239C46BC4463460793BC
:10193000079920986BF044FB00282FD01F220799AD
:1019400020986AF0E9F80023209A20001100D3774C
:1019500039F022FB0C9B1B680793002B23D1189BAB
:101960001868002859D0049B043BDBB2092B4DD8E2
:10197000359A9B00D3589F462D23FB5C002B07D044
:101980002D239C46BC4463460793D1E7399B0793BC
:10199000079920986BF014FB0028CFD10C9B1B6893
:1019A0000793002BDBD07B7F002B00D0C2E1049B90
:1019B000053B012B00D82CE1049B0C2B14D00122F9
:1019C0004A231E995242FB5C0A60049A0D2A00D9F0
:1019D00087E3319992008A589746C046B960022041
:1019E0008C600220871300007C69002C00D014E179
:1019F0001E9A0D3B07980121136014F093FB189B6E
:101A00001868002809D00B9B1C1E73D1012114F00B
:101A100089FB01232A9A5B421360379B1B6807935B
:101A2000002B24D00123049A9340D54A134200D0BE
:101A3000D9E093221201134219D0796C002916D0F3
:101A400064200F9B58430DF0F9F90400642800DD71
:101A5000F9E1C343DB171C402B9B1B68A34206D054
:101A600000222100079834F055FD2B9B1C60149B2D
:101A70001C68002C10D00499C24A129BCA40012154
:101A800008001B78104011427BD1002B04D0129B20
:101A90001870200014F046FB159B1C68002C00D128
:101AA000C9E57B7F002B06D1049B052B4AD8022B6E
:101AB00000D9FCE04AD166F0FFFFBA693B7F821A89
:101AC000F92A03D9012253403B77B861159A14686B
:101AD000002B00D06BE2002C03D00121200014F079
:101AE00021FB02231F9A1370A5E53B7A002B00D03F
:101AF00089E1FC6D012114F061FB2A9A1368A3426D
:101B00008BD0FA21146089008C4200D275E29E4B82
:101B10009C4200D862E120000DF090F910210300F2
:101B2000249A50A80FF07AFE189B50A9186839F033
:101B300033FA72E7159B1C68002C00D17BE57B7F94
:101B4000002BB8D1049B083B032BB4D91F9A137800
:101B5000002B00D16FE5002301212000137014F049
:101B6000E1FA68E50798012114F028FB189B186832
:101B7000002800D047E7149B1C68002CDAD0129B89
:101B80001B780B9A002A01D1FA6B0B927F4A0B99B2
:101B9000914200D9FCE0012B00D17DE7CC2001234C
:101BA000129A000413702AF0C9FE2022212142ABB0
:101BB0009B18187042AA030452181B0E137022229D
:101BC00042AB9B1800220002000E18704A992000B8
:101BD0001CF01CF9149B1868002800D15CE7012157
:101BE00014F0ECFA58E7002436E7169B1B78032B19
:101BF00000D02CE20D9B1C68002C00D0C6E60C9B8C
:101C00001B680793002B00D1A9E67B7F002B00D037
:101C100090E0BC6D002C00D1D1E6642120000DF0D5
:101C20000DF91E990B68984226D008600A2107908A
:101C30000DF004F9544B08909C4200D936E20A2179
:101C400007980DF0FBF8089B0091239A102150A8EB
:101C50000FF0E4FD0C9C50A9206839F09DF90F228B
:101C6000119850A969F058FF0023119AD373236883
:101C70000793002B00D172E60121079814F09EFA19
:101C80006DE600231D93FFF70CFB3B7A002B01D17F
:101C9000FFF7F8FA7B68C01AEBE414F043FA0D9BE7
:101CA0001C68FFF764FB169B079A1A7076E61F9A6A
:101CB0001378012B00D1BEE4FF2001230002137032
:101CC0002AF03CFE42AB1874030400021B0E42AA29
:101CD000000E537490744699200000221CF096F870
:101CE000159B1868002800D1A5E4012114F066FABC
:101CF000A1E40D9B1C68FFF73DFB1B9B1793012381
:101D00000E93FFF790FA049B062B00D037E148337F
:101D1000FB5C002B00D168E70624FFF7EFFA0123F4
:101D20000493049A139B210042981A7061F0CEF933
:101D3000FFF7EBFA66F0C0FE2C24FA22229B395DF5
:101D40001B680790C31AD20093423DD27918C87F0E
:101D5000FEF72EFD20210300309A50A80FF05EFD03
:101D60000C9C50A9206839F017F92068002800D190
:101D7000F5E5012114F022FAF1E54D46FEF7EEFFFC
:101D8000CF060000303900000F270000973A00000E
:101D9000DB4A914242D8022B00D17DE60223129AFF
:101DA000D84813702AF0CAFD42AB1877030400022A
:101DB00042AA1B0E000E537790774999002206E73E
:101DC00003230793FFF7B0FA481CB97F0DF036F8EC
:101DD000229B079AC9B239551A60B7E764212000DF
:101DE0000DF02CF80A2104000DF028F80A210790C4
:101DF00020000DF023F8079B0091239A102150A892
:101E00000FF00CFD90E6FC6B002C00D072E670E643
:101E100014F088F9FEF74CFF0B9C6BE6032B00D106
:101E20003AE60323129AB84813702AF087FD42ABB2
:101E300018760304000242AA1B0E000E5376907619
:101E400048990022C3E6642406E63B9C012B00D19E
:101E50004EE166F031FE2999289B0A68FA211B7829
:101E6000821AC9008A4205D3012229995340289A2F
:101E7000086013700C9A12680792002B00D0199C0E
:101E8000210011986BF09CF800285FD04FE066F0BD
:101E900013FEFA21279A349C12682378821AC9000B
:101EA0008A4204D301225340279A237010600C9A6F
:101EB000199C12680792002BE2D13D9CE0E766F086
:101EC000FBFDFA21259A329C12682378821AC900F8
:101ED0008A4204D301225340259A237010600C9A41
:101EE000199C12680792002BCAD12D9CC8E766F096
:101EF000E3FDFA21269A339C12682378821AC900DE
:101F00008A4204D301225340269A237010600C9A0F
:101F1000199C12680792002BB2D13C9CB0E72D9C13
:101F2000210011986BF04CF8002800D1A4E62100A4
:101F3000119C0F22200069F0EFFD0023210007987B
:101F4000E37339F029F80C9B1B680793079B002B60
:101F500000D104E50121079814F030F9FFE43F9C1B
:101F6000DEE72C9CDCE71D9B409C002BD8D0419CDD
:101F7000D6E72C9B07930BE5389B079308E50623D0
:101F800006240493049A139B210042981A7061F06E
:101F90009DF8FFF7BAF9052305240493049A139BCF
:101FA000210042981A7061F091F8FFF7AEF9FF2016
:101FB00000042AF0C3FC42AB1875030400021B0E98
:101FC00042AA000E537590754799200000221BF01D
:101FD0001DFF159B1868002800D182E5012114F02F
:101FE000EDF87EE5494861F071F8494861F06EF816
:101FF000002066F099F9FFF778F823001021369A4F
:1020000050A80FF00BFC8FE5049B022B1AD14C3328
:10201000FB5C002B57D1079B2F9A013BDBB2D35CB3
:102020000793FFF781F9049B032B63D14B33FB5CD0
:10203000002B01D1FFF76EF90324FFF75FF9049B32
:10204000022B3AD0022302240493FFF757F903230B
:1020500003240793FFF774F9049B072B19D1473327
:10206000FB5C002B01D1FFF755F90724FFF746F978
:102070009C464C98642260440023001B00210DF014
:10208000CFFD0023049A0CF017FFFEF7E7FCFFF7E3
:10209000D2FA072307240493FFF730F94C32BB54DC
:1020A00066F00AFD509C3865FFF72BFA03001021FB
:1020B000249A50A80FF0B2FBCCE54C33FB5C002B0C
:1020C00001D1FFF727F90224FFF718F92E9911988B
:1020D0006AF076FF002800D1CEE52E9C27E73E9CD3
:1020E0001EE70121079814F01DF80623049336E437
:1020F0003A9CAEE6032303240493FFF7FFF8C0469F
:102100001F4E00000099FF000A820500383D0810AC
:10211000643D0810139B1B780493012B13D14D339E
:10212000FB5C002B0BD10B93FFF7F4F813F0FAFFD5
:10213000FFF7B7FA002300240493FFF7DFF800232A
:102140000B93FFF7DBF800230B9301330493FFF7A6
:10215000D5F8049B0D2B14D14133FB5C002B01D12E
:10216000FFF7D8F80D24FFF7C9F8049B0C2B0DD10D
:102170004233FB5C002B01D1FFF7CCF80C24FFF7B6
:10218000BDF80D230D240493FFF7B8F80C230C249D
:102190000493FFF7B3F8049B042B18D14A33FB5C7C
:1021A000002B01D1FFF7B6F80424FFF7A7F80F9B27
:1021B000002B01D0FFF778FB049B092B0FD145338F
:1021C000FB5C002B08D102330793FFF7ADF8042323
:1021D00004240493FFF792F80924FFF78FF80923EA
:1021E00009240493FFF78AF8049B0A2B14D1443383
:1021F000FB5C002B01D1FFF797F80A24FFF77EF86C
:10220000049B082B0DD14633FB5C002B01D1FFF75B
:1022100081F80824FFF772F80A230A240493FFF7D1
:102220006DF8082308240493FFF768F8049B0B2B30
:102230000CD14333FB5C002B01D1FFF76BF80B246F
:10224000FFF75CF800230493FFF7A2FB0B230B249A
:102250000493FFF753F8049B022B00D12DE70223D0
:1022600002240493FFF74AF810B50C4C84B023689D
:10227000002B04D00A4860F029FF04B010BD094BC0
:10228000C0220293084B0949019301230848009397
:10229000D200002365F014FF2060EEE7501E0120FD
:1022A000E841081018480020541E0120044208107C
:1022B000650B0110F0B5C64600B504000D00160010
:1022C00086B0002846D00822002104A80DF030FE78
:1022D000002D19D02900200050F014FB6378050070
:1022E0000700002B06D0032B10D0380006B080BCAE
:1022F000B846F0BD23789846033BDBB2112B2BD8B0
:102300008D4A9B00D3589F4604ADE3E7636822786B
:10231000DEB2132A00D187E0002800D18DE0042D21
:1023200000D19AE0032D21D0063D6B425D41063578
:1023300057F082FF0F23012204006B441D70FF2120
:10234000019200931032330057F036FF200058F00E
:1023500073FCCAE70327C8E7002D00D095E042468A
:102360003000764950F010FC0027BEE70325DFE778
:1023700000287AD13000724950F006FC0027B4E7FB
:10238000002800D093E030006E4950F0FDFB00279C
:10239000ABE7002800D09AE030006B4950F0F4FB26
:1023A0000027A2E7002868D13000684950F0ECFB14
:1023B00000279AE7002800D099E03000644950F0E7
:1023C000E3FB002791E7002879D13000614950F004
:1023D000DBFB002789E7002800D080E03000A268FE
:1023E0005D4950F0D1FB00277FE7002800D09BE03B
:1023F000A468002C00D08AE03000584950F0C4FB9B
:10240000002772E700287AD13000E368A2685449B7
:1024100050F0BAFB002768E7002840D1300051494E
:1024200050F0B2FB002760E7EC321A40002816D1CA
:1024300000234D494D4860F049FE57F0FDFE002352
:1024400004001022FF2101930093330057F0B4FEE3
:10245000200058F0F1FB002747E7092568E72B002B
:102460004349424860F032FE59E750F0A7F941492C
:102470000200300050F088FB37E750F09FF93E49EA
:102480000200300050F080FB2FE7280050F096F952
:10249000424603003949300050F076FB25E750F002
:1024A0008DF937490200300050F06EFB1DE750F007
:1024B00085F934490200300050F066FB15E750F012
:1024C0007DF931490200300050F05EFB0DE750F01D
:1024D00075F92E490200300050F056FB05E750F028
:1024E0006DF92B490200300050F04EFBFDE650F034
:1024F00065F928490200300050F046FBF5E650F03F
:102500005DF925490200300050F03EFBEDE6FA216E
:10251000200089000CF092FC230002001F493000CB
:1025200050F032FB0027E0E650F048F91C49020069
:10253000300050F029FBD8E6F04709100845081094
:102540002443081060430810A8430810BC44081036
:102550001844081098420810E04308101042081070
:102560005C440810D842081054450810584508101B
:102570009845081040430810E044081034450810FE
:102580000443081084430810B4420810C0430810E4
:10259000FC43081038440810944408103C420810CA
:1025A00070420810F0B507000C00150089B0002932
:1025B0005DDD1668002E5AD00021142202A80DF00D
:1025C000B7FC300092496AF0FBFC002821D1012CB5
:1025D00000D1D9E06E688F4930006AF0F1FC002824
:1025E0005CD10023022C0FD0A86868F017FA0028ED
:1025F00000D1F5E0FA239B00984200D902E14301A3
:102600001B1A9B001B18DB000422694604930A7204
:1026100021E0300080496AF0D3FC00282AD0300045
:102620007E496AF0CDFC002800D07BE0012C00D16F
:10263000DCE06C687A4920006AF0C2FC002800D116
:1026400087E0200077496AF0BBFC002800D0B3E0A7
:102650000A236A4613720822002168460DF068FCBE
:102660003A00694602A8FFF725FE032800D9012099
:1026700009B0F0BD012C00D1A5E06E6865493000BD
:102680006AF09EFC002813D1022C51D100260020B4
:1026900008236A46049613720590DCE7300062490D
:1026A0006AF08EFC002821D105236A461372D2E716
:1026B00030005D496AF084FC002835D0300058496C
:1026C0006AF07EFC002828D101F074FB002871D04C
:1026D000564A5749380050F057FA01F071FB5549F6
:1026E0000200380050F050FA0020C1E73000524993
:1026F0006AF066FC00286CD1022C7DD0A86868F0D6
:102700008DF900281FD003236A46137243011B1A58
:102710009B001B18DB0004939DE7320038004749FB
:1027200050F032FA0220A3E709236A46137292E7B7
:10273000A86868F073F906000020032CA8D0E868A8
:1027400068F06CF9A4E738003D4950F01DFA032009
:102750008EE702F047FA02F057FA3A4902003800D1
:1027600050F012FA02F044FA02F05AFA3649020026
:10277000380050F009FA02F041FA344902003800FA
:1027800050F002FA002073E73149380050F0FCF9AC
:102790003049380050F0F8F92F49380050F0F4F97A
:1027A0002E49380050F0F0F938002D4950F0ECF97E
:1027B00003205DE72B4A8CE7220038002A4950F0BD
:1027C000E3F9022054E73800284950F0DDF90320EE
:1027D0004EE732003800264950F0D6F9022047E78C
:1027E0003800244950F0D0F9032041E7380022494D
:1027F00050F0CAF903203BE73800204950F0C4F9F3
:10280000032035E738001E4950F0BEF903202FE7BA
:10281000A4450810F077081020470810C847081092
:10282000644708103C480810486908109C45081087
:102830006C47081084470810A4460810A0470810E9
:10284000D8460810F047081008480810204808101B
:10285000B045081094C00810D04508100446081070
:102860002C460810A04508104448081028470810B6
:10287000F84608105C460810D0470810AC4608100F
:102880007C46081070B504000E008AB0002811D0F4
:1028900004AD1422002128000DF04AFB03236E60D2
:1028A0006B70A278033AD2B23F2A03D8514B920000
:1028B0009B589F4600200AB070BDA388032B00D808
:1028C0007BE003232B70E379A2791B021343227A66
:1028D00012041A43637A1B061343AB6000220021E3
:1028E0002800FFF7E7FCA3780F2B03D04FF0A4FFDD
:1028F000013001D00120DEE74FF06CFF0120DAE764
:1029000014232B70EAE7A388072B56D9E279A37921
:1029100012021A43237AA17A1B041343627A3648BF
:1029200012061A43E37AAA601B020B43217B0904B7
:102930001943637B1B060B43132129703100EB60A5
:1029400060F0C4FBCAE70A232B70C7E705232B708E
:10295000C4E7A2880023032A09D9E379A2791B02DC
:102960001343227A12041A43637A1B061343042288
:10297000AB602A70B2E7A388032B1ED9E379A27952
:102980001B02A11D13432CD109332B70A6E7A3888A
:10299000032B12D90B2395E70C23002200212800DA
:1029A0002B70FFF787FC002114480AF00BFF002270
:1029B000002100200BF032FEFEE757F03DFC0F2314
:1029C000032204006B441A70023AFF210192009323
:1029D0001032330057F0F0FB200058F02DF90120A1
:1029E00069E70822AB602A70CB788A781B02134310
:1029F000EB6073E7384809106C480810204E00005F
:102A00000020704710B54AF051FA10BDF0B54E469F
:102A10004546DE465746E0B56F4B704E1B78327A1E
:102A2000040015008BB0002B00D177E06C4B04251F
:102A30001B6815439B46002398460820694B19786C
:102A4000694B4F421B7838405B0003436748077867
:102A500010207F42384003431D43B37AEDB2012B6F
:102A600001D11F331D43002A02D1002900D177E094
:102A7000FF239A46FC3B99465D4B1B78002B52D1B5
:102A80000027002C05D15B4A5B4B12781B789A42D9
:102A90006ED0202125204EF0CFFA041E37D0564BA1
:102AA000564900931B78C57183710B78032203721A
:102AB000484660725046A072200001910B30002100
:102AC0000DF036FA404620615846F3686061A36114
:102AD0002000A7834EF0AEFB009A464B1278019976
:102AE0001A70474B0A781D70464B1A704A46464B7F
:102AF0001A705246454B1A704246454B1A605A4668
:102B0000444B1A60444BF2681A60444B1F800BB070
:102B1000F0BCBB46B246A946A046F0BD404B1B6880
:102B200098469B4689E73F4802A962F07FFC00284F
:102B3000A6D13D4902980DF0AAF8002100900DF0B1
:102B4000D5F8002700289CD1009F3849381C0DF08B
:102B5000DBF800283ED1381C0DF002F987B290E76F
:102B6000334B1B78002B2FD100239A46994683E7DD
:102B7000234B1B78AB4200D08BE7224A1F4B1278C5
:102B80001B789A4200D084E71F4B1B784B4500D03E
:102B90007FE71E4B1B78534500D07AE71C4B1B6820
:102BA000434500D075E71B4B1B685B4500D070E7C1
:102BB000194BF2681B689A4200D06AE7174B1B88D2
:102BC000BB4200D065E7A2E7154B1B68002B00D085
:102BD0004EE7CAE71548BFE79AD60220083F002013
:102BE000681501209BD6022093D602209DD6022094
:102BF00097D602209C12002096D6022099D6022059
:102C00009B1200209A120020991200209812002096
:102C100094120020901200208C12002088120020B4
:102C2000D80901200C1401200000C84200E87D47AB
:102C300094D60220002210B5044B01201A70FFF731
:102C4000E5FE01F083FF002010BDC04699D60220AA
:102C5000014B187A7047C046083F0020044B1B7890
:102C6000002B02D1034B186870470020FCE7C046D8
:102C70009AD60220D8090120F8B5DE4657464E46BE
:102C800045460400E0B5002844D0254B254E1D786C
:102C9000254B377A1B789B46737A9A46234B1B78D1
:102CA000002B23D1224B00201B6898469946002F09
:102CB00024D1012D2CD0022D30D0002D2CD15B46FB
:102CC000A370534623774B46A361434663600023BA
:102CD00060610020174A25706770A360E26023617D
:102CE000F0BCBB46B246A946A046F8BD124B002038
:102CF0001B68994600239846002FDAD065F0DCFE69
:102D0000FA2133688900C01A0CF098F8012DD2D14D
:102D10000425D4E70120E3E70625D0E70525CEE723
:102D200096D60220083F002093D602209AD6022091
:102D3000D8090120E44108106815012010B5114C94
:102D400084B02368002B04D00F4860F0BFF904B0B2
:102D500010BD0E4B802202930D4B0E4901930123AF
:102D60000D480093D200002365F0AAF920600028E6
:102D700003D00A4860F0AAF9E9E70021084860F0AA
:102D8000A5F9E4E788EF0020B8480810983700203C
:102D90008CEF0020903808109D3F0110DC4808108F
:102DA0000C49081010B50B4B1C780B4B1B7A002BF1
:102DB0000AD1012C0CD0022C04D0002C00D0062407
:102DC000200010BD0524FBE765F076FE012CF2D152
:102DD0000424F5E796D60220083F0020F0B58BB01A
:102DE00002AC050020000E0001F09CFF6169FF2984
:102DF00004D00123D0228B401206936100222E4B77
:102E00002E489A7260F062F92D4B1B78002B45D149
:102E1000002700222B4B01201A702B4B1A70FFF752
:102E2000F5FD10211C204EF007F9041E16D00323D7
:102E30006A426A41C3805242033313400133037232
:102E40000123FC216B4043728905381C0CF008FFFC
:102E50000CF086FFE06020004EF0ECF9002D12D05F
:102E60004FF040FA002902DC03D1002801D04AF0DB
:102E7000F1FE381C0CF07AFF02000B001348310001
:102E800060F024F908E0381C0CF070FF02000B0021
:102E90000F48310060F01AF90BB0F0BD21000D4869
:102EA00062F0C4FA0028B3D10B4BE06819680CF04B
:102EB000D4FE071CADE7C046083F0020404908107B
:102EC00097D602209BD6022096D602206849081089
:102ED000A04908100C1401205C150120F0B5DE4655
:102EE00057464E464546E0B54D4F89B03B78804643
:102EF0009A464C4B68460C001970914601F012FF3F
:102F00000599EB46FF2904D00123D0228B401206FD
:102F100093610025444E4548B57260F0D7F8444BA4
:102F200035721D70434B1B78002B6AD100239B46E2
:102F300010211C204EF080F8051E11D00123837152
:102F40005346FC21C3714B464472037289055846AF
:102F50000CF086FE0CF004FFE86028004EF06AF9E1
:102F6000002C3DD1FC21344A8905136858460133B1
:102F700013600CF075FE0CF0F3FE304D2B68C0189A
:102F800028603B78002B25D058460CF0EFFE02005D
:102F90000B002B48414660F099F800250120B572DE
:102FA000FFF734FD274B3D701D60274B1D70274BED
:102FB0001D60274B1D70082C05D8264BA4001B59FB
:102FC0009F4601F099FD09B0F0BCBB46B246A94648
:102FD000A046F0BD4146F2681F4860F077F8DCE794
:102FE0001E4A136801331360CBE7032001F0E2FCB3
:102FF000E9E7022001F0DEFCE5E7012001F0DAFC60
:10300000E1E75946164862F011FA002800D08DE732
:10301000144B19685B46D8680CF01FFE834687E79F
:103020009AD6022099D60220083F00204049081075
:1030300096D6022097D60220F00901206C150120B7
:10304000D8490810681501209DD60220441501209A
:1030500098D6022038490910184A0810F4090120AE
:103060000C140120EC09012010B50B4C206800283D
:103070000AD00A4B1B7A002B07D165F055F90023C3
:103080000748236060F022F810BD064802220021A4
:10309000FFF724FF2068F0E788EF0020083F0020BA
:1030A000744A0810644A0810114B10B51B78002BA5
:1030B0000FD1104B1B7A002B05D10F4A1178002934
:1030C0000CD1002010BD062208210C48FFF706FF96
:1030D000F7E700200A49FFF781FEF2E71370094A7B
:1030E00009481360094A13705FF0F0FFE9E7C04632
:1030F0009BD60220083F00209DD60220E44A0810FB
:10310000944A081044150120A44A081098D60220B9
:10311000F0B5C6461E001C4B050098461B681700FC
:1031200000B5002B1DD0182127204DF085FF041E6F
:1031300017D001234661154E002133704346856048
:103140000761186864F08AFA20004EF073F843466D
:103150000F49186864F082FA012806D00D485FF024
:10316000B5FF012080BCB846F0BD3378002B07D1F5
:10317000290009485FF0AAFF30780A28F1D8F1E762
:1031800006485FF0A3FFF7E7202902209D120020E8
:1031900010270000644B0810F44A0810344B081044
:1031A000F8B5204B06001B78002B1FD01E4D2B6856
:1031B000002B19D00C2126204DF03EFF041E13D009
:1031C00001231A4F0021866028683B7064F046FA9C
:1031D00020004EF02FF82868154964F03FFA0128C6
:1031E00008D014485FF072FF0120F8BD12485FF06C
:1031F0006DFFF9E73B78002B0FD131000F485FF0EE
:1032000065FF06211E204DF017FF002801D04EF06B
:1032100011F838780A28E7D8E7E709485FF056FF41
:10322000F7E7C04694D60220202902209D120020F4
:10323000881300000C4C0810984B0810C04B081065
:10324000E84B0810F0B5D6464F464646C0B50400D8
:103250000D0086B0002800D081E05A4B1B78002B6F
:1032600000D178E0584B1F68002F00D173E0574B16
:1032700018709846564B1960564B18700120FFF78E
:10328000C5FB65F019FC01239A46534E5246337232
:1032900000239946F3603374504B30607060142102
:1032A0001B201A704DF0C8FE002808D053468371C9
:1032B0004B46C4710381C56007614DF0BBFF002C14
:1032C00000D02F0065F0F8FB1421814624204DF03A
:1032D000B3FE002816D00123837143461B78076193
:1032E000C37100230381C36098464DF0A3FF4A4693
:1032F0003B4B01201A6042463A4B1A603A4B1F6022
:10330000FFF784FB394B1B78002B41D165F0D4FBD0
:10331000374B1860684601F005FD0599FF2904D078
:103320000123D0228B401206536101233148B3722E
:103330005FF0CCFE0120FFF769FB002C3BD0002D95
:1033400022D029002C485FF0C1FE06B0E0BCBA468E
:10335000B146A846F0BD29485FF0B8FEF5E71B4B23
:1033600000269846012342461370194B012019602C
:10337000184B00271E70FFF749FB214B1E70214B95
:103380001E60214B1E707CE720485FF09FFEDCE74B
:103390001F4F380062F06EF800221E4B1A601E4B61
:1033A0001A60B2221D4B9200995A0029AED0380003
:1033B00062F0AEF8AAE7044B194819685FF086FE80
:1033C000C3E7C04693D60220D80901209AD602202E
:1033D0006815012099D60220083F002096D60220C9
:1033E000B41D0120841200208012002097D60220F4
:1033F0003C150120684C08108C4C0810384C081003
:103400009DD602204415012098D60220DC4C0810DD
:103410000C140120EC09012040150120A0410020DE
:10342000284D0810094B10B51B78002B0BD0084B0A
:1034300004201B68002B00D110BD00200021FFF7E5
:1034400001FF0020F8E70420F6E7C04694D60220EA
:10345000D809012010B50C4B01001B7A002B08D1B4
:103460000A4B1B78002B09D10120FFF7EBFE00204F
:1034700010BD07485FF02AFE0120F9E705485FF01C
:1034800025FE0520F4E7C046083F00209DD6022017
:103490006C4D0810AC4D0810F0B54546DE46574659
:1034A0004E46E0B5594B050098461B780C008FB08E
:1034B000002B00D08FE0564B9A461E78554B99460C
:1034C0001B7A002B63D1002E61D1534B1B78002B4C
:1034D00000D096E0514B1B78002B00D073E0504B8E
:1034E0001B78002B00D180E000285DD0002900D09F
:1034F00075E0AB224B4B92009C58002C6FD11E24E0
:10350000494F4A4B4A489B4600235A4606A9136036
:1035100061F08CFF00285AD05B461B68454A136057
:10352000454B1D60454B1F6065F0C6FA444B424653
:103530001860444B0327186001231370534614216D
:103540001B201F704DF078FD002806D00023C78097
:103550000381C56003614DF06DFE684601F0E2FB3A
:103560000599FF2904D00123D0228B401206536114
:103570004A460123344893725FF0A8FD0120FFF70B
:1035800045FA2200290031485FF0A0FD04E0310037
:103590002F485FF09BFD012630000FB0F0BCBB460A
:1035A000B246A946A046F0BDAA221E4B92009D58E5
:1035B00000291ED04F017F1ABF007F18FF00002D89
:1035C0009FD164359DE723485FF080FDE3E75A46CD
:1035D000099B1360A2E720485FF078FDDBE76701F5
:1035E0003F1BBF003F19FF008BE71C485FF06EFDDB
:1035F000D1E7AB2292009C58002D00D07DE76435C6
:103600007BE717485FF062FDC5E7C0469BD6022006
:1036100096D60220083F00209DD6022093D6022095
:1036200097D60220A0410020307500005C150120D3
:103630000C1401204C1501206015012054150120A7
:103640005815012050150120684C0810204F081013
:103650001C4E0810A84E0810EC4D0810DC4E081047
:10366000644E081030B5294C89B02378002B02D164
:10367000002009B030BD684601F054FB05996D4645
:10368000FF2904D00123D0228B401206936100222F
:103690001F4B20489A725FF019FD1F4B1B78002BBF
:1036A00027D1002500231D4A012023701370FFF746
:1036B000ADF910211C204DF0BFFC041E0FD00323D8
:1036C000C3800823FC21FF3303818905281C0CF0EB
:1036D000C7FA0CF045FBE06020004DF0ABFD281C64
:1036E0000CF044FB02000B000D480E495FF0EEFCAD
:1036F000BEE729000C4861F099FE0028D1D10B4BA0
:10370000E86819680CF0A9FA051CCBE79BD60220E3
:10371000083F00204049081097D6022096D6022084
:10372000A0490810644F08100C1401205C150120FA
:10373000014B18787047C04699D60220002210B578
:10374000024B01201A70FFF761F910BD99D60220D3
:1037500070B55A4E88B00021142230000CF0E8FBFE
:103760000022574B02AC20001A7001F0DBFA6169AD
:10377000FF2904D00123D0228B401206936100253B
:103780005048B5725FF0A2FC01F0F8F800950421F2
:103790000A204D4B4D4A63F001FC4D4D2860002836
:1037A00012D00B214DF014FD0C2128684DF010FDB6
:1037B0000D2128684DF00CFD0F2128684DF008FD03
:1037C000102128684DF004FD03220021414B009296
:1037D0000120002263F0E2FB3F4B1860200001F063
:1037E000A1FA25693D4CE9B2200061F09BFF011E62
:1037F0001CD1200061F0BCFD011E35D10122384BE7
:10380000290038481A705FF061FCB223364D9B00E6
:10381000EE5A002E0ED03100200061F079FE002813
:1038200047D1310031485FF051FC03E030485FF090
:103830004DFC2D4D2F4849F00FFB011E10D12E4895
:103840005FF044FC2D485FF041FC0120FFF7DEF8FB
:10385000AC239B00EB5C002B0BD1002008B070BDAB
:1038600027485FF033FCEDE726485FF02FFC1E4D44
:10387000E0E74EF037FD0200002915DDAE239B0086
:10388000E958002909D0043BEB58541A1801C01A12
:1038900003011B1A1B019C42DFD901201A4B18702F
:1038A0001A485FF013FCD8E70029D6D10028E5D1EB
:1038B000D3E7310016485FF009FCBBE7083F002062
:1038C00096D602204049081014BD012068BD012091
:1038D00010BD012024290220202902200C140120DF
:1038E00097D60220704F0810A0410020A84F081062
:1038F00050500810744909108050081000510810E9
:10390000C0500810205008109CD6022030510810DA
:10391000E04F081010B5FFF71BFF002010BDC04698
:10392000114B10B51B78002B0FD1104B1B7A002BBD
:1039300005D10F4A117800290CD1002010BD0622B4
:1039400008210C48FFF7CAFAF7E700200A49FFF7F9
:1039500045FAF2E71370094A09481360094A1370DF
:103960005FF0B4FBE9E7C0469BD60220083F002089
:103970009DD60220E44A0810944A081044150120FC
:10398000A44A081098D6022010B50C4B01001B7AEF
:10399000002B08D10A4B1B78002B09D10120FFF71F
:1039A00051FC002010BD07485FF090FB0120F9E7B3
:1039B00005485FF08BFB0520F4E7C046083F002078
:1039C0009DD602206C4D0810AC4D081010B50C4B64
:1039D0001B7A002B0ED10B4A1178002901D100204F
:1039E00010BD1370084A09481360094A13705FF04C
:1039F0006DFBF4E7022200210648FFF76FFAEEE7BD
:103A0000083F00209DD60220441501207451081063
:103A100098D60220B4510810014BD8687047C046B0
:103A2000083F002010B5114C84B02368002B04D04F
:103A30000F485FF04BFB04B010BD0E4B8022029389
:103A40000D4B0E49019301230D480093D200002332
:103A500064F036FB2060002803D00A485FF036FB94
:103A6000E9E7002108485FF031FBE4E788EF002038
:103A7000B8480810983700208CEF002090380810C4
:103A80009D3F0110DC4808100C490810014B1868D4
:103A90007047C04688EF0020044B1B78002B02D1F2
:103AA000034B186870470020FCE7C0469AD60220F6
:103AB000D8090120014B187A7047C046083F002002
:103AC000002809D0002907D00C4B1B7A002B04D00A
:103AD00003230370FC330B707047094B1B78002BDA
:103AE000F6D1084B1B78002B03D0074B1B68002B2B
:103AF000EED1002303700B70EEE7C046083F0020B4
:103B00009BD6022094D60220D8090120F0B5CE46DB
:103B1000474680B59B4B07001B780E00914600245A
:103B200089B0002B00D0ECE0974998480B785A00F8
:103B300084520722013313400B70954B1D78072DDB
:103B400000D87AE00388211C984643889C46444567
:103B500000D9C5E08BB2634500D9BAE089B2231C15
:103B6000444500D2AFE09AB2624500D2A9E0828813
:103B70009BB290468A4200D981E04146904689B284
:103B80009A4200D282E043469BB2032D46D0C288BF
:103B90008846914200D97DE04146984689B29342D9
:103BA00000D275E043469BB2042D37D00289884687
:103BB000914200D97DE04146984689B2934200D2B5
:103BC00070E043469BB2052D28D042898846914239
:103BD00000D990464146984689B2934200D2904619
:103BE00043469BB2062D19D082898846914200D95E
:103BF000A6E04146984689B2934200D29EE04346F1
:103C00009BB2072D0AD0C289101C8A4200D9A2E0BB
:103C100081B2101C9A4200D29AE083B2002F00D0E9
:103C20003C80002E00D031804A46002A00D013800C
:103C300009B0C0BCB946B046F0BD01350288EDB24E
:103C40001D70211C944256D889B2231C94424DD336
:103C50009BB2012DE2D0428890468A4200D981E091
:103C60004146904689B29A4200D282E043469BB2D6
:103C7000022DD3D0828890468A4200D87DE78846BC
:103C80004146904689B29A4200D37CE798467AE74B
:103C9000904687E790464146984689B2934200D3C2
:103CA00080E7F5E7904643469BB2052D00D08CE7B0
:103CB000B4E790464146984689B2934200D380E7E4
:103CC000F0E7634653E743469AB2624500D34EE7B6
:103CD000F7E76146231C89B2444500D343E7F2E786
:103CE00041468BB2634500D838E7F2E7131C9BB21C
:103CF000012DB0D192E7111C89B2231C9442A7D2A6
:103D0000F4E76946234861F091FB002800D00BE7F7
:103D1000214900980BF0BBFF0021051C0BF0E6FFCA
:103D2000002800D000E71D49281C0BF0EDFF0028FB
:103D300026D1281C0CF014F884B2F5E690465EE714
:103D400090464146984689B2934200D357E7F5E73B
:103D5000181C83B262E7081C81B2101C9A4200D37F
:103D60005BE7F5E788464146904689B29A4200D320
:103D70007CE7984643469BB2022D00D07AE74DE798
:103D80000648D7E797D60220ABD60220D05A0020AB
:103D9000AAD602200C1401200000C84200E87D478A
:103DA000034B987A013843425841C0B27047C0462D
:103DB000083F0020014B18787047C0469BD6022070
:103DC000AE22024B920098587047C046A041002096
:103DD000F0B54546DE4657464E46E0B5594B050020
:103DE00098461B780C008FB0002B00D08FE0564B0C
:103DF0009A461E78554B99461B7A002B63D1002EAC
:103E000061D1534B1B78002B00D097E0514B1B78AE
:103E1000002B00D073E0504B1B78002B00D180E0CA
:103E200000285DD0002900D075E0AB224B4B9200FA
:103E30009C58002C6FD11E24494F4A4B4A489B4640
:103E400000235A4606A9136061F0F0FA00285AD000
:103E50005B461B68454A1360454B1D60454B1F6020
:103E600064F02AFE444B42461860444B0327186016
:103E700001231370534614211B201F704DF0DCF8F2
:103E8000002806D00023C7800381C56003614DF080
:103E9000D1F9684600F046FF0599FF2904D00123B7
:103EA000D0228B40120653614A4601233448937254
:103EB0005FF00CF90120FEF7A9FD2200290031482E
:103EC0005FF004F904E031002F485FF0FFF80526A9
:103ED00030000FB0F0BCBB46B246A946A046F0BDCC
:103EE000AA221E4B92009D5800291FD04F017F1A15
:103EF000BF007F18FF00002D9FD164359DE7234848
:103F00005FF0E4F8E3E75A46099B1360A2E7204814
:103F10005FF0DCF8DBE767013F1BBF003F19FF00E4
:103F20008BE71C485FF0D2F80126D1E7AB22920064
:103F30009C58002D00D07CE764357AE716485FF086
:103F4000C5F8C4E79BD6022096D60220083F002081
:103F50009DD6022093D6022097D60220A0410020B1
:103F6000307500005C1501200C1401204C15012057
:103F7000601501205415012058150120501501200D
:103F8000684C0810204F08101C4E0810A84E08104E
:103F9000EC4D0810DC4E0810644E0810F0B5DE46FB
:103FA00057464E464546E0B5DA48C7B05FF08EF852
:103FB000D94BDA4C9946DA4BFA260593D94B3EAFEA
:103FC0000693D94BB6009846D84B0493D84B0B9325
:103FD000D84B2193D84B0C93D84B0D93D84B0E93C1
:103FE000D84B0F93D84B9B46D84B9A46D84B554647
:103FF0000293D84BDA460A93D74B0993D74B2B93AE
:10400000D74BD84A9B461592D74A1492D74A2C923E
:10401000D74A2392D74A1A92D74A2492D74A229251
:10402000D74A2892D74A3092D74A3192D74A329209
:10403000D74A3392D74A3A92D74A0892D74A3B9204
:10404000D74A3C92D74A3D92D74A2D92D74A2E92D0
:10405000D74A2792D74A1C92D74A1D92D74A1E9216
:10406000D74A2F92D74A3692D74A3792D74A3892B0
:10407000D74A3992D74A1692D74A0792D74A179207
:10408000D74A1092D74A1192D74A2592D74A2092FE
:10409000D74A1B92D74A2692D74A3492D74A2992B6
:1040A000D74A3592D74A0192D74A13924246039291
:1040B00064F002FD4B461B68C31AB34244D20C2085
:1040C000012148F01FFA2068002849D153461B7887
:1040D000002B5AD1049B29781B789846029B1B78A9
:1040E000434500D1DCE14346002B00D14DE20A9864
:1040F0005EF0ECFF4246029B29781A70022949D0F3
:10410000022900D9D3E1002900D10CE264F0D4FCEB
:104110005B465B688046C31A312B42D82978019BE5
:104120001B78002B02D0002900D1ECE102231420DF
:104130009943012933D164F087FC64F0BDFC4B4600
:104140001B68C31AB342BAD34B461860059848F0AF
:10415000BBFE0C20012148F0D5F920680028B5D01D
:104160000023A0463E9305E03E9C002C00D0C6E014
:10417000434618680022390063F0E2F90128F3D0C1
:1041800053461B784446002BA4D000232978984638
:104190000229B5D1039B1B78002B00D1A7E1642035
:1041A000C9E7159B1B78002B00D1A3E053461B7871
:1041B00039001498129361F039F9002800D035E2E3
:1041C000FB682C9A181C116819930BF046FD239A72
:1041D0001890116819980BF097FD002800D06DE237
:1041E00064F06AFC1A9B1968884B411A994200D9FD
:1041F00027E253461B78002B66D0FC2118988905CE
:104200000BF02EFD0BF0ACFD5B460021D860279B28
:104210001F901B681991984201D21B1A199364F0E0
:104220004BFC1C9B1D9A1B6812681F992A90C31A8D
:10423000914200D1E2E2F92B1ED9142124204CF046
:10424000FBFE002818D00123837153461B78199A6E
:10425000C371002303811F9B0261C3604CF0EAFF1E
:104260001C992A981F9B08601D99199A0B601E9B28
:1042700000201A60FEF7CAFB279B1868002839D077
:104280000BF047FD011C18980BF036FD5B4600282B
:1042900031D01B7A002B00D19BE2012200212F9804
:1042A000FEF71CFE089B1B785A4641465160129A45
:1042B000002A00D09BE2039A1278002A00D196E2ED
:1042C000022364202B7036E7039B1B78002B00D160
:1042D0009BE2FC21189889050BF0C2FC0BF040FD15
:1042E0005A46D268904200D902E20C9B1B68002B10
:1042F00000D16AE25B46424629785A600FE723788C
:104300000B3BDBB2052B00D98FE0069A9B00D358FC
:104310009F46C046C05108100CEA002010BD012085
:10432000903808105C49091093D6022094D60220D8
:1043300095D60220DC090120D809012092D602205E
:104340009D120020202902209AD6022096D6022013
:10435000A0D60220EC510810205208105452081028
:10436000083F002097D602200C140120EC09012000
:10437000401501203C1501209DD6022098D6022030
:1043800044150120A4520810EC52081028530810BC
:10439000385308106C53081099D60220A8530810FF
:1043A000DC530810145408104454081074540810B6
:1043B00068150120B41D0120841200208012002005
:1043C0009C540810B4540810C45408100055081028
:1043D000185508102C5508109BD60220605508105F
:1043E0005815012054150120705508105C15012046
:1043F0004C15012050150120805508106015012032
:10440000885508109CD6022098550810B70B00005C
:1044100001230E9A13700F9B1868002805D0002303
:104420000022002162F068FE3E9C20004CF07AFEE3
:104430009EE600220E9B1A700F9B18680028F4D08D
:104440000023002162F058FE3E9CEEE7A379002B8A
:1044500000D0D9E0039A1370049A13700C9A136079
:104460000D9A13700B9A1370DFE70123039A1370F0
:10447000049A1370627B0B9B1A70072AD5D8219877
:10448000A11D0BF05BFDD0E70023039A1370049A83
:1044900013700C9A13600D9A13700B9A1370C4E783
:1044A000012900D132E642D9022900D172E603295E
:1044B00000D03BE6079B1B78002B6AD0039B1B7840
:1044C000002B69D164F0F8FA109B119A1B681268EE
:1044D0008046C31A934265D3079B1B78002B00D1FB
:1044E0001CE625990020FEF779FC297817E6169836
:1044F0005EF0ECFD00232B70089A1370019B1B7873
:10450000002B00D14BE6039B1B78002B00D046E626
:10451000019A139813705EF0D9FD00210020FFF777
:1045200057FC297802E653461B78002BE6D1434618
:10453000002BE3D00D9B1B78002BDFD14FF07EFCCE
:104540008046002800D1AEE0037E002B00D1AAE017
:104550000378042B0DD10B9AC37B12789A4200D0BA
:10456000DCE501002198083167F016F9002800D039
:10457000D4E540464FF042FE2B985EF0A7FD0223A3
:104580002B7064F099FA2978C9E509985EF09EFDD0
:10459000B0E500212B70C2E517990020FEF71EFC44
:1045A0002978BCE53900149860F040FF002800D05D
:1045B000B4E5FB68209A181C116812930BF04DFBB0
:1045C0001B9B1890196812980BF09EFB002858D07E
:1045D0001B9B129A1A604246269B1A60299B1868F8
:1045E0000BF097FB011C18980BF086FB002800D1FC
:1045F00094E5079B1B78002B00D18FE535990120AE
:10460000FEF7ECFB29788AE50123039A1370E3791E
:10461000013B5A425341049A1370E3680C9A1360A9
:10462000637A0D9A9B07DB0F1370FEE60023189345
:1046300064F042FA1A9B1968864B411A994200D8D5
:10464000D7E531985EF042FD5B461B7A002B00D027
:10465000ACE053461B78002B00D0ADE0039B1B78E9
:10466000002B00D1B8E00C9B1B68002B00D0E8E0C9
:1046700033985EF02BFD3A985EF028FD089B1B787E
:1046800012E64246269B1B68D31A724A9342A5D96A
:10469000079B1B78002B00D140E534990020FEF7E2
:1046A0009DFB29783BE50C9B1B68002B00D135E571
:1046B00000210800FEF7C6FD297830E5239B199AF2
:1046C0001A6064F0F9F91A9B1860249B1B78002B80
:1046D00000D185E5229B1B78002B00D080E5229A33
:1046E00001331370289B309819685EF0EFFC77E572
:1046F0000C99831A09688B4200D90B00002B00D15A
:10470000F3E5C91AD3185A460C98D3601991016081
:10471000189364F0D1F91C9A189913681D9A1F9088
:104720001268C31A914200D183E0F92B1ED91421DB
:1047300024204CF081FC002818D0012383715346BB
:104740001B78199AC37100230381189B0261C3600F
:104750004CF070FD1C991F98189B08601D99199AC0
:104760000B601E9B00201A60FEF750F9249B1B78FB
:10477000002B00D1B9E5229B1B78002B00D1B4E5BA
:104780005B46D968289B1A68914200D2ADE53798FC
:104790005EF09CFC5B461B7A002B1AD001220021A4
:1047A0003898FEF79BFB089B1B787DE503220221CE
:1047B0003298FEF793FB4CE72D985EF087FC2E981D
:1047C0005EF084FC089B1B786EE55B461B7A002B31
:1047D00027D1089B1B7867E53D985EF077FC089B26
:1047E0001B7861E55A464146089B51601B780022C0
:1047F0002A700432934300D080E67DE61E9A199910
:104800001268914200D016E536E55B461B7A002B14
:10481000E8D0042236981100FEF760FB089B1B7855
:1048200042E5052203213998FEF758FB089B1B78C7
:104830003AE5F92B9AD91E9B199A1B689A4295D092
:1048400075E73B985EF042FC3C985EF03FFC089BAD
:104850001B7829E5B70B000030B5294C89B02378C7
:10486000002B01D109B030BD684600F05BFA059914
:104870006D46FF2904D00123D0228B40120693619C
:104880000022204B20489A725EF020FC1F4B1B78C0
:10489000002B27D1002500231D4A0120237013700F
:1048A000FEF7B4F810211C204CF0C6FB041E0FD0FC
:1048B0000323C3800823FC21FF3303818905281CBF
:1048C0000BF0CEF90BF04CFAE06020004CF0B2FC9B
:1048D000281C0BF04BFA02000B000E480E495EF04C
:1048E000F5FBBFE729000D4860F0A0FD0028D1D1FD
:1048F0000B4BE86819680BF0B0F9051CCBE7C04614
:104900009BD60220083F00204049081097D602207D
:1049100096D60220A0490810644F08100C140120FC
:104920005C150120014B18787047C04693D60220D1
:1049300070B50C00002806D0002904D00C4B1D785F
:10494000002D03D10D700025280070BD094B1B7888
:104950001E1C072B05D80849F2B20BF0EFFA26709F
:10496000F2E707260449F2B20BF0E8FA2670EBE70B
:1049700093D6022095D60220DC0901200023074AA5
:1049800010B51370064A07481370074A1360074AA8
:104990001370074A13705EF099FB10BDBDD602205C
:1049A000B5D60220DC55081060C00120B6D6022022
:1049B000A7D6022000213B4B10B51A6801321A60BD
:1049C000394B1970394B1870394B1978022916D0A8
:1049D00038490C780134E4B20C70022C07D902215A
:1049E0001970072811D8344B80001B589F460122AC
:1049F0001A7007280DD8314B80001B589F46072896
:104A00004AD82F4B80001B589F46FF282FD12D4995
:104A100004E0FF2829D12B4905E02B492B485EF003
:104A200055FB10BD28490323220029485EF04EFBA8
:104A3000F7E72849F2E72849F5E72849F3E7254948
:104A4000F1E72749EFE72749EDE72749EBE7224957
:104A5000E4E72249E2E72249E0E72249DEE722498A
:104A6000DCE72249DFE72149D8E72149DBE7204994
:104A7000D4E715491F485EF029FBD2E71649F9E74C
:104A80001449F7E71849F5E71649F3E71449F1E740
:104A90001249EFE71549EDE7FF2801D10949E9E798
:104AA0001349E7E760C00120A7D60220B5D602204F
:104AB000BDD60220B6D60220C4490910E449091027
:104AC000044A09104C560810545608108C56081009
:104AD000C45608103C560810045608100C5608100E
:104AE000185608102856081030560810F8550810A7
:104AF000005608105C56081010B50F4A1378012BA9
:104B000008D0002B05D10D4A1378002B01D0013BB2
:104B1000137010BD0A4B19780131C9B219700229FE
:104B2000F7D900231370074A07481370034A13701C
:104B30005EF0CCFAEDE7C046BDD60220B6D6022024
:104B4000A7D60220B5D60220EC56081070B5154C39
:104B5000154D23782978072B1DD8144A9B00D3586C
:104B60009F46134A13485EF0B1FA0023124A2B7095
:104B70001370124A2370137070BD114AF2E7114A84
:104B8000F0E7114AEEE7114AECE7114AEAE7114A69
:104B9000E8E7114AE6E7FF2B01D1104AE2E7104AA5
:104BA000E0E7C046B5D60220BDD60220244A09104F
:104BB000545608101C570810B6D60220A7D602205B
:104BC000045608100C5608101856081028560810DD
:104BD000305608103C560810F85508104C5608106E
:104BE00000560810014B18787047C046BDD6022009
:104BF000014B18787047C046B5D60220014B1868A3
:104C00007047C04660C00120022803D8024B8000D4
:104C1000C05870470148FCE7644A09100056081064
:104C2000072813D80C4B80001B589F460B48704731
:104C30000B48FCE70B48FAE70B48F8E70B48F6E7A8
:104C40000B48F4E70B48F2E70B48F0E7FF2801D1E7
:104C50000A48ECE70A48EAE7444A091054560810A3
:104C6000045608100C56081018560810285608103C
:104C7000305608103C560810F85508104C560810CD
:104C80000056081070B51A4E84B030005EF01EFA5F
:104C9000184D28005EF01AFA174918485EF016FA07
:104CA00028005EF013FA0123154C0293243301937C
:104CB000233B144A00932021013B20000CF0AEFD61
:104CC000210011485EF002FA104911485EF0FEF929
:104CD000104911485EF0FAF9104911485EF0F6F9F2
:104CE00028005EF0F3F930005EF0F0F904B070BD1A
:104CF000D00E0910703908109057081098570810F6
:104D000084D102206C570810BC570810785708103F
:104D1000D457081084570810EC570810045808108E
:104D20000C580810F8B5040048F02AF8002813D0F1
:104D30004B23C75C013BC65C093BC55C0C33C15CC3
:104D40000133C25C0133C35C200027606660A5604C
:104D5000E16022616361F8BD00230022002100258B
:104D600000260027F0E7C04610B50F23014A0CF0DB
:104D700055FD10BD2458081010B5024848F022FF18
:104D800010BDC046A041002010B549F015F810BD77
:104D9000002801D04823036000487047AC4A09103E
:104DA00010B5054848F0E4F8041E01D1200010BDFC
:104DB00002485EF08BF9F9E7704A0910385808107C
:104DC000004870475850091070B50824002582B07B
:104DD00055485EF07BF9002100200FF0F5FB102311
:104DE0001322122151484BF06DFB1522142150481B
:104DF0004BF094FC1B221A214D484BF0D5FC0E20A1
:104E00004BF074FF00210E204BF098FF0A2008F0B1
:104E10000DFD01210E204BF091FF0A2008F006FD48
:104E200044485EF053F9444EFA21E0B289004BF059
:104E3000A5FD002804DB210030005EF047F90135B4
:104E40000134782CF0D1002D52D13C485EF03EF96F
:104E5000FA21242089004BF0F7FE002853DBFA21C9
:104E6000272089004BF08AFD002857DB0923E12128
:104E7000002200934902083B00204BF049F906202C
:104E80004BF034FF0022012116204BF039FF0F2098
:104E90004BF02CFF00210F204BF050FF0E204BF069
:104EA00025FF01210E204BF049FF02204BF01EFF91
:104EB00003204BF01BFF11204BF018FF01211120A4
:104EC0004BF03CFFFA21072089004BF041FF002105
:104ED00007204BF07DFF0D204BF008FF01210D2036
:104EE0004BF02CFF16485EF0F1F8002002B070BDC8
:104EF000290014485EF0EAF8FA21242089004BF0DA
:104F0000A3FE0028ABDA24210F485EF0DFF8FA2177
:104F1000272089004BF032FD0028A7DA27210B4813
:104F20005EF0D4F8A2E7C04678650810A0ACB903DB
:104F3000801A0600AC650810D065081000660810DD
:104F4000D06608102C660810606608109466081079
:104F500010B508485EF0BAF8074847F003FF041E92
:104F600004D106485EF0B2F8200010BD04485EF09F
:104F7000ADF8F9E7006708104C50091040670810B9
:104F80007867081010B50A2810D00C2808D0092816
:104F900005D1002917D10D490D485EF097F810BDD5
:104FA00000290CD10B485EF091F8F8E7002904D1F4
:104FB000064909485EF08AF8F1E70849F9E7084828
:104FC0005EF084F8EBE70549E6E7C046B8670810ED
:104FD00004680810BC67081028680810B06708103B
:104FE000E067081010B509485EF070F808485FF0F7
:104FF00047F9041E06D05FF0D5F906485EF066F862
:10500000200010BD04485EF061F8F9E74C68081014
:10501000B0500910C06808108868081010B5FEF775
:105020008DFBFFF793FD002010BDC04610B5FFF7C4
:1050300013FC002010BDC046C16810B58068FEF7A3
:10504000C7FE03000120052B01D8014AD05C10BD2A
:105050000851091010B5FEF7B9FC03000120052B1B
:1050600001D8014AD05C10BD0851091010B5806804
:10507000FEF78AFC03000120052B01D8014AD05C11
:1050800010BDC0460851091010B5816800204EF0CF
:1050900079FE10BD00487047105109100620704776
:1050A00010B565F06DFCC0B25FF0BCFF10BDC0462E
:1050B00010B50B78040082B0FF2B01D002B010BDF8
:1050C0000A485EF003F8FA21094B01220193094BCB
:1050D000890000930848002365F06CFB074B0849E2
:1050E000186020004CF064F9E8E7C046A469081095
:1050F0003CAA0120A1500110C469081038AA01205F
:105100006D51011070B5184C060020680D0082B07A
:10511000002808D065F028FC00281CD12068002851
:1051200001D0002D01D102B070BD3100002665F024
:1051300031FC2A00002304212068009665F096FBCC
:10514000246863F0B9FC00230200012120000096CE
:1051500065F08CFBE7E70023206800220321009321
:1051600065F084FBDAE7C04638AA012070B50C0070
:1051700082B0050048F016FD237806001E2B09D8E2
:105180000A2B28D90B3BDBB2132B24D84B4A9B00AC
:10519000D3589F46FD2B1ED149485DF097FF0B2148
:1051A00028004CF04BF90C2128004CF047F90F2156
:1051B00028004CF043F9102128004CF03FF91B2146
:1051C00028004CF03BF91C2128004CF037F91E2137
:1051D00028004CF033F902B070BD3A485DF076FF1C
:1051E00002205FF01FFFF6E737485DF06FFF0420F5
:1051F0005FF018FFB8239B009C4666440420318969
:10520000FFF780FFE7E731485DF060FF304C206832
:105210000028E0D065F0A8FB0028DCD0002320683F
:1052200000220321009365F021FBD4E729485DF0BB
:105230004DFF05205FF0F6FEB8239B009C466644B8
:105240000520318AFFF75EFFC5E723485DF03EFF8A
:1052500003205FF0E7FE03202049FFF753FFBAE782
:105260001F485DF033FF1A4C2068002803D065F01A
:105270007BFB00281AD106205FF0D4FEABE719486B
:105280005DF024FF124C2068002803D065F06CFB11
:10529000002803D107205FF0C5FE9CE700232068AB
:1052A00000220321009365F0E1FAF3E70023206870
:1052B00000220321009365F0D9FADCE78851091038
:1052C000D46908100C6B0810F4690810986A08106B
:1052D00038AA01201C6A0810606A0810B80B000088
:1052E000BC6A0810E46A081010B50D4C82B023683F
:1052F000002B01D002B010BD0022200009494CF063
:1053000007F800210D2047F039F901200190FF3006
:105310000090054B2000054A05494CF021F8E9E7CB
:10532000E83C0120346B0810903D0120204A002009
:10533000B1500110014B18687047C046E83C01208D
:10534000002805D0002903D0036900200B607047B6
:105350000120FCE70020704710B506210C204BF01F
:105360006BFE002801D04BF065FF002010BDC04649
:1053700030B5040085B0002835D026485DF0A6FE83
:105380000E210B204BF058FE051E09D0684653F045
:10539000DFF90023002828D128006B734BF04AFF67
:1053A0002369002B2FD0F0221B4B9D58002D02D1DA
:1053B000002005B030BD4CF095FF0023174A09F0DE
:1053C00063FDE46B80B2230C9842F1D12404230CDA
:1053D000A10BC91849008D42EAD82A0010485DF097
:1053E00075FE0320E5E70120E3E76B469B7AA81DE5
:1053F0001A1C072B00D907226946D2B20AF09EFD7B
:105400006B469B7AC8E7002106485DF05FFE0320EB
:10541000CFE7C046446B0810A04100208051010036
:10542000A06B0810706B081070B50C0016001D0002
:1054300082B000280BD007485DF048FE0023320000
:10544000009320002B0054F057F802B070BD0120EB
:10545000FBE7C046D06B0810F8B504000D0000282B
:1054600043D002698A4242D3561AF022234B9B58FA
:10547000002B01D0002914D120002661266252F0B1
:1054800061FD041E08D052F0A1F81D4B0100180068
:105490005DF01CFE2000F8BD31001A485DF016FEDC
:1054A000F8E74CF01FFF0023174A09F0EDFCE36B0F
:1054B00087B21A0CBA4205D11B041A0C9B0B9B181D
:1054C0005B00ED18A0231B039D4215D20A21280082
:1054D00009F0B4FC3F040743E7632000266126621D
:1054E00052F030FD041ECED1D6E70124D2E70748A2
:1054F0005DF0ECFD0324CDE70548EBE7A04100207B
:10550000646C08103C6C081080510100046C081099
:10551000FFFF000000207047F0B5DE464E464546CE
:105520005746E0B5C84897B05DF0D0FDC74B0025A1
:105530000393C74BC74C9B46C74B12AE9A46C74B0B
:105540000493C74B0993C74B0893C74B9946C74B66
:105550000293C74B0693C74B0A93C74B9846C74B5A
:105560000793C74B0D93C74B0F93C74B0B93C74B79
:105570000C9323781195002B56D0092330003370FB
:1055800051F0A8FA0700012815D0039B32781B7848
:1055900025700593022800D133E1022A00D17DE174
:1055A00004990B78FF2B02D00133DBB20B7039006A
:1055B00006985DF08BFD2378002B35D014224346EE
:1055C00011A9186861F0BCFF0128D2D1119F002FEA
:1055D000CFD02378002B1ED009233000337051F038
:1055E00079FA0700012815D0039B32781B782570C3
:1055F0000593022800D16AE1022A00D190E10499C2
:105600000B78FF2B02D00133DBB20B703900069808
:105610005DF05CFD119F3B781B3BDBB20C2B4CD843
:10562000079A9B00D3589F464B461B68002B00D11E
:10563000DFE063F041FA5346FA221B689200C31A76
:10564000934200D3FCE05B461B68C01AF92800D8DF
:10565000CBE0012000272378002BAFD18C4951F0FB
:10566000DFF9002800D1BDE001232370039B1F70E8
:10567000A4E73A697B69B9680C985DF027FD0923B6
:105680003370B8683A697B69824F009751F02AF904
:10569000002800D119E13900300051F03DFA06210F
:1056A000022802D13378002B22D010204BF0C4FC0A
:1056B000002801D04BF0BEFD119F38004BF032FDA9
:1056C00057E7B9680B985DF001FD09233370B8689E
:1056D000714951F0C7F8002800D1F6E06E4930005A
:1056E00051F01AFA06210228DFD13378002BDCD1E1
:1056F0000D304BF0A1FC0028DCD1119FDDE7FB88C9
:10570000012BDAD14A46FB6812680E9305929A4241
:1057100000D23DE12378002BCFD1059B002BCCD0CC
:1057200063F0CAF95346FA221B689200C31A9342E7
:1057300000D357E15B461B68C01AF928BCD9002783
:105740002378002BB8D101205149784051F068F9F5
:10575000002800D148E101232370039B1F70119F93
:10576000ABE7FB88012BA8D14A46FB6812680E9371
:1057700005929A4200D2EAE00D985DF0A7FC2378EA
:10578000002B0AD10020424951F04AF9002800D1EB
:1057900020E10123039A237013703B7A032B00D17D
:1057A00011E14B461D605B461D6053461D60049B26
:1057B000119F1D70029B38001D704BF0B3FCD8E6A2
:1057C000FB88012B00D078E74A4615605A461560E1
:1057D00052461560049A38001570029A13704BF007
:1057E000A1FCC6E60A985DF071FC2378002B00D07E
:1057F000E4E6029B1B78002B00D0DFE60122524238
:10580000DDE6002A00D0C8E663F056F95B46186072
:10581000059B002B01D053461860049B10210E20DD
:105820001D704BF009FC071E00D1C4E651F0F2FEDA
:10583000B86051F001FFF86038004BF0FBFCBAE6AD
:105840000020012707E7C0468C6C0810B4D6022060
:10585000BCC00120C2D60220B8C00120A8D60220B8
:10586000B46C0810F46C0810B4C00120A9D6022052
:105870005C6D0810BC6D0810202D0220D851091055
:10588000F46D0810386E0810746E0810AC6E0810B5
:10589000C4090000102700008813000009985DF07B
:1058A00015FC0222390008985DF010FC51F0AEFFA3
:1058B00000282CD14B461D605B461D6053461D6081
:1058C000049B1D70029B1D7075E60621EDE6002A03
:1058D00000D091E663F0F0F85B461860059B002B62
:1058E00001D0534618600023049A10210E20137033
:1058F0004BF0A2FB071E00D18CE651F08BFEB86086
:1059000051F09AFEF86038004BF094FC82E60621D4
:105910000C204BF091FB0028CCD04BF08BFCC9E75E
:1059200009985DF0D3FB0222390008985DF0CEFBA8
:1059300051F06CFF002822D14B461D605B461D6074
:1059400053461D60049B1D70029B1D7062E652F061
:10595000CBFE011E00D10FE7102230000AF0EEFA54
:105960000E98059B31680022C31A994202D3059B09
:105970005A18121A3000326052F0FEFEFCE6062180
:105980000C204BF059FB0028D6D04BF053FCD3E74A
:1059900052F0AAFE011E0ED0102230000AF0CEFAFC
:1059A0000E98059F32680021C31B9A4216D2300020
:1059B000316052F0E1FE4B460E9A1A602378002BBC
:1059C00000D1ADE678E60A2052F02CFF0F985DF08A
:1059D0007DFBE6E60A985DF079FBDEE6BC466244B4
:1059E000111AE4E70127ABE60A985DF06FFB119FFF
:1059F00063E6C04670B50C00002813D00161016257
:105A000052F0A0FA051E08D051F0E0FD064B01004F
:105A100018005DF05BFB280070BD210003485DF0BD
:105A200055FBF8E70125F6E7646C08103C6C08109C
:105A300070B5041E1BD0056941614D192A000D483F
:105A40005DF044FB20002561256252F07BFA041EC4
:105A500008D051F0BBFD084B010018005DF036FB8B
:105A6000200070BD290005485DF030FBF8E70124F7
:105A7000F6E7C046006F0810646C08103C6C081014
:105A800010B5224884B05DF021FB00212020009158
:105A90001F4B204A043161F081FA1F4C206000281E
:105AA0001FD01B214BF094FB242120684BF090FB6E
:105AB0001C2120684BF08CFB262120684BF088FBD2
:105AC000272120684BF084FB144B80220293144B57
:105AD000144901930223144800935200002362F0FA
