:020000041000EA
:1080000000B5324B2120586098680221884398605F
:10801000D860186158612E4B002199600221596186
:108020000121F02299502B491960012199603520D6
:1080300000F044F80222904214D00621196600F0A4
:1080400034F8196E01211966002018661A6600F0CE
:108050002CF8196E196E196E052000F02FF8012109
:108060000842F9D1002199601B491960002159602B
:108070001A491B48016001219960EB211966A02172
:10808000196600F012F80021996016491448016041
:108090000121996001BC002800D000471248134913
:1080A000086003C880F30888084703B5996A04206C
:1080B0000142FBD001200142F8D103BD02B5186690
:1080C0001866FFF7F2FF186E186E02BD000002403E
:1080D000000000180000070000035F0021220000DC
:1080E000F4000018222000A00001001008ED00E0BC
:1080F00000000000000000000000000074B24E7A92
:1081000000200420F7810010CB810010CD810010E9
:10811000C9810010C9810010C9810010C9810010F7
:10812000C9810010C9810010C981001089BD0510E6
:10813000C9810010C9810010B5BC051005BE05102D
:10814000C1810010C1810010C1810010C1810010E7
:10815000C1810010C1810010C1810010C1810010D7
:10816000C1810010C1810010C1810010C1810010C7
:10817000C1810010C1810010C1810010C1810010B7
:10818000C1810010C1810010C1810010C1810010A7
:10819000C1810010C1810010C1810010C181001097
:1081A000C1810010C1810010C1810010C181001087
:1081B000C1810010C1810010C1810010C181001077
:1081C000EFF30580103800BE00BE00BE00BE00BE4A
:1081D00000BE00BEF2EB8871FCB50D102CB60D1080
:1081E0003882001090A31AE71E481F49086006C88D
:1081F00081F3088810471D480068002801D01948FD
:10820000F3E70DA40ECC002902D000F012F8F9E734
:108210001749184A002000E001C19142FCD11649DB
:108220008847164988471649884700BEFDE701C9B7
:1082300001C29A42FBD370472CB60D10C00000203B
:10824000C01A00202CD00D100000042000000420D3
:108250002CD00D100010042000100420000000009D
:10826000704700000000000008ED00E0000000D0B2
:10827000C01A002024C1022045590110D5820010E7
:1082800005590110F8B5C04606480749091A8B1070
:10829000C90FC91810B5491003D0044B002B00D0EA
:1082A000984710BDC01A0020C01A0020000000002E
:1082B000054B10B5002B03D00449054800E000BF72
:1082C000FFF7E2FF10BDC04600000000D08B022087
:1082D000F09F061010B510F019FB002100200FF0E0
:1082E00005FEFA20800009F071F906200AF0ACF8CA
:1082F000D02340221B065A620C485A610DF0ECFC58
:108300000B480DF0E9FC4FF07BF955F069FF094887
:108310000DF0E2FC03F0DCF9322009F057F903F02C
:10832000DDF9322009F052F9F4E7C046F09F06105B
:108330000CA006102CA006100B4B70B51A68013269
:108340001A600A4B53430522D341094A934200D98C
:1083500070BDD02480252406AD0400210548656148
:1083600009F054FAA561F3E7F88A02203961C2687E
:108370008D21000050C3000072B6FEE770B5050005
:108380000B480C000DF0A8FC29000A480DF028FD50
:10839000002C08D0210008480DF022FD07480DF000
:1083A0009BFC72B6FEE706480DF096FCF6E7C04669
:1083B00048A006106CA0061080A00610A4A006100D
:1083C00090A0061000487047987307100048704747
:1083D0003473071070B5002800D173E0032852D120
:1083E000414D1121280010F0D1F828005BF00AF867
:1083F000002800D175E03D4C2B786380012839D0EE
:108400006B78A380022835D0AB78E380032831D085
:10841000EB78238104282DD02B796381052829D07E
:108420006B79A381062825D0AB79E381072821D079
:10843000EB79238208281DD02B7A6382092819D072
:108440006B7AA3820A2815D0AB7AE3820B2811D06D
:10845000EB7A23830C280DD02B7B63830D2809D066
:108460006B7BA3830E2805D0AB7BE383102801D15F
:10847000EB7B2384C023013040009B0003439BB26D
:108480002380200070BD052829D8194B8000C458CE
:10849000002CF6D020005AF0B5FF050020281CD88B
:1084A000002807D00023134AE15C01331180023217
:1084B0009D42F9D8C02301356D009B002B430B4C26
:1084C0009BB2DDE70B4C0A4B2000196802220BF02F
:1084D000EBFCC123023C9B00D2E72025E0E700240F
:1084E000CFE7054B014CCBE7A857002030650220B1
:1084F000081200203265022002030000F0B5C646D3
:10850000864800B551F0B2FC06F040F9040003F0D3
:10851000EDFB834851F0AAFC03F0D2FB814851F0F7
:10852000A5FC05F04BFE804851F0A0FC4AF07AFA19
:10853000002800D180E07D4851F098FC04F0A4FDB3
:108540007B4851F093FC03F009FC7A4851F08EFC13
:108550004FF0B2F8784F38604FF0B4F8774E306093
:108560004FF0B6F8764B0500186030689846002842
:1085700000D19CE049F048FD43461D683B68002857
:108580005ED1002B00D196E003F04EFA2B23E35C82
:10859000002B00D0B5E02A23E35C002B00D18EE055
:1085A0000222684BDA702723E35C002B65D001F0D0
:1085B00007FE0122634B0A2063491A704FF044F80A
:1085C000624851F053FC002D5CD003F085FC6048FC
:1085D00051F04CFC02F036FC5E4851F047FC282379
:1085E000E35C002B00D06EE02923E35C002B53D02A
:1085F00002F072FD0122534B0B2057499A704FF045
:1086000023F8564851F032FC2C23E35C002B4AD06F
:1086100004F0ECF905F0A2FE01224A4B0420504977
:108620005A714FF011F84F4851F020FC4E4851F06C
:108630001DFC80BCB846F0BD4C4851F017FC7DE7EE
:10864000002B4DD003F0F0F92B23E35C002B4BD132
:108650002A23E35C002B32D0306849F0E7FC01228A
:10866000384B0C204249DA704EF0EEFF414851F091
:10867000FDFB2723E35C002B99D13F4851F0F6FB2B
:10868000002DA2D102222F4B3C485A7051F0EEFB34
:108690002923E35C002BABD1394851F0E7FB2C23B5
:1086A000E35C002BB4D1374851F0E0FBBEE73B68F8
:1086B000002B00D068E70222224B1A716BE7324888
:1086C00051F0D4FB6FE74DF065F901221D4B0D20F1
:1086D0002E495A704EF0B8FF2D4851F0C7FB83E782
:1086E0000222184B1A71B3E703F03CFA0122154B32
:1086F0000E2028491A714EF0A7FF274851F0B6FB0B
:10870000A6E703F02FFA01220E4B0E2021491A7121
:108710004EF09AFF204851F0A9FB3CE704A1061057
:1087200040A106106CA1061098A10610C8A1061061
:1087300020A206104CA206103C6A02202C6A0220DD
:10874000048D0220D09C0220D8A20610E4A20610BC
:1087500030A306105CA30610F0A30610FCA30610BD
:1087600044A406104CA40610ACA40610ECA10610FC
:108770007CA2061084A2061008A30610BCA3061053
:108780001CA4061078A40610A8A2061090A3061038
:1087900098A30610D8A40610E4A4061070B5052806
:1087A0000CD8254B254D8400E1582B5C012B32D091
:1087B000234851F05BFB234B1B599F46224B010082
:1087C000180051F053FB002070BD04F00FF9012395
:1087D00001206B71F8E74DF0DDF8012301206B708B
:1087E000F2E71A4C2068002803D049F00DFC00285D
:1087F0001BD1174851F03AFB0223EB70E3E703F07B
:10880000B1F9012301202B71DEE702F065FC0123A1
:108810000120AB70D8E70F4851F028FBD3E701F0F7
:10882000CFFC012301202B70CEE7206849F0FEFB2E
:1088300001230120EB70C7E7D0730710D09C022002
:1088400054A50610AC73071010A506102C6A022060
:1088500070A5061034A5061010B5052805D8044BE0
:108860008000C158034851F001FB002010BDC046F4
:10887000D07307109CA50610052802D8024B185C7F
:1088800070470220FCE7C046D09C0220052803D890
:10889000024B8000C05870470148FCE7D0730710B6
:1088A000C4A50610F8B5CE464746134880B551F02A
:1088B000DDFA124B124C9946124B27009846124D86
:1088C000124E18372B78022B0DD842469B0002CC53
:1088D00030009A5851F0CAFA0135A742F2D1C0BC13
:1088E000B946B046F8BD02CC4A46300051F0BEFA57
:1088F0000135BC42E6D1F2E7CCA50610F0A5061082
:10890000D0730710C4730710D09C0220E4A5061092
:1089100010B555F0CFFD10BDF0B5DE4657464E46BA
:108920004546E0B585B005F031FFB0234F4E5B0002
:108930000400C05833684E4F98426AD04D4B984659
:108940004D4B99464D4B9A464D4D2B689B46002BFF
:1089500044D027F07DFE02AB187002040002120E14
:10896000000E5A70987000225846029919F0D8F8F3
:10897000FF212868002219F0E3F8B2222B68520088
:10898000A0589346019327F063FE03AB18700204CE
:108990000002120E000E5A7098700022039901987E
:1089A00019F0D8F8B4235B00E15C2868002219F0C4
:1089B000EBF86A23FF33E15C2868002219F0EEF837
:1089C000286800220121B02519F0D4F85B466D001B
:1089D000E25861592B4851F049FA6059B2235B00C3
:1089E000E35842463B60B42330605B00E35C1370A5
:1089F0006A234A46FF33E35C1370B62352465B009A
:108A0000E358136005B0F0BCBB46B246A946A04689
:108A1000F0BDB2235B00E2583B689A4200D08DE77C
:108A2000144B9846B4235B00E25C43461B789A42A1
:108A300004D0114B9946114B9A4685E70E4B994647
:108A40006A23FF33E25C4B461B789A4202D00B4B01
:108A50009A4679E7094B9A46B6235B00E25853469B
:108A60001B689A4200D06FE7CCE7C0463412002062
:108A70003012002029120020281200202C12002081
:108A8000F058002018A60610F0B5DE464E465746B0
:108A90004546E0B5EC48CBB051F0E8F949F0C4FEEA
:108AA000EA4851F0E3F9012054F002F9E84E306051
:108AB000002801D101F057FAE64851F0D7F949F002
:108AC0007DFE692055F0F6FCE34851F0CFF93220E5
:108AD00055F0F0FCE14851F0C9F925F081FAE04881
:108AE00051F0C4F9DF482EF0E3FCDF4851F0BEF945
:108AF000A022F0215200DD4851F0B8F9A021DC4A53
:108B0000F0200092DB4B0322490021F0A9FDDA4C52
:108B10002060002801D101F0ECF8D84851F0A6F906
:108B2000002120681CF08CFDD54851F09FF9E1210F
:108B3000D448890151F09AF9002320680093E12379
:108B400000229B01D0491CF0E1F8D04851F08EF989
:108B5000CF4851F08BF910F069FACE4851F086F900
:108B600005F014FE0500CC4851F080F9FFF7D4FE63
:108B7000CA4B18680A93002804D029001E31FF311F
:108B800035F0EAF805F002FE0A9A030010680028A2
:108B900009D0B82252009B5C0121002B01D101F0C9
:108BA000F0F811F095F9BE4851F060F9002049F055
:108BB00019FE49F031FF20681BF0ECFF0400B948B2
:108BC000210051F053F904E02AF0A2FC052055F0F1
:108BD00071FC49F01BFFA042F6D3642055F06AFCFB
:108BE00049F014FFB04B0100180051F03FF9AF48B5
:108BF00051F03CF900242000053449F0F3FDE4B2C3
:108C00001E2055F057FC692CF5D1642049F0EAFD8F
:108C1000A74851F02BF9A74851F028F955F084FCEA
:108C2000419055F081FCA44BA44D18600893A44BCF
:108C3000FA2798461860A34B44469A46A24BBF00B9
:108C40000293A24B1F93A24B0E93A24B2093A24BD5
:108C50001E93A24B1A93A24B2593A24B2693A24B91
:108C60002B93A24B0C93A24B1D93A24B1793A24B99
:108C70001993A24B2393A24B2193A24B2493A24B73
:108C80002793A24B2A93A24B2993A24B2D93A24B3D
:108C90002E93A24B2F93A24B3093A24B3193A24B16
:108CA0003293A24B2C93A24B3393A24B3493A24BFF
:108CB0003593A24B3693A24B3A93A24B3793A24BD8
:108CC0003893A24B3993A24B0D93A24B1593A24B11
:108CD0001493A24B1393A24B0F93A24B2893A24B36
:108CE0001B93A24B3B93A24B1093A24B1693A24B08
:108CF0001193A24B1293A24B0493A24B9B4655F0A7
:108D000013FC53461B68C31ABB4223D201210A201D
:108D10004EF0ACFC55F008FC804605F037FD4246AD
:108D20002368D31A882252008258934218D2FA211B
:108D30003068490054F080F98046012800D123E1D1
:108D40000A2055F0B7FB55F0EFFB53461B68C31ADA
:108D5000BB42DBD353461860029849F0B7FCD5E715
:108D600043460A213068236054F066F90128DED1B9
:108D7000FFF7D2FD05F00AFD0023AB7799462733B4
:108D8000C35C8046002B01D000F036FD282342460C
:108D9000D35C002B01D000F020FD29234246D35C98
:108DA000002B01D000F00AFD2A234246D35C002BA1
:108DB00001D000F0F4FC2B234246D35C002B01D001
:108DC00000F0DEFC2C234246D35C002B01D000F0E7
:108DD000C6FCAB7F5A1E93416B774AF0CDF80690E4
:108DE0004AF070FD81460B904BF0C0F94B46059060
:108DF000012B00D1D4E1033B5A425341DBB207932C
:108E00000023099302F0B2F9039055F08DFB6B7AC1
:108E10008046002B00D1F4E0039B002B01D100F031
:108E2000FAFC2B78002B00D069E1079A002A01D1C7
:108E300000F091FE40222B742B720123AB542B7057
:108E40000323984602E1C046B0A60610E8A6061025
:108E5000B08B02205CA7061084A706109CA7061002
:108E6000C0A7061011890010D8A7061000A8061088
:108E7000D52805105D280510808B02205CA80610FF
:108E800088A80610C0A80610C01A0020F4A8061072
:108E900018A9061034A906104CA90610185900206C
:108EA0007CA90610ACA90610E4A9061018AA0610A1
:108EB00038AA06106CAA061004B7022018B70220C0
:108EC000388B02208C650220A0AA0610E8730710D8
:108ED0003C120020483C0710188B02205CA60610AC
:108EE00068A6061074A6061080A606101C5900205D
:108EF000241200203C8B022020C10220A4AA0610CC
:108F0000E46D0220A8AA061094A606109C6E071015
:108F100002C1022017C10220748B022016C1022058
:108F2000708B022018C10220788B022088A60610C0
:108F300015C102206C8B022013C10220648B022019
:108F4000A8A6061014C10220688B02209CA6061059
:108F50000059002001C1022038120020F4580020DE
:108F600020120020B0AA06101C690220B8AA061020
:108F7000F858002000C1022004590020FFC0022040
:108F800012C10220006E022005202EF00FFA05F01B
:108F9000FDFB049B1B78002B0DD1FA210533FF3319
:108FA000C058890009F022FF5A461368834202D351
:108FB0004246049B1A702AF0ABFA804655F0B4FA88
:108FC000FA21089B89001B68C01A09F00FFF5B4655
:108FD0000022186000210023306853F07FFD4346D3
:108FE000642B07D84146052900D2052141A855F038
:108FF0000FFA84E605F0CAFB80235B00C35898464D
:10900000F0E7039A2B7C6A72002B09D0002A71D1F9
:109010004246EB68D31A674A934201D900F00CFD2F
:109020002B78002B01D100F007FC079B002B6AD0A6
:10903000039B002B00D003E74B460022013BDBB231
:109040009046032B02D81F9AD35C98460E9B1B7840
:10905000434503D14023EB5C002B15D005F096FB74
:109060000A9A0300106800280BD0424652019B1850
:109070007133FF331B780121002B00D1E9E310F09D
:1090800027FF42460E9B1A7005F080FB0A9B1B6867
:10909000002B13D04B46012B01D100F0A6FC2B7AFC
:1090A000002B0BD13E23FF339846804441461E9847
:1090B0005AF05CF9002801D000F0D2FD059B0B2B83
:1090C00000D17DE04B46023BDBB2012B0DD9059B65
:1090D000062B01D100F0B2FD01D900F0B1FC013B3B
:1090E000DBB2032B01D900F048FF01231C931A9B2C
:1090F000189369E02B78002B01D100F061FE079BEB
:10910000002B00D09CE643466B6001232B720023AA
:109110002B7005F03BFB42466B68D31A8422520049
:1091200082589A4284D805F031FB0A9A03001068ED
:10913000002809D0B82252009B5C0121002B01D1EC
:1091400000F09DFF10F0C4FE05F020FB3E22FF3230
:1091500090460A9B80441B68002B03D041461800B0
:1091600034F0FAFD0B224146134858F055FE002317
:10917000382212498B54CB630B7205F007FB0A9A15
:1091800003001068002800D127E1B82252009B5C40
:109190000121002B01D100F06EFF10F099FE1CE1BF
:1091A000069B002B00D182E3EB6301230993079315
:1091B00028E6C0468713000045B7022018B70220F2
:1091C00001231C93209B18930C9B1B689846002B33
:1091D0002CD04022059B0399013BAA5CDBB20029FD
:1091E00000D1E9E1002A00D1FEE001221D9952429E
:1091F0000A60002217990A70199901320A70032B2C
:1092000000D9F7E001F062FF0C9B1B6898461A99A1
:1092100017985AF0ABF8002801D000F05BFC012150
:10922000404610F0E1FE002800D021E1069B002B13
:1092300000D126E1069B98460D9B1868002845D072
:10924000159B039A1B78002A00D01BE2079A002A7C
:1092500000D017E2032B00D12DE10123149A5B42C9
:109260001360159A04331370099B002B00D132E16F
:10927000069B002B00D12EE1012110F0B5FE002845
:1092800001D000F048FE4346002B00D198E3149A29
:10929000136898451AD04346FA211360890088451F
:1092A00001D200F09BFEC04B984501D800F0E6FDCE
:1092B000404609F09BFD10210300249A1B980CF0F6
:1092C00063FA0D9B1B99186834F046FD139B1B68CD
:1092D000002B10D00F9B1B6898464023EB5C002BA3
:1092E00000D0C7E2079B002B00D019E24B46002BB1
:1092F00001D100F03AFC109B1B689846002B1CD053
:109300004023EB5C002B00D021E1169B099A1B78CF
:10931000002A00D100E3069A002A01D100F015FCD2
:10932000A2498A4200D8A2E3A1498A4201D900F0A9
:1093300023FD022B01D000F061FC119B1B689846B5
:10934000002B47D04023EB5C002B02D00023129A65
:1093500013706B7F002B0DD14B46002B00D17BE2AD
:10936000012B01D100F009FC023BDBB2022B01D939
:1093700000F011FC55F0D8F8AB69C31AF92B24D9C9
:1093800001222B7FA8615340119A2B7711688846E0
:1093900000D170E3FF20000427F05AF93AAB1873AC
:1093A000030400023AA91B0E000E88734B730022BF
:1093B00040463D9918F0B4FB119A0121106810F055
:1093C00013FE002801D000F099FD02230B93129B9D
:1093D0000B9A1A7040230022EA5400230022002135
:1093E000306853F07BFBA2E4012219990A70032B29
:1093F00000D807E74B46022B00D103E74B46032B6F
:1094000000D1FFE601F062FE002800D1FDE001F08E
:109410005DFE22906421229809F0E8FC1D9A8046A6
:109420001368984201D100F054FC10600A2109F041
:10943000DDFC5D4B229A18909A4201D900F0B7FDED
:109440000A21404609F0D2FC189B0091239A102172
:1094500021980CF099F90C9B2199186834F07CFC48
:109460000C9B0121186810F0BFFD002800D1DDE63B
:109470000C9B0121186810F02BFD069B002B00D0DF
:10948000D8E6EB6B9846002B12D0059B072B00D833
:10949000E8E20B2B00D1CFE62B7C002B00D0CBE6F3
:1094A000039B002B00D0C7E62B7A002B00D0C3E62D
:1094B00000239846C0E64032AA5C002A01D100F0A1
:1094C0003FFC0122149952420A60159A1370099BBD
:1094D000002B00D011E34B46002B03D12B7C002B3B
:1094E00000D1D5E2012110F07FFD0D9A031E106816
:1094F00000D0D1E2012110F077FD002801D000F06A
:1095000044FC099B002B00D0BDE6059A112A04D823
:10951000284BD340DB0700D5B5E62B7C002B00D0D1
:10952000B1E62B7A002B00D0ADE64B46002B00D0E5
:10953000CCE6149A1368023300D1C7E602235B42DB
:1095400013600D9B3B99186834F006FCBEE60023BF
:10955000169A1370099B002B00D1AEE1069B002BDD
:1095600000D1E6E21A00114B9A4200D9B0E1CC20BA
:10957000000427F06DF83AAB1876030400021B0EC6
:109580003AAA000E5376907640994046002218F091
:10959000C7FA109B0121186810F026FD002801D0A1
:1095A00000F09FFC0123D2E10F270000973A000052
:1095B0001F4E0000C0080200297C002900D1A6E14E
:1095C000002A00D179E201211D9849420160002161
:1095D0001798017019990A70032B00D817E64B46AB
:1095E000022B00D113E64B46032B00D10FE62B7C58
:1095F000002B00D1DBE26B692293002B00D009E73E
:10960000099B002B01D000F056FD6B7F002B00D092
:109610003CE3299A1370059B0B2B01D100F0E5FC6C
:10962000072B01D100F0FFFC062B01D100F07AFCE2
:109630004B46002B01D000F026FD2B7C002B01D1E6
:1096400000F009FD279B1893099B002B01D100F026
:1096500002FD1899179859F089FE002800D138E3C7
:109660000C9B1868189B9846190034F075FB179BE3
:10967000414698460F22180058F0CEFB0023424680
:10968000D37326E3022B00D1DEE20123149A5B425E
:109690001360159A03331370099B002B03D0069BAC
:1096A000002B00D02DE2039B002B00D113E70121FA
:1096B00010F09AFC002800D0E2E2079B002B00D1BA
:1096C00048E1149B1B6843451AD04246FA21149B7B
:1096D00089001A60884501D200F078FCDD4B98457E
:1096E00000D8A2E3404609F081FB10210300249A30
:1096F0001B980CF049F80D9B1B99186834F02CFB53
:10970000139B1B68002B00D1F5E50F9B1B68984647
:109710004023EB5C002B03D001230F9A5B421360C4
:1097200049F046FC0F9B011E1B68189309D064206A
:10973000069B584309F05AFB642800DC8AE2642344
:109740009846189B984500D1D5E5139B00221868D0
:1097500041462FF0BFFD42460F9B1A60CBE5052026
:10976000FFF78AF8AB7F012801D1FFF733FB052112
:109770005A1CD2B2EB18D977AA771300FFF72AFB4D
:109780000420FFF779F8012801D1FFF71BFBAB7F1D
:109790005A1CAA770422EB18DA77FFF713FB032091
:1097A000FFF76AF8012801D1FFF705FBAB7F5A1CD0
:1097B000AA770322EB18DA77FFF7FDFA0220FFF70A
:1097C0005BF8012801D1FFF7EFFAAB7F5A1CAA77AB
:1097D0000222EB18DA77FFF7E7FA0120FFF74CF8DF
:1097E000012801D1FFF7D9FAAB7F5A1CAA770122D1
:1097F000EB18DA77FFF7D1FA0020FFF73DF80128E0
:1098000001D1FFF7C3FAAB7F5A1CAA774A46EB187F
:10981000DA77FFF7BBFA0123E8602B7401F056FCFE
:10982000039B68616B722B7C002B01D0FFF7F0FB70
:109830002B78002B00D0BCE2079B002B00D1CCE0A2
:10984000002340222B742B720133AB542B70FFF793
:10985000EFFB10F0F1FA14E4129B1B78002B06D0FA
:109860000121404610F0C0FB002800D14DE3002349
:109870000B93ACE501230F9A5B421360079B002B0F
:1098800000D04DE74B46002B0DD12B7C002B0AD18D
:1098900001235B4218932B7A5A1E934142465B4246
:1098A0001A4090464DE701235B42189349E7002395
:1098B000099301330793FFF7A5FA039B002B3ED0D2
:1098C000069A002A00D190E1634B9A4200D84EE6F6
:1098D000624B9A4200D891E1614826F0B9FE3AAB5A
:1098E0001874030400021B0E3AAA000E53749074FD
:1098F0003E994046002218F013F9109B0121186888
:1099000010F072FB002800D0E4E203231FE0002ADD
:1099100000D1CDE0002256E6039A002A00D0FCE0F8
:109920004A46002A00D084E12A7C002A00D080E147
:109930002A7A002A00D07CE1042B00D1FDE4012129
:10994000404610F051FB002800D1D1E20423169AC2
:109950001370F2E42B7A002B02D0E86B002801D1BF
:1099600001F0E6FB149B1B68834217D0FA21149B7D
:1099700089001860884200D221E3364B984200D813
:1099800068E209F033FA10210300249A1B980BF0C7
:10999000FBFE0D9B1B99186834F0DEF9139B1B68C6
:1099A000002B00D1A7E40F9B1B6898464023EB5C7B
:1099B000002B00D1B0E101230F9A5B42136061E7F5
:1099C0004B46002B00D081E42B7C002B00D07DE4A3
:1099D0002B7A002B00D079E4ABE52B702B7A002B8F
:1099E00001D0FFF796FBFFF723FB0C2142A84AF0BA
:1099F00041FC002800D0CFE1059B0B2B01D1FFF7E4
:109A0000DFFB062B00D119E100D905E3013BDBB2F6
:109A1000032B01D8FFF769FB069B002B00D099E2CE
:109A20000C9B1B689846002B00D12AE501231C9350
:109A300000231893FFF7CDFB00232B74FFF7F0FAF8
:109A4000072B00D0A5E201231C93259B1893FFF759
:109A5000BBFBC0460F270000973A00001F4E0000D6
:109A60000A820500052B01D9FFF7E6FB14E5012B5F
:109A700000D162E47BE50121404610F0B5FA0028F0
:109A800000D0A2E4119B0121186810F0D5F99CE4E4
:109A90002B7A002B00D025E5012110F0A5FA002833
:109AA00000D02EE50D9B0121186810F0C5F928E5BE
:109AB00019990978002900D085E5199A1170032BAE
:109AC00000D98CE51A99179859F050FC002801D15B
:109AD000FFF7A5FB40461A9934F03EF9179B0F2279
:109AE000984618001A9958F097F900234246D37304
:109AF0000C9B1B689846FFF792FB069B002B00D13E
:109B0000E9E4012110F070FA002800D029E1039B5C
:109B1000002B00D0D1E5FFF7B6FB06990A1E01D055
:109B2000FFF7FEFBEA6BE4498A4201D9FFF7FCFB31
:109B30009DE7039B002B58D14B46002B00D0FEE63F
:109B40002B7C002B00D0FAE6F2E6039A002A00D123
:109B5000E6E6EA6BE7E72B7A2A70002B01D0FFF7E5
:109B6000D8FA03239846FFF771FA2B7C002B01D01B
:109B7000FFF7C1FB434618938DE6099B002B00D0ED
:109B80002BE1069B002B01D1FFF7F4FB059B112B6A
:109B900001D1FFF7EFFB129B079A1B780B93002A6A
:109BA00000D15BE6022B00D011E4FFF7E3FB099B39
:109BB000002B00D129E5069B002B00D125E5279934
:109BC000179859F0D3FB002800D0C6E20121404687
:109BD00010F00AFA002801D1FFF72CFB0C9B0121A1
:109BE000186810F075F9FFF725FBEB6BB24A93424A
:109BF00000D8BCE4B14A934200D96DE6B04826F0E3
:109C000027FD3AAB1875030400021B0E3AAA000E9A
:109C1000537590753F994046002217F081FF109BC5
:109C20000121186810F0E0F9002800D03CE102237F
:109C30008DE6002B01D0FFF780FB80E601231C930B
:109C4000269B1893FFF7C0FA3E33EB5C002B00D144
:109C500022E51AE5C3430200DB171A40904670E57F
:109C60001E9B414698461F22180058F0D5F8002345
:109C70004146CB770A9B186834F06EF8FFF71EFA5E
:109C80000D9B0121186810F023F916E554F04CFCE7
:109C90002C23FA21AA6AEB5C821AC9008A4209D3F2
:109CA0000133DAB2AB7F934200D8D8E113002C2104
:109CB000A8626A54EB18D87FFEF7E8FD2021030064
:109CC0002A9A42A80BF060FD0C9B42A9186834F058
:109CD00043F80C9B0121186810F086F9002801D187
:109CE000FFF7A4FA0C9B0121186810F0F1F8FFF7B8
:109CF000C4FB744850F0BAF8734850F0B7F83068B5
:109D000053F058FB002054F03BF84BB0F0BCBB467E
:109D1000B246A946A046F0BD4B46002B01D0FFF746
:109D2000EAFA2B7C002B01D0FFF7E5FA2B7A002B07
:109D300001D0FFF7E0FA434618930023984600E568
:109D4000099B002B01D1FFF7C6FB069B002B01D11D
:109D5000FFF7C1FB012110F047F9002801D1FFF7FF
:109D600092FA0D9B0121186810F0B2F8039B002BAA
:109D700000D0A2E4FFF7C5FB032B01D1FFF7DDFA0A
:109D8000AAE510F059F8FEF70EFF0D9B01211868A7
:109D900010F09EF8FFF7B5FB0B2242A94B4858F094
:109DA0003BF8382300224A49CA54484B9846FFF7EB
:109DB0007DF9079B002B01D0FFF73EF9FFF7A3F9D0
:109DC000079A002A01D0FFF735F82B7A2A70002B6A
:109DD00001D0FFF79EF9FFF733F8129B1B78012B98
:109DE00001D1FFF7F4FAFF20000226F031FC3AAB74
:109DF0001872030400021B0E3AAA000E53729072EE
:109E00003C994046002217F08BFE119B01211868F7
:109E100010F0EAF8002801D1FFF7D9FA119B0121CF
:109E2000186810F055F8FFF7D2FA6421404608F0A0
:109E3000DDFF0A21804608F0D9FF0A21189040462C
:109E400008F0D4FF189B0091239A10211B980BF067
:109E50009BFC50E4642108F0C9FF0A21804608F009
:109E6000C5FF0A211890404608F0C0FF189B0091DA
:109E7000239A10211B980BF087FC8AE56421404649
:109E800008F0B4FF0A21804608F0B0FF0A211890BC
:109E9000404608F0ABFF189B0091239A10211B98B5
:109EA0000BF072FCFFF70DFA109B0121186810F0FF
:109EB0000FF802234BE5C046973A00001F4E000002
:109EC0000099FF0034A806102CA7061045B7022001
:109ED00018B70220109B012118680FF0F9FF032327
:109EE00035E5109B012118680FF0F2FF01232EE5E4
:109EF000109B012118680FF09FFF27E5119B01219E
:109F000018680FF0E5FFFFF760FA119B0121186850
:109F10000FF092FFABE40D9B012118680FF0D8FF02
:109F2000FFF7B1F954F000FB3299319B0A68FA212E
:109F30001B78821AC9008A4205D301223299534004
:109F4000319A13700860002B00D1BDE02C9B189350
:109F5000FFF77FFB099B002B00D183E000231C93BC
:109F60001893FFF731F994484FF080FF93484FF072
:109F70007DFF002053F004FFC7E64B46002B77D14E
:109F80002B7C002BE6D101231C932B9B1893FFF70E
:109F90001BF94B46002BF3D0012B40D04B46042B32
:109FA000D8D101231C9300231893FFF70DF9030068
:109FB0001021249A21980BF0E7FBFFF74CFA0300DD
:109FC0001021289A1B980BF0DFFBE2E44346102196
:109FD000289A1B980BF0D8FBFFF78DFB1021289ACD
:109FE0001B980BF0D1FBFFF76CF954F09DFA2E99FA
:109FF0002D9B0A68FA211B78821AC9008A4205D370
:10A0000001222E9953402D9A08601370002B9DD188
:10A01000209B1893FFF71DFB072B00D113E5059B31
:10A02000112BBED0F8E454F07FFA30992F9B0A68C8
:10A03000FA211B78821AC9008A4205D3012230997D
:10A0400053402F9A08601370002B00D07EE7259BA9
:10A050001893FFF7FEFA2B9B1893FFF7FAFA0023E9
:10A06000002224E62B7C1C9300231893FFF7ACF806
:10A07000012B93D1D0E40FF0DFFEFFF7AEF90FF024
:10A08000DBFEFFF761F8012B22D1059B112B49D193
:10A0900054F04AFA3499339B0A68FA211B78821AE1
:10A0A000C9008A4200D24EE7012234995340339AC4
:10A0B0001370086047E7069B002B01D1FFF7A5FA54
:10A0C0000C9B1B6898467AE5269B1893FFF7C1FA0C
:10A0D000042B54D0099B002B69D12B7C002B02D17F
:10A0E0001C9B002B04D0189B002B01D0FFF7B1FA6A
:10A0F0000C9B012118680FF077FF00280CD0069BFD
:10A10000002B01D0FFF796F8EB6B9846002B01D09F
:10A11000FFF7C2F9FFF7CCF90C9B012118680FF08B
:10A120008BFEECE7069B002BD4D154F0FDF9389957
:10A13000379B0A68FA211B78821AC9008A4205D324
:10A14000012238995340379A08601370002B00D0D1
:10A15000FCE6399B1893FFF77CFA4046279933F0C9
:10A16000FBFD179B0F2298461800279957F054FEC5
:10A1700000234246D3730C9B1B68984626E554F097
:10A18000D3F93699359B0A68FA211B78821AC900DF
:10A190008A4205D3012236995340359A08601370DC
:10A1A000002B00D0D2E63A9B1893FFF752FA279B78
:10A1B0001893FFF74EFAC04600A706102CA706100A
:10A1C00000B50A4B83B01A68002A04D008484FF043
:10A1D0004DFE03B000BD0193802201230549009389
:10A1E000D2000023044853F0B9FDF2E7A48B02200B
:10A1F000C0AA0610DCAA0610898A00100020704749
:10A200000A4B10B51B78002B01D0002010BD49F07F
:10A2100027FF0028F9D04278037812021A43837886
:10A22000C0781B04134300061843EFE7F9C002206F
:10A23000F0B504000E0089B000280ED149F010FFDF
:10A24000002843D0437802781B021343827812041B
:10A250001A43C3781B06134338D02E4B6F461C702D
:10A260002D4B1E6054F060F9012200232B4D2C4928
:10A270002A720A702B4AEB6010602B4A2860136028
:10A280002A4A686013602A4A13702A4B1B78002BF5
:10A2900032D154F049F9284B1860380001F028FBFE
:10A2A000012319007A699140D02212065161AB72E4
:10A2B000002C0FD0002E04D120484FF0D7FD09B05C
:10A2C000F0BD31001E484FF0D1FDF8E71D484FF0BA
:10A2D000CDFDF4E749F0C4FE002819D04278037898
:10A2E00012021A438378C1781B04134309061943E9
:10A2F00015484FF0BBFDE2E76946144850F06AFB91
:10A300000028C6D1039B124A1360124A1360C0E7AB
:10A310000021EDE7F9C00220DC860220D0540020A5
:10A32000F6C002204C840220608402209483022024
:10A33000F5C00220F7C002205084022068AB06104E
:10A3400018AB0610E8AA0610B4AB06109C830220D6
:10A35000988302205484022010B547F0EDFB10BD15
:10A36000014B187A7047C046D0540020F0B5C6465D
:10A3700000B588B00500684601F0BAFA0123059AD5
:10A38000254C9340D022120693610023234AA372E6
:10A3900023721370224B1B78002B24D1214E0020F6
:10A3A0003778002F2ED1204BE26898461B68002B8F
:10A3B00012D129001D484FF059FD00231C4A33706B
:10A3C00013601C4AA37213701B4A13601B4A13705C
:10A3D00008B080BCB846F0BD290019484FF046FDD2
:10A3E00043461F60E9E76946164850F0F3FA002833
:10A3F000D4D1154B0398196809F007FC094E37783A
:10A40000002FD0D009F08AFC02000B000F48290071
:10A410004FF02CFDD1E7C046D0540020F6C00220FA
:10A42000F7C00220F9C002206084022098AC061018
:10A43000DC860220FAC0022058840220F8C00220E4
:10A4400038AC06109C83022098830220F8AB0610DB
:10A45000F0B5DE4657464E464546E0B5C148AFB07A
:10A460004FF004FDC04BC14F0193C14BC14E9A4602
:10A47000C14BC24D0393C24B0293C24B9B46C24B8E
:10A480000493C24B0A93C24B0D93C24B0B93C24B26
:10A490000993C24B0F93C24B1393C24B1993C24BF8
:10A4A0001D93C24B1193C24B1693C24B1F93C24BC9
:10A4B0002393C24B2493C24B2593C24B1893C24B98
:10A4C0001593C24B1493C24B0C93C24B1793C24BC0
:10A4D0000E93C24B2093C24B2193C24B1093C24B9D
:10A4E0001293C24B1A93C24B1B93C24B1C93C24B89
:10A4F0000893C24B1E93C24B2293C24B0593FA237F
:10A500009B00994654F010F83B68C31A4B4519D28A
:10A5100001210B204DF0AAF8002233789046002B41
:10A5200037D02C78012C47D0022C00D197E0002C9A
:10A530000DD0642053F0BEFF53F0F6FF3B68C31A02
:10A540004B45E5D33860019848F0C0F8E0E7337830
:10A55000002B02D14346002B01D11420EAE749F039
:10A5600005FE052804D02B78002BE2D11420E1E76A
:10A570004FF06EFA041E00D199E1037D002B00D14B
:10A5800095E10378032B00D1E6E14FF07BFA2B78BD
:10A59000EAE749F0AFFD53461B780400804683424A
:10A5A000BFD02978002865D003984FF05FFC534650
:10A5B0001C702C78012CB7D153F0B6FF5B465B685A
:10A5C0008046C31A312BCED9049B1B78002B00D1B7
:10A5D00081E00A9826A950F0FDF9002800D07EE01D
:10A5E000299B0D9A181C1168079309F00EFB0B9A12
:10A5F00006901168079809F05FFB002800D097E0EB
:10A6000053F092FF099B19687F4B411A994270D809
:10A610003378002B32D0FC21069C8905201C09F0E0
:10A62000F7FA09F075FB5B46D8600C9B18680028A8
:10A6300051D009F046FB011C201C09F035FB5B469C
:10A64000002849D01B7A002B00D02CE15B46424603
:10A650005A600023089A14202B7013706AE749F09F
:10A6600049FD041E00D07EE705984FF0FFFB142043
:10A670002C705FE702984FF0F9FB98E749F0F0FC87
:10A68000041E28D0FC210698890509F0C1FA09F0BA
:10A690003FFB5B46DA68904200D9B7E053F044FFD5
:10A6A000109B04001B68C31A632B04D90E9B1B6804
:10A6B000002B00D027E149F0D3FC00280BD04378D1
:10A6C00002781B021343827812041A43C3781B06D4
:10A6D000134300D102E15B4642465A6043E7002340
:10A6E000069353F021FF099B1968474B411A994281
:10A6F0008ED911984FF0BAFB5B461B7A002B00D025
:10A70000CDE03378002B00D1F1E015984FF0AEFB8F
:10A7100014984FF0ABFB5B4642465A603378002BEF
:10A7200097D1089B1B78002B93D102332B7000E745
:10A730000B9B079A1A6053F0F7FE099B18600F9B5A
:10A740001B78002B00D15BE7139B1B78002B00D0FC
:10A7500056E7139B1D981C70199B19684FF086FBD8
:10A760004EE7C046E4AC0610F0A306108465022054
:10A77000FDC00220F9C0022010AD0610F6C0022074
:10A7800044AD0610D0540020F7C002209C83022064
:10A79000988302205484022050840220FAC00220B0
:10A7A000F8C002205884022078AD0610C0AD061013
:10A7B000FCAD06100CAE061040AE06107CAE0610C6
:10A7C000B0AE0610E8AE061018AF061048AF06107F
:10A7D000DC86022070AF06106084022088AF06106D
:10A7E000C4AF06104C84022094830220DCAF061014
:10A7F00000B0061058B00610F5C0022090B0061048
:10A80000A0B00610B4B00610B70B00006178237832
:10A8100009021943A378821A1B040B43E1780692BC
:10A820000906194307918A4200D90691069B002B1D
:10A8300000D133E72100102226A809F035FB079A42
:10A84000069C131B269326AB1B8926AA0133138172
:10A85000100049F077FC5B46A446D9680E9A614423
:10A86000D9601368634413600F9B1B78002B00D1E1
:10A8700014E7139B1B78002B00D10FE7199B1A6874
:10A88000914200D20AE720984FF0F0FA5B461B7A1B
:10A89000002B00D13FE72198FFF768FD3BE71698B2
:10A8A000FFF764FD2DE71798FFF760FD33E749F0E8
:10A8B000D7FB002800D156E6437802781B021343E9
:10A8C000827812041A43C3781B06134300D14AE668
:10A8D00000210800FFF7ACFC2B7845E65B461B7AAD
:10A8E000002B00D117E72298FFF740FD13E748F04F
:10A8F000EFFF002817D13378002B00D005E7189818
:10A900004FF0B4FA07E70B2001214CF0AFFE012015
:10A9100049F096FC002837D10E9B1860109B1C60F4
:10A92000129B1860C7E649F09BFB00280AD04378C9
:10A9300002781B021343827812041A43C3781B0661
:10A9400013433FD00B2049F065FC24984FF08EFA5A
:10A9500025984FF08BFADEE626A849F0E1FB0028A7
:10A9600000D100E626AAE37B927A9A4200D0FAE56B
:10A97000210026A8083157F08FF8002800D0F2E512
:10A9800020004FF07FF8EEE5129B1C6801341C603C
:10A9900048F0CEFA210002001A984FF067FA129B95
:10A9A0001968002900D186E61B984FF05FFA012153
:10A9B0000B204CF05BFE48F031FC00280CD1129BC0
:10A9C000186078E6052049F025FC1F984FF04EFAF4
:10A9D00023984FF04BFA9EE61C984FF047FA00235D
:10A9E000129A1360089A0133137048F0BDFB5B465E
:10A9F0001B7A002B00D18EE61E98FFF7B7FC8AE683
:10AA000010B549F077FB002801D1042010BD49F0B2
:10AA100027FB0028F9D0437802781B021343827881
:10AA200012041A43C3781B061343EED00020002102
:10AA3000FFF7FEFB0020E9E7002130B583B000916D
:10AA4000050049F097FC041E0AD048F071FA074B44
:10AA5000010018004FF00AFA0124200003B030BDB5
:10AA6000290003484FF002FAF7E7C04628B1061064
:10AA7000E8B0061010B5114B1C7848F029FF104BB8
:10AA80001B78002B0ED00F4B1B7A002B10D1012C02
:10AA900012D0022C04D0002C00D00624200010BDBF
:10AAA0000524FBE749F0DCFA064B1B7A002BEED0BD
:10AAB00053F03AFD012CECD10424EFE7F6C002205C
:10AAC000F9C00220D054002010B50A4C206800289C
:10AAD0000AD0094B1B7A002B07D153F051F9002300
:10AAE000064823604FF0C2F910BD0548FFF73EFC51
:10AAF0002068F2E7F46D0220D054002068B10610FF
:10AB000058B10610F8B5DE4657464E464546040095
:10AB1000E0B5002853D02F4B2F4E1D78337A9A463C
:10AB200048F0D6FE737A070099462C4B1B78002B11
:10AB300025D02B4B00201B68984600239B46337A78
:10AB4000002B30D1012D38D0022D40D0002D38D12E
:10AB5000534663704B4623774346A3615B4663606D
:10AB60000023606100201F4A2570A770A360E26087
:10AB70002361F0BCBB46B246A946A046F8BD49F0E9
:10AB80006FFA00281FD04278037812021A438378A4
:10AB90001B041343C27812061A439046C346337A05
:10ABA0000020002BCED053F0BFFCFA21336889007F
:10ABB000C01A08F01BF9012DC6D10425C8E70120F1
:10ABC000D7E70625C4E700239846C346E7E70525EF
:10ABD000BEE7C046F6C00220D0540020F9C00220D3
:10ABE000DC860220B4AA061070B5050049F082FA8E
:10ABF000002813D0280049F08DF9041E09D048F030
:10AC000097F9094B010018004FF030F9012420009A
:10AC100070BD290005484FF029F9F8E704484FF0C6
:10AC200025F90324F3E7C046D8B10610B0B10610E9
:10AC300088B1061000B50F4B83B01A68002A04D003
:10AC40000D484FF013F903B000BD0193C02201235A
:10AC50000A4900930A480023920053F07FF801004C
:10AC6000012803D007484FF001F9ECE706484FF000
:10AC7000FDF8E8E7F46D022000B20610F0A306101C
:10AC800051A4001024B2061058B20610F0B5264C9C
:10AC90000500267A89B0002E41D10127234B1F7071
:10ACA000234B186053F040FC224BE6601F70224B90
:10ACB00020601860214B60601E60214B27721E606F
:10ACC000204B1E70204B6E461B78002B1BD153F07F
:10ACD0002BFC1E4B1860300000F00AFE0123190007
:10ACE00072699140D02212065161A372002D06D0E4
:10ACF000290017484FF0BAF8002009B0F0BD1548F8
:10AD00004FF0B4F8F8E7694613484FF063FE0028A7
:10AD1000DDD1039B114A1360114A1360D7E7114834
:10AD20004FF0A4F80120E8E7D0540020F9C0022039
:10AD3000DC860220F6C002204C84022060840220BF
:10AD400094830220F5C00220F7C002205084022024
:10AD500018AB061068AB06109C8302209883022073
:10AD60005484022088B20610F0B5274C89B0237AAB
:10AD7000002B02D1002009B0F0BD684600F0B8FDFC
:10AD80000123059A9340D0221206936100231F4AA3
:10AD9000A372237213701E4B1B78002B1ED1002050
:10ADA0001C4D2E78002E25D11B4FE2683B681B49B5
:10ADB000002B0ED11A484FF059F80023194A2B7076
:10ADC0001360194AA3721370184A1360184A13705B
:10ADD000D0E718484FF04AF83E60EEE7694616485B
:10ADE0004FF0F8FD0028DAD1144B0398196808F0E9
:10ADF0000CFFD5E708F092FF02000B00104807494E
:10AE00004FF034F8D9E7C046D0540020F6C00220F5
:10AE1000F7C00220F9C0022060840220C8B20610E8
:10AE200098AC0610DC860220FAC00220588402206A
:10AE3000F8C0022038AC06109C83022098830220C0
:10AE4000F8AB0610F0B500260127244D89B000218B
:10AE50001022280009F022F801AC214B20001E70BE
:10AE600000F046FD3A00069B20009A40D0231B06C6
:10AE70009A61AE7200F03CFD059D1A4CE9B22000CB
:10AE80004FF098FE011E13D120004FF045FD011E2A
:10AE90001FD1154B290015481F704EF0E7FF1448CD
:10AEA00046F020FE011E0BD012484EF0DFFF0AE0F4
:10AEB00011484EF0DBFF0E4846F014FE011EF3D1A0
:10AEC0000E484EF0D3FF0E484EF0D0FF002009B0E0
:10AED000F0BD0C484EF0CAFFEDE7C046D05400204C
:10AEE000F6C002209C830220F7C00220D8B20610D0
:10AEF000EC730710B0B3061040B3061070B3061021
:10AF0000F0B3061010B3061010B5FFF79BFF00203A
:10AF100010BDC046F0B5264C0500267A89B0002E3B
:10AF200041D10127234B1F70234B186053F0FCFACB
:10AF3000224BE6601F70224B20601860214B60603E
:10AF40001E60214B27721E60204B1E70204B6E46E8
:10AF50001B78002B1BD153F0E7FA1E4B1860300012
:10AF600000F0C6FC0123190072699140D02212063C
:10AF70005161A372002D06D0290017484EF076FFCC
:10AF8000002009B0F0BD15484EF070FFF8E76946A3
:10AF900013484FF01FFD0028DDD1039B114A1360B9
:10AFA000114A1360D7E711484EF060FF0120E8E72F
:10AFB000D0540020F9C00220DC860220F6C0022016
:10AFC0004C8402206084022094830220F5C0022079
:10AFD000F7C002205084022018AB061068AB0610A0
:10AFE0009C830220988302205484022088B2061099
:10AFF000F0B5274C89B0237A002B02D1002009B08C
:10B00000F0BD684600F074FC0123059A9340D022FD
:10B010001206936100231F4AA372237213701E4B02
:10B020001B78002B1ED100201C4D2E78002E25D120
:10B030001B4FE2683B681B49002B0ED11A484EF0AB
:10B0400015FF0023194A2B701360194AA37213705D
:10B05000184A1360184A1370D0E718484EF006FFDC
:10B060003E60EEE7694616484FF0B4FC0028DAD19E
:10B07000144B0398196808F0C8FDD5E708F04EFE98
:10B0800002000B00104807494EF0F0FED9E7C04619
:10B09000D0540020F6C00220F7C00220F9C00220E0
:10B0A0006084022020B4061098AC0610DC860220D2
:10B0B000FAC0022058840220F8C0022038AC0610E2
:10B0C0009C83022098830220F8AB0610014BD868BD
:10B0D0007047C046D054002000B50F4B83B01A68AB
:10B0E000002A04D00D484EF0C1FE03B000BD01930C
:10B0F000C02201230A4900930A480023920052F01B
:10B100002DFE0100012803D007484EF0AFFEECE70A
:10B1100006484EF0ABFEE8E7F46D022000B20610E0
:10B12000F0A3061051A4001024B2061058B2061065
:10B130000C4B10B51B78002B02D00B4B186810BDC0
:10B1400048F08EFF00280AD04278037812021A4392
:10B150008378C0781B04134300061843EFE70020F0
:10B16000EDE7C046F9C00220DC860220014B187AC8
:10B170007047C046D054002070B51A4E84B03000DD
:10B180004EF074FE184D28004EF070FE1749184816
:10B190004EF06CFE28004EF069FE0123029300235E
:10B1A000144C154A019300932021013320000AF02A
:10B1B000EBFA210011484EF059FE114911484EF0AA
:10B1C00055FE114911484EF051FE114911484EF0FB
:10B1D0004DFE28004EF04AFE30004EF047FE04B00F
:10B1E00070BDC046AC23071060B4061020B5061031
:10B1F00028B50610C0C002203CB406104CB506109D
:10B2000048B4061064B5061054B406107CB5061098
:10B2100094B506109CB50610F0B54E469146012235
:10B2200057464546DE461300E0B5034085B001931E
:10B230003F4B050798463F4B6D0F9A461B78AE0073
:10B240002B417419A40007008B460291A0441A42B6
:10B250005BD14B46002B02D1FA239B009946052077
:10B2600006F0F2FE08F02DFD0390484608F029FD97
:10B270008F21C90508F0E3FC011C039808F0CBFC02
:10B28000F421890508F0C4FC8321C90508F0D7FC26
:10B2900008F03EFD284B76199C460023274AB6004D
:10B2A000644466442360B360F3603261606023608D
:10B2B000019B002B24D1434659461B6801264B4075
:10B2C0001A4080235B0143441A6032002368042142
:10B2D0009A4313008022520194466444236038004C
:10B2E00007F01CF85346AE4052461B7833431370A8
:10B2F000012005B0F0BCBB46B246A946A046F0BD51
:10B30000029B0F4A1B049B46D5E7019B002B0CD0E8
:10B310000B049B460A4A434659461B684B401A4059
:10B3200080235B0143441A60E2E7044AF3E7C04626
:10B330000C00054004C1022000000540FFFF000092
:10B340000000FFFF10B5114C2368002B08D0104CF3
:10B350002368002B0CD00F4C2368002B10D010BD9D
:10B36000012051F0A5FC2060094C2368002BF2D18C
:10B37000012051F09DFC2060064C2368002BEED18B
:10B38000012051F095FC2060E9E7C046FCB60220A0
:10B39000E88A0220F08A022010B5144C01002378BC
:10B3A000002B22D1124807F0B9F90121122006F032
:10B3B000B5FF0121132006F0B1FF0121102006F096
:10B3C000ADFF012007F0ACFB0A4BC20218600A4B2C
:10B3D00080011A40094B1343A022D20594466044D1
:10B3E0000361074B43600123237010BD1AC1022083
:10B3F00000C0034040120020DD7F00FF1100080064
:10B4000008C003400B4B10B5186800280DD0FA2176
:10B41000890051F011FE012809D0002053F096F860
:10B42000054B010018004EF021FD002010BD012049
:10B43000FCE7C046FCB60220B4B50610054B10B5BB
:10B440001868002804D000230022002151F046FB98
:10B4500010BDC046FCB6022000B583B06B46012289
:10B46000D91D087002485EF06FFD03B000BDC046F4
:10B4700000C0034010B582B06B46DC1D0100012303
:10B48000220003485EF018FD207802B010BDC046CF
:10B4900000C0034070B51A4D0C002B68002B01DB77
:10B4A0001F2905D80100220016485EF04DFD70BD31
:10B4B000A022D20594469B0163441860D9611148CB
:10B4C00007F026FA011E0AD063011B1B9B001B1903
:10B4D000980107F08BFC012801D952F0EBFF0A4BD1
:10B4E00080219C462A6849049201624413680B42F9
:10B4F000FCD110220349CB681A42FCD1D7E7C046E1
:10B500004012002000C003401000005010B513008E
:10B510000A00010001485EF0CFFC10BD00C00340EE
:10B5200010B50100014807F097F910BD00C00340B5
:10B5300070B502250B4C0C4E636835602B40551ED0
:10B54000AA410138D2010243481E814189010A43C0
:10B55000CF21246862400A4004490A60044A13600B
:10B5600070BDC04600C0034004F0034000D003405B
:10B5700004E00340F0B5C64600B5134F0500386837
:10B580000C0090461E0082B000281AD0002918D066
:10B59000FA21890051F050FD012812D122004346C2
:10B5A00029000A48009605F065FD002304000022EA
:10B5B0000021386851F092FA200002B080BCB846F1
:10B5C000F0BD01246442F7E7E88A02204812002017
:10B5D000F0B5C64600B5134F050038680C0090461C
:10B5E0001E0082B000281AD0002918D0FA21890044
:10B5F00051F022FD012812D12200434629000A48B9
:10B60000009605F041FD0023040000220021386867
:10B6100051F064FA200002B080BCB846F0BD0124AD
:10B620006442F7E7E88A022048120020F0B5474656
:10B63000CE4680B51D001F4B060018680C00170091
:10B64000984683B0002831D000292FD0002D2DD06E
:10B65000FA21890051F0F0FC012827D1164B009007
:10B66000994622003B003100484605F003FD0028C2
:10B6700015DB00232A003100009348460A9B05F0A1
:10B6800003FD43460400002218680021002351F006
:10B6900025FA200003B0C0BCB946B046F0BD434611
:10B6A000002218680021002351F018FA0124644296
:10B6B000EFE7C046E88A0220481200200123D0228A
:10B6C00083401206002901D0536170479361FCE763
:10B6D000D02380221B0692045A617047D023802217
:10B6E0001B0692049A6170477047C04610B504006B
:10B6F0001C282DD80B1C642921D8DBB21804642126
:10B70000C01A07F073FB144B22071B78520F13412A
:10B710000121194215D093009B18104A9B009446B2
:10B720006344214216D00E4900041A6842400A4080
:10B73000802149018C4663441A60012010BD6423B6
:10B74000DBE7FA2281B292002000FFF765FDF4E703
:10B750000020F3E70349E8E704C102200C0005409C
:10B760000000FFFFFFFF000010B52A4C2378002BDC
:10B7700023D12949294806F0D1FF0121122006F0E2
:10B78000CDFD0121132006F0C9FD0121102006F096
:10B79000C5FD012007F0C4F9214BC2021860214BFE
:10B7A00080011A40204B1343A022D20594466044E6
:10B7B00003611E4B436001232370112006F044FEF9
:10B7C000D024802324069B0263620220636106F07A
:10B7D0003BFE04230320636206F036FE0823144A6E
:10B7E0006362127813420DD0124B134A1B68DB437D
:10B7F0001B0C1B041360D02304221B065A61043265
:10B800009A6110BDFA220D4992000720FFF704FD4E
:10B81000F1E7C0461AC10220A0ACB90300C0034042
:10B8200040120020DD7F00FF1100080008C0034027
:10B8300004C102204800054048100540FFFF0000F9
:10B8400010B5134C2378002B17D11249124805F07C
:10B85000E9FB0321142006F061FD0321152006F009
:10B860005DFD00220121142006F072FD002201215D
:10B87000152006F06DFD012323700E2006F0E4FD77
:10B88000D02380221B06D2015A625A6110BDC046E5
:10B89000FBC00220801A060048120020020030B5CA
:10B8A000034B32CB32C232CB32C212CB12C230BDCA
:10B8B00030740710020030B5024B32CB32C212CBCB
:10B8C00012C230BD50740710020030B5024B32CBAB
:10B8D00032C212CB12C230BD64740710020030B500
:10B8E000024B32CB32C212CB12C230BD7874071079
:10B8F000020030B5034B32CB32C232CB32C21B68AE
:10B90000136030BD8C74071010B5144C2378002BD5
:10B9100017D11349134805F085FB0321142006F0C5
:10B92000FDFC0321152006F0F9FC00220121142062
:10B9300006F00EFD00220121152006F009FD01236D
:10B940002370012006F080FDD02302221B069A629C
:10B9500001210022012006F0FBFC10BDFBC00220EB
:10B96000801A060048120020F0B557464E4645465C
:10B97000DE46E0B5264B85B09946264B264E019310
:10B9800002ABDD1D254B264F9A46264B9846FA23DF
:10B990009B009B4652F0C8FD4B461B68C31A5B4593
:10B9A00004D34B461860019846F090FE01210E200A
:10B9B0004BF05CFE00242A003068E1B246F04EFCF9
:10B9C000002820D12B78013B5A4253413B5501348A
:10B9D000102CF0D151463B7B09785A425341DAB2E0
:10B9E000994209D0434641461B780133DBB20B70C4
:10B9F000022B04D953461A70434600221A70322093
:10BA000052F058FDC6E70134102CD4D1E2E7C0460D
:10BA100074650220E0B50610709C02200BC1022064
:10BA2000F09C02200AC1022070B5474C86B02378F2
:10BA3000002B02D0002006B070BD10220021434828
:10BA400008F02CFA002046F013FB414D2860002836
:10BA500075D001AEFFF758FF3000FFF73FFF317898
:10BA6000286846F017FD061E5DD101236946237044
:10BA700028680233009346F07DFC2378002B4ED0DB
:10BA800000220321286846F069FB2378002B46D06A
:10BA90000D2369462868009346F06CFC2378002B40
:10BAA0003DD000220D21286846F058FB2378002B5A
:10BAB00035D00B2369462868009346F05BFC237859
:10BAC000002B2CD000220B21286846F047FB23785E
:10BAD000002B24D0862369465B002868009346F03B
:10BAE00049FC2378002B1AD00A236946FF332868C3
:10BAF000009346F03FFC2378002B10D08523694645
:10BB00005B002868009346F035FC2378002B06D0B4
:10BB100010236946FF332868009346F02BFC0D483C
:10BB20004EF0A4F986E746F0B7FD0B4B0100180074
:10BB30004EF09CF9052E05D8084B985D7BE7084828
:10BB40004EF094F9042076E70CC10220F09C02200C
:10BB5000709C02202CB6061014B60610BC74071098
:10BB6000F4B5061000B50D4B83B01A68002A01D059
:10BB700003B000BD01930123094900930948002344
:10BB8000C03252F0EBF8012803D007484EF06EF9AE
:10BB9000EEE706484EF06AF9EAE7C046209E02202A
:10BBA000E0B5061069B900107CB6061054B6061050
:10BBB000084B1B78002B0AD00F2806D8002904D088
:10BBC000054B1B5C00200B7070470320FCE7022034
:10BBD000FAE7C0460CC10220F09C022030B5104BA1
:10BBE00004001B7883B0002B16D00F2812D86B46A8
:10BBF0000021581D032208F051F90A4B01AD29001C
:10BC000018682C7046F0B6FB052807D8064B185C60
:10BC100003B030BD0320FBE70220F9E70420F7E77B
:10BC20000CC10220709C0220BC7407100D4A030056
:10BC3000127810B5002A11D00F280DD801394A42C8
:10BC40005141CAB208490868190046F087FA052828
:10BC500006D8064B185C10BD0320FCE70220FAE76B
:10BC60000420F8E70CC10220709C0220BC7407106D
:10BC7000042803D8024B8000C05870470148FCE7F5
:10BC8000A8740710C4A5061010B50623014A09F0D0
:10BC90007BFD10BDE0B6061010B5024802F086FD2F
:10BCA00010BDC0467C84022010B502F073FB10BDAD
:10BCB000002801D046230360004870470075071034
:10BCC00010B505484BF03CFB041E01D1200010BD0F
:10BCD00002484EF0CBF8F9E7C4740710F4B606102A
:10BCE00000487047847A07100020704710B5054857
:10BCF00046F0DEFC041E01D1200010BD02484EF0CB
:10BD0000B5F8F9E7787A0710BCC30610002801D00F
:10BD10001023036000487047F87A0710002070472E
:10BD200010B50C0082B0002905D06B46D91DFFF775
:10BD30003FFF002802D0012002B010BD6B46DB7926
:10BD4000013B5A4253412370F6E7C04610B5FFF756
:10BD50006DFF431E9841C0B210BDC04610B50548E6
:10BD600046F01EFD041E01D1200010BD02484EF019
:10BD70007DF8F9E7DC7A071014C40610002805D016
:10BD8000002903D0036900200B6070470120FCE705
:10BD90000020704710B5041E07D008484EF066F822
:10BDA00023690020002B02D010BD0120FCE70021F8
:10BDB00003484EF05BF80320F6E7C04638C506108E
:10BDC00064C5061070B50C0016001D0082B0002876
:10BDD0000BD007484EF04AF80023320000932000B1
:10BDE0002B0048F0C7FA02B070BD0120FBE7C04647
:10BDF00094C5061070B5002817D002698A4216D380
:10BE0000541A0461046247F047FD051E08D047F04C
:10BE10008FF8094B010018004EF028F8280070BD7B
:10BE2000210006484EF022F8F8E70125F6E704481D
:10BE30004EF01CF80325F1E728C6061000C60610D0
:10BE4000C8C50610002070470020704770B50C0070
:10BE5000002813D00161016247F01EFD051E08D0C5
:10BE600047F066F8064B010018004DF0FFFF280070
:10BE700070BD210003484DF0F9FFF8E70125F6E712
:10BE800028C6061000C6061070B5041E1BD0056932
:10BE900041614D192A000D484DF0E8FF2000256151
:10BEA000256247F0F9FC041E08D047F041F8084B22
:10BEB000010018004DF0DAFF200070BD2900054890
:10BEC0004DF0D4FFF8E70124F6E7C04650C606104F
:10BED00028C6061000C6061010B50B484DF0C6FF68
:10BEE0000A490B4847F080F8041E04D109484DF078
:10BEF000BDFF200010BD47F01BF8074B01001800E4
:10BF00004DF0B4FFF5E7C04678C60610AC840220B9
:10BF1000B87B0710A8C60610D8C60610F0B52A4C84
:10BF20008788A54405000100062268466C4607F094
:10BF3000BBFF002F29D1254B3220EB5A244DE38043
:10BF40000123AA6800219340D0221206536105F014
:10BF50005DFC0826002020211E4A93691942FCD16D
:10BF60002378013013600134B042F6D30822194916
:10BF70008B691A42FCD10123AA689340D022120691
:10BF8000936183239B009D44F0BD3E00A91D3A00B0
:10BF9000A01D07F089FF08360C4BB6B2EA5AA31968
:10BFA000991E0A70013B120A1A700123084D3220B3
:10BFB000AA6800219340D0221206536105F026FCA6
:10BFC000002EC7D1D2E7C046F4FDFFFF06020000F5
:10BFD0000069022000400340304BF0B546469846C9
:10BFE000D6464F4681234246C0B59B00D35C84466B
:10BFF0009A46002928D000258023A946284F294A9F
:10C00000DB00FB5ABC5A020008181D0001339B05D7
:10C0100016789B0DA34228D001327E559042F4D170
:10C020008022D200BB524B46002B15D15346002B29
:10C030000AD0802342469B00D0581B4C241A8C42C5
:10C0400000D90C00002C1AD1E0BCBA46B146A84673
:10C05000F0BD8022D200BB520122144BFA54114B86
:10C06000FC525346002BEFD0E3E70134A405013224
:10C07000A40D7E559042ECD00125A946C5E72200CB
:10C080006146404407F010FF802342469B00D2588F
:10C09000A4184246D45000231355D5E7488D0220FA
:10C0A000508F022002040000FF0100000404000081
:10C0B000F0B5DE46574645464E46E0B5C54CC64847
:10C0C000A5444DF0D3FE28ACC44D2000FFF710FC72
:10C0D00023002A0013CB13C213CB13C2E121012486
:10C0E0001B6849021360BE4806F020FC00230122B1
:10C0F0000821BB4806F0AAFC0121B94806F0E2FC81
:10C100002100AA68D02391401B069961E121B5481E
:10C1100049024DF0ABFE49F057FFB3484DF0A0FE89
:10C12000B24B0121B2481C704DF0A0FEB14BB24F92
:10C130000393B24BBA460B93B14BA94C0293B14B4C
:10C140000693B14B1B93B14B9B46B14B0893B14B3C
:10C150000493B14B0593B14B9846B14B4746994672
:10C16000B04B0D93B04B1193B04B1293B04B139354
:10C17000B04B1493B04B1593B04B1C93B04B1D9325
:10C18000B04B1E93B04B1F93B04B2093B04B0E930C
:10C19000B04B2593B04B0993B04B2693B04B2793EC
:10C1A000B04B1693B04B1793B04B1893B04B1993F9
:10C1B000B04B1A93B04B2193B04B2293B04B2393C7
:10C1C000B04B0C93B04B0793B04B2493B04B0F93F1
:10C1D00052F0AAF9FA22039B92001B68C31A9342F9
:10C1E0005AD2012104204BF041FA029B1B78002B0C
:10C1F00007D052F099F9069B1968A64B411A99424B
:10C2000050D849F0F7FE52F08FF900230600984607
:10C2100010253B8052F088F9801B632838D8A36929
:10C220001D4214D1A3691D42FCD142462368DBB2F2
:10C23000002A10D1AA2BEDD14A461370A93B3B80AE
:10C2400052F072F95346186001239846E2E7012044
:10C2500052F030F9DEE73A88511C398049468B5458
:10C2600052F062F9534618603B88052B06D94A46BE
:10C2700092881100083189B28B4225D252F054F9CC
:10C2800053461B68C01A6428DED90D984DF0EEFDA8
:10C290000A2052F00FF99BE7039B18600B9846F0B9
:10C2A00015FA9EE71B984DF0E1FD029B1B78002BD1
:10C2B00000D036E10023029A1370049A13605A46A4
:10C2C0001360059A13609CE74B4688468F211B68D4
:10C2D0008900B49326AB5B181A80002A00D026E1AF
:10C2E00043468E204B445A1E1278023B1B781202A2
:10C2F00013438000684A26A90918B4A88B5249F054
:10C30000EBFE051E52D1654A26AB9B181B78012B0C
:10C31000BED8634A26AB9B181B78622B00D110E174
:10C3200000D9C3E0602B00D148E2612B00D186E147
:10C33000012B00D17FE1062B00D060E18F2226ABDC
:10C3400092009B181B88032B00D873E2082B00D1A6
:10C35000E9E226A98C46534BFFA863441900042246
:10C36000DC3007F0A1FD0021FFABDC331E68339108
:10C370003296300000F0C4FB051E00D08CE2310084
:10C3800012984DF073FD00F031FC474A26AB9B1824
:10C3900010221B7801950095FF21FFA8DC3049F0A1
:10C3A00059FEFFA8DC30FFF7B9FD71E749F0D0FE78
:10C3B00001000F984DF05AFD3B4A302026AB9B18E8
:10C3C000012226A909181B780A70019232AA00924C
:10C3D0001122E1E71CF9FFFF14C7061000690220D3
:10C3E000004003402CC70610D9BF001006C1022030
:10C3F00070C7061078650220588B0220A0C706106F
:10C40000F4C0022088830220ACC706108C8302206F
:10C41000DCC706108083022084830220E8C002204B
:10C420006093022008C8061020C8061038C80610FD
:10C430006CC806108CC80610B8C80610E4C80610F0
:10C4400010C9061038C9061064C9061080C9061044
:10C45000A4C90610C8C9061080730220F4C90610CA
:10C4600024CA061058CA061078CA0610A0CA0610B8
:10C47000D8CA061010CB06103CCB061068CB0610AD
:10C4800088CB0610508F0220488D02209CCB0610CE
:10C49000C0CB061060EA000006020000390200006E
:10C4A0003A0200003E0200003B020000F02B00D1E7
:10C4B00054E1F12B60D0632B00D0A0E017984DF031
:10C4C000D5FC029B1B78002B00D17BE2049B1868F3
:10C4D000002800D0F6E15B461968059B1A68914276
:10C4E00000D1ABE119984DF0C1FC029B1B78002BE9
:10C4F00000D061E20023029A1370049A13605A4636
:10C500001360059A136022984DF0B0FCDD4A30208C
:10C5100026AB9B18062226A909181B780A70053A33
:10C5200053E75B46089819684DF0A0FCC2E64B46FD
:10C5300026A88446991DD44B6344180007F0B4FC28
:10C54000CEE623984DF092FC029B1B78002B00D086
:10C55000E3E10022029BCB491A70049B1A605B4600
:10C560001A60059B1A6026AB5B183D391B78FF39B2
:10C5700001920092103210E78F2226AB92009B1896
:10C580001E88002E30D026A98C46BF4B3200634453
:10C59000190032A807F088FC302226AB9B189D5565
:10C5A00080230126079A9B00D550984632A8043371
:10C5B000D6544DF027FA8123079A9B00B149D554F0
:10C5C00026AB5B181B78002800D0EAE1404611003A
:10C5D0001258002A00D1E0E192B201920091F122BA
:10C5E000DAE620984DF042FCA64A302026AB9B1894
:10C5F000032226A909181B780A70023AE5E6A14A27
:10C6000026AB9B181978B4A849F0C2FC002800D0CA
:10C610003EE69E4A26AB9B18197824984DF026FCDE
:10C62000984A302026AB9B18022226A909181B78AD
:10C630000A70013AC9E611984DF018FCA5E6029B74
:10C640001B78002B00D1F0E08F2226AB92009B18C4
:10C650001B88984651F068FF069B424618605B466F
:10C660001968059B52181B689A4200D982E1002381
:10C670000A934346002B68D0464601E0002E64D062
:10C68000049B1B689846802342465B019B1A1D1C35
:10C690009BB2B34200D9351C26AA94467A4B0A9A1B
:10C6A000634494460998ADB2634419002A0040449B
:10C6B00007F0FAFB0A9A4346AA1892B20A9280221D
:10C6C00004995B19761B0B60B6B252019342D5D325
:10C6D0005B461D68269829004DF0C8FBEFF31088D3
:10C6E00072B68021280049015DF01EFC80222800DE
:10C6F000099952015DF0F8FB88F310885B461D68CC
:10C7000080235B019C465B46002265441D60049BC0
:10C7100028001A60059B1B68984607F0D2FA5C490E
:10C7200007F08DFA1090404607F0CBFA011C1098E4
:10C7300007F071FA07F0F2FA4246009001912900E1
:10C7400027984DF093FB002E9AD14E4A26AB9B18AA
:10C7500000221B780192009210321DE680230C9A71
:10C76000DB00D15A4B4BD25A914203D28023DB00DB
:10C770009C4661444348891A26AB1B1889B21B7832
:10C7800000294ED080250E1CAD00A94200D92E1CD8
:10C790000021B6B232A80C9D0131AD5C0132920588
:10C7A00089B20570920D01308E42F4D839490C9847
:10C7B000425232AA00920196F022EDE58F2226AB7A
:10C7C00092009B181B88032B00D80AE726A98C46E9
:10C7D0002D4B04226344190032A807F065FB329EFA
:10C7E000159831004DF042FB029B1D78002D00D0C2
:10C7F000BCE08022731E5203934200D39FE00123CA
:10C80000029A1370049B1D605B461D60059B1E60B1
:10C8100051F08AFE069B310018601E984DF026FBF1
:10C82000B3E5102201910091B6E50E984DF01EFB84
:10C83000169869E614984DF019FBD5E61A984DF054
:10C8400015FB0022029B0F491A7026AB5B18FFA84C
:10C850003D391B78FF3901920092DC30103249F0EB
:10C86000F9FBFFA8DC30FFF759FB642051F022FEF2
:10C8700021984DF0FBFA0A220021002005F0A4FEC9
:10C8800006E5C0463B0200003E0200003A020000FE
:10C890000000C8420204000000F06CFB0100139885
:10C8A0004DF0E4FA4F4A2F2026AB9B18032226A90D
:10C8B00009181B780A7026A98C46023A01922E327A
:10C8C000624484E55B461B6805009846099BFF218E
:10C8D0009C46FF358D432A1A604407F0DFFA424632
:10C8E000290018984DF0C2FAEFF3108672B6802333
:10C8F000049A5B0112685B1B934267D32A0040468F
:10C9000009995DF0F1FA86F310885B46049A1B687A
:10C9100012689B185A461360DDE55B460898196853
:10C920004DF0A4FA15E626A98C462F4B0822634445
:10C93000190032A807F0B8FA329E339919E5310090
:10C940001D984DF093FA1F984DF090FA254A2F202C
:10C9500026AB9B18072226A909181B780A70063AED
:10C9600026A98C4601920200624430E51C984DF0E5
:10C970007DFAE8E7424625984DF078FA029B1B784D
:10C98000002B29D10023029A16981370049A136081
:10C990005A461360059A1360B6E501920092102280
:10C9A000FAE42F20022226A909180A7026A90200FB
:10C9B0008C46019662440AE55B46089819684DF07A
:10C9C00055FA97E50E984DF051FA9CE580214046C6
:10C9D00049015DF0A9FA91E75B46089819684DF0A6
:10C9E00045FACFE73B0200003E02000030B50D4C97
:10C9F00083B02568002D04D00B484DF037FA03B002
:10CA000030BD0123C0220093084900230848019447
:10CA1000920051F0A3F90128F1D006484DF026FA12
:10CA20002560ECE758930220DCCB0610A0C7061067
:10CA3000B1C00010FCCB061010B5FFF76FFA10BDA7
:10CA400030B51C4B04001B788DB0002B2DD0002876
:10CA50002DD051F069FDFA21174B89001B6803ADF9
:10CA6000C01A06F0C3F90023020014490868496897
:10CA700012184B41290068460092019355F064FC5E
:10CA80000F4A00209446089B63442380079B013390
:10CA9000A370069BE370059B2371049B6371039B4A
:10CAA000A371099BE3710DB030BD0320FBE70220A9
:10CAB000F9E7C04607C10220608B022048530020DE
:10CAC0006C0700000B4B00201B78002110B5002BD9
:10CAD0000FD051F029FDFA21074B89001B68C01ABD
:10CAE00006F084F9002302000449086849688018A8
:10CAF000594110BD07C10220608B0220485300201D
:10CB0000F0B54546DE4657464E46E0B52F4D8DB052
:10CB10006B688B424EDC4AD002AC009001916846B3
:10CB2000210055F011FC2A4A079B944663449FB2AA
:10CB3000069B029A0133DEB2FF231A409246039A03
:10CB40001A409146049A1A409046059A1A40214B81
:10CB500093461B78002B37D00C22002108A807F041
:10CB60009DF91D4B20009C46534602934B46039370
:10CB7000434604935B466744013E05930797069638
:10CB800055F0EAFD6B688B4219DC15D0134B03C3DB
:10CB900051F0CAFC124B012218600020114B1A7090
:10CBA0000DB0F0BCBB46B246A946A046F0BD2B680E
:10CBB0008342B1D90420F3E72B688342E6D90A48BF
:10CBC0004DF054F90420EBE70320E9E7405300203F
:10CBD0006C07000007C1022094F8FFFF48530020B3
:10CBE000608B022008C102201CCC061030B5254CF9
:10CBF000A544254C2378002B3DD000F0FDFD0028F6
:10CC000037D02378002B05D1012420008F239B00EF
:10CC10009D4430BD51F088FCFA211C4B89001B68F3
:10CC2000C01A06F0E3F800230200194908684968B1
:10CC300012184B41029203931A43E5D015490A2278
:10CC400004A843F0C5FF011E17D1082201AB02A9B9
:10CC500004A844F025FA0500040004A844F0C2FB2F
:10CC6000002D02D1019B082BCFD029000A484DF09E
:10CC7000FDF80524C9E70324C7E708484DF0F6F896
:10CC80000524C2E7C4FDFFFF07C10220608B02201C
:10CC9000485300204CCC061090CC06105CCC0610FB
:10CCA00030B51E4CA54400F0A7FD002828D0012275
:10CCB0001B4904A843F08CFF002821D1082201ABB6
:10CCC00002A904A844F0F2F80400050004A844F006
:10CCD00089FB002C10D1019B082B0DD11149039B1E
:10CCE0004A6802989A4214DC10D00F4A09C251F0E7
:10CCF0001BFC0E4B186004E029000D484DF0B6F8FF
:10CD0000062420008F239B009D4430BD0A68824288
:10CD1000EBD908484DF0AAF80424F2E7C4FDFFFF60
:10CD20004CCC06104053002048530020608B02205A
:10CD3000BCCC0610E4CC0610F0B5CE46474680B514
:10CD4000714E97B03378002B05D0002017B0C0BCCF
:10CD5000B946B046F0BD6D480CAC4DF087F82422C2
:10CD60000021200007F09AF807AB69490093694851
:10CD700006AB05AA54F014FE674905A856F0F6FA6A
:10CD8000002800D1A0E0654905A856F0EFFA002878
:10CD900000D198E0624905A856F0E8FA002800D1D1
:10CDA00094E0604905A856F0E1FA002800D190E02F
:10CDB0005D4905A856F0DAFA002800D18CE05B49FD
:10CDC00005A856F0D3FA002800D188E0584905A8F4
:10CDD00056F0CCFA002800D184E0564905A856F058
:10CDE000C5FA002800D180E0534905A856F0BEFAE4
:10CDF00000287DD0514905A856F0B8FA00287AD00D
:10CE00004F4905A856F0B2FA002877D04D4905A839
:10CE100056F0ACFA002874D04B4A069B9446E36067
:10CE2000079B0AAD6344636108AA4849009509ABB2
:10CE3000474854F0B5FD089B2000A360099B636040
:10CE40000A9B0C9355F088FC424F0A903860796039
:10CE500028000B91210055F077FA3F4B61699C4601
:10CE60000C98A368FF259946614484466368207B3B
:10CE70002B402269644601934B4680462C40013288
:10CE80001D4089B24346D2B23448029400954CF01A
:10CE9000EDFFFFF705FF002808D131484CF0E6FF11
:10CEA0000123304833704CF0E1FF4EE72E484CF040
:10CEB000DDFF386879682D4B1860596051F034FBFC
:10CEC0002B4B1860ECE701202061A5E702202061D0
:10CED000A2E7032020619FE7042020619CE7052052
:10CEE000206199E70620206196E70720206193E7FB
:10CEF0000820206190E7092020618DE70A20206149
:10CF00008AE70B30206187E707C1022020CD061099
:10CF100044CD061048B4061050CD061054CD06106E
:10CF200058CD06105CCD061060CD061064CD0610FD
:10CF300068CD06106CCD061070CD061074CD0610AD
:10CF400078CD06107CCD061094F8FFFF80CD06103A
:10CF50008CCD0610405300206C07000098CD0610C1
:10CF6000CCCD061020CE0610F4CD0610485300207C
:10CF7000608B0220062803D8024B8000C0587047FF
:10CF80000148FCE7F07B071044CE061000487047CC
:10CF900060EA000010B500F02FFC10BD30B51A4C4F
:10CFA0000500A54400F028FC00281DD0002D21D04C
:10CFB0000122164904A843F00BFE002814D10822D0
:10CFC00001AB02A904A843F071FF040004A844F0D7
:10CFD00009FA002C0ED1019B082B0BD1039B029A5E
:10CFE000002B09DD0CC500E0022420008F239B00EC
:10CFF0009D4430BD0124F8E7002B02D104498A4248
:10D00000F0D80324F1E7C046C4FDFFFFA4CE06100C
:10D01000FFE00B5E10B5194CA5440090019100F0A3
:10D02000EBFB002828D0019B002B1DDD0A221449B0
:10D0300004A843F0CDFD002804D001208E239B00DE
:10D040009D4410BD0822694603AB04A844F028F8AB
:10D05000040004A844F0C6F9002CEED10398083867
:10D06000431E9841C0B2E9E7002B03D1054B009A5B
:10D070009A42DBD80320E1E70220DFE7C8FDFFFF8B
:10D08000A4CE0610FFE00B5E10B5054849F06CF821
:10D09000041E01D1200010BD02484CF0E7FEF9E764
:10D0A0000C7C0710B0CE0610F8B5CE464746234894
:10D0B00080B54CF0DBFEFFF73FFE002836D151F083
:10D0C00033FA1F4B1F4E9946FA239B0098461E4F7A
:10D0D000306051F029FA3B68C31A43451CD2012144
:10D0E00003204AF0C3FA49F069F8050051F01CFA30
:10D0F00033680400C31AAB4204D349F06FF8002828
:10D100000FD13460FA20800051F0D4F951F00CFABC
:10D110003B68C31A4345E2D33860484645F0D6FA27
:10D12000DDE7FFF7CFFC49F02FF8EAE7FFF722FF32
:10D13000064B010018004CF099FEC0E7F0CE061037
:10D1400034CF06105C8B02207C6502200CCF0610C9
:10D1500030B50D4C83B02568002D04D00B484CF041
:10D1600085FE03B030BD01238022009308490023CF
:10D1700008480194920050F0F1FD0128F1D00648D2
:10D180004CF074FE2560ECE75C93022038CF06106B
:10D190005CCF0610A9D0001068CF0610F0B5DE46AF
:10D1A00057464E464546E0B5CB4CA54451F0BCF938
:10D1B000CA4B27909A461B68002B00D1E1E2C84B6E
:10D1C00099461B68002B00D1E7E20023C54CFA27E3
:10D1D000237051F0A9F96060C3484CF047FEC34B7F
:10D1E000C34E0693C34BBF009846C34B0E93C34B2D
:10D1F0001293C34B1C93C34B2193C34B0B93C34B51
:10D200001393C34B0F93C34B2493C34B2293C34B32
:10D210000993C34B1F93C34B2593C34B1E93C34B1F
:10D2200019934CAB9B46C24B1A93C24B1B93C24BF8
:10D230001593C24B2093C24B1893C24B1693C24B0B
:10D240001093C24B1193C24B0793C24B0C93C24B2A
:10D250001D93C24B1493C24B2393C24B0893C24BF2
:10D260001793C24B0A9351F05FF93368C31ABB425C
:10D2700055D2012100204AF0F9F951F055F96368BF
:10D280002178C01AA060052900D91BE14346890016
:10D290005B589F4604254B461868002819D0002289
:10D2A0002DA94FF03BFE012813D1237C002B0DD07C
:10D2B00053461868002806D0FA2189004FF0BCFEBA
:10D2C000012800D15EE107984CF0D0FD013D002D12
:10D2D000E1D1A74BA2689A4217D949F0D7F9051EA8
:10D2E00000D11AE251F020F960600EE06378012B62
:10D2F00000D1DAE1FA23DB00984206D39D4B23806C
:10D3000051F012F900236060A360642127A851F056
:10D310007FF851F009F93368C31ABB42A9D33060D2
:10D32000069845F0D3F9A4E700232374089B1D78E1
:10D33000002D00D1BFE1904B9842E6D9012117980A
:10D340004CF094FDCEE749F035F8051E00D07DE1A4
:10D350000E984CF08BFD74A849F026FB2378E5600D
:10D36000022BD2D063700223237051F0DDF8A56048
:10D370006060CAE70123B842C1D2C6E70B9D012213
:10D3800029007E4843F0E2FB011E00D075E11398AE
:10D390004CF06CFD29AB190028AA280044F082F952
:10D3A0000F984CF063FD02F0CBFF0100022800D182
:10D3B000C4E1002800D0ACE10999322274A843F0FE
:10D3C00007FC011E00D085E151F0AEF805002BA846
:10D3D000FFF736FB002805D120AB9B8D684A9342AE
:10D3E00000D9AFE12B0020211E9A2DA808F0CCF91E
:10D3F0008021199A2DAB584608F0C6F9584656F0C8
:10D4000001F8594602002AAB74A843F049FE802176
:10D410001A9A2DAB584608F0B7F9584655F0F2FF66
:10D42000594602002AAB74A843F03AFE159D8021AC
:10D430002B00103B1B9A009358462DAB019508F02A
:10D44000A3F9584655F0DEFF2AAB0200594674A8EE
:10D4500043F026FE2B00173B5A79189B002A00D078
:10D46000209B8021169A009358462DAB08F08CF92A
:10D47000584655F0C7FF594602002AAB74A843F03E
:10D480000FFE74A843F0AEFF01230025109823740B
:10D49000E5604CF0EBFC4AF0D1F8002805D00223FF
:10D4A00000220021009552F011FB2378032B00D1BC
:10D4B0002BE763700323237051F036F8002360607C
:10D4C000A36022E70A984CF0D1FC2378042B00D10A
:10D4D0001BE763700423EEE704FCFFFF7CB402202B
:10D4E00090B4022094B40220F8CF061014D0061095
:10D4F00088650220207C071020D0061050D006102E
:10D5000080D00610C0D00610F0D00610F4D006105F
:10D5100024D1061054D1061084D10610ACD10610C7
:10D52000C0D10610F4D1061014D2061018D206107D
:10D5300040D2061060D20610938402208CCF0610D1
:10D5400094CF061084D2061094D20610C4D20610CE
:10D55000F0D206104C8B02202CD3061048D30610B4
:10D5600064D30610F1C00220A0D30610F0D3061039
:10D570000F270000020500005FEA0000A8B40220A7
:10D58000E40700003222099974A843F021FB002827
:10D5900054D12BA8FFF754FA50F0C6FFFA218900A6
:10D5A00005F024FC0C9820AB9A8D03880D919342D2
:10D5B00004D120ABD98D4388994218D02F2120ABBC
:10D5C0005B181B780139019220AA52181278723127
:10D5D000009258461D9A08F0D7F8594602002AAB27
:10D5E00074A843F05DFD0C9B2BAA03CA03C3302231
:10D5F000322120AB9B182EAA1B7803920D9A584615
:10D60000029220AA521812780139019220AA5218C7
:10D6100012786D310092149A08F0B6F859460D232D
:10D6200002000B540B180A210232597074A8594693
:10D630002AAB43F035FD74A843F0D4FE53460022D4
:10D640000021186800234FF049FA3FE649F0C2FA7A
:10D65000010012984CF00AFCE5680135E560002DE8
:10D660004CD12378052B00D14FE66370052323703E
:10D6700050F05AFFA560606047E611984CF0F6FB49
:10D680004D4D143DEB6801330D93EB60002B25D11C
:10D690002B78052B00D138E66B7005232B7050F0EA
:10D6A00043FF0D9B6860AB602FE6444B984200D867
:10D6B0002BE6434B23E649F0C1FF002805D00223A7
:10D6C00000220021009552F001FA0123089AA06877
:10D6D000137030E61F984CF0C9FBD5E61C984CF04F
:10D6E000C5FB2B78042B00D10FE66B7004232B7045
:10D6F00050F01AFF00236860AB6006E61C984CF0FF
:10D70000B5FB21984CF0B2FB2378042B00D1FCE54B
:10D71000DFE622984CF0AAFB4EE623984CF0A6FBDD
:10D7200023782574E560012B00D1DBE563700123CC
:10D73000237050F0F9FEA5606060D3E524984CF0AA
:10D7400095FB39E6322120AA521812780139049249
:10D7500020AA521812780139039220AA521812787E
:10D760000139029220AA521812780139019220AA96
:10D77000521812780E3900922DA8259A08F004F854
:10D7800036E601204FF094FA53461860002800D086
:10D7900015E50C484CF06AFB11E500227C210820BD
:10D7A0004FF000F94B461860002800D00DE5064800
:10D7B0004CF05CFB09E5C046A8B4022087130000CA
:10D7C00001050000A0CF0610CCCF061000B5074B16
:10D7D00083B00193E02201230549009392000023C6
:10D7E000044850F0BBFA03B000BDC046DCB60220CE
:10D7F00014D006109DD10010014B187C7047C04614
:10D8000094B40220F0B5454657464E46DE46E0B594
:10D810009846C74BC74C1E7CA5440F00040015005A
:10D82000002E11D000280FD0002A0DD0C24B18684E
:10D830009A46002805D0FA2189004FF0FDFB012807
:10D840000DD0BE484CF012FB00263000EB239B00AD
:10D850009D44F0BCBB46B246A946A046F0BD10AB05
:10D860009B465A46B64B03CB03C21B7858461370EF
:10D8700055F0C8FD002F1DD00823DB1BDBB2089339
:10D88000B04B072709932B0025009946040040223E
:10D89000111B5A462B781019099A07F075FF089B3F
:10D8A0000234BB4204D0013FFFB20135002FEED15C
:10D8B0004D4620004021A44A091A584407F064FF4D
:10D8C0005946322260A843F083F9011E00D01FE1BF
:10D8D0000BAF3800FFF7B4F850F026FE3B88FA2172
:10D8E000994643468900069305F080FA0591802108
:10D8F000BB79964C04937B79220003933B794900D2
:10D900000293FB7820A80193BB7800934B4607F065
:10D910003BFF0AAB020020A960A843F0C1FB071E31
:10D9200000D000E1A968EB68049180210593EB88A1
:10D93000874A03936B79490002932B7920A80193BE
:10D940002B680DAC0093042307F01EFF0AAB020006
:10D9500020A960A843F0A4FB8021EB7E7D4A0493BC
:10D96000AB7E490003932B8B20A802936B69019334
:10D970002B690093052307F007FF0AAB020020A9DB
:10D9800060A843F08DFB2B23EB5C802104932A23BA
:10D99000EB5C714A03932B8D490002936B6A20A8BC
:10D9A00001932B6A0093062307F0EEFE0AAB0200F8
:10D9B00020A960A843F074FB80216B6B674A029337
:10D9C000AB6B490001932B6B20A80093082307F051
:10D9D000DBFE0AAB020020A960A843F061FB9C2398
:10D9E000EB58802101939823EB585D4A009349003E
:10D9F000102320A807F0C8FE0AAB020020A960A8E7
:10DA000043F04EFB6623EB5A802105936523EB5CC4
:10DA1000544A04936423EB5C490003936223EB5A5A
:10DA200020A802936023EB5A0193EB6D00930C2323
:10DA300007F0AAFE0AAB020020A960A843F030FB61
:10DA40006B6F802103932B6F474A02936C23EB5A31
:10DA500049000193AB6E20A80093052307F094FEC4
:10DA60000AAB020020A960A843F01AFB8423EB58FC
:10DA7000802103938023EB583C4A02937C23EB5A8A
:10DA800049000193AB6F20A80093062307F07CFEAA
:10DA90000AAB020020A960A843F002FB2900200085
:10DAA0000B22883106F000FA9423EB5AE7725BBA36
:10DAB0009BB2029393238021EB5C2D4A0094019347
:10DAC00049000C2320A807F05FFE20A902000AAB42
:10DAD00060A843F0E5FA274B20AA13CB13C213CB5F
