:020000041000EA
:1080000000B5324B2120586098680221884398605F
:10801000D860186158612E4B002199600221596186
:108020000121F02299502B491960012199603520D6
:1080300000F044F80222904214D00621196600F0A4
:1080400034F8196E01211966002018661A6600F0CE
:108050002CF8196E196E196E052000F02FF8012109
:108060000842F9D1002199601B491960002159602B
:108070001A491B48016001219960EB211966A02172
:10808000196600F012F80021996016491448016041
:108090000121996001BC002800D000471248134913
:1080A000086003C880F30888084703B5996A04206C
:1080B0000142FBD001200142F8D103BD02B5186690
:1080C0001866FFF7F2FF186E186E02BD000002403E
:1080D000000000180000070000035F0021220000DC
:1080E000F4000018222000A00001001008ED00E0BC
:1080F00000000000000000000000000074B24E7A92
:1081000000200420F7810010CB810010CD810010E9
:10811000C9810010C9810010C9810010C9810010F7
:10812000C9810010C9810010C981001091D60510C5
:10813000C9810010C9810010C5D605108FD805105F
:10814000C1810010C1810010C1810010C1810010E7
:10815000C1810010C1810010C1810010C1810010D7
:10816000C1810010C1810010C1810010C1810010C7
:10817000C1810010C1810010C1810010C1810010B7
:10818000C1810010C1810010C1810010C1810010A7
:10819000C1810010C1810010C1810010C181001097
:1081A000C1810010C1810010C1810010C181001087
:1081B000C1810010C1810010C1810010C181001077
:1081C000EFF30580103800BE00BE00BE00BE00BE4A
:1081D00000BE00BEF2EB88718CF30D10B0F30D10F1
:1081E0003882001090A31AE71E481F49086006C88D
:1081F00081F3088810471D480068002801D01948FD
:10820000F3E70DA40ECC002902D000F012F8F9E734
:108210001749184A002000E001C19142FCD11649DB
:108220008847164988471649884700BEFDE701C9B7
:1082300001C29A42FBD37047B0F30D10C00000207A
:108240005826002048190E100000042000000420C9
:1082500048190E1000100420001004200000000037
:10826000704700000000000008ED00E0000000D0B2
:1082700058260020B4720220016E0110B583001050
:10828000A36D0110F8B5C04606480749091A8B10BE
:10829000C90FC91810B5491003D0044B002B00D0EA
:1082A000984710BD582600205826002000000000E6
:1082B000054B10B5002B03D00449054800E000BF72
:1082C000FFF7E2FF10BDC04600000000544B012044
:1082D00000B8061080B582B000AF7860D0231B06CE
:1082E0007A685A61C046BD4602B080BD80B582B092
:1082F00000AF7860D0231B067A689A61C046BD46FD
:1083000002B080BD80B584B000AF78600A00FB1C6D
:108310001A7001227B689A401300FB60FB1C1B78DB
:10832000002B04D0FB681800FFF7D4FF03E0FB68C4
:108330001800FFF7DBFFC046BD4604B080BD80B526
:1083400082B000AF7860D0231B067A685A62C046BC
:10835000BD4602B080BD80B582B000AF7860D0234A
:108360001B067A689A62C046BD4602B080BD80B5E1
:1083700084B000AF78600A00FB1C1A7001227B6891
:108380009A401300FB60FB1C1B78002B04D0FB6899
:108390001800FFF7D4FF03E0FB681800FFF7DBFFCE
:1083A000C046BD4604B080BD80B500AFC046BD46E6
:1083B00080BD000080B500AF0021002013F03CFE1E
:1083C00006200AF04FFD01210620FFF7D0FF012112
:1083D0000620FFF797FF114B18000EF0B6FFFFF7CE
:1083E000E3FF0F4B18000EF0B0FF04F099F842F0D5
:1083F000F5FE57F035FD0B4B18000EF0A6FF0121DE
:10840000062046F0FFF8322008F0EBFF002106209E
:1084100046F0F8F8322008F0E4FFF0E700B8061064
:108420001CB806103CB8061080B500AF034B1B68A3
:108430005A1C024B1A60C046BD4680BD800C01200C
:1084400080B582B000AF786039600F4B18000EF035
:108450007CFF7A680D4B110018000EF0BBFF3B68E3
:10846000002B06D03A680A4B110018000EF0B2FF3C
:1084700003E0084B18000EF068FF074B18000EF0E1
:1084800064FF72B6FEE7C04658B806107CB8061006
:1084900090B80610A0B80610B4B8061080B500AFAA
:1084A000014B1800BD4680BD00BA061080B582B0F1
:1084B00000AF0200FB1D1A70024B1800BD4602B04F
:1084C00080BDC04614BA061080B588B000AF020067
:1084D000FB1D1A703B1D0A1C1A80FB1D1B78002B0C
:1084E00002D0032B0AD02DE0384B1968384B0222FA
:1084F00018000CF015FF0123FB6156E0354B1121EC
:10850000180014F0EBFE334B18005CF073FB030013
:10851000FB61FB691F2B01D91F23FB610023BB619A
:108520000BE02C4ABB69D3181978BB695A1C2A4B3B
:108530005200D152BB690133BB61BA69FB699A42EF
:10854000EFD332E0FB1D1B78052B01D9002339E066
:10855000FB1D1A781D4B9200D3583B613B69002BE1
:1085600001D100232EE03B6918005CF043FB0300BF
:10857000FB612023FB60FA69FB689A4201D9FB6822
:10858000FB6100237B610BE03A697B69D3181978A2
:108590007B695A1C104B5200D1527B6901337B61BD
:1085A0007A69FB699A42EFD3C046FB699BB20133FB
:1085B0009BB2DB189BB2C022920013439AB2064BC7
:1085C0001A80054B1800BD4608B080BD781D0020FC
:1085D000DED9002070BE0120DCD9002080B584B037
:1085E00000AFF860B9607A60FB68064A1A60BB6841
:1085F000054A1A607B68802292001A60C046BD4618
:1086000004B080BDF06800208057022080B584B09F
:1086100000AFF860B9607A60FB68064A1A60BB6810
:10862000054A1A607B68C02292001A60C046BD46A7
:1086300004B080BDA06A0020805F022090B585B0A4
:1086400000AF634B180051F017FE03F08DFD03F0EF
:108650000BFE44F0D5F80F243B1902221A7005F0E6
:108660003BFD031E12D05B4B180051F005FE3C1978
:1086700045F06AF80300237006F03EFE43F0EEF981
:10868000031E03D0544B180051F0F6FD0F243B1984
:108690001B78002B08D0514B180051F0EDFD3C1910
:1086A00044F078F8030023700F23FB181B78002B8D
:1086B0000DD144F023F80300BB60BB68D91DBB6833
:1086C00017331A00464B180051F0D6FD07E00F2370
:1086D000FB181A78434B1100180051F0CDFD44F0FF
:1086E0000DF803007B6005F0BBF87B688E229B5C75
:1086F000002B0AD003F05CFF031E03D03A4B01228B
:108700001A7102E0384B02221A717B688D229B5C41
:10871000002B09D004F0DAF8334B0122DA70334B26
:1087200019000D2042F086FD7B688A229B5C002B9D
:1087300009D000F0A5FB2C4B01221A702C4B19001C
:108740000B2042F077FD42F013FF0200294B1A6024
:10875000284B1B68002B12D004F09AF902F0D8FCC9
:108760007B688B229B5C002B09D049F059FA1E4B89
:1087700001225A70204B19000E2042F05BFD7B68ED
:108780008C229B5C002B09D003F0B6FA164B012219
:108790009A701A4B19000C2042F04CFD7B688F2216
:1087A0009B5C002B0BD004F089F906F0B7FD0E4B53
:1087B00001225A71124B1900042042F03BFD114B6B
:1087C000180051F059FDC046BD4605B090BDC046E9
:1087D00000BB061028BB061054BB061078BB061061
:1087E000B0BB0610DCBB0610E47C012010BC0610F8
:1087F000BCBA06102C4D01201CBC0610D8BA0610BD
:10880000F8BA061024BC061080B582B000AF020092
:10881000FB1D1A70FB1D1B78052B08D9FB1D1A7850
:10882000424B1100180051F027FD00237AE0FB1D98
:108830001B783F4AD35C012B0BD1FB1D1A783D4BB3
:108840009200D2583C4B1100180051F015FD002346
:1088500068E0FB1D1A78374B9200D258374B110055
:10886000180051F009FDFB1D1B78052B52D89A000A
:10887000334BD3181B689F4600F002FB2C4B0122A0
:108880001A70304B19000B2042F0D4FC012349E050
:1088900049F0C6F9264B01225A702B4B19000E20C5
:1088A00042F0C8FC01233DE003F026FA204B0122F0
:1088B0009A70264B19000C2042F0BCFC012331E0D9
:1088C00004F004F81A4B0122DA70214B19000D2034
:1088D00042F0B0FC012325E003F06AFE031E09D03C
:1088E000134B01221A711B4B19000F2042F0A2FCFE
:1088F000012317E0002315E004F0E0F806F00EFD78
:108900000B4B01225A71144B1900042042F092FCC7
:10891000012307E0FB1D1A78104B1100180051F0DD
:10892000ABFC00231800BD4602B080BD50BC061051
:10893000E47C0120901D002074BC061094BC06103D
:10894000B4BF0610BCBA06101CBC0610D8BA06107C
:1089500010BC0610ECBA0610F8BA0610B0BC06102F
:1089600080B582B000AF0200FB1D1A70FB1D1B78A2
:10897000052B01D900230AE0FB1D1A78064B920053
:10898000D258064B1100180051F076FC0023180055
:10899000BD4602B080BDC046901D0020D0BC061070
:1089A00080B582B000AF0200FB1D1A70FB1D1B7862
:1089B000052B01D9022303E0FB1D1B78024AD35C7F
:1089C0001800BD4602B080BDE47C012080B582B0B5
:1089D00000AF0200FB1D1A70FB1D1B78052B01D98F
:1089E000054B04E0FB1D1A78044B9200D358180085
:1089F000BD4602B080BDC046F8BC0610901D0020E8
:108A0000B0B58CB000AF43F079FE0300BB624A4BB7
:108A1000180051F031FC494B180051F02DFC484B27
:108A2000180051F029FC454B180051F025FC454B2E
:108A3000180051F021FC444B180051F01DFCBB6A9A
:108A40008A229B5C002B01D0404A00E0404A102360
:108A5000FB181A60BB6A8B229B5C002B01D03B4A3F
:108A600000E03B4A1023FB185A60BB6A8C229B5CD7
:108A7000002B01D0354A00E0354A1023FB189A60DC
:108A8000BB6A8D229B5C002B01D0304A00E0304A4B
:108A90001023FB18DA60BB6A8E229B5C002B01D08E
:108AA0002A4A00E02A4A1023FB181A61BB6A8F2267
:108AB0009B5C002B01D0254A00E0254A1023FB18BF
:108AC0005A613B1D234A13CA13C32F23FB180022EC
:108AD0001A701CE02F257B191A781F4B9200D15871
:108AE0007B191A781023FB189200D4587B191B7835
:108AF0001A4AD35C1A003B1D9200D3581848220032
:108B000051F0BAFB7B191A787B1901321A702F23A6
:108B1000FB181B78052BDDD9084B180051F0ACFB76
:108B2000104B180051F0A8FB0F4B180051F0A4FB9C
:108B3000C046BD460CB0B0BD00BD061004BD061059
:108B4000C4BD061008BE06103CBE0610FCBE0610D2
:108B500008BF0610A8BF0610901D0020E47C01206D
:108B600014BF061028BF061054BF0610B0B582B05F
:108B700000AF78607B681C0000231D00FA22920081
:108B80000023200029000CF0CFF902000B00100098
:108B90001900FA22920000230BF0C6FA02000B0023
:108BA0001300180057F0FEFBC046BD4602B0B0BD32
:108BB000F0B58DB002AF786053F042F8A24B1900C7
:108BC000012055F06FFE0200A04B1A609F4B1B68FE
:108BD000002B03D1002056F0C3FE31E153F004F81E
:108BE000692057F0DFFB322057F0DCFB25F01CFB3F
:108BF000974B18002EF00EF9964AA0235900964B79
:108C0000009313000322F02022F04CFC0200934B4F
:108C10001A60924B1B68002B08D18C4B1B68180004
:108C200056F072FB002056F09BFE09E18B4B1B684F
:108C3000002118001EF0A5FB884B186896235B01E5
:108C400087490022009200221DF01CFE15F08EF9CB
:108C500000F096FA002052F0DFFF53F021F97F4B2D
:108C60001B6818001DF02FFD0300FB6104E029F0D4
:108C700037FD052057F096FB53F00CF90200FB6915
:108C80009A42F4D3642057F08DFB2723FB1800226F
:108C90001A700DE02726BB191B78180052F0BCFF94
:108CA0001E2057F07FFBBB19BA19127805321A70D3
:108CB0002723FB181B78642BECD9642052F0ACFFFF
:108CC00057F02AF90300BB6057F026F90200654B04
:108CD0001A60644B1A68644B1A60624B1A68634BE3
:108CE0001A6057F019F90300BB61614B1B68BA6940
:108CF000D21AFA239B009A4206D35D4BBA691A60D6
:108D00005C4B180042F0ACFE01210B2042F0F0FB5E
:108D100057F002F903007B6143F0F0FC0200B82336
:108D20005B00D3583B61514B1B687A69D31A3A698F
:108D30009A4214D84D4B7A691A60444B1B680A2139
:108D4000180055F097FF0300012B08D100F038FA06
:108D50003E4B186800230022002155F0D1FC3B4B0C
:108D60001B68FA2252001100180055F083FF03001F
:108D7000012B03D00A2057F015FB60E005202DF0F1
:108D8000F5FF43F0BBFC0200B2235B00D358FA228C
:108D9000910018000BF08AF90300FB60364B1B783A
:108DA000002B07D1354B1B68FA689A4202D8324B28
:108DB00001221A7029F094FC03003B6257F0ACF8D2
:108DC0000200284B1B68D31AFA22910018000BF0FE
:108DD0006DF903001A00294B1A601C4B1868002318
:108DE0000022002155F08CFC3B6A642B06D943F02D
:108DF00085FC0200B0235B00D3583B623B6A042B26
:108E000001D805233B623B6A1C0000231D00FA22A7
:108E100092000023200029000CF086F802000B00CD
:108E200010001900FA22920000230BF07DF90200D5
:108E30000B000823FB181100180057F05BFA50E7ED
:108E4000BD460BB0F0BDC046F42A0120F02A012037
:108E50006D8B00106DBC0510F9BC051008110120C8
:108E6000602600208CBF0120C4100120B01001201A
:108E700038DA0020CCBF06109F72022078F2002062
:108E800080B584B004AF0C4B1B68002B11D1C023FC
:108E9000DB001A0009490A480A4B02930A4B019366
:108EA00001230093002356F007FD0200024B1A60D5
:108EB00000E0C046BD4680BD0C110120D0BF0610A9
:108EC000B18B0010E05400201011012080B582B059
:108ED00000AF002000F058F843F010FC03007B6066
:108EE000114B1B68002B08D00F4B1A687B689E3310
:108EF000FF331900100033F0D5FA7B689E33FF333F
:108F000019000A4B0B2218005AF07EFB084B38223E
:108F100000219954064B0022DA63054B00221A7295
:108F2000C046BD4602B080BD986C00200DF3012004
:108F3000E0F2012080B582B000AF0200FB1D1A7084
:108F4000BB1D0A1C1A70BB1D1B78002B01D003230C
:108F500016E0FB1D1B78042B0FD010DC032B0EDC5E
:108F6000022B06DA002B02D0012B04D007E00023ED
:108F700006E0012304E0022302E0042300E00023D2
:108F80001800BD4602B080BD80B584B000AF0200BD
:108F9000FB1D1A70FB1D1B78042B21D843F0AEFB80
:108FA0000300FB60FB1D1B785B01D133FF33FA68C4
:108FB000D318BB600C4B1B68002B12D0BB681B780E
:108FC000002B06D0084B1B680121180015F0CAFBC6
:108FD00007E0054B1B680121180015F058FE00E062
:108FE000C046BD4604B080BD986C002090B585B0E9
:108FF00000AF43F083FB0300FB60FA68E0235B00F3
:10900000D258594B1B689A421FD1FA68E2235B0081
:10901000D258564B1B689A4217D1FA68E4235B007A
:10902000D25C534B1B789A420FD1FA68CA23FF33A4
:10903000D25C504B1B789A4207D1FA68E6235B005A
:10904000D2584D4B1B689A4201D0012200E0002209
:109050000B203B181A701A7801210A401A703B182D
:109060001B7801225340DBB2002B79D1434B1B68A4
:10907000002B56D0414B1C68FA68E0235B00D358A4
:10908000180027F050F803001A003B1D111C19703E
:109090001104090E59701202120E9A703B1D002223
:1090A000196820001BF0E6F8344B1B680022FF21F2
:1090B00018001BF0F1F8314B1C68FA68E2235B00E2
:1090C000D358180027F02FF803001A0008203B1887
:1090D000111C19701104090E59701202120E9A70A7
:1090E0003B180022196820001BF0E0F8234B186899
:1090F000FA68E4235B00D35C002219001BF0F2F84D
:109100001E4B1868FA68CA23FF33D35C002219008B
:109110001BF0F2F8194B1B680022012118001BF00C
:10912000D7F8FA68E0235B00D2580F4B1A60FA6850
:10913000E2235B00D2580D4B1A60FA68E4235B000F
:10914000D25C0B4B1A70FA68CA23FF33D25C094B0E
:109150001A70FA68E6235B00D258074B1A6000E0E9
:10916000C046BD4605B090BDB41D0020B81D00200E
:10917000C01D0020C11D0020BC1D0020706C0020FF
:1091800080B582B000AF43F0B9FA03007B60FFF70F
:109190002DFF0A4B1B68002B08D0084B1A687B6810
:1091A0007E33FF331900100033F07CF90020FFF705
:1091B000EBFEC046BD4602B080BDC046986C0020A4
:1091C000F0B5C9B002AFFFF711FF43F097FA030003
:1091D000EC2108200A18D2191360704B00229A77EC
:1091E0000B18DB191B688A229B5C002B10D0002017
:1091F000FFF7D6FB0300012B0AD0684B9B7F5A1C5C
:10920000D1B2664A91771A00644B9B180022DA7734
:10921000EC2308229B18DB191B688B229B5C002B1C
:1092200010D00120FFF7BCFB0300012B0AD05B4BE1
:109230009B7F5A1CD1B2594A91771A00574B9B1801
:109240000122DA77EC2308229B18DB191B688C2299
:109250009B5C002B10D00220FFF7A2FB0300012B28
:109260000AD04E4B9B7F5A1CD1B24C4A91771A00C0
:109270004A4B9B180222DA77EC2308229B18DB1951
:109280001B688D229B5C002B10D00320FFF788FB0E
:109290000300012B0AD0414B9B7F5A1CD1B23F4A9D
:1092A00091771A003D4B9B180322DA77EC230822B2
:1092B0009B18DB191B688E229B5C002B10D00420AE
:1092C000FFF76EFB0300012B0AD0344B9B7F5A1C27
:1092D000D1B2324A91771A00304B9B180422DA77C8
:1092E000EC2308229B18DB191B688F229B5C002B48
:1092F00010D00520FFF754FB0300012B0AD0274BA9
:109300009B7F5A1CD1B2254A91771A00234B9B1898
:109310000522DA77214B9B7F5A1E9341DAB21F4B0D
:109320005A7747F0A3F80300E82208215218D2190F
:109330001360E7225318DE1946F084F803003370F7
:10934000E62308215B18DE1946F070F8030033703D
:10935000E72208215318DB191B78012B04D053187E
:10936000DB191B78032B01D1012200E00022E52349
:1093700008201B18DB191A701A7801210A401A708C
:10938000E7231B18DB191B78012B09D1E8231B18D5
:10939000DB191B68002B03D0012202E0E0F2012060
:1093A0000022E42308201B18DB191A701A78012107
:1093B0000A401A70E7231B18DB191B78012B0AD10E
:1093C000E8221318DB191B68002B04D0DD4B1218A0
:1093D000D2191268DA63E32308201B18DE1902F0A1
:1093E00011FD0300337056F097FD0300DC210820C7
:1093F0000A18D2191360E5221318DB191A78D24B18
:109400001A70D04B5B7A002B15D0E3231B18DB19A5
:109410001B7801225340DBB2002B0CD0C94B0A1839
:10942000D2191268DA60C74B01221A7402F00CFBE1
:109430000200C44B5A61C34BE32108268A19D21992
:1094400012785A72BF4B1B7C002B31D08B19DB1961
:109450001B7801225340DBB2002B29D0B94BDB68CB
:10946000DC229219D2191268D31A3B6000237B6068
:10947000FA2292000023386879680BF055FD02004B
:109480000B0010001900FA22920000230AF04CFE93
:1094900002000B001300D8229119C9190B6093190F
:1094A000DB191B68A94A934202D9A64B00221A7401
:1094B000A44B1B7801225340DBB2002B10D0E523D4
:1094C00008229B18DB191B78002B09D09D4B00222A
:1094D0001A749C4B00221A729A4B40220121995413
:1094E000984B1B78002B12D0E52308215B18DB1961
:1094F0001B7801225340DBB2002B08D0914BDC22B9
:109500005218D21912685A608E4B01221A728D4B72
:10951000E52108268A19D21912781A70894B1B7A0C
:10952000002B24D08B19DB191B7801225340DBB2AE
:10953000002B1CD043F0E2F80200B4235B00D358A8
:10954000D4218A19D21913607E4B5B68DC229219F0
:10955000D2191268D31A8A19D21912689A4206D8F7
:10956000FFF7B4FC0020FFF70FFD01F087FDD323C8
:1095700008201B18DE19E3210B18DB191A78E721E4
:109580000B18DB191B7811001800FFF7D3FC030040
:1095900033706F4B1B78D32208201218D21912781F
:1095A0009A4204D1674B40229B5C002B10D0D326FB
:1095B0000822B318DB191B781800FFF7E5FC644B91
:1095C0000822B218D21912781A70624BFF221A7050
:1095D00043F094F80300CC2208215218D2191360EA
:1095E0005D4B1B68002B5FD0002386267600721827
:1095F000D2191360E7235B18DB191B78012B1BD1F1
:1096000020235B18DB190C21180047F09FF8031E7C
:1096100025D0202308215B18D919504B0B221800A4
:1096200059F0F2FF474B3822002199544B4B082147
:109630007218D219136012E0424B1B7A0122534078
:10964000DBB2002B0BD0CC2308215B18DB191B6885
:109650009E33FF33862252005218D2191360862699
:1096600076000822B318DB191B68002B1CD0B31836
:10967000DB191A683A4B110018005BF06FFA031EF1
:1096800012D00822B318DB191968354B1F221800B5
:1096900059F0BAFF324B0022DA772F4B1B68304A61
:1096A0001100180032F0FEFE002384214900082634
:1096B0008A19D21913600820FF308319DB190022A0
:1096C0001A70E62332009B18DB191B780A2B09D18C
:1096D000244B16008A18D21913608319DB19012252
:1096E0001A70DEE0E72208215318DB191B78022BE1
:1096F00019D05318DB191B78032B14D0E62253180A
:10970000DB191B78012B0ED05318DB191B78022BA9
:1097100009D05318DB191B78032B04D05318DB191D
:109720001B78042B22D1104B84225200082152189E
:10973000D21913600823FF335B18DB1901221A705A
:10974000AFE0C046E0F201207872022087130000EB
:10975000A81D0020A91D0020986C00200DF30120F9
:1097600090100120DCBF0610E4BF0610E62308219C
:109770005B18DB191B78062B23D1CB235B18DE1972
:1097800045F05AFE03003370CB2308215B18DB1928
:109790001B78022B06D1CF4B842252005218D219CB
:1097A000136006E0CC4B8422520008215218D219D3
:1097B00013600823FF3308229B18DB1901221A705B
:1097C0006FE0E72308215B18DB191B78002B13D10E
:1097D000C24B1B7C01225340DBB2002B0CD0C04B90
:1097E000842252005218D21913600823FF335B18E9
:1097F000DB1901221A7054E0E72308229B18DB19B9
:109800001B78012B0CD1E6239B18DB191B78062B48
:1098100006D10823FF339B18DB1901221A7040E0A0
:10982000E72308229B18DB191B78042B06D1082399
:10983000FF339B18DB1901221A7032E0E72308225C
:109840009B18DB191B78012B12D1E8239B18DB191D
:109850001B68002B0CD1E6239B18DB191B780A2B05
:1098600006D00823FF339B18DB1901221A7018E079
:10987000E42308229B18DB191B78002B06D0082351
:10988000FF339B18DB1900221A700AE0934B1B7CF4
:10989000002B06D00823FF3308229B18DB19012276
:1098A0001A70904B1B68002B01D100F003FEE323DC
:1098B00008229B18DB191B78002B03D1874B1B7CDC
:1098C000002B01D0012200E00022CA2008268319C3
:1098D000DB191A701A7801210A401A707F4B402256
:1098E0009B5C002B0BD1804B1B78002B0ED0831977
:1098F000DB191B7801225340DBB2002B06D07B4BD7
:10990000012252421A607A4B00221A70764BCA2208
:1099100008215218D21912781A70E6225318DB194E
:109920001B78012B19D05318DB191B78022B14D08C
:109930005318DB191B78032B0FD05318DB191B7836
:10994000042B0AD0E7225318DB191B78022B04D012
:109950005318DB191B78032B01D1012200E00022F0
:10996000C92308201B18DB191A701A7801210A4034
:109970001A70E3231B18DB191B78002B03D002F0AD
:1099800063F8030001E0554B5B69C4220826911976
:10999000C9190B60C3208319DB199219D2191268F7
:1099A000511E8A411A70E3239B19DB191B78002B87
:1099B00004D08319DB191B78002B0CD1474B1B7C7F
:1099C000002B00D19CE0C32308229B18DB191B78D5
:1099D000002B00D194E0C92308215B18DB191B7808
:1099E00001225340DBB2002B00D189E0E3235B1856
:1099F000DB191B78002B03D002F026F8030001E0EE
:109A0000364B5B69BC2208269119C9190B60931962
:109A1000DB191B68642118000AF048FB0300B82119
:109A200030000A18D2191360304B1B680A18D2197B
:109A300012689A423BD02D4B0A18D21912681A604C
:109A40000A000B18DB191B68632B1AD81318DB19D3
:109A50001B680A2118000AF029FB03001E00B82227
:109A600008201318DB191B680A2118000AF01EFBD6
:109A70000B00204A20480093330010210DF09EF87F
:109A80000EE0B82308229B18DB191B680A21180076
:109A90000AF00CFB0300194A174810210DF08EF84C
:109AA000104B1B68144A1100180032F0FBFC0D4BE0
:109AB0001B680121180014F0C1FE031E01D100F043
:109AC000F8FC084B1B680121180014F04BFE00F055
:109AD000F0FCC046F0BF0610FCBF0610E0F201200B
:109AE00008C006109C6C0020B1720220C41D00202A
:109AF000B410012010C006109CDF00201CC006100E
:109B0000C92308229B18DB191B78002B29D0D84ABF
:109B1000D84B110018005BF021F8031E0FD0D64B74
:109B20001B68D34A1100180032F0BCFCD049D14B5D
:109B30000F22180059F068FDCE4B0022DA73CE4B8D
:109B40001B680121180014F079FE031E01D100F0FA
:109B5000B1FCC94B1B680121180014F003FE00F092
:109B6000A9FCE62308229B18DB191B78062B61D180
:109B700056F0D2F903007B67C04B1B687A6FD21A8C
:109B8000FA23DB009A4210D3BD4B1B785A1E934137
:109B9000DBB201225340DBB21A1C01231340DAB2BC
:109BA000B74B1A70B54B7A6F1A606B2308229B185B
:109BB000DE1945F041FC030033706B2308229B182B
:109BC000DB191B78022B01D1AE4B00E0AE4BFB66DC
:109BD000AB4B1B78002B01D0AC4B00E0FB6EBB669F
:109BE000BA6EA44B110018005AF0B8FF031E0FD034
:109BF000A14B1B68BA6E1100180032F053FCB96E0D
:109C00009C4B0F22180059F0FFFC9A4B0022DA738C
:109C1000994B1B680121180014F010FE031E01D19E
:109C200000F048FC944B1B680121180014F09AFDC9
:109C300000F040FCE42308229B18DB191B78002B62
:109C400038D0E8239B18DB191B68002B32D0E323A4
:109C50009B18DB191B7801225340DBB2002B29D063
:109C60008B4A844B110018005AF078FF031E0FD066
:109C7000814B1B68864A1100180032F013FC84499E
:109C80007C4B0F22180059F0BFFC7A4B0022DA738C
:109C9000794B1B680121180014F0D0FD031E01D17F
:109CA00000F008FC744B1B680121180014F05AFDE9
:109CB00000F000FC774B5B7F002B59D056F02CF95D
:109CC00003008022B9180B60724B9B6ABA181268A5
:109CD000D21AFA23DB009A4217D36E4B2C229B5CDC
:109CE0000133D9B26B4B2C2299546A4B2C229A5CCB
:109CF000684B9B7F9A4203D3664B2C2200219954D8
:109D0000644B8022BA1812689A62624B2C229B5CC8
:109D10001900772008268319DB195E4A5218D27F72
:109D20001A708319DB191B781800FEF74FFE030029
:109D3000BB67BB6F584AB81920210CF03FFF4E4B50
:109D40001B68BA191100180032F0ACFB4A4B1B68B3
:109D50000121180014F072FD031E01D100F0AAFBCE
:109D6000454B1B680121180014F0FCFC00F0A2FB1D
:109D700087235B00FB180822FF3208215218D219F2
:109D800012781A70E6225318DB191B78012B19D0B0
:109D90005318DB191B78022B14D05318DB191B78CE
:109DA000032B0FD05318DB191B78042B0AD0E722A2
:109DB0005318DB191B78022B04D05318DB191B78BE
:109DC000032B16D12A4B8422520008215218D21993
:109DD000136087235B00FB1801221A702F4B1B783E
:109DE00001225340DBB2002B06D02C4B01221A700B
:109DF00002E02A4B00221A70E62308229B18DB1986
:109E00001B780A2B52D156F087F8030084217A1868
:109E10001360234B1B687A181268D21AFA23DB00EE
:109E20009A4211D31F4B1B785A1E9341DBB2012279
:109E30005340DBB21A1C01231340DAB2194B1A70DB
:109E4000174B7A1812681A60164B1B78002B01D03A
:109E50000E4B00E0144B8422520008215218D219F4
:109E6000136087235B00FB1801221A70D0E2C04602
:109E7000E4BF0610B41001209C6C0020F8100120F3
:109E8000AA720220F0BF0610FCBF061024C0061004
:109E900030C00610E0F2012038C006108B7202209C
:109EA000F0100120A6720220DCBF0610E62308266F
:109EB0009B19DB191B78062B52D156F02DF80300A5
:109EC000882130000A18D2191360D04B1B680A1879
:109ED000D2191268D21AFA23DB009A4212D3CC4B61
:109EE0001B785A1E9341DBB201225340DBB21A1C8D
:109EF00001231340DAB2C64B1A70C44B0A18D219A8
:109F000012681A60872308229B18DE1945F094FA1C
:109F100003003370872308229B18DB191B78022B60
:109F200001D1BC4B00E0BC4B802208215218D21951
:109F30001360B74B1B78002B01D0B84B04E0802393
:109F400008229B18DB191B68842252000821521832
:109F5000D219136087235B00FB1801221A7057E2A5
:109F6000E72308215B18DB191B78002B12D1AC4BBF
:109F70001B7C01225340DBB2002B0BD0A94B842267
:109F800052005218D219136087235B00FB1801227C
:109F90001A703DE2E72308269B19DB191B78012B79
:109FA00058D1E6239B19DB191B78062B52D155F0AB
:109FB000B3FF0300B42130000A18D21913609A4B82
:109FC0001B680A18D2191268D21AFA23DB009A42C7
:109FD00012D3964B1B785A1E9341DBB20122534099
:109FE000DBB21A1C01231340DAB2904B1A708E4B6D
:109FF0000A18D21912681A60B32308229B18DE19B6
:10A0000045F01AFA03003370B32308229B18DB19BA
:10A010001B78022B01D17F4B00E07F4BAC22082143
:10A020005218D2191360814B1B78002B01D07B4B47
:10A0300004E0AC2308229B18DB191B688422520021
:10A0400008215218D219136087235B00FB180122E4
:10A050001A70DDE1E72308269B19DB191B78042B16
:10A0600037D155F059FF03008C2130000A18D2195E
:10A0700013606F4B1B680A18D2191268D21AFA23A0
:10A08000DB009A4212D36B4B1B785A1E9341DBB212
:10A0900001225340DBB21A1C01231340DAB2654B94
:10A0A0001A70634B0A18D21912681A60614B1B7838
:10A0B000002B01D0594B00E05F4B84225200082155
:10A0C0005218D219136087235B00FB1801221A7003
:10A0D0009EE1E72308269B19DB191B78012B3DD154
:10A0E000E8239B19DB191B68002B37D155F014FFAF
:10A0F0000300A82130000A18D21913604F4B1B68C7
:10A100000A18D2191268D21AFA23DB009A4212D323
:10A110004B4B1B785A1E9341DBB201225340DBB2FA
:10A120001A1C01231340DAB2454B1A70434B0A182C
:10A13000D21912681A60424B1B78002B01D0374BA2
:10A1400000E0404B8422520008215218D2191360BB
:10A1500087235B00FB1801221A7059E1E4230821D0
:10A160005B18DB191B78002B0BD0374B8422520075
:10A170005218D219136087235B00FB1801221A7052
:10A1800046E1274B1B7C002B00D141E187235B007C
:10A19000FB1801221A70E62308269B19DB191B788D
:10A1A0000A2B59D155F0B8FE0300902130000A184F
:10A1B000D2191360254B1B680A18D2191268D21ADB
:10A1C000FA23DB009A4212D3214B1B785A1E93418B
:10A1D000DBB201225340DBB21A1C01231340DAB276
:10A1E0001B4B1A70194B0A18D21912681A60184BB7
:10A1F0001B78002B01D0094B00E0164B8422520043
:10A2000008215218D219136002E1C0460011012042
:10A21000A9720220F0BF0610FCBF061024C0061071
:10A22000E0F2012008C00610EC100120A572022007
:10A23000DC100120A17202203CC00610E0100120B9
:10A24000A272022044C0061030C00610F410012093
:10A25000A7720220DCBF0610E62308269B19DB1933
:10A260001B78062B4DD155F057FE03009C21300082
:10A270000A18D2191360B94B1B680A18D219126850
:10A28000D21AFA23DB009A4212D3B54B1B785A1E1E
:10A290009341DBB201225340DBB21A1C012313406D
:10A2A000DAB2AF4B1A70AD4B0A18D21912681A60A5
:10A2B0009B2308229B18DE1945F0BEF8030033707B
:10A2C0009B2308229B18DB191B78022B01D1A54B7D
:10A2D00000E0A54B942208215218D2191360A04B1C
:10A2E0001B78002B01D0A14B04E0942308229B187B
:10A2F000DB191B688422520008215218D2191360FE
:10A3000086E0E72308215B18DB191B78002B06D1B8
:10A31000974B842252005218D219136078E0E72339
:10A3200008269B19DB191B78042B32D155F0F4FD5C
:10A330000300A02130000A18D21913608D4B1B684E
:10A340000A18D2191268D21AFA23DB009A4212D3E1
:10A35000894B1B785A1E9341DBB201225340DBB27A
:10A360001A1C01231340DAB2834B1A70814B0A186E
:10A37000D21912681A60804B1B78002B01D07B4BDE
:10A3800000E07E4B8422520008215218D21913603B
:10A390003EE0E72308269B19DB191B78012B37D1F8
:10A3A000E8239B19DB191B68002B31D155F0B4FD54
:10A3B0000300A42130000A18D2191360704B1B68E7
:10A3C0000A18D2191268D21AFA23DB009A4212D361
:10A3D0006C4B1B785A1E9341DBB201225340DBB217
:10A3E0001A1C01231340DAB2664B1A70644B0A1828
:10A3F000D21912681A60634B1B78002B01D05B4B9B
:10A4000000E0614B8422520008215218D2191360D7
:10A4100087235B00FB181B78002B36D08426760040
:10A420000822B318DB191B68002B2ED0B318DB19D8
:10A430001A68564B110018005AF090FB031E15D0F5
:10A44000534B1B680822B118CA1912681100180072
:10A4500032F028F80822B318DB1919684B4B0F2289
:10A46000180059F0D1F8494B0022DA73484B1B68A9
:10A470000121180014F0E2F9031E1BD0444B1B68A5
:10A480000121180014F06EF914E0414B1B68012102
:10A49000180014F0D3F903001A0001235340DBB273
:10A4A000002B07D03A4B1B680121180014F0EFFB7A
:10A4B00000E0C046E82208201318DB191B6884213D
:10A4C000490079180B6001005318DB191B68002B39
:10A4D00022D1304BDB6B002B1ED0E6225318DB1948
:10A4E0001B780A2B12D05318DB191B78062B0DD0C2
:10A4F000284B1B7C002B09D1E3235B18DB191B784D
:10A50000002B03D1234B1B7A002B05D0214BDB6B97
:10A5100084225200BA1813601F4B1B68002B00D115
:10A520006FE25F2108200B18DB19E3221218D21901
:10A5300012781A7002008B18DB191B78002B05D1DA
:10A54000E5239B18DB191B78002B27D0FF2308225B
:10A550009B18DB1902221A7026E0C046FC1001206D
:10A56000A8720220F0BF0610FCBF061024C006101F
:10A5700008C00610E8100120A47202203CC006109A
:10A58000E4100120A372022044C00610B410012080
:10A590009C6C0020E0F20120806C0020FF23082248
:10A5A0009B18DB1903221A70DA4B1B78FF22082153
:10A5B0005218D21912789A4204D1D74B40229B5C90
:10A5C000002B0ED0D54B012252421A60D44B0122EF
:10A5D00052421A60CF4BFF2208215218D21912782A
:10A5E0001A70FE2308215B18DB1900221A70E4237D
:10A5F0000A009B18DB191B78002B05D0E8239B1859
:10A60000DB191B68002B06D15F2308229B18DB197E
:10A610001B78002B06D0FE2308229B18DB19012291
:10A620001A7031E0E72308215B18DB191B78002B37
:10A6300013D1B94B1B7C01225340DBB2002B0CD051
:10A64000B54B1B7A01225340DBB2002B05D0FE2311
:10A650005B18DB1900221A7016E0B24B1B6801214F
:10A66000180014F0EBF803005A1E9341DBB20122EC
:10A670005340DBB21A00FE2308215B18DB191A7065
:10A680001A7801210A401A70FE2308229B18DB1950
:10A690001B78002B0ED0A34B1B680121180014F06F
:10A6A000CDF8031E19D09F4B1B680121180014F030
:10A6B00059F812E09B4B1B680121180014F0BEF8FA
:10A6C00003001A0001235340DBB2002B05D0954B49
:10A6D0001B680121180014F0DAFA5F2308229B1886
:10A6E000DB191B78002B5BD0E5239B18DB191B784B
:10A6F000002B55D0894B1B68842149007A181268B9
:10A700009A4200D17DE1854B7A1812681A607B1855
:10A710001A68FA239B009A4207D27B181B68824A68
:10A72000824810210CF04AFA32E0842149007B185B
:10A730001B687F4A93421CD87B181B686421180051
:10A7400009F0B4FC03003B663B6E0A21180009F0D7
:10A75000ADFC03001E003B6E0A21180009F0A6FCA8
:10A760000B00744A71480093330010210CF026FA54
:10A770000EE084235B00FB181B68FA22910018008E
:10A7800009F094FC03006C4A684810210CF016FA9A
:10A79000644B1B68654A1100180031F083FE30E1FC
:10A7A0005F2308215B18DB191B78002B00D173E0B5
:10A7B000594B1B7A002B0AD0574BDB6B002B06D072
:10A7C000554BDB6BF8225218D219136007E001F0E9
:10A7D00005FB0300F82208215218D21913604F4BD1
:10A7E0001B68F82108200A18D21912689A4200D171
:10A7F00007E14A4B0A18D21912681A600B18DB19C4
:10A800001A68FA239B009A4208D20B18DB191B68BE
:10A81000454A464810210CF0D1F935E0F8210820CE
:10A820000B18DB191B68424A93421DD80B18DB1921
:10A830001B686421180009F039FC0300BB65BB6D7F
:10A840000A21180009F032FC03001E00BB6D0A212A
:10A85000180009F02BFC0B00364A344800933300F3
:10A8600010210CF0ABF90FE0F82308229B18DB193C
:10A870001B68FA229100180009F018FC03002E4A08
:10A880002A4810210CF09AF9264B1B68274A110020
:10A89000180031F007FEB4E0E42308215B18DB194F
:10A8A0001B78002B12D1E6225318DB191B78062BDC
:10A8B0000CD05318DB191B780A2B07D0164B1B7CC6
:10A8C000002B03D1144B1B7A002B72D0842149003A
:10A8D0007B181B68002B6CD0104B1B687A18126811
:10A8E0009A4200D18DE00D4B7A1812681A600C4B19
:10A8F000012252421A607B181A68FA239B009A427E
:10A900001CD27B181B68084A084810210CF056F925
:10A9100047E0C0468A720220E0F20120AC1D002010
:10A92000B01D0020806C002050C00610ACDD00205F
:10A930000F27000010C006101CC00610842149001B
:10A940007B181B68CC4A93421CD87B181B68642177
:10A95000180009F0ABFB0300FB65FB6D0A21180032
:10A9600009F0A4FB03001E00FB6D0A21180009F08A
:10A970009DFB0B00C14AC2480093330010210CF02C
:10A980001DF90EE084235B00FB181B68FA2291007E
:10A99000180009F08BFB0300BA4AB94810210CF0EB
:10A9A0000DF9B94B1B68B64A1100180031F07AFD59
:10A9B00027E0E72308229B18DB191B78002B20D106
:10A9C000B24B1B7C01225340DBB2002B19D0AF4BA2
:10A9D0001B7A01225340DBB2002B12D0AC4B1B6818
:10A9E00002330ED0AA4B022252421A60A94B012216
:10A9F00052421A60A44B1B68A74A1100180031F09C
:10AA000051FDA64B1B68002B00D174E0A44B1B68C2
:10AA1000F42208215218D21913609C4B40229B5CEF
:10AA2000002B03D09E4B012252421A60E5230826D8
:10AA30009B19DB191B78002B2AD045F029FD030058
:10AA40007B657B6D002B3DD0E8239B19DB191B68D0
:10AA500064225343796D180009F028FB0300F422A7
:10AA60009119C9190B609319DB191B68002B03DAC4
:10AA700000239219D2191360F42208215318DB190C
:10AA80001B68642B1EDD64235218D219136019E071
:10AA9000E72308215B18DB191B78002B12D17B4BB5
:10AAA0001B7C01225340DBB2002B0BD0774B1B7A6F
:10AAB00001225340DBB2002B04D00023F4225218B1
:10AAC000D2191360764B1B68F42108200A18D2199A
:10AAD00012689A420FD0714B1B680E000A18D219E7
:10AAE0001168002218002DF03FFA6D4B0820321833
:10AAF000D21912681A606B4B1B68002B00D153E10E
:10AB0000624B40229B5C002B02D0674B00221A70E4
:10AB1000E42308229B18DB191B78002B05D0E823BF
:10AB20009B18DB191B68002B06D1E32308229B1816
:10AB3000DB191B78002B2CD0E82308229B18DB198B
:10AB40001B68002B02D1514BDB6B04E0E823082289
:10AB50009B18DB191B683B653B6D544A934206D832
:10AB6000F32308229B18DB1901221A7042E03B6D87
:10AB70004F4A934206D8F32308229B18DB1902227E
:10AB80001A7037E0F32308229B18DB1903221A708E
:10AB900030E0E72308215B18DB191B78002B13D169
:10ABA0003A4B1B7C01225340DBB2002B0CD0374BBD
:10ABB0001B7A01225340DBB2002B05D0F3235B1834
:10ABC000DB1904221A7015E0374B1B78002B0BD0D1
:10ABD000354B1B78042B07D0F32308229B18DB1975
:10ABE000314A12781A7005E0F32308229B18DB190A
:10ABF00004221A702C4B1B78F32108200A18D21952
:10AC000012789A4200D1CFE00B18DB191B78042B85
:10AC100000D9C2E09A00274BD3181B689F46214BEE
:10AC20001E68CC231B04180025F07DFA03001A00CF
:10AC30002C200823C118CB19111C19701104090EFE
:10AC400059701202120E9A700823C318DB190022E1
:10AC50001968300019F00EFB124B1B680121180017
:10AC600013F0ECFD031E00D190E00E4B1B68012198
:10AC7000180013F077FD89E00F27000010C00610C0
:10AC8000ACDD00201CC00610806C0020E0F201202A
:10AC9000AC1D0020B01D002058C00610746C0020B0
:10ACA000C81D0020786C002089720220973A0000AD
:10ACB0001F4E000060C00610D74B1E68D74B18000F
:10ACC00025F031FA03001A0030200823C118CB19EF
:10ACD000111C19701104090E59701202120E9A708B
:10ACE0000823C318DB1900221968300019F0C2FAD2
:10ACF000C94B1B680121180013F0A0FD031E47D0AB
:10AD0000C54B1B680121180013F02CFD40E0C24B1D
:10AD10001E68C34B180025F006FA03001A00342001
:10AD20000823C118CB19111C19701104090E597090
:10AD30001202120E9A700823C318DB190022196838
:10AD4000300019F097FAB44B1B680121180013F07A
:10AD500075FD031E1ED0B04B1B680121180013F0B7
:10AD600001FD17E0AC4B1B680121180013F066FDD4
:10AD700003001A0001235340DBB2002B0CD0A64B7A
:10AD80001B680121180013F082FF05E0C04604E0B3
:10AD9000C04602E0C04600E0C046A24BF3220821B4
:10ADA0005218D21912781A709F4B1B68002B00D1D1
:10ADB00060E19E4B40229B5C002B02D09C4B00220A
:10ADC0001A709A4B5B7F002B06D0F22308229B1847
:10ADD000DB1902221A705FE0E72308229B18DB19B7
:10ADE0001B78002B05D1F2239B18DB1900221A7067
:10ADF00052E0E72308229B18DB191B78012B0BD1AB
:10AE0000E4239B18DB191B78002B05D0F2239B1839
:10AE1000DB1901221A703FE0E72208215318DB19E1
:10AE20001B78022B21D05318DB191B78032B1CD065
:10AE30005318DB191B78042B17D05318DB191B7818
:10AE4000012B05D1E8235B18DB191B68002B0CD004
:10AE5000E72308229B18DB191B78012B0CD1E62372
:10AE60009B18DB191B78062B06D1F22308229B18AE
:10AE7000DB1902221A700FE0E52308229B18DB1968
:10AE80001B78002B02D06A4B1A7800E00022F223D4
:10AE900008215B18DB191A70F22308229B18DB19B2
:10AEA0001B78022B00D079E0FA23FB6455F034F8CC
:10AEB0000300BB645D4B9B69BA6CD61AFB6C1C002B
:10AEC00000231D00FA2292000023200029000AF02E
:10AED0002BF802000B0010001900FA229200002348
:10AEE00009F022F902000B0013009E4200D2BAE0E2
:10AEF0004E4B1B7F5A1E9341DBB201225340DBB203
:10AF00001A1C01231340DAB2484B1A77474BBA6C2C
:10AF10009A61464B1B7F002B2BD0434B1C68FF23B1
:10AF20001B04180025F0FFF803001A00382008253C
:10AF30004319DB19111C19701104090E5970120202
:10AF4000120E9A704319DB1900221968200019F0BB
:10AF500091F9354B1B680121180013F06FFC031E9B
:10AF600000D180E0304B1B680121180013F0FAFB80
:10AF700079E02D4B1B680121180013F05FFC0300E2
:10AF80001A0001235340DBB2002B00D16BE0264BAB
:10AF90001B680121180013F07AFE64E0244B1B7833
:10AFA000F22108254A19D21912789A425BD04B191E
:10AFB000DB191B78022B51D055DC002B3AD0012B2A
:10AFC00051D1194B1C68FF231B02180025F0ABF868
:10AFD00003001A003C204319DB19111C19701104DD
:10AFE000090E59701202120E9A704319DB190022D1
:10AFF0001968200019F03EF90B4B1B68012118005D
:10B0000013F01CFC031E2BD0074B1B6801211800FA
:10B0100013F0A8FB24E0C046786C00200099FF00E4
:10B020000A82050089720220846C0020E0F201206F
:10B0300088720220134B1B680121180013F0FEFBDD
:10B0400003001A0001235340DBB2002B0AD00D4B42
:10B050001B680121180013F01AFE03E0C04602E04D
:10B06000C04600E0C046084BF22208215218D2190F
:10B0700012781A70054B402200219954BD4647B002
:10B08000F0BDC046846C002088720220E0F20120EE
:10B0900080B582B000AF7860D0231B067A685A6111
:10B0A000C046BD4602B080BD80B582B000AF7860BA
:10B0B000D0231B067A689A61C046BD4602B080BDA7
:10B0C00080B584B000AF78600A00FB1C1A700122C2
:10B0D0007B689A401300FB60FB1C1B78002B04D09C
:10B0E000FB681800FFF7D4FF03E0FB681800FFF7C8
:10B0F000DBFFC046BD4604B080BD000080B500AF98
:10B10000024B1B781800BD4680BDC04682720220EB
:10B11000B0B58AB000AF204B1022002118000AF011
:10B12000F9F81D4B00229A721C4B00221A7000F095
:10B13000C9FE3B1D180001F01CF83B1D1B69DAB26B
:10B1400027257C19164B1100180051F02BFA03002B
:10B1500023707B191B78002B0DD17C19104B180024
:10B1600051F0ACF8030023707B191B78002B02D13F
:10B170000C4B01221A7000F0EFFF03003B621F230B
:10B18000FC183B6A180040F0FDFB0300237000230D
:10B190001800BD460AB0B0BD9CF800207F720220A6
:10B1A000C00201208072022080B582B000AF45F05D
:10B1B00041F903007B607B68002B01D1002311E083
:10B1C0007B681A78597809020A43997809040A4376
:10B1D000DB781B0613431A00FB1C511E8A411A70B0
:10B1E000FB1C1B781800BD4602B080BD90B58DB029
:10B1F00000AF02003960FB1D1A70FB1D1B78012295
:10B200005340DBB2002B12D045F014F90300FB626F
:10B21000FB6A002B5AD0FB6A1A78597809020A4354
:10B22000997809040A43DB781B0613434ED0294B57
:10B23000FA1D12781A70284B3A681A6054F06CFEA6
:10B240000200264B1A60254B1A68244B5A60234B88
:10B2500001221A72214B0022DA60214B01221A705E
:10B260001E4B1A681F4B1A601C4B1A681E4B1A6043
:10B270001E4B00221A601E4B00221A601D4B00223A
:10B280001A701D4B1B78002B10D008243A191B4B49
:10B290001100180051F066F8031E07D13B19DA6857
:10B2A000174B1A603B19DA68164B1A6054F034FEDB
:10B2B0000200154B1A6000F0EFFDFB1D1B78002B00
:10B2C00005D145F0B7F80300BB6200E0C046BD46BB
:10B2D0000DB090BD83720220D00601209CF80020A2
:10B2E0007F720220F4030120F003012008040120F2
:10B2F00094F800207E72022080720220C002012099
:10B3000098F80020FC030120F803012080B500AF6D
:10B3100000210020FFF76AFFC046BD4680BD000047
:10B3200090B58DB000AF78600A00FB1C1A70274BF7
:10B330001B7A01225340DBB2002B42D1244BFA1C72
:10B3400012781A7000F0BEFD204B00221A72214BB9
:10B3500000221A700023FB621F4B1B78002B12D0B7
:10B360000C243A191D4B1100180050F0FBFF031E6E
:10B3700009D13B19DA681A4B1B68191C101C09F01B
:10B38000F0FD031CFB62174B1B78002B06D1164BFC
:10B390001B68002B02D0144B00221A60114B0022B4
:10B3A0001A70124B00221A60114B00221A70114BB6
:10B3B00000221A60104B00221A70044B00229A726D
:10B3C00000E0C046BD460DB090BDC0469CF80020D0
:10B3D000827202207F72022080720220C00201204D
:10B3E00098F800208372022008040120D006012072
:10B3F000847202200004012081720220F0B59FB007
:10B4000000AF78610023BB6600237B67B84B1B78D5
:10B41000002B36D00C261023F218D219B54B110090
:10B42000180050F09FFF031E2DD11023F318DB19D5
:10B43000DB68BB66B04B1B68191CB86E09F091FD48
:10B44000031C7B67AD4B1B68191CB86E09F0E8FD47
:10B45000031E18D0A94BBA6E1A6054F05DFD0200AD
:10B46000A74B1A60A74B1B78002B0CD0A64B1B7860
:10B4700001225340DBB2002B05D0A34B01221A70EE
:10B4800001E00123FBE154F047FD02009C4B1B68E7
:10B49000D31ABB600023FB60FA2292000023B86835
:10B4A000F96809F041FD02000B0010001900FA22B2
:10B4B0009200002308F038FE02000B0013007B66A8
:10B4C0007B6E924A93422DD9914B02211800FFF7CF
:10B4D00027FF904B1B7801225340DBB2002B1FD07B
:10B4E00044F07CFC031E1BD044F0A4FF0300FB646B
:10B4F000FB6C002B10D0FB6C1A78597809020A43B8
:10B50000997809040A43DB781B06134304D105200C
:10B5100045F002F9C04602E00A2045F0FDF8C046B9
:10B520000023ACE17B4B1B78002B24D0FC21890548
:10B53000786F09F01BFD031C181C09F09DFD02002B
:10B54000754BDA60754B1B68002B12D0734B1B6870
:10B55000180009F06AFD031C191C786F09F058FDEA
:10B56000031E06D06E4B00211800FFF7D9FE002302
:10B5700085E1012383E144F05DFF03003B663B6E00
:10B58000002B01D101237AE1FC218905786F09F0B4
:10B59000EDFC031C181C09F06FFD0300FB65002384
:10B5A0003B675D4BDB68FA6D9A4204D95A4BDB6806
:10B5B000FA6DD31A3B673B6E1A78597809020A4331
:10B5C000997809040A43DB781B0613431A003B6F82
:10B5D00093420BD93B6E1A78597809020A4399783D
:10B5E00009040A43DB781B0613433B673B6F002BC0
:10B5F00042D02C2610203318DA193B6E10001900A7
:10B6000010231A0009F08CFE310010200B18DB19F2
:10B610001A683B6FD21A0B18DB191A600B18DB196A
:10B620001B8901339AB20B18DB191A810B18DB192D
:10B63000180044F065FF384BDA683B6FD218364B80
:10B64000DA60384B1A683B6FD218364B1A602D4BB4
:10B650001B78002B10D02C4B1B78002B0CD02E4BC2
:10B66000DA68314B1B689A4206D3304B0021180030
:10B67000FFF756FE002302E154F04EFC0300BB65C9
:10B680005F2610217318DB1900221A705E235B18E5
:10B69000DB1901221A70264B1B68BA6DD31A3B6066
:10B6A00000237B60FA22920000233868796809F051
:10B6B0003BFC02000B0010001900FA22920000234C
:10B6C00008F032FD02000B00FA235B009A4231D3EE
:10B6D000144B1B68002B2DD010217318DB1901228D
:10B6E0001A705E235B18DB1900221A704DE0C04609
:10B6F00080720220C002012098F80020FC03012083
:10B70000F80301208472022081720220B70B00002E
:10B7100074C00610837202209CF80020D00601201D
:10B7200084C0061008040120000401209CC00610FB
:10B73000F0030120544B1B68BA6DD31A1C00002380
:10B740001D00FA22920000232000290009F0ECFBE2
:10B7500002000B0010001900FA229200002308F0EA
:10B76000E3FC02000B001300C72B0ED9474B1B68EC
:10B77000002B0AD05F2310215B18DB1901221A70FD
:10B780005E235B18DB1901221A705F2310241B193A
:10B79000DB191B78002B57D001210C203FF0A8FEAD
:10B7A000472521006B18DC195E267318DB191B78FE
:10B7B000180044F0B7FF0300237010216B18DB1949
:10B7C0001B78002B14D1314B00221A602E4BBA6D1E
:10B7D0001A602F4B00221A607318DB191B780122A4
:10B7E0005340DBB2002B08D02A4BBA6D1A6004E03C
:10B7F000274B1B685A1C264B1A60254B1B68002BD5
:10B8000022D001210C203FF073FE46251026AB19F3
:10B81000DC1943F03FFF03002370AB19DB191B78E1
:10B82000002B0ED01A4B00221A601B4B01221A70FB
:10B8300043F0E2FE194B04211800FFF771FD0023CD
:10B840001DE0134B00221A6044F0F4FD03003B6539
:10B850003B6D002B12D03B6D1A78597809020A43D0
:10B86000997809040A43DB781B06134306D10C4B75
:10B8700003211800FFF754FD002300E00123180006
:10B88000BD461FB0F0BDC046F403012008040120EE
:10B8900094F80020F00301207E720220B4C006104C
:10B8A000C4C0061080B500AF44F0BAFD031E07D037
:10B8B000FFF77AFC031E03D0FFF728FD002300E00A
:10B8C00004231800BD4680BDB0B584B000AF7860D9
:10B8D0007B68002B01D1012364E0344B1A787B682C
:10B8E0001A70334B1A7A7B685A7044F077FA030067
:10B8F0001A007B681A722E4B5A7A7B681A742D4B89
:10B900001B78002B07D07B680022DA602A4B1A686C
:10B910007B685A601AE044F08DFD0300FB60FB6811
:10B92000002B0CD0FB681A78597809020A439978E1
:10B9300009040A43DB781B0613431A0000E00022C7
:10B940007B68DA607B68DA687B685A60184B1B7A20
:10B95000002B1FD054F0E0FA0200154B1B68D31ADD
:10B96000BB60BB681C0000231D00FA22920000236C
:10B970002000290009F0D8FA02000B00100019007D
:10B98000FA229200002308F0CFFB02000B007B6834
:10B990005A6102E07B6800225A61054B9A7A7B6803
:10B9A0001A7600231800BD4604B0B0BD7F72022095
:10B9B0009CF8002083720220D006012080B500AFE1
:10B9C000044B08211800FFF7ABFC00231800BD460C
:10B9D00080BDC046D8C0061080B582B000AF786088
:10B9E000074B1B7A002B01D0012305E07B6819006F
:10B9F0000120FFF7FBFB00231800BD4602B080BD0D
:10BA00009CF8002080B500AF084B1B7A0122534000
:10BA1000DBB2002B01D0002305E0054B002118000C
:10BA2000FFF77EFC00231800BD4680BD9CF8002077
:10BA3000E8C0061080B500AF024B1B7A1800BD4667
:10BA400080BDC0469CF8002080B500AF024BDB688B
:10BA50001800BD4680BDC0469CF80020F0B591B0EE
:10BA600000AFF86054F058FA0300BB639A4B1B68B0
:10BA7000BA6BD21AFA239B009A4206D3964BBA6B42
:10BA80001A60964B18003FF0EBFF01210C203FF0AD
:10BA90002FFD372108200B18DB1900221A70904B5C
:10BAA0001B7801225340DBB2002B13D00B18DE1998
:10BAB00044F0B6FC030033708A4B1B783721082012
:10BAC0000A18D21912789A4204D0864B0A18D21951
:10BAD00012781A70844B1B78022B00D1BCE000DD79
:10BAE000D6E0002B02D0012B61D0D1E07C4B1B783B
:10BAF00001225340DBB2002B00D1C0E037230822E3
:10BB00009B18DB191B78002B00D1B8E022239B186F
:10BB1000DE1943F08BFC03003370222308229B18AC
:10BB2000DB191B78052B00D0ABE04EF05DFA03006B
:10BB30007B627B6A002B33D07B6A1B7D002B2FD06E
:10BB40007B6A1B78032B26D108260822B318DB1941
:10BB5000180044F0BBFC031E00D194E0300008261E
:10BB60008319DB199A7A7B6ADB7B9A4200D08AE0E0
:10BB70007B6A083319007B6ADB7B1A008319DB19A7
:10BB8000180057F081FB031E00D07CE07B6A180090
:10BB90004EF050FA77E07B6A18004EF04BFA72E0F4
:10BBA000FFF702FB031E6AD0FFF7B0FB67E054F01B
:10BBB000B3F903003B634D4B5B683A6BD31A3B60B0
:10BBC00000237B60FA22920000233868796809F02C
:10BBD000ABF902000B0010001900FA2292000023BA
:10BBE00008F0A2FA02000B001300FB62FB6A312B83
:10BBF0004BD9232308229B18DE19FB6A1800FFF794
:10BC0000FDFB03003370394B3A6B5A602323082243
:10BC10009B18DB191B7801225340DBB2002B34D078
:10BC20002F4B1B7801225340DBB2002B0DD0304B41
:10BC30001B7801225340DBB2002B06D02A4B022294
:10BC40001A702C4B3A6B1A6022E0274B00221A70B4
:10BC5000274B00221A701BE02F2308229B18DE19A5
:10BC600044F0DEFB030033702F2308229B18DB19FE
:10BC70001B78002B0BD11C4B00221A7007E0C0462A
:10BC800006E0C04604E0C04602E0C04600E0C04610
:10BC9000154B1B78002B01D1142300E064233B6279
:10BCA0003B6A1C0000231D00FA22920000232000A2
:10BCB000290009F039F902000B0010001900FA22DE
:10BCC0009200002308F030FA02000B001300180065
:10BCD00054F068FBC6E6C04630DA0020F4C0061017
:10BCE00083720220867202207F7202209CF800205C
:10BCF0007E72022090F8002080B586B004AF104B11
:10BD00001B68002B18D18023DA000E490E480F4B18
:10BD100002930F4B019301230093002353F0CCFDBA
:10BD20000200074B1A60064B1B68002B01D0012351
:10BD300000E000237B6000E0C046BD4602B080BD4D
:10BD4000ACDF0020F4C006105DBA0010103E0020E9
:10BD5000B0DF002080B500AF0B4B1B68002B10D06C
:10BD60000A4B1B7A002B04D0094B00211800FFF767
:10BD7000D7FA054B1B68180053F0F2FD024B002266
:10BD80001A60C046BD4680BDACDF00209CF8002094
:10BD900000C1061080B582B000AF0F4B1B78002B9E
:10BDA00001D0002313E044F045FB03007B607B6877
:10BDB000002B0BD07B681A78597809020A439978CE
:10BDC00009040A43DB781B06134300E00023180034
:10BDD000BD4602B080BDC0468372022080B500AF70
:10BDE000064B1B78002B02D0054B1B6802E0FFF7C7
:10BDF000D1FF03001800BD4680BDC04683720220FB
:10BE0000D006012080B500AF024B1B7A1800BD465A
:10BE100080BDC0469CF80020B0B588B002AFF86085
:10BE20003A607B6017257C193A687B68F9680020C6
:10BE30000090080044F000FD030023707B191B787C
:10BE4000002B01D1002300E001231800BD4606B0FD
:10BE5000B0BDB0B584B000AF786044F0E1FA030043
:10BE60001A0001235340DBB2002B01D003230EE064
:10BE70000F257C197B68180044F0ACFB030023708D
:10BE80007B191B78002B01D1002300E0012318004F
:10BE9000BD4604B0B0BD000080B586B000AF3B0029
:10BEA000180000F066F93B005B6901211800FFF7FC
:10BEB00007F9034B01229A72C046BD4606B080BD09
:10BEC0009CF8002080B586B000AF3B00180000F061
:10BED00050F93B005B6900211800FFF7F1F8034BB4
:10BEE00000229A72C046BD4606B080BD9CF8002074
:10BEF00080B582B000AF0200FB1D1A70FB1D1B78DD
:10BF00000A2B1AD89A000F4BD3181B689F460023A0
:10BF100014E0012312E0022310E003230EE00423C7
:10BF20000CE005230AE0062308E0072306E00823C7
:10BF300004E0092302E00A2300E001231800BD46C3
:10BF400002B080BD3CC1061080B500AFFFF7E0F83D
:10BF500003001800FFF7CCFF03001800BD4680BDAA
:10BF6000B0B58AB000AF78607B68002B01D10123A7
:10BF700058E027257C190823FB181800FFF7A4FCBC
:10BF8000030023707B191B78002B06D07B191B78CC
:10BF90001800FFF7ADFF030044E00823FB181B78EF
:10BFA000022B0DD010DC002B02D0012B04D00BE0B3
:10BFB0007B6800221A700BE07B6804221A7007E08D
:10BFC0007B6805221A7003E07B6806221A70C0465F
:10BFD00008243B195A787B685A703B191A7A7B6897
:10BFE0009A703B191A7C7B681A773B195B69FA22B5
:10BFF0009100180008F05AF803001A007B685A6193
:10C000003B195A687B689A613B19DA687B685A6009
:10C010007B6800229A607B68044ADA607B680022B1
:10C020001A6100231800BD460AB0B0BD28C1061031
:10C0300080B588B000AF3B001800FFF791FF031EEA
:10C0400002D13B001B7800E006231800BD4608B073
:10C0500080BD80B500AFFFF7EDFC03001800BD46C2
:10C0600080BD80B500AFFFF71DFC03001800FFF78F
:10C070003FFF03001800BD4680BD80B500AFFFF74D
:10C080009DFC03001800FFF733FF03001800BD46B6
:10C0900080BD80B582B000AF78607B681800FFF784
:10C0A0009BFC03001800FFF723FF03001800BD46A8
:10C0B00002B080BD80B584B000AFF8603A607B60AC
:10C0C0003A687B68F9680800FFF7A6FE03001800CD
:10C0D000FFF70EFF03001800BD4604B080BD80B519
:10C0E00082B000AF78607B681800FFF7B2FE0300F3
:10C0F0001800FFF7FDFE03001800BD4602B080BD2A
:10C1000080B500AFFFF746FE03001800BD4680BDB6
:10C1100080B500AF00231800BD4680BD80B582B059
:10C1200000AF0200FB1D1A70FB1D1B7818003FF0CA
:10C130005DFC03001800BD4602B080BD80B500AFB5
:10C14000FFF7DAFDC046BD4680BD80B500AFFFF702
:10C1500001FEC046BD4680BD80B500AF014B180052
:10C16000BD4680BDA0C1061080B500AFC046BD462B
:10C1700080BD90B58BB000AF78603FF0C9FB030085
:10C180007B620C243B19180018231A00002109F0C7
:10C19000C1F87B6A002B24D07B6A4B229B5C1A007F
:10C1A00021007B181A607B6A4A229B5C1A007B186C
:10C1B0005A607B6A41229B5C1A007B189A607B6AFA
:10C1C0004D229B5C1A007B18DA607B6A4E229B5CD6
:10C1D0001A007B181A617B6A4F229B5C1A007B183D
:10C1E0005A617B680C22BA1813CA13C313CA13C34B
:10C1F0007868BD460BB090BD80B582B000AF786066
:10C200007B68002B02D07B6846221A60024B180024
:10C21000BD4602B080BDC04690CE061080B500AFCE
:10C2200040F0EEFAC046BD4680BD000080B500AFCC
:10C23000034B180040F092FA03001800BD4680BD81
:10C240001004012080B582B000AF78603960054AE3
:10C250003968786809230AF0B1FC03001800BD466C
:10C2600002B080BD3CCE061090B583B000AFFC1D7F
:10C27000094B18003FF05AFC03002370FB1D1B788C
:10C28000002B03D0054B18004DF0F6FFFB1D1B786B
:10C290001800BD4603B090BD08D4061058CE061055
:10C2A00080B500AF014B1800BD4680BD8CD606108E
:10C2B000B0B586B002AF914B18004DF0DDFF002104
:10C2C00000200FF0B9FE8E4B7B607B6858687B685E
:10C2D00059787B689A787B68DB7841F0ADFF7B68A2
:10C2E00058697B68597C7B689B7C1A0042F094F803
:10C2F0007B6836229B5CFF2B19D07B6836229B5CC7
:10C30000180042F059F97B6836229B5C0021180026
:10C3100042F078F90A2005F0B9FA7B6836229B5C76
:10C320000121180042F06EF90A2005F0AFFA754BB2
:10C3300018004DF0A1FF0023FB600B23FB1808221F
:10C340001A7019E0F91C0B243B19187800230122FC
:10C3500042F0E0F8031E09DB3B191A786A4B110022
:10C3600018004DF089FFFB680133FB600B217B183F
:10C370001A787B1801321A700B23FB181B78772B65
:10C38000E0D9FB68002B04D1604B18004DF074FF1E
:10C3900005E0FA685E4B110018004DF06DFF7B68F8
:10C3A0003922985CF91C0023012242F0B3F8031EE5
:10C3B00008DA7B6839229B5C1A00564B1100180082
:10C3C0004DF05AFF7B684922985CF91C002301223A
:10C3D00042F0A0F8031E08DA7B6849229B5C1A0031
:10C3E0004D4B110018004DF047FF7B682022985CF0
:10C3F0007B68596A7B6821229A5C7B6822241C5DD9
:10C400007B6841255B5D0093230041F0A3FE7B68C0
:10C410004B229B5CFF2B05D07B684B229B5C18005A
:10C4200042F0CAF87B684E229B5CFF2B07D07B68EA
:10C430004E229B5C00220121180042F0C7F87B6865
:10C4400036229B5CFF2B0CD07B6836229B5C18004D
:10C4500042F0B2F87B6836229B5C0121180042F062
:10C46000D1F87B6830229B5C180042F0A5F87B680D
:10C4700031229B5C180042F09FF87B6833229B5C62
:10C48000180042F099F87B6833229B5C0121180068
:10C4900042F0B8F87B6832229B5CFF2B17D07B6898
:10C4A00032229B5CFA2292001100180042F0B6F88A
:10C4B0007B6832229A5C7B6835215B5C002B01D063
:10C4C000002300E064231900100042F0E0F87B68CC
:10C4D0003A229B5C180042F06FF87B683A229B5C22
:10C4E0000121180042F08EF80C4B18004DF0C4FEEC
:10C4F00000231800BD4604B0B0BDC04654D4061099
:10C500008CD6061088D40610ACD40610DCD40610E5
:10C5100008D506103CD5061070D50610ACD506100F
:10C5200090B583B000AF0F4B18004DF0A5FEFC1D79
:10C530000D4B18003FF0DCF903002370FB1D1B7846
:10C54000002B04D1094B18004DF096FE03E0084B78
:10C5500018004DF091FEFB1D1B781800BD4603B07E
:10C5600090BDC046DCD50610E4D606101CD60610D9
:10C5700054D6061080B582B000AF0200FB1D1A70C1
:10C58000BB1D0A1C1A70FB1D1B780C2B05D006DC8A
:10C59000092B06D00A2B06D001E0C04604E0C046B5
:10C5A00002E0C04600E0C046C046BD4602B080BDC5
:10C5B00080B500AF094B18004EF0A0FF03001A0031
:10C5C00001235340DBB2002B01D0002302E04FF0E7
:10C5D0000BF801231800BD4680BDC04630D70610B9
:10C5E000F0B593B000AF7861A74B18004DF044FE52
:10C5F00040F084F803003B643B6CA1229200944617
:10C600006344FB6353F088FC0300BB639F4B1B68D0
:10C61000BA6BD21AFA239B009A4206D39B4BBA6B91
:10C620001A609B4B18003FF01BFA01210D203EF0D1
:10C630005FFF53F071FC03007B63232310229B18E0
:10C64000DE1942F0F3FE03003370232310229B18FF
:10C65000DB191B78012B28D18E4B1B687A6BD31A00
:10C660001C0000231D00FA22920000232000290054
:10C6700008F05AFC02000B0010001900FA22920088
:10C68000002307F051FD02000B0013007B62FB6BDF
:10C690001B891A007B6A934200D27FE004204FF08E
:10C6A000D1FC7C4B7A6B1A6078E0232310229B1814
:10C6B000DB191B78062B36D1774B1B78062B0AD05B
:10C6C00005204FF0BFFC754B7A6B1A60744B180055
:10C6D0004DF0D2FD62E0714B1B687A6BD31ABB60E0
:10C6E0000023FB60FA2292000023B868F96808F082
:10C6F0001BFC02000B0010001900FA22920000231C
:10C7000007F012FD02000B001300BB62FB6B1B8ADB
:10C710001A00BB6A934241D305204FF093FC5F4B54
:10C720007A6B1A603AE0232310229B18DB191B78DE
:10C730000A2B33D1584B1B780A2B0AD003204FF019
:10C7400081FC584B7A6B1A60574B18004DF094FDE2
:10C7500024E0544B1B687A6BD31A3B6000237B6048
:10C76000FA22920000233868796808F0DDFB0200A5
:10C770000B0010001900FA229200002307F0D4FCED
:10C7800002000B001300FB62FB6A484A934205D982
:10C7900003204FF057FC434B7A6B1A603E4B232229
:10C7A00010215218D21912781A703FF00FF90300B5
:10C7B0003B623F4B1B7801225340DBB2002B12D06F
:10C7C0003B6A002B0CD03B6A5B68002B02D03B6AB3
:10C7D0005B6800E0374B384A190010004DF04CFD03
:10C7E000334B01221A703B6A002B48D03B6A9B688E
:10C7F000002B44D0372110200B18DB1900221A70AF
:10C800003B6A9B68DB68002B07D03B6A9B68DB6850
:10C810000A18D619984703003370284B1B78372124
:10C8200010200A18D21912789A4228D00B18DB1956
:10C830001B78002B07D0224B18004DF01DFD062061
:10C840004FF000FC14E0FFF7FFF80300FB61FB6909
:10C85000002B09D0FA691B4B110018004DF00CFD9C
:10C8600007204FF0EFFB03E0174B18004DF004FDDD
:10C87000124B372210215218D21912781A70322016
:10C8800053F090FDBEE6C04648D706103CDA0020C3
:10C8900064D70610D87C012097720220DC7C01202E
:10C8A00070D70610D47C0120A8D70610B70B000063
:10C8B00098720220DCD70610E4D706109672022088
:10C8C00004D8061020D8061050D8061080B584B0C1
:10C8D00004AF0C4B1B68002B10D180235A000A496F
:10C8E0000A480B4B02930B4B019301230093002347
:10C8F00052F0E2FF0200034B1A6000E0C046BD4662
:10C9000080BDC046306B012078D80610E1C500100C
:10C91000C03F002080F2002080B582B000AF786078
:10C9200039607B68002B02D03B68002B01D10123CA
:10C9300004E07B681A693B681A6000231800BD4652
:10C9400002B080BDB0B584B000AF786039607B685C
:10C95000002B01D101230FE07B683A681A617B68E4
:10C960003A681A620F257C197B68180043F01CFA9C
:10C97000030023707B191B781800BD4604B0B0BDBE
:10C9800080B584B000AF786039607B68002B01D13E
:10C99000012314E07B681B693A689A4201D903239A
:10C9A0000DE07B681B69FB60FA683B68D31ABB60CB
:10C9B000BA687B6811001800FFF7C4FF0300180075
:10C9C000BD4604B080BD80B584B000AF78603960EA
:10C9D0007B68002B01D101230EE07B681B693A685C
:10C9E000D318FB607B683A685A61FA687B6811006B
:10C9F0001800FFF7A7FF03001800BD4604B080BD74
:10CA000080B586B002AFF860B9603A607B60FB68C1
:10CA1000002B01D1012308E03A687B68B968002047
:10CA20000090080043F008FF03001800BD4604B062
:10CA300080BD80B582B000AF78607B68002B01D1EB
:10CA4000012306E07B681B69002B01D1032300E072
:10CA500000231800BD4602B080BD80B582B000AF93
:10CA6000786000231800BD4602B080BD80B582B05A
:10CA700000AF786000231800BD4602B080BD80B5CD
:10CA800082B000AF786000231800BD4602B080BDC0
:10CA900090B583B000AFFC1D064A074B110018008B
:10CAA00042F0E8FC03002370FB1D1B781800BD4614
:10CAB00003B090BDA004012094D8061080B584B0C6
:10CAC00004AF0C4B1B68002B10D1C0239A000A49FD
:10CAD0000A480B4B02930B4B019302230093002354
:10CAE00052F0EAFE0200034B1A6000E0C046BD4669
:10CAF00080BDC046FC530120CCD8061009CB0010E5
:10CB0000405800200054012080B586B002AF786004
:10CB1000E12359020923009301230022002041F060
:10CB200019FB0300FB60FB68002B03D1002052F0CF
:10CB300017FF5DE0E123590201230922002045F09F
:10CB4000EFFA031E03D0002052F00AFF50E08023CA
:10CB50005A0380235B031100180045F0BFF8264BF1
:10CB60001900062045F026FB244B1900602045F0F3
:10CB700021FB224B1900612045F01CFB1F4B1900C3
:10CB8000632045F017FB1D4B1900622045F012FB96
:10CB90001B4B1900F02045F00DFB1A4B1900F1203A
:10CBA00045F008FB02F0BAFB174B01221A7053F054
:10CBB000B3F90300BB60154B1B68BA68D21AFA239D
:10CBC0009B009A4206D3114BBA681A60104B1800AA
:10CBD0003EF046FF012104203EF08AFC00F024FADA
:10CBE00045F09AFB45F084F9022053F0DBFBDEE7C9
:10CBF000BD4604B080BDC04615CC0010B5CC0010B9
:10CC000091CD0010DDCE00108D72022020DA0020C0
:10CC1000CCD80610B0B58AB002AF786039607B68B6
:10CC20009B88032B31D97B689B88082B08D17B68B4
:10CC3000991D1023FB180822180008F071FB0DE065
:10CC40007B68991D0C23FB180422180008F068FB70
:10CC5000FB681C0000231D003C617D613A697B6913
:10CC60001000190000F098FB031E0ED100F0B8FB75
:10CC70007B68DB7838680022019200220092102243
:10CC8000FF2145F063F9002310E01F217B180322E8
:10CC90001A707B68DA783868012301937B18009357
:10CCA00013001122FF2145F051F900231800BD4661
:10CCB00008B0B0BD90B589B002AF78603960172375
:10CCC000FB1800221A707B689B78632B2AD038DC13
:10CCD000622B2ED035DC602B02D0612B15D030E0DA
:10CCE0007B689B88032B2BD97B68991D1023FB182D
:10CCF0000422180008F014FB3B691722BC18180026
:10CD000045F004F8030023701AE07B689A1D7B68E5
:10CD10009B8817217C181900100045F03FF803008C
:10CD200023700EE01723FC1845F092F803002370DF
:10CD300007E045F01DF81723FB1801221A7000E0E8
:10CD4000C0461723FB181B78002B0BD07B68DB78C1
:10CD5000386800220192002200921022FF2145F043
:10CD6000F5F80FE00F217B1806221A707B68DA783D
:10CD70003868012301937B18009313001122FF21CF
:10CD800045F0E4F800231800BD4607B090BD000050
:10CD900080B54A4FBD4402AF7860396083239B0061
:10CDA000FB1800221A80464A8023DB00D25A444BEB
:10CDB00044495B5A9A4209D3414A8023DB00D25A44
:10CDC0003F4B40495B5AD31A9BB20DE03C4A80234B
:10CDD000DB00D25A3A4B3B495B5AD31A9BB28022B2
:10CDE000D200944663449BB237497A181380832358
:10CDF0009B00FA187B181B8898B280218900884212
:10CE000001D980239B00138083239B00FB181B8880
:10CE1000002B40D02D4BFB1800221A8023E0284B1A
:10CE2000284A9B5A1900294BFB181B88244A515C3D
:10CE3000274A842080001218D219D154204B214A4D
:10CE40009B5A0133234A134003D5013B224A134323
:10CE5000013399B21A4B1B4A99521C497B181A8804
:10CE60007B1801321A80194BFA18832189007B182C
:10CE700012881B889A42D2D37B68DA7838687B188C
:10CE80001B8801930823FB1800931300F022FF2155
:10CE900045F05CF80AE07B68DB7838680022019294
:10CEA000002200921022FF2145F050F800231800C4
:10CEB000BD4684239B009D4480BDC046E8FDFFFF26
:10CEC000F44F0120020400000A0200000E020000DC
:10CED000F8FDFFFFFF03008000FCFFFFF0B54C4CA6
:10CEE000A54402AF786039607B689B88002B00D135
:10CEF00076E07B689B88191C8AB280239B009A424B
:10CF000002D980239B00191C8BB28324A4003A19F8
:10CF100013607B68991D3B191A6808257B19180056
:10CF200008F0FEF93B4B842292009B18DA193B195A
:10CF30001B68D31800221A70374A80239B000021F7
:10CF4000D150354A81239B000121D154334EBC1965
:10CF50007B1918004DF030F8030023702E4A81230E
:10CF60009B000021D154BB191B78002B14D02A4AF6
:10CF700080239B00D358002B0ED1294BFB18032292
:10CF80001A707B68DB7838680022019200220092D8
:10CF90001022FF2144F0DAFF1F4A80239B00D35860
:10CFA000002B10D07B68D9781B4A80239B00D35874
:10CFB0009BB238680193184B00930B00F122FF21BC
:10CFC00044F0C4FF0AE07B68DB78386800220192F5
:10CFD000002200921022FF2144F0B8FF002310E04D
:10CFE00010497B1803221A707B68DA7838680123AD
:10CFF00001937B18009313001122FF2144F0A6FF38
:10D0000000231800BD4685239B009D44F0BDC0460B
:10D01000E4FDFFFFF8FDFFFFEC4D01200B020000D7
:10D020000A02000009020000B0B58CB000AF102465
:10D030003B19180018231A00002108F06BF93EF084
:10D04000C5FC0300FB62FB6A002B34D0FB6A9B68C3
:10D05000002B30D0FB6A1A783B191A70FB6A9B6868
:10D060009B68002B07D0FB6A9B689B68984703006E
:10D070001A003B195A70FB6A9B685B6A002B07D049
:10D08000FB6A9B685B6A984702001023FB185A6092
:10D09000FB6A9B68DB68002B0DD0FB6A9B68DB6832
:10D0A0009847031E07D010217B18DB780222134318
:10D0B000DAB27B18DA70FEF721F803001A001024A8
:10D0C0003B199A7043F0ACF90300190020003B189B
:10D0D000DB785AB24BB213435BB2DAB23B18DA7068
:10D0E00043F09EF9031E1CD03B00180043F0EEF9FC
:10D0F000031E16D03B009B7A2B22BA18D9B20729FF
:10D1000000D9072313702B243B191A7839001025F6
:10D110007B190C33180008F003F97B193A191278BF
:10D12000DA741023FB18180045F03AF8C046BD46E3
:10D130000CB0B0BDB0B584B000AF184B1B78002B5D
:10D1400001D0002326E000F087FA02000B0014490A
:10D150000A604B60124B186859683B1D1A0000F0BA
:10D1600025FB0F257C1900F093F9030023707B1930
:10D170001B78002B0AD00A4B1A685B6809490A60C1
:10D180004B6052F0C9FE0200074B1A60034B0122AC
:10D190001A7000231800BD4604B0B0BD8E72022084
:10D1A00020390020803B0020D8100120B0B588B085
:10D1B00000AF7860244B1B7801225340DBB2002B78
:10D1C00001D003233CE07B68002B01D1022337E030
:10D1D00052F0A2FE0300FB611C4B1B68FA69D31AD4
:10D1E000BB61BB691C0000231D00FA2292000023D2
:10D1F0002000290007F098FE02000B001000190023
:10D20000FA229200002306F08FFF02000B00FA239F
:10D210009900100006F04AFF03003B6100237B6188
:10D220000B4B1A685B683869796912184B41BA6010
:10D23000FB607B68B868F9681A0000F0B7FA002351
:10D240001800BD4608B0B0BD8E720220D810012073
:10D25000803B0020B0B584B000AF1F4B1B7801228B
:10D260005340DBB2002B02D0002200232EE052F00C
:10D2700053FE0300FB60194B1B68FA68D31ABB60AE
:10D28000BB681C0000231D00FA229200002320002E
:10D29000290007F049FE02000B0010001900FA22D5
:10D2A0009200002306F040FF02000B00FA239900D1
:10D2B000100006F0FBFE03003B6000237B60084B80
:10D2C000186859683A687B6812184B4110001900B9
:10D2D000BD4604B0B0BDC0468E720220D8100120F9
:10D2E000803B002080B500AF024B1B781800BD4684
:10D2F00080BDC0468F72022080B500AF034B1A6814
:10D300005B6810001900BD4680BDC0462039002072
:10D3100080B584B000AF78601B4B1B78012253406E
:10D32000DBB2002B01D0032329E07B68002B01D165
:10D33000022324E07B68180000F0FEF902000B00D5
:10D34000BA60FB60BA68FB681000190000F06CFA64
:10D3500003001A0001235340DBB2002B01D0042349
:10D360000DE00A49BA68FB680A604B6052F0D4FDD0
:10D370000200074B1A60074B01221A7000231800A5
:10D38000BD4604B080BDC0468E720220803B0020A6
:10D39000D81001208F72022090B585B000AF3860A0
:10D3A00079603A687B681000190000F03DFA0300CC
:10D3B0001A0001235340DBB2002B01D004230BE001
:10D3C00008243B19386879681A0000F0EFF93B1916
:10D3D0001800FFF79DFF03001800BD4605B090BD83
:10D3E000B0B586B000AF274B1B7801225340DBB2AB
:10D3F000002B01D0032340E000F06EFE03001A0072
:10D4000001235340DBB2002B01D0052335E0FFF7A9
:10D4100021FF02000B00BA60FB60BA68FB681100D4
:10D42000194301D1012328E017257C191649174B10
:10D430000A22180048F09AF9030023707B191B7820
:10D44000002B01D0052318E017257C193B1D08226D
:10D45000B9180E48082248F082FC030023700B4BD9
:10D46000180048F0F5FE7B191B78002B02D17B6871
:10D47000082B01D0052300E000231800BD4606B0AC
:10D48000B0BDC0468E720220D8D8061030460020AB
:10D49000B0B586B000AF00F01FFE03001A000123F4
:10D4A0005340DBB2002B01D0062341E017257C1945
:10D4B0002149224B0122180048F058F9030023703B
:10D4C0007B191B78002B01D0062331E017257C192E
:10D4D0003B1D0822B9181948082248F0F5FA030044
:10D4E0002370164B180048F0B3FE7B191B78002BF5
:10D4F00002D17B68082B01D0062319E0BA68FB68CB
:10D500001000190000F090F903001A0001235340A5
:10D51000DBB2002B01D004230AE0BA68FB6808499B
:10D520000A604B6052F0F8FC0200064B1A600023C0
:10D530001800BD4606B0B0BDD8D806107041002016
:10D54000803B0020D8100120F0B5C64600B58AB057
:10D5500006AFF860B9607A60FB68002B05D0BB6845
:10D56000002B02D07B68002B01D100231DE0FB685B
:10D570001B889846FB689B781C00FB68DB781D00C5
:10D58000FB681B791E00FB685B799C46FB689B79F6
:10D59000094A7968B8680493634603930296019533
:10D5A0000094434609F00AFB03001800BD4604B08E
:10D5B00080BCB846F0BDC046E8D8061090B587B02C
:10D5C00000AFB860F9607A603B6010243B19B8681E
:10D5D000F9681A0000F0EAF83A6879683B1918000F
:10D5E000FFF7B2FF03001800BD4607B090BD000072
:10D5F00080B582B000AF0200FB1D1A70FB1D1B78C6
:10D60000062B12D89A000B4BD3181B689F460A4B67
:10D610000CE00A4B0AE00A4B08E00A4B06E00A4B12
:10D6200004E00A4B02E00A4B00E00A4B1800BD463A
:10D6300002B080BD14DA061008D906100CD9061005
:10D6400014D9061028D9061038D9061054D9061056
:10D6500064D9061074D90610B0B59EB002AF482345
:10D66000FB18180024231A00002107F053FE18238A
:10D67000FB182B4A13CA13C313CA13C313CA13C309
:10D6800013CA13C31023FC181423FA18254926487B
:10D690000C23FB180093230055F07AFD0023FB6652
:10D6A00014E01823FB18FA6E9200D2581423FB18CA
:10D6B0001100180057F052FA031E04D14823FB183A
:10D6C000FA6E1A6105E0FB6E0133FB66FB6E0B2BF5
:10D6D000E7DD3A6948257B19DA60FB68134A9A1836
:10D6E0007B195A613C1D0823FA18114911483B0067
:10D6F0000093230055F04CFDBA687B199A607A6854
:10D700007B195A603A687B191A607B19180056F029
:10D710001BFC02000B0010001900BD461CB0B0BD80
:10D72000E4D9061084D9061090D9061094F8FFFFAA
:10D730009CD90610A8D9061090B58DB000AF7860BE
:10D740000C243B19180024231A00002107F0E2FDE5
:10D750007B681B88144A9A183B195A617B689B782E
:10D760005A1E21007B181A617B68DB781A007B182F
:10D77000DA607B681B791A007B189A607B685B799A
:10D780001A007B185A607B689B791A007B181A6014
:10D790007B18180056F0D8FB02000B00100019008F
:10D7A000BD460DB090BDC04694F8FFFF90B58FB058
:10D7B00000AFB860F9607A6014243A190823FB18A6
:10D7C0001100180056F0B8F921007B185B699BB274
:10D7D000144A944663449AB27B681A807B181B698A
:10D7E000DBB20133DAB27B689A707B18DB68DAB29D
:10D7F0007B68DA707B189B68DAB27B681A717B18D9
:10D800005B68DAB27B685A717B181B68DAB27B6896
:10D810009A717B189B69DAB27B68DA71C046BD46A3
:10D820000FB090BD6C07000080B582B000AF3860CB
:10D8300079600A4B1A685B680121081C7968994273
:10D8400005DB7968994204D13968914201D20023FD
:10D85000181CC3B21800BD4602B080BD203900209C
:10D8600090B583B000AFFC1D054B180040F006FBDF
:10D8700003002370FB1D1B781800BD4603B090BD4C
:10D8800044DA0610B0B584B000AF3860796000F0BB
:10D8900023FC03001A0001235340DBB2002B01D00C
:10D8A000022332E03A687B68002B05DC02D119497B
:10D8B0008A4201D8032328E00F257C191649174B0B
:10D8C0000A22180047F052FF030023707B191B78CF
:10D8D000002B01D0012318E00F257C190823FB1829
:10D8E00039000E48082248F03AFA030023700B4B27
:10D8F000180048F0ADFC7B191B78002B02D1BB68E7
:10D90000082B01D0012300E000231800BD4604B01D
:10D91000B0BDC046FFE00B5E38DA0610904800202C
:10D92000B0B588B000AF786000F0D6FB03001A00F5
:10D9300001235340DBB2002B01D002233DE07B6882
:10D94000002B01D1012338E01F257C191D491E4BF6
:10D950000122180047F00AFF030023707B191B788F
:10D96000002B01D0022328E01F257C190C23FB1873
:10D970001022B9181448082248F0A6F803002370B2
:10D98000114B180048F064FC7B191B78002B02D166
:10D99000FB68082B01D001230FE03A697B69002B5B
:10D9A00005DC02D109498A4201D8032305E03A691E
:10D9B0007B6979680A604B6000231800BD4608B097
:10D9C000B0BDC04638DA0610D0430020FFE00B5E41
:10D9D00080B500AF014B1800BD4680BD60EA000075
:10D9E00080B500AF00F078FB03001800BD4680BD95
:10D9F00080B586B004AF134B1B68002B1ED180236B
:10DA00009A0011491148124B0293124B01930123C2
:10DA10000093002351F050FF02000A4B1A60094B9B
:10DA20001B68002B01D0012300E000237B607B6892
:10DA3000012B04D0034B00221A6000E0C046BD4613
:10DA400002B080BD0060012058DA061059DA0010DB
:10DA5000F059002004600120F0B58DB000AF78606F
:10DA60002F23FE18FFF766FB0300337052F054FAC1
:10DA700002002E4B1A6052F04FFA0300BB622C4B8F
:10DA80001B68BA6AD21AFA239B009A4206D3284B23
:10DA9000BA6A1A60274B18003DF0E2FF012103200B
:10DAA0003DF026FD40F01EFA03007B6252F034FA8E
:10DAB00003003B621D4B1B683A6AD31A1C0000230B
:10DAC0001D00FA22920000232000290007F02CFA02
:10DAD00002000B0010001900FA229200002306F049
