:020000041000EA
:1080000000B5324B2120586098680221884398605F
:10801000D860186158612E4B002199600221596186
:108020000121F02299502B491960012199603520D6
:1080300000F044F80222904214D00621196600F0A4
:1080400034F8196E01211966002018661A6600F0CE
:108050002CF8196E196E196E052000F02FF8012109
:108060000842F9D1002199601B491960002159602B
:108070001A491B48016001219960EB211966A02172
:10808000196600F012F80021996016491448016041
:108090000121996001BC002800D000471248134913
:1080A000086003C880F30888084703B5996A04206C
:1080B0000142FBD001200142F8D103BD02B5186690
:1080C0001866FFF7F2FF186E186E02BD000002403E
:1080D000000000180000070000035F0021220000DC
:1080E000F4000018222000A00001001008ED00E0BC
:1080F00000000000000000000000000074B24E7A92
:1081000000200420F7810010CB810010CD810010E9
:10811000C9810010C9810010C9810010C9810010F7
:10812000C9810010C9810010C981001049A505103E
:10813000C9810010C981001075A40510C5A50510DE
:10814000C1810010C1810010C1810010C1810010E7
:10815000C1810010C1810010C1810010C1810010D7
:10816000C1810010C1810010C1810010C1810010C7
:10817000C1810010C1810010C1810010C1810010B7
:10818000C1810010C1810010C1810010C1810010A7
:10819000C1810010C1810010C1810010C181001097
:1081A000C1810010C1810010C1810010C181001087
:1081B000C1810010C1810010C1810010C181001077
:1081C000EFF30580103800BE00BE00BE00BE00BE4A
:1081D00000BE00BEF2EB8871EC9A0D101C9B0D10D6
:1081E0003882001090A31AE71E481F49086006C88D
:1081F00081F3088810471D480068002801D01948FD
:10820000F3E70DA40ECC002902D000F012F8F9E734
:108210001749184A002000E001C19142FCD11649DB
:108220008847164988471649884700BEFDE701C9B7
:1082300001C29A42FBD370471C9B0D10C000002066
:10824000301B00208CB50D1000000420000004201D
:108250008CB50D1000100420001004200000000058
:10826000704700000000000008ED00E0000000D0B2
:10827000301B002090C00220D5450110D58200108F
:1082800095450110F8B5C04606480749091A8B10F4
:10829000C90FC91810B5491003D0044B002B00D0EA
:1082A000984710BD301B0020301B0020000000004C
:1082B000054B10B5002B03D00449054800E000BF72
:1082C000FFF7E2FF10BDC046000000002C8B02202B
:1082D000B087061010B50FF061F9002100200EF0F4
:1082E0004DFCFA20800008F0BFF9062008F02EFFB0
:1082F000D02340221B065A620C485A610CF034FB12
:108300000B480CF031FB04F083FD54F049FB0948A5
:108310000CF02AFB01F084FB322008F0A5F901F0F3
:1083200085FB322008F0A0F9F4E7C046B0870610BC
:10833000CC870610EC8706100B4B70B51A6801321B
:108340001A600A4B53430522D341094A934200D98C
:1083500070BDD02480252406AD0400210548656148
:1083600008F0A2FAA561F3E7748A02203961C268B5
:108370008D21000050C3000072B6FEE770B5050005
:108380000B480C000CF0F0FA29000A480CF070FBC6
:10839000002C08D0210008480CF06AFB07480CF0BC
:1083A000E3FA72B6FEE706480CF0DEFAF6E7C046DE
:1083B000088806102C88061040880610648806106D
:1083C0005088061000487047D4590710004870477D
:1083D0007059071070B5002800D173E0032852D1FE
:1083E000414D112128000EF019FF280059F0EAFB39
:1083F000002800D175E03D4C2B786380012839D0EE
:108400006B78A380022835D0AB78E380032831D085
:10841000EB78238104282DD02B796381052829D07E
:108420006B79A381062825D0AB79E381072821D079
:10843000EB79238208281DD02B7A6382092819D072
:108440006B7AA3820A2815D0AB7AE3820B2811D06D
:10845000EB7A23830C280DD02B7B63830D2809D066
:108460006B7BA3830E2805D0AB7BE383102801D15F
:10847000EB7B2384C023013040009B0003439BB26D
:108480002380200070BD052829D8194B8000C458CE
:10849000002CF6D0200059F095FB050020281CD8B0
:1084A000002807D00023134AE15C01331180023217
:1084B0009D42F9D8C02301356D009B002B430B4C26
:1084C0009BB2DDE70B4C0A4B2000196802220AF030
:1084D00033FBC123023C9B00D2E72025E0E70024C8
:1084E000CFE7054B014CCBE718580020A0650220D0
:1084F00008120020A26502200203000010B554F00B
:10850000B9FB10BDF0B5DE4657464E464546E0B5D0
:1085100083B005F0E7F8AC234B4E5B000400C05875
:1085200033684A4F984263D0494B9846494B994625
:10853000494B9A46494D2B689B46002B3DD026F06F
:10854000CFFE6B46020418700002120E000E5A7025
:10855000987000225846009918F02AF90022FF214D
:10856000286818F035F92B689B46AE235B00E0586D
:1085700026F0B6FE01AB187002040002120E000EC7
:108580005A70987000225846019918F02BF9B023C0
:108590005B00E15C0022286818F03EF96223FF339B
:1085A000E15C0022286818F041F9286800220121C6
:1085B00018F028F9AC235B00E058AE235B00E358C9
:1085C00042463B60B02330605B00E35C1370622383
:1085D0004A46FF33E35C1370B22352465B00E35814
:1085E000136003B0F0BCBB46B246A946A046F0BD3E
:1085F000AE235B00E2583B689A4295D1144B9846F3
:10860000B0235B00E25C43461B789A4204D0114BD6
:108610009946114B9A468DE70E4B99466223FF33DC
:10862000E25C4B461B789A4202D00B4B9A4681E79C
:10863000094B9A46B2235B00E25853461B689A42A4
:1086400000D077E7CDE7C0462C120020281200208A
:108650002112002020120020241200206059002046
:10866000F0B5DE4657464E464546E0B593B048F075
:1086700017FF012052F0FCFED84C2060002800D1EA
:1086800015E248F0D7FE692054F0F4FA322054F095
:10869000F1FA24F0EDFAD2482DF052FDA021D14A92
:1086A000F0200092D04B0322490020F021FECF4D54
:1086B0002860002800D1E4E101211BF009FE00231D
:1086C00028680093E12300229B01C9491BF066F949
:1086D0000FF0F4FA05F006F80500FFF713FFC54B9D
:1086E00018680993002804D029001631FF3134F0AE
:1086F0007BF904F0F7FF099A03001068002808D0FE
:10870000B42252009B5C0121002B00D1CCE110F07F
:1087100027FA002048F0A2FEA02648F0B9FF54F046
:10872000E3FAB54F050076000AE029F039FD05208F
:1087300054F0A0FA54F0D8FA401BB84200D99CE19A
:1087400048F0A0FFB042F0D3642054F093FA002523
:108750002800053548F082FEEDB21E2054F08AFA5A
:10876000692DF5D1642048F079FEA44850F01EFD33
:1087700054F0BAFA0E9054F0B7FAA14BA14D18601C
:108780000793A14BA14E9A461860A14B2860049311
:10879000A04B0893A04B0D93A04B0A93A04B0C93B6
:1087A000A04B0693A04B0593A04B9946FA239B0040
:1087B000984684235B009B4654F096FA3368C31AAC
:1087C000434520D20121032004F03EFB54F08CFAF3
:1087D000070004F087FF5A462B688258FB1A934221
:1087E00016D2FA212068490053F006F80700012844
:1087F00000D184E00A2054F03DFA54F075FA336851
:10880000C31A4345DED33060049848F09BFDD9E796
:108810000A2120682F6052F0EFFF07000128E0D105
:10882000FFF770FE4AF022FAFD2302001A4003907F
:108830000B92012A00D1B2E054F056FA089B0B903B
:108840001B78002B00D0BDE0089B1B7A002B0BD0BF
:1088500004F048FF089B0B9A5B68D31A80225200F1
:1088600082589A4200D82CE100F0ECFD002800D09C
:10887000AEE0039B0027013BDBB2032B00D89EE058
:108880000A9B1B78BB4213D004F02CFF099A03000B
:10889000106800280AD07A019B186933FF331B78CF
:1088A0000121002B00D195E010F05AF90A9B1F70AE
:1088B00004F018FF099B1B68002B11D0039B012BB0
:1088C00000D1B5E0089B1B7A002B09D13630FF3070
:1088D00007000C98390059F029F9002800D0BEE0B3
:1088E000002300220021206852F0D8FCFA212068E1
:1088F000490052F081FF0700012800D07AE704F018
:10890000F1FE86235B00C358180003932DF096FBFD
:1089100004F0E8FE069B1B78002B0BD1FA21FC33F8
:10892000C058890009F0E4F8059A1368834201D31E
:10893000069B1F7029F034FC4B464A461B68070013
:108940000133136054F0D0F953461B68C31A4345F2
:1089500004D300234A4613605346186054F0C4F908
:10896000FA21079B89001B68C01A09F0C1F8059B12
:108970000022186000210023206852F08FFC642F31
:1089800008D8039B39009F4200D219000EA854F06A
:108990001FF911E704F0A6FEF823C758F1E754F0D9
:1089A000A3F9089B1B78002B02D1089B0B9A1A7025
:1089B00000F048FD00280BD1039B013BDBB20D9A70
:1089C000D75C5DE70023089A5060177213703FE789
:1089D000032755E710F078F868E7C0460C8B0220B3
:1089E000FD8400104D150510D5140510DC8A0220F9
:1089F000401B002088590020B80B00008089061019
:108A000044B40220B48A0220B88A0220E46502201D
:108A1000B4890610B0B60220E859071030120020C1
:108A2000948A022083C00220446E0220C473022074
:108A30000C210FA84AF078FE002800D150E70B2245
:108A40000FA93E4857F0C8FD00233C4F3C4A39006F
:108A50000C98137759F06AF8002800D140E73900E4
:108A60000C9F1F22380057F0B7FD0023FB77099BAE
:108A70003900186833F0B8FF32E7324850F096FBFF
:108A800062E6314850F092FB304850F08FFB20688E
:108A900053F070F8002053F053FD13B0F0BCBB4608
:108AA000B246A946A046F0BD10F00EF831E62848BF
:108AB00050F07CFB254850F079FB002053F040FD3E
:108AC000EBE704F00FFE099A03001068002807D0B6
:108AD000B42252009B5C0121002B29D010F040F8F9
:108AE00004F000FE099B36301B68FF300700002BA6
:108AF00003D00100180033F077FF0B2239000F4834
:108B000057F06AFD00230E4A13771362137204F0C4
:108B1000E9FD099A03001068002800D1E0E6B422BC
:108B200052009B5C0121002B05D010F019F8D7E60C
:108B30000FF0CAFFD4E70FF0C7FFD1E6C1B602209D
:108B4000B0B602204889061020890610F088061069
:108B5000C488061000B5074B83B00193F0220123AF
:108B60000549009392000023044853F0D7FC03B05A
:108B700000BDC046008B0220B88906106186001037
:108B8000014B18687047C046008B0220F0B5DE46E6
:108B9000574645464E46E0B5D148AFB050F006FBCB
:108BA000D04BD14F0093D14BD14C0593D14BD24DEB
:108BB0000493D24B2AAE0393D14B0893D14B099324
:108BC000D14B0E93D14B0F93D14B0A93D14B0793BB
:108BD000D14B2093D14B2193D14B2293D14B1C935A
:108BE000D14B1A93D14B1D93D14B1E93D14B1F9355
:108BF000D14B2393D14B2493D14B2593D14B069347
:108C0000D14B9846D14BC2460193D14B1093D14BD7
:108C10000D93D14B1193D14B1993D14B1293D14B4F
:108C20001B93D14B1393D14B0B93D14B0C93D14B43
:108C30001493D14B1593D14B1693D14B1793D14B22
:108C40001893FA239B009B4629E001332B7043467F
:108C50006374237754F048F860614AF03DFB804626
:108C6000002806D0102399464A46837A1A4200D03B
:108C700016E250F08DF8804600280AD0037D002BC4
:108C800007D0079850F092FA404650F09BF8012325
:108C90006374642053F0EEFF52462B78137054F047
:108CA00023F83B68C31A5B4500D39CE001210420F4
:108CB00004F0CAF8237A002B0BD054F015F8FA21EF
:108CC00023688900C01A08F013FF6368984200D334
:108CD000C9E04AF083FB002806D02B789846002B89
:108CE000B3D0012B00D153E149F0C6FF2B78002807
:108CF00000D07DE0022B00D1BAE1032B00D1CFE000
:108D0000042B03D0237A002B00D191E13100002005
:108D100001F0FAF833781843C0B2002800D1EAE134
:108D20003100012001F0F0F833781843C0B2002878
:108D300000D110E23100022001F0E6F83378184348
:108D4000C0B20028A5D1199850F030FAA37C032BAB
:108D50009FD0179B0B989846190050F027FA414670
:108D60000C9850F023FA032300210920A37401F08A
:108D70002DF900210A2001F029F900210E2001F02F
:108D800025F901210E2001F021F9189850F00EFA72
:108D900003239946FA20800053F06CFF002047F02F
:108DA00041FD8046002800D173E747F069FF0028A5
:108DB00000D16EE7129A26A91368269393888B80B8
:108DC0009368289393898B8113693360938AB38066
:108DD0004B46022B00D1E9E1032B00D1E4E14046F0
:108DE00047F072FD55E73860009848F0ABFA5DE750
:108DF000022B00D081E753461B78022B02D00022C1
:108E0000019B1A6004F06EFC8B239B00C35A8046C2
:108E1000994653F069FF019B02901B68002B03D019
:108E2000C31A4B4500D234E7002047F0FBFC8146D3
:108E3000002800D12DE747F023FF002800D128E7C4
:108E40004246514B3100D35A484633808A239B0017
:108E5000D35A73804D4BD35C337147F035FD019B82
:108E6000029A1A6015E700230021237209200133BA
:108E70002B7001F0ABF800210A2001F0A7F80021C7
:108E80000E2001F0A3F8A37C0499032B02D8059AC5
:108E90009B00D158039850F089F90023A37418E778
:108EA00053F022FFA369C31A984604F01BFC8323E6
:108EB0009B00C358434500D9EBE604F013FC822322
:108EC0009B00C358636053F00FFF0123206023729F
:108ED00063746168033310982B7050F067F9D8E61B
:108EE000D08A0610C4890610F8650220EC590710D4
:108EF00048860220C88A06106DC00220F88A061033
:108F0000308B0610808B0610D48B0610088C061050
:108F1000348C0610748C0610C08C0610DC8C061085
:108F2000008D0610248D06106EC00220448D0610A0
:108F3000788D0610A88D0610FC8D0610248E061064
:108F40005C8E0610848E061072C00220D08A022029
:108F5000C88E0610008F0610308F0610608F061026
:108F6000FC590710948F0610D88F0610E88F061052
:108F70000C900610309006105C9006106890061059
:108F800090900610A0900610260200002A02000011
:108F90004AF0A2F9002800D17BE6437802781B0250
:108FA0001343827812041A43C3781B06134300D17B
:108FB0006FE6237F002B00D06BE6637C002B00D094
:108FC00067E64AF00BFA002800D106E1237F002B68
:108FD00000D0FEE04AF080F9002800D10EE143788D
:108FE00002781B021343827812041A43C3781B06CB
:108FF000134300D106E11A9B1B78002B00D1DAE065
:10900000002330003370994648F0B4FB022800D1A9
:1090100009E1032800D1FBE0042800D039E64A46E4
:109020001A9B24981A7050F0C1F848F0C3FBD9E09D
:1090300049F022FE8046002800D02AE62B78012B3A
:1090400000D026E61B9850F0B1F8434600210920D5
:109050002B706374237700F0B9FF00210A2000F021
:10906000B5FF00210E2000F0B1FF4346A37410E6C7
:1090700053F03AFE0323A0612B7004F033FB8B23E3
:1090800080469B00C15A069B1800994650F08EF806
:10909000832342469B004846D15850F087F8F8E5B4
:1090A000089850F083F8099850F080F801210420C6
:1090B00003F0CAFE10224146300009F03DFD4A4649
:1090C000B37A30009343B3724AF06EFA00204AF04C
:1090D00011FB002838D10E9850F068F8012323774F
:1090E00000236374E3680A980133E36002232B7062
:1090F00050F05CF8CDE50D9850F058F8A37C012BAA
:1091000000D1C6E5139B0B989846190050F04EF815
:1091100041460C9850F04AF8012300210920A3741D
:1091200000F054FF00210A2000F050FF00210E2023
:1091300000F04CFF0121092000F048FF149850F086
:1091400035F80123994625E649F0D0F801000F983B
:1091500050F02CF8C2E7119850F028F8A37C022BAD
:1091600000D196E5159B0B989846190050F01EF813
:1091700041460C9850F01AF8022300210920A374EC
:1091800000F024FF00210A2000F020FF00210E2023
:1091900000F01CFF01210A2000F018FF169850F083
:1091A00005F802239946F5E5310018E6404628A95E
:1091B00047F08AFB6DE51D984FF0F8FFFA2101207A
:1091C000C90048F09FFA002814D001231A9A13709E
:1091D0005FE521984FF0EAFF5BE520984FF0E6FF4E
:1091E00003239846414625984FF0E0FF00231A9A42
:1091F00013704EE51E984FF0D9FFF3E722984FF019
:10920000D5FFEFE71C984FF0D1FF04239846E9E71C
:109210004A461A9B30781A7049F068F80100239882
:109220004FF0C4FFDEE74A461A9B28701A700123EC
:109230002377E3680133E3604AF04EF801004845C4
:1092400009D04278037812021A438378C1781B044C
:109250001343090619431F984FF0A8FF19E5C046AC
:1092600010B5194C00212022200009F05FFC04F009
:1092700039FA82239B00C358144A636000230020FC
:10928000A374137000F07EFE012000F07BFE02202C
:1092900000F078FE092000F04DFE0A2000F04AFEA2
:1092A0000E2000F047FE0021092000F08FFE002173
:1092B0000A2000F08BFE00210E2000F087FE0448FB
:1092C0004FF074FF002010BD488602206DC00220C0
:1092D0004C91061070B52C4C0500237A002B36D12A
:1092E00000292ED061602B1C002D26D000210920E2
:1092F000A37400F06BFE00210A2000F067FE00213D
:109300000E2000F063FE022D36D0032D2CD0012D4F
:1093100022D953F0E9FC0123042223721B4B206065
:109320001A70A37C032B0AD8194A9B0099586268CB
:1093300018484FF03BFF002070BD0123D6E71649C7
:10934000F5E704F0CFF982239B00C158CAE7134820
:109350004FF02CFF0120EFE70121092000F036FE3D
:109360000F484FF023FFD4E701210E2000F02EFE1E
:109370000C484FF01BFFCCE701210A2000F026FE2D
:1093800009484FF013FFC4E7488602206DC0022051
:10939000EC59071008910610C88A0610CC900610E8
:1093A00030900610A09006106890061070B50F4C13
:1093B000237A002B15D000250D4B002109201D70AC
:1093C000257200F003FE00210A2000F0FFFD0021BD
:1093D0000E2000F0FBFD0748A5744FF0E7FE0020CB
:1093E00070BD05484FF0E2FEF9E7C046488602200E
:1093F0006DC00220A09106107891061000B50C4BAC
:1094000083B00193802201230A4900930A48002374
:10941000920053F083F80100012804D007484FF070
:10942000C5FE03B000BD06484FF0C0FEF9E7C046D8
:10943000906A0220C48906108D8B0010CC8906101A
:10944000008A061010B5074B1B78032B08D0022B9F
:1094500002D0054B187A10BD49F00EFC0028F8D157
:109460000120F8E76DC002204886022070B5050093
:1094700049F0B4FF002817D029000E484FF096FE9F
:10948000280049F0DBFF041E09D048F02FFF0A4BEB
:10949000010018004FF08AFE0124200070BD290051
:1094A00006484FF083FEF8E705484FF07FFE03249F
:1094B000F3E7C046508A0610A48A0610788A061080
:1094C0002C8A06100020704770B51A4E84B0300008
:1094D0004FF06CFE184D28004FF068FE17491848F1
:1094E0004FF064FE28004FF061FE01230293002339
:1094F000144C154A019300932021013320000AF0F7
:109500008BFF210011484FF051FE114911484FF0D7
:109510004DFE114911484FF049FE114911484FF0D5
:1095200045FE28004FF042FE30004FF03FFE04B0F1
:1095300070BDC046E8170710FC910610BC920610DB
:10954000C892061038C00220D8910610EC9206107E
:10955000E491061004930610F09106101C93061077
:10956000349306103C930610F0B54E469146012206
:1095700057464546DE461300E0B5034085B00193EB
:109580003F4B050798463F4B6D0F9A461B78AE0040
:109590002B417419A40007008B460291A0441A4283
:1095A0005BD14B46002B02D1FA239B009946052044
:1095B00007F098FD09F0CCF90390484609F0C8F986
:1095C0008F21C90509F0BDF9011C039809F0A5F91F
:1095D000F421890509F09EF98321C90509F0B1F943
:1095E00009F0DEF9284B76199C460023274AB6007D
:1095F000644466442360B360F3603261606023605A
:10960000019B002B24D1434659461B6801264B4041
:109610001A4080235B0143441A603200236804210E
:109620009A43130080225201944664442360380018
:1096300007F05EFD5346AE4052461B78334313702D
:10964000012005B0F0BCBB46B246A946A046F0BD1D
:10965000029B0F4A1B049B46D5E7019B002B0CD0B5
:109660000B049B460A4A434659461B684B401A4026
:1096700080235B0143441A60E2E7044AF3E7C046F3
:109680000C00054074C0022000000540FFFF0000F0
:109690000000FFFF10B5114C2368002B08D0104CC0
:1096A0002368002B0CD00F4C2368002B10D010BD6A
:1096B000012051F0DDFE2060094C2368002BF2D11F
:1096C000012051F0D5FE2060064C2368002BEED11E
:1096D000012051F0CDFE2060E9E7C04640B40220F1
:1096E0006C8A0220708A022010B5144C0100237885
:1096F000002B22D1124807F093FE0121122007F01F
:10970000F7FC0121132007F0F3FC0121102007F0E2
:10971000EFFC012008F086F80A4BC20218600A4BE1
:1097200080011A40094B1343A022D205944660449D
:109730000361074B43600123237010BD85C00220E5
:1097400000C0034034120020DD7F00FF110008003C
:1097500008C003400B4B10B5186800280DD0FA2143
:10976000890052F049F8012809D0002053F0CEFAC0
:10977000054B010018004FF019FD002010BD01201D
:10978000FCE7C04640B4022054930610054B10B5C8
:109790001868002804D000230022002151F07EFD2B
:1097A00010BDC04640B4022000B583B06B46012214
:1097B000D91D087002485EF0A7FF03B000BDC04687
:1097C00000C0034010B582B06B46DC1D01000123D0
:1097D000220003485EF050FF207802B010BDC04662
:1097E00000C0034070B51A4D0C002B68002B01DB44
:1097F0001F2905D80100220016485EF085FF70BDC4
:10980000A022D20594469B0163441860D961114897
:1098100007F000FF011E0AD063011B1B9B001B19F0
:10982000980108F065F9012801D953F023FA0A4B91
:1098300080219C462A6849049201624413680B42C5
:10984000FCD110220349CB681A42FCD1D7E7C046AD
:109850003412002000C003401000005010B5130067
:109860000A00010001485EF007FF10BD00C0034080
:1098700010B50100014807F071FE10BD00C00340A3
:1098800070B502250B4C0C4E636835602B40551E9D
:10989000AA410138D2010243481E814189010A438D
:1098A000CF21246862400A4004490A60044A1360D8
:1098B00070BDC04600C0034004F0034000D0034028
:1098C00004E00340F0B5C64600B5134F0500386804
:1098D0000C0090461E0082B000281AD0002918D033
:1098E000FA21890051F088FF012812D12200434655
:1098F00029000A48009606F00BFC00230400002211
:109900000021386851F0CAFC200002B080BCB84683
:10991000F0BD01246442F7E76C8A0220B4120020F3
:10992000F0B5C64600B5134F050038680C009046E8
:109930001E0082B000281AD0002918D0FA21890010
:1099400051F05AFF012812D12200434629000A484B
:10995000009606F0E7FB002304000022002138688F
:1099600051F09CFC200002B080BCB846F0BD012440
:109970006442F7E76C8A0220B4120020F0B5474633
:10998000CE4680B51D001F4B060018680C0017005E
:10999000984683B0002831D000292FD0002D2DD03B
:1099A000FA21890051F028FF012827D1164B009099
:1099B000994622003B003100484606F0A9FB0028EA
:1099C00015DB00232A003100009348460A9B06F06D
:1099D000A9FB43460400002218680021002351F02F
:1099E0005DFC200003B0C0BCB946B046F0BD4346A4
:1099F000002218680021002351F050FC0124644229
:109A0000EFE7C0466C8A0220B41200200123D02266
:109A100083401206002901D0536170479361FCE72F
:109A2000D02380221B0692045A617047D0238022E3
:109A30001B0692049A6170477047C04610B5040037
:109A40001C282DD80B1C642921D8DBB218046421F2
:109A5000C01A08F04DF8144B22071B78520F13411F
:109A60000121194215D093009B18104A9B0094467F
:109A70006344214216D00E4900041A6842400A404D
:109A8000802149018C4663441A60012010BD642383
:109A9000DBE7FA2281B292002000FFF765FDF4E7D0
:109AA0000020F3E70349E8E774C002200C000540FA
:109AB0000000FFFFFFFF000010B52A4C2378002BA9
:109AC00023D12949294807F0ABFC0121122007F0D6
:109AD0000FFB0121132007F00BFB0121102007F0E1
:109AE00007FB012007F09EFE214BC2021860214BAC
:109AF00080011A40204B1343A022D20594466044B3
:109B000003611E4B436001232370112007F01EFBED
:109B1000D024802324069B0263620220636107F045
:109B200015FB04230320636207F010FB0823144A8B
:109B30006362127813420DD0124B134A1B68DB4349
:109B40001B0C1B041360D02304221B065A61043231
:109B50009A6110BDFA220D4992000720FFF704FD1B
:109B6000F1E7C04685C00220A0ACB90300C00340A5
:109B700034120020DD7F00FF1100080008C0034000
:109B800074C002204800054048100540FFFF000057
:109B900010B5134C2378002B17D11249124806F048
:109BA0008FFA0321142007F0A3FA0321152007F0F0
:109BB0009FFA00220121142007F0B4FA00220121AB
:109BC000152007F0AFFA012323700E2007F0BEFA2C
:109BD000D02380221B06D2015A625A6110BDC046B2
:109BE0006FC00220801A0600B4120020020030B5B7
:109BF000034B32CB32C232CB32C212CB12C230BD97
:109C0000145A0710020030B5024B32CB32C212CBCD
:109C100012C230BD345A0710020030B5024B32CBAD
:109C200032C212CB12C230BD485A0710020030B502
:109C3000024B32CB32C212CB12C230BD5C5A07107B
:109C4000020030B5034B32CB32C232CB32C21B687A
:109C5000136030BD705A071010B5144C2378002BD8
:109C600017D11349134806F02BFA0321142007F0EB
:109C70003FFA0321152007F03BFA002201211420AE
:109C800007F050FA00220121152007F04BFA0123BA
:109C90002370012007F05AFAD02302221B069A6291
:109CA00001210022012007F03DFA10BD6FC0022003
:109CB000801A0600B4120020F0B557464E464546BD
:109CC000DE46E0B5264B85B09946264B264E0193DD
:109CD00002ABDD1D254B264F9A46264B9846FA23AC
:109CE0009B009B4653F000F84B461B68C31A5B452C
:109CF00004D34B461860019847F024FB012107204C
:109D000003F0A2F800242A003068E1B247F0E2F83C
:109D1000002820D12B78013B5A4253413B55013456
:109D2000102CF0D151463B7B09785A425341DAB2AC
:109D3000994209D0434641461B780133DBB20B7090
:109D4000022B04D953461A70434600221A7032205F
:109D500052F090FFC6E70134102CD4D1E2E7C046A0
:109D6000E865022080930610B49B02207BC002208D
:109D7000349C02207AC0022070B5494C86B023780A
:109D8000002B02D0002006B070BD102200214548F3
:109D900008F0CCFE002046F0A7FF434D28600028C5
:109DA00078D001AEFFF758FF3000FFF73FFF317862
:109DB000286847F0ABF9061E60D12378002B57D0F6
:109DC000032369462868009347F010F92378002B95
:109DD0004ED000220321286846F0FCFF2378002B98
:109DE00046D00D2369462868009347F0FFF8237892
:109DF000002B3DD000220D21286846F0EBFF237890
:109E0000002B35D00B2369462868009347F0EEF805
:109E10002378002B2CD000220B21286846F0DAFF93
:109E20002378002B24D0862369465B0028680093A2
:109E300047F0DCF82378002B1AD00A236946FF3359
:109E40002868009347F0D2F82378002B10D08523A0
:109E500069465B002868009347F0C8F82378002B18
:109E600006D010236946FF332868009347F0BEF8F8
:109E700001230E4823704FF099F983E747F048FA21
:109E80000B4B010018004FF091F9052E05D8094B36
:109E9000985D78E708484FF089F9042073E7C046D9
:109EA0007CC00220349C0220B49B0220CC9306107C
:109EB000B49306108C5A07109493061000B50D4BFE
:109EC00083B01A68002A01D003B000BD01930123BA
:109ED0000949009309480023C03252F01FFB0128B2
:109EE00003D007484FF062F9EEE706484FF05EF9FD
:109EF000EAE7C046649D022080930610B99C0010DA
:109F00001C940610F4930610084B1B78002B0AD003
:109F10000F2806D8002904D0054B1B5C00200B70CD
:109F200070470320FCE70220FAE7C0467CC002200D
:109F3000349C022030B5104B04001B7883B0002BFA
:109F400016D00F2812D86B460021581D032208F0A6
:109F5000EDFD0A4B01AD290018682C7047F046F85A
:109F6000052807D8064B185C03B030BD0320FBE77B
:109F70000220F9E70420F7E77CC00220B49B02200E
:109F80008C5A071000B50E4B83B01B78002B13D0F2
:109F90000F280FD8002301A94B8001334B70094BC8
:109FA0000870186847F022F8052807D8064B185C97
:109FB00003B000BD0320FBE70220F9E70420F7E728
:109FC0007CC00220B49B02208C5A07100D4A03006B
:109FD000127810B5002A11D00F280DD801394A4245
:109FE0005141CAB208490868190046F0F3FE052835
:109FF00006D8064B185C10BD0320FCE70220FAE7E8
:10A000000420F8E77CC00220B49B02208C5A071081
:10A0100010B50623014A0AF0FFF910BD509406104E
:10A0200010B5024803F06EFB10BDC046F08302205D
:10A0300010B503F05DF910BD002801D04623036080
:10A0400000487047B85A071010B505484CF0F6FBA9
:10A05000041E01D1200010BD02484FF0A7F8F9E717
:10A06000945A071064940610004870473C6007102B
:10A070000020704710B5054847F056F9041E01D17D
:10A08000200010BD02484FF091F8F9E7306007104A
:10A0900018A10610002801D0102303600048704763
:10A0A000B06007100020704710B50C0082B0002986
:10A0B00005D06B46D91DFFF727FF002802D00120ED
:10A0C00002B010BD6B46DB79013B5A42534123700D
:10A0D000F6E7C04610B5FFF779FF431E9841C0B2BE
:10A0E00010BDC04610B5054847F096F9041E01D1D1
:10A0F000200010BD02484FF059F8F9E794600710AE
:10A1000070A10610002805D0002903D003690020A3
:10A110000B6070470120FCE70020704710B5041E5B
:10A1200007D008484FF042F823690020002B02D0E6
:10A1300010BD0120FCE7002103484FF037F8032051
:10A14000F6E7C0469CA20610CCA2061070B50C0023
:10A1500016001D0082B000280BD007484FF026F8EB
:10A1600000233200009320002B0049F05DFB02B079
:10A1700070BD0120FBE7C046F8A2061070B50028AC
:10A1800017D002698A4216D3541A0461046248F057
:10A1900057FD051E08D048F0A9F8094B010018002A
:10A1A0004FF004F8280070BD210006484EF0FEFF75
:10A1B000F8E70125F6E704484EF0F8FF0325F1E73C
:10A1C0008CA3061060A3061030A306100020704771
:10A1D0000020704770B50C00002813D001610162A7
:10A1E00048F02EFD051E08D048F080F8064B01000F
:10A1F00018004EF0DBFF280070BD210003484EF030
:10A20000D5FFF8E70125F6E78CA3061060A306103A
:10A2100070B5041E1BD0056941614D192A000D4817
:10A220004EF0C4FF20002561256248F009FD041EA0
:10A2300008D048F05BF8084B010018004EF0B6FF5C
:10A24000200070BD290005484EF0B0FFF8E701245A
:10A25000F6E7C046B4A306108CA3061060A3061050
:10A2600010B50A484EF0A2FF094848F0A7F8041EAE
:10A2700004D108484EF09AFF200010BD48F036F88F
:10A28000054B010018004EF091FFF5E7E4A306101E
:10A290007061071014A4061044A40610F0B52A4CEF
:10A2A0008788A54405000100062268466C4608F030
:10A2B00043FC002F29D1254B3220EB5A244DE3805B
:10A2C0000123AA6800219340D0221206536106F0B0
:10A2D000EBFA0826002020211E4A93691942FCD17E
:10A2E0002378013013600134B042F6D308221949B3
:10A2F0008B691A42FCD10123AA689340D02212062E
:10A30000936183239B009D44F0BD3E00A91D3A004C
:10A31000A01D08F011FC08360C4BB6B2EA5AA3197E
:10A32000991E0A70013B120A1A700123084D32204F
:10A33000AA6800219340D0221206536106F0B4FAB5
:10A34000002EC7D1D2E7C046F4FDFFFF0602000091
:10A350007069022000400340304BF0B546469846F5
:10A36000D6464F4681234246C0B59B00D35C844607
:10A370009A46002928D000258023A946284F294A3B
:10A38000DB00FB5ABC5A020008181D0001339B0574
:10A3900016789B0DA34228D001327E559042F4D10D
:10A3A0008022D200BB524B46002B15D15346002BC6
:10A3B0000AD0802342469B00D0581B4C241A8C4262
:10A3C00000D90C00002C1AD1E0BCBA46B146A84610
:10A3D000F0BD8022D200BB520122144BFA54114B23
:10A3E000FC525346002BEFD0E3E70134A4050132C1
:10A3F000A40D7E559042ECD00125A946C5E7220068
:10A400006146404408F098FB802342469B00D258A6
:10A41000A4184246D45000231355D5E7948C02204B
:10A420009C8E022002040000FF01000004040000D2
:10A43000F0B5DE46574645464E46E0B5C54CC648E3
:10A44000A5444EF0B3FE28ACC44D2000FFF7F8FB46
:10A4500023002A0013CB13C213CB13C2E121012422
:10A460001B6849021360BE4807F0E2F8002301228E
:10A470000821BB4807F06CF90121B94807F0A4F99D
:10A480002100AA68D02391401B069961E121B548BB
:10A4900049024EF08BFE4BF015F8B3484EF080FEAB
:10A4A000B24B0121B2481C704EF080FEB14BB24F4E
:10A4B0000393B24BBA460B93B14BA94C0293B14BE9
:10A4C0000693B14B1B93B14B9B46B14B0893B14BD9
:10A4D0000493B14B0593B14B9846B14B474699460F
:10A4E000B04B0D93B04B1193B04B1293B04B1393F1
:10A4F000B04B1493B04B1593B04B1C93B04B1D93C2
:10A50000B04B1E93B04B1F93B04B2093B04B0E93A8
:10A51000B04B2593B04B0993B04B2693B04B279388
:10A52000B04B1693B04B1793B04B1893B04B199395
:10A53000B04B1A93B04B2193B04B2293B04B239363
:10A54000B04B0C93B04B0793B04B2493B04B0F938D
:10A5500052F0CAFBFA22039B92001B68C31A934273
:10A560005AD20121092002F06FFC029B1B78002BBC
:10A5700007D052F0B9FB069B1968A64B411A9942C5
:10A5800050D84AF0B5FF52F0AFFB002306009846C2
:10A5900010253B8052F0A8FB801B632838D8A369A4
:10A5A0001D4214D1A3691D42FCD142462368DBB28F
:10A5B000002A10D1AA2BEDD14A461370A93B3B804B
:10A5C00052F092FB5346186001239846E2E70120BF
:10A5D00052F050FBDEE73A88511C398049468B54D3
:10A5E00052F082FB534618603B88052B06D94A4639
:10A5F00092881100083189B28B4225D252F074FB47
:10A6000053461B68C01A6428DED90D984EF0CEFD63
:10A610000A2052F02FFB9BE7039B18600B9846F033
:10A6200091FE9EE71B984EF0C1FD029B1B78002B0C
:10A6300000D036E10023029A1370049A13605A4640
:10A640001360059A13609CE74B4688468F211B6870
:10A650008900B49326AB5B181A80002A00D026E14B
:10A6600043468E204B445A1E1278023B1B7812023E
:10A6700013438000684A26A90918B4A88B524AF0EF
:10A68000A9FF051E52D1654A26AB9B181B78012BEA
:10A69000BED8634A26AB9B181B78622B00D110E111
:10A6A00000D9C3E0602B00D148E2612B00D186E1E4
:10A6B000012B00D17FE1062B00D060E18F2226AB79
:10A6C00092009B181B88032B00D873E2082B00D143
:10A6D000E9E226A98C46534BFFA8634419000422E3
:10A6E000DC3008F029FA0021FFABDC331E6833911F
:10A6F0003296300000F0C4FB051E00D08CE2310021
:10A7000012984EF053FD00F031FC474A26AB9B18DF
:10A7100010221B7801950095FF21FFA8DC304AF03C
:10A7200017FFFFA8DC30FFF7B9FD71E74AF08EFF95
:10A7300001000F984EF03AFD3B4A302026AB9B18A3
:10A74000012226A909181B780A70019232AA0092E8
:10A750001122E1E71CF9FFFF7CA4061070690220BA
:10A760000040034094A4061059A3001076C00220B4
:10A77000D8A40610EC650220C88A022008A506109D
:10A780006CC00220D083022014A50610D4830220BE
:10A7900044A50610C8830220CC83022060C002209A
:10A7A000AC92022070A5061088A50610A0A5061080
:10A7B000D4A50610F4A5061020A606104CA6061077
:10A7C00078A60610A0A60610CCA60610E8A60610CD
:10A7D0000CA7061030A70610C87302205CA706104D
:10A7E0008CA70610C0A70610E0A7061008A8061040
:10A7F00040A8061078A80610A4A80610D0A8061035
:10A80000F0A806109C8E0220948C022004A9061049
:10A8100028A9061060EA00000602000039020000C4
:10A820003A0200003E0200003B020000F02B00D183
:10A8300054E1F12B60D0632B00D0A0E017984EF0CC
:10A84000B5FC029B1B78002B00D17BE2049B1868AF
:10A85000002800D0F6E15B461968059B1A68914212
:10A8600000D1ABE119984EF0A1FC029B1B78002BA4
:10A8700000D061E20023029A1370049A13605A46D2
:10A880001360059A136022984EF090FCDD4A302048
:10A8900026AB9B18062226A909181B780A70053AD0
:10A8A00053E75B46089819684EF080FCC2E64B46B9
:10A8B00026A88446991DD44B6344180008F03CF93F
:10A8C000CEE623984EF072FC029B1B78002B00D042
:10A8D000E3E10022029BCB491A70049B1A605B469D
:10A8E0001A60059B1A6026AB5B183D391B78FF394F
:10A8F00001920092103210E78F2226AB92009B1833
:10A900001E88002E30D026A98C46BF4B32006344EF
:10A91000190032A808F010F9302226AB9B189D557B
:10A9200080230126079A9B00D550984632A804330D
:10A93000D6544EF007FA8123079A9B00B149D554AB
:10A9400026AB5B181B78002800D0EAE140461100D6
:10A950001258002A00D1E0E192B201920091F12256
:10A96000DAE620984EF022FCA64A302026AB9B184F
:10A97000032226A909181B780A70023AE5E6A14AC3
:10A9800026AB9B181978B4A84AF080FD002800D0A7
:10A990003EE69E4A26AB9B18197824984EF006FC9A
:10A9A000984A302026AB9B18022226A909181B784A
:10A9B0000A70013AC9E611984EF0F8FBA5E6029B31
:10A9C0001B78002B00D1F0E08F2226AB92009B1861
:10A9D0001B88984652F088F9069B424618605B46F1
:10A9E0001968059B52181B689A4200D982E100231E
:10A9F0000A934346002B68D0464601E0002E64D0FF
:10AA0000049B1B689846802342465B019B1A1D1CD1
:10AA10009BB2B34200D9351C26AA94467A4B0A9AB7
:10AA2000634494460998ADB2634419002A00404437
:10AA300008F082F80A9A4346AA1892B20A92802233
:10AA400004995B19761B0B60B6B252019342D5D3C1
:10AA50005B461D68269829004EF0A8FBEFF310888E
:10AA600072B68021280049015DF036FE8022280060
:10AA7000099952015DF020FE88F310885B461D683D
:10AA800080235B019C465B46002265441D60049B5D
:10AA900028001A60059B1B68984607F059FF5C491F
:10AAA00007F04FFF1090404607F052FF011C10982E
:10AAB00007F033FF07F07AFF42460090019129002A
:10AAC00027984EF073FB002E9AD14E4A26AB9B1866
:10AAD00000221B780192009210321DE680230C9A0E
:10AAE000DB00D15A4B4BD25A914203D28023DB0078
:10AAF0009C4661444348891A26AB1B1889B21B78CF
:10AB000000294ED080250E1CAD00A94200D92E1C74
:10AB10000021B6B232A80C9D0131AD5C0132920524
:10AB200089B20570920D01308E42F4D839490C98E3
:10AB3000425232AA00920196F022EDE58F2226AB16
:10AB400092009B181B88032B00D80AE726A98C4685
:10AB50002D4B04226344190032A807F0EDFF329E0A
:10AB6000159831004EF022FB029B1D78002D00D07D
:10AB7000BCE08022731E5203934200D39FE0012366
:10AB8000029A1370049B1D605B461D60059B1E604E
:10AB900052F0AAF8069B310018601E984EF006FB92
:10ABA000B3E5102201910091B6E50E984EF0FEFA41
:10ABB000169869E614984EF0F9FAD5E61A984EF010
:10ABC000F5FA0022029B0F491A7026AB5B18FFA80A
:10ABD0003D391B78FF3901920092DC3010324AF087
:10ABE000B7FCFFA8DC30FFF759FB642052F042F8B5
:10ABF00021984EF0DBFA0A220021002006F066FBC5
:10AC000006E5C0463B0200003E0200003A0200009A
:10AC10000000C8420204000000F06CFB0100139821
:10AC20004EF0C4FA4F4A2F2026AB9B18032226A9C8
:10AC300009181B780A7026A98C46023A01922E3216
:10AC4000624484E55B461B6805009846099BFF212A
:10AC50009C46FF358D432A1A604407F067FF424641
:10AC6000290018984EF0A2FAEFF3108672B68023EE
:10AC7000049A5B0112685B1B934267D32A0040462B
:10AC800009995DF019FD86F310885B46049A1B68EC
:10AC900012689B185A461360DDE55B4608981968F0
:10ACA0004EF084FA15E626A98C462F4B0822634401
:10ACB000190032A807F040FF329E339919E53100A0
:10ACC0001D984EF073FA1F984EF070FA254A2F2007
:10ACD00026AB9B18072226A909181B780A70063A8A
:10ACE00026A98C4601920200624430E51C984EF081
:10ACF0005DFAE8E7424625984EF058FA029B1B7829
:10AD0000002B29D10023029A16981370049A13601D
:10AD10005A461360059A1360B6E50192009210221C
:10AD2000FAE42F20022226A909180A7026A9020097
:10AD30008C46019662440AE55B46089819684EF015
:10AD400035FA97E50E984EF031FA9CE580214046A1
:10AD500049015DF0C1FC91E75B46089819684EF027
:10AD600025FACFE73B0200003E02000030B50D4C53
:10AD700083B02568002D04D00B484EF017FA03B0BD
:10AD800030BD012390220093084900230848019414
:10AD9000920051F0C3FB0128F1D006484EF006FAAC
:10ADA0002560ECE7A492022044A9061008A506102D
:10ADB00031A4001064A9061010B5FFF76FFA10BD9A
:10ADC00030B51C4B04001B788DB0002B2DD0002813
:10ADD0002DD051F089FFFA21174B89001B6803AD74
:10ADE000C01A06F085FE002302001449086849686D
:10ADF00012184B41290068460092019355F084FED9
:10AE00000F4A00209446089B63442380079B01332C
:10AE1000A370069BE370059B2371049B6371039BE6
:10AE2000A371099BE3710DB030BD0320FBE7022045
:10AE3000F9E7C04677C00220D48A0220C853002018
:10AE40006C0700000B4B00201B78002110B5002B75
:10AE50000FD051F049FFFA21074B89001B68C01A37
:10AE600006F046FE0023020004490868496880187D
:10AE7000594110BD77C00220D48A0220C853002057
:10AE8000F0B54546DE4657464E46E0B52F4D8DB0EF
:10AE90006B688B424EDC4AD002AC00900191684650
:10AEA000210055F031FE2A4A079B944663449FB225
:10AEB000069B029A0133DEB2FF231A409246039AA0
:10AEC0001A409146049A1A409046059A1A40214B1E
:10AED00093461B78002B37D00C22002108A807F0DE
:10AEE00025FE1D4B20009C46534602934B46039380
:10AEF000434604935B466744013E059307970696D5
:10AF000056F00AF86B688B4219DC15D0134B03C35B
:10AF100051F0EAFE124B012218600020114B1A700A
:10AF20000DB0F0BCBB46B246A946A046F0BD2B68AA
:10AF30008342B1D90420F3E72B688342E6D90A485B
:10AF40004EF034F90420EBE70320E9E7C05300207A
:10AF50006C07000077C0022094F8FFFFC853002060
:10AF6000D48A022078C0022084A9061030B5254C6E
:10AF7000A544254C2378002B3DD000F0FDFD002892
:10AF800037D02378002B05D1012420008F239B008C
:10AF90009D4430BD51F0A8FEFA211C4B89001B686E
:10AFA000C01A06F0A5FD0023020019490868496887
:10AFB00012184B41029203931A43E5D015490A2215
:10AFC00004A844F04DFC011E17D1082201AB02A9D0
:10AFD00004A844F0ADFE0500040004A845F04AF8BA
:10AFE000002D02D1019B082BCFD029000A484EF03A
:10AFF000DDF80524C9E70324C7E708484EF0D6F872
:10B000000524C2E7C4FDFFFF77C00220D48A0220D6
:10B01000C8530020B4A90610F8A90610C4A9061048
:10B0200030B51E4CA54400F0A7FD002828D0012211
:10B030001B4904A844F014FC002821D1082201ABCC
:10B0400002A904A844F07AFD0400050004A845F014
:10B0500011F8002C10D1019B082B0DD11149039B35
:10B060004A6802989A4214DC10D00F4A09C251F083
:10B070003BFE0E4B186004E029000D484EF096F898
:10B08000062420008F239B009D4430BD0A68824225
:10B09000EBD908484EF08AF80424F2E7C4FDFFFF1C
:10B0A000B4A90610C0530020C8530020D48A02203F
:10B0B00024AA06104CAA0610F0B5CE46474680B525
:10B0C000714E97B03378002B05D0002017B0C0BC6C
:10B0D000B946B046F0BD6D480CAC4EF067F824227E
:10B0E0000021200007F022FD07AB69490093694861
:10B0F00006AB05AA55F034F8674905A856F016FDC9
:10B10000002800D1A0E0654905A856F00FFD0028F1
:10B1100000D198E0624905A856F008FD002800D14A
:10B1200094E0604905A856F001FD002800D190E0A8
:10B130005D4905A856F0FAFC002800D18CE05B4977
:10B1400005A856F0F3FC002800D188E0584905A86E
:10B1500056F0ECFC002800D184E0564905A856F0D2
:10B16000E5FC002800D180E0534905A856F0DEFC3C
:10B1700000287DD0514905A856F0D8FC00287AD087
:10B180004F4905A856F0D2FC002877D04D4905A8B4
:10B1900056F0CCFC002874D04B4A069B9446E360E2
:10B1A000079B0AAD6344636108AA4849009509AB4F
:10B1B000474854F0D5FF089B2000A360099B6360BB
:10B1C0000A9B0C9355F0A8FE424F0A9038607960B4
:10B1D00028000B91210055F097FC3F4B61699C467C
:10B1E0000C98A368FF259946614484466368207BD8
:10B1F0002B402269644601934B4680462C40013225
:10B200001D4089B24346D2B23448029400954DF0B5
:10B21000CDFFFFF705FF002808D131484DF0C6FFEC
:10B220000123304833704DF0C1FF4EE72E484DF0FA
:10B23000BDFF386879682D4B1860596051F054FD96
:10B240002B4B1860ECE701202061A5E7022020616C
:10B25000A2E7032020619FE7042020619CE70520EE
:10B26000206199E70620206196E70720206193E797
:10B270000820206190E7092020618DE70A202061E5
:10B280008AE70B30206187E777C0022088AA061082
:10B29000ACAA0610E4910610B8AA0610BCAA0610C3
:10B2A000C0AA0610C4AA0610C8AA0610CCAA061086
:10B2B000D0AA0610D4AA0610D8AA0610DCAA061036
:10B2C000E0AA0610E4AA061094F8FFFFE8AA061008
:10B2D000F4AA0610C05300206C07000000AB061053
:10B2E00034AB061088AB06105CAB0610C8530020C8
:10B2F000D48A0220062803D8024B8000C058704729
:10B300000148FCE7A4610710ACAB06100048704789
:10B3100060EA000010B500F02FFC10BD30B51A4CEB
:10B320000500A54400F028FC00281DD0002D21D0E8
:10B330000122164904A844F093FA002814D10822E7
:10B3400001AB02A904A844F0F9FB040004A844F0EE
:10B3500091FE002C0ED1019B082B0BD1039B029A6E
:10B36000002B09DD0CC500E0022420008F239B0088
:10B370009D4430BD0124F8E7002B02D104498A42E4
:10B38000F0D80324F1E7C046C4FDFFFF20AC06104F
:10B39000FFE00B5E10B5194CA5440090019100F040
:10B3A000EBFB002828D0019B002B1DDD0A2214494D
:10B3B00004A844F055FA002804D001208E239B00F5
:10B3C0009D4410BD0822694603AB04A844F0B0FCBC
:10B3D000040004A844F04EFE002CEED10398083877
:10B3E000431E9841C0B2E9E7002B03D1054B009AF8
:10B3F0009A42DBD80320E1E70220DFE7C8FDFFFF28
:10B4000020AC0610FFE00B5E10B505484AF02AF9A3
:10B41000041E01D1200010BD02484DF0C7FEF9E71F
:10B42000C06107102CAC0610F8B5CE46474623483D
:10B4300080B54DF0BBFEFFF73FFE002836D151F03E
:10B4400053FC1F4B1F4E9946FA239B0098461E4FF4
:10B45000306051F049FC3B68C31A43451CD20121BE
:10B46000082001F0F1FC4AF027F9050051F03CFCFE
:10B4700033680400C31AAB4204D34AF02DF9002804
:10B480000FD13460FA20800051F0F4FB51F02CFC15
:10B490003B68C31A4345E2D33860484645F052FF43
:10B4A000DDE7FFF7CFFC4AF0EDF8EAE7FFF722FF10
:10B4B000064B010018004DF079FEC0E76CAC061099
:10B4C000B0AC0610CC8A0220F065022088AC0610D1
:10B4D00030B50D4C83B02568002D04D00B484DF0DD
:10B4E00065FE03B030BD012380220093084900238C
:10B4F00008480194920051F011F80128F1D0064853
:10B500004DF054FE2560ECE7A8920220B4AC061082
:10B51000D8AC061029B40010E4AC0610F0B5DE4635
:10B5200057464E464546E0B5CB4CA54451F0DCFBB2
:10B53000CA4B27909A461B68002B00D1E1E2C84B0A
:10B5400099461B68002B00D1E7E20023C54CFA277F
:10B55000237051F0C9FB6060C3484DF027FEC34B18
:10B56000C34E0693C34BBF009846C34B0E93C34BC9
:10B570001293C34B1C93C34B2193C34B0B93C34BED
:10B580001393C34B0F93C34B2493C34B2293C34BCF
:10B590000993C34B1F93C34B2593C34B1E93C34BBC
:10B5A00019934CAB9B46C24B1A93C24B1B93C24B95
:10B5B0001593C24B2093C24B1893C24B1693C24BA8
:10B5C0001093C24B1193C24B0793C24B0C93C24BC7
:10B5D0001D93C24B1493C24B2393C24B0893C24B8F
:10B5E0001793C24B0A9351F07FFB3368C31ABB42D7
:10B5F00055D20121002001F027FC51F075FB636852
:10B600002178C01AA060052900D91BE143468900B2
:10B610005B589F4604254B461868002819D0002225
:10B620002DA950F05BF8012813D1237C002B0DD0FD
:10B6300053461868002806D0FA21890050F0DCF83B
:10B64000012800D15EE107984DF0B0FD013D002DCD
:10B65000E1D1A74BA2689A4217D94AF095FA051E84
:10B6600000D11AE251F040FB60600EE06378012BDC
:10B6700000D1DAE1FA23DB00984206D39D4B238008
:10B6800051F032FB00236060A360642127A851F0D1
:10B690009FFA51F029FB3368C31ABB42A9D330602B
:10B6A000069845F04FFEA4E700232374089B1D78FD
:10B6B000002D00D1BFE1904B9842E6D901211798A7
:10B6C0004DF074FDCEE74AF0F3F8051E00D07DE1A1
:10B6D0000E984DF06BFD74A84AF0E4FB2378E5600A
:10B6E000022BD2D063700223237051F0FDFAA560C3
:10B6F0006060CAE70123B842C1D2C6E70B9D0122B0
:10B7000029007E4844F06AF8011E00D075E11398C4
:10B710004DF04CFD29AB190028AA280044F00AFE80
:10B720000F984DF043FD03F03BFE0100022800D1CD
:10B73000C4E1002800D0ACE10999322274A844F099
:10B740008FF8011E00D085E151F0CEFA05002BA83C
:10B75000FFF736FB002805D120AB9B8D684A93424A
:10B7600000D9AFE12B0020211E9A2DA808F054FE2D
:10B770008021199A2DAB584608F04EFE584656F0D7
:10B7800021FA594602002AAB74A844F0D1FA80216C
:10B790001A9A2DAB584608F03FFE584656F012FA5A
:10B7A000594602002AAB74A844F0C2FA159D8021C4
:10B7B0002B00103B1B9A009358462DAB019508F0C7
:10B7C0002BFE584656F0FEF92AAB0200594674A8E3
:10B7D00044F0AEFA2B00173B5A79189B002A00D090
:10B7E000209B8021169A009358462DAB08F014FE3A
:10B7F000584656F0E7F9594602002AAB74A844F0BF
:10B8000097FA74A844F036FC01230025109823749D
:10B81000E5604DF0CBFC01F011FB002805D00223C0
:10B8200000220021009552F031FD2378032B00D136
:10B830002BE763700323237051F056FA00236060F6
:10B84000A36022E70A984DF0B1FC2378042B00D1C5
:10B850001BE763700423EEE704FCFFFFC0B1022086
:10B86000D4B10220D8B1022074AD061090AD0610FC
:10B87000FC650220D46107109CAD0610CCAD06100B
:10B88000FCAD06103CAE06106CAE061070AE061095
:10B89000A0AE0610D0AE061000AF061028AF0610FE
:10B8A0003CAF061070AF061090AF061094AF0610B4
:10B8B000BCAF0610DCAF06100784022008AD0610EE
:10B8C00010AD061000B0061010B0061040B0061003
:10B8D0006CB00610BC8A0220A8B00610C4B00610D6
:10B8E000E0B0061069C002201CB106106CB1061051
:10B8F0000F270000020500005FEA0000ECB1022003
:10B90000E40700003222099974A843F0A9FF002837
:10B9100054D12BA8FFF754FA51F0E6F9FA21890027
:10B9200006F0E6F80C9820AB9A8D03880D919342AF
:10B9300004D120ABD98D4388994218D02F2120AB58
:10B940005B181B780139019220AA521812787231C3
:10B95000009258461D9A08F05FFD594602002AAB36
:10B9600074A844F0E5F90C9B2BAA03CA03C3302248
:10B97000322120AB9B182EAA1B7803920D9A5846B1
:10B98000029220AA521812780139019220AA521864
:10B9900012786D310092149A08F03EFD59460D233D
:10B9A00002000B540B180A210232597074A8594630
:10B9B0002AAB44F0BDF974A844F05CFB5346002266
:10B9C0000021186800234FF069FC3FE64AF080FB35
:10B9D000010012984DF0EAFBE5680135E560002DA5
:10B9E0004CD12378052B00D14FE6637005232370DB
:10B9F00051F07AF9A560606047E611984DF0D6FBEA
:10BA00004D4D143DEB6801330D93EB60002B25D1B8
:10BA10002B78052B00D138E66B7005232B7051F085
:10BA200063F90D9B6860AB602FE6444B984200D8E9
:10BA30002BE6434B23E601F001FA002805D0022350
:10BA400000220021009552F021FC0123089AA068F1
:10BA5000137030E61F984DF0A9FBD5E61C984DF009
:10BA6000A5FB2B78042B00D10FE66B7004232B7001
:10BA700051F03AF900236860AB6006E61C984DF07F
:10BA800095FB21984DF092FB2378042B00D1FCE527
:10BA9000DFE622984DF08AFB4EE623984DF086FBB8
:10BAA00023782574E560012B00D1DBE56370012369
:10BAB000237051F019F9A5606060D3E524984DF02A
:10BAC00075FB39E6322120AA521812780139049206
:10BAD00020AA521812780139039220AA521812781B
:10BAE0000139029220AA521812780139019220AA33
:10BAF000521812780E3900922DA8259A08F08CFC65
:10BB000036E601204FF0B4FC53461860002800D000
:10BB100015E50C484DF04AFB11E500227C21082078
:10BB20004FF020FB4B461860002800D00DE506487A
:10BB30004DF03CFB09E5C046ECB102208713000044
:10BB4000010500001CAD061048AD061000B5074BFE
:10BB500083B00193E0220123054900939200002362
:10BB6000044850F0DBFC03B000BDC04620B4022006
:10BB700090AD06101DB50010014B187C7047C046F3
:10BB8000D8B10220F0B5454657464E46DE46E0B5F0
:10BB90009846C74BC74C1E7CA5440F0004001500F7
:10BBA000002E11D000280FD0002A0DD0C24B1868EB
:10BBB0009A46002805D0FA2189004FF01DFE012881
:10BBC0000DD0BE484DF0F2FA00263000EB239B006A
:10BBD0009D44F0BCBB46B246A946A046F0BD10ABA2
:10BBE0009B465A46B64B03CB03C21B78584613708C
:10BBF00055F0E8FF002F1DD00823DB1BDBB20893B4
:10BC0000B04B072709932B002500994604004022DA
:10BC1000111B5A462B781019099A08F0FDFB089B56
:10BC20000234BB4204D0013FFFB20135002FEED1F8
:10BC30004D4620004021A44A091A584408F0ECFB64
:10BC40005946322260A843F00BFE011E00D01FE1CE
:10BC50000BAF3800FFF7B4F851F046F83B88FA21F3
:10BC6000994643468900069305F042FF05918021DD
:10BC7000BB79964C04937B79220003933B7949006E
:10BC80000293FB7820A80193BB7800934B4608F001
:10BC9000C3FB0AAB020020A960A844F049F8071EC4
:10BCA00000D000E1A968EB68049180210593EB883E
:10BCB000874A03936B79490002932B7920A801935B
:10BCC0002B680DAC00933C2308F0A6FB0AAB0200E6
:10BCD00020A960A844F02CF88021EB7E7D4A0493D3
:10BCE000AB7E490003932B8B20A802936B690193D1
:10BCF0002B6900933D2308F08FFB0AAB020020A9BB
:10BD000060A844F015F82B23EB5C802104932A23D0
:10BD1000EB5C714A03932B8D490002936B6A20A858
:10BD200001932B6A00933E2308F076FB0AAB0200D6
:10BD300020A960A843F0FCFF80216B6B674A029347
:10BD4000AB6B490001932B6B20A80093382308F0BC
:10BD500063FB0AAB020020A960A843F0E9FF9C2323
:10BD6000EB58802101939823EB585D4A00934900DA
:10BD7000302320A808F050FB0AAB020020A960A8DD
:10BD800043F0D6FF6623EB5A802105936523EB5CD5
:10BD9000544A04936423EB5C490003936223EB5AF7
:10BDA00020A802936023EB5A0193EB6D0093342398
:10BDB00008F032FB0AAB020020A960A843F0B8FFEC
:10BDC0006B6F802103932B6F474A02936C23EB5ACE
:10BDD00049000193AB6E20A800933D2308F01CFBA3
:10BDE0000AAB020020A960A843F0A2FF8423EB580D
:10BDF000802103938023EB583C4A02937C23EB5A27
:10BE000049000193AB6F20A800933E2308F004FB88
:10BE10000AAB020020A960A843F08AFF2900200095
:10BE20000B22883106F088FE9423EB5AE7725BBA46
:10BE30009BB2029393238021EB5C2D4A00940193E3
:10BE40004900342320A808F0E7FA20A902000AAB31
:10BE500060A843F06DFF274B20AA13CB13C213CB6E
:10BE600013C213CB13C203CB03C21B7820A91370D8
:10BE700060A80AAB2C2243F05BFF60A844F0FAF8FC
:10BE8000534600220021186800234FF007FA9CE671
:10BE900019484DF08BF95346002200211868002301
:10BEA0004FF0FCF990E660A844F0E4F8F3E7C046F0
:10BEB000D8B1022054FCFFFFC0B1022094B106109B
:10BEC000D0B10610DCB1061024B9061014B2061069
:10BED000B4B206102CB30610CCB306106CB4061026
:10BEE000F4B4061040B50610F0B5061064B606109E
:10BEF000D4B6061020B70610E4B10610F0B55746C8
:10BF00004546DE464E46E0B55B4B5C4C1F7CA54487
:10BF10000D000400002F1AD0002818D0584B1868C4
:10BF20009A46002805D0FA2189004FF065FC0128C7
:10BF300011D054484DF03AF900273800DB239B001C
:10BF40009D44F0BCBB46B246A946A046F0BD4E4853
:10BF50004DF02CF9F0E76A464C4BE84603CB03C2A0
:10BF60001B786846137055F02DFE0600002D1BD07F
:10BF700008235B1BDBB29946454B07259B463B00DC
:10BF80004F4699464022911B4246237890195A46C3
:10BF900008F042FA0236BD4204D0013DEDB2013450
:10BFA000002DEFD14F46300040213A4A091A404453
:10BFB00008F032FA0122414650A843F051FC041E19
:10BFC00046D1354E002430004DF0F0F8334B1800C8
:10BFD00098464DF0EBF86B463148D91C4DF0E6F829
:10BFE00040464DF0E3F82F4D802150AA490010A89B
:10BFF00044F0BEFA002816D010A9280001344DF0F4
:10C00000D5F83221200005F073FD0029ECD1022083
:10C01000013100F019FF802150AA490010A844F016
:10C02000A7FA0028E8D140464DF0C0F821001E488C
:10C030004DF0BCF830004DF0B9F850A844F01AF8B3
:10C04000534600220021186800234FF027F974E7B7
:10C050002200414615484DF0A9F8042C07D053465C
:10C0600000220021186800234FF018F964E71048F7
:10C070004DF09CF8F3E7C046D8B1022094FCFFFFD6
:10C08000C0B1022080B7061050B70610D0B106101C
:10C09000DCB1061024B90610E8170710FC91061051
:10C0A00008B8061074F6061030B80610A4B70610CB
:10C0B000DCB706100FB410B5BEB0409B002B2BD0E0
:10C0C0001A00782141AB01A8009308F0B9F977284C
:10C0D00028DC1B4801A94DF069F81A4B1B7C002B8A
:10C0E0001AD0194C2368002B16D050F0FDFD772292
:10C0F0001F9001A920A854F06FFA7C2069467B2389
:10C1000000220918CA54206800234FF0C7F80138EC
:10C1100043425841C0B200E000203EB010BC08BC11
:10C1200004B018476946772300220431CA540448F2
:10C1300001A94DF03BF8034B1B7C002BD1D1EBE761
:10C1400044B80610D8B10220D4B10220F0B545465B
:10C150004E46DE465746E0B5454B464C1B7CA54453
:10C160000E00040015009846002B0ED000280CD0BD
:10C17000002A0AD0404B18689A46002805D0FA21B8
:10C1800089004FF039FB01280AD000263000DF2358
:10C190009B009D44F0BCBB46B246A946A046F0BDFC
:10C1A00004AB99464A46354B03CB03C21B7848463D
:10C1B000137055F007FD0700002E18D008239B1BB5
:10C1C000DBB201932E4B07269B464022D11B4A46E9
:10C1D0002378D0195A4608F01FF9019B02379E4276
:10C1E00004D0013EF6B20134002EEED138004021D9
:10C1F000244A091A484408F00FF90122494654A874
:10C2000043F02EFB00282BD1002600271E4C05E012
:10C21000210014A854F0B6FB002815D1802154AA9F
:10C22000490014A844F0A4F90028F1D154A843F01F
:10C2300021FF534600221868002100234FF02EF8FA
:10C24000002EA2D02F60A1E700231049073003AAD7
:10C25000039353F085FF0128E0D14646039FDDE7B5
:10C26000534600220021186800234FF017F88CE78E
:10C27000D8B1022084FCFFFFC0B10220D0B106106B
:10C28000DCB1061024B9061050B8061090AF0610A5
:10C29000F0B5CE46474680B506000C0091461F001B
:10C2A0008FB0002941D006AD2800FEF789FD002897
:10C2B0001AD01F4D08AB984607CD07C306CD06C35D
:10C2C000032F25D0042F2ED01A4B002E23D00093FD
:10C2D000494643462000184A019608F09DF80FB0E1
:10C2E000C0BCB946B046F0BD08A98846A9792B88DC
:10C2F00004916979404603912979104A0291E978BD
:10C300000191A9780091182108F086F8032FD9D15E
:10C310000B4B002EDBD10093494643462000094ACF
:10C3200008F07AF8DBE7084BCFE701204042D6E778
:10C3300068B8061060B806107CB8061070AF06101A
:10C3400060F106108CB8061058B80610F0B55746C4
:10C350004E46DE464546E0B595B0061E8A46079233
:10C3600050D000294ED008AC2000FEF729FD00284F
:10C3700035D00EAB9B465A46244B13CB13C203CB8E
:10C3800003C2F3790AAF002B19D0214B0AAF9946AB
:10C39000102398463B0000254F460024994642460C
:10C3A000111B4A46735D10193A0008F035F8F3790D
:10C3B00001352418AB4201DD0D2CF0DD4F46B3688A
:10C3C00050460193134A5B460799009708F024F8FA
:10C3D00015B0F0BCBB46B246A946A046F0BD0EA9BA
:10C3E0008B46A1792388049161795846039121797C
:10C3F000094A0291E1780191A1780091182108F091
:10C400000BF8BEE701204042E2E7C04668B80610DC
:10C41000DCB10610A8B8061070AF0610F0B557468C
:10C420004E46DE464546E0B595B0061E8A46079262
:10C4300055D0002953D008AC2000FEF7C1FC0028DD
:10C4400038D00EAB9B465A46264B13CB13C203CBB8
:10C4500003C2F3790AAF002B14D0234B0025994671
:10C460001023002498460AAF4246735D111B381909
:10C470004A4607F0D1FFF37901352418AB4201DDBC
:10C480000D2CF1DD7369002B27D0316950460491E2
:10C49000F168164A0391B168009302915B460799CF
:10C4A000019707F0B9FF15B0F0BCBB46B246A946EC
:10C4B000A046F0BD0EA98B46A1792388049161792D
:10C4C0005846039121790A4A0291E1780191A178B5
:10C4D0000091182107F0A0FFBBE7064BD5E701202C
:10C4E0004042E0E768B80610DCB10610D8B8061084
:10C4F00070AF0610D4B8061030B5040085B008003F
:10C500001100002813D0132A11D9002C0BD0E57884
:10C5100023780295A578074A01956478009407F07E
:10C520007BFF05B030BD044A07F076FFF9E7012034
:10C530004042F6E72CB9061018B9061010B50548A8
:10C5400049F0DAF8041E01D1200010BD02484CF079
:10C550002DFEF9E7EC6107104CB90610F0B5DE4688
:10C5600057464E464546E0B59148BDB04CF01EFEDC
:10C57000FCF7AAFFFDF77EFD8E484CF017FEFDF795
:10C5800063FD8D484CF012FEFDF784F88B484CF0AB
:10C590000DFEFFF7DBFA8A484CF008FE0121894ABC
:10C5A000002051F0AFFDFFF7E7FA002810D08648D1
:10C5B0004CF0FCFDFFF7C2FF84484CF0F7FD45F05E
:10C5C0006DF8002800D1FDE281484CF0EFFD0CE051
:10C5D00080484CF0EBFD01F039F9002800D1EDE284
:10C5E0007D484CF0E3FD00F083FE01F07BF8020093
:10C5F0000400C11D4079794B1732002800D0784BD8
:10C6000078484CF0D3FDFEF7FFFE77484CF0CEFDA6
:10C61000FEF75EFF75484CF0C9FD4AF079F97448A1
:10C620004CF0C4FD4CF064FB72484CF0BFFDFDF7CC
:10C6300003FA71484CF0BAFD002044F055FB6F4DF1
:10C640002860002800D175E3272144F05FFD002811
:10C6500000D134E344F05CFE694B010018004CF05B
:10C66000A5FDFDF789FBFDF73DFD66484CF09EFDFD
:10C670002B23E35C002B00D191E3634B63481A004A
:10C680000493022313714CF091FD002044F0CAF88A
:10C690005F4E30605F484CF089FD0125280044F072
:10C6A000F5FA5D4B010018004CF080FD2723E35C98
:10C6B000002B00D1FFE2FCF74DFAFCF761FA0028ED
:10C6C00000D165E30123049A544813704CF06EFDC9
:10C6D000002048F0FFFB002800D122E348F03EFD97
:10C6E000011E00D1D5E24E484CF060FDFDF7B8FDCB
:10C6F0004C484CF05BFDFCF7B3FD2823E35C002BBA
:10C7000000D1D4E20223049A474853704CF04EFD06
:10C710002923E35C002B00D1B7E2FCF76FFE012375
:10C72000049A424893704CF041FD2A23E35C002DAB
:10C7300000D0A0E2002B00D005E33D484CF036FDD0
:10C740002C23E35C002B00D191E2FEF70FFB0123C9
:10C75000049A384853714CF029FD00F0ADFD36487D
:10C760004CF024FD01204EF083FE344B9A461860B5
:10C77000002800D1DAE232484CF018FDFA200121FD
:10C78000800004F05FFD2F4B2F481A000293012315
:10C7900013704CF00BFD2D484CF008FD2C492D4832
:10C7A0004CF004FD50F0A0FA2B4D04005BE0C046B5
:10C7B0009CB90610C0B90610ECB9061018BA0610DC
:10C7C0003CBA06103075000078BA0610B0BA0610F0
:10C7D000E0BA061038BB06109CBB06107CB90610E8
:10C7E00018AD0610CCBB0610FCBB061034BC0610FE
:10C7F00060BC061080BC0610ACBC0610946A022017
:10C8000004BD06103CBD0610149C0220F0BD0610AD
:10C810008C6A022038BE0610A4BE0610ECBE0610BC
:10C82000A0BF0610D0BF0610A8C00610E8C00610B2
:10C8300054C10610C8C10610F4C10610689D02203C
:10C8400080C2061082C00220A8C20610DCC20610F8
:10C850008813000008C306108713000004F0E8FCEA
:10C86000642050F007FA50F03FFA001BA842F5D9B7
:10C87000DA484CF09BFC04F0DBFC50F035FAD84B66
:10C8800007000D931EAB9946D64B1D93D64B1393C1
:10C89000D64B0C93D64B1493D64B0693D64B07939B
:10C8A000D64B0B93D64B0593D64B09935346039324
:10C8B000642050F0DFF9029B1C78002CF8D0039B19
:10C8C0001B68002BF4D050F00FFAC823C01B9B004C
:10C8D0009842EDD3039B0A2118684EF08DFF012882
:10C8E000E6D14DF051FE50F0FFF9494607004846A9
:10C8F0000D9A24261379156A0A930B70936808938E
:10C900004B6013688B60117CD3680173159151697A
:10C910008846494640464B610861117F93698B46C2
:10C92000494658460B620876CD6148462821536A2D
:10C93000515CC362342381551691D16A81620E9194
:10C94000D15C043B1791C154136B916B83634023FB
:10C9500041630F91D15C043BC154D36B1891436484
:10C960004C23516C01641091D15C043BC154936C15
:10C97000199103655823116DC1641191D15C043B79
:10C98000C154536D1A91C3656423D16D81651291B1
:10C99000D15C043BC1541B91916E136E8A4649468B
:10C9A00050468B6670234866D65C043BCE54130019
:10C9B000526FDB6E0A674B671C924DF0F1FD039AD4
:10C9C00000231068002100224EF068FC089BFA1A30
:10C9D00096231B019A4200D926E10A9B022B00D123
:10C9E00022E1013B1A0053425A412100D2B2434690
:10C9F000F81A96231B01984200D912E1159B022BCD
:10CA000000D10EE1013B58424341134396227D1B66
:10CA10001201954200D901E15A46022A00D1FDE0F7
:10CA2000013A504242411343049A1278012A0ED12E
:10CA300096200E9A0001BA1A824200D90EE1169A87
:10CA4000022A00D10AE1013A504242411343049ABA
:10CA50009278012A0ED196200F9A0001BA1A8242CA
:10CA600000D9F5E0179A022A00D1F1E0013A5042CC
:10CA700042411343049AD278012A0ED19620109A8B
:10CA80000001BA1A824200D9EBE0189A022A00D1BA
:10CA9000E7E0013A504242411343049A5278012A96
:10CAA0000ED19620119A0001BA1A824200D9DBE019
:10CAB000199A022A00D1D7E0013A50424241134369
:10CAC000049A1279012A0ED19620129A0001BA1AFC
:10CAD000824200D9BFE01A9A022A00D1BBE0013A93
:10CAE00050424241134352469620BA1A00018242F4
:10CAF0000FD81B9802280CD0049A5279012800D133
:10CB000095E0012A00D1FEE0002902D0002B00D0E0
:10CB100093E01D984CF04AFB4D460024BA4604E0D1
:10CB20000134E4B20C350A2C25D053466A689F1AAA
:10CB3000022C6DD02B78012B48D0069E022B03D0FF
:10CB4000079E002B00D00C9EAB68320098460598DB
:10CB50003B0041464CF02AFBFFF70EF80028DFD0DF
:10CB600001343B00320041460998E4B2FFF7A2FAD3
:10CB70000C350A2CD9D1039B0A21186857464EF070
:10CB80003BFE012800D093E6002128230D9A03984C
:10CB9000D1540C33D1540C33D1540C33D1540C3305
:10CBA000D1540C33D1540C33D15411711174117709
:10CBB0000B000A0000684EF071FB79E612484CF059
:10CBC000F5FA12E511484CF0F1FA0EE5C8230B9E78
:10CBD0009B009F42B8D9149EB6E7C04648C30610D2
:10CBE0003812002088C30610B8C306108CB906108E
:10CBF00094B9061060F1061080B90610BCAB06109F
:10CC000008C4061028C4061074BB061004BB061026
:10CC10005946139800974CF0C9FA8BE7230000217E
:10CC200002E723000021F1E622000021DFE62300D5
:10CC3000012A68D0002900D16BE704F0F9FA039BC0
:10CC40000A2118684EF0D8FD012800D030E69BE795
:10CC5000230000210EE72300002144E723000021E8
:10CC6000F5E62300002118E72300002128E75248B9
:10CC70004CF09CFA76E5002B00D15EE50223049A85
:10CC80004E48D3704CF092FA5AE54D484CF08EFA6B
:10CC90004BE54C484CF08AFAFDF7E2FA4A484CF072
:10CCA00085FAFCF7DDFA2823E35C002B63D14748C3
:10CCB0004CF07CFA2CE546484CF078FA08E54548FB
:10CCC0004CF074FAFDF758F8FDF70CFA42484CF0B6
:10CCD0006DFA2B23E65C002E3FD140484CF066FAFB
:10CCE000300043F09FFD3E4B04933E4E30600028E1
:10CCF00025D0296843F09EFD051E00D0CEE43A48B9
:10CD00004CF054FAD2E496201C9A0001BA1A8242DE
:10CD100000D9FEE6022E00D1FBE6012E00D0F3E69C
:10CD200088E732484CF042FA0121DCE430484CF00C
:10CD30003DFA23E52F484CF039FA01208AE42E48C9
:10CD40004CF034FAA9E4306843F0ACFF0123049AB4
:10CD50002A48D3704CF02AFAF2E4FDF7AFF8204BE2
:10CD600027481A000493012313714CF01FFA002086
:10CD700043F058FDB9E748F08BF848F083F80028F5
:10CD800013D00123049A1F4853704CF00FFABFE4EC
:10CD90000223049A1C4813704CF008FA98E40F48D8
:10CDA0004CF004FA0E4B04936FE40223049A1748E4
:10CDB00053704CF0FBF9ABE420C2061084C106109E
:10CDC00008C10610FCBF0610D0BF061078C00610C0
:10CDD00040BF061064BD06103CBD0610BCBD061069
:10CDE000149C02208C6A0220D0BE061068BF061078
:10CDF00054C20610D0BC061070BE061030C106101A
:10CE000090BD061020C0061010BF061044C00610CA
:10CE100000B5074B83B00193C0220223054900935C
:10CE20005200002304484FF079FB03B000BDC04618
:10CE30004CB4022044C406105DC50010014B1868B4
:10CE40007047C0464CB40220F8B504000E00092813
:10CE500018D8204F3868002808D00A214EF0CCFCA2
:10CE60000500012814D0022C27D0F8BD022CFCD1DB
:10CE7000194C2378002BF8D118484CF097F901236E
:10CE80002370F2E70A22210015484CF08FF9ECE7F5
:10CE90004FF02AFF6200134B121992009B180222D6
:10CEA000921B01001A719860022C0AD00023002204
:10CEB000002138684EF0F2F9D7E70B484CF076F9CC
:10CEC000D3E70A4C2378002BF0D109484CF06EF9D7
:10CED0002570EBE7689D022088C0022078C4061008
:10CEE00050C4061038120020F4C4061086C0022078
:10CEF000B4C4061070B505280CD8244B244D84000A
:10CF0000E1582B5C012B31D022484CF04FF9224BD9
:10CF10001B599F46214B010018004CF047F9002097
:10CF200070BDFDF723FF012301206B71F8E747F087
:10CF3000AFFF012301206B70F2E7194C206843F02A
:10CF40009FFE00281CD0206843F0ACFE0123012086
:10CF5000EB70E5E7FCF7B2FF012301202B71DFE75F
:10CF6000FCF74CFA01230120AB70D9E70D484CF0D7
:10CF70001DF9D4E7FBF7EEFD012301202B70CFE76D
:10CF800009484CF013F90223EB70C8E71862071048
:10CF9000149C022070C50610006207102CC50610F4
:10CFA0008C6A022050C506108CC5061010B50528E5
:10CFB0000FD80B4B8200D1580A4B1B5C012B04D1BC
:10CFC00009484CF0F3F8002010BD08484CF0EEF88A
:10CFD000F9E7074B010018004CF0E8F8F3E7C0460A
:10CFE00018620710149C0220D4C50610B8C506109C
:10CFF0002CC50610052803D8024B8000C058704786
:10D000000148FCE718620710C88A0610F0B5DE4632
:10D0100057464E464546E0B58BB000F063FB394BB2
:10D02000040018009B464CF0C1F8374B9A46180094
:10D030004CF0BCF835484CF0B9F850464CF0B6F816
:10D0400033484CF0B3F833484CF0B0F82723E35C96
:10D05000002B54D0304B04932823E35C002B4CD09E
:10D060002D4B05932923E35C04AD002B43D02A4BC1
:10D07000AB602A23E35C002B3BD0274BEB602B23D8
:10D08000E35C002B33D0244B2B612C23E35C002B7F
:10D090002BD0214B01AF3A006B61204B204E13CBBC
:10D0A00013C2182399461F4B1F4C9846A14433784E
:10D0B00002CC9B004046FB5804CD4CF077F801367B
:10D0C0004C45F4D150464CF071F818484CF06EF8CD
:10D0D00017484CF06BF858464CF068F80BB0F0BCB1
:10D0E000BB46B246A946A046F0BD124BD2E7114B53
:10D0F000CAE7104BC2E70F4BBAE70E4BB1E70D4B37
:10D10000A9E7C046E8170710FC9106101CC60610D8
:10D1100060C6061094C6061004C6061030620710DA
:10D12000149C022054C706101862071068C7061026
:10D1300094C7061010C60610002280B5084F0300E1
:10D14000BD44FF210192009202A8103248F000FA7B
:10D1500002A8FDF731FE84239B009D4480BDC0469C
:10D16000F0FDFFFF10B50800FFF7E6FF02484CF0A6
:10D170001DF8012010BDC04628C8061080B5084F14
:10D18000BD440193009203000A0002A8FF2148F069
:10D19000DFF902A8FDF710FE84239B009D4480BDAB
:10D1A000F0FDFFFF30B585B001AC0D000A22002173
:10D1B000200005F0BBFC43F0DDFA002801D0037825
:10D1C00023700123637000236380094B2200636096
:10D1D000084B2800238104210A23FFF7CFFFE378BF
:10D1E000A278617804484BF0E1FF012005B030BD22
:10D1F00078563412010700005CC8061070B58AB07A
:10D2000004AC18220E002000002105F08FFC43F032
:10D21000B1FA051E16D08368002B13D00278227055
:10D220009A68002A02D09047AB6860705A6A002A58
:10D2300002D09047AB686060DB68002B02D0984753
:10D2400000282DD146F0CAF8002813D11823220057
:10D2500021213000FFF792FFE37861786268DB07F5
:10D2600006D5124B12484BF0A1FF01200AB070BD49
:10D27000104BF7E70122E37868461343E37046F06A
:10D2800081F90028E2D06B469B7A1D1C072B00D940
:10D2900007256946EAB207A805F04EFCE574D5E714
:10D2A0000222E3781343E370CCE7C04690C806102F
:10D2B000A0C8061098C8061010B5032108484BF006
:10D2C00075FF084848F0D2F8041E04D106484BF018
:10D2D0006DFF200010BD05484BF068FFF9E7C04620
:10D2E000E0C806103C62071018C906104CC90610A9
:10D2F000F8B5DE4657464E464546DA48E0B54BF0AF
:10D3000055FFD94CD94B0F2223600623D849A3805F
:10D31000E01D033BA37153F05FF9200000260F22AC
:10D32000D4491730A67553F057F980235B00E38486
:10D33000D14B0125A3622C23E554FA23DB002363A0
:10D34000CE4BFA272000A38632230622FF21BF00FE
:10D350004030A363E76305F0E9FB0A2320000F22B6
:10D36000C749A3644D304233E55453F035F9802268
:10D370005C2320009200E252F23AFF3AC1495E304B
:10D3800053F02AF96D23E6540333E554BE4A44337F
:10D39000E7503433E250BD4A0433E250BC4A043310
:10D3A000E2500433E5542600250000237136913500
:10D3B000DAB211005A325B39F154EA540133202BAE
:10D3C000F6D1370035004737713D5F360622FF2121
:10D3D000380005F0ABFB38000622FF211830063775
:10D3E00005F0A4FBB742F1D11423F822FA21A3508F
:10D3F00009010432A150A74A322693468022594699
:10D400005200A150F43292465146F03AA1500432F3
:10D41000A6500432A35052462000FC33913AE1500A
:10D42000FF3A04331630E2549B49453AFF3053F03B
:10D43000D3F820009A23002736305B001F2297493B
:10D44000FF30E75453F0C8F8AA23954A5B00E7542D
:10D450000433E250934A0433E250934A0433E252D5
:10D46000A02204331202E250904BFF209C46B423CA
:10D4700062465B00E250B6221C3BFF3B5200A354C5
:10D4800000040432A0509A22D2039046BA224146A8
:10D490005200A150FF2104320902A1509A22D20168
:10D4A0009146BE224F465200A750C0277D3A7F00CA
:10D4B000E25162460437E3510437E25142460437F1
:10D4C000E3550437E0510437E2514A460437E1514D
:10D4D0000437E251FF220437E25162460437E35138
:10D4E0000437E25142460437E3550437E05104372C
:10D4F000E2514A460437E1510437E251FF22043732
:10D50000E2510437E3516A4F7C33FF33E750802701
:10D510000433E7540433E050802004330004E05027
:10D520000433E150802104330902E1500433E25016
:10D53000604A0433E7500433E2505F4A0433E65450
:10D540000433E25080235246DB03A350FC235B4AA2
:10D550005B00E25080220433D201E250584A043387
:10D56000E25040220433E25096220433D200E250CB
:10D570008421C83A0433E250012389008520635492
:10D5800005218000215004302350043023544D489D
:10D59000483727524C4F023027504C4F0430275009
:10D5A000043026524A4821548B2189006252594640
:10D5B000B93AFF3AA150FA210432C900A15004320D
:10D5C000A3548F2303229B00E6500433E254414AC4
:10D5D0000433E2509222404B9200A3500432A350F5
:10D5E00094233E4A9B00E2500433EE1801230120AD
:10D5F0003B495B422A7801355A4053080240524267
:10D600000A4053405A0803405B420B405A405308BB
:10D61000024052420A4053405A0803405B420B40CA
:10D620005A405308024052420A4053405A080340AD
:10D630005B420B405A405308024052420A4053405A
:10D640005A0803405B420B405340AE42D2D1952270
:10D65000DB439200A350F0BCBB46B246A946A046AD
:10D66000F8BDC046D4C90610F0830220574C594279
:10D6700000CA061010CA06100101010103030000D0
:10D680001CCA0610BC920610010001018051010065
:10D69000050101018813000028CA061030CA0610CF
:10D6A000E10082003083C90032B4FFFF01FF4DFF6B
:10D6B00001FF80FF01C832C84040FF0040FF40002A
:10D6C000FF4040001E02000032003200F401320030
:10D6D0002A020000A0ACB903801A060050C3000063
:10D6E0002083B8ED00487047F0830220072803D854
:10D6F000024B8000C05870470148FCE76C6207107D
:10D70000C88A061095239B0070B50500C618012035
:10D710000124184940422A780135424053082240EA
:10D7200052420A4053405A0823405B420B405A4041
:10D730005308224052420A4053405A0823405B4259
:10D740000B405A405308224052420A4053405A0864
:10D7500023405B420B405A405308224052420A4049
:10D760005340580823405B420B405840AE42D2D150
:10D77000C04370BD2083B8ED70B52F484BF016FD47
:10D7800095232E4C9B00E6180123250001202C49EF
:10D790005B422A7801355A405308024052420A40FF
:10D7A00053405A0803405B420B405A405308024022
:10D7B00052420A4053405A0803405B420B405A40D1
:10D7C0005308024052420A4053405A0803405B4209
:10D7D0000B405A405308024052420A4053405A08F4
:10D7E00003405B420B405340AE42D2D19525DB4310
:10D7F000AD00635103F01CFDEFF3108672B680217B
:10D80000104849015AF068FF86F3108803F010FDB4
:10D81000EFF3108672B6C02221000A4892005AF037
:10D820004BFF86F3108803F003FD615906484BF067
:10D83000BDFC002070BDC0463CCA0610F08302202B
:10D840002083B8ED00F01F0068CA06103649F8B50D
:10D850000A68364B9A425DD10B79062B58D1952533
:10D860009622334EAD00300092004C5905F064F919
:10D87000002301217351771901252E48494232783E
:10D8800001364A4053082A405242024053405A0847
:10D890002B405B4203405A4053082A405242024008
:10D8A00053405A082B405B4203405A4053082A40D9
:10D8B0005242024053405A082B405B4203405A40B8
:10D8C00053082A4052420240534059082B405B42C1
:10D8D00003405940B742D2D1C9438C421ED196224F
:10D8E000154C11499200200005F026F90222134B35
:10D8F00013481A704BF05AFC6379002B0CD1114B72
:10D90000114A1248110010394BF050FC002000E081
:10D910000420F8BD0920FCE70D4BF1E722000D487B
:10D920004BF044FC0320F4E700F01F10574C594221
:10D9300050B402202083B8EDF083022068C002209A
:10D94000DCCA06107CB906100784022004CB06103E
:10D9500018AD0610A0CA061070B506000A240D4DB9
:10D96000CEB0202123002A00684606F055FD684607
:10D9700008A942F099FC002808D0013C002CF0D105
:10D980000020002E00D034704EB070BDE4B20130E3
:10D99000F7E7C04650940610F0B5DE4645465746B8
:10D9A0004E46E0B5E94C0300A5442021E84A04A80E
:10D9B00006F032FD012204A964A841F051FF80461F
:10D9C000002800D0CDE2FFF793FC42460026E14B51
:10D9D000E14F99461A70E14BBA469B46E04B37003F
:10D9E000984644AD00928021280064AA42F0C0FD10
:10D9F000002800D162E22B78002BF4D00A3BDBB286
:10DA0000192B05D85A46DA40130001221A42EAD1EE
:10DA10004146280024AB14AA52F0A2FB0228E2D10E
:10DA2000402204AB9B181B7814AE202B03D17378D3
:10DA30000136202BFBD0802204AB9B181B7824AC32
:10DA4000202B03D163780134202BFBD03000C54953
:10DA500054F06CF8002800D19AE23000C24954F02A
:10DA600065F8002800D18BE23000C04954F05EF820
:10DA7000002800D193E23000BD4954F057F8002847
:10DA800000D1B5E23000BB4954F050F8002800D175
:10DA9000B5E23000B84954F049F8002800D186E2D8
:10DAA0003000B64954F042F8002800D1AEE2300010
:10DAB000B34954F03BF8002800D1AEE23000B14940
:10DAC00054F034F80190002800D1C3E23000AE4990
:10DAD00054F02CF8002800D1B4E23000AB4954F0E7
