:020000041000EA
:1080000000B5324B2120586098680221884398605F
:10801000D860186158612E4B002199600221596186
:108020000121F02299502B491960012199603520D6
:1080300000F044F80222904214D00621196600F0A4
:1080400034F8196E01211966002018661A6600F0CE
:108050002CF8196E196E196E052000F02FF8012109
:108060000842F9D1002199601B491960002159602B
:108070001A491B48016001219960EB211966A02172
:10808000196600F012F80021996016491448016041
:108090000121996001BC002800D000471248134913
:1080A000086003C880F30888084703B5996A04206C
:1080B0000142FBD001200142F8D103BD02B5186690
:1080C0001866FFF7F2FF186E186E02BD000002403E
:1080D000000000180000070000035F0021220000DC
:1080E000F4000018222000A00001001008ED00E0BC
:1080F00000000000000000000000000074B24E7A92
:1081000000200420F7810010CB810010CD810010E9
:10811000C9810010C9810010C9810010C9810010F7
:10812000C9810010C9810010C981001071E20510D9
:10813000C9810010C9810010A5E205106FE4051087
:10814000C1810010C1810010C1810010C1810010E7
:10815000C1810010C1810010C1810010C1810010D7
:10816000C1810010C1810010C1810010C1810010C7
:10817000C1810010C1810010C1810010C1810010B7
:10818000C1810010C1810010C1810010C1810010A7
:10819000C1810010C1810010C1810010C181001097
:1081A000C1810010C1810010C1810010C181001087
:1081B000C1810010C1810010C1810010C181001077
:1081C000EFF30580103800BE00BE00BE00BE00BE4A
:1081D00000BE00BEF2EB8871B4F80D10D4F80D109B
:1081E0003882001090A31AE71E481F49086006C88D
:1081F00081F3088810471D480068002801D01948FD
:10820000F3E70DA40ECC002902D000F012F8F9E734
:108210001749184A002000E001C19142FCD11649DB
:108220008847164988471649884700BEFDE701C9B7
:1082300001C29A42FBD37047D4F80D10C000002051
:1082400050260020641E0E100000042000000420B0
:10825000641E0E1000100420001004200000000016
:10826000704700000000000008ED00E0000000D0B2
:1082700050260020A413022089B00110B5830010FD
:108280002BB00110F8B5C04606480749091A8B10F3
:10829000C90FC91810B5491003D0044B002B00D0EA
:1082A000984710BD502600205026002000000000F6
:1082B000054B10B5002B03D00449054800E000BF72
:1082C000FFF7E2FF10BDC04600000000441A012085
:1082D000E0C3061080B582B000AF7860D0231B06E3
:1082E0007A685A61C046BD4602B080BD80B582B092
:1082F00000AF7860D0231B067A689A61C046BD46FD
:1083000002B080BD80B584B000AF78600A00FB1C6D
:108310001A7001227B689A401300FB60FB1C1B78DB
:10832000002B04D0FB681800FFF7D4FF03E0FB68C4
:108330001800FFF7DBFFC046BD4604B080BD80B526
:1083400082B000AF7860D0231B067A685A62C046BC
:10835000BD4602B080BD80B582B000AF7860D0234A
:108360001B067A689A62C046BD4602B080BD80B5E1
:1083700084B000AF78600A00FB1C1A7001227B6891
:108380009A401300FB60FB1C1B78002B04D0FB6899
:108390001800FFF7D4FF03E0FB681800FFF7DBFFCE
:1083A000C046BD4604B080BD80B500AFC046BD46E6
:1083B00080BD000080B500AF0021002017F080FFD5
:1083C00006200FF0F1F901210620FFF7D0FF01216F
:1083D0000620FFF797FF0E4B180013F0FAF8FFF78F
:1083E000E3FF0C4B180013F0F4F846F0C7FF58F009
:1083F00027FB094B180013F0ECF804F0CAFF3220F9
:108400000DF065FD04F0CEFF32200DF060FDF4E7C5
:10841000E0C30610FCC306101CC4061080B500AFF4
:108420000C4B1B685A1C0B4B1A600A4B1B680A4901
:10843000180010F00DFB0B1E09D104F0AAFF074A2B
:108440000023100019000DF0C1FE04F0ABFFC04680
:10845000BD4680BD44F9002020A1070050C30000A4
:1084600080B582B000AF786039600F4B180013F010
:10847000B0F87A680D4B1100180013F0EFF83B6864
:10848000002B06D03A680A4B1100180013F0E6F8EA
:1084900003E0084B180013F09CF8074B180013F08A
:1084A00098F872B6FEE7C04638C406105CC40610E1
:1084B00070C4061080C4061094C4061080B500AFC6
:1084C000014B1800BD4680BDE0C5061080B582B0E6
:1084D00000AF0200FB1D1A70024B1800BD4602B02F
:1084E00080BDC046F4C5061080B588B000AF02005C
:1084F000FB1D1A703B1D0A1C1A80FB1D1B78002BEC
:1085000002D0032B0AD02DE0384B1968384B0222D9
:10851000180011F049F80123FB6156E0354B112199
:10852000180019F01FF8334B18005DF053F90300E1
:10853000FB61FB691F2B01D91F23FB610023BB617A
:108540000BE02C4ABB69D3181978BB695A1C2A4B1B
:108550005200D152BB690133BB61BA69FB699A42CF
:10856000EFD332E0FB1D1B78052B01D9002339E046
:10857000FB1D1A781D4B9200D3583B613B69002BC1
:1085800001D100232EE03B6918005DF023F90300C0
:10859000FB612023FB60FA69FB689A4201D9FB6802
:1085A000FB6100237B610BE03A697B69D318197882
:1085B0007B695A1C104B5200D1527B6901337B619D
:1085C0007A69FB699A42EFD3C046FB699BB20133DB
:1085D0009BB2DB189BB2C022920013439AB2064BA7
:1085E0001A80054B1800BD4608B080BD781D0020DC
:1085F000BED50020F08B0120BCD5002080B584B012
:1086000000AFF860B9607A60FB68064A1A60BB6820
:10861000054A1A607B68802292001A60C046BD46F7
:1086200004B080BDD064002070F8012080B584B013
:1086300000AFF860B9607A60FB68064A1A60BB68F0
:10864000054A1A607B68C02292001A60C046BD4687
:1086500004B080BD806600207000022080B582B02A
:1086600000AF6C4B180052F017FD08F007FD030037
:108670007B6005F0D1F8684B180052F00DFD05F055
:10868000A1F8664B180052F007FD07F071FF644B2C
:10869000180052F001FD47F059FA031E04D0614B57
:1086A000180052F0F9FC03E05F4B180052F0F4FCA4
:1086B00006F012FA5D4B180052F0EEFC7B688E2239
:1086C0009B5C002B0AD005F0D7F8031E03D0584B53
:1086D00001221A7102E0564B02221A7146F0F2FF93
:1086E0000200544B1A60534B1B685A425341DAB292
:1086F000FB1C1A707B688D229B5C002B09D005F057
:1087000049FA4B4B0122DA704B4B180052F0C4FC73
:1087100003E04A4B180052F0BFFC7B688A229B5C46
:10872000002B0ED000F04AFB414B01221A70444B43
:1087300019000A2046F04EFE424B180052F0ACFCE5
:1087400003E0414B180052F0A7FCFB1C1B78002BE8
:108750001FD105F001FB3D4B180052F09DFC02F0CB
:108760006BFC3B4B180052F097FC7B688B229B5CA8
:10877000002B15D04AF06AFD2D4B01225A70354B63
:1087800019000D2046F026FE334B180052F084FCF1
:1087900006E0274B02225A70304B180052F07CFC46
:1087A0007B688C229B5C002B0ED003F027FA204BB9
:1087B00001229A702A4B19000B2046F00BFE294B20
:1087C000180052F069FC03E0274B180052F064FCDB
:1087D0007B688F229B5C002B10D005F0D3FA07F04A
:1087E000D9FE134B01225A71204B1900042046F088
:1087F000F1FD1F4B180052F04FFC03E01D4B180019
:1088000052F04AFC1C4B180052F046FCC046BD46D4
:1088100002B080BDE0C606101CC7061048C706108F
:1088200074C70610A4C70610C8C70610FCC70610F8
:10883000A84A01201C1C012028C8061048C80610A0
:108840009CC6061070C8061094C80610BCC8061056
:10885000E8C806101CC9061024C9061048C906102D
:10886000B8C606107CC906109CC90610D8C60610EA
:10887000C4C90610F0C9061024CA061080B582B01B
:1088800000AF0200FB1D1A70FB1D1B78052B08D9D9
:10889000FB1D1A78324B1100180052F0FDFB00232B
:1088A0005AE0FB1D1B782F4AD35C012B0BD1FB1D1B
:1088B0001A782D4B9200D2582C4B1100180052F010
:1088C000EBFB002348E0FB1D1A78274B9200D2589F
:1088D000274B1100180052F0DFFBFB1D1B78052B06
:1088E00032D89A00234BD3181B689F4600F066FAD3
:1088F0001C4B01221A7001232EE04AF0A7FC194BF1
:1089000001225A70012327E003F078F9154B012268
:108910009A70012320E005F03DF9124B0122DA7034
:10892000012319E004F0A8FF031E04D00D4B01221F
:108930001A71012310E000230EE005F023FA094B21
:1089400001225A71012307E0FB1D1A780A4B11001E
:10895000180052F0A1FB00231800BD4602B080BDF4
:1089600050CA0610A84A0120901D002074CA0610A3
:1089700094CA061044CB0610B0CA061080B582B067
:1089800000AF0200FB1D1A70FB1D1B78052B01D9DF
:1089900000230AE0FB1D1A78064B9200D258064BC2
:1089A0001100180052F078FB00231800BD4602B0F9
:1089B00080BDC046901D0020D0CA061080B582B090
:1089C00000AF0200FB1D1A70FB1D1B78052B01D99F
:1089D000022303E0FB1D1B78024AD35C1800BD464E
:1089E00002B080BDA84A012080B582B000AF02006D
:1089F000FB1D1A70FB1D1B78052B01D9054B04E0EC
:108A0000FB1D1A78044B9200D3581800BD4602B0E3
:108A100080BDC046F8CA0610901D002080B582B007
:108A200000AF194B180052F037FB00237B6022E0A7
:108A3000164B3B60164A7B68D3181B78022B0BD071
:108A40000DDC002B02D0012B03D008E0114B3B6062
:108A500005E0114B3B6002E0104B3B60C046104B01
:108A60007A689200D1583A680E4B180052F014FB05
:108A70007B6801337B607B68052BD9DDC046C0462F
:108A8000BD4602B080BDC04600CB061018CB061014
:108A9000A84A012020CB061028CB061030CB0610A8
:108AA000901D002038CB0610B0B582B000AF7860C2
:108AB0007B681C0000231D00FA2292000023200086
:108AC000290010F0CDFB02000B0010001900FA2263
:108AD000920000230FF0FAFF02000B0013001800B1
:108AE00058F050FAC046BD4602B0B0BDF0B58DB0EA
:108AF00002AF786053F0E2FEA24B1900012056F05D
:108B0000C1FC0200A04B1A609F4B1B68002B03D1D5
:108B1000002057F015FD31E153F0AEFE692058F00A
:108B200031FA322058F02EFA29F0C2FC974B180087
:108B300032F0B4FA964AA0235900964B00931300E2
:108B40000322F02026F0F2FD0200934B1A60924BB4
:108B50001B68002B08D18C4B1B68180057F0C4F918
:108B6000002057F0EDFC09E18B4B1B680021180039
:108B700022F04BFD884B186896235B018749002241
:108B80000092002221F0C2FF19F034FB00F096FAA7
:108B9000002053F085FE53F0ADFF7F4B1B6818009B
:108BA00021F0D5FE0300FB6104E02DF0DDFE052081
:108BB00058F0E8F953F098FF0200FB699A42F4D3A9
:108BC000642058F0DFF92723FB1800221A700DE00B
:108BD0002726BB191B78180053F062FE1E2058F0A0
:108BE000D1F9BB19BA19127805321A702723FB186C
:108BF0001B78642BECD9642053F052FE57F07CFFB5
:108C00000300BB6057F078FF0200654B1A60644BAD
:108C10001A68644B1A60624B1A68634B1A6057F00B
:108C20006BFF0300BB61614B1B68BA69D21AFA2360
:108C30009B009A4206D35D4BBA691A605C4B1800E0
:108C400046F086FF01210A2046F0FCFC57F054FF55
:108C500003007B6108F012FA0200B8235B00D358CE
:108C60003B61514B1B687A69D31A3A699A4214D80E
:108C70004D4B7A691A60444B1B680A21180056F064
:108C8000E9FD0300012B08D100F038FA3E4B1868CB
:108C900000230022002156F023FB3B4B1B68FA22E5
:108CA00052001100180056F0D5FD0300012B03D02F
:108CB0000A2058F067F960E0052032F09BF908F0CF
:108CC000DDF90200B2235B00D358FA2291001800AC
:108CD0000FF0BEFE0300FB60364B1B78002B07D164
:108CE000354B1B68FA689A4202D8324B01221A703F
:108CF0002DF03AFE03003B6257F0FEFE0200284BC7
:108D00001B68D31AFA22910018000FF0A1FE03008D
:108D10001A00294B1A601C4B1868002300220021FE
:108D200056F0DEFA3B6A642B06D908F0A7F9020078
:108D3000B0235B00D3583B623B6A042B01D8052368
:108D40003B623B6A1C0000231D00FA2292000023B4
:108D50002000290010F084FA02000B001000190016
:108D6000FA22920000230FF0B1FE02000B0008234C
:108D7000FB181100180058F0ADF850E7BD460BB0D5
:108D8000F0BDC046E40E0120E00E0120A98A0010CB
:108D9000F1C805106DC90510D8FC00206026002020
:108DA000BC8D012098FC002084FC002018D60020F7
:108DB0005CCB06108E13022098E7002080B584B0AB
:108DC00004AF0C4B1B68002B11D18023DB001A0071
:108DD00009490A480A4B02930A4B01930123009365
:108DE000002357F059FB0200024B1A6000E0C04616
:108DF000BD4680BDFCFC002060CB0610ED8A001053
:108E00003053002000FD002080B582B000AF00206C
:108E100000F058F808F032F903007B60114B1B6832
:108E2000002B08D00F4B1A687B689E33FF33190064
:108E3000100037F07BFC7B689E33FF3319000A4B30
:108E40000B2218005BF0D0F9084B3822002199540E
:108E5000064B0022DA63054B00221A72C046BD465B
:108E600002B080BD786800207D94012050940120DC
:108E700080B582B000AF0200FB1D1A70BB1D0A1C3A
:108E80001A70BB1D1B78002B01D0032316E0FB1DBD
:108E90001B78042B0FD010DC032B0EDC022B06DA20
:108EA000002B02D0012B04D007E0002306E00123B1
:108EB00004E0022302E0042300E000231800BD4682
:108EC00002B080BD80B584B000AF0200FB1D1A70F7
:108ED000FB1D1B78042B21D808F0D0F80300FB60A1
:108EE000FB1D1B785B01D133FF33FA68D318BB60DD
:108EF0000C4B1B68002B12D0BB681B78002B06D0D4
:108F0000084B1B680121180019F070FD07E0054BA4
:108F10001B680121180019F0FEFF00E0C046BD46A5
:108F200004B080BD7868002090B585B000AF08F02F
:108F3000A5F80300FB60FA68E0235B00D258594BA8
:108F40001B689A421FD1FA68E2235B00D258564B45
:108F50001B689A4217D1FA68E4235B00D25C534B3A
:108F60001B789A420FD1FA68CA23FF33D25C504B68
:108F70001B789A4207D1FA68E6235B00D2584D4B22
:108F80001B689A4201D0012200E000220B203B180E
:108F90001A701A7801210A401A703B181B780122B6
:108FA0005340DBB2002B79D1434B1B68002B56D0CA
:108FB000414B1C68FA68E0235B00D35818002BF083
:108FC000F6F903001A003B1D111C19701104090E5B
:108FD00059701202120E9A703B1D0022196820006F
:108FE0001FF08CFA344B1B680022FF2118001FF081
:108FF00097FA314B1C68FA68E2235B00D3581800DB
:109000002BF0D5F903001A0008203B18111C197029
:109010001104090E59701202120E9A703B180022A8
:10902000196820001FF086FA234B1868FA68E423B9
:109030005B00D35C002219001FF098FA1E4B1868E1
:10904000FA68CA23FF33D35C002219001FF098FA94
:10905000194B1B680022012118001FF07DFAFA68E5
:10906000E0235B00D2580F4B1A60FA68E2235B00E2
:10907000D2580D4B1A60FA68E4235B00D25C0B4BAC
:109080001A70FA68CA23FF33D25C094B1A70FA6867
:10909000E6235B00D258074B1A6000E0C046BD468D
:1090A00005B090BDB41D0020B81D0020C01D0020DB
:1090B000C11D0020BC1D00205068002080B582B07A
:1090C00000AF07F0DBFF03007B60FFF72DFF0A4BCB
:1090D0001B68002B08D0084B1A687B687E33FF336F
:1090E0001900100037F022FB0020FFF7EBFEC0460E
:1090F000BD4602B080BDC04678680020F0B5C9B05A
:1091000002AFFFF711FF07F0B9FF0300EC210820C1
:109110000A18D2191360704B00229A770B18DB19CA
:109120001B688A229B5C002B10D00020FFF746FCB6
:109130000300012B0AD0684B9B7F5A1CD1B2664AB0
:1091400091771A00644B9B180022DA77EC230822EF
:109150009B18DB191B688B229B5C002B10D0012015
:10916000FFF72CFC0300012B0AD05B4B9B7F5A1CA2
:10917000D1B2594A91771A00574B9B180122DA77DE
:10918000EC2308229B18DB191B688C229B5C002BAC
:1091900010D00220FFF712FC0300012B0AD04E4B27
:1091A0009B7F5A1CD1B24C4A91771A004A4B9B18AC
:1091B0000222DA77EC2308229B18DB191B688D2228
:1091C0009B5C002B10D00320FFF7F8FB0300012B62
:1091D0000AD0414B9B7F5A1CD1B23F4A91771A006B
:1091E0003D4B9B180322DA77EC2308229B18DB19EE
:1091F0001B688E229B5C002B10D00420FFF7DEFB47
:109200000300012B0AD0344B9B7F5A1CD1B2324A47
:1092100091771A00304B9B180422DA77EC2308224E
:109220009B18DB191B688F229B5C002B10D005203C
:10923000FFF7C4FB0300012B0AD0274B9B7F5A1C6E
:10924000D1B2254A91771A00234B9B180522DA7771
:10925000214B9B7F5A1E9341DAB21F4B5A7748F03D
:109260001BFC0300E82208215218D2191360E722E0
:109270005318DE1947F0FCFB03003370E623082186
:109280005B18DE1947F0E8FB03003370E722082182
:109290005318DB191B78012B04D05318DB191B78EA
:1092A000032B01D1012200E00022E52308201B1836
:1092B000DB191A701A7801210A401A70E7231B186B
:1092C000DB191B78012B09D1E8231B18DB191B685C
:1092D000002B03D0012202E0509401200022E4235D
:1092E00008201B18DB191A701A7801210A401A701D
:1092F000E7231B18DB191B78012B0AD1E82213186E
:10930000DB191B68002B04D0DD4B1218D219126830
:10931000DA63E32308201B18DE1902F0F5FC0300D2
:10932000337057F0E9FB0300DC2108200A18D2193A
:109330001360E5221318DB191A78D24B1A70D04B40
:109340005B7A002B15D0E3231B18DB191B78012255
:109350005340DBB2002B0CD0C94B0A18D21912684B
:10936000DA60C74B01221A7402F0F0FA0200C44B13
:109370005A61C34BE32108268A19D21912785A720E
:10938000BF4B1B7C002B31D08B19DB191B780122C2
:109390005340DBB2002B29D0B94BDB68DC22921999
:1093A000D2191268D31A3B6000237B60FA22920024
:1093B0000023386879680FF053FF02000B0010009B
:1093C0001900FA22920000230FF080FB02000B002C
:1093D0001300D8229119C9190B609319DB191B6866
:1093E000A94A934202D9A64B00221A74A44B1B78B7
:1093F00001225340DBB2002B10D0E52308229B183A
:10940000DB191B78002B09D09D4B00221A749C4B52
:1094100000221A729A4B402201219954984B1B78D2
:10942000002B12D0E52308215B18DB191B780122E1
:109430005340DBB2002B08D0914BDC225218D219DA
:1094400012685A608E4B01221A728D4BE521082654
:109450008A19D21912781A70894B1B7A002B24D0E2
:109460008B19DB191B7801225340DBB2002B1CD077
:1094700007F004FE0200B4235B00D358D4218A19FC
:10948000D21913607E4B5B68DC229219D2191268E4
:10949000D31A8A19D21912689A4206D8FFF7B4FC77
:1094A0000020FFF70FFD01F087FDD32308201B18D4
:1094B000DE19E3210B18DB191A78E7210B18DB19E9
:1094C0001B7811001800FFF7D3FC030033706F4BBB
:1094D0001B78D32208201218D21912789A4204D18C
:1094E000674B40229B5C002B10D0D3260822B31878
:1094F000DB191B781800FFF7E5FC644B0822B21853
:10950000D21912781A70624BFF221A7007F0B6FD5A
:109510000300CC2208215218D21913605D4B1B683E
:10952000002B5FD00023862676007218D2191360B4
:10953000E7235B18DB191B78012B1BD120235B1859
:10954000DB190C21180048F017FC031E25D020233E
:1095500008215B18D919504B0B2218005AF044FE11
:10956000474B3822002199544B4B08217218D219CD
:10957000136012E0424B1B7A01225340DBB2002BF6
:109580000BD0CC2308215B18DB191B689E33FF33FB
:10959000862252005218D2191360862676000822BD
:1095A000B318DB191B68002B1CD0B318DB191A6821
:1095B0003A4B110018005CF0C1F8031E12D00822CB
:1095C000B318DB191968354B1F2218005AF00CFE2E
:1095D000324B0022DA772F4B1B68304A11001800FB
:1095E00037F0A4F800238421490008268A19D219EB
:1095F00013600820FF308319DB1900221A70E6235C
:1096000032009B18DB191B780A2B09D1244B16005A
:109610008A18D21913608319DB1901221A70DEE04F
:10962000E72208215318DB191B78022B19D0531895
:10963000DB191B78032B14D0E6225318DB191B7897
:10964000012B0ED05318DB191B78022B09D05318AD
:10965000DB191B78032B04D05318DB191B78042B60
:1096600022D1104B8422520008215218D2191360C3
:109670000823FF335B18DB1901221A70AFE0C046E4
:10968000509401206813022087130000A81D0020B9
:10969000A91D0020786800207D94012064FC002032
:1096A0006CCB061074CB0610E62308215B18DB197F
:1096B0001B78062B23D1CB235B18DE1947F0D2F998
:1096C00003003370CB2308215B18DB191B78022BB6
:1096D00006D1CF4B842252005218D219136006E0F3
:1096E000CC4B8422520008215218D219136008234F
:1096F000FF3308229B18DB1901221A706FE0E72361
:1097000008215B18DB191B78002B13D1C24B1B7C83
:1097100001225340DBB2002B0CD0C04B84225200FC
:109720005218D21913600823FF335B18DB1901228A
:109730001A7054E0E72308229B18DB191B78012BD1
:109740000CD1E6239B18DB191B78062B06D10823C6
:10975000FF339B18DB1901221A7040E0E72308222F
:109760009B18DB191B78042B06D10823FF339B18A9
:10977000DB1901221A7032E0E72308229B18DB195B
:109780001B78012B12D1E8239B18DB191B68002BD7
:109790000CD1E6239B18DB191B780A2B06D0082373
:1097A000FF339B18DB1901221A7018E0E42308220A
:1097B0009B18DB191B78002B06D00823FF339B185E
:1097C000DB1900221A700AE0934B1B7C002B06D099
:1097D0000823FF3308229B18DB1901221A70904BD3
:1097E0001B68002B01D100F003FEE32308229B1825
:1097F000DB191B78002B03D1874B1B7C002B01D07E
:10980000012200E00022CA2008268319DB191A7001
:109810001A7801210A401A707F4B40229B5C002B72
:109820000BD1804B1B78002B0ED08319DB191B78D2
:1098300001225340DBB2002B06D07B4B0122524267
:109840001A607A4B00221A70764BCA2208215218ED
:10985000D21912781A70E6225318DB191B78012BE3
:1098600019D05318DB191B78022B14D05318DB19AD
:109870001B78032B0FD05318DB191B78042B0AD04D
:10988000E7225318DB191B78022B04D05318DB197D
:109890001B78032B01D1012200E00022C9230820FC
:1098A0001B18DB191A701A7801210A401A70E32379
:1098B0001B18DB191B78002B03D002F047F80300BC
:1098C00001E0554B5B69C42208269119C9190B6048
:1098D000C3208319DB199219D2191268511E8A41CB
:1098E0001A70E3239B19DB191B78002B04D0831912
:1098F000DB191B78002B0CD1474B1B7C002B00D1B4
:109900009CE0C32308229B18DB191B78002B00D195
:1099100094E0C92308215B18DB191B78012253400E
:10992000DBB2002B00D189E0E3235B18DB191B7845
:10993000002B03D002F00AF8030001E0364B5B690C
:10994000BC2208269119C9190B609319DB191B68F1
:10995000642118000FF07CF80300B82130000A18C9
:10996000D2191360304B1B680A18D21912689A4238
:109970003BD02D4B0A18D21912681A600A000B1836
:10998000DB191B68632B1AD81318DB191B680A2113
:1099900018000FF05DF803001E00B822082013180D
:1099A000DB191B680A2118000FF052F80B00204A3F
:1099B000204800933300102111F044FA0EE0B82340
:1099C00008229B18DB191B680A2118000FF040F8C9
:1099D0000300194A1748102111F034FA104B1B6884
:1099E000144A1100180036F0A1FE0D4B1B6801212E
:1099F000180019F067F8031E01D100F0F8FC084BBD
:109A00001B680121180018F0F1FF00F0F0FCC046BF
:109A100080CB06108CCB06105094012098CB0610FA
:109A20007C680020A0130220C41D002088FC0020B8
:109A3000A0CB06107CDB0020ACCB0610C92308228B
:109A40009B18DB191B78002B29D0D84AD84B110062
:109A500018005BF073FE031E0FD0D64B1B68D34A71
:109A60001100180036F062FED049D14B0F221800C9
:109A70005AF0BAFBCE4B0022DA73CE4B1B680121A1
:109A8000180019F01FF8031E01D100F0B1FCC94BFA
:109A90001B680121180018F0A9FF00F0A9FCE623BB
:109AA00008229B18DB191B78062B61D157F024F88C
:109AB00003007B67C04B1B687A6FD21AFA23DB0066
:109AC0009A4210D3BD4B1B785A1E9341DBB2012240
:109AD0005340DBB21A1C01231340DAB2B74B1A70A1
:109AE000B54B7A6F1A606B2308229B18DE1946F07B
:109AF000B9FF030033706B2308229B18DB191B7816
:109B0000022B01D1AE4B00E0AE4BFB66AB4B1B789A
:109B1000002B01D0AC4B00E0FB6EBB66BA6EA44BD1
:109B2000110018005BF00AFE031E0FD0A14B1B684A
:109B3000BA6E1100180036F0F9FDB96E9C4B0F2279
:109B400018005AF051FB9A4B0022DA73994B1B68AC
:109B50000121180018F0B6FF031E01D100F048FCE7
:109B6000944B1B680121180018F040FF00F040FCE6
:109B7000E42308229B18DB191B78002B38D0E8233C
:109B80009B18DB191B68002B32D0E3239B18DB19D1
:109B90001B7801225340DBB2002B29D08B4A844B27
:109BA000110018005BF0CAFD031E0FD0814B1B682B
:109BB000864A1100180036F0B9FD84497C4B0F220B
:109BC00018005AF011FB7A4B0022DA73794B1B68AC
:109BD0000121180018F076FF031E01D100F008FCE7
:109BE000744B1B680121180018F000FF00F000FC06
:109BF000774B5B7F002B59D056F07EFF030080220D
:109C0000B9180B60724B9B6ABA181268D21AFA2301
:109C1000DB009A4217D36E4B2C229B5C0133D9B2E6
:109C20006B4B2C2299546A4B2C229A5C684B9B7F7D
:109C30009A4203D3664B2C2200219954644B802214
:109C4000BA1812689A62624B2C229B5C190077202A
:109C500008268319DB195E4A5218D27F1A708319BD
:109C6000DB191B781800FEF7BFFE0300BB67BB6F54
:109C7000584AB819202111F0E5F84E4B1B68BA1963
:109C80001100180036F052FD4A4B1B6801211800E4
:109C900018F018FF031E01D100F0AAFB454B1B680A
:109CA0000121180018F0A2FE00F0A2FB87235B0040
:109CB000FB180822FF3208215218D21912781A70A4
:109CC000E6225318DB191B78012B19D05318DB1926
:109CD0001B78022B14D05318DB191B78032B0FD0E1
:109CE0005318DB191B78042B0AD0E7225318DB1911
:109CF0001B78022B04D05318DB191B78032B16D1C9
:109D00002A4B8422520008215218D219136087234B
:109D10005B00FB1801221A702F4B1B780122534065
:109D2000DBB2002B06D02C4B01221A7002E02A4B2A
:109D300000221A70E62308229B18DB191B780A2BD5
:109D400052D156F0D9FE030084217A181360234BB8
:109D50001B687A181268D21AFA23DB009A4211D3D0
:109D60001F4B1B785A1E9341DBB201225340DBB2DA
:109D70001A1C01231340DAB2194B1A70174B7A18C8
:109D800012681A60164B1B78002B01D00E4B00E0B6
:109D9000144B8422520008215218D21913608723D1
:109DA0005B00FB1801221A70D0E2C04674CB06108B
:109DB00088FC00207C680020CCFC00209813022046
:109DC00080CB06108CCB0610B4CB0610C0CB06108F
:109DD00050940120C8CB06107B130220C4FC002045
:109DE000941302206CCB0610E62308269B19DB197E
:109DF0001B78062B52D156F07FFE030088213000DD
:109E00000A18D2191360D04B1B680A18D2191268AD
:109E1000D21AFA23DB009A4212D3CC4B1B785A1E7B
:109E20009341DBB201225340DBB21A1C01231340E1
:109E3000DAB2C64B1A70C44B0A18D21912681A60EB
:109E4000872308229B18DE1946F00CFE03003370AE
:109E5000872308229B18DB191B78022B01D1BC4BEE
:109E600000E0BC4B802208215218D2191360B74B76
:109E70001B78002B01D0B84B04E0802308229B18EC
:109E8000DB191B688422520008215218D219136072
:109E900087235B00FB1801221A7057E2E723082191
:109EA0005B18DB191B78002B12D1AC4B1B7C0122F9
:109EB0005340DBB2002B0BD0A94B84225200521826
:109EC000D219136087235B00FB1801221A703DE250
:109ED000E72308269B19DB191B78012B58D1E623B1
:109EE0009B19DB191B78062B52D156F005FE030097
:109EF000B42130000A18D21913609A4B1B680A1853
:109F0000D2191268D21AFA23DB009A4212D3964B66
:109F10001B785A1E9341DBB201225340DBB21A1C5C
:109F200001231340DAB2904B1A708E4B0A18D219E3
:109F300012681A60B32308229B18DE1946F092FDBE
:109F400003003370B32308229B18DB191B78022B04
:109F500001D17F4B00E07F4BAC2208215218D2196F
:109F60001360814B1B78002B01D07B4B04E0AC23AA
:109F700008229B18DB191B68842252000821521802
:109F8000D219136087235B00FB1801221A70DDE1F0
:109F9000E72308269B19DB191B78042B37D156F0D1
:109FA000ABFD03008C2130000A18D21913606F4BEF
:109FB0001B680A18D2191268D21AFA23DB009A42D7
:109FC00012D36B4B1B785A1E9341DBB201225340D4
:109FD000DBB21A1C01231340DAB2654B1A70634BD3
:109FE0000A18D21912681A60614B1B78002B01D035
:109FF000594B00E05F4B8422520008215218D219BD
:10A00000136087235B00FB1801221A709EE1E7238F
:10A0100008269B19DB191B78012B3DD1E8239B19DE
:10A02000DB191B68002B37D156F066FD0300A82111
:10A0300030000A18D21913604F4B1B680A18D21946
:10A040001268D21AFA23DB009A4212D34B4B1B78C8
:10A050005A1E9341DBB201225340DBB21A1C01238A
:10A060001340DAB2454B1A70434B0A18D2191268E2
:10A070001A60424B1B78002B01D0374B00E0404B5D
:10A080008422520008215218D219136087235B00E2
:10A09000FB1801221A7059E1E42308215B18DB192F
:10A0A0001B78002B0BD0374B842252005218D21948
:10A0B000136087235B00FB1801221A7046E1274BCF
:10A0C0001B7C002B00D141E187235B00FB180122A0
:10A0D0001A70E62308269B19DB191B780A2B59D125
:10A0E00056F00AFD0300902130000A18D2191360BF
:10A0F000254B1B680A18D2191268D21AFA23DB0002
:10A100009A4212D3214B1B785A1E9341DBB2012293
:10A110005340DBB21A1C01231340DAB21B4B1A70F6
:10A12000194B0A18D21912681A60184B1B78002BA9
:10A1300001D0094B00E0164B84225200082152182E
:10A14000D219136002E1C046D4FC0020971302200C
:10A1500080CB06108CCB0610B4CB06105094012097
:10A1600098CB0610C0FC002093130220B0FC002006
:10A170008F130220CCCB0610B4FC002090130220D9
:10A18000D4CB0610C0CB0610C8FC002095130220CB
:10A190006CCB0610E62308269B19DB191B78062BCF
:10A1A0004DD156F0A9FC03009C2130000A18D219A9
:10A1B0001360B94B1B680A18D2191268D21AFA2315
:10A1C000DB009A4212D3B54B1B785A1E9341DBB287
:10A1D00001225340DBB21A1C01231340DAB2AF4B09
:10A1E0001A70AD4B0A18D21912681A609B23082204
:10A1F0009B18DE1946F036FC030033709B230822BF
:10A200009B18DB191B78022B01D1A54B00E0A54B55
:10A21000942208215218D2191360A04B1B78002BEE
:10A2200001D0A14B04E0942308229B18DB191B6882
:10A230008422520008215218D219136086E0E723C5
:10A2400008215B18DB191B78002B06D1974B842261
:10A2500052005218D219136078E0E72308269B19A0
:10A26000DB191B78042B32D156F046FC0300A021E9
:10A2700030000A18D21913608D4B1B680A18D219C6
:10A280001268D21AFA23DB009A4212D3894B1B7848
:10A290005A1E9341DBB201225340DBB21A1C012348
:10A2A0001340DAB2834B1A70814B0A18D219126824
:10A2B0001A60804B1B78002B01D07B4B00E07E4B5B
:10A2C0008422520008215218D21913603EE0E7237D
:10A2D00008269B19DB191B78012B37D1E8239B1922
:10A2E000DB191B68002B31D156F006FC0300A421BA
:10A2F00030000A18D2191360704B1B680A18D21963
:10A300001268D21AFA23DB009A4212D36C4B1B78E4
:10A310005A1E9341DBB201225340DBB21A1C0123C7
:10A320001340DAB2664B1A70644B0A18D2191268DD
:10A330001A60634B1B78002B01D05B4B00E0614B34
:10A340008422520008215218D219136087235B001F
:10A35000FB181B78002B36D0842676000822B31811
:10A36000DB191B68002B2ED0B318DB191A68564B6B
:10A37000110018005BF0E2F9031E15D0534B1B6867
:10A380000822B118CA1912681100180036F0CEF967
:10A390000822B318DB1919684B4B0F22180059F02B
:10A3A00023FF494B0022DA73484B1B680121180038
:10A3B00018F088FB031E1BD0444B1B6801211800BA
:10A3C00018F014FB14E0414B1B680121180018F031
:10A3D00079FB03001A0001235340DBB2002B07D0A6
:10A3E0003A4B1B680121180018F095FD00E0C046AB
:10A3F000E82208201318DB191B688421490079180A
:10A400000B6001005318DB191B68002B22D1304B65
:10A41000DB6B002B1ED0E6225318DB191B780A2BAE
:10A4200012D05318DB191B78062B0DD0284B1B7C40
:10A43000002B09D1E3235B18DB191B78002B03D118
:10A44000234B1B7A002B05D0214BDB6B842252005F
:10A45000BA1813601F4B1B68002B00D16FE25F21FD
:10A4600008200B18DB19E3221218D21912781A707F
:10A4700002008B18DB191B78002B05D1E5239B18F4
:10A48000DB191B78002B27D0FF2308229B18DB1930
:10A4900002221A7026E0C046D0FC0020961302204B
:10A4A00080CB06108CCB0610B4CB061098CB0610D0
:10A4B000BCFC002092130220CCCB0610B8FC00207C
:10A4C00091130220D4CB061088FC00207C68002069
:10A4D0005094012060680020FF2308229B18DB199C
:10A4E00003221A70DA4B1B78FF2208215218D21966
:10A4F00012789A4204D1D74B40229B5C002B0ED09D
:10A50000D54B012252421A60D44B012252421A60AA
:10A51000CF4BFF2208215218D21912781A70FE234D
:10A5200008215B18DB1900221A70E4230A009B182B
:10A53000DB191B78002B05D0E8239B18DB191B685F
:10A54000002B06D15F2308229B18DB191B78002BF8
:10A5500006D0FE2308229B18DB1901221A7031E075
:10A56000E72308215B18DB191B78002B13D1B94BAB
:10A570001B7C01225340DBB2002B0CD0B54B1B7A65
:10A5800001225340DBB2002B05D0FE235B18DB1900
:10A5900000221A7016E0B24B1B680121180018F057
:10A5A00091FA03005A1E9341DBB201225340DBB201
:10A5B0001A00FE2308215B18DB191A701A78012192
:10A5C0000A401A70FE2308229B18DB191B78002B07
:10A5D0000ED0A34B1B680121180018F073FA031E5C
:10A5E00019D09F4B1B680121180018F0FFF912E0E9
:10A5F0009B4B1B680121180018F064FA03001A0035
:10A6000001235340DBB2002B05D0954B1B68012181
:10A61000180018F080FC5F2308229B18DB191B78B8
:10A62000002B5BD0E5239B18DB191B78002B55D042
:10A63000894B1B68842149007A1812689A4200D11C
:10A640007DE1854B7A1812681A607B181A68FA2324
:10A650009B009A4207D27B181B68824A82481021CD
:10A6600010F0F0FB32E0842149007B181B687F4A20
:10A6700093421CD87B181B68642118000EF0E8F97F
:10A6800003003B663B6E0A2118000EF0E1F903005F
:10A690001E003B6E0A2118000EF0DAF90B00744A16
:10A6A000714800933300102110F0CCFB0EE084239E
:10A6B0005B00FB181B68FA22910018000EF0C8F925
:10A6C00003006C4A6848102110F0BCFB644B1B6807
:10A6D000654A1100180036F029F830E15F2308219F
:10A6E0005B18DB191B78002B00D173E0594B1B7AE8
:10A6F000002B0AD0574BDB6B002B06D0554BDB6B86
:10A70000F8225218D219136007E001F0E9FA0300A9
:10A71000F82208215218D21913604F4B1B68F821F8
:10A7200008200A18D21912689A4200D107E14A4B50
:10A730000A18D21912681A600B18DB191A68FA2362
:10A740009B009A4208D20B18DB191B68454A464801
:10A75000102110F077FB35E0F82108200B18DB19E9
:10A760001B68424A93421DD80B18DB191B686421F1
:10A7700018000EF06DF90300BB65BB6D0A211800CF
:10A780000EF066F903001E00BB6D0A2118000EF0E2
:10A790005FF90B00364A344800933300102110F063
:10A7A00051FB0FE0F82308229B18DB191B68FA22E3
:10A7B000910018000EF04CF903002E4A2A4810218F
:10A7C00010F040FB264B1B68274A1100180035F09B
:10A7D000ADFFB4E0E42308215B18DB191B78002BE4
:10A7E00012D1E6225318DB191B78062B0CD0531814
:10A7F000DB191B780A2B07D0164B1B7C002B03D1CF
:10A80000144B1B7A002B72D0842149007B181B68E3
:10A81000002B6CD0104B1B687A1812689A4200D13A
:10A820008DE00D4B7A1812681A600C4B01225242CF
:10A830001A607B181A68FA239B009A421CD27B1874
:10A840001B68084A0848102110F0FCFA47E0C0468F
:10A850007A13022050940120AC1D0020B01D00206E
:10A8600060680020E0CB06108CD900200F27000084
:10A87000A0CB0610ACCB0610842149007B181B68C6
:10A88000CC4A93421CD87B181B68642118000EF038
:10A89000DFF80300FB65FB6D0A2118000EF0D8F805
:10A8A00003001E00FB6D0A2118000EF0D1F80B000A
:10A8B000C14AC24800933300102110F0C3FA0EE0E1
:10A8C00084235B00FB181B68FA22910018000EF02D
:10A8D000BFF80300BA4AB948102110F0B3FAB94BD7
:10A8E0001B68B64A1100180035F020FF27E0E72367
:10A8F00008229B18DB191B78002B20D1B24B1B7C44
:10A9000001225340DBB2002B19D0AF4B1B7A01223E
:10A910005340DBB2002B12D0AC4B1B6802330ED07D
:10A92000AA4B022252421A60A94B012252421A60DB
:10A93000A44B1B68A74A1100180035F0F7FEA64B80
:10A940001B68002B00D174E0A44B1B68F422082183
:10A950005218D21913609C4B40229B5C002B03D0F1
:10A960009E4B012252421A60E52308269B19DB19EF
:10A970001B78002B2AD047F0A1F803007B657B6D84
:10A98000002B3DD0E8239B19DB191B68642253433D
:10A99000796D18000EF05CF80300F4229119C919C2
:10A9A0000B609319DB191B68002B03DA0023921943
:10A9B000D2191360F42208215318DB191B68642B89
:10A9C0001EDD64235218D219136019E0E723082111
:10A9D0005B18DB191B78002B12D17B4B1B7C0122EF
:10A9E0005340DBB2002B0BD0774B1B7A0122534034
:10A9F000DBB2002B04D00023F4225218D2191360CA
:10AA0000764B1B68F42108200A18D21912689A4262
:10AA10000FD0714B1B680E000A18D2191168002262
:10AA2000180031F0E5FB6D4B08203218D21912687E
:10AA30001A606B4B1B68002B00D153E1624B402224
:10AA40009B5C002B02D0674B00221A70E423082283
:10AA50009B18DB191B78002B05D0E8239B18DB190A
:10AA60001B68002B06D1E32308229B18DB191B78F7
:10AA7000002B2CD0E82308229B18DB191B68002B25
:10AA800002D1514BDB6B04E0E82308229B18DB1951
:10AA90001B683B653B6D544A934206D8F32308225A
:10AAA0009B18DB1901221A7042E03B6D4F4A93421A
:10AAB00006D8F32308229B18DB1902221A7037E00C
:10AAC000F32308229B18DB1903221A7030E0E723D6
:10AAD00008215B18DB191B78002B13D13A4B1B7C28
:10AAE00001225340DBB2002B0CD0374B1B7A0122E2
:10AAF0005340DBB2002B05D0F3235B18DB19042293
:10AB00001A7015E0374B1B78002B0BD0354B1B7898
:10AB1000042B07D0F32308229B18DB19314A127843
:10AB20001A7005E0F32308229B18DB1904221A701F
:10AB30002C4B1B78F32108200A18D21912789A425C
:10AB400000D1CFE00B18DB191B78042B00D9C2E031
:10AB50009A00274BD3181B689F46214B1E68CC23B5
:10AB60001B04180029F023FC03001A002C200823E2
:10AB7000C118CB19111C19701104090E5970120259
:10AB8000120E9A700823C318DB19002219683000CE
:10AB90001DF0B4FC124B1B680121180017F092FF46
:10ABA000031E00D190E00E4B1B680121180017F026
:10ABB0001DFF89E00F270000A0CB06108CD90020D4
:10ABC000ACCB06106068002050940120AC1D002022
:10ABD000B01D0020E8CB061054680020C81D0020DE
:10ABE0005868002079130220973A00001F4E000099
:10ABF000F0CB0610D74B1E68D74B180029F0D7FBB7
:10AC000003001A0030200823C118CB19111C197039
:10AC10001104090E59701202120E9A700823C318FB
:10AC2000DB190022196830001DF068FCC94B1B6855
:10AC30000121180017F046FF031E47D0C54B1B68C3
:10AC40000121180017F0D2FE40E0C24B1E68C34B32
:10AC5000180029F0ACFB03001A0034200823C118A7
:10AC6000CB19111C19701104090E59701202120E21
:10AC70009A700823C318DB190022196830001DF0F0
:10AC80003DFCB44B1B680121180017F01BFF031E8D
:10AC90001ED0B04B1B680121180017F0A7FE17E06B
:10ACA000AC4B1B680121180017F00CFF03001A00C1
:10ACB00001235340DBB2002B0CD0A64B1B680121B3
:10ACC000180018F028F905E0C04604E0C04602E08C
:10ACD000C04600E0C046A24BF32208215218D21908
:10ACE00012781A709F4B1B68002B00D160E19E4BBD
:10ACF00040229B5C002B02D09C4B00221A709A4B86
:10AD00005B7F002B06D0F22308229B18DB1902225E
:10AD10001A705FE0E72308229B18DB191B78002BD1
:10AD200005D1F2239B18DB1900221A7052E0E723A9
:10AD300008229B18DB191B78012B0BD1E4239B18ED
:10AD4000DB191B78002B05D0F2239B18DB1901229D
:10AD50001A703FE0E72208215318DB191B78022BF9
:10AD600021D05318DB191B78032B1CD05318DB1987
:10AD70001B78042B17D05318DB191B78012B05D136
:10AD8000E8235B18DB191B68002B0CD0E723082293
:10AD90009B18DB191B78012B0CD1E6239B18DB19C0
:10ADA0001B78062B06D1F22308229B18DB190222FE
:10ADB0001A700FE0E52308229B18DB191B78002B83
:10ADC00002D06A4B1A7800E00022F22308215B18B7
:10ADD000DB191A70F22308229B18DB191B78022B4F
:10ADE00000D079E0FA23FB6455F086FE0300BB64D3
:10ADF0005D4B9B69BA6CD61AFB6C1C0000231D00CE
:10AE0000FA2292000023200029000EF029FA020005
:10AE10000B0010001900FA22920000230DF056FEDC
:10AE200002000B0013009E4200D2BAE04E4B1B7F83
:10AE30005A1E9341DBB201225340DBB21A1C01239C
:10AE40001340DAB2484B1A77474BBA6C9A61464BBB
:10AE50001B7F002B2BD0434B1C68FF231B041800C7
:10AE600029F0A5FA03001A00382008254319DB1938
:10AE7000111C19701104090E59701202120E9A70E9
:10AE80004319DB190022196820001DF037FB354BF0
:10AE90001B680121180017F015FE031E00D180E089
:10AEA000304B1B680121180017F0A0FD79E02D4BF5
:10AEB0001B680121180017F005FE03001A0001238A
:10AEC0005340DBB2002B00D16BE0264B1B68012105
:10AED000180018F020F864E0244B1B78F2210825B4
:10AEE0004A19D21912789A425BD04B19DB191B7898
:10AEF000022B51D055DC002B3AD0012B51D1194BEC
:10AF00001C68FF231B02180029F051FA03001A00E5
:10AF10003C204319DB19111C19701104090E5970DA
:10AF20001202120E9A704319DB19002219682000D0
:10AF30001DF0E4FA0B4B1B680121180017F0C2FD4D
:10AF4000031E2BD0074B1B680121180017F04EFD84
:10AF500024E0C046586800200099FF000A820500DE
:10AF60007913022064680020509401207813022095
:10AF7000134B1B680121180017F0A4FD03001A00F1
:10AF800001235340DBB2002B0AD00D4B1B6801217B
:10AF9000180017F0C0FF03E0C04602E0C04600E022
:10AFA000C046084BF22208215218D21912781A70A2
:10AFB000054B402200219954BD4647B0F0BDC04624
:10AFC00064680020781302205094012080B582B07C
:10AFD00000AF7860D0231B067A685A61C046BD4630
:10AFE00002B080BD80B582B000AF7860D0231B0670
:10AFF0007A689A61C046BD4602B080BD80B584B013
:10B0000000AF78600A00FB1C1A7001227B689A402E
:10B010001300FB60FB1C1B78002B04D0FB6818009E
:10B02000FFF7D4FF03E0FB681800FFF7DBFFC04623
:10B03000BD4604B080BD0000B0B58AB000AF204B63
:10B040001022002118000EF0A9FA1D4B00229A725E
:10B050001C4B00221A7000F0B7FE3B00180002F0F3
:10B0600051FB3B001B69DAB227257C19164B1100F6
:10B07000180052F0C1F8030023707B191B78002BD5
:10B080000DD17C19104B180051F042FF03002370C2
:10B090007B191B78002B02D10C4B01221A7000F097
:10B0A000DDFF03003B621F23FC183B6A180044F0DD
:10B0B000E1FC0300237000231800BD460AB0B0BDB8
:10B0C000BCED00206F130220CCED00207013022095
:10B0D00080B582B000AF46F0C3FC03007B607B68A4
:10B0E000002B01D1002311E07B681A7859780902FE
:10B0F0000A43997809040A43DB781B0613431A00B4
:10B10000FB1C511E8A411A70FB1C1B781800BD469F
:10B1100002B080BD90B58DB000AF02003960FB1D5C
:10B120001A70FB1D1B7801225340DBB2002B12D09A
:10B1300046F096FC0300FB62FB6A002B5AD0FB6AC8
:10B140001A78597809020A43997809040A43DB7886
:10B150001B0613434ED0294BFA1D12781A70284B48
:10B160003A681A6055F0C8FC0200264B1A60254B5D
:10B170001A68244B5A60234B01221A72214B002279
:10B18000DA60214B01221A701E4B1A681F4B1A609D
:10B190001C4B1A681E4B1A601E4B00221A601E4B75
:10B1A00000221A601D4B00221A701D4B1B78002BC9
:10B1B00010D008243A191B4B1100180051F0FCFE66
:10B1C000031E07D13B19DA68174B1A603B19DA687E
:10B1D000164B1A6055F090FC0200154B1A6000F0F7
:10B1E000DDFDFB1D1B78002B05D146F039FC03006B
:10B1F000BB6200E0C046BD460DB090BD7213022098
:10B20000DCF10020BCED00206F13022000EF0020D5
:10B21000FCEE002014EF0020B4ED00206E1302209D
:10B2200070130220CCED0020B8ED002008EF0020C4
:10B2300004EF002080B500AF00210020FFF76AFF77
:10B24000C046BD4680BD000090B58DB000AF7860AF
:10B25000244B1B7A01225340DBB2002B3ED100F07D
:10B26000B3FD204B00221A721F4B00221A700023DC
:10B27000FB621E4B1B78002B12D00C243A191C4B7E
:10B280001100180051F098FE031E09D13B19DA682D
:10B29000184B1B68191C101C0DF0FFFF031CFB62F0
:10B2A000154B1B78002B06D1144B1B68002B02D0CA
:10B2B000124B00221A60104B00221A70104B002211
:10B2C0001A60104B00221A700F4B00221A600F4BAD
:10B2D00000221A70034B00229A7200E0C046BD465D
:10B2E0000DB090BDBCED00206F1302207013022042
:10B2F000CCED0020B8ED00207213022014EF0020E6
:10B30000DCF10020731302200CEF002071130220E7
:10B31000F0B59FB000AF78610023BB6600237B6768
:10B32000B64B1B78002B36D00C261023F218D219FE
:10B33000B34B1100180051F03FFE031E2DD1102316
:10B34000F318DB19DB68BB66AE4B1B68191CB86EC3
:10B350000DF0A3FF031C7B67AB4B1B68191CB86E79
:10B360000DF0F2FF031E18D0A74BBA6E1A6055F00D
:10B37000C3FB0200A54B1A60A54B1B78002B0CD019
:10B38000A44B1B7801225340DBB2002B05D0A14B0C
:10B3900001221A7001E00123F5E155F0ADFB020036
:10B3A0009A4B1B68D31ABB600023FB60FA22920001
:10B3B0000023B868F9680DF053FF02000B0010007D
:10B3C0001900FA22920000230DF080FB02000B000E
:10B3D00013007B667B6E904A93422CD98F4B1800EA
:10B3E000FFF732FF8E4B1B7801225340DBB2002B5C
:10B3F0001FD046F009F8031E1BD046F031FB0300B6
:10B40000FB64FB6C002B10D0FB6C1A785978090296
:10B410000A43997809040A43DB781B06134304D1D5
:10B42000052046F08FFCC04602E00A2046F08AFC68
:10B43000C0460023A7E17A4B1B78002B23D0FC21C8
:10B440008905786F0DF02CFF031C181C0DF0A8FF68
:10B450000200744BDA60744B1B68002B11D0724BE6
:10B460001B6818000DF075FF031C191C786F0DF098
:10B4700063FF031E05D06D4B1800FFF7E5FE0023A8
:10B4800081E101237FE146F0EBFA03003B663B6E6E
:10B49000002B01D1012376E1FC218905786F0DF0A5
:10B4A000FFFE031C181C0DF07BFF0300FB6500234F
:10B4B0003B675C4BDB68FA6D9A4204D9594BDB68F9
:10B4C000FA6DD31A3B673B6E1A78597809020A4322
:10B4D000997809040A43DB781B0613431A003B6F73
:10B4E00093420BD93B6E1A78597809020A4399782E
:10B4F00009040A43DB781B0613433B673B6F002BB1
:10B5000041D02C2610203318DA193B6E1000190098
:10B5100010231A000EF048F8310010200B18DB1928
:10B520001A683B6FD21A0B18DB191A600B18DB195B
:10B530001B8901339AB20B18DB191A810B18DB191E
:10B54000180046F0F3FA374BDA683B6FD218354BE8
:10B55000DA60374B1A683B6FD218354B1A602C4BA8
:10B560001B78002B0FD02B4B1B78002B0BD02D4BB7
:10B57000DA68304B1B689A4205D32F4B1800FFF74F
:10B5800063FE0023FFE055F0B7FA0300BB655F26BA
:10B5900010217318DB1900221A705E235B18DB1967
:10B5A00001221A70254B1B68BA6DD31A3B60002329
:10B5B0007B60FA2292000023386879680DF050FE13
:10B5C00002000B0010001900FA22920000230DF077
:10B5D0007DFA02000B00FA235B009A4230D3144B31
:10B5E0001B68002B2CD010217318DB1901221A7054
:10B5F0005E235B18DB1900221A704CE070130220E6
:10B60000CCED0020B8ED002008EF002004EF002072
:10B610007313022071130220B70B000004CC061034
:10B6200072130220BCED0020DCF1002014CC0610C7
:10B6300014EF00200CEF00202CCC0610FCEE0020B4
:10B64000534B1B68BA6DD31A1C0000231D00FA224D
:10B6500092000023200029000DF002FE02000B00E2
:10B6600010001900FA22920000230DF02FFA0200B8
:10B670000B001300C72B0ED9464B1B68002B0AD0BA
:10B680005F2310215B18DB1901221A705E235B18FF
:10B69000DB1901221A705F2310241B19DB191B7898
:10B6A000002B56D001210B2043F0CCFF4725210071
:10B6B0006B18DC195E267318DB191B78180046F02E
:10B6C00047FB0300237010216B18DB191B78002B3C
:10B6D00014D1304B00221A602D4BBA6D1A602E4BDC
:10B6E00000221A607318DB191B7801225340DBB269
:10B6F000002B08D0294BBA6D1A6004E0264B1B685A
:10B700005A1C254B1A60244B1B68002B21D00121A9
:10B710000B2043F097FF46251026AB19DC1945F0A6
:10B72000CFFA03002370AB19DB191B78002B0DD067
:10B73000194B00221A601A4B01221A7045F072FA56
:10B74000184B1800FFF780FD00231CE0124B00226D
:10B750001A6046F085F903003B653B6D002B11D064
:10B760003B6D1A78597809020A43997809040A430B
:10B77000DB781B06134305D10B4B1800FFF764FD64
:10B78000002300E001231800BD461FB0F0BDC046F5
:10B7900000EF002014EF0020B4ED0020FCEE0020AC
:10B7A0006E13022044CC061054CC061080B500AFB6
:10B7B00046F04CF9031E07D0FFF78AFC031E03D0A6
:10B7C000FFF738FD002300E004231800BD4680BDCC
:10B7D000B0B584B000AF78607B68002B01D1012345
:10B7E00064E0344B1A787B681A70334B1A7A7B68A2
:10B7F0005A7045F009FE03001A007B681A722E4B3E
:10B800005A7A7B681A742D4B1B78002B07D07B6803
:10B810000022DA602A4B1A687B685A601AE046F008
:10B820001FF90300FB60FB68002B0CD0FB681A7843
:10B83000597809020A43997809040A43DB781B0600
:10B8400013431A0000E000227B68DA607B68DA6844
:10B850007B685A60184B1B7A002B1FD055F04CF9AF
:10B860000200154B1B68D31ABB60BB681C00002389
:10B870001D00FA2292000023200029000DF0F0FCA8
:10B8800002000B0010001900FA22920000230DF0B4
:10B890001DF902000B007B685A6102E07B68002200
:10B8A0005A61054B9A7A7B681A7600231800BD46C8
:10B8B00004B0B0BD6F130220BCED00207213022053
:10B8C000DCF1002080B500AF034B1800FFF7BCFC93
:10B8D00000231800BD4680BD68CC061080B582B03C
:10B8E00000AF7860074B1B7A002B01D0012305E0E5
:10B8F0007B6819000120FFF70DFC00231800BD46EE
:10B9000002B080BDBCED002080B500AF084B1B7AB3
:10B9100001225340DBB2002B01D0002304E0054B91
:10B920001800FFF791FC00231800BD4680BDC046FB
:10B93000BCED002078CC061080B500AF024B1B7A1E
:10B940001800BD4680BDC046BCED002080B500AFEC
:10B95000024BDB681800BD4680BDC046BCED002030
:10B96000F0B591B000AFF86055F0C6F80300BB63C6
:10B970009A4B1B68BA6BD21AFA239B009A4206D3E1
:10B98000964BBA6B1A60964B180044F0E1F801210F
:10B990000B2043F057FE372108200B18DB1900223B
:10B9A0001A70904B1B7801225340DBB2002B13D04E
:10B9B0000B18DE1946F04AF8030033708A4B1B78E7
:10B9C000372108200A18D21912789A4204D0864BDF
:10B9D0000A18D21912781A70844B1B78022B00D1E6
:10B9E000BCE000DDD6E0002B02D0012B61D0D1E01D
:10B9F0007C4B1B7801225340DBB2002B00D1C0E00E
:10BA0000372308229B18DB191B78002B00D1B8E0E4
:10BA100022239B18DE1945F01FF803003370222300
:10BA200008229B18DB191B78052B00D0ABE04FF0E8
:10BA3000EBF903007B627B6A002B33D07B6A1B7DB2
:10BA4000002B2FD07B6A1B78032B26D108260822D7
:10BA5000B318DB19180046F04FF8031E00D194E02C
:10BA6000300008268319DB199A7A7B6ADB7B9A42BD
:10BA700000D08AE07B6A083319007B6ADB7B1A00FE
:10BA80008319DB19180058F0EFF9031E00D07CE091
:10BA90007B6A18004FF0DEF977E07B6A18004FF000
:10BAA000D9F972E0FFF714FB031E6AD0FFF7C2FB5F
:10BAB00067E055F021F803003B634D4B5B683A6B40
:10BAC000D31A3B6000237B60FA229200002338687F
:10BAD00079680DF0C5FB02000B0010001900FA2276
:10BAE000920000230CF0F2FF02000B001300FB6237
:10BAF000FB6A312B4BD9232308229B18DE19FB6AE2
:10BB00001800FFF705FC03003370394B3A6B5A609D
:10BB1000232308229B18DB191B7801225340DBB238
:10BB2000002B34D02F4B1B7801225340DBB2002B6B
:10BB30000DD0304B1B7801225340DBB2002B06D0D6
:10BB40002A4B02221A702C4B3A6B1A6022E0274BC8
:10BB500000221A70274B00221A701BE02F230822A4
:10BB60009B18DE1945F072FF030033702F23082263
:10BB70009B18DB191B78002B0BD11C4B00221A7071
:10BB800007E0C04606E0C04604E0C04602E0C0460A
:10BB900000E0C046154B1B78002B01D1142300E0B8
:10BBA00064233B623B6A1C0000231D00FA229200C2
:10BBB0000023200029000DF053FB02000B001000B1
:10BBC0001900FA22920000230CF080FF02000B0003
:10BBD0001300180055F0D6F9C6E6C04610D600206E
:10BBE00084CC061072130220761302206F130220F9
:10BBF000BCED00206E130220B0ED002080B586B0B1
:10BC000004AF104B1B68002B18D1C0239A000E49BB
:10BC10000E480F4B02930F4B019301230093002317
:10BC200054F03AFC0200074B1A60064B1B68002BCD
:10BC300001D0012300E000237B6000E0C046BD4648
:10BC400002B080BD8CDB002084CC061061B90010EE
:10BC5000103E002090DB002080B500AF0B4B1B682E
:10BC6000002B0FD00A4B1B7A002B03D0094B180076
:10BC7000FFF7EAFA054B1B68180054F061FC034B10
:10BC800000221A60C046BD4680BDC0468CDB002045
:10BC9000BCED002090CC061080B582B000AF0F4BF9
:10BCA0001B78002B01D0002313E045F0D9FE0300E0
:10BCB0007B607B68002B0BD07B681A78597809026F
:10BCC0000A43997809040A43DB781B06134300E012
:10BCD00000231800BD4602B080BDC046721302208A
:10BCE00080B500AF064B1B78002B02D0054B1B68BC
:10BCF00002E0FFF7D1FF03001800BD4680BDC0463B
:10BD000072130220DCF1002080B500AF024B1B7AD9
:10BD10001800BD4680BDC046BCED0020B0B588B05F
:10BD200002AFF8603A607B6017257C193A687B683F
:10BD3000F96800200090080046F094F80300237092
:10BD40007B191B78002B01D1002300E00123180090
:10BD5000BD4606B0B0BDB0B584B000AF786045F068
:10BD600075FE03001A0001235340DBB2002B01D003
:10BD700003230EE00F257C197B68180045F040FF77
:10BD8000030023707B191B78002B01D1002300E0F6
:10BD900001231800BD4604B0B0BD000080B588B0D6
:10BDA00000AF3B1D180001F0ADFC3B1D5B6901219C
:10BDB0001800FFF723F9034B01229A72C046BD46D3
:10BDC00008B080BDBCED002080B588B000AF3B1D41
:10BDD000180001F097FC3B1D5B6900211800FFF77C
:10BDE0000DF9034B00229A72C046BD4608B080BDD3
:10BDF000BCED002080B582B000AF0200FB1D1A70C0
:10BE0000FB1D1B780A2B1AD89A000F4BD3181B68FE
:10BE10009F46002314E0012312E0022310E00323D5
:10BE20000EE004230CE005230AE0062308E00723C4
:10BE300006E0082304E0092302E00A2300E00123CE
:10BE40001800BD4602B080BDCCCC061080B500AF56
:10BE5000FFF7F2F803001800FFF7CCFF030018000B
:10BE6000BD4680BDB0B58AB000AF78607B68002B5E
:10BE700001D1012358E027257C190823FB1818005D
:10BE8000FFF7A6FC030023707B191B78002B06D05C
:10BE90007B191B781800FFF7ADFF030044E008236F
:10BEA000FB181B78022B0DD010DC002B02D0012BCD
:10BEB00004D00BE07B6800221A700BE07B68042240
:10BEC0001A7007E07B6805221A7003E07B6806227F
:10BED0001A70C04608243B195A787B685A703B197F
:10BEE0001A7A7B689A703B191A7C7B681A773B191F
:10BEF0005B69FA22910018000CF0AAFD03001A00F9
:10BF00007B685A613B195A687B689A613B19DA6809
:10BF10007B685A607B6800229A607B68044ADA601A
:10BF20007B6800221A6100231800BD460AB0B0BD2C
:10BF3000B8CC061080B588B000AF3B001800FFF702
:10BF400091FF031E02D13B001B7800E0062318007E
:10BF5000BD4608B080BD80B500AFFFF7EDFC030023
:10BF60001800BD4680BD80B500AFFFF71FFC030081
:10BF70001800FFF73FFF03001800BD4680BD80B5E5
:10BF800000AFFFF79FFC03001800FFF733FF03002B
:10BF90001800BD4680BD80B582B000AF78607B6878
:10BFA0001800FFF79BFC03001800FFF723FF0300B6
:10BFB0001800BD4602B080BD80B584B000AFF86007
:10BFC0003A607B603A687B68F9680800FFF7A6FE74
:10BFD00003001800FFF70EFF03001800BD4604B071
:10BFE00080BD80B582B000AF78607B681800FFF735
:10BFF000B2FE03001800FFF7FDFE03001800BD4667
:10C0000002B080BD80B500AFFFF746FE0300180008
:10C01000BD4680BD80B500AF00231800BD4680BD81
:10C0200080B582B000AF0200FB1D1A70FB1D1B78AB
:10C03000180043F053FD03001800BD4602B080BD58
:10C0400080B500AFFFF7DAFDC046BD4680BD80B5C4
:10C0500000AFFFF701FEC046BD4680BD80B500AF12
:10C06000014B1800BD4680BD30CD061080B500AF35
:10C07000C046BD4680BD80B582B000AF78607B68A9
:10C080000022012118000BF009FAC046BD4602B09B
:10C0900080BD80B582B000AF7860D0231B067A687F
:10C0A0005A61C046BD4602B080BD80B582B000AFC7
:10C0B0007860D0231B067A689A61C046BD4602B0FC
:10C0C00080BD80B584B000AF78600A00FB1C1A7098
:10C0D00001227B689A401300FB60FB1C1B78002B3D
:10C0E00004D0FB681800FFF7D4FF03E0FB681800DA
:10C0F000FFF7DBFFC046BD4604B080BD80B582B00F
:10C1000000AF7860D0231B067A685A62C046BD46ED
:10C1100002B080BD80B582B000AF7860D0231B062E
:10C120007A689A62C046BD4602B080BD80B584B0D0
:10C1300000AF78600A00FB1C1A7001227B689A40ED
:10C140001300FB60FB1C1B78002B04D0FB6818005D
:10C15000FFF7D4FF03E0FB681800FFF7DBFFC046E2
:10C16000BD4604B080BD000080B582B000AF7860ED
:10C170007B68054A944663445A425341DBB2180037
:10C18000BD4602B080BDC0460000FCBF80B582B095
:10C1900000AF78607B681800FFF7E6FF7B68180047
:10C1A000BD4602B080BD80B582B000AF78607B68CC
:10C1B0001800FFF7D9FF7B681800BD4602B080BDAC
:10C1C00080B58EB000AFF860B9601900FB1D1A7021
:10C1D000BB1D0A1C1A70FB681800FFF7D7FF03008D
:10C1E0005B68022213407B63FB681800FFF7CEFFF9
:10C1F000030004337B6102233B617B69C02292010F
:10C20000944663443A691A60C046FB681800FFF719
:10C21000BDFF03001900BB685A1EFB1D1B789B0164
:10C220001A43BB1D1B78DB011343B9627B62CF232A
:10C230003B62BB6A1A687B6A53403A6A1340BA6A27
:10C24000FA61BB61FB698022520194466344BA697A
:10C250001A60C046C046FB681800FFF797FF03004E
:10C260000433FB627B6B3B63FB6A80229201944642
:10C2700063443A6B1A60C046C046BD460EB080BDEE
:10C2800080B582B000AF78607B681800FFF78BFF45
:10C290000300DB68102213405A1E9341DBB21800E2
:10C2A000BD4602B080BD000080B582B000AF7860AE
:10C2B0000A00FB1C1A707B68074A934201D11223C3
:10C2C00000E01023FA1C127801214A40D2B29B18D8
:10C2D0001800BD4602B080BD0000044080B582B0A9
:10C2E00000AF78607B68054A944663445A425341E4
:10C2F000DBB21800BD4602B080BDC0460080FCBF66
:10C3000080B582B000AF78607B681800FFF7E6FF69
:10C310007B681800BD4602B080BD80B588B000AF14
:10C32000786008001100FB1C021C1A70BB1C0A1C60
:10C330001A707B681800FFF7E3FF03003033190021
:10C34000FB1C1B78002B02D080231A0200E0002285
:10C35000BB1C1B78002B02D08023DB0100E00023F4
:10C360001343F961BB61C0231B027B61FB691A683F
:10C37000BB6953407A691340FA693A61FB603B69D3
:10C380008022520194466344FA681A60C046C0464F
:10C39000C046BD4608B080BD80B582B000AF7860B1
:10C3A000C046BD4602B080BD80B584B000AF7860A5
:10C3B0007B681F2B05D87B685B0807221340FB6056
:10C3C00005E07B685B08032213400833FB60FB68D1
:10C3D0001800BD4604B080BD80B582B000AF786063
:10C3E0007B68012213401800BD4602B080BD80B5B5
:10C3F00082B000AF78600A00FB1C1A707B681B6873
:10C40000022293431A00FB1C1B78002B01D002234D
:10C4100000E000231A437B681A60C046BD4602B0A4
:10C4200080BD80B584B000AF786039600423FB60C4
:10C430000122FB689A40130018000CF08FFF031CC8
:10C44000191CFC2080050CF02EFF031C191C3868F9
:10C450000CF026FF031C3B600122FB689A4013008E
:10C4600018000CF076FF031C3968181C0CF02FFF25
:10C47000031C181C0CF094FF02007B685A60C04635
:10C48000BD4604B080BD80B584B000AFF860B9602F
:10C49000FB1D1A70BB681A01FB1D1B781A43FB6851
:10C4A0005A60C046BD4604B080BD80B582B000AFC2
:10C4B0007860396039687B6800221800FFF7E3FF75
:10C4C000C046BD4602B080BD80B582B000AF786086
:10C4D0000A00FB1C1A707B681B68302293431A0009
:10C4E000FB1C1B781B011A437B681A60C046BD46C3
:10C4F00002B080BD80B582B000AF78600800110046
:10C50000FB1C021C1A70BB1C0A1C1A707B681B687F
:10C510000C2293431900FB1C1B78002B01D0042232
:10C5200000E00022BB1C1B78002B01D0082300E098
:10C53000002313430A001A437B681A60C046BD46B5
:10C5400002B080BD80B582B000AF78600A00BB1C2D
:10C550001A80BB1C1A887B689A60C046BD4602B030
:10C5600080BD000080B584B000AFF860B960FB1DED
:10C570001A70FB681800FFF70FFF2149FA681300D3
:10C580009B009B189B0000225A501D49FA6813001B
:10C590009B009B189B00CB18083300221A60184997
:10C5A000FA6813009B009B189B00CB180C330022E9
:10C5B0001A601348BB689968FA6813009B009B18BF
:10C5C0009B00C318103319600D48BB685968FA689E
:10C5D00013009B009B189B00C31804331960BB68B1
:10C5E0001A68FB1D1B7806481A431100FA681300ED
:10C5F0009B009B189B001950C046BD4604B080BDEF
:10C600000000054090B587B000AF78600C243B195E
:10C6100000221A603B1900225A603B1900229A60DE
:10C620003B1900211800FFF7E2FE3B190121180019
:10C63000FFF73BFF3B1900211800FFF745FF3B19AF
:10C64000002200211800FFF755FF074A3B1911008F
:10C650001800FFF777FF7B683A1913CA13C378688D
:10C66000BD4607B090BDC046FFFF000080B58AB050
:10C6700000AFF860B960BB1D1A80FB681800FFF7B7
:10C680008BFEFA6813009B009B189B000C33154A25
:10C690009918BB1D1A88BB68002B01D0102300E03D
:10C6A00000239A40BB68002B01D00F4B00E00F4BDA
:10C6B00079623A62FB617B6A1A683B6A5340FA69A5
:10C6C00013407A6ABA617B61BB6980225201944649
:10C6D00063447A691A60C046C046C046BD460AB087
:10C6E00080BDC046000005400000FFFFFFFF0000C6
:10C6F00090B583B000AF78600A00BB1C1A807B68DD
:10C700001800FFF751FE04007B681800FFF764FE75
:10C710000100BB1C1B881A002000FFF7A7FFC046C2
:10C72000BD4603B090BD000080B588B000AF786012
:10C730000A00FB1C1A707B681800FFF72DFE7A6850
:10C7400013009B009B189B000E4A9A18FB1C1B7839
:10C75000FA61BB6101237B61FB691A68BB695340C5
:10C760007A691340FA693A61FB603B6980225201A1
:10C7700094466344FA681A60C046C046C046BD4647
:10C7800008B080BD0000054080B582B000AF786081
:10C79000C046BD4602B080BD80B582B000AF7860B3
:10C7A0007B681800FFF7F0FF7B689B01A022D20591
:10C7B000944663441800BD4602B080BD80B582B087
:10C7C00000AF78600A00FB1C1A707B681B6810229F
:10C7D00093431A00FB1C1B781B0110210B401A43CA
:10C7E0007B681A60C046BD4602B080BD80B582B08D
:10C7F00000AF78600A00FB1C1A707B681B6820225F
:10C8000093431A00FB1C1B785B0120210B401A4349
:10C810007B681A60C046BD4602B080BD80B582B05C
:10C8200000AF78600A00FB1C1A70FB1C1A787B684A
:10C8300011001800FFF7C2FFC046BD4602B080BD20
:10C8400080B582B000AF78600A00FB1C1A70FB1C38
:10C850001A787B6811001800FFF7C8FFC046BD4674
:10C8600002B080BD80B582B000AF786039603B68AF
:10C870003F2B06D9094B0A4A1C21FF3109480EF00B
:10C88000DDFB7B681B68084A1A403B68DB031A43E0
:10C890007B681A60C046BD4602B080BD3CCD061024
:10C8A000F0CE061050CD0610FF7FE0FF80B582B0BD
:10C8B00000AF786039603B680C2B06D9094B0A4AF7
:10C8C0002A21FF3109480EF0B9FB7B681B68084A32
:10C8D0001A403B68DB021A437B681A60C046BD46BB
:10C8E00002B080BDA8CD061094CE061050CD061023
:10C8F000FF87FFFF80B582B000AF78600A00FB1CA5
:10C900001A70FB1C1B78002B0ED0FB1C1B78012B14
:10C910000AD0FB1C1B78022B06D00B4B0B4A38218C
:10C92000FF310B480EF08AFB7B681B680C22934397
:10C930001A00FB1C1B789B001A437B681A60C046D8
:10C94000BD4602B080BDC046C8CD0610C8CE061098
:10C9500050CD061080B584B000AFF8607A600B232C
:10C96000FB180A1C1A707B681F2B06D90E4B0F4A46
:10C970004C21FF310E480EF061FBFB681B680D4A2D
:10C980001A407B689B011A430B23FB181B78002B72
:10C9900002D08023DB0000E000231A43FB681A600A
:10C9A000C046BD4604B080BD0CCE0610B0CE061009
:10C9B00050CD06103FF8FFFF80B582B000AF786021
:10C9C0000A00FB1C1A70FB1C1B78002B05D07B682F
:10C9D0001B688022D2031A4303E07B681B68044A69
:10C9E0001A407B681A60C046BD4602B080BDC04692
:10C9F000FFFFBFFF80B582B000AF78600A00FB1C6C
:10CA00001A70FB1C1B78002B05D07B681B688022EA
:10CA100092031A4303E07B681B68044A1A407B6850
:10CA20001A60C046BD4602B080BDC046FFFFDFFFB2
:10CA300080B582B000AF78600A00FB1C1A70FB1C46
:10CA40001B78002B04D07B681B6802221A4304E089
:10CA50007B681B68022293431A007B681A60C046F9
:10CA6000BD4602B080BD80B582B000AF78600A00DC
:10CA7000FB1C1A70FB1C1B78002B04D07B681B6806
:10CA800001221A4304E07B681B68012293431A00C9
:10CA90007B681A60C046BD4602B080BD80B582B0DA
:10CAA00000AF78600A00FB1C1A70FB1C1B78002B7F
:10CAB00005D07B681B68802212041A4303E07B6860
:10CAC0001B68044A1A407B681A60C046BD4602B023
:10CAD00080BDC046FFFF7FFF90B585B000AF786096
:10CAE0000023FB600C243B1901211800FFF796FE80
:10CAF0003B1900211800FFF7A3FE3B193F21180046
:10CB0000FFF7B0FE7A683B1911001800FFF7CEFE60
:10CB10003B1902211800FFF7EDFE3B19002200210E
:10CB20001800FFF717FF3B1900211800FFF744FF1B
:10CB30003B1900211800FFF75DFF3B190121180088
:10CB4000FFF791FF3B1900211800FFF7A7FF3B19E2
:10CB500000211800FFF76CFFFB681800BD4605B008
:10CB600090BD80B582B000AF78607B681B6818000C
:10CB7000BD4602B080BD90B585B000AFF860B96029
:10CB8000FB1D1A70FB1D1B7801225340DBB2002BEA
:10CB90000BD0FB681800FFF7FFFD0400BB6818000E
:10CBA000FFF7DFFF030023610AE0FB681800FFF7CF
:10CBB000F3FD0400BB681800FFF7D3FF0300E36038
:10CBC000C046BD4605B090BD80B584B000AFF860EA
:10CBD000B960FB1D1A70FB1D1B7801225340DBB2AC
:10CBE000002B07D0FB681800FFF7D6FD0300BA68DA
:10CBF0001A6006E0FB681800FFF7CEFD0300BA6874
:10CC0000DA63C046BD4604B080BD80B584B000AFD5
:10CC1000F860B960FB1D1A70FB1D1B7801225340A0
:10CC2000DBB2002B07D0FB681800FFF7B5FD03004F
:10CC3000BA685A6006E0FB681800FFF7ADFD030014
:10CC4000BA68DA62C046BD4604B080BD80B584B023
:10CC500000AFF860B960FB1D1A70FB1D1B78012244
:10CC60005340DBB2002B07D0FB681800FFF794FDA0
:10CC70000300BA689A6006E0FB681800FFF78CFDB5
:10CC80000300BA68DA61C046BD4604B080BD80B515
:10CC900084B000AFF860B960FB1D1A70FB1D1A78F4
:10CCA000B968FB681800FFF7D1FFC046BD4604B065
:10CCB00080BD80B582B000AF78607B681800FFF758
:10CCC00063FDA023DA057B689B01D31810331A6833
:10CCD00080235B0413405A1E9341DBB21800BD460B
:10CCE00002B080BD80B582B000AF786000E0C04681
:10CCF0007B681800FFF7DDFF031EF8D1C046C04671
:10CD0000BD4602B080BD000080B500AF134B1B686C
:10CD1000002B07D1124B1900012052F0B3FB020087
:10CD20000E4B1A600F4B1B68002B07D10E4B1900DE
:10CD3000012052F0A7FB02000A4B1A600B4B1B6844
:10CD4000002B07D10A4B1900012052F09BFB020077
:10CD5000064B1A60C046BD4680BDC0460C8D012002
:10CD6000108D0120E4F70020E8F7002094F800205F
:10CD700098F8002090B589B000AF7860EFF3108389
:10CD800072B6BB61BB69FB61344B1B78002B05D0CD
:10CD9000FB697B617B6983F310885BE07B68304AC9
:10CDA000190010000BF0C8F8012112200AF03EFB18
:10CDB000012113200AF03AFB012110200AF036FB72
:10CDC00001200BF021FC0200264B1A60234B0122AC
:10CDD0001A70FB693B613B6983F31088C046214BA5
:10CDE0001B681800FFF778FE0300FB600C243B195A
:10CDF00000211800FFF77EFD194B01211800FFF7F5
:10CE000053FA02003B1911001800FFF72BFD3B19E4
:10CE100001211800FFF702FD3B1900211800FFF760
:10CE20000FFD104B1B6818003B1900221900FFF77B
:10CE3000A2FE0C4B1B681C00094B1800FFF7A6F95B
:10CE400003000833002219002000FFF7DEFE034B29
:10CE500001221A70BD4609B090BDC0469A13022047
:10CE600000C00340CC1D002080B500AF0B4B1B68F9
:10CE7000002B01D100230DE0084B1B68FA22920021
:10CE80001100180052F0E6FC0300012B01D1012330
:10CE900000E000231800BD4680BDC0460C8D012077
:10CEA00080B500AF064B1B68002B06D0044B1868FA
:10CEB00000230022002152F013FAC046BD4680BD77
:10CEC0000C8D012080B582B000AF0200FB1D1A70EE
:10CED000FB1D0448012219005FF00EFAC046BD4652
:10CEE00002B080BD00C0034090B585B000AF020025
:10CEF000FB1D1A700F243A19FB1D197804480123F1
:10CF00005FF0BAF93B191B781800BD4605B090BD1B
:10CF100000C00340B0B584B000AF78603960314BD9
:10CF20001B68002B53DB3B681F2B50D92D4B1B6814
:10CF300018007B6800221900FFF746FE294B1B688A
:10CF400018003B6801221900FFF7A1FE264B1800CC
:10CF50000BF0DCF80300FB60FB68002B29D03A687B
:10CF600013005B019B1A9B009B189B01F96818003A
:10CF70000BF06EFD0300BB60BB68012B19D9BB68C9
:10CF80001C0000231D00FA2292000023200029002B
:10CF90000CF066F902000B0010001900FA22920052
:10CFA00000230BF093FD02000B001300180053F058
:10CFB000E9FF0C4B1B681800FFF794FE00E0C04629
:10CFC000094B1800FFF75CF9031EF8D106E03A6838
:10CFD0007B68054819005FF08FF9C046C046BD4622
:10CFE00004B0B0BDCC1D002000C0034090B585B09A
:10CFF00000AFB9607A600F217B18021C1A70786844
:10D00000BA687B181978044C030020005FF034F9EB
:10D01000C046BD4605B090BD00C0034080B582B09B
:10D0200000AF78607B68054A190010000AF0C8FF5D
:10D0300003001800BD4602B080BDC04600C00340DA
:10D0400090B587B002AF040008001100FB1D221C40
:10D050001A70BB1D021C1A707B1D0A1C1A70BB1DA6
:10D060001B785A1E9341DAB20F243B191A707B1DAC
:10D070001B785A1E9341DAB20E203B181A70FB1D22
:10D0800019783B1818783B191A78054C012300933E
:10D0900003002000FFF794F8C046BD4605B090BDE0
:10D0A00000C0034080B584B000AFF860B9607A601A
:10D0B0003B603B681B78002B1BD1BA69FB681100F1
:10D0C000180007F015FBBB68032118000AF0AEF941
:10D0D0007B68032118000AF0A9F9BB681800FEF765
:10D0E000CAFF7B681800FEF7C6FF3B6801221A7072
:10D0F00000E0C046BD4604B080BD000080B584B0ED
:10D1000002AF7860064A07487B6800931300152237
:10D110001421FFF7C7FFC046BD4602B080BDC04620
:10D1200074130220D41D002080B582B000AF786057
:10D130007B68114A190010000BF0B0F802210020A2
:10D140000AF074F9022101200AF070F90A4B00225A
:10D1500000211800FFF7E1F8074800230122082109
:10D160000BF0F0F9044B012118000BF015FA024BFB
:10D170001800BD4602B080BD0040034090B589B0A4
:10D1800002AFB9607A6019000F23FB18021C1A70F5
:10D190000E23FB180A1C1A70194B1B68002B02D0B7
:10D1A000BB68002B02D101235B4224E0144B1B68B7
:10D1B000FA2292001100180052F04CFB0300012BE0
:10D1C00002D001235B4216E07C68BA680F23FB188B
:10D1D00019780C480E23FB181B780093230007F0E6
:10D1E00086FC03007B61064B1868002300220021A7
:10D1F00052F076F87B691800BD4607B090BDC04676
:10D20000E4F70020D41D002090B589B002AFB960CA
:10D210007A6019000F23FB18021C1A700E23FB18EA
:10D220000A1C1A70194B1B68002B02D0BB68002B1C
:10D2300002D101235B4224E0144B1B68FA229200C6
:10D240001100180052F006FB0300012B02D001234D
:10D250005B4216E07C68BA680F23FB1819780C480B
:10D260000E23FB181B780093230007F03BFD0300FF
:10D270007B61064B186800230022002152F030F831
:10D280007B691800BD4607B090BDC046E4F700209A
:10D29000D41D002090B589B002AFB9607A603B60C0
:10D2A0000F23FB18021C1A70264B1B68002B05D09D
:10D2B000BB68002B02D03B68002B02D101235B42EC
:10D2C0003CE0204B1B68FA2292001100180052F03B
:10D2D000C1FA0300012B02D001235B422EE07C68DF
:10D2E000BA680F23FB18197817480123009323000D
:10D2F00007F0FDFB03007B617B69002B09DA114B12
:10D30000186800230022002151F0EAFF01235B424C
:10D3100014E0BC6A3A680F23FB1819780A48002306
:10D320000093230007F0DEFC03003B61054B186807
:10D3300000230022002151F0D3FF3B691800BD46B5
:10D3400007B090BDE4F70020D41D002080B582B066
:10D3500000AF78607B6818000AF026FA7B6801212C
:10D360001800FEF7E3FEC046BD4602B080BD80B5A2
:10D3700082B000AF78600A00FB1C1A70FB1C1A78A0
:10D380007B6811001800FEF79CFEC046BD4602B047
:10D3900080BD80B500AF01211920FEF792FEC04686
:10D3A000BD4680BD80B500AF00211920FEF789FE83
:10D3B000C046BD4680BD80B500AFC046BD4680BDFD
:10D3C00080B582B000AF78607A681C21002391425A
:10D3D0005B41DBB21800BD4602B080BD90B58BB09A
:10D3E00000AFF8607A600A23FB180A1C1A80FB68F9
:10D3F0001800FFF7E5FF03001A0001235340DBB2DA
:10D40000002B01D0002377E0FB681800FEF7CCFF6B
:10D4100003007B623A4B1B781A007B6A1A41232077
:10D420003B181A701A7801210A401A703B181B78B1
:10D4300001225340DBB2002B55D07B68002B02D178
:10D44000FA239B007B60052009F03CFF03001800D5
:10D450000BF07FFF041C78680BF07BFF031C8F210F
:10D46000C905181C0BF033FF031C191C201C0BF002
:10D470001AFF031CFB6110243B191800FFF7C2F8C8
:10D48000FA693B19111C1800FEF7CBFF1D4A3B1926
:10D4900011001800FFF756F839197B6A00221800AE
:10D4A000FFF760F80A23FB181A88FB6811001800C0
:10D4B000FFF71EF97B6A01211800FFF735F9FB68B9
:10D4C0000421180009F0B2FF01227B6A9A40130080
:10D4D0005AB20B4B1B785BB213435BB2DAB2084B08
:10D4E0001A70012308E00A23FB181A88FB68110050
:10D4F0001800FFF7FDF801231800BD460BB090BDE2
:10D500007D130220FFFF000080B584B000AF78607B
:10D510000A00BB1C1A807B681800FFF751FF03004C
:10D520001A0001235340DBB2002B01D0002320E07E
:10D530007B681800FEF738FF0300FB600F4B1B7879
:10D540001A00FB681A4113000122134009D1FA2383
:10D550009A00BB1C19887B681800FFF73FFF030087
:10D5600007E0BB1C1A887B6811001800FFF7C0F8A1
:10D5700001231800BD4604B080BDC0467D130220C3
:10D5800080B584B000AF78600A00FB1C1A70FB1CE9
:10D590001B78642B02D9FB1C64221A70FB1C1A78BE
:10D5A00013001B049B1A642118000BF051FA0300AE
:10D5B0001A000E217B181A807B181A887B681100CC
:10D5C0001800FFF7A1FF03001800BD4604B080BD9E
:10D5D00080B500AF0F4B1800FFF7CCFB1120FFF711
:10D5E000B5FE01211120FEF76CFD0220FFF7AEFE13
:10D5F0000320FFF7ABFE64210720FFF7C1FF0121E5
:10D600000220FEF75EFD00210320FEF75AFDC04612
:10D61000BD4680BDA0ACB90380B500AF064B180075
:10D62000FFF76CFD0E20FFF791FE01210E20FEF7A3
:10D6300048FDC046BD4680BD801A0600B0B58AB020
:10D6400000AF786008257B19094A13CA13C313CAAF
:10D6500013C303CA03C37B687A1913CA13C313CA5B
:10D6600013C303CA03C37868BD460AB0B0BDC04641
:10D670001CCE0610B0B588B000AF78600C257B19C1
:10D68000074A13CA13C303CA03C37B687A1913CAB0
:10D6900013C303CA03C37868BD4608B0B0BDC04613
:10D6A0003CCE0610B0B588B000AF78600C257B1971
:10D6B000074A13CA13C303CA03C37B687A1913CA80
:10D6C00013C303CA03C37868BD4608B0B0BDC046E3
:10D6D00050CE0610B0B588B000AF78600C257B192D
:10D6E000074A13CA13C303CA03C37B687A1913CA50
:10D6F00013C303CA03C37868BD4608B0B0BDC046B3
:10D7000064CE0610B0B58AB000AF78600C257B19E6
:10D71000094A13CA13C313CA13C312681A607B6879
:10D720007A1913CA13C313CA13C312681A6078682C
:10D73000BD460AB0B0BDC04678CE061080B500AF79
:10D74000034B1800FFF7DAFCC046BD4680BDC0465B
:10D75000801A060080B582B000AF78607B68002B2D
:10D7600002D07B6846221A60024B1800BD4602B008
:10D7700080BDC046ECDB061080B500AF03F06CF84E
:10D78000C046BD4680BD000080B500AF034B180009
:10D7900003F0B4FC03001800BD4680BD1CEF002060
:10D7A00080B582B000AF78603960054A3968786822
:10D7B00009230DF047FB03001800BD4602B080BDF1
:10D7C00098DB061090B583B000AFFC1D094B180024
:10D7D00042F024FA03002370FB1D1B78002B03D0BA
:10D7E000054B18004DF058FCFB1D1B781800BD467A
:10D7F00003B090BD64E10610B4DB061080B500AF45
:10D80000014B1800BD4680BDC4E1061080B500AFD5
:10D8100000231800BD4680BD90B583B000AFFC1D4D
:10D82000054B180042F016F903002370FB1D1B780E
:10D830001800BD4603B090BD1CE2061080B582B052
:10D8400000AF0200FB1D1A70BB1D0A1C1A70FB1DE5
:10D850001B780C2B05D006DC092B06D00A2B06D032
:10D8600001E0C04604E0C04602E0C04600E0C04619
:10D87000C046BD4602B080BD80B500AF094B180060
:10D880004EF084FC03001A0001235340DBB2002B4E
:10D8900001D0002302E04EF0EFFC01231800BD464A
:10D8A00080BDC04668E20610F0B593B000AF786165
:10D8B000A74B18004DF0F0FB03F0E0FB03003B64C6
:10D8C0003B6CA122920094466344FB6353F014F92D
:10D8D0000300BB639F4B1B68BA6BD21AFA239B00F1
:10D8E0009A4206D39B4BBA6B1A609B4B180042F0CE
:10D8F0002FF901210C2041F0A5FE53F0FDF80300A3
:10D900007B63232310229B18DE1943F0A5F8030044
:10D910003370232310229B18DB191B78012B28D18D
:10D920008E4B1B687A6BD31A1C0000231D00FA2251
:10D9300092000023200029000BF092FC02000B0053
:10D9400010001900FA22920000230BF0BFF8020029
:10D950000B0013007B62FB6B1B891A007B6A9342EE
:10D9600000D27FE004204FF097F97C4B7A6B1A606D
:10D9700078E0232310229B18DB191B78062B36D165
:10D98000774B1B78062B0AD005204FF085F9754B95
:10D990007A6B1A60744B18004DF07EFB62E0714B9D
:10D9A0001B687A6BD31ABB600023FB60FA229200DB
:10D9B0000023B868F9680BF053FC02000B0010005C
:10D9C0001900FA22920000230BF080F802000B00ED
:10D9D0001300BB62FB6B1B8A1A00BB6A934241D3E4
:10D9E00005204FF059F95F4B7A6B1A603AE0232318
:10D9F00010229B18DB191B780A2B33D1584B1B784C
:10DA00000A2B0AD003204FF047F9584B7A6B1A6063
:10DA1000574B18004DF040FB24E0544B1B687A6BC9
:10DA2000D31A3B6000237B60FA22920000233868FF
:10DA300079680BF015FC02000B0010001900FA22A7
:10DA4000920000230BF042F802000B001300FB626F
:10DA5000FB6A484A934205D903204FF01DF9434B16
:10DA60007A6B1A603E4B232210215218D219127879
:10DA70001A7042F023F803003B623F4B1B780122EF
:10DA80005340DBB2002B12D03B6A002B0CD03B6A18
:10DA90005B68002B02D03B6A5B6800E0374B384A7A
:10DAA000190010004DF0F8FA334B01221A703B6A4E
:10DAB000002B48D03B6A9B68002B44D037211020B4
:10DAC0000B18DB1900221A703B6A9B68DB68002B7D
:10DAD00007D03B6A9B68DB680A18D6199847030091
