:020000041000EA
:1080000000B5324B2120586098680221884398605F
:10801000D860186158612E4B002199600221596186
:108020000121F02299502B491960012199603520D6
:1080300000F044F80222904214D00621196600F0A4
:1080400034F8196E01211966002018661A6600F0CE
:108050002CF8196E196E196E052000F02FF8012109
:108060000842F9D1002199601B491960002159602B
:108070001A491B48016001219960EB211966A02172
:10808000196600F012F80021996016491448016041
:108090000121996001BC002800D000471248134913
:1080A000086003C880F30888084703B5996A04206C
:1080B0000142FBD001200142F8D103BD02B5186690
:1080C0001866FFF7F2FF186E186E02BD000002403E
:1080D000000000180000070000035F0021220000DC
:1080E000F4000018222000A00001001008ED00E0BC
:1080F00000000000000000000000000074B24E7A92
:1081000000200420F7810010CB810010CD810010E9
:10811000C9810010C9810010C9810010C9810010F7
:10812000C9810010C9810010C981001099C40510CF
:10813000C9810010C9810010C5C3051015C50510FF
:10814000C1810010C1810010C1810010C1810010E7
:10815000C1810010C1810010C1810010C1810010D7
:10816000C1810010C1810010C1810010C1810010C7
:10817000C1810010C1810010C1810010C1810010B7
:10818000C1810010C1810010C1810010C1810010A7
:10819000C1810010C1810010C1810010C181001097
:1081A000C1810010C1810010C1810010C181001087
:1081B000C1810010C1810010C1810010C181001077
:1081C000EFF30580103800BE00BE00BE00BE00BE4A
:1081D00000BE00BEF2EB887134C10D1064C10D10F9
:1081E0003882001090A31AE71E481F49086006C88D
:1081F00081F3088810471D480068002801D01948FD
:10820000F3E70DA40ECC002902D000F012F8F9E734
:108210001749184A002000E001C19142FCD11649DB
:108220008847164988471649884700BEFDE701C9B7
:1082300001C29A42FBD3704764C10D10C0000020F8
:10824000401B0020E4DB0D1000000420000004208F
:10825000E4DB0D10001004200010042000000000DA
:10826000704700000000000008ED00E0000000D0B2
:10827000401B0020CCC1022019620110D5820010E1
:10828000D9610110F8B5C04606480749091A8B1094
:10829000C90FC91810B5491003D0044B002B00D0EA
:1082A000984710BD401B0020401B0020000000002C
:1082B000054B10B5002B03D00449054800E000BF72
:1082C000FFF7E2FF10BDC04600000000348C022022
:1082D00000A7061010B510F083FF0021002010F059
:1082E0006FFAFA20800009F0DBFD06200AF016FD87
:1082F000D02340221B065A620C485A610EF056F9F0
:108300000B480EF053F906F0B1F956F0F1FA0948AE
:108310000EF04CF902F0D6FF322009F0C1FD02F058
:10832000D7FF322009F0BCFDF4E7C04600A70610D5
:108330001CA706103CA706100B4B70B51A6801323B
:108340001A600A4B53430522D341094A934200D98C
:1083500070BDD02480252406AD0400210548656148
:1083600009F0BEFEA561F3E75C8B02203961C268AB
:108370008D21000050C3000072B6FEE770B5050005
:108380000B480C000EF012F929000A480EF092F981
:10839000002C08D0210008480EF08CF907480EF098
:1083A00005F972B6FEE706480EF000F9F6E7C0469A
:1083B00058A706107CA7061090A70610B4A70610B1
:1083C000A0A7061000487047D07F071000487047EC
:1083D0006C7F071070B5002800D173E0032852D1DC
:1083E000414D1121280010F03BFD28005BF092FB6D
:1083F000002800D175E03D4C2B786380012839D0EE
:108400006B78A380022835D0AB78E380032831D085
:10841000EB78238104282DD02B796381052829D07E
:108420006B79A381062825D0AB79E381072821D079
:10843000EB79238208281DD02B7A6382092819D072
:108440006B7AA3820A2815D0AB7AE3820B2811D06D
:10845000EB7A23830C280DD02B7B63830D2809D066
:108460006B7BA3830E2805D0AB7BE383102801D15F
:10847000EB7B2384C023013040009B0003439BB26D
:108480002380200070BD052829D8194B8000C458CE
:10849000002CF6D020005BF03DFB050020281CD806
:1084A000002807D00023134AE15C01331180023217
:1084B0009D42F9D8C02301356D009B002B430B4C26
:1084C0009BB2DDE70B4C0A4B2000196802220CF02E
:1084D00055F9C123023C9B00D2E72025E0E70024A8
:1084E000CFE7054B014CCBE728580020B0650220B0
:1084F00008120020B26502200203000010B556F0F9
:1085000061FB10BDF0B5DE4657464E464546E0B528
:1085100085B006F01FFDAC234F4E5B000400C05831
:1085200033684E4F98426AD04D4B98464D4B994612
:108530004D4B9A464D4D2B689B46002B44D028F05E
:10854000F1FC02AB187002040002120E000E5A7009
:10855000987000225846029919F04CFFFF212868B4
:10856000002219F057FFAE222B685200A058934604
:10857000019328F0D7FC03AB187002040002120E1E
:10858000000E5A70987000220399019819F04CFF60
:10859000B0235B00E15C2868002219F05FFF6223D2
:1085A000FF33E15C2868002219F062FF286800228E
:1085B0000121AC2519F048FF5B466D00E258615976
:1085C0002B4851F0DBFF6059AE235B00E358424675
:1085D0003B60B02330605B00E35C137062234A466B
:1085E000FF33E35C1370B22352465B00E358136021
:1085F00005B0F0BCBB46B246A946A046F0BDAE23CE
:108600005B00E2583B689A4200D08DE7144B9846D5
:10861000B0235B00E25C43461B789A4204D0114BC6
:108620009946114B9A4685E70E4B99466223FF33D4
:10863000E25C4B461B789A4202D00B4B9A4679E794
:10864000094B9A46B2235B00E25853461B689A4294
:1086500000D06FE7CCE7C046341200203012002073
:1086600029120020281200202C120020705900200E
:1086700014A80610F0B5DE464E4657464546E0B50E
:10868000EC48CBB051F07AFF4AF052FDEA4851F085
:1086900075FF012054F094FEE84E3060002801D1AF
:1086A00001F055FAE64851F069FF4AF00BFD6920E8
:1086B00056F088FAE34851F061FF322056F082FA12
:1086C000E14851F05BFF26F0F5F8E04851F056FF25
:1086D000DF482FF057FBDF4851F050FFA022F02178
:1086E0005200DD4851F04AFFA021DC4AF020009200
:1086F000DB4B0322490022F01DFCDA4C20600028ED
:1087000001D101F0EAF8D84851F038FF0021206883
:108710001DF000FCD54851F031FFE121D44889011A
:1087200051F02CFF002320680093E12300229B01DD
:10873000D0491CF055FFD04851F020FFCF4851F0F0
:108740001DFF11F0DDF8CE4851F018FF06F002FCD5
:108750000500CC4851F012FFFFF7D4FECA4B186851
:108760000A93002804D029001631FF3135F05EFF4E
:1087700006F0F0FB0A9A03001068002809D0B42222
:1087800052009B5C0121002B01D101F0EEF812F0A8
:1087900009F8BE4851F0F2FE00204AF0A7FC4AF06A
:1087A000BFFD20681CF060FE0400B948210051F0B4
:1087B000E5FE04E02BF016FB052056F003FA4AF024
:1087C000A9FDA042F6D3642056F0FCF94AF0A2FDC0
:1087D000B04B0100180051F0D1FEAF4851F0CEFE71
:1087E0000024200005344AF081FCE4B21E2056F03B
:1087F000E9F9692CF5D164204AF078FCA74851F0DA
:10880000BDFEA74851F0BAFE56F016FA419056F058
:1088100013FAA44BA44D18600893A44BFA2798466A
:108820001860A34B44469A46A24BBF000293A24B4A
:108830001F93A24B0E93A24B2093A24B1E93A24BCD
:108840001A93A24B2593A24B2693A24B2B93A24B98
:108850000C93A24B1D93A24B1793A24B1993A24BBF
:108860002393A24B2193A24B2493A24B2793A24B79
:108870002A93A24B2993A24B2D93A24B2E93A24B4A
:108880002F93A24B3093A24B3193A24B3293A24B26
:108890002C93A24B3393A24B3493A24B3593A24B10
:1088A0003693A24B3A93A24B3793A24B3893A24BE9
:1088B0003993A24B0D93A24B1593A24B1493A24B49
:1088C0001393A24B0F93A24B2893A24B1B93A24B43
:1088D0003B93A24B1093A24B1693A24B1193A24B26
:1088E0001293A24B0493A24B9B4656F0A5F9534614
:1088F0001B68C31ABB4223D20121032005F0D2FE1C
:1089000056F09AF9804606F025FB42462368D31AB2
:10891000842252008258934218D2FA2130684900CA
:1089200054F012FF8046012800D123E10A2056F0BE
:1089300049F956F081F953461B68C31ABB42DBD391
:108940005346186002984AF045FBD5E743460A2192
:108950003068236054F0F8FE0128DED1FFF7D2FD25
:1089600006F0F8FA0023AB7799462733C35C8046BC
:10897000002B01D000F034FD28234246D35C002BAD
:1089800001D000F01EFD29234246D35C002B01D00C
:1089900000F008FD2A234246D35C002B01D000F0F2
:1089A000F2FC2B234246D35C002B01D000F0DCFC10
:1089B0002C234246D35C002B01D000F0C4FCAB7FDB
:1089C0005A1E93416B774AF02BFF06904BF01AFC2E
:1089D00081460B904CF0C8F84B460590012B00D116
:1089E000D2E1033B5A425341DBB207930023099380
:1089F00002F0B6F9039056F01FF96B7A8046002B0F
:108A000000D1F2E0039B002B01D100F0F8FC2B78A1
:108A1000002B00D067E1079A002A01D100F08FFEF9
:108A200040222B742B720123AB542B7003239846E6
:108A300000E1C046ACA80610E4A80610148C022081
:108A400058A9061080A9061098A90610BCA90610FE
:108A5000FD840010D4A90610FCA90610DD31051014
:108A600065310510E48B022058AA061084AA06106E
:108A7000BCAA0610401B0020F0AA061014AB06107A
:108A800030AB061048AB06109859002078AB0610A2
:108A9000A8AB0610E0AB061014AC061034AC061000
:108AA00068AC061054B50220C0B702209C8B02208F
:108AB0000C6602209CAC0610E47F07103C120020DC
:108AC000FC4C07107C8B022058A8061064A80610E6
:108AD00070A806107CA806109C59002024120020C3
:108AE000A08B0220CBC10220A0AC0610606E022039
:108AF000A4AC061090A80610D47A0710AAC10220D0
:108B0000C0C10220D88B0220BFC10220D48B02201A
:108B1000C1C10220DC8B022084A80610BEC1022045
:108B2000D08B0220BCC10220C88B0220A4A8061052
:108B3000BDC10220CC8B022098A8061080590020CD
:108B4000A9C10220381200207459002020120020F0
:108B5000ACAC06109C690220B4AC06107859002019
:108B6000A8C1022084590020A7C10220BBC1022055
:108B70007C6E022005202FF083F806F0EBF9049BB1
:108B80001B78002B0CD1FA21FC33C05889000AF065
:108B900097FD5A461368834202D34246049B1A70DB
:108BA0002BF020F9804656F047F8FA21089B8900FF
:108BB0001B68C01A0AF084FD5B4600221860002181
:108BC0000023306854F012FB4346642B07D841461B
:108BD000052900D2052141A855F0A2FF85E606F03F
:108BE000B9F9F823C3589846F1E7039A2B7C6A72C7
:108BF000002B09D0002A71D14246EB68D31A674A8C
:108C0000934201D900F00CFD2B78002B01D100F02C
:108C100007FC079B002B6AD0039B002B00D005E7C5
:108C20004B460022013BDBB29046032B02D81F9A31
:108C3000D35C98460E9B1B78434503D14023EB5CE5
:108C4000002B15D006F086F90A9A03001068002858
:108C50000BD0424652019B186933FF331B78012128
:108C6000002B00D1E9E311F09DFD42460E9B1A70E6
:108C700006F070F90A9B1B68002B13D04B46012BA2
:108C800001D100F0A6FC2B7A002B0BD13623FF3349
:108C90009846804441461E985AF0F0FE002801D0C4
:108CA00000F0D2FD059B0B2B00D17DE04B46023B33
:108CB000DBB2012B0DD9059B062B01D100F0B2FDD3
:108CC00001D900F0B1FC013BDBB2032B01D900F06C
:108CD00048FF01231C931A9B189369E02B78002B03
:108CE00001D100F061FE079B002B00D09EE64346B9
:108CF0006B6001232B7200232B7006F02BF9424688
:108D00006B68D31A8022520082589A4284D806F0A7
:108D100021F90A9A03001068002809D0B4225200F1
:108D20009B5C0121002B01D100F09DFF11F03AFD69
:108D300006F010F93622FF3290460A9B80441B68E9
:108D4000002B03D04146180035F070FC0B22414641
:108D5000134859F0E9FB0023382212498B54CB63A6
:108D60000B7206F0F7F80A9A03001068002800D189
:108D700027E1B42252009B5C0121002B01D100F0BD
:108D80006EFF11F00FFD1CE1069B002B00D182E36A
:108D9000EB630123099307932AE6C046871300007B
:108DA000EDB70220C0B7022001231C93209B18932B
:108DB0000C9B1B689846002B2CD04022059B0399E6
:108DC000013BAA5CDBB2002900D1E9E1002A00D115
:108DD000FEE001221D9952420A60002217990A7092
:108DE000199901320A70032B00D9F7E001F068FFEE
:108DF0000C9B1B6898461A9917985AF03FFE00285A
:108E000001D000F05BFC0121404611F057FD002825
:108E100000D021E1069B002B00D126E1069B98465D
:108E20000D9B1868002845D0159B039A1B78002AD3
:108E300000D01BE2079A002A00D017E2032B00D1D2
:108E40002DE10123149A5B421360159A04331370C9
:108E5000099B002B00D132E1069B002B00D12EE1B3
:108E6000012111F02BFD002801D000F048FE4346FF
:108E7000002B00D198E3149A136898451AD0434602
:108E8000FA2113608900884501D200F09BFEC04B97
:108E9000984501D800F0E6FD40460AF011FC10218B
:108EA0000300249A1B980DF0D9F80D9B1B991868A4
:108EB00035F0BCFB139B1B68002B10D00F9B1B686D
:108EC00098464023EB5C002B00D0C7E2079B002BA9
:108ED00000D019E24B46002B01D100F03AFC109B68
:108EE0001B689846002B1CD04023EB5C002B00D065
:108EF00021E1169B099A1B78002A00D100E3069A0B
:108F0000002A01D100F015FCA2498A4200D8A2E350
:108F1000A1498A4201D900F023FD022B01D000F0C3
:108F200061FC119B1B689846002B47D04023EB5CEB
:108F3000002B02D00023129A13706B7F002B0DD1EF
:108F40004B46002B00D17BE2012B01D100F009FC44
:108F5000023BDBB2022B01D900F011FC55F06CFE94
:108F6000AB69C31AF92B24D901222B7FA861534086
:108F7000119A2B771168884600D170E3FF20000416
:108F800027F0D0FF3AAB1873030400023AA91B0E76
:108F9000000E88734B73002240463D9919F02AFA5F
:108FA000119A0121106811F089FC002801D000F00D
:108FB00099FD02230B93129B0B9A1A7040230022F7
:108FC000EA54002300220021306854F00FF9A4E491
:108FD000012219990A70032B00D807E74B46022B90
:108FE00000D103E74B46032B00D1FFE601F068FEFA
:108FF000002800D1FDE001F063FE22906421229858
:109000000AF05EFB1D9A80461368984201D100F079
:1090100054FC10600A210AF053FB5D4B229A189011
:109020009A4201D900F0B7FD0A2140460AF048FBF8
:10903000189B0091239A102121980DF00FF80C9B9A
:109040002199186835F0F2FA0C9B0121186811F08B
:1090500035FC002800D1DDE60C9B0121186811F0D9
:10906000A1FB069B002B00D0D8E6EB6B9846002BAB
:1090700012D0059B072B00D8E8E20B2B00D1CFE6DE
:109080002B7C002B00D0CBE6039B002B00D0C7E647
:109090002B7A002B00D0C3E600239846C0E640326E
:1090A000AA5C002A01D100F03FFC0122149952422F
:1090B0000A60159A1370099B002B00D011E34B46F0
:1090C000002B03D12B7C002B00D1D5E2012111F024
:1090D000F5FB0D9A031E106800D0D1E2012111F0BA
:1090E000EDFB002801D000F044FC099B002B00D0D0
:1090F000BDE6059A112A04D8284BD340DB0700D5DA
:10910000B5E62B7C002B00D0B1E62B7A002B00D0EB
:10911000ADE64B46002B00D0CCE6149A1368023320
:1091200000D1C7E602235B4213600D9B3B99186890
:1091300035F07CFABEE60023169A1370099B002BCB
:1091400000D1AEE1069B002B00D1E6E21A00114BE4
:109150009A4200D9B0E1CC20000427F0E3FE3AABFC
:109160001876030400021B0E3AAA000E537690767E
:1091700040994046002219F03DF9109B01211868E2
:1091800011F09CFB002801D000F09FFC0123D2E1EC
:109190000F270000973A00001F4E0000C008020091
:1091A000297C002900D1A6E1002A00D179E2012121
:1091B0001D984942016000211798017019990A70A1
:1091C000032B00D817E64B46022B00D113E64B4683
:1091D000032B00D10FE62B7C002B00D1DBE26B6967
:1091E0002293002B00D009E7099B002B01D000F04F
:1091F00056FD6B7F002B00D03CE3299A1370059B32
:109200000B2B01D100F0E5FC072B01D100F0FFFC96
:10921000062B01D100F07AFC4B46002B01D000F068
:1092200026FD2B7C002B01D100F009FD279B189314
:10923000099B002B01D100F002FD189917985AF0F4
:109240001DFC002800D138E30C9B1868189B984639
:10925000190035F0EBF9179B414698460F2218008C
:1092600059F062F900234246D37326E3022B00D162
:10927000DEE20123149A5B421360159A03331370E4
:10928000099B002B03D0069B002B00D02DE2039BF3
:10929000002B00D113E7012111F010FB002800D0B2
:1092A000E2E2079B002B00D148E1149B1B68434579
:1092B0001AD04246FA21149B89001A60884501D2CF
:1092C00000F078FCDD4B984500D8A2E340460AF058
:1092D000F7F910210300249A1B980CF0BFFE0D9B98
:1092E0001B99186835F0A2F9139B1B68002B00D15D
:1092F000F5E50F9B1B6898464023EB5C002B03D0E1
:1093000001230F9A5B4213604AF0CEFA0F9B011EB5
:109310001B68189309D06420069B58430AF0D0F9C3
:10932000642800DC8AE264239846189B984500D1A3
:10933000D5E5139B00221868414630F035FC4246C3
:109340000F9B1A60CBE5052005F082FAAB7F012860
:1093500001D1FFF735FB05215A1CD2B2EB18D977A2
:10936000AA771300FFF72CFB042005F071FA0128FF
:1093700001D1FFF71DFBAB7F5A1CAA770422EB1823
:10938000DA77FFF715FB032005F062FA012801D117
:10939000FFF707FBAB7F5A1CAA770322EB18DA779B
:1093A000FFF7FFFA022005F053FA012801D1FFF779
:1093B000F1FAAB7F5A1CAA770222EB18DA77FFF793
:1093C000E9FA012005F044FA012801D1FFF7DBFAA0
:1093D000AB7F5A1CAA770122EB18DA77FFF7D3FA92
:1093E000002005F035FA012801D1FFF7C5FAAB7F5F
:1093F0005A1CAA774A46EB18DA77FFF7BDFA012321
:10940000E8602B7401F05CFC039B68616B722B7C41
:10941000002B01D0FFF7F0FB2B78002B00D0BCE233
:10942000079B002B00D1CCE0002340222B742B7231
:109430000133AB542B70FFF7EFFB11F067F914E425
:10944000129B1B78002B06D00121404611F036FA02
:10945000002800D14DE300230B93ACE501230F9AC4
:109460005B421360079B002B00D04DE74B46002B5F
:109470000DD12B7C002B0AD101235B4218932B7A50
:109480005A1E934142465B421A4090464DE70123E3
:109490005B42189349E70023099301330793FFF7D1
:1094A000A7FA039B002B3ED0069A002A00D190E138
:1094B000634B9A4200D84EE6624B9A4200D891E143
:1094C000614827F02FFD3AAB1874030400021B0E0D
:1094D0003AAA000E537490743E994046002218F048
:1094E00089FF109B0121186811F0E8F9002800D0CD
:1094F000E4E203231FE0002A00D1CDE0002256E67B
:10950000039A002A00D0FCE04A46002A00D084E1F9
:109510002A7C002A00D080E12A7A002A00D07CE14F
:10952000042B00D1FDE40121404611F0C7F90028C9
:1095300000D1D1E20423169A1370F2E42B7A002BA7
:1095400002D0E86B002801D101F0ECFB149B1B68F2
:10955000834217D0FA21149B89001860884200D2F8
:1095600021E3364B984200D868E20AF0A9F81021AE
:109570000300249A1B980CF071FD0D9B1B99186831
:1095800035F054F8139B1B68002B00D1A7E40F9B08
:109590001B6898464023EB5C002B00D1B0E101230F
:1095A0000F9A5B42136061E74B46002B00D081E4C9
:1095B0002B7C002B00D07DE42B7A002B00D079E4AB
:1095C000ABE52B702B7A002B01D0FFF796FBFFF752
:1095D00023FB0C2142A84BF073FB002800D0CFE105
:1095E000059B0B2B01D1FFF7DFFB062B00D119E107
:1095F00000D905E3013BDBB2032B01D8FFF769FB80
:10960000069B002B00D099E20C9B1B689846002B10
:1096100000D12AE501231C9300231893FFF7CDFB0B
:1096200000232B74FFF7F0FA072B00D0A5E20123EB
:109630001C93259B1893FFF7BBFBC0460F27000028
:10964000973A00001F4E00000A820500052B01D941
:10965000FFF7E6FB14E5012B00D162E47BE5012175
:10966000404611F02BF9002800D0A2E4119B012103
:10967000186811F04BF89CE42B7A002B00D025E5FC
:10968000012111F01BF9002800D02EE50D9B0121CE
:10969000186811F03BF828E519990978002900D0DD
:1096A00085E5199A1170032B00D98CE51A99179842
:1096B0005AF0E4F9002801D1FFF7A5FB40461A99BA
:1096C00034F0B4FF179B0F22984618001A9958F0EF
:1096D0002BFF00234246D3730C9B1B689846FFF771
:1096E00092FB069B002B00D1E9E4012111F0E6F882
:1096F000002800D029E1039B002B00D0D1E5FFF723
:10970000B6FB06990A1E01D0FFF7FEFBEA6BE4499F
:109710008A4201D9FFF7FCFB9DE7039B002B58D140
:109720004B46002B00D0FEE62B7C002B00D0FAE647
:10973000F2E6039A002A00D1E6E6EA6BE7E72B7A25
:109740002A70002B01D0FFF7D8FA03239846FFF7C1
:1097500071FA2B7C002B01D0FFF7C1FB4346189315
:109760008DE6099B002B00D02BE1069B002B01D13D
:10977000FFF7F4FB059B112B01D1FFF7EFFB129BC9
:10978000079A1B780B93002A00D15BE6022B00D0CE
:1097900011E4FFF7E3FB099B002B00D129E5069BB1
:1097A000002B00D125E5279917985AF067F9002872
:1097B00000D0C6E20121404611F080F8002801D116
:1097C000FFF72CFB0C9B0121186810F0EBFFFFF753
:1097D00025FBEB6BB24A934200D8BCE4B14A9342FA
:1097E00000D96DE6B04827F09DFB3AAB187503042D
:1097F00000021B0E3AAA000E537590753F99404621
:10980000002218F0F7FD109B0121186811F056F89E
:10981000002800D03CE102238DE6002B01D0FFF7A9
:1098200080FB80E601231C93269B1893FFF7C0FA68
:109830003E33EB5C002B00D122E51AE5C343020066
:10984000DB171A40904670E51E9B414698461F2242
:10985000180058F069FE00234146CB770A9B186830
:1098600034F0E4FEFFF71EFA0D9B0121186810F09A
:1098700099FF16E555F0E0F92C23FA21AA6AEB5C72
:10988000821AC9008A4209D30133DAB2AB7F93420C
:1098900000D8D8E113002C21A8626A54EB18D87FB5
:1098A00004F0E0FF202103002A9A42A80CF0D6FB26
:1098B0000C9B42A9186834F0B9FE0C9B0121186872
:1098C00010F0FCFF002801D1FFF7A4FA0C9B012146
:1098D000186810F067FFFFF7C4FB744850F04EFEA5
:1098E000734850F04BFE306854F0ECF8002054F010
:1098F000CFFD4BB0F0BCBB46B246A946A046F0BD7A
:109900004B46002B01D0FFF7EAFA2B7C002B01D04D
:10991000FFF7E5FA2B7A002B01D0FFF7E0FA434678
:1099200018930023984600E5099B002B01D1FFF70F
:10993000C6FB069B002B01D1FFF7C1FB012110F0F4
:10994000BDFF002801D1FFF792FA0D9B0121186895
:1099500010F028FF039B002B00D0A2E4FFF7C5FB0B
:10996000032B01D1FFF7DDFAAAE510F0CFFEFEF7D9
:1099700010FF0D9B0121186810F014FFFFF7B5FBD5
:109980000B2242A94B4858F0CFFD382300224A4908
:10999000CA54484B9846FFF77DF9079B002B01D02E
:1099A000FFF73EF9FFF7A3F9079A002A01D0FFF766
:1099B00037F82B7A2A70002B01D0FFF79EF9FFF7BA
:1099C00035F8129B1B78012B01D1FFF7F4FAFF2029
:1099D000000227F0A7FA3AAB1872030400021B0E2C
:1099E0003AAA000E537290723C994046002218F039
:1099F00001FD119B0121186810F060FF002801D1C2
:109A0000FFF7D9FA119B0121186810F0CBFEFFF780
:109A1000D2FA6421404609F053FE0A21804609F03B
:109A20004FFE0A211890404609F04AFE189B00910B
:109A3000239A10211B980CF011FB50E4642109F0CB
:109A40003FFE0A21804609F03BFE0A21189040465D
:109A500009F036FE189B0091239A10211B980CF0F8
:109A6000FDFA8AE56421404609F02AFE0A21804673
:109A700009F026FE0A211890404609F021FE189BA5
:109A80000091239A10211B980CF0E8FAFFF70DFAC9
:109A9000109B0121186810F085FE02234BE5C0469B
:109AA000973A00001F4E00000099FF0030AA0610F0
:109AB00028A90610EDB70220C0B70220109B012193
:109AC000186810F06FFE032335E5109B012118681C
:109AD00010F068FE01232EE5109B0121186810F09C
:109AE00015FE27E5119B0121186810F05BFEFFF7BA
:109AF00060FA119B0121186810F008FEABE40D9B81
:109B00000121186810F04EFEFFF7B1F955F094F8F6
:109B10003299319B0A68FA211B78821AC9008A425D
:109B200005D3012232995340319A13700860002BFB
:109B300000D1BDE02C9B1893FFF77FFB099B002B06
:109B400000D183E000231C931893FFF731F9944868
:109B500050F014FD934850F011FD002054F098FC93
:109B6000C7E64B46002B77D12B7C002BE6D1012397
:109B70001C932B9B1893FFF71BF94B46002BF3D03C
:109B8000012B40D04B46042BD8D101231C9300233A
:109B90001893FFF70DF903001021249A21980CF077
:109BA0005DFAFFF74CFA03001021289A1B980CF07D
:109BB00055FAE2E443461021289A1B980CF04EFA1D
:109BC000FFF78DFB1021289A1B980CF047FAFFF73E
:109BD0006CF955F031F82E992D9B0A68FA211B7803
:109BE000821AC9008A4205D301222E9953402D9A28
:109BF00008601370002B9DD1209B1893FFF71DFB6D
:109C0000072B00D113E5059B112BBED0F8E455F0CE
:109C100013F830992F9B0A68FA211B78821AC90021
:109C20008A4205D30122309953402F9A086013705D
:109C3000002B00D07EE7259B1893FFF7FEFA2B9BA5
:109C40001893FFF7FAFA0023002224E62B7C1C93DA
:109C500000231893FFF7ACF8012B93D1D0E410F058
:109C600055FDFFF7AEF910F051FDFFF761F8012B3C
:109C700022D1059B112B49D154F0DEFF3499339B3F
:109C80000A68FA211B78821AC9008A4200D24EE77C
:109C9000012234995340339A1370086047E7069BBA
:109CA000002B01D1FFF7A5FA0C9B1B6898467AE5BB
:109CB000269B1893FFF7C1FA042B54D0099B002B65
:109CC00069D12B7C002B02D11C9B002B04D0189B4C
:109CD000002B01D0FFF7B1FA0C9B0121186810F09E
:109CE000EDFD00280CD0069B002B01D0FFF796F865
:109CF000EB6B9846002B01D0FFF7C2F9FFF7CCF9C8
:109D00000C9B0121186810F001FDECE7069B002B6D
:109D1000D4D154F091FF3899379B0A68FA211B7807
:109D2000821AC9008A4205D3012238995340379AD2
:109D300008601370002B00D0FCE6399B1893FFF7E6
:109D40007CFA4046279934F071FC179B0F22984605
:109D50001800279958F0E8FB00234246D3730C9B68
:109D60001B68984626E554F067FF3699359B0A68CC
:109D7000FA211B78821AC9008A4205D3012236993A
:109D80005340359A08601370002B00D0D2E63A9BFE
:109D90001893FFF752FA279B1893FFF74EFAC04625
:109DA000FCA8061028A9061000B50A4B83B01A6853
:109DB000002A04D0084850F0E1FB03B000BD019335
:109DC000F02201230549009392000023044854F037
:109DD0004DFBF2E7088C0220BCAC0610D8AC061094
:109DE00075860010014B18687047C046088C022029
:109DF000002070470A4B10B51B78002B01D00020C3
:109E000010BD4AF035FD0028F9D0427803781202DF
:109E10001A438378C0781B04134300061843EFE706
:109E2000A1C10220F0B504000E0089B000280ED1B7
:109E30004AF01EFD002843D0437802781B021343EA
:109E4000827812041A43C3781B06134338D02E4B72
:109E50006F461C702D4B1E6054F0EEFE0122002355
:109E60002B4D2C492A720A702B4AEB6010602B4A4A
:109E7000286013602A4A686013602A4A13702A4BCC
:109E80001B78002B32D154F0D7FE284B18603800D5
:109E900001F028FB012319007A699140D0221206B3
:109EA0005161AB72002C0FD0002E04D1204850F02D
:109EB00065FB09B0F0BD31001E4850F05FFBF8E7CC
:109EC0001D4850F05BFBF4E74AF0D2FC002819D0A3
:109ED0004278037812021A438378C1781B04134333
:109EE00009061943154850F049FBE2E76946144852
:109EF00051F0F8F80028C6D1039B124A1360124AA9
:109F00001360C0E70021EDE7A1C102204C870220C9
:109F1000505500209EC10220C8840220D88402200F
:109F2000108402209DC102209FC10220CC84022007
:109F300064AD061014AD0610E4AC0610B0AD06100A
:109F40001884022014840220D084022010B548F026
:109F50005DFA10BD014B187A7047C046505500207D
:109F6000F0B5C64600B588B00500684601F0BAFAFB
:109F70000123059A254C9340D022120693610023B9
:109F8000234AA37223721370224B1B78002B24D117
:109F9000214E00203778002F2ED1204BE2689846C2
:109FA0001B68002B12D129001D4850F0E7FA00234E
:109FB0001C4A337013601C4AA37213701B4A13604F
:109FC0001B4A137008B080BCB846F0BD2900194880
:109FD00050F0D4FA43461F60E9E76946164851F04D
:109FE00081F80028D4D1154B039819680AF077FA44
:109FF000094E3778002FD0D00AF0FAFA02000B0091
:10A000000F48290050F0BAFAD1E7C0465055002059
:10A010009EC102209FC10220A1C10220D88402203B
:10A0200094AE06104C870220A2C10220D4840220E4
:10A03000A0C1022034AE061018840220148402202D
:10A04000F4AD0610F0B5DE4657464E464546E0B53F
:10A05000C148AFB050F092FAC04BC14F0193C14B11
:10A06000C14E9A46C14BC24D0393C24B0293C24BA1
:10A070009B46C24B0493C24B0A93C24B0D93C24BF7
:10A080000B93C24B0993C24B0F93C24B1393C24B1A
:10A090001993C24B1D93C24B1193C24B1693C24BE3
:10A0A0001F93C24B2393C24B2493C24B2593C24BA5
:10A0B0001893C24B1593C24B1493C24B0C93C24BD3
:10A0C0001793C24B0E93C24B2093C24B2193C24BAA
:10A0D0001093C24B1293C24B1A93C24B1B93C24BA9
:10A0E0001C93C24B0893C24B1E93C24B2293C24B8C
:10A0F0000593FA239B00994654F09EFD3B68C31AD2
:10A100004B4519D20121042004F0CCFA0022337807
:10A110009046002B37D02C78012C47D0022C00D150
:10A1200097E0002C0DD0642054F04CFD54F084FDD9
:10A130003B68C31A4B45E5D33860019848F04AFFA5
:10A14000E0E73378002B02D14346002B01D11420E5
:10A15000EAE74AF009FD052804D02B78002BE2D16C
:10A160001420E1E74FF0FCFF041E00D199E1037DCC
:10A17000002B00D195E10378032B00D1E6E150F0EC
:10A1800009F82B78EAE74AF0F5FB53461B78040000
:10A1900080468342BFD02978002865D0039850F0CC
:10A1A000EDF953461C702C78012CB7D154F044FDC6
:10A1B0005B465B688046C31A312BCED9049B1B7863
:10A1C000002B00D181E00A9826A950F08BFF0028CF
:10A1D00000D07EE0299B0D9A181C116807930AF0A5
:10A1E0007EF90B9A0690116807980AF0CFF90028BB
:10A1F00000D097E054F020FD099B19687F4B411A6D
:10A20000994270D83378002B32D0FC21069C890506
:10A21000201C0AF067F90AF0E5F95B46D8600C9B50
:10A220001868002851D00AF0B6F9011C201C0AF069
:10A23000A5F95B46002849D01B7A002B00D02CE101
:10A240005B4642465A600023089A14202B70137014
:10A250006AE74AF08FFB041E00D07EE7059850F0B5
:10A260008DF914202C705FE7029850F087F998E779
:10A270004AF0FEFA041E28D0FC21069889050AF04F
:10A2800031F90AF0AFF95B46DA68904200D9B7E0DD
:10A2900054F0D2FC109B04001B68C31A632B04D932
:10A2A0000E9B1B68002B00D027E14AF0E1FA002842
:10A2B0000BD0437802781B021343827812041A43AE
:10A2C000C3781B06134300D102E15B4642465A6045
:10A2D00043E70023069354F0AFFC099B1968474BF2
:10A2E000411A99428ED9119850F048F95B461B7A71
:10A2F000002B00D0CDE03378002B00D1F1E0159891
:10A3000050F03CF9149850F039F95B4642465A60D7
:10A310003378002B97D1089B1B78002B93D1023305
:10A320002B7000E70B9B079A1A6054F085FC099B81
:10A3300018600F9B1B78002B00D15BE7139B1B78E9
:10A34000002B00D056E7139B1D981C70199B1968B1
:10A3500050F014F94EE7C046E0AE06100CAF061000
:10A3600004660220A5C10220A1C1022018AF061078
:10A370009EC102204CAF0610505500209FC1022004
:10A380001884022014840220D0840220CC8402206D
:10A39000A2C10220A0C10220D484022080AF0610F6
:10A3A000C8AF061004B0061014B0061048B006106E
:10A3B00084B00610B8B00610F0B0061020B1061038
:10A3C00050B106104C87022078B10610D8840220C4
:10A3D00090B10610CCB10610C8840220108402206F
:10A3E000E4B1061008B2061060B206109DC102204A
:10A3F00098B20610A8B20610BCB20610B70B000047
:10A400006178237809021943A378821A1B040B434D
:10A41000E17806920906194307918A4200D906910C
:10A42000069B002B00D133E72100102226A80AF05A
:10A43000A5F9079A069C131B269326AB1B8926AA0F
:10A440000133138110004AF07BFB5B46A446D968B8
:10A450000E9A6144D9601368634413600F9B1B78A4
:10A46000002B00D114E7139B1B78002B00D10FE7C2
:10A47000199B1A68914200D20AE7209850F07EF8A2
:10A480005B461B7A002B00D13FE72198FFF768FD60
:10A490003BE71698FFF764FD2DE71798FFF760FD7F
:10A4A00033E74AF0E5F9002800D156E64378027810
:10A4B0001B021343827812041A43C3781B0613430A
:10A4C00000D14AE600210800FFF7ACFC2B7845E6F6
:10A4D0005B461B7A002B00D117E72298FFF740FD5F
:10A4E00013E749F095FE002817D13378002B00D0F0
:10A4F00005E7189850F042F807E70420012104F01E
:10A50000D1F801204AF0C2FB002837D10E9B186019
:10A51000109B1C60129B1860C7E64AF0A9F900283E
:10A520000AD0437802781B021343827812041A433C
:10A53000C3781B0613433FD00B204AF06FFB2498CF
:10A5400050F01CF8259850F019F8DEE626A84AF0DD
:10A55000E5FA002800D100E626AAE37B927A9A4227
:10A5600000D0FAE5210026A8083157F01DFE00288A
:10A5700000D0F2E520004FF00DFEEEE5129B1C68C6
:10A5800001341C6049F028F9210002001A984FF0AC
:10A59000F5FF129B1968002900D186E61B984FF041
:10A5A000EDFF0121042004F07DF849F0D9FA0028DC
:10A5B0000CD1129B186078E605204AF02FFB1F98FB
:10A5C0004FF0DCFF23984FF0D9FF9EE61C984FF028
:10A5D000D5FF0023129A1360089A0133137049F0D3
:10A5E00065FA5B461B7A002B00D18EE61E98FFF7BA
:10A5F000B7FC8AE610B54AF0BDF9002801D1042065
:10A6000010BD4AF035F90028F9D0437802781B02D2
:10A610001343827812041A43C3781B061343EED007
:10A6200000200021FFF7FEFB0020E9E7002130B504
:10A6300083B0009105004AF0C3FB041E0AD049F024
:10A64000CBF8074B010018004FF098FF01242000C1
:10A6500003B030BD290003484FF090FFF7E7C04634
:10A6600030B30610F0B2061010B5114B1C7849F04B
:10A67000CFFD104B1B78002B0ED00F4B1B7A002BFD
:10A6800010D1012C12D0022C04D0002C00D00624B2
:10A69000200010BD0524FBE74AF0EAF8064B1B7AC0
:10A6A000002BEED054F0C8FA012CECD10424EFE7D3
:10A6B0009EC10220A1C102205055002010B50A4CB5
:10A6C000206800280AD0094B1B7A002B07D153F0D1
:10A6D000DFFE0023064823604FF050FF10BD054801
:10A6E000FFF73EFC2068F2E7706E02205055002014
:10A6F00070B3061060B30610F8B5DE4657464E46F6
:10A7000045460400E0B5002853D02F4B2F4E1D784E
:10A71000337A9A4649F07CFD737A070099462C4BB0
:10A720001B78002B25D02B4B00201B68984600235C
:10A730009B46337A002B30D1012D38D0022D40D0EA
:10A74000002D38D1534663704B4623774346A361AF
:10A750005B4663600023606100201F4A2570A7707C
:10A76000A360E2602361F0BCBB46B246A946A046A6
:10A77000F8BD4AF07DF800281FD042780378120215
:10A780001A4383781B041343C27812061A43904677
:10A79000C346337A0020002BCED054F04DFAFA2174
:10A7A00033688900C01A08F08BFF012DC6D104253B
:10A7B000C8E70120D7E70625C4E700239846C3462B
:10A7C000E7E70525BEE7C0469EC1022050550020A0
:10A7D000A1C102204C870220B0AC061070B5050064
:10A7E0004AF0C8F8002813D028004AF0F3F8041EF5
:10A7F00009D048F0F1FF094B010018004FF0BEFEF0
:10A800000124200070BD290005484FF0B7FEF8E78D
:10A8100004484FF0B3FE0324F3E7C046E0B306104C
:10A82000B8B3061090B3061000B50F4B83B01A688A
:10A83000002A04D00D484FF0A1FE03B000BD0193E3
:10A84000802201230A4900930A480023520053F052
:10A850000DFE0100012803D007484FF08FFEECE702
:10A8600006484FF08BFEE8E7706E022008B4061031
:10A870000CAF061045A000102CB4061060B40610F2
:10A88000F0B5264C0500267A89B0002E41D101276B
:10A89000234B1F70234B186054F0CEF9224BE66017
:10A8A0001F70224B20601860214B60601E60214B9E
:10A8B00027721E60204B1E70204B6E461B78002BAB
:10A8C0001BD154F0B9F91E4B1860300000F00AFE9D
:10A8D0000123190072699140D02212065161A372BE
:10A8E000002D06D0290017484FF048FE002009B07F
:10A8F000F0BD15484FF042FEF8E76946134850F0A6
:10A90000F1FB0028DDD1039B114A1360114A13604B
:10A91000D7E711484FF032FE0120E8E750550020FC
:10A92000A1C102204C8702209EC10220C8840220BF
:10A93000D8840220108402209DC102209FC10220E1
:10A94000CC84022014AD061064AD061018840220D9
:10A9500014840220D084022090B40610F0B5274C55
:10A9600089B0237A002B02D1002009B0F0BD6846DF
:10A9700000F0B8FD0123059A9340D022120693619E
:10A9800000231F4AA372237213701E4B1B78002BE7
:10A990001ED100201C4D2E78002E25D11B4FE268C1
:10A9A0003B681B49002B0ED11A484FF0E7FD0023EE
:10A9B000194A2B701360194AA3721370184A136056
:10A9C000184A1370D0E718484FF0D8FD3E60EEE704
:10A9D0006946164850F086FB0028DAD1144B0398DC
:10A9E000196809F07CFDD5E709F002FE02000B00B2
:10A9F000104807494FF0C2FDD9E7C0465055002026
:10AA00009EC102209FC10220A1C10220D884022041
:10AA1000D0B4061094AE06104C870220A2C10220CA
:10AA2000D4840220A0C1022034AE06101884022073
:10AA300014840220F4AD0610F0B500260127244D41
:10AA400089B000211022280009F092FE01AC214BB0
:10AA500020001E7000F046FD3A00069B20009A4040
:10AA6000D0231B069A61AE7200F03CFD059D1A4C86
:10AA7000E9B2200050F026FC011E13D1200050F056
:10AA8000D3FA011E1FD1154B290015481F704FF036
:10AA900075FD144847F090FC011E0BD012484FF092
:10AAA0006DFD0AE011484FF069FD0E4847F084FC47
:10AAB000011EF3D10E484FF061FD0E484FF05EFDD0
:10AAC000002009B0F0BD0C484FF058FDEDE7C0463E
:10AAD000505500209EC10220188402209FC10220F0
:10AAE000E0B40610E87F0710B8B5061048B50610A8
:10AAF00078B50610F8B5061018B5061010B5FFF7B2
:10AB00009BFF002010BDC046F0B5264C0500267AFC
:10AB100089B0002E41D10127234B1F70234B1860B1
:10AB200054F08AF8224BE6601F70224B20601860B8
:10AB3000214B60601E60214B27721E60204B1E70EF
:10AB4000204B6E461B78002B1BD154F075F81E4B22
:10AB50001860300000F0C6FC0123190072699140B2
:10AB6000D02212065161A372002D06D02900174889
:10AB70004FF004FD002009B0F0BD15484FF0FEFC79
:10AB8000F8E76946134850F0ADFA0028DDD1039B81
:10AB9000114A1360114A1360D7E711484FF0EEFCD9
:10ABA0000120E8E750550020A1C102204C87022077
:10ABB0009EC10220C8840220D88402201084022072
:10ABC0009DC102209FC10220CC84022014AD06103A
:10ABD00064AD06101884022014840220D084022060
:10ABE00090B40610F0B5274C89B0237A002B02D11F
:10ABF000002009B0F0BD684600F074FC0123059AFE
:10AC00009340D0221206936100231F4AA37223723D
:10AC100013701E4B1B78002B1ED100201C4D2E786C
:10AC2000002E25D11B4FE2683B681B49002B0ED13B
:10AC30001A484FF0A3FC0023194A2B701360194ADD
:10AC4000A3721370184A1360184A1370D0E718489B
:10AC50004FF094FC3E60EEE76946164850F042FA29
:10AC60000028DAD1144B0398196809F038FCD5E7AD
:10AC700009F0BEFC02000B00104807494FF07EFCB3
:10AC8000D9E7C046505500209EC102209FC1022036
:10AC9000A1C10220D884022028B6061094AE061066
:10ACA0004C870220A2C10220D4840220A0C102202D
:10ACB00034AE06101884022014840220F4AD06106D
:10ACC000014BD8687047C0465055002000B50F4B67
:10ACD00083B01A68002A04D00D484FF04FFC03B02F
:10ACE00000BD0193802201230A4900930A480023F2
:10ACF000520053F0BBFB0100012803D007484FF07E
:10AD00003DFCECE706484FF039FCE8E7706E0220A6
:10AD100008B406100CAF061045A000102CB40610A5
:10AD200060B406100C4B10B51B78002B02D00B4BF7
:10AD3000186810BD49F09CFD00280AD042780378BD
:10AD400012021A438378C0781B0413430006184389
:10AD5000EFE70020EDE7C046A1C102204C870220AA
:10AD6000014B187A7047C0465055002070B51A4EF6
:10AD700084B030004FF002FC184D28004FF0FEFB6D
:10AD8000174918484FF0FAFB28004FF0F7FB012352
:10AD900002930023144C154A0193009320210133A0
:10ADA00020000BF05BF9210011484FF0E7FB11493F
:10ADB00011484FF0E3FB114911484FF0DFFB1149F7
:10ADC00011484FF0DBFB28004FF0D8FB30004FF06C
:10ADD000D5FB04B070BDC0466C35071068B60610D0
:10ADE00028B7061034B7061068C1022044B6061012
:10ADF00058B7061050B6061070B706105CB60610AD
:10AE000088B70610A0B70610A8B70610F0B54E46D2
:10AE10009146012257464546DE461300E0B5034001
:10AE200085B001933F4B050798463F4B6D0F9A46FF
:10AE30001B78AE002B417419A40007008B460291C9
:10AE4000A0441A425BD14B46002B02D1FA239B004F
:10AE50009946052007F062FD09F09DFB03904846E6
:10AE600009F099FB8F21C90509F053FB011C0398D8
:10AE700009F03BFBF421890509F034FB8321C90566
:10AE800009F047FB09F0AEFB284B76199C460023DE
:10AE9000274AB600644466442360B360F3603261BD
:10AEA00060602360019B002B24D1434659461B68F8
:10AEB00001264B401A4080235B0143441A60320054
:10AEC000236804219A43130080225201944664446B
:10AED0002360380007F08CFE5346AE4052461B7884
:10AEE00033431370012005B0F0BCBB46B246A946FF
:10AEF000A046F0BD029B0F4A1B049B46D5E7019B71
:10AF0000002B0CD00B049B460A4A434659461B684B
:10AF10004B401A4080235B0143441A60E2E7044A35
:10AF2000F3E7C0460C000540ACC10220000005401C
:10AF3000FFFF00000000FFFF10B5114C2368002B3D
:10AF400008D0104C2368002B0CD00F4C2368002B2A
:10AF500010D010BD012052F033FA2060094C236854
:10AF6000002BF2D1012052F02BFA2060064C23680E
:10AF7000002BEED1012052F023FA2060E9E7C04611
:10AF800050B50220548B0220588B022010B5144C6F
:10AF900001002378002B22D1124808F029F8012162
:10AFA000122007F025FE0121132007F021FE0121C8
:10AFB000102007F01DFE012008F01CFA0A4BC20207
:10AFC00018600A4B80011A40094B1343A022D20596
:10AFD000944660440361074B43600123237010BD16
:10AFE000C3C1022000C0034040120020DD7F00FFEB
:10AFF0001100080008C003400B4B10B5186800286A
:10B000000DD0FA21890052F09FFB012809D00020C1
:10B0100053F024FE054B010018004FF0AFFA00205A
:10B0200010BD0120FCE7C04650B50220C0B7061095
:10B03000054B10B51868002804D000230022002119
:10B0400052F0D4F810BDC04650B5022000B583B010
:10B050006B460122D91D087002485FF0EDFA03B07B
:10B0600000BDC04600C0034010B582B06B46DC1D79
:10B0700001000123220003485FF0A6FA207802B005
:10B0800010BDC04600C0034070B51A4D0C002B68BF
:10B09000002B01DB1F2905D80100220016485FF0B4
:10B0A000CBFA70BDA022D20594469B016344186080
:10B0B000D961114808F096F8011E0AD063011B1BE4
:10B0C0009B001B19980108F0FBFA012801D953F0E5
:10B0D00079FD0A4B80219C462A684904920162440A
:10B0E00013680B42FCD110220349CB681A42FCD1F1
:10B0F000D7E7C0464012002000C0034010000050B7
:10B1000010B513000A00010001485FF05DFA10BDA0
:10B1100000C0034010B50100014808F007F810BD59
:10B1200000C0034070B502250B4C0C4E63683560BF
:10B130002B40551EAA410138D2010243481E8141CD
:10B1400089010A43CF21246862400A4004490A6009
:10B15000044A136070BDC04600C0034004F00340C1
:10B1600000D0034004E00340F0B5C64600B5134FDD
:10B17000050038680C0090461E0082B000281AD0E6
:10B18000002918D0FA21890052F0DEFA012812D1E4
:10B190002200434629000A48009606F0D5FB00230A
:10B1A000040000220021386852F020F8200002B08C
:10B1B00080BCB846F0BD01246442F7E7548B0220FE
:10B1C000C0120020F0B5C64600B5134F0500386820
:10B1D0000C0090461E0082B000281AD0002918D01A
:10B1E000FA21890052F0B0FA012812D12200434618
:10B1F00029000A48009606F0B1FB00230400002253
:10B200000021386851F0F2FF200002B080BCB8463F
:10B21000F0BD01246442F7E7548B0220C0120020E5
:10B22000F0B54746CE4680B51D001F4B0600186896
:10B230000C001700984683B0002831D000292FD089
:10B24000002D2DD0FA21890052F07EFA012827D155
:10B25000164B0090994622003B003100484606F00C
:10B2600073FB002815DB00232A00310000934846B9
:10B270000A9B06F073FB4346040000221868002175
:10B28000002351F0B3FF200003B0C0BCB946B04664
:10B29000F0BD4346002218680021002351F0A6FFAC
:10B2A00001246442EFE7C046548B0220C012002004
:10B2B0000123D02283401206002901D05361704738
:10B2C0009361FCE7D02380221B0692045A617047E9
:10B2D000D02380221B0692049A6170477047C046B3
:10B2E00010B504001C282DD80B1C642921D8DBB212
:10B2F00018046421C01A08F0E3F9144B22071B78E4
:10B30000520F13410121194215D093009B18104A86
:10B310009B0094466344214216D00E4900041A68EB
:10B3200042400A40802149018C4663441A60012052
:10B3300010BD6423DBE7FA2281B292002000FFF700
:10B3400065FDF4E70020F3E70349E8E7ACC102201C
:10B350000C0005400000FFFFFFFF000010B52A4C65
:10B360002378002B23D12949294807F041FE0121E8
:10B37000122007F03DFC0121132007F039FC0121C8
:10B38000102007F035FC012008F034F8214BC202F0
:10B390001860214B80011A40204B1343A022D20594
:10B3A0009446604403611E4B4360012323701120C7
:10B3B00007F0B4FCD024802324069B0263620220A1
:10B3C000636107F0ABFC04230320636207F0A6FC73
:10B3D0000823144A6362127813420DD0124B134AA9
:10B3E0001B68DB431B0C1B041360D02304221B06C9
:10B3F0005A6104329A6110BDFA220D499200072069
:10B40000FFF704FDF1E7C046C3C10220A0ACB903B9
:10B4100000C0034040120020DD7F00FF1100080043
:10B4200008C00340ACC10220480005404810054058
:10B43000FFFF000010B5134C2378002B17D11249E1
:10B44000124806F059FA0321142007F0D1FB03211A
:10B45000152007F0CDFB00220121142007F0E2FBAC
:10B4600000220121152007F0DDFB012323700E20AF
:10B4700007F054FCD02380221B06D2015A625A6185
:10B4800010BDC046A3C10220801A0600C0120020D1
:10B49000020030B5034B32CB32C232CB32C212CBB8
:10B4A00012C230BD2C800710020030B5024B32CBE7
:10B4B00032C212CB12C230BD4C800710020030B530
:10B4C000024B32CB32C212CB12C230BD60800710A9
:10B4D000020030B5024B32CB32C212CB12C230BDA9
:10B4E00074800710020030B5034B32CB32C232CB2E
:10B4F00032C21B68136030BD8880071010B5144C31
:10B500002378002B17D11349134806F0F5F90321CE
:10B51000142007F06DFB0321152007F069FB0022C2
:10B520000121142007F07EFB00220121152007F0E5
:10B5300079FB01232370012007F0F0FBD0230222C6
:10B540001B069A6201210022012007F06BFB10BD4F
:10B55000A3C10220801A0600C0120020F0B5574691
:10B560004E464546DE46E0B5264B85B09946264B0D
:10B57000264E019302ABDD1D254B264F9A46264BE6
:10B580009846FA239B009B4653F056FB4B461B689C
:10B59000C31A5B4504D34B461860019847F01AFD67
:10B5A0000121072003F07EF800242A003068E1B270
:10B5B00047F0D8FA002820D12B78013B5A4253415A
:10B5C0003B550134102CF0D151463B7B09785A424F
:10B5D0005341DAB2994209D0434641461B780133C0
:10B5E000DBB20B70022B04D953461A70434600227B
:10B5F0001A70322053F0E6FAC6E70134102CD4D189
:10B60000E2E7C046F4650220ECB70610C49C0220B5
:10B61000B3C10220449D0220B2C1022070B5494C42
:10B6200086B02378002B02D0002006B070BD102217
:10B630000021454809F09CF8002047F09DF9434D52
:10B640002860002878D001AEFFF758FF3000FFF7E0
:10B650003FFF3178286847F0A1FB061E60D12378B0
:10B66000002B57D0032369462868009347F006FB58
:10B670002378002B4ED000220321286847F0F2F9EE
:10B680002378002B46D00D2369462868009347F0A5
:10B69000F5FA2378002B3DD000220D21286847F0D1
:10B6A000E1F92378002B35D00B23694628680093F5
:10B6B00047F0E4FA2378002B2CD000220B212868D5
:10B6C00047F0D0F92378002B24D0862369465B000D
:10B6D0002868009347F0D2FA2378002B1AD00A2367
:10B6E0006946FF332868009347F0C8FA2378002B97
:10B6F00010D0852369465B002868009347F0BEFAA6
:10B700002378002B06D010236946FF332868009366
:10B7100047F0B4FA01230E4823704EF02FFF83E761
:10B7200047F03EFC0B4B010018004EF027FF052EA2
:10B7300005D8094B985D78E708484EF01FFF0420B4
:10B7400073E7C046B4C10220449D0220C49C02207D
:10B7500038B8061020B80610A480071000B80610EC
:10B7600000B50D4B83B01A68002A01D003B000BDAC
:10B77000019301230949009309480023C03252F084
:10B7800075FE012803D007484EF0F8FEEEE70648A4
:10B790004EF0F4FEEAE7C046749E0220ECB70610B5
:10B7A0005DB5001088B8061060B80610084B1B780D
:10B7B000002B0AD00F2806D8002904D0054B1B5CAB
:10B7C00000200B7070470320FCE70220FAE7C04618
:10B7D000B4C10220449D022030B5104B04001B78F8
:10B7E00083B0002B16D00F2812D86B460021581DAD
:10B7F000032208F0BDFF0A4B01AD290018682C7028
:10B8000047F03CFA052807D8064B185C03B030BD5A
:10B810000320FBE70220F9E70420F7E7B4C1022088
:10B82000C49C0220A48007100D4A0300127810B5B2
:10B83000002A11D00F280DD801394A425141CAB20D
:10B8400008490868190047F00DF9052806D8064B85
:10B85000185C10BD0320FCE70220FAE70420F8E79B
:10B86000B4C10220C49C0220A480071010B5062396
:10B87000014A0AF0F3FB10BDBCB8061010B502482F
:10B8800003F078FB10BDC046F484022010B503F02D
:10B8900067F910BD002801D04623036000487047B7
:10B8A000D080071010B505484CF094FA041E01D161
:10B8B000200010BD02484EF061FEF9E7AC80071091
:10B8C000D0B8061000487047548607100020704713
:10B8D00010B5054847F070FB041E01D1200010BDD3
:10B8E00002484EF04BFEF9E748860710A0C5061047
:10B8F000002801D01023036000487047C886071055
:10B900000020704710B50C0082B0002905D06B46AE
:10B91000D91DFFF74BFF002802D0012002B010BD57
:10B920006B46DB79013B5A4253412370F6E7C04630
:10B9300010B5FFF779FF431E9841C0B210BDC04655
:10B9400010B5054847F0B0FB041E01D1200010BD22
:10B9500002484EF013FEF9E7AC860710F8C5061052
:10B96000002805D0002903D0036900200B60704730
:10B970000120FCE70020704710B5041E07D00848DE
:10B980004EF0FCFD23690020002B02D010BD0120E9
:10B99000FCE7002103484EF0F1FD0320F6E7C04626
:10B9A00024C7061050C7061070B50C0016001D0005
:10B9B00082B000280BD007484EF0E0FD0023320093
:10B9C000009320002B0049F0FBF902B070BD01206C
:10B9D000FBE7C04680C7061070B5002817D0026983
:10B9E0008A4216D3541A0461046248F0F5FB051E1E
:10B9F00008D047F0F1FE094B010018004EF0BEFDE3
:10BA0000280070BD210006484EF0B8FDF8E701257A
:10BA1000F6E704484EF0B2FD0325F1E714C806101E
:10BA2000ECC70610B4C7061000207047002070470E
:10BA300070B50C00002813D00161016248F0CCFB06
:10BA4000051E08D047F0C8FE064B010018004EF056
:10BA500095FD280070BD210003484EF08FFDF8E7EA
:10BA60000125F6E714C80610ECC7061070B5041ED1
:10BA70001BD0056941614D192A000D484EF07EFD2D
:10BA800020002561256248F0A7FB041E08D047F07E
:10BA9000A3FE084B010018004EF070FD200070BDA1
:10BAA000290005484EF06AFDF8E70124F6E7C04694
:10BAB0003CC8061014C80610ECC7061010B50A489A
:10BAC0004EF05CFD094847F033FF041E04D10848DE
:10BAD0004EF054FD200010BD47F07EFE054B0100E6
:10BAE00018004EF04BFDF5E764C806108887071074
:10BAF00094C80610C4C80610F0B52A4C8788A5441F
:10BB000005000100062268466C4608F037FE002F4B
:10BB100029D1254B3220EB5A244DE3800123AA681A
:10BB200000219340D0221206536106F0D9FA08266C
:10BB3000002020211E4A93691942FCD1237801304C
:10BB400013600134B042F6D3082219498B691A42B6
:10BB5000FCD10123AA689340D0221206936183236B
:10BB60009B009D44F0BD3E00A91D3A00A01D08F0B9
:10BB700005FE08360C4BB6B2EA5AA319991E0A7094
:10BB8000013B120A1A700123084D3220AA680021D5
:10BB90009340D0221206536106F0A2FA002EC7D1BC
:10BBA000D2E7C046F4FDFFFF0602000080690220D4
:10BBB00000400340304BF0B546469846D6464F46C7
:10BBC00081234246C0B59B00D35C84469A46002937
:10BBD00028D000258023A946284F294ADB00FB5A9C
:10BBE000BC5A020008181D0001339B0516789B0DF6
:10BBF000A34228D001327E559042F4D18022D20057
:10BC0000BB524B46002B15D15346002B0AD0802344
:10BC100042469B00D0581B4C241A8C4200D90C0081
:10BC2000002C1AD1E0BCBA46B146A846F0BD80222D
:10BC3000D200BB520122144BFA54114BFC52534612
:10BC4000002BEFD0E3E70134A4050132A40D7E55AB
:10BC50009042ECD00125A946C5E722006146404448
:10BC600008F08CFD802342469B00D258A41842461F
:10BC7000D45000231355D5E7A48D0220AC8F0220A9
:10BC800002040000FF01000004040000F0B5DE46DD
:10BC9000574645464E46E0B5C54CC648A5444EF00D
:10BCA0006DFC28ACC44D2000FFF71CFC23002A00CB
:10BCB00013CB13C213CB13C2E12101241B68490229
:10BCC0001360BE4807F09CFA002301220821BB48FC
:10BCD00007F026FB0121B94807F05EFB2100AA68A6
:10BCE000D02391401B069961E121B54849024EF0ED
:10BCF00045FC4AF0B3FEB3484EF03AFCB24B01218A
:10BD0000B2481C704EF03AFCB14BB24F0393B24BA9
:10BD1000BA460B93B14BA94C0293B14B0693B14B6E
:10BD20001B93B14B9B46B14B0893B14B0493B14B62
:10BD30000593B14B9846B14B47469946B04B0D938E
:10BD4000B04B1193B04B1293B04B1393B04B149371
:10BD5000B04B1593B04B1C93B04B1D93B04B1E933F
:10BD6000B04B1F93B04B2093B04B0E93B04B259329
:10BD7000B04B0993B04B2693B04B2793B04B16931F
:10BD8000B04B1793B04B1893B04B1993B04B1A9319
:10BD9000B04B2193B04B2293B04B2393B04B0C93F9
:10BDA000B04B0793B04B2493B04B0F9352F044FF2A
:10BDB000FA22039B92001B68C31A93425AD20121B4
:10BDC000092002F06FFC029B1B78002B07D052F079
:10BDD00033FF069B1968A64B411A994250D84AF086
:10BDE00053FE52F029FF00230600984610253B80A1
:10BDF00052F022FF801B632838D8A3691D4214D15A
:10BE0000A3691D42FCD142462368DBB2002A10D14F
:10BE1000AA2BEDD14A461370A93B3B8052F00CFF90
:10BE20005346186001239846E2E7012052F0CAFE0B
:10BE3000DEE73A88511C398049468B5452F0FCFEAB
:10BE4000534618603B88052B06D94A469288110054
:10BE5000083189B28B4225D252F0EEFE53461B6860
:10BE6000C01A6428DED90D984EF088FB0A2052F0E3
:10BE7000A9FE9BE7039B18600B9847F0ABF89EE781
:10BE80001B984EF07BFB029B1B78002B00D036E109
:10BE90000023029A1370049A13605A461360059A9D
:10BEA00013609CE74B4688468F211B688900B4933A
:10BEB00026AB5B181A80002A00D026E143468E206C
:10BEC0004B445A1E1278023B1B7812021343800027
:10BED000684A26A90918B4A88B524AF047FE051EE5
:10BEE00052D1654A26AB9B181B78012BBED8634AFA
:10BEF00026AB9B181B78622B00D110E100D9C3E060
:10BF0000602B00D148E2612B00D186E1012B00D1EA
:10BF10007FE1062B00D060E18F2226AB92009B18B8
:10BF20001B88032B00D873E2082B00D1E9E226A975
:10BF30008C46534BFFA8634419000422DC3008F000
:10BF40001DFC0021FFABDC331E68339132963000BC
:10BF500000F0C4FB051E00D08CE2310012984EF0B8
:10BF60000DFB00F031FC474A26AB9B1810221B78D2
:10BF700001950095FF21FFA8DC304AF0B5FDFFA830
:10BF8000DC30FFF7B9FD71E74AF02CFE01000F9895
:10BF90004EF0F4FA3B4A302026AB9B18012226A92A
:10BFA00009181B780A70019232AA00921122E1E767
:10BFB0001CF9FFFF00C90610806902200040034001
:10BFC00018C90610B5BB0010AEC102205CC906102E
:10BFD000F8650220BC8B02208CC906109CC102208F
:10BFE0000484022098C9061008840220C8C90610DB
:10BFF000FC8302200084022090C10220BC93022016
:10C00000F4C906100CCA061024CA061058CA061035
:10C0100078CA0610A4CA0610D0CA0610FCCA0610B8
:10C0200024CB061050CB06106CCB061090CB06101C
:10C03000B4CB0610FC730220E0CB061010CC061027
:10C0400044CC061064CC06108CCC0610C4CC061070
:10C05000FCCC061028CD061054CD061074CD061069
:10C06000AC8F0220A48D022088CD0610ACCD061026
:10C0700060EA000006020000390200003A020000F7
:10C080003E0200003B020000F02B00D154E1F12BF6
:10C0900060D0632B00D0A0E017984EF06FFA029B9F
:10C0A0001B78002B00D17BE2049B1868002800D08D
:10C0B000F6E15B461968059B1A68914200D1ABE135
:10C0C00019984EF05BFA029B1B78002B00D061E2BE
:10C0D0000023029A1370049A13605A461360059A5B
:10C0E000136022984EF04AFADD4A302026AB9B18A6
:10C0F000062226A909181B780A70053A53E75B4601
:10C10000089819684EF03AFAC2E64B4626A88446CB
:10C11000991DD44B6344180008F030FBCEE62398F9
:10C120004EF02CFA029B1B78002B00D0E3E100229A
:10C13000029BCB491A70049B1A605B461A60059BF0
:10C140001A6026AB5B183D391B78FF3901920092CB
:10C15000103210E78F2226AB92009B181E88002E0B
:10C1600030D026A98C46BF4B32006344190032A858
:10C1700008F004FB302226AB9B189D558023012636
:10C18000079A9B00D550984632A80433D6544DF0F8
:10C19000C1FF8123079A9B00B149D55426AB5B1898
:10C1A0001B78002800D0EAE1404611001258002A0E
:10C1B00000D1E0E192B201920091F122DAE62098FA
:10C1C0004EF0DCF9A64A302026AB9B18032226A9A4
:10C1D00009181B780A70023AE5E6A14A26AB9B18BB
:10C1E0001978B4A84AF01EFC002800D03EE69E4A0A
:10C1F00026AB9B18197824984EF0C0F9984A302045
:10C2000026AB9B18022226A909181B780A70013A4E
:10C21000C9E611984EF0B2F9A5E6029B1B78002BF7
:10C2200000D1F0E08F2226AB92009B181B88984625
:10C2300052F002FD069B424618605B461968059B5A
:10C2400052181B689A4200D982E100230A934346A0
:10C25000002B68D0464601E0002E64D0049B1B688A
:10C260009846802342465B019B1A1D1C9BB2B34239
:10C2700000D9351C26AA94467A4B0A9A6344944600
:10C280000998ADB2634419002A00404408F076FAD8
:10C290000A9A4346AA1892B20A92802204995B191C
:10C2A000761B0B60B6B252019342D5D35B461D6834
:10C2B000269829004EF062F9EFF3108872B68021BB
:10C2C000280049015EF0A8F980222800099952014E
:10C2D0005EF092F988F310885B461D6880235B014D
:10C2E0009C465B46002265441D60049B28001A6042
:10C2F000059B1B68984608F04EF95C4908F009F95F
:10C300001090404608F047F9011C109808F0EDF82D
:10C3100008F06EF9424600900191290027984EF0EE
:10C320002DF9002E9AD14E4A26AB9B1800221B787D
:10C330000192009210321DE680230C9ADB00D15A44
:10C340004B4BD25A914203D28023DB009C4661447E
:10C350004348891A26AB1B1889B21B7800294ED096
:10C3600080250E1CAD00A94200D92E1C0021B6B2BA
:10C3700032A80C9D0131AD5C0132920589B2057085
:10C38000920D01308E42F4D839490C98425232AAAB
:10C3900000920196F022EDE58F2226AB92009B18C9
:10C3A0001B88032B00D80AE726A98C462D4B0422B4
:10C3B0006344190032A808F0E1F9329E1598310063
:10C3C0004EF0DCF8029B1D78002D00D0BCE08022EE
:10C3D000731E5203934200D39FE00123029A13700D
:10C3E000049B1D605B461D60059B1E6052F024FC93
:10C3F000069B310018601E984EF0C0F8B3E510227D
:10C4000001910091B6E50E984EF0B8F8169869E6DD
:10C4100014984EF0B3F8D5E61A984EF0AFF8002213
:10C42000029B0F491A7026AB5B18FFA83D391B7899
:10C43000FF3901920092DC3010324AF055FBFFA820
:10C44000DC30FFF759FB642052F0BCFB21984EF022
:10C4500095F80A220021002006F020FD06E5C046DE
:10C460003B0200003E0200003A0200000000C84209
:10C470000204000000F06CFB010013984EF07EF8FF
:10C480004F4A2F2026AB9B18032226A909181B7898
:10C490000A7026A98C46023A01922E32624484E543
:10C4A0005B461B6805009846099BFF219C46FF35AB
:10C4B0008D432A1A604408F05BF942462900189817
:10C4C0004EF05CF8EFF3108672B68023049A5B019D
:10C4D00012685B1B934267D32A00404609995EF0BD
:10C4E0008BF886F310885B46049A1B6812689B18C9
:10C4F0005A461360DDE55B46089819684EF03EF831
:10C5000015E626A98C462F4B08226344190032A851
:10C5100008F034F9329E339919E531001D984EF038
:10C520002DF81F984EF02AF8254A2F2026AB9B188D
:10C53000072226A909181B780A70063A26A98C46F4
:10C5400001920200624430E51C984EF017F8E8E7CB
:10C55000424625984EF012F8029B1B78002B29D1F9
:10C560000023029A16981370049A13605A461360B7
:10C57000059A1360B6E5019200921022FAE42F208A
:10C58000022226A909180A7026A902008C460196E3
:10C5900062440AE55B46089819684DF0EFFF97E59D
:10C5A0000E984DF0EBFF9CE58021404649015EF07E
:10C5B00033F891E75B46089819684DF0DFFFCFE745
:10C5C0003B0200003E02000030B50D4C83B02568F0
:10C5D000002D04D00B484DF0D1FF03B030BD012336
:10C5E000902200930849002308480194920051F0DA
:10C5F0003DFF0128F1D006484DF0C0FF2560ECE773
:10C60000B4930220C8CD06108CC906108DBC001052
:10C61000E8CD061010B5FFF76FFA10BD30B51C4B12
:10C6200004001B788DB0002B2DD000282DD052F0A7
:10C6300003FBFA21174B89001B6803ADC01A07F0F2
:10C640003FF80023020014490868496812184B415A
:10C65000290068460092019356F0FEF90F4A002027
:10C660009446089B63442380079B0133A370069B79
:10C67000E370059B2371049B6371039BA371099B6A
:10C68000E3710DB030BD0320FBE70220F9E7C0469F
:10C69000AFC10220C48B0220C85300206C070000E9
:10C6A0000B4B00201B78002110B5002B0FD052F04F
:10C6B000C3FAFA21074B89001B68C01A07F000F87B
:10C6C000002302000449086849688018594110BDD8
:10C6D000AFC10220C48B0220C8530020F0B54546EC
:10C6E000DE4657464E46E0B52F4D8DB06B688B4207
:10C6F0004EDC4AD002AC009001916846210056F011
:10C70000ABF92A4A079B944663449FB2069B029A60
:10C710000133DEB2FF231A409246039A1A40914633
:10C72000049A1A409046059A1A40214B93461B786A
:10C73000002B37D00C22002108A808F019F81D4B57
:10C7400020009C46534602934B4603934346049372
:10C750005B466744013E05930797069656F084FBB7
:10C760006B688B4219DC15D0134B03C352F064FA8B
:10C77000124B012218600020114B1A700DB0F0BC52
:10C78000BB46B246A946A046F0BD2B688342B1D94C
:10C790000420F3E72B688342E6D90A484DF0EEFE09
:10C7A0000420EBE70320E9E7C05300206C070000FA
:10C7B000AFC1022094F8FFFFC8530020C48B0220B1
:10C7C000B0C1022008CE061030B5254CA544254C3A
:10C7D0002378002B3DD000F0FDFD002837D02378D2
:10C7E000002B05D1012420008F239B009D4430BDE8
:10C7F00052F022FAFA211C4B89001B68C01A06F07D
:10C800005FFF0023020019490868496812184B416C
:10C81000029203931A43E5D015490A2204A844F072
:10C8200041FE011E17D1082201AB02A904A845F060
:10C83000A1F80500040004A845F03EFA002D02D13D
:10C84000019B082BCFD029000A484DF097FE052404
:10C85000C9E70324C7E708484DF090FE0524C2E766
:10C86000C4FDFFFFAFC10220C48B0220C8530020CB
:10C8700038CE06107CCE061048CE061030B51E4CC1
:10C88000A54400F0A7FD002828D001221B4904A8D8
:10C8900044F008FE002821D1082201AB02A904A817
:10C8A00044F06EFF0400050004A845F005FA002CD2
:10C8B00010D1019B082B0DD11149039B4A680298A6
:10C8C0009A4214DC10D00F4A09C252F0B5F90E4B4F
:10C8D000186004E029000D484DF050FE06242000A9
:10C8E0008F239B009D4430BD0A688242EBD90848E3
:10C8F0004DF044FE0424F2E7C4FDFFFF38CE0610DD
:10C90000C0530020C8530020C48B0220A8CE0610BC
:10C91000D0CE0610F0B5CE46474680B5714E97B0E2
:10C920003378002B05D0002017B0C0BCB946B04604
:10C93000F0BD6D480CAC4DF021FE242200212000FA
:10C9400007F016FF07AB69490093694806AB05AAD3
:10C9500055F0AEFB674905A857F090F8002800D1C4
:10C96000A0E0654905A857F089F8002800D198E0B3
:10C97000624905A857F082F8002800D194E0604988
:10C9800005A857F07BF8002800D190E05D4905A884
:10C9900057F074F8002800D18CE05B4905A857F0E7
:10C9A0006DF8002800D188E0584905A857F066F8CE
:10C9B000002800D184E0564905A857F05FF8002808
:10C9C00000D180E0534905A857F058F800287DD0E1
:10C9D000514905A857F052F800287AD04F4905A8C8
:10C9E00057F04CF8002877D04D4905A857F046F885
:10C9F000002874D04B4A069B9446E360079B0AAD1F
:10CA00006344636108AA4849009509AB474855F05B
:10CA10004FFB089B2000A360099B63600A9B0C935B
:10CA200056F022FA424F0A903860796028000B9144
:10CA3000210056F011F83F4B61699C460C98A368A1
:10CA4000FF259946614484466368207B2B40226918
:10CA5000644601934B4680462C4001321D4089B20A
:10CA60004346D2B23448029400954DF087FDFFF75B
:10CA700005FF002808D131484DF080FD01233048E2
:10CA800033704DF07BFD4EE72E484DF077FD386852
:10CA900079682D4B1860596052F0CEF82B4B186016
:10CAA000ECE701202061A5E702202061A2E7032036
:10CAB00020619FE7042020619CE70520206199E721
:10CAC0000620206196E70720206193E70820206177
:10CAD00090E7092020618DE70A2020618AE70B306A
:10CAE000206187E7AFC102200CCF061030CF0610BF
:10CAF00050B606103CCF061040CF061044CF0610AB
:10CB000048CF06104CCF061050CF061054CF061059
:10CB100058CF06105CCF061060CF061064CF061009
:10CB200068CF061094F8FFFF6CCF06105CB60610B5
:10CB3000C05300206C07000078CF0610ACCF061061
:10CB400000D00610D4CF0610C8530020C48B02209A
:10CB5000062803D8024B8000C05870470148FCE704
:10CB6000BC87071024D006100048704760EA000018
:10CB700010B500F02FFC10BD30B51A4C0500A544CF
:10CB800000F028FC00281DD0002D21D001221649DC
:10CB900004A844F087FC002814D1082201AB02A9A4
:10CBA00004A844F0EDFD040004A845F085F8002C2D
:10CBB0000ED1019B082B0BD1039B029A002B09DDA0
:10CBC0000CC500E0022420008F239B009D4430BD53
:10CBD0000124F8E7002B02D104498A42F0D803244B
:10CBE000F1E7C046C4FDFFFF98D00610FFE00B5EE2
:10CBF00010B5194CA5440090019100F0EBFB002802
:10CC000028D0019B002B1DDD0A22144904A844F002
:10CC100049FC002804D001208E239B009D4410BDB8
:10CC20000822694603AB04A844F0A4FE040004A84B
:10CC300045F042F8002CEED103980838431E984185
:10CC4000C0B2E9E7002B03D1054B009A9A42DBD82A
:10CC50000320E1E70220DFE7C8FDFFFF98D00610C0
:10CC6000FFE00B5E10B5054849F0C8FF041E01D176
:10CC7000200010BD02484DF081FCF9E7D88707106D
:10CC8000A4D00610F8B5CE464746234880B54DF0EF
:10CC900075FCFFF73FFE002836D151F0CDFF1F4B4A
:10CCA0001F4E9946FA239B0098461E4F306051F064
:10CCB000C3FF3B68C31A43451CD20121082001F081
:10CCC000F1FC49F0C5FF050051F0B6FF33680400E0
:10CCD000C31AAB4204D349F0CBFF00280FD1346014
:10CCE000FA20800051F06EFF51F0A6FF3B68C31A96
:10CCF0004345E2D33860484646F06CF9DDE7FFF77C
:10CD0000CFFC49F08BFFEAE7FFF722FF064B01005B
:10CD100018004DF033FCC0E7E4D0061028D106100F
:10CD2000C08B0220FC65022000D1061030B50D4CEE
:10CD300083B02568002D04D00B484DF01FFC03B0D4
:10CD400030BD012380220093084900230848019444
:10CD5000920051F08BFB0128F1D006484DF00EFCFB
:10CD60002560ECE7B89302202CD1061050D10610B4
:10CD700085CC00105CD10610F0B5DE4657464E4615
:10CD80004546E0B5CB4CA54451F056FFCA4B279021
:10CD90009A461B68002B00D1E1E2C84B99461B68FC
:10CDA000002B00D1E7E20023C54CFA27237051F095
:10CDB00043FF6060C3484DF0E1FBC34BC34E069395
:10CDC000C34BBF009846C34B0E93C34B1293C34B48
:10CDD0001C93C34B2193C34B0B93C34B1393C34B74
:10CDE0000F93C34B2493C34B2293C34B0993C34B61
:10CDF0001F93C34B2593C34B1E93C34B19934CAB4B
:10CE00009B46C24B1A93C24B1B93C24B1593C24B0A
:10CE10002093C24B1893C24B1693C24B1093C24B34
:10CE20001193C24B0793C24B0C93C24B1D93C24B41
:10CE30001493C24B2393C24B0893C24B1793C24B1C
:10CE40000A9351F0F9FE3368C31ABB4255D201214F
:10CE5000002001F027FC51F0EFFE63682178C01A32
:10CE6000A060052900D91BE1434689005B589F4615
:10CE700004254B461868002819D000222DA950F02F
:10CE8000D5FB012813D1237C002B0DD05346186805
:10CE9000002806D0FA21890050F056FC012800D164
:10CEA0005EE107984DF06AFB013D002DE1D1A74BF3
:10CEB000A2689A4217D94AF033F9051E00D11AE246
:10CEC00051F0BAFE60600EE06378012B00D1DAE128
:10CED000FA23DB00984206D39D4B238051F0ACFE31
:10CEE00000236060A360642127A851F019FE51F06F
:10CEF000A3FE3368C31ABB42A9D33060069846F03C
:10CF000069F8A4E700232374089B1D78002D00D145
:10CF1000BFE1904B9842E6D9012117984DF02EFBC6
:10CF2000CEE749F091FF051E00D07DE10E984DF04F
:10CF300025FB74A84AF082FA2378E560022BD2D050
:10CF400063700223237051F077FEA5606060CAE72A
:10CF50000123B842C1D2C6E70B9D012229007E48B9
:10CF600044F05EFA011E00D075E113984DF006FB07
:10CF700029AB190028AA280044F0FEFF0F984DF0B5
:10CF8000FDFA03F045FE0100022800D1C4E10028AB
:10CF900000D0ACE10999322274A844F083FA011E52
:10CFA00000D085E151F048FE05002BA8FFF736FBC5
:10CFB000002805D120AB9B8D684A934200D9AFE190
:10CFC0002B0020211E9A2DA809F048F88021199ADB
:10CFD0002DAB584609F042F8584656F09BFD59468D
:10CFE00002002AAB74A844F0C5FC80211A9A2DAB2C
:10CFF000584609F033F8584656F08CFD5946020061
:10D000002AAB74A844F0B6FC159D80212B00103B80
:10D010001B9A009358462DAB019509F01FF858460E
:10D0200056F078FD2AAB0200594674A844F0A2FCE1
:10D030002B00173B5A79189B002A00D0209B802197
:10D04000169A009358462DAB09F008F8584656F04A
:10D0500061FD594602002AAB74A844F08BFC74A809
:10D0600044F02AFE0123002510982374E5604DF05A
:10D0700085FA01F011FB002805D0022300220021CF
:10D08000009553F0ABF82378032B00D12BE76370A6
:10D090000323237051F0D0FD00236060A36022E7DA
:10D0A0000A984DF06BFA2378042B00D11BE76370CC
:10D0B0000423EEE704FCFFFFD0B20220E4B202201A
:10D0C000E8B20220ECD1061008D206100866022051
:10D0D000EC87071014D2061044D2061074D2061042
:10D0E000B4D20610E4D20610E8D2061018D3061007
:10D0F00048D3061078D30610A0D30610B4D3061078
:10D10000E8D3061008D406100CD4061034D4061048
:10D1100054D406100B85022080D1061088D1061049
:10D1200078D4061088D40610B8D40610E4D40610BB
:10D13000B08B022020D506103CD5061058D506101D
:10D1400099C1022094D50610E4D506100F270000DF
:10D15000020500005FEA0000FCB20220E4070000C4
:10D160003222099974A844F09DF9002854D12BA8C3
:10D17000FFF754FA51F060FDFA21890006F0A0FA99
:10D180000C9820AB9A8D03880D91934204D120AB6B
:10D19000D98D4388994218D02F2120AB5B181B787A
:10D1A0000139019220AA5218127872310092584621
:10D1B0001D9A08F053FF594602002AAB74A844F0A8
:10D1C000D9FB0C9B2BAA03CA03C33022322120AB0C
:10D1D0009B182EAA1B7803920D9A5846029220AAF9
:10D1E000521812780139019220AA521812786D3122
:10D1F0000092149A08F032FF59460D2302000B5496
:10D200000B180A210232597074A859462AAB44F00F
:10D21000B1FB74A844F050FD534600220021186869
:10D2200000234FF0E3FF3FE64AF01EFA0100129898
:10D230004DF0A4F9E5680135E560002D4CD1237867
:10D24000052B00D14FE663700523237051F0F4FCE9
:10D25000A560606047E611984DF090F94D4D143D82
:10D26000EB6801330D93EB60002B25D12B78052B58
:10D2700000D138E66B7005232B7051F0DDFC0D9B5F
:10D280006860AB602FE6444B984200D82BE6434BD6
:10D2900023E601F001FA002805D002230022002134
:10D2A000009552F09BFF0123089AA068137030E6A6
:10D2B0001F984DF063F9D5E61C984DF05FF92B7877
:10D2C000042B00D10FE66B7004232B7051F0B4FCDB
:10D2D00000236860AB6006E61C984DF04FF921987A
:10D2E0004DF04CF92378042B00D1FCE5DFE62298C1
:10D2F0004DF044F94EE623984DF040F9237825741B
:10D30000E560012B00D1DBE563700123237051F050
:10D3100093FCA5606060D3E524984DF02FF939E6C1
:10D32000322120AA521812780139049220AA5218E8
:10D3300012780139039220AA521812780139029208
:10D3400020AA521812780139019220AA5218127894
:10D350000E3900922DA8259A08F080FE36E60120AD
:10D3600050F02EF853461860002800D015E50C4800
:10D370004DF004F911E500227C2108204FF09AFEBF
:10D380004B461860002800D00DE506484DF0F6F831
:10D3900009E5C046FCB20220871300000105000029
:10D3A00094D10610C0D1061000B5074B83B001938D
:10D3B000E02201230549009392000023044851F024
:10D3C00055F803B000BDC04630B5022008D20610A3
:10D3D00079CD0010014B187C7047C046E8B202209E
:10D3E000F0B5454657464E46DE46E0B59846C74B33
:10D3F000C74C1E7CA5440F0004001500002E11D060
:10D4000000280FD0002A0DD0C24B18689A46002879
:10D4100005D0FA21890050F097F901280DD0BE48B7
:10D420004DF0ACF800263000EB239B009D44F0BC8F
:10D43000BB46B246A946A046F0BD10AB9B465A4635
:10D44000B64B03CB03C21B785846137056F062FBF1
:10D45000002F1DD00823DB1BDBB20893B04B07273E
:10D4600009932B002500994604004022111B5A46BF
:10D470002B781019099A08F0F1FD089B0234BB4281
:10D4800004D0013FFFB20135002FEED14D46200000
:10D490004021A44A091A584408F0E0FD59463222B6
:10D4A00060A843F0FFFF011E00D01FE10BAF380062
:10D4B000FFF7B4F851F0C0FB3B88FA219946434688
:10D4C0008900069306F0FCF805918021BB79964C03
:10D4D00004937B79220003933B7949000293FB7804
:10D4E00020A80193BB7800934B4608F0B7FD0AAB28
:10D4F000020020A960A844F03DFA071E00D000E118
:10D50000A968EB68049180210593EB88874A03930F
:10D510006B79490002932B7920A801932B680DACFD
:10D520000093042308F09AFD0AAB020020A960A82A
:10D5300044F020FA8021EB7E7D4A0493AB7E4900C3
:10D5400003932B8B20A802936B6901932B690093A3
:10D55000052308F083FD0AAB020020A960A844F06F
:10D5600009FA2B23EB5C802104932A23EB5C714A9C
:10D5700003932B8D490002936B6A20A801932B6AB9
:10D580000093062308F06AFD0AAB020020A960A8F8
:10D5900044F0F0F980216B6B674A0293AB6B490052
:10D5A00001932B6B20A80093082308F057FD0AABCA
:10D5B000020020A960A844F0DDF99C23EB588021EB
:10D5C00001939823EB585D4A00934900102320A84B
:10D5D00008F044FD0AAB020020A960A844F0CAF993
:10D5E0006623EB5A802105936523EB5C544A049330
:10D5F0006423EB5C490003936223EB5A20A8029357
:10D600006023EB5A0193EB6D00930C2308F026FD89
:10D610000AAB020020A960A844F0ACF96B6F80212E
:10D6200003932B6F474A02936C23EB5A49000193F3
:10D63000AB6E20A80093052308F010FD0AAB020092
:10D6400020A960A844F096F98423EB588021039325
:10D650008023EB583C4A02937C23EB5A4900019308
:10D66000AB6F20A80093062308F0F8FC0AAB020079
:10D6700020A960A844F07EF9290020000B228831FF
:10D6800007F07CF89423EB5AE7725BBA9BB20293E3
:10D6900093238021EB5C2D4A0094019349000C23D5
:10D6A00020A808F0DBFC20A902000AAB60A844F027
:10D6B00061F9274B20AA13CB13C213CB13C213CB90
:10D6C00013C203CB03C21B7820A9137060A80AAB56
:10D6D0002C2244F04FF960A844F0EEFA53460022A1
:10D6E0000021186800234FF081FD9CE619484CF09A
:10D6F00045FF534600220021186800234FF076FDB5
:10D7000090E660A844F0D8FAF3E7C046E8B20220F9
:10D7100054FCFFFFD0B202200CD6061048D60610EB
:10D7200054D606109CDD06108CD606102CD7061099
:10D73000A4D7061044D80610E4D806106CD90610F9
:10D74000B8D9061068DA0610DCDA06104CDB0610D1
:10D7500098DB06105CD60610F0B557464546DE4607
:10D760004E46E0B55B4B5C4C1F7CA5440D000400AD
:10D77000002F1AD0002818D0584B18689A46002855
:10D7800005D0FA2189004FF0DFFF012811D054485D
:10D790004CF0F4FE00273800DB239B009D44F0BCD6
:10D7A000BB46B246A946A046F0BD4E484CF0E6FE48
:10D7B000F0E76A464C4BE84603CB03C21B78684649
:10D7C000137056F0A7F90600002D1BD008235B1B31
:10D7D000DBB29946454B07259B463B004F46994691
:10D7E0004022911B4246237890195A4608F036FC95
:10D7F0000236BD4204D0013DEDB20134002DEFD11F
:10D800004F46300040213A4A091A404408F026FCAD
:10D810000122414650A843F045FE041E46D1354E34
:10D82000002430004CF0AAFE334B180098464CF010
:10D83000A5FE6B463148D91C4CF0A0FE40464CF08A
:10D840009DFE2F4D802150AA490010A844F0B2FC43
:10D85000002816D010A9280001344CF08FFE322188
:10D86000200005F02DFF0029ECD10220013100F04D
:10D8700019FF802150AA490010A844F09BFC002801
:10D88000E8D140464CF07AFE21001E484CF076FE6E
:10D8900030004CF073FE50A844F00EFA53460022BC
:10D8A0000021186800234FF0A1FC74E722004146D4
:10D8B00015484CF063FE042C07D05346002200218B
:10D8C000186800234FF092FC64E710484CF056FEB5
:10D8D000F3E7C046E8B2022094FCFFFFD0B202207A
:10D8E000F8DB0610C8DB061048D6061054D6061022
:10D8F0009CDD06106C35071068B6061080DC06103B
:10D90000D47A0710A8DC06101CDC061054DC0610C4
:10D910000FB410B5BEB0409B002B2BD01A0078215D
:10D9200041AB01A8009308F0ADFB772828DC1B4829
:10D9300001A94CF023FE1A4B1B7C002B1AD0194C6A
:10D940002368002B16D051F077F977221F9001A998
:10D9500020A854F0E9FD7C2069467B2300220918A9
:10D96000CA54206800234FF041FC0138434258411B
:10D97000C0B200E000203EB010BC08BC04B01847A4
:10D980006946772300220431CA54044801A94CF0A7
:10D99000F5FD034B1B7C002BD1D1EBE7BCDC061063
:10D9A000E8B20220E4B20220F0B545464E46DE461B
:10D9B0005746E0B5454B464C1B7CA5440E00040081
:10D9C00015009846002B0ED000280CD0002A0AD053
:10D9D000404B18689A46002805D0FA2189004FF07C
:10D9E000B3FE01280AD000263000DF239B009D44AF
:10D9F000F0BCBB46B246A946A046F0BD04AB994672
:10DA00004A46354B03CB03C21B784846137056F089
:10DA100081F80700002E18D008239B1BDBB201936E
:10DA20002E4B07269B464022D11B4A462378D0190D
:10DA30005A4608F013FB019B02379E4204D0013E78
:10DA4000F6B20134002EEED138004021244A091AE2
:10DA5000484408F003FB0122494654A843F022FD44
:10DA600000282BD1002600271E4C05E0210014A819
:10DA700054F030FF002815D1802154AA490014A881
:10DA800044F098FB0028F1D154A844F015F953460E
:10DA900000221868002100234FF0A8FB002EA2D01E
:10DAA0002F60A1E700231049073003AA039354F025
:10DAB000FFFA0128E0D14646039FDDE753460022E6
:10DAC0000021186800234FF091FB8CE7E8B2022098
:10DAD00084FCFFFFD0B2022048D6061054D60610B0
