:020000041000EA
:1080000000B5324B2120586098680221884398605F
:10801000D860186158612E4B002199600221596186
:108020000121F02299502B491960012199603520D6
:1080300000F044F80222904214D00621196600F0A4
:1080400034F8196E01211966002018661A6600F0CE
:108050002CF8196E196E196E052000F02FF8012109
:108060000842F9D1002199601B491960002159602B
:108070001A491B48016001219960EB211966A02172
:10808000196600F012F80021996016491448016041
:108090000121996001BC002800D000471248134913
:1080A000086003C880F30888084703B5996A04206C
:1080B0000142FBD001200142F8D103BD02B5186690
:1080C0001866FFF7F2FF186E186E02BD000002403E
:1080D000000000180000070000035F0021220000DC
:1080E000F4000018222000A00001001008ED00E0BC
:1080F00000000000000000000000000074B24E7A92
:1081000000200420F7810010CB810010CD810010E9
:10811000C9810010C9810010C9810010C9810010F7
:10812000C9810010C9810010C9810010D9BE051095
:10813000C9810010C981001005BE051055BF05108A
:10814000C1810010C1810010C1810010C1810010E7
:10815000C1810010C1810010C1810010C1810010D7
:10816000C1810010C1810010C1810010C1810010C7
:10817000C1810010C1810010C1810010C1810010B7
:10818000C1810010C1810010C1810010C1810010A7
:10819000C1810010C1810010C1810010C181001097
:1081A000C1810010C1810010C1810010C181001087
:1081B000C1810010C1810010C1810010C181001077
:1081C000EFF30580103800BE00BE00BE00BE00BE4A
:1081D00000BE00BEF2EB8871E4B60D1014B70D10AE
:1081E0003882001090A31AE71E481F49086006C88D
:1081F00081F3088810471D480068002801D01948FD
:10820000F3E70DA40ECC002902D000F012F8F9E734
:108210001749184A002000E001C19142FCD11649DB
:108220008847164988471649884700BEFDE701C9B7
:1082300001C29A42FBD3704714B70D10C000002052
:10824000C01A002014D10D100000042000000420EA
:1082500014D10D10001004200010042000000000B4
:10826000704700000000000008ED00E0000000D0B2
:10827000C01A002024C1022035590110D5820010F7
:10828000F5580110F8B5C04606480749091A8B1081
:10829000C90FC91810B5491003D0044B002B00D0EA
:1082A000984710BDC01A0020C01A0020000000002E
:1082B000054B10B5002B03D00449054800E000BF72
:1082C000FFF7E2FF10BDC04600000000D48B022083
:1082D00040A1061010B510F011FB002100200FF096
:1082E000FDFDFA20800009F069F906200AF0A4F8E3
:1082F000D02340221B065A620C485A610DF0E4FC60
:108300000B480DF0E1FC4FF01FFA56F011F8094848
:108310000DF0DAFC03F0DCF9322009F04FF903F03C
:10832000DDF9322009F04AF9F4E7C04640A1061011
:108330005CA106107CA106100B4B70B51A680132C7
:108340001A600A4B53430522D341094A934200D98C
:1083500070BDD02480252406AD0400210548656148
:1083600009F04CFAA561F3E7FC8A02203961C26882
:108370008D21000050C3000072B6FEE770B5050005
:108380000B480C000DF0A0FC29000A480DF020FD60
:10839000002C08D0210008480DF01AFD07480DF008
:1083A00093FC72B6FEE706480DF08EFCF6E7C04679
:1083B00098A10610BCA10610D0A10610F4A10610C9
:1083C000E0A10610004870479074071000487047FD
:1083D0002C74071070B5002800D173E0032852D127
:1083E000414D1121280010F0C9F828005BF0B2F8C7
:1083F000002800D175E03D4C2B786380012839D0EE
:108400006B78A380022835D0AB78E380032831D085
:10841000EB78238104282DD02B796381052829D07E
:108420006B79A381062825D0AB79E381072821D079
:10843000EB79238208281DD02B7A6382092819D072
:108440006B7AA3820A2815D0AB7AE3820B2811D06D
:10845000EB7A23830C280DD02B7B63830D2809D066
:108460006B7BA3830E2805D0AB7BE383102801D15F
:10847000EB7B2384C023013040009B0003439BB26D
:108480002380200070BD052829D8194B8000C458CE
:10849000002CF6D020005BF05DF8050020281CD8E9
:1084A000002807D00023134AE15C01331180023217
:1084B0009D42F9D8C02301356D009B002B430B4C26
:1084C0009BB2DDE70B4C0A4B2000196802220BF02F
:1084D000E3FCC123023C9B00D2E72025E0E7002417
:1084E000CFE7054B014CCBE7A857002030650220B1
:1084F000081200203265022002030000F0B5C646D3
:10850000864800B551F056FD06F038F9040003F036
:10851000E5FB834851F04EFD03F0CAFB814851F062
:1085200049FD05F043FE804851F044FD4AF072FADF
:10853000002800D180E07D4851F03CFD04F09CFD16
:108540007B4851F037FD03F001FC7A4851F032FDD1
:108550004FF056F9784F38604FF058F9774E306049
:108560004FF05AF9764B050018603068984600289D
:1085700000D19CE049F040FD43461D683B6800285F
:108580005ED1002B00D196E003F04EFA2B23E35C82
:10859000002B00D0B5E02A23E35C002B00D18EE055
:1085A0000222684BDA702723E35C002B65D001F0D0
:1085B00007FE0122634B0A2063491A704FF0E8F866
:1085C000624851F0F7FC002D5CD003F07DFC604860
:1085D00051F0F0FC02F036FC5E4851F0EBFC282331
:1085E000E35C002B00D06EE02923E35C002B53D02A
:1085F00002F072FD0122534B0B2057499A704FF045
:10860000C7F8564851F0D6FC2C23E35C002B4AD027
:1086100004F0E4F905F09AFE01224A4B0420504987
:108620005A714FF0B5F84F4851F0C4FC4E4851F024
:10863000C1FC80BCB846F0BD4C4851F0BBFC7DE7A6
:10864000002B4DD003F0F0F92B23E35C002B4BD132
:108650002A23E35C002B32D0306849F0DFFC012292
:10866000384B0C204249DA704FF092F8414851F0F3
:10867000A1FC2723E35C002B99D13F4851F09AFCE1
:10868000002DA2D102222F4B3C485A7051F092FC8F
:108690002923E35C002BABD1394851F08BFC2C2310
:1086A000E35C002BB4D1374851F084FCBEE73B6853
:1086B000002B00D068E70222224B1A716BE7324888
:1086C00051F078FC6FE74DF019FA01221D4B0D2097
:1086D0002E495A704FF05CF82D4851F06BFC83E73F
:1086E0000222184B1A71B3E703F040FA0122154B2E
:1086F0000E2028491A714FF04BF8274851F05AFCC8
:10870000A6E703F033FA01220E4B0E2021491A711D
:108710004FF03EF8204851F04DFC3CE754A20610C3
:1087200090A20610BCA20610E8A2061018A306101C
:1087300070A306109CA306103C6A02202C6A02203B
:10874000088D0220D09C022028A4061034A4061014
:1087500080A40610ACA4061040A506104CA5061077
:1087600094A506109CA50610FCA506103CA30610B7
:10877000CCA30610D4A3061058A406100CA506100E
:108780006CA50610C8A50610F8A30610E0A40610F4
:10879000E8A4061028A6061034A6061070B5052811
:1087A0000CD8254B254D8400E1582B5C012B32D091
:1087B000234851F0FFFB234B1B599F46224B0100DE
:1087C000180051F0F7FB002070BD04F007F90123F9
:1087D00001206B71F8E74DF091F9012301206B70D6
:1087E000F2E71A4C2068002803D049F005FC002865
:1087F0001BD1174851F0DEFB0223EB70E3E703F0D7
:10880000B5F9012301202B71DEE702F065FC01239D
:108810000120AB70D8E70F4851F0CCFBD3E701F053
:10882000CFFC012301202B70CEE7206849F0F6FB36
:1088300001230120EB70C7E7C8740710D09C022009
:10884000A4A60610A474071060A606102C6A0220C5
:10885000C0A6061084A6061010B5052805D8044B3E
:108860008000C158034851F0A5FB002010BDC04650
:10887000C8740710ECA60610052802D8024B185C35
:1088800070470220FCE7C046D09C0220052803D890
:10889000024B8000C05870470148FCE7C8740710BD
:1088A00014A70610F8B5CE464746134880B551F0D8
:1088B00081FB124B124C9946124B27009846124DE1
:1088C000124E18372B78022B0DD842469B0002CC53
:1088D00030009A5851F06EFB0135A742F2D1C0BC6E
:1088E000B946B046F8BD02CC4A46300051F062FBB2
:1088F0000135BC42E6D1F2E71CA7061040A70610DE
:10890000C8740710BC740710D09C022034A706104E
:1089100010B555F077FE10BDF0B5DE4657464E4611
:108920004546E0B585B005F029FFB0234F4E5B000A
:108930000400C05833684E4F98426AD04D4B984659
:108940004D4B99464D4B9A464D4D2B689B46002BFF
:1089500044D027F075FE02AB187002040002120E1C
:10896000000E5A70987000225846029919F0D0F8FB
:10897000FF212868002219F0DBF8B2222B68520090
:10898000A0589346019327F05BFE03AB18700204D6
:108990000002120E000E5A7098700022039901987E
:1089A00019F0D0F8B4235B00E15C2868002219F0CC
:1089B000E3F86A23FF33E15C2868002219F0E6F847
:1089C000286800220121B02519F0CCF85B466D0023
:1089D000E25861592B4851F0EDFA6059B2235B001F
:1089E000E35842463B60B42330605B00E35C1370A5
:1089F0006A234A46FF33E35C1370B62352465B009A
:108A0000E358136005B0F0BCBB46B246A946A04689
:108A1000F0BDB2235B00E2583B689A4200D08DE77C
:108A2000144B9846B4235B00E25C43461B789A42A1
:108A300004D0114B9946114B9A4685E70E4B994647
:108A40006A23FF33E25C4B461B789A4202D00B4B01
:108A50009A4679E7094B9A46B6235B00E25853469B
:108A60001B689A4200D06FE7CCE7C0463412002062
:108A70003012002029120020281200202C12002081
:108A8000F058002068A70610F0B5DE464E4657465F
:108A90004546E0B5EC48CBB051F08CFA49F0BCFE4D
:108AA000EA4851F087FA012054F0AAF9E84E306004
:108AB000002801D101F057FAE64851F07BFA49F05D
:108AC00075FE692055F09EFDE34851F073FA32209F
:108AD00055F098FDE14851F06DFA25F079FAE0483B
:108AE00051F068FADF482EF0DBFCDF4851F062FA03
:108AF000A022F0215200DD4851F05CFAA021DC4AAE
:108B0000F0200092DB4B0322490021F0A1FDDA4C5A
:108B10002060002801D101F0ECF8D84851F04AFA61
:108B2000002120681CF084FDD54851F043FAE12172
:108B3000D448890151F03EFA002320680093E123D4
:108B400000229B01D0491CF0D9F8D04851F032FAEC
:108B5000CF4851F02FFA10F061FACE4851F02AFABE
:108B600005F00CFE0500CC4851F024FAFFF7D4FEC6
:108B7000CA4B18680A93002804D029001E31FF311F
:108B800035F0E2F805F0FAFD0A9A030010680028B3
:108B900009D0B82252009B5C0121002B01D101F0C9
:108BA000F0F811F08DF9BE4851F004FA002049F0B8
:108BB00011FE49F029FF20681BF0E4FF0400B948CA
:108BC000210051F0F7F904E02AF09AFC052055F055
:108BD00019FD49F013FFA042F6D3642055F012FDB1
:108BE00049F00CFFB04B0100180051F0E3F9AF4819
:108BF00051F0E0F900242000053449F0EBFDE4B227
:108C00001E2055F0FFFC692CF5D1642049F0E2FDEF
:108C1000A74851F0CFF9A74851F0CCF955F02CFDF9
:108C2000419055F029FDA44BA44D18600893A44B26
:108C3000FA2798461860A34B44469A46A24BBF00B9
:108C40000293A24B1F93A24B0E93A24B2093A24BD5
:108C50001E93A24B1A93A24B2593A24B2693A24B91
:108C60002B93A24B0C93A24B1D93A24B1793A24B99
:108C70001993A24B2393A24B2193A24B2493A24B73
:108C80002793A24B2A93A24B2993A24B2D93A24B3D
:108C90002E93A24B2F93A24B3093A24B3193A24B16
:108CA0003293A24B2C93A24B3393A24B3493A24BFF
:108CB0003593A24B3693A24B3A93A24B3793A24BD8
:108CC0003893A24B3993A24B0D93A24B1593A24B11
:108CD0001493A24B1393A24B0F93A24B2893A24B36
:108CE0001B93A24B3B93A24B1093A24B1693A24B08
:108CF0001193A24B1293A24B0493A24B9B4655F0A7
:108D0000BBFC53461B68C31ABB4223D201210A2075
:108D10004EF050FD55F0B0FC804605F02FFD424668
:108D20002368D31A882252008258934218D2FA211B
:108D30003068490054F028FA8046012800D123E128
:108D40000A2055F05FFC55F097FC53461B68C31A88
:108D5000BB42DBD353461860029849F0AFFCD5E71D
:108D600043460A213068236054F00EFA0128DED110
:108D7000FFF7D2FD05F002FD0023AB7799462733BC
:108D8000C35C8046002B01D000F036FD282342460C
:108D9000D35C002B01D000F020FD29234246D35C98
:108DA000002B01D000F00AFD2A234246D35C002BA1
:108DB00001D000F0F4FC2B234246D35C002B01D001
:108DC00000F0DEFC2C234246D35C002B01D000F0E7
:108DD000C6FCAB7F5A1E93416B774AF09FF8069012
:108DE0004AF092FD81460B904BF040FA4B460590BD
:108DF000012B00D1D4E1033B5A425341DBB207932C
:108E00000023099302F0B2F9039055F035FC6B7A18
:108E10008046002B00D1F4E0039B002B01D100F031
:108E2000FAFC2B78002B00D069E1079A002A01D1C7
:108E300000F091FE40222B742B720123AB542B7057
:108E40000323984602E1C04600A8061038A8061081
:108E5000B48B0220ACA80610D4A80610ECA806100B
:108E600010A906101189001028A9061050A9061093
:108E7000C52805104D280510848B0220ACA90610CA
:108E8000D8A9061010AA0610C01A002044AA06107D
:108E900068AA061084AA06109CAA06101859002079
:108EA000CCAA0610FCAA061034AB061068AB06105C
:108EB00088AB0610BCAB061004B7022018B702201E
:108EC0003C8B02208C650220F0AB0610E07407108A
:108ED0003C120020EC3D07101C8B0220ACA70610B2
:108EE000B8A70610C4A70610D0A706101C5900206A
:108EF00024120020408B022020C10220F4AB061077
:108F0000E86D0220F8AB0610E4A70610946F071076
:108F100002C1022017C10220788B022016C1022054
:108F2000748B022018C102207C8B0220D8A7061067
:108F300015C10220708B022013C10220688B022011
:108F4000F8A7061014C102206C8B0220ECA70610B3
:108F50000059002001C1022038120020F4580020DE
:108F60002012002000AC06101C69022008AC06107C
:108F7000F858002000C1022004590020FFC0022040
:108F800012C10220046E022005202EF007FA05F01F
:108F9000F5FB049B1B78002B0DD1FA210533FF3321
:108FA000C058890009F01AFF5A461368834202D359
:108FB0004246049B1A702AF0A3FA804655F05CFBE7
:108FC000FA21089B89001B68C01A09F007FF5B465D
:108FD0000022186000210023306853F027FE43462A
:108FE000642B07D84146052900D2052141A855F038
:108FF000B7FA84E605F0C2FB80235B00C3589846AD
:10900000F0E7039A2B7C6A72002B09D0002A71D1F9
:109010004246EB68D31A674A934201D900F00CFD2F
:109020002B78002B01D100F007FC079B002B6AD0A6
:10903000039B002B00D003E74B460022013BDBB231
:109040009046032B02D81F9AD35C98460E9B1B7840
:10905000434503D14023EB5C002B15D005F08EFB7C
:109060000A9A0300106800280BD0424652019B1850
:109070007133FF331B780121002B00D1E9E310F09D
:109080001FFF42460E9B1A7005F078FB0A9B1B6877
:10909000002B13D04B46012B01D100F0A6FC2B7AFC
:1090A000002B0BD13E23FF339846804441461E9847
:1090B0005AF004FA002801D000F0D2FD059B0B2BDA
:1090C00000D17DE04B46023BDBB2012B0DD9059B65
:1090D000062B01D100F0B2FD01D900F0B1FC013B3B
:1090E000DBB2032B01D900F048FF01231C931A9B2C
:1090F000189369E02B78002B01D100F061FE079BEB
:10910000002B00D09CE643466B6001232B720023AA
:109110002B7005F033FB42466B68D31A8422520051
:1091200082589A4284D805F029FB0A9A03001068F5
:10913000002809D0B82252009B5C0121002B01D1EC
:1091400000F09DFF10F0BCFE05F018FB3E22FF3240
:1091500090460A9B80441B68002B03D041461800B0
:1091600034F0F2FD0B224146134858F0FDFE002377
:10917000382212498B54CB630B7205F0FFFA0A9A1E
:1091800003001068002800D127E1B82252009B5C40
:109190000121002B01D100F06EFF10F091FE1CE1C7
:1091A000069B002B00D182E3EB6301230993079315
:1091B00028E6C0468713000045B7022018B70220F2
:1091C00001231C93209B18930C9B1B689846002B33
:1091D0002CD04022059B0399013BAA5CDBB20029FD
:1091E00000D1E9E1002A00D1FEE001221D9952429E
:1091F0000A60002217990A70199901320A70032B2C
:1092000000D9F7E001F062FF0C9B1B6898461A99A1
:1092100017985AF053F9002801D000F05BFC0121A7
:10922000404610F0D9FE002800D021E1069B002B1B
:1092300000D126E1069B98460D9B1868002845D072
:10924000159B039A1B78002A00D01BE2079A002A7C
:1092500000D017E2032B00D12DE10123149A5B42C9
:109260001360159A04331370099B002B00D132E16F
:10927000069B002B00D12EE1012110F0ADFE00284D
:1092800001D000F048FE4346002B00D198E3149A29
:10929000136898451AD04346FA211360890088451F
:1092A00001D200F09BFEC04B984501D800F0E6FDCE
:1092B000404609F093FD10210300249A1B980CF0FE
:1092C0005BFA0D9B1B99186834F03EFD139B1B68DD
:1092D000002B10D00F9B1B6898464023EB5C002BA3
:1092E00000D0C7E2079B002B00D019E24B46002BB1
:1092F00001D100F03AFC109B1B689846002B1CD053
:109300004023EB5C002B00D021E1169B099A1B78CF
:10931000002A00D100E3069A002A01D100F015FCD2
:10932000A2498A4200D8A2E3A1498A4201D900F0A9
:1093300023FD022B01D000F061FC119B1B689846B5
:10934000002B47D04023EB5C002B02D00023129A65
:1093500013706B7F002B0DD14B46002B00D17BE2AD
:10936000012B01D100F009FC023BDBB2022B01D939
:1093700000F011FC55F080F9AB69C31AF92B24D920
:1093800001222B7FA8615340119A2B7711688846E0
:1093900000D170E3FF20000427F052F93AAB1873B4
:1093A000030400023AA91B0E000E88734B730022BF
:1093B00040463D9918F0ACFB119A0121106810F05D
:1093C0000BFE002801D000F099FD02230B93129BA5
:1093D0000B9A1A7040230022EA5400230022002135
:1093E000306853F023FCA2E4012219990A70032B80
:1093F00000D807E74B46022B00D103E74B46032B6F
:1094000000D1FFE601F062FE002800D1FDE001F08E
:109410005DFE22906421229809F0E0FC1D9A8046AE
:109420001368984201D100F054FC10600A2109F041
:10943000D5FC5D4B229A18909A4201D900F0B7FDF5
:109440000A21404609F0CAFC189B0091239A10217A
:1094500021980CF091F90C9B2199186834F074FC58
:109460000C9B0121186810F0B7FD002800D1DDE643
:109470000C9B0121186810F023FD069B002B00D0E7
:10948000D8E6EB6B9846002B12D0059B072B00D833
:10949000E8E20B2B00D1CFE62B7C002B00D0CBE6F3
:1094A000039B002B00D0C7E62B7A002B00D0C3E62D
:1094B00000239846C0E64032AA5C002A01D100F0A1
:1094C0003FFC0122149952420A60159A1370099BBD
:1094D000002B00D011E34B46002B03D12B7C002B3B
:1094E00000D1D5E2012110F077FD0D9A031E10681E
:1094F00000D0D1E2012110F06FFD002801D000F072
:1095000044FC099B002B00D0BDE6059A112A04D823
:10951000284BD340DB0700D5B5E62B7C002B00D0D1
:10952000B1E62B7A002B00D0ADE64B46002B00D0E5
:10953000CCE6149A1368023300D1C7E602235B42DB
:1095400013600D9B3B99186834F0FEFBBEE60023C8
:10955000169A1370099B002B00D1AEE1069B002BDD
:1095600000D1E6E21A00114B9A4200D9B0E1CC20BA
:10957000000427F065F83AAB1876030400021B0ECE
:109580003AAA000E5376907640994046002218F091
:10959000BFFA109B0121186810F01EFD002801D0B1
:1095A00000F09FFC0123D2E10F270000973A000052
:1095B0001F4E0000C0080200297C002900D1A6E14E
:1095C000002A00D179E201211D9849420160002161
:1095D0001798017019990A70032B00D817E64B46AB
:1095E000022B00D113E64B46032B00D10FE62B7C58
:1095F000002B00D1DBE26B692293002B00D009E73E
:10960000099B002B01D000F056FD6B7F002B00D092
:109610003CE3299A1370059B0B2B01D100F0E5FC6C
:10962000072B01D100F0FFFC062B01D100F07AFCE2
:109630004B46002B01D000F026FD2B7C002B01D1E6
:1096400000F009FD279B1893099B002B01D100F026
:1096500002FD1899179859F031FF002800D138E31E
:109660000C9B1868189B9846190034F06DFB179BEB
:10967000414698460F22180058F076FC00234246D7
:10968000D37326E3022B00D1DEE20123149A5B425E
:109690001360159A03331370099B002B03D0069BAC
:1096A000002B00D02DE2039B002B00D113E70121FA
:1096B00010F092FC002800D0E2E2079B002B00D1C2
:1096C00048E1149B1B6843451AD04246FA21149B7B
:1096D00089001A60884501D200F078FCDD4B98457E
:1096E00000D8A2E3404609F079FB10210300249A38
:1096F0001B980CF041F80D9B1B99186834F024FB63
:10970000139B1B68002B00D1F5E50F9B1B68984647
:109710004023EB5C002B03D001230F9A5B421360C4
:1097200049F040FC0F9B011E1B68189309D0642070
:10973000069B584309F052FB642800DC8AE264234C
:109740009846189B984500D1D5E5139B00221868D0
:1097500041462FF0B7FD42460F9B1A60CBE505202E
:10976000FFF78AF8AB7F012801D1FFF733FB052112
:109770005A1CD2B2EB18D977AA771300FFF72AFB4D
:109780000420FFF779F8012801D1FFF71BFBAB7F1D
:109790005A1CAA770422EB18DA77FFF713FB032091
:1097A000FFF76AF8012801D1FFF705FBAB7F5A1CD0
:1097B000AA770322EB18DA77FFF7FDFA0220FFF70A
:1097C0005BF8012801D1FFF7EFFAAB7F5A1CAA77AB
:1097D0000222EB18DA77FFF7E7FA0120FFF74CF8DF
:1097E000012801D1FFF7D9FAAB7F5A1CAA770122D1
:1097F000EB18DA77FFF7D1FA0020FFF73DF80128E0
:1098000001D1FFF7C3FAAB7F5A1CAA774A46EB187F
:10981000DA77FFF7BBFA0123E8602B7401F056FCFE
:10982000039B68616B722B7C002B01D0FFF7F0FB70
:109830002B78002B00D0BCE2079B002B00D1CCE0A2
:10984000002340222B742B720133AB542B70FFF793
:10985000EFFB10F0E9FA14E4129B1B78002B06D002
:109860000121404610F0B8FB002800D14DE3002351
:109870000B93ACE501230F9A5B421360079B002B0F
:1098800000D04DE74B46002B0DD12B7C002B0AD18D
:1098900001235B4218932B7A5A1E934142465B4246
:1098A0001A4090464DE701235B42189349E7002395
:1098B000099301330793FFF7A5FA039B002B3ED0D2
:1098C000069A002A00D190E1634B9A4200D84EE6F6
:1098D000624B9A4200D891E1614826F0B1FE3AAB62
:1098E0001874030400021B0E3AAA000E53749074FD
:1098F0003E994046002218F00BF9109B0121186890
:1099000010F06AFB002800D0E4E203231FE0002AE5
:1099100000D1CDE0002256E6039A002A00D0FCE0F8
:109920004A46002A00D084E12A7C002A00D080E147
:109930002A7A002A00D07CE1042B00D1FDE4012129
:10994000404610F049FB002800D1D1E20423169ACA
:109950001370F2E42B7A002B02D0E86B002801D1BF
:1099600001F0E6FB149B1B68834217D0FA21149B7D
:1099700089001860884200D221E3364B984200D813
:1099800068E209F02BFA10210300249A1B980BF0CF
:10999000F3FE0D9B1B99186834F0D6F9139B1B68D6
:1099A000002B00D1A7E40F9B1B6898464023EB5C7B
:1099B000002B00D1B0E101230F9A5B42136061E7F5
:1099C0004B46002B00D081E42B7C002B00D07DE4A3
:1099D0002B7A002B00D079E4ABE52B702B7A002B8F
:1099E00001D0FFF796FBFFF723FB0C2142A84AF0BA
:1099F000EBFC002800D0CFE1059B0B2B01D1FFF73A
:109A0000DFFB062B00D119E100D905E3013BDBB2F6
:109A1000032B01D8FFF769FB069B002B00D099E2CE
:109A20000C9B1B689846002B00D12AE501231C9350
:109A300000231893FFF7CDFB00232B74FFF7F0FAF8
:109A4000072B00D0A5E201231C93259B1893FFF759
:109A5000BBFBC0460F270000973A00001F4E0000D6
:109A60000A820500052B01D9FFF7E6FB14E5012B5F
:109A700000D162E47BE50121404610F0ADFA0028F8
:109A800000D0A2E4119B0121186810F0CDF99CE4EC
:109A90002B7A002B00D025E5012110F09DFA00283B
:109AA00000D02EE50D9B0121186810F0BDF928E5C6
:109AB00019990978002900D085E5199A1170032BAE
:109AC00000D98CE51A99179859F0F8FC002801D1B3
:109AD000FFF7A5FB40461A9934F036F9179B0F2281
:109AE000984618001A9958F03FFA00234246D3735B
:109AF0000C9B1B689846FFF792FB069B002B00D13E
:109B0000E9E4012110F068FA002800D029E1039B64
:109B1000002B00D0D1E5FFF7B6FB06990A1E01D055
:109B2000FFF7FEFBEA6BE4498A4201D9FFF7FCFB31
:109B30009DE7039B002B58D14B46002B00D0FEE63F
:109B40002B7C002B00D0FAE6F2E6039A002A00D123
:109B5000E6E6EA6BE7E72B7A2A70002B01D0FFF7E5
:109B6000D8FA03239846FFF771FA2B7C002B01D01B
:109B7000FFF7C1FB434618938DE6099B002B00D0ED
:109B80002BE1069B002B01D1FFF7F4FB059B112B6A
:109B900001D1FFF7EFFB129B079A1B780B93002A6A
:109BA00000D15BE6022B00D011E4FFF7E3FB099B39
:109BB000002B00D129E5069B002B00D125E5279934
:109BC000179859F07BFC002800D0C6E201214046DE
:109BD00010F002FA002801D1FFF72CFB0C9B0121A9
:109BE000186810F06DF9FFF725FBEB6BB24A934252
:109BF00000D8BCE4B14A934200D96DE6B04826F0E3
:109C00001FFD3AAB1875030400021B0E3AAA000EA2
:109C1000537590753F994046002217F079FF109BCD
:109C20000121186810F0D8F9002800D03CE1022387
:109C30008DE6002B01D0FFF780FB80E601231C930B
:109C4000269B1893FFF7C0FA3E33EB5C002B00D144
:109C500022E51AE5C3430200DB171A40904670E57F
:109C60001E9B414698461F22180058F07DF900239C
:109C70004146CB770A9B186834F066F8FFF71EFA66
:109C80000D9B0121186810F01BF916E554F0F4FC47
:109C90002C23FA21AA6AEB5C821AC9008A4209D3F2
:109CA0000133DAB2AB7F934200D8D8E113002C2104
:109CB000A8626A54EB18D87FFEF7E8FD2021030064
:109CC0002A9A42A80BF058FD0C9B42A9186834F060
:109CD0003BF80C9B0121186810F07EF9002801D197
:109CE000FFF7A4FA0C9B0121186810F0E9F8FFF7C0
:109CF000C4FB744850F05EF9734850F05BF930686B
:109D000053F000FC002054F0E3F84BB0F0BCBB462D
:109D1000B246A946A046F0BD4B46002B01D0FFF746
:109D2000EAFA2B7C002B01D0FFF7E5FA2B7A002B07
:109D300001D0FFF7E0FA434618930023984600E568
:109D4000099B002B01D1FFF7C6FB069B002B01D11D
:109D5000FFF7C1FB012110F03FF9002801D1FFF707
:109D600092FA0D9B0121186810F0AAF8039B002BB2
:109D700000D0A2E4FFF7C5FB032B01D1FFF7DDFA0A
:109D8000AAE510F051F8FEF70EFF0D9B01211868AF
:109D900010F096F8FFF7B5FB0B2242A94B4858F09C
:109DA000E3F8382300224A49CA54484B9846FFF743
:109DB0007DF9079B002B01D0FFF73EF9FFF7A3F9D0
:109DC000079A002A01D0FFF735F82B7A2A70002B6A
:109DD00001D0FFF79EF9FFF733F8129B1B78012B98
:109DE00001D1FFF7F4FAFF20000226F029FC3AAB7C
:109DF0001872030400021B0E3AAA000E53729072EE
:109E00003C994046002217F083FE119B01211868FF
:109E100010F0E2F8002801D1FFF7D9FA119B0121D7
:109E2000186810F04DF8FFF7D2FA6421404608F0A8
:109E3000D5FF0A21804608F0D1FF0A21189040463C
:109E400008F0CCFF189B0091239A10211B980BF06F
:109E500093FC50E4642108F0C1FF0A21804608F019
:109E6000BDFF0A211890404608F0B8FF189B0091EA
:109E7000239A10211B980BF07FFC8AE56421404651
:109E800008F0ACFF0A21804608F0A8FF0A211890CC
:109E9000404608F0A3FF189B0091239A10211B98BD
:109EA0000BF06AFCFFF70DFA109B0121186810F007
:109EB00007F802234BE5C046973A00001F4E00000A
:109EC0000099FF0084A906107CA8061045B702205F
:109ED00018B70220109B012118680FF0F1FF03232F
:109EE00035E5109B012118680FF0EAFF01232EE5EC
:109EF000109B012118680FF097FF27E5119B0121A6
:109F000018680FF0DDFFFFF760FA119B0121186858
:109F10000FF08AFFABE40D9B012118680FF0D0FF12
:109F2000FFF7B1F954F0A8FB3299319B0A68FA2186
:109F30001B78821AC9008A4205D301223299534004
:109F4000319A13700860002B00D1BDE02C9B189350
:109F5000FFF77FFB099B002B00D183E000231C93BC
:109F60001893FFF731F9944850F024F8934850F0D3
:109F700021F8002053F0ACFFC7E64B46002B77D109
:109F80002B7C002BE6D101231C932B9B1893FFF70E
:109F90001BF94B46002BF3D0012B40D04B46042B32
:109FA000D8D101231C9300231893FFF70DF9030068
:109FB0001021249A21980BF0DFFBFFF74CFA0300E5
:109FC0001021289A1B980BF0D7FBE2E4434610219E
:109FD000289A1B980BF0D0FBFFF78DFB1021289AD5
:109FE0001B980BF0C9FBFFF76CF954F045FB2E9959
:109FF0002D9B0A68FA211B78821AC9008A4205D370
:10A0000001222E9953402D9A08601370002B9DD188
:10A01000209B1893FFF71DFB072B00D113E5059B31
:10A02000112BBED0F8E454F027FB30992F9B0A681F
:10A03000FA211B78821AC9008A4205D3012230997D
:10A0400053402F9A08601370002B00D07EE7259BA9
:10A050001893FFF7FEFA2B9B1893FFF7FAFA0023E9
:10A06000002224E62B7C1C9300231893FFF7ACF806
:10A07000012B93D1D0E40FF0D7FEFFF7AEF90FF02C
:10A08000D3FEFFF761F8012B22D1059B112B49D19B
:10A0900054F0F2FA3499339B0A68FA211B78821A39
:10A0A000C9008A4200D24EE7012234995340339AC4
:10A0B0001370086047E7069B002B01D1FFF7A5FA54
:10A0C0000C9B1B6898467AE5269B1893FFF7C1FA0C
:10A0D000042B54D0099B002B69D12B7C002B02D17F
:10A0E0001C9B002B04D0189B002B01D0FFF7B1FA6A
:10A0F0000C9B012118680FF06FFF00280CD0069B05
:10A10000002B01D0FFF796F8EB6B9846002B01D09F
:10A11000FFF7C2F9FFF7CCF90C9B012118680FF08B
:10A1200083FEECE7069B002BD4D154F0A5FA3899B6
:10A13000379B0A68FA211B78821AC9008A4205D324
:10A14000012238995340379A08601370002B00D0D1
:10A15000FCE6399B1893FFF77CFA4046279933F0C9
:10A16000F3FD179B0F2298461800279957F0FCFE25
:10A1700000234246D3730C9B1B68984626E554F097
:10A180007BFA3699359B0A68FA211B78821AC90036
:10A190008A4205D3012236995340359A08601370DC
:10A1A000002B00D0D2E63A9B1893FFF752FA279B78
:10A1B0001893FFF74EFAC04650A806107CA8061068
:10A1C00000B50A4B83B01A68002A04D008484FF043
:10A1D000F1FE03B000BD0193F02201230549009375
:10A1E00092000023044853F061FEF2E7A88B02209E
:10A1F00010AC06102CAC0610898A001000207047A5
:10A200000A4B10B51B78002B01D0002010BD49F07F
:10A21000B1FE0028F9D04278037812021A438378FD
:10A22000C0781B04134300061843EFE7F9C002206F
:10A23000F0B504000E0089B000280ED149F09AFE56
:10A24000002843D0437802781B021343827812041B
:10A250001A43C3781B06134338D02E4B6F461C702D
:10A260002D4B1E6054F008FA012200232B4D2C497F
:10A270002A720A702B4AEB6010602B4A2860136028
:10A280002A4A686013602A4A13702A4B1B78002BF5
:10A2900032D154F0F1F9284B1860380001F028FB56
:10A2A000012319007A699140D02212065161AB72E4
:10A2B000002C0FD0002E04D120484FF07BFE09B0B7
:10A2C000F0BD31001E484FF075FEF8E71D484FF015
:10A2D00071FEF4E749F04EFE002819D04278037869
:10A2E00012021A438378C1781B04134309061943E9
:10A2F00015484FF05FFEE2E76946144850F00EFC47
:10A300000028C6D1039B124A1360124A1360C0E7AB
:10A310000021EDE7F9C00220E0860220D0540020A1
:10A32000F6C0022050840220648402209883022018
:10A33000F5C00220F7C0022054840220B8AC0610F9
:10A3400068AC061038AC061004AD0610A0830220DD
:10A350009C8302205884022010B547F0E5FB10BD15
:10A36000014B187A7047C046D0540020F0B5C6465D
:10A3700000B588B00500684601F0BAFA0123059AD5
:10A38000254C9340D022120693610023234AA372E6
:10A3900023721370224B1B78002B24D1214E0020F6
:10A3A0003778002F2ED1204BE26898461B68002B8F
:10A3B00012D129001D484FF0FDFD00231C4A3370C7
:10A3C00013601C4AA37213701B4A13601B4A13705C
:10A3D00008B080BCB846F0BD290019484FF0EAFD2E
:10A3E00043461F60E9E76946164850F097FB00288E
:10A3F000D4D1154B0398196809F0FFFB094E377843
:10A40000002FD0D009F082FC02000B000F48290079
:10A410004FF0D0FDD1E7C046D0540020F6C0022056
:10A42000F7C00220F9C0022064840220E8AD0610C3
:10A43000E0860220FAC002205C840220F8C00220DC
:10A4400088AD0610A08302209C83022048AD061030
:10A45000F0B5DE4657464E464546E0B5C148AFB07A
:10A460004FF0A8FDC04BC14F0193C14BC14E9A465E
:10A47000C14BC24D0393C24B0293C24B9B46C24B8E
:10A480000493C24B0A93C24B0D93C24B0B93C24B26
:10A490000993C24B0F93C24B1393C24B1993C24BF8
:10A4A0001D93C24B1193C24B1693C24B1F93C24BC9
:10A4B0002393C24B2493C24B2593C24B1893C24B98
:10A4C0001593C24B1493C24B0C93C24B1793C24BC0
:10A4D0000E93C24B2093C24B2193C24B1093C24B9D
:10A4E0001293C24B1A93C24B1B93C24B1C93C24B89
:10A4F0000893C24B1E93C24B2293C24B0593FA237F
:10A500009B00994654F0B8F83B68C31A4B4519D2E2
:10A5100001210B204DF04EF9002233789046002B9C
:10A5200037D02C78012C47D0022C00D197E0002C9A
:10A530000DD0642054F066F854F09EF83B68C31ABE
:10A540004B45E5D33860019848F0B8F8E0E7337838
:10A55000002B02D14346002B01D11420EAE749F039
:10A5600085FE052804D02B78002BE2D11420E1E7EA
:10A570004FF012FB041E00D199E1037D002B00D1A6
:10A5800095E10378032B00D1E6E14FF01FFB2B7818
:10A59000EAE749F071FD53461B7804008046834288
:10A5A000BFD02978002865D003984FF003FD5346AB
:10A5B0001C702C78012CB7D154F05EF85B465B68B8
:10A5C0008046C31A312BCED9049B1B78002B00D1B7
:10A5D00081E00A9826A950F0A1FA002800D07EE078
:10A5E000299B0D9A181C1168079309F006FB0B9A1A
:10A5F00006901168079809F057FB002800D097E0F3
:10A6000054F03AF8099B19687F4B411A994270D867
:10A610003378002B32D0FC21069C8905201C09F0E0
:10A62000EFFA09F06DFB5B46D8600C9B18680028B8
:10A6300051D009F03EFB011C201C09F02DFB5B46AC
:10A64000002849D01B7A002B00D02CE15B46424603
:10A650005A600023089A14202B7013706AE749F09F
:10A660000BFD041E00D07EE705984FF0A3FC1420DC
:10A670002C705FE702984FF09DFC98E749F07AFC58
:10A68000041E28D0FC210698890509F0B9FA09F0C2
:10A6900037FB5B46DA68904200D9B7E053F0ECFF35
:10A6A000109B04001B68C31A632B04D90E9B1B6804
:10A6B000002B00D027E149F05DFC00280BD0437847
:10A6C00002781B021343827812041A43C3781B06D4
:10A6D000134300D102E15B4642465A6043E7002340
:10A6E000069353F0C9FF099B1968474B411A9942D9
:10A6F0008ED911984FF05EFC5B461B7A002B00D080
:10A70000CDE03378002B00D1F1E015984FF052FCEA
:10A7100014984FF04FFC5B4642465A603378002B4A
:10A7200097D1089B1B78002B93D102332B7000E745
:10A730000B9B079A1A6053F09FFF099B18600F9BB1
:10A740001B78002B00D15BE7139B1B78002B00D0FC
:10A7500056E7139B1D981C70199B19684FF02AFC33
:10A760004EE7C04634AE061040A5061084650220B0
:10A77000FDC00220F9C0022060AE0610F6C0022023
:10A7800094AE0610D0540020F7C00220A08302200F
:10A790009C8302205884022054840220FAC00220A4
:10A7A000F8C002205C840220C8AE061010AF06106C
:10A7B0004CAF06105CAF061090AF0610CCAF061081
:10A7C00000B0061038B0061068B0061098B0061039
:10A7D000E0860220C0B0061064840220D8B00610C3
:10A7E00014B1061050840220988302202CB1061068
:10A7F00050B10610A8B10610F5C00220E0B1061055
:10A80000F0B1061004B20610B70B0000617823788F
:10A8100009021943A378821A1B040B43E1780692BC
:10A820000906194307918A4200D90691069B002B1D
:10A8300000D133E72100102226A809F02DFB079A4A
:10A84000069C131B269326AB1B8926AA0133138172
:10A85000100049F0F7FC5B46A446D9680E9A6144A3
:10A86000D9601368634413600F9B1B78002B00D1E1
:10A8700014E7139B1B78002B00D10FE7199B1A6874
:10A88000914200D20AE720984FF094FB5B461B7A76
:10A89000002B00D13FE72198FFF768FD3BE71698B2
:10A8A000FFF764FD2DE71798FFF760FD33E749F0E8
:10A8B00061FB002800D156E6437802781B0213435F
:10A8C000827812041A43C3781B06134300D14AE668
:10A8D00000210800FFF7ACFC2B7845E65B461B7AAD
:10A8E000002B00D117E72298FFF740FD13E749F04E
:10A8F00011F8002817D13378002B00D005E71898FD
:10A900004FF058FB07E70B2001214CF053FF0120CB
:10A9100049F040FD002837D10E9B1860109B1C6049
:10A92000129B1860C7E649F025FB00280AD043783F
:10A9300002781B021343827812041A43C3781B0661
:10A9400013433FD00B2049F0EBFC24984FF032FB2F
:10A9500025984FF02FFBDEE626A849F061FC002881
:10A9600000D100E626AAE37B927A9A4200D0FAE56B
:10A97000210026A8083157F037F9002800D0F2E569
:10A9800020004FF023F9EEE5129B1C6801341C6097
:10A9900048F0A0FA210002001A984FF00BFB129B1E
:10A9A0001968002900D186E61B984FF003FB0121AE
:10A9B0000B204CF0FFFE48F053FC00280CD1129BFA
:10A9C000186078E6052049F0ABFC1F984FF0F2FACA
:10A9D00023984FF0EFFA9EE61C984FF0EBFA002315
:10A9E000129A1360089A0133137048F0DFFB5B463C
:10A9F0001B7A002B00D18EE61E98FFF7B7FC8AE683
:10AA000010B549F039FB002801D1042010BD49F0F0
:10AA1000B1FA0028F9D0437802781B0213438278F8
:10AA200012041A43C3781B061343EED00020002102
:10AA3000FFF7FEFB0020E9E7002130B583B000916D
:10AA4000050049F041FD041E0AD048F043FA074BC7
:10AA5000010018004FF0AEFA0124200003B030BD11
:10AA6000290003484FF0A6FAF7E7C04678B206106F
:10AA700038B2061010B5114B1C7848F04BFF104B44
:10AA80001B78002B0ED00F4B1B7A002B10D1012C02
:10AA900012D0022C04D0002C00D00624200010BDBF
:10AAA0000524FBE749F066FA064B1B7A002BEED033
:10AAB00053F0E2FD012CECD10424EFE7F6C00220B4
:10AAC000F9C00220D054002010B50A4C206800289C
:10AAD0000AD0094B1B7A002B07D153F0F9F9002358
:10AAE000064823604FF066FA10BD0548FFF73EFCAC
:10AAF0002068F2E7F86D0220D0540020B8B20610AA
:10AB0000A8B20610F8B5DE4657464E464546040044
:10AB1000E0B5002853D02F4B2F4E1D78337A9A463C
:10AB200048F0F8FE737A070099462C4B1B78002BEF
:10AB300025D02B4B00201B68984600239B46337A78
:10AB4000002B30D1012D38D0022D40D0002D38D12E
:10AB5000534663704B4623774346A3615B4663606D
:10AB60000023606100201F4A2570A770A360E26087
:10AB70002361F0BCBB46B246A946A046F8BD49F0E9
:10AB8000F9F900281FD04278037812021A4383781B
:10AB90001B041343C27812061A439046C346337A05
:10ABA0000020002BCED053F067FDFA2133688900D6
:10ABB000C01A08F013F9012DC6D10425C8E70120F9
:10ABC000D7E70625C4E700239846C346E7E70525EF
:10ABD000BEE7C046F6C00220D0540020F9C00220D3
:10ABE000E086022004AC061070B5050049F044FA76
:10ABF000002813D0280049F06FFA041E09D048F04D
:10AC000069F9094B010018004FF0D4F90124200024
:10AC100070BD290005484FF0CDF9F8E704484FF022
:10AC2000C9F90324F3E7C04628B3061000B30610A1
:10AC3000D8B2061000B50F4B83B01A68002A04D0B2
:10AC40000D484FF0B7F903B000BD019380220123F6
:10AC50000A4900930A480023520053F027F90100E3
:10AC6000012803D007484FF0A5F9ECE706484FF05C
:10AC7000A1F9E8E7F86D022050B3061040A50610D0
:10AC800051A4001074B30610A8B30610F0B5264CFA
:10AC90000500267A89B0002E41D10127234B1F7071
:10ACA000234B186053F0E8FC224BE6601F70224BE8
:10ACB00020601860214B60601E60214B27721E606F
:10ACC000204B1E70204B6E461B78002B1BD153F07F
:10ACD000D3FC1E4B1860300000F00AFE012319005F
:10ACE00072699140D02212065161A372002D06D0E4
:10ACF000290017484FF05EF9002009B0F0BD154853
:10AD00004FF058F9F8E7694613484FF007FF00285D
:10AD1000DDD1039B114A1360114A1360D7E7114834
:10AD20004FF048F90120E8E7D0540020F9C0022094
:10AD3000E0860220F6C002205084022064840220B3
:10AD400098830220F5C00220F7C00220548402201C
:10AD500068AC0610B8AC0610A08302209C830220C9
:10AD600058840220D8B30610F0B5274C89B0237A56
:10AD7000002B02D1002009B0F0BD684600F0B8FDFC
:10AD80000123059A9340D0221206936100231F4AA3
:10AD9000A372237213701E4B1B78002B1ED1002050
:10ADA0001C4D2E78002E25D11B4FE2683B681B49B5
:10ADB000002B0ED11A484FF0FDF80023194A2B70D2
:10ADC0001360194AA3721370184A1360184A13705B
:10ADD000D0E718484FF0EEF83E60EEE769461648B7
:10ADE0004FF09CFE0028DAD1144B0398196808F044
:10ADF00004FFD5E708F08AFF02000B00104807495E
:10AE00004FF0D8F8D9E7C046D0540020F6C0022051
:10AE1000F7C00220F9C002206484022018B4061092
:10AE2000E8AD0610E0860220FAC002205C84022011
:10AE3000F8C0022088AD0610A08302209C83022067
:10AE400048AD0610F0B500260127244D89B0002139
:10AE50001022280009F01AF801AC214B20001E70C6
:10AE600000F046FD3A00069B20009A40D0231B06C6
:10AE70009A61AE7200F03CFD059D1A4CE9B22000CB
:10AE80004FF03CFF011E13D120004FF0E9FD011EE1
:10AE90001FD1154B290015481F704FF08BF814482F
:10AEA00046F018FE011E0BD012484FF083F80AE05E
:10AEB00011484FF07FF80E4846F00CFE011EF3D10A
:10AEC0000E484FF077F80E484FF074F8002009B0A4
:10AED000F0BD0C484FF06EF8EDE7C046D0540020AE
:10AEE000F6C00220A0830220F7C0022028B406107A
:10AEF000E474071000B5061090B40610C0B4061034
:10AF000040B5061060B4061010B5FFF79BFF002097
:10AF100010BDC046F0B5264C0500267A89B0002E3B
:10AF200041D10127234B1F70234B186053F0A4FB22
:10AF3000224BE6601F70224B20601860214B60603E
:10AF40001E60214B27721E60204B1E70204B6E46E8
:10AF50001B78002B1BD153F08FFB1E4B1860300069
:10AF600000F0C6FC0123190072699140D02212063C
:10AF70005161A372002D06D0290017484FF01AF82E
:10AF8000002009B0F0BD15484FF014F8F8E7694605
:10AF900013484FF0C3FD0028DDD1039B114A136015
:10AFA000114A1360D7E711484FF004F80120E8E791
:10AFB000D0540020F9C00220E0860220F6C0022012
:10AFC000508402206484022098830220F5C002206D
:10AFD000F7C002205484022068AC0610B8AC0610FA
:10AFE000A08302209C83022058840220D8B306103C
:10AFF000F0B5274C89B0237A002B02D1002009B08C
:10B00000F0BD684600F074FC0123059A9340D022FD
:10B010001206936100231F4AA372237213701E4B02
:10B020001B78002B1ED100201C4D2E78002E25D120
:10B030001B4FE2683B681B49002B0ED11A484EF0AB
:10B04000B9FF0023194A2B701360194AA3721370B9
:10B05000184A1360184A1370D0E718484EF0AAFF38
:10B060003E60EEE7694616484FF058FD0028DAD1F9
:10B07000144B0398196808F0C0FDD5E708F046FEA8
:10B0800002000B00104807494EF094FFD9E7C04674
:10B09000D0540020F6C00220F7C00220F9C00220E0
:10B0A0006484022070B50610E8AD0610E086022028
:10B0B000FAC002205C840220F8C0022088AD06108D
:10B0C000A08302209C83022048AD0610014BD86863
:10B0D0007047C046D054002000B50F4B83B01A68AB
:10B0E000002A04D00D484EF065FF03B000BD019367
:10B0F000802201230A4900930A480023520052F09B
:10B10000D5FE0100012803D007484EF053FFECE7BD
:10B1100006484EF04FFFE8E7F86D022050B30610E6
:10B1200040A5061051A4001074B30610A8B3061071
:10B130000C4B10B51B78002B02D00B4B186810BDC0
:10B1400048F018FF00280AD04278037812021A4308
:10B150008378C0781B04134300061843EFE70020F0
:10B16000EDE7C046F9C00220E0860220014B187AC4
:10B170007047C046D054002070B51A4E84B03000DD
:10B180004EF018FF184D28004EF014FF17491848CC
:10B190004EF010FF28004EF00DFF01230293002314
:10B1A000144C154A019300932021013320000AF02A
:10B1B000E3FA210011484EF0FDFE114911484EF00E
:10B1C000F9FE114911484EF0F5FE114911484EF0B3
:10B1D000F1FE28004EF0EEFE30004EF0EBFE04B023
:10B1E00070BDC04608260710B0B5061070B6061030
:10B1F0007CB60610C0C002208CB50610A0B60610A2
:10B2000098B50610B8B60610A4B50610D0B606104C
:10B21000E8B60610F0B60610F0B54E46914601228B
:10B2200057464546DE461300E0B5034085B001931E
:10B230003F4B050798463F4B6D0F9A461B78AE0073
:10B240002B417419A40007008B460291A0441A42B6
:10B250005BD14B46002B02D1FA239B009946052077
:10B2600006F0EAFE08F025FD0390484608F021FDAF
:10B270008F21C90508F0DBFC011C039808F0C3FC12
:10B28000F421890508F0BCFC8321C90508F0CFFC36
:10B2900008F036FD284B76199C460023274AB60055
:10B2A000644466442360B360F3603261606023608D
:10B2B000019B002B24D1434659461B6801264B4075
:10B2C0001A4080235B0143441A6032002368042142
:10B2D0009A4313008022520194466444236038004C
:10B2E00007F014F85346AE4052461B7833431370B0
:10B2F000012005B0F0BCBB46B246A946A046F0BD51
:10B30000029B0F4A1B049B46D5E7019B002B0CD0E8
:10B310000B049B460A4A434659461B684B401A4059
:10B3200080235B0143441A60E2E7044AF3E7C04626
:10B330000C00054004C1022000000540FFFF000092
:10B340000000FFFF10B5114C2368002B08D0104CF3
:10B350002368002B0CD00F4C2368002B10D010BD9D
:10B36000012051F04DFD2060094C2368002BF2D1E3
:10B37000012051F045FD2060064C2368002BEED1E2
:10B38000012051F03DFD2060E9E7C046FCB60220F7
:10B39000EC8A0220F48A022010B5144C01002378B4
:10B3A000002B22D1124807F0B1F90121122006F03A
:10B3B000ADFF0121132006F0A9FF0121102006F0A6
:10B3C000A5FF012007F0A4FB0A4BC20218600A4B3C
:10B3D00080011A40094B1343A022D20594466044D1
:10B3E0000361074B43600123237010BD1AC1022083
:10B3F00000C0034040120020DD7F00FF1100080064
:10B4000008C003400B4B10B5186800280DD0FA2176
:10B41000890051F0B9FE012809D0002053F03EF90F
:10B42000054B010018004EF0C5FD002010BD0120A5
:10B43000FCE7C046FCB6022008B70610054B10B565
:10B440001868002804D000230022002151F0EEFBF0
:10B4500010BDC046FCB6022000B583B06B46012289
:10B46000D91D087002485EF017FE03B000BDC0464B
:10B4700000C0034010B582B06B46DC1D0100012303
:10B48000220003485EF0C0FD207802B010BDC04627
:10B4900000C0034070B51A4D0C002B68002B01DB77
:10B4A0001F2905D80100220016485EF0F5FD70BD89
:10B4B000A022D20594469B0163441860D9611148CB
:10B4C00007F01EFA011E0AD063011B1B9B001B190B
:10B4D000980107F083FC012801D953F093F80A4B37
:10B4E00080219C462A6849049201624413680B42F9
:10B4F000FCD110220349CB681A42FCD1D7E7C046E1
:10B500004012002000C003401000005010B513008E
:10B510000A00010001485EF077FD10BD00C0034045
:10B5200010B50100014807F08FF910BD00C00340BD
:10B5300070B502250B4C0C4E636835602B40551ED0
:10B54000AA410138D2010243481E814189010A43C0
:10B55000CF21246862400A4004490A60044A13600B
:10B5600070BDC04600C0034004F0034000D003405B
:10B5700004E00340F0B5C64600B5134F0500386837
:10B580000C0090461E0082B000281AD0002918D066
:10B59000FA21890051F0F8FD012812D1220043461A
:10B5A00029000A48009605F05DFD002304000022F2
:10B5B0000021386851F03AFB200002B080BCB84648
:10B5C000F0BD01246442F7E7EC8A02204812002013
:10B5D000F0B5C64600B5134F050038680C0090461C
:10B5E0001E0082B000281AD0002918D0FA21890044
:10B5F00051F0CAFD012812D12200434629000A4811
:10B60000009605F039FD002304000022002138686F
:10B6100051F00CFB200002B080BCB846F0BD012404
:10B620006442F7E7EC8A022048120020F0B5474652
:10B63000CE4680B51D001F4B060018680C00170091
:10B64000984683B0002831D000292FD0002D2DD06E
:10B65000FA21890051F098FD012827D1164B00905E
:10B66000994622003B003100484605F0FBFC0028CB
:10B6700015DB00232A003100009348460A9B05F0A1
:10B68000FBFC43460400002218680021002351F00F
:10B69000CDFA200003B0C0BCB946B046F0BD434669
:10B6A000002218680021002351F0C0FA01246442EE
:10B6B000EFE7C046EC8A0220481200200123D02286
:10B6C00083401206002901D0536170479361FCE763
:10B6D000D02380221B0692045A617047D023802217
:10B6E0001B0692049A6170477047C04610B504006B
:10B6F0001C282DD80B1C642921D8DBB21804642126
:10B70000C01A07F06BFB144B22071B78520F134132
:10B710000121194215D093009B18104A9B009446B2
:10B720006344214216D00E4900041A6842400A4080
:10B73000802149018C4663441A60012010BD6423B6
:10B74000DBE7FA2281B292002000FFF765FDF4E703
:10B750000020F3E70349E8E704C102200C0005409C
:10B760000000FFFFFFFF000010B52A4C2378002BDC
:10B7700023D12949294806F0C9FF0121122006F0EA
:10B78000C5FD0121132006F0C1FD0121102006F0A6
:10B79000BDFD012007F0BCF9214BC2021860214B0E
:10B7A00080011A40204B1343A022D20594466044E6
:10B7B00003611E4B436001232370112006F03CFE01
:10B7C000D024802324069B0263620220636106F07A
:10B7D00033FE04230320636206F02EFE0823144A7E
:10B7E0006362127813420DD0124B134A1B68DB437D
:10B7F0001B0C1B041360D02304221B065A61043265
:10B800009A6110BDFA220D4992000720FFF704FD4E
:10B81000F1E7C0461AC10220A0ACB90300C0034042
:10B8200040120020DD7F00FF1100080008C0034027
:10B8300004C102204800054048100540FFFF0000F9
:10B8400010B5134C2378002B17D11249124805F07C
:10B85000E1FB0321142006F059FD0321152006F019
:10B8600055FD00220121142006F06AFD002201216D
:10B87000152006F065FD012323700E2006F0DCFD87
:10B88000D02380221B06D2015A625A6110BDC046E5
:10B89000FBC00220801A060048120020020030B5CA
:10B8A000034B32CB32C232CB32C212CB12C230BDCA
:10B8B00028750710020030B5024B32CB32C212CBD2
:10B8C00012C230BD48750710020030B5024B32CBB2
:10B8D00032C212CB12C230BD5C750710020030B507
:10B8E000024B32CB32C212CB12C230BD7075071080
:10B8F000020030B5034B32CB32C232CB32C21B68AE
:10B90000136030BD8475071010B5144C2378002BDC
:10B9100017D11349134805F07DFB0321142006F0CD
:10B92000F5FC0321152006F0F1FC00220121142072
:10B9300006F006FD00220121152006F001FD01237D
:10B940002370012006F078FDD02302221B069A62A4
:10B9500001210022012006F0F3FC10BDFBC00220F3
:10B96000801A060048120020F0B557464E4645465C
:10B97000DE46E0B5264B85B09946264B264E019310
:10B9800002ABDD1D254B264F9A46264B9846FA23DF
:10B990009B009B4652F070FE4B461B68C31A5B45EA
:10B9A00004D34B461860019846F088FE01210E2012
:10B9B0004BF000FF00242A003068E1B246F046FC5C
:10B9C000002820D12B78013B5A4253413B5501348A
:10B9D000102CF0D151463B7B09785A425341DAB2E0
:10B9E000994209D0434641461B780133DBB20B70C4
:10B9F000022B04D953461A70434600221A70322093
:10BA000052F000FEC6E70134102CD4D1E2E7C04664
:10BA10007465022034B70610709C02200BC102200E
:10BA2000F09C02200AC1022070B5494C86B02378F0
:10BA3000002B02D0002006B070BD10220021454826
:10BA400008F024FA002046F00BFB434D2860002844
:10BA500078D001AEFFF758FF3000FFF73FFF317895
:10BA6000286846F00FFD061E60D12378002B57D0C2
:10BA7000032369462868009346F074FC2378002B62
:10BA80004ED000220321286846F060FB2378002B6B
:10BA900046D00D2369462868009346F063FC23785E
:10BAA000002B3DD000220D21286846F04FFB237863
:10BAB000002B35D00B2369462868009346F052FCD2
:10BAC0002378002B2CD000220B21286846F03EFB67
:10BAD0002378002B24D0862369465B0028680093D6
:10BAE00046F040FC2378002B1AD00A236946FF3326
:10BAF0002868009346F036FC2378002B10D085236D
:10BB000069465B002868009346F02CFC2378002BE4
:10BB100006D010236946FF332868009346F022FCC4
:10BB200001230E4823704EF045FA83E746F0ACFD42
:10BB30000B4B010018004EF03DFA052E05D8094BBD
:10BB4000985D78E708484EF035FA042073E7C04660
:10BB50000CC10220F09C0220709C022080B70610CD
:10BB600068B70610A075071048B7061000B50D4B52
:10BB700083B01A68002A01D003B000BD01930123ED
:10BB80000949009309480023C03252F08FF9012877
:10BB900003D007484EF00EFAEEE706484EF00AFAD8
:10BBA000EAE7C046209E022034B7061069B90010AB
:10BBB000D0B70610A8B70610084B1B78002B0AD088
:10BBC0000F2806D8002904D0054B1B5C00200B7001
:10BBD00070470320FCE70220FAE7C0460CC10220B0
:10BBE000F09C022030B5104B04001B7883B0002B72
:10BBF00016D00F2812D86B460021581D032208F0DA
:10BC000045F90A4B01AD290018682C7046F0AAFBD3
:10BC1000052807D8064B185C03B030BD0320FBE7AE
:10BC20000220F9E70420F7E70CC10220709C0220F3
:10BC3000A07507100D4A0300127810B5002A11D024
:10BC40000F280DD801394A425141CAB20849086843
:10BC5000190046F07BFA052806D8064B185C10BD83
:10BC60000320FCE70220FAE70420F8E70CC10220D9
:10BC7000709C0220A075071010B50623014A09F038
:10BC80007BFD10BD04B8061010B5024802F086FD19
:10BC900010BDC0468084022010B502F073FB10BDB9
:10BCA000002801D04623036000487047E475071060
:10BCB00010B505484BF0F8FB041E01D1200010BD63
:10BCC00002484EF077F9F9E7A875071018B8061082
:10BCD00000487047687B07100020704710B5054882
:10BCE00046F0DEFC041E01D1200010BD02484EF0DB
:10BCF00061F9F9E75C7B0710E8C40610002801D061
:10BD00001023036000487047DC7B07100020704759
:10BD100010B50C0082B0002905D06B46D91DFFF785
:10BD20004BFF002802D0012002B010BD6B46DB792A
:10BD3000013B5A4253412370F6E7C04610B5FFF766
:10BD400079FF431E9841C0B210BDC04610B50548EA
:10BD500046F01EFD041E01D1200010BD02484EF029
:10BD600029F9F9E7C07B071040C50610002805D067
:10BD7000002903D0036900200B6070470120FCE715
:10BD80000020704710B5041E07D008484EF012F985
:10BD900023690020002B02D010BD0120FCE7002108
:10BDA00003484EF007F90320F6E7C04664C60610C4
:10BDB00090C6061070B50C0016001D0082B0002859
:10BDC0000BD007484EF0F6F8002332000093200015
:10BDD0002B0048F079FB02B070BD0120FBE7C046A4
:10BDE000C0C6061070B5002817D002698A4216D363
:10BDF000541A0461046247F071FD051E08D047F033
:10BE000069F8094B010018004EF0D4F8280070BD05
:10BE1000210006484EF0CEF8F8E70125F6E7044881
:10BE20004EF0C8F80325F1E754C706102CC70610DA
:10BE3000F4C60610002070470020704770B50C0053
:10BE4000002813D00161016247F048FD051E08D0AB
:10BE500047F040F8064B010018004EF0ABF8280000
:10BE600070BD210003484EF0A5F8F8E70125F6E77C
:10BE700054C706102CC7061070B5041E1BD00569E8
:10BE800041614D192A000D484EF094F820002561BB
:10BE9000256247F023FD041E08D047F01BF8084B2D
:10BEA000010018004EF086F8200070BD29000548FA
:10BEB0004EF080F8F8E70124F6E7C0467CC706108C
:10BEC00054C706102CC7061010B50B484EF072F878
:10BED0000A490B4847F0AAF8041E04D109484EF05D
:10BEE00069F8200010BD46F0F5FF074B010018006F
:10BEF0004EF060F8F5E7C046A4C70610B0840220F3
:10BF00009C7C0710D4C7061004C80610F0B52A4C54
:10BF10008788A54405000100062268466C4607F0A4
:10BF2000BBFF002F29D1254B3220EB5A244DE38053
:10BF30000123AA6800219340D0221206536105F024
:10BF40005DFC0826002020211E4A93691942FCD17D
:10BF50002378013013600134B042F6D30822194926
:10BF60008B691A42FCD10123AA689340D0221206A1
:10BF7000936183239B009D44F0BD3E00A91D3A00C0
:10BF8000A01D07F089FF08360C4BB6B2EA5AA31978
:10BF9000991E0A70013B120A1A700123084D3220C3
:10BFA000AA6800219340D0221206536105F026FCB6
:10BFB000002EC7D1D2E7C046F4FDFFFF0602000005
:10BFC0000069022000400340304BF0B546469846D9
:10BFD000D6464F4681234246C0B59B00D35C84467B
:10BFE0009A46002928D000258023A946284F294AAF
:10BFF000DB00FB5ABC5A020008181D0001339B05E8
:10C0000016789B0DA34228D001327E559042F4D180
:10C010008022D200BB524B46002B15D15346002B39
:10C020000AD0802342469B00D0581B4C241A8C42D5
:10C0300000D90C00002C1AD1E0BCBA46B146A84683
:10C04000F0BD8022D200BB520122144BFA54114B96
:10C05000FC525346002BEFD0E3E70134A405013234
:10C06000A40D7E559042ECD00125A946C5E72200DB
:10C070006146404407F010FF802342469B00D2589F
:10C08000A4184246D45000231355D5E74C8D022006
:10C09000548F022002040000FF010000040400008D
:10C0A000F0B5DE46574645464E46E0B5C54CC64857
:10C0B000A5444DF07FFF28ACC44D2000FFF718FCCD
:10C0C00023002A0013CB13C213CB13C2E121012496
:10C0D0001B6849021360BE4806F020FC00230122C1
:10C0E0000821BB4806F0AAFC0121B94806F0E2FC91
:10C0F0002100AA68D02391401B069961E121B5482F
:10C1000049024DF057FF4AF013F8B3484DF04CFF89
:10C11000B24B0121B2481C704DF04CFFB14BB24FF5
:10C120000393B24BBA460B93B14BA94C0293B14B5C
:10C130000693B14B1B93B14B9B46B14B0893B14B4C
:10C140000493B14B0593B14B9846B14B4746994682
:10C15000B04B0D93B04B1193B04B1293B04B139364
:10C16000B04B1493B04B1593B04B1C93B04B1D9335
:10C17000B04B1E93B04B1F93B04B2093B04B0E931C
:10C18000B04B2593B04B0993B04B2693B04B2793FC
:10C19000B04B1693B04B1793B04B1893B04B199309
:10C1A000B04B1A93B04B2193B04B2293B04B2393D7
:10C1B000B04B0C93B04B0793B04B2493B04B0F9301
:10C1C00052F05AFAFA22039B92001B68C31A934258
:10C1D0005AD2012104204BF0EDFA029B1B78002B70
:10C1E00007D052F049FA069B1968A64B411A9942AA
:10C1F00050D849F0B3FF52F03FFA002306009846AA
:10C2000010253B8052F038FA801B632838D8A36988
:10C210001D4214D1A3691D42FCD142462368DBB202
:10C22000002A10D1AA2BEDD14A461370A93B3B80BE
:10C2300052F022FA5346186001239846E2E70120A3
:10C2400052F0E0F9DEE73A88511C398049468B54B8
:10C2500052F012FA534618603B88052B06D94A461D
:10C2600092881100083189B28B4225D252F004FA2B
:10C2700053461B68C01A6428DED90D984DF09AFE0B
:10C280000A2052F0BFF99BE7039B18600B9846F019
:10C2900015FA9EE71B984DF08DFE029B1B78002B34
:10C2A00000D036E10023029A1370049A13605A46B4
:10C2B0001360059A13609CE74B4688468F211B68E4
:10C2C0008900B49326AB5B181A80002A00D026E1BF
:10C2D00043468E204B445A1E1278023B1B781202B2
:10C2E00013438000684A26A90918B4A88B5249F064
:10C2F000A7FF051E52D1654A26AB9B181B78012B60
:10C30000BED8634A26AB9B181B78622B00D110E184
:10C3100000D9C3E0602B00D148E2612B00D186E157
:10C32000012B00D17FE1062B00D060E18F2226ABEC
:10C3300092009B181B88032B00D873E2082B00D1B6
:10C34000E9E226A98C46534BFFA863441900042256
:10C35000DC3007F0A1FD0021FFABDC331E68339118
:10C360003296300000F0C4FB051E00D08CE2310094
:10C3700012984DF01FFE00F031FC474A26AB9B1887
:10C3800010221B7801950095FF21FFA8DC3049F0B1
:10C3900015FFFFA8DC30FFF7B9FD71E749F08CFF0E
:10C3A00001000F984DF006FE3B4A302026AB9B184B
:10C3B000012226A909181B780A70019232AA00925C
:10C3C0001122E1E71CF9FFFF40C8061000690220B6
:10C3D0000040034058C80610C9BF001006C1022023
:10C3E0009CC80610786502205C8B0220CCC8061021
:10C3F000F4C002208C830220D8C80610908302204B
:10C4000008C906108483022088830220E8C0022025
:10C410006493022034C906104CC9061064C9061082
:10C4200098C90610B8C90610E4C9061010CA06104B
:10C430003CCA061064CA061090CA0610ACCA0610A0
:10C44000D0CA0610F4CA06108473022020CB06104E
:10C4500050CB061084CB0610A4CB0610CCCB061014
:10C4600004CC06103CCC061068CC061094CC061008
:10C47000B4CC0610548F02204C8D0220C8CC06107C
:10C48000ECCC061060EA0000060200003902000051
:10C490003A0200003E0200003B020000F02B00D1F7
:10C4A00054E1F12B60D0632B00D0A0E017984DF041
:10C4B00081FD029B1B78002B00D17BE2049B186856
:10C4C000002800D0F6E15B461968059B1A68914286
:10C4D00000D1ABE119984DF06DFD029B1B78002B4C
:10C4E00000D061E20023029A1370049A13605A4646
:10C4F0001360059A136022984DF05CFDDD4A3020F0
:10C5000026AB9B18062226A909181B780A70053A43
:10C5100053E75B46089819684DF04CFDC2E64B4660
:10C5200026A88446991DD44B6344180007F0B4FC38
:10C53000CEE623984DF03EFD029B1B78002B00D0E9
:10C54000E3E10022029BCB491A70049B1A605B4610
:10C550001A60059B1A6026AB5B183D391B78FF39C2
:10C5600001920092103210E78F2226AB92009B18A6
:10C570001E88002E30D026A98C46BF4B3200634463
:10C58000190032A807F088FC302226AB9B189D5575
:10C5900080230126079A9B00D550984632A8043381
:10C5A000D6544DF0D3FA8123079A9B00B149D55454
:10C5B00026AB5B181B78002800D0EAE1404611004A
:10C5C0001258002A00D1E0E192B201920091F122CA
:10C5D000DAE620984DF0EEFCA64A302026AB9B18F8
:10C5E000032226A909181B780A70023AE5E6A14A37
:10C5F00026AB9B181978B4A849F07EFD002800D01E
:10C600003EE69E4A26AB9B18197824984DF0D2FC42
:10C61000984A302026AB9B18022226A909181B78BD
:10C620000A70013AC9E611984DF0C4FCA5E6029BD8
:10C630001B78002B00D1F0E08F2226AB92009B18D4
:10C640001B88984652F018F8069B424618605B46D5
:10C650001968059B52181B689A4200D982E1002391
:10C660000A934346002B68D0464601E0002E64D072
:10C67000049B1B689846802342465B019B1A1D1C45
:10C680009BB2B34200D9351C26AA94467A4B0A9A2B
:10C69000634494460998ADB2634419002A004044AB
:10C6A00007F0FAFB0A9A4346AA1892B20A9280222D
:10C6B00004995B19761B0B60B6B252019342D5D335
:10C6C0005B461D68269829004DF074FCEFF3108836
:10C6D00072B68021280049015DF0CEFC802228003E
:10C6E000099952015DF0A8FC88F310885B461D682B
:10C6F00080235B019C465B46002265441D60049BD1
:10C7000028001A60059B1B68984607F0D2FA5C491E
:10C7100007F08DFA1090404607F0CBFA011C1098F4
:10C7200007F071FA07F0F2FA4246009001912900F1
:10C7300027984DF03FFC002E9AD14E4A26AB9B180D
:10C7400000221B780192009210321DE680230C9A81
:10C75000DB00D15A4B4BD25A914203D28023DB00EB
:10C760009C4661444348891A26AB1B1889B21B7842
:10C7700000294ED080250E1CAD00A94200D92E1CE8
:10C780000021B6B232A80C9D0131AD5C0132920598
:10C7900089B20570920D01308E42F4D839490C9857
:10C7A000425232AA00920196F022EDE58F2226AB8A
:10C7B00092009B181B88032B00D80AE726A98C46F9
:10C7C0002D4B04226344190032A807F065FB329E0A
:10C7D000159831004DF0EEFB029B1D78002D00D026
:10C7E000BCE08022731E5203934200D39FE00123DA
:10C7F000029A1370049B1D605B461D60059B1E60C2
:10C8000051F03AFF069B310018601E984DF0D2FBA4
:10C81000B3E5102201910091B6E50E984DF0CAFBE8
:10C82000169869E614984DF0C5FBD5E61A984DF0B8
:10C83000C1FB0022029B0F491A7026AB5B18FFA8B0
:10C840003D391B78FF3901920092DC30103249F0FB
:10C85000B5FCFFA8DC30FFF759FB642051F0D2FE95
:10C8600021984DF0A7FB0A220021002005F0A4FE2C
:10C8700006E5C0463B0200003E0200003A0200000E
:10C880000000C8420204000000F06CFB0100139895
:10C890004DF090FB4F4A2F2026AB9B18032226A970
:10C8A00009181B780A7026A98C46023A01922E328A
:10C8B000624484E55B461B6805009846099BFF219E
:10C8C0009C46FF358D432A1A604407F0DFFA424642
:10C8D000290018984DF06EFBEFF3108672B6802396
:10C8E000049A5B0112685B1B934267D32A0040469F
:10C8F00009995DF0A1FB86F310885B46049A1B68DA
:10C9000012689B185A461360DDE55B460898196863
:10C910004DF050FB15E626A98C462F4B08226344A8
:10C92000190032A807F0B8FA329E339919E53100A0
:10C930001D984DF03FFB1F984DF03CFB254A2F20E2
:10C9400026AB9B18072226A909181B780A70063AFD
:10C9500026A98C4601920200624430E51C984DF0F5
:10C9600029FBE8E7424625984DF024FB029B1B7803
:10C97000002B29D10023029A16981370049A136091
:10C980005A461360059A1360B6E501920092102290
:10C99000FAE42F20022226A909180A7026A902000B
:10C9A0008C46019662440AE55B46089819684DF08A
:10C9B00001FB97E50E984DF0FDFA9CE5802140467D
:10C9C00049015DF059FB91E75B46089819684DF005
:10C9D000F1FACFE73B0200003E02000030B50D4CFB
:10C9E00083B02568002D04D00B484DF0E3FA03B066
:10C9F00030BD012390220093084900230848019488
:10CA0000920051F053FA0128F1D006484DF0D2FAC5
:10CA10002560ECE75C93022008CD0610CCC8061018
:10CA2000A1C0001028CD061010B5FFF76FFA10BD99
:10CA300030B51C4B04001B788DB0002B2DD0002886
:10CA40002DD051F019FEFA21174B89001B6803AD58
:10CA5000C01A06F0C3F900230200144908684968A7
:10CA600012184B41290068460092019355F014FDBD
:10CA70000F4A00209446089B63442380079B0133A0
:10CA8000A370069BE370059B2371049B6371039B5A
:10CA9000A371099BE3710DB030BD0320FBE70220B9
:10CAA000F9E7C04607C10220648B022048530020EA
:10CAB0006C0700000B4B00201B78002110B5002BE9
:10CAC0000FD051F0D9FDFA21074B89001B68C01A1D
:10CAD00006F084F9002302000449086849688018B8
:10CAE000594110BD07C10220648B02204853002029
:10CAF000F0B54546DE4657464E46E0B52F4D8DB063
:10CB00006B688B424EDC4AD002AC009001916846C3
:10CB1000210055F0C1FC2A4A079B944663449FB20A
:10CB2000069B029A0133DEB2FF231A409246039A13
:10CB30001A409146049A1A409046059A1A40214B91
:10CB400093461B78002B37D00C22002108A807F051
:10CB50009DF91D4B20009C46534602934B46039380
:10CB6000434604935B466744013E05930797069648
:10CB700055F09AFE6B688B4219DC15D0134B03C33A
:10CB800051F07AFD124B012218600020114B1A70EF
:10CB90000DB0F0BCBB46B246A946A046F0BD2B681E
:10CBA0008342B1D90420F3E72B688342E6D90A48CF
:10CBB0004DF000FA0420EBE70320E9E740530020A2
:10CBC0006C07000007C1022094F8FFFF48530020C3
:10CBD000648B022008C1022048CD061030B5254CD8
:10CBE000A544254C2378002B3DD000F0FDFD002806
:10CBF00037D02378002B05D1012420008F239B0000
:10CC00009D4430BD51F038FDFA211C4B89001B6852
:10CC1000C01A06F0E3F800230200194908684968C1
:10CC200012184B41029203931A43E5D015490A2288
:10CC300004A843F0C5FF011E17D1082201AB02A9C9
:10CC400004A844F025FA0500040004A844F0C2FB3F
:10CC5000002D02D1019B082BCFD029000A484DF0AE
:10CC6000A9F90524C9E70324C7E708484DF0A2F94C
:10CC70000524C2E7C4FDFFFF07C10220648B022028
:10CC80004853002078CD0610BCCD061088CD061084
:10CC900030B51E4CA54400F0A7FD002828D0012285
:10CCA0001B4904A843F08CFF002821D1082201ABC6
:10CCB00002A904A844F0F2F80400050004A844F016
:10CCC00089FB002C10D1019B082B0DD11149039B2E
:10CCD0004A6802989A4214DC10D00F4A09C251F0F7
:10CCE000CBFC0E4B186004E029000D484DF062F9B2
:10CCF000062420008F239B009D4430BD0A68824299
:10CD0000EBD908484DF056F90424F2E7C4FDFFFFC3
:10CD100078CD06104053002048530020648B022039
:10CD2000E8CD061010CE0610F0B5CE46474680B5C9
:10CD3000714E97B03378002B05D0002017B0C0BCDF
:10CD4000B946B046F0BD6D480CAC4DF033F9242225
:10CD50000021200007F09AF807AB69490093694861
:10CD600006AB05AA54F0C4FE674905A856F0A6FB19
:10CD7000002800D1A0E0654905A856F09FFB0028D7
:10CD800000D198E0624905A856F098FB002800D130
:10CD900094E0604905A856F091FB002800D190E08E
:10CDA0005D4905A856F08AFB002800D18CE05B495C
:10CDB00005A856F083FB002800D188E0584905A853
:10CDC00056F07CFB002800D184E0564905A856F0B7
:10CDD00075FB002800D180E0534905A856F06EFB92
:10CDE00000287DD0514905A856F068FB00287AD06C
:10CDF0004F4905A856F062FB002877D04D4905A899
:10CE000056F05CFB002874D04B4A069B9446E360C6
:10CE1000079B0AAD6344636108AA4849009509ABC2
:10CE2000474854F065FE089B2000A360099B63609F
:10CE30000A9B0C9355F038FD424F0A903860796098
:10CE400028000B91210055F027FB3F4B61699C4660
:10CE50000C98A368FF259946614484466368207B4B
:10CE60002B402269644601934B4680462C40013298
:10CE70001D4089B24346D2B23448029400954DF029
:10CE800099F8FFF705FF002808D131484DF092F8D6
:10CE90000123304833704DF08DF84EE72E484DF0A9
:10CEA00089F8386879682D4B1860596051F0E4FBB7
:10CEB0002B4B1860ECE701202061A5E702202061E0
:10CEC000A2E7032020619FE7042020619CE7052062
:10CED000206199E70620206196E70720206193E70B
:10CEE0000820206190E7092020618DE70A20206159
:10CEF0008AE70B30206187E707C102204CCE06107D
:10CF000070CE061098B506107CCE061080CE0610A6
:10CF100084CE061088CE06108CCE061090CE061059
:10CF200094CE061098CE06109CCE0610A0CE061009
:10CF3000A4CE0610A8CE061094F8FFFFACCE0610C3
:10CF4000B8CE0610405300206C070000C4CE061077
:10CF5000F8CE06104CCF061020CF06104853002004
:10CF6000648B0220062803D8024B8000C05870470B
:10CF70000148FCE7D47C071070CF061000487047CA
:10CF800060EA000010B500F02FFC10BD30B51A4C5F
:10CF90000500A54400F028FC00281DD0002D21D05C
:10CFA0000122164904A843F00BFE002814D10822E0
:10CFB00001AB02A904A843F071FF040004A844F0E7
:10CFC00009FA002C0ED1019B082B0BD1039B029A6E
:10CFD000002B09DD0CC500E0022420008F239B00FC
:10CFE0009D4430BD0124F8E7002B02D104498A4258
:10CFF000F0D80324F1E7C046C4FDFFFFE4CF0610DC
:10D00000FFE00B5E10B5194CA5440090019100F0B3
:10D01000EBFB002828D0019B002B1DDD0A221449C0
:10D0200004A843F0CDFD002804D001208E239B00EE
:10D030009D4410BD0822694603AB04A844F028F8BB
:10D04000040004A844F0C6F9002CEED10398083877
:10D05000431E9841C0B2E9E7002B03D1054B009A6B
:10D060009A42DBD80320E1E70220DFE7C8FDFFFF9B
:10D07000E4CF0610FFE00B5E10B5054849F028F933
:10D08000041E01D1200010BD02484CF093FFF9E7C7
:10D09000F07C0710F0CF0610F8B5CE46474623487F
:10D0A00080B54CF087FFFFF73FFE002836D151F0E6
:10D0B000E3FA1F4B1F4E9946FA239B0098461E4FDA
:10D0C000306051F0D9FA3B68C31A43451CD20121A4
:10D0D00003204AF06FFB49F025F9050051F0CCFA26
:10D0E00033680400C31AAB4204D349F02BF900287B
:10D0F0000FD13460FA20800051F084FA51F0BCFA6C
:10D100003B68C31A4345E2D33860484645F0D6FA37
:10D11000DDE7FFF7CFFC49F0EBF8EAE7FFF722FF86
:10D12000064B010018004CF045FFC0E730D0061058
:10D1300074D00610608B02207C6502204CD0061053
:10D1400030B50D4C83B02568002D04D00B484CF051
:10D1500031FF03B030BD0123802200930849002332
:10D1600008480194920050F0A1FE0128F1D0064831
:10D170004CF020FF2560ECE76093022078D0061089
:10D180009CD0061099D00010A8D00610F0B5DE464D
:10D1900057464E464546E0B5CB4CA54451F06CFA97
:10D1A000CA4B27909A461B68002B00D1E1E2C84B7E
:10D1B00099461B68002B00D1E7E20023C54CFA27F3
:10D1C000237051F059FA6060C3484CF0F3FEC34B32
:10D1D000C34E0693C34BBF009846C34B0E93C34B3D
:10D1E0001293C34B1C93C34B2193C34B0B93C34B61
:10D1F0001393C34B0F93C34B2493C34B2293C34B43
:10D200000993C34B1F93C34B2593C34B1E93C34B2F
:10D2100019934CAB9B46C24B1A93C24B1B93C24B08
:10D220001593C24B2093C24B1893C24B1693C24B1B
:10D230001093C24B1193C24B0793C24B0C93C24B3A
:10D240001D93C24B1493C24B2393C24B0893C24B02
:10D250001793C24B0A9351F00FFA3368C31ABB42BB
:10D2600055D2012100204AF0A5FA51F005FA636871
:10D270002178C01AA060052900D91BE14346890026
:10D280005B589F4604254B461868002819D0002299
:10D290002DA94FF0EBFE012813D1237C002B0DD0DC
:10D2A00053461868002806D0FA2189004FF06CFF19
:10D2B000012800D15EE107984CF07CFE013D002D75
:10D2C000E1D1A74BA2689A4217D949F093FA051EFB
:10D2D00000D11AE251F0D0F960600EE06378012BC2
:10D2E00000D1DAE1FA23DB00984206D39D4B23807C
:10D2F00051F0C2F900236060A360642127A851F0B7
:10D300002FF951F0B9F93368C31ABB42A9D3306081
:10D31000069845F0D3F9A4E700232374089B1D78F1
:10D32000002D00D1BFE1904B9842E6D9012117981A
:10D330004CF040FECEE749F0F1F8051E00D07DE14B
:10D340000E984CF037FE74A849F0E2FB2378E560B4
:10D35000022BD2D063700223237051F08DF9A560A7
:10D360006060CAE70123B842C1D2C6E70B9D012223
:10D3700029007E4843F0E2FB011E00D075E11398BE
:10D380004CF018FE29AB190028AA280044F082F9B5
:10D390000F984CF00FFE02F0CBFF0100022800D1E5
:10D3A000C4E1002800D0ACE10999322274A843F00E
:10D3B00007FC011E00D085E151F05EF905002BA8A5
:10D3C000FFF736FB002805D120AB9B8D684A9342BE
:10D3D00000D9AFE12B0020211E9A2DA808F0CCF92E
:10D3E0008021199A2DAB584608F0C6F9584656F0D8
:10D3F000B1F8594602002AAB74A843F049FE8021D7
:10D400001A9A2DAB584608F0B7F9584656F0A2F8CC
:10D41000594602002AAB74A843F03AFE159D8021BC
:10D420002B00103B1B9A009358462DAB019508F03A
:10D43000A3F9584656F08EF82AAB0200594674A854
:10D4400043F026FE2B00173B5A79189B002A00D088
:10D45000209B8021169A009358462DAB08F08CF93A
:10D46000584656F077F8594602002AAB74A843F0A4
:10D470000FFE74A843F0AEFF01230025109823741B
:10D48000E5604CF097FD4AF07DF9002805D00223B5
:10D4900000220021009552F0C1FB2378032B00D11C
:10D4A0002BE763700323237051F0E6F800236060DC
:10D4B000A36022E70A984CF07DFD2378042B00D16D
:10D4C0001BE763700423EEE704FCFFFF7CB402203B
:10D4D00090B4022094B4022038D1061054D1061022
:10D4E00088650220047D071060D1061090D10610D7
:10D4F000C0D1061000D2061030D2061034D2061069
:10D5000064D2061094D20610C4D20610ECD20610D3
:10D5100000D3061034D3061054D3061058D3061087
:10D5200080D30610A0D3061097840220CCD006101A
:10D53000D4D00610C4D30610D4D3061004D40610D9
:10D5400030D40610508B02206CD4061088D40610FC
:10D55000A4D40610F1C00220E0D4061030D5061085
:10D560000F270000020500005FEA0000A8B40220B7
:10D57000E40700003222099974A843F021FB002837
:10D5800054D12BA8FFF754FA51F076F8FA2189000C
:10D5900005F024FC0C9820AB9A8D03880D919342E2
:10D5A00004D120ABD98D4388994218D02F2120ABCC
:10D5B0005B181B780139019220AA52181278723137
:10D5C000009258461D9A08F0D7F8594602002AAB37
:10D5D00074A843F05DFD0C9B2BAA03CA03C3302241
:10D5E000322120AB9B182EAA1B7803920D9A584625
:10D5F000029220AA521812780139019220AA5218D8
:10D6000012786D310092149A08F0B6F859460D233D
:10D6100002000B540B180A210232597074A85946A3
:10D620002AAB43F035FD74A843F0D4FE53460022E4
:10D630000021186800234FF0F9FA3FE649F07EFB1D
:10D64000010012984CF0B6FCE5680135E560002D4C
:10D650004CD12378052B00D14FE66370052323704E
:10D6600051F00AF8A560606047E611984CF0A2FC02
:10D670004D4D143DEB6801330D93EB60002B25D12C
:10D680002B78052B00D138E66B7005232B7050F0FA
:10D69000F3FF0D9B6860AB602FE6444B984200D8C7
:10D6A0002BE6434B23E64AF06DF8002805D0022311
:10D6B00000220021009552F0B1FA0123089AA068D7
:10D6C000137030E61F984CF075FCD5E61C984CF0B2
:10D6D00071FC2B78042B00D10FE66B7004232B70A8
:10D6E00050F0CAFF00236860AB6006E61C984CF05F
:10D6F00061FC21984CF05EFC2378042B00D1FCE502
:10D70000DFE622984CF056FC4EE623984CF052FC93
:10D7100023782574E560012B00D1DBE563700123DC
:10D72000237050F0A9FFA5606060D3E524984CF009
:10D7300041FC39E6322120AA5218127801390492AC
:10D7400020AA521812780139039220AA521812788E
:10D750000139029220AA521812780139019220AAA6
:10D76000521812780E3900922DA8259A08F004F864
:10D7700036E601204FF044FB53461860002800D0E5
:10D7800015E50C484CF016FC11E500227C21082020
:10D790004FF0B0F94B461860002800D00DE5064860
:10D7A0004CF008FC09E5C046A8B40220871300002D
:10D7B00001050000E0D006100CD1061000B5074BA3
:10D7C00083B00193E02201230549009392000023D6
:10D7D000044850F06BFB03B000BDC046DCB602202D
:10D7E00054D106108DD10010014B187C7047C046F3
:10D7F00094B40220F0B5454657464E46DE46E0B5A5
:10D800009846C74BC74C1E7CA5440F00040015006A
:10D81000002E11D000280FD0002A0DD0C24B18685E
:10D820009A46002805D0FA2189004FF0ADFC012866
:10D830000DD0BE484CF0BEFB00263000EB239B0011
:10D840009D44F0BCBB46B246A946A046F0BD10AB15
:10D850009B465A46B64B03CB03C21B7858461370FF
:10D8600055F078FE002F1DD00823DB1BDBB2089398
:10D87000B04B072709932B0025009946040040224E
:10D88000111B5A462B781019099A07F075FF089B4F
:10D890000234BB4204D0013FFFB20135002FEED16C
:10D8A0004D4620004021A44A091A584407F064FF5D
:10D8B0005946322260A843F083F9011E00D01FE1CF
:10D8C0000BAF3800FFF7B4F850F0D6FE3B88FA21D2
:10D8D000994643468900069305F080FA0591802118
:10D8E000BB79964C04937B79220003933B794900E2
:10D8F0000293FB7820A80193BB7800934B4607F076
:10D900003BFF0AAB020020A960A843F0C1FB071E41
:10D9100000D000E1A968EB68049180210593EB88B1
:10D92000874A03936B79490002932B7920A80193CE
:10D930002B680DAC0093042307F01EFF0AAB020016
:10D9400020A960A843F0A4FB8021EB7E7D4A0493CC
:10D95000AB7E490003932B8B20A802936B69019344
:10D960002B690093052307F007FF0AAB020020A9EB
:10D9700060A843F08DFB2B23EB5C802104932A23CA
:10D98000EB5C714A03932B8D490002936B6A20A8CC
:10D9900001932B6A0093062307F0EEFE0AAB020008
:10D9A00020A960A843F074FB80216B6B674A029347
:10D9B000AB6B490001932B6B20A80093082307F061
:10D9C000DBFE0AAB020020A960A843F061FB9C23A8
:10D9D000EB58802101939823EB585D4A009349004E
:10D9E000102320A807F0C8FE0AAB020020A960A8F7
:10D9F00043F04EFB6623EB5A802105936523EB5CD5
:10DA0000544A04936423EB5C490003936223EB5A6A
:10DA100020A802936023EB5A0193EB6D00930C2333
:10DA200007F0AAFE0AAB020020A960A843F030FB71
:10DA30006B6F802103932B6F474A02936C23EB5A41
:10DA400049000193AB6E20A80093052307F094FED4
:10DA50000AAB020020A960A843F01AFB8423EB580C
:10DA6000802103938023EB583C4A02937C23EB5A9A
:10DA700049000193AB6F20A80093062307F07CFEBA
:10DA80000AAB020020A960A843F002FB2900200095
:10DA90000B22883106F000FA9423EB5AE7725BBA46
:10DAA0009BB2029393238021EB5C2D4A0094019357
:10DAB00049000C2320A807F05FFE20A902000AAB52
:10DAC00060A843F0E5FA274B20AA13CB13C213CB6F
:10DAD00013C213CB13C203CB03C21B7820A913704C
