:020000041000EA
:1080000000B5324B2120586098680221884398605F
:10801000D860186158612E4B002199600221596186
:108020000121F02299502B491960012199603520D6
:1080300000F044F80222904214D00621196600F0A4
:1080400034F8196E01211966002018661A6600F0CE
:108050002CF8196E196E196E052000F02FF8012109
:108060000842F9D1002199601B491960002159602B
:108070001A491B48016001219960EB211966A02172
:10808000196600F012F80021996016491448016041
:108090000121996001BC002800D000471248134913
:1080A000086003C880F30888084703B5996A04206C
:1080B0000142FBD001200142F8D103BD02B5186690
:1080C0001866FFF7F2FF186E186E02BD000002403E
:1080D000000000180000070000035F0021220000DC
:1080E000F4000018222000A00001001008ED00E0BC
:1080F00000000000000000000000000074B24E7A92
:1081000000200420F7810010CB810010CD810010E9
:10811000C9810010C9810010C9810010C9810010F7
:10812000C9810010C9810010C9810010E1EC05105F
:10813000C9810010C981001015ED0510DFEE051092
:10814000C1810010C1810010C1810010C1810010E7
:10815000C1810010C1810010C1810010C1810010D7
:10816000C1810010C1810010C1810010C1810010C7
:10817000C1810010C1810010C1810010C1810010B7
:10818000C1810010C1810010C1810010C1810010A7
:10819000C1810010C1810010C1810010C181001097
:1081A000C1810010C1810010C1810010C181001087
:1081B000C1810010C1810010C1810010C181001077
:1081C000EFF30580103800BE00BE00BE00BE00BE4A
:1081D00000BE00BEF2EB8871E01E0D10101F0D10E6
:1081E0003882001090A31AE71E481F49086006C88D
:1081F00081F3088810471D480068002801D01948FD
:10820000F3E70DA40ECC002902D000F012F8F9E734
:108210001749184A002000E001C19142FCD11649DB
:108220008847164988471649884700BEFDE701C9B7
:1082300001C29A42FBD37047101F0D10C0000020EE
:10824000C426002014450D10000004200000042066
:1082500014450D1000100420001004200000000040
:10826000704700000000000008ED00E0000000D0B2
:10827000C426002068B002206D450210B5830010AE
:108280000F450210F8B5C04606480749091A8B1079
:10829000C90FC91810B5491003D0044B002B00D0EA
:1082A000984710BDC4260020C4260020000000000E
:1082B000054B10B5002B03D00449054800E000BF72
:1082C000FFF7E2FF10BDC04600000000C090022092
:1082D00068D0061080B582B000AF7860D0231B064E
:1082E0007A685A61C046BD4602B080BD80B582B092
:1082F00000AF7860D0231B067A689A61C046BD46FD
:1083000002B080BD80B584B000AF78600A00FB1C6D
:108310001A7001227B689A401300FB60FB1C1B78DB
:10832000002B04D0FB681800FFF7D4FF03E0FB68C4
:108330001800FFF7DBFFC046BD4604B080BD80B526
:1083400082B000AF7860D0231B067A685A62C046BC
:10835000BD4602B080BD80B582B000AF7860D0234A
:108360001B067A689A62C046BD4602B080BD80B5E1
:1083700084B000AF78600A00FB1C1A7001227B6891
:108380009A401300FB60FB1C1B78002B04D0FB6899
:108390001800FFF7D4FF03E0FB681800FFF7DBFFCE
:1083A000C046BD4604B080BD80B500AFC046BD46E6
:1083B00080BD000080B500AF1CF07AFD00210020D8
:1083C00021F0C2FCFA239B00180016F0D0FB062017
:1083D00018F0B0F801210620FFF7C9FF012106209F
:1083E000FFF790FF0E4B18001CF099FBFFF7DCFF26
:1083F0000C4B18001CF093FB0CF0CAFD58F0D0FF9A
:10840000094B18001CF08BFB04F0C2FB322016F065
:10841000AEFB04F0C6FB322016F0A9FBF4E7C04621
:1084200068D0061084D00610A4D0061080B500AF26
:108430000E4B1B685A1C0D4B1A600C4B1B680C49E9
:10844000180019F0BFF90B1E0DD101211920FFF7FB
:1084500059FF084A00231000190016F07DFD002185
:108460001920FFF74FFFC046BD4680BDD88F0220C0
:1084700020A1070050C3000080B500AF72B6FEE730
:1084800080B582B000AF7860396018F00BFA0F4BFE
:1084900018001CF044FB7A680D4B110018001CF00A
:1084A00083FB3B68002B06D03A680A4B110018008A
:1084B0001CF07AFB03E0084B18001CF030FB074B64
:1084C00018001CF02CFB72B6FEE7C046C0D00610A8
:1084D000E4D00610F8D0061008D106101CD1061002
:1084E00080B500AF014B1800BD4680BD9CD2061080
:1084F00080B582B000AF0200FB1D1A70024B18005D
:10850000BD4602B080BDC046B0D2061080B588B06E
:1085100000AF0200FB1D1A703B1D0A1C1A80FB1DD8
:108520001B78002B02D0032B0AD02DE0384B1968A2
:10853000384B022218001AF0A9FA0123FB6156E019
:10854000354B1121180022F051FD334B18005EF01D
:10855000A5FF0300FB61FB691F2B01D91F23FB61F2
:108560000023BB610BE02C4ABB69D3181978BB69A7
:108570005A1C2A4B5200D152BB690133BB61BA6904
:10858000FB699A42EFD332E0FB1D1B78052B01D922
:10859000002339E0FB1D1A781D4B9200D3583B6134
:1085A0003B69002B01D100232EE03B6918005EF0EF
:1085B00075FF0300FB612023FB60FA69FB689A42A8
:1085C00001D9FB68FB6100237B610BE03A697B69A1
:1085D000D31819787B695A1C104B5200D1527B6911
:1085E00001337B617A69FB699A42EFD3C046FB692C
:1085F0009BB201339BB2DB189BB2C02292001343A3
:108600009AB2064B1A80054B1800BD4608B080BDD3
:10861000581D0020326D02202CA30220306D022054
:10862000B0B582B000AF78607B681C0000231D00ED
:10863000FA2292000023200029001AF001F802001B
:108640000B0010001900FA229200002319F0F8F82C
:1086500002000B001300180059F010F9C046BD4687
:1086600002B0B0BDF0B58DB002AF7860D64B180047
:1086700055F0F8F852F0AEFED44B180055F0F2F871
:10868000012057F0DFFB0200D14B1A60D04B1B6872
:10869000002B0BD1CF4B180055F0E4F8CE4B18004F
:1086A00055F0E0F8002058F0FBFB89E1CB4B1800B7
:1086B00055F0D8F852F06CFE692059F0DFF8C84B3D
:1086C000180055F0CFF8322059F0D8F8C54B1800F3
:1086D00055F0C8F833F030FCC34B180055F0C2F821
:1086E000C24B18003BF0C0FBC14B180055F0BAF864
:1086F000A0235A00BF4BF021180055F0B3F8BE4A32
:10870000A0235900BD4B009313000322F02030F04A
:1087100051FD0200BA4B1A60B94B1B68002B10D1F7
:10872000B84B180055F09EF8AB4B180055F09AF86E
:10873000A74B1B68180058F0B3F8002058F0B0FBA6
:108740003EE1B14B180055F08DF8AD4B1B68002190
:1087500018002CF09EFCAD4B180055F083F8E12377
:108760009A01AB4B1100180055F07CF8A44B186827
:10877000E1239B01A7490022009200222BF00AFF6F
:10878000A54B180055F06EF8A44B180055F06AF888
:1087900023F074FAA24B180055F064F800F000FBC7
:1087A000002052F009FE52F0E9FE954B1B681800BC
:1087B0002BF011FE0300FB61FA699A4B11001800BF
:1087C00055F050F804E037F013FE052059F056F844
:1087D00052F0CEFE0200FB699A42F4D3642059F0B5
:1087E0004DF852F0C5FE02008F4B1100180055F0F5
:1087F00039F88E4B180055F035F82723FB18002266
:108800001A700DE02726BB191B78180052F0D4FD12
:108810001E2059F033F8BB19BA19127805321A70B4
:108820002723FB181B78642BECD9642052F0C4FD7D
:108830007F4B180055F016F87E4B180055F012F8D3
:1088400058F00AFE0300BB6058F006FE02007A4BA7
:108850001A60794B1A68794B1A60774B1A68784B13
:108860001A6058F0F9FD0300BB61764B1B68BA69CA
:10887000D21AFA239B009A4206D3724BBA691A6045
:10888000714B180054F08EFD012103200CF0A2FB67
:1088900058F0E2FD03007B610DF0AAF90200882385
:1088A0005B00D3583B61664B1B687A69D31A3A69FF
:1088B0009A4214D8624B7A691A60454B1B680A21A8
:1088C000180057F0A3FC0300012B08D100F094FA24
:1088D0003F4B186800230022002157F0E1F93C4B80
:1088E0001B68FA2252001100180057F08FFC030099
:1088F000012B03D00A2058F0C1FF60E005203BF0B7
:108900005FFA0DF075F9020082235B00D358FA225A
:108910009100180018F056FF0300FB604B4B1B78CA
:10892000002B07D14A4B1B68FA689A4202D8474B82
:1089300001221A7037F05CFD03003B6258F08CFD99
:1089400002003D4B1B68D31AFA229100180018F060
:1089500039FF03001A003E4B1A601D4B18680023B4
:108960000022002157F09CF93B6A642B06D90DF0D8
:108970003FF9020080235B00D3583B623B6A042B23
:1089800001D805233B623B6A1C0000231D00FA222C
:10899000920000232000290019F052FE02000B0073
:1089A00010001900FA229200002318F049FF02007B
:1089B0000B000823FB181100180058F007FF50E7C0
:1089C000BD460BB0F0BDC04660D3061098D306106C
:1089D000A0900220B0D30610DCD306100CD40610F1
:1089E00034D406104CD4061070D406102186001022
:1089F00088D40610B0D4061009B4051085B405104B
:108A000070900220E4D406100CD5061038D506105C
:108A100070D50610E0260020A4D50610C8D5061093
:108A2000E4D50610FCD5061034D6061068D606101C
:108A300088D60610BCD606104CA402202C9002202A
:108A4000189002208C6D0220F0D6061050B0022043
:108A50006C75022080B582B002AF0B4B1B68002BF7
:108A600004D00A4B180054F0FDFE0BE08023DB001D
:108A70001A0007490748044B019300230093002381
:108A800058F0CAF9BD4680BD94900220F4D6061075
:108A900010D706106586001080B500AF094B1B6823
:108AA000002B0BD0074B1B68180058F0F9F9054B49
:108AB00000221A60044B180054F0D4FEC046BD4694
:108AC00080BDC046949002201CD7061080B582B0AD
:108AD00000AF002000F058F80DF08AF803007B602A
:108AE000114B1B68002B08D00F4B1A687B6835337D
:108AF000FF331900100040F0FFFC7B683533FF3373
:108B000019000A4B0B2218005DF0CAF9084B3822F5
:108B100000219954064B0022DA63054B00221A7299
:108B2000C046BD4602B080BDF8600020A5A6022068
:108B300078A6022080B582B000AF0200FB1D1A703B
:108B4000BB1D0A1C1A70BB1D1B78002B01D0032310
:108B500016E0FB1D1B78042B0FD010DC032B0EDC62
:108B6000022B06DA002B02D0012B04D007E00023F1
:108B700006E0012304E0022302E0042300E00023D6
:108B80001800BD4602B080BD80B584B000AF0200C1
:108B9000FB1D1A70FB1D1B78042B21D80DF028F843
:108BA0000300FB60FB1D1B786933FF33FA68D318A1
:108BB0000533BB600C4B1B68002B12D0BB681B78C5
:108BC000002B06D0084B1B680121180023F052FC33
:108BD00007E0054B1B680121180023F0E0FE00E0D0
:108BE000C046BD4604B080BDF860002090B585B099
:108BF00000AF0CF0FDFF0300FB60FA68AA235B00E6
:108C0000D258604B1B689A421FD1FA68AC235B00B4
:108C1000D2585D4B1B689A4217D1FA68AE235B00AD
:108C2000D25C5A4B1B789A420FD1FA685E23FF330D
:108C3000D25C574B1B789A4207D1FA68B0235B008D
:108C4000D258544B1B689A4201D0012200E0002206
:108C50000B203B181A701A7801210A401A703B1831
:108C60001B7801225340DBB2002B00D085E04A4B39
:108C70001B68002B62D0484B1C68FA68AA235B0073
:108C8000D358180035F0D7F803001A003B1D111C0B
:108C900019701104090E59701202120E9A703B1DC0
:108CA00000221968200029F06DF93B4B1B68002257
:108CB000FF21180029F078F9374B1C68FA68AC23BB
:108CC0005B00D358180035F0B6F803001A000820EE
:108CD0003B18111C19701104090E59701202120E62
:108CE0009A703B1800221968200029F067F92A4B76
:108CF0001868FA68AE235B00D35C0022190029F0E3
:108D000079F9254B1868FA685E23FF33D35C00229B
:108D1000190029F079F9204B1B6800220121180065
:108D200029F05EF9FA68AA235B00D158FA68AC23EF
:108D30005B00D258194B180054F094FDFA68AA232E
:108D40005B00D2580F4B1A60FA68AC235B00D25814
:108D50000D4B1A60FA68AE235B00D25C0B4B1A70A5
:108D6000FA685E23FF33D25C094B1A70FA68B023AD
:108D70005B00D258074B1A6000E0C046BD4605B004
:108D800090BDC0467C1D0020801D0020881D002055
:108D9000891D0020841D0020D0600020DCD7061033
:108DA00080B582B000AF0CF023FF03007B600F4B57
:108DB000180054F057FDFFF719FF0D4B1B68002BEF
:108DC00008D00B4B1A687B681533FF33190010006D
:108DD00040F092FB0020FFF7D7FE064B180054F03E
:108DE00041FDC046BD4602B080BDC04620D8061039
:108DF000F860002050D80610F0B5BDB002AFFFF704
:108E0000F5FE0CF0F5FE0300C02108200A18D21967
:108E10001360D84B00229A770B18DB191B682722A6
:108E20009B5C002B10D000200CF086F90300012B76
:108E30000AD0D04B9B7F5A1CD1B2CE4A91771A00F0
:108E4000CC4B9B180022DA77C02308229B18DB1931
:108E50001B6828229B5C002B10D001200CF06CF9C1
:108E60000300012B0AD0C34B9B7F5A1CD1B2C14ACD
:108E700091771A00BF4B9B180122DA77C023082292
:108E80009B18DB191B6829229B5C002B10D0022049
:108E90000CF052F90300012B0AD0B64B9B7F5A1CF1
:108EA000D1B2B44A91771A00B24B9B180222DA77FA
:108EB000C02308229B18DB191B682A229B5C002B0D
:108EC00010D003200CF038F90300012B0AD0A94B75
:108ED0009B7F5A1CD1B2A74A91771A00A54B9B18C9
:108EE0000322DA77C02308229B18DB191B682B2288
:108EF0009B5C002B10D004200CF01EF90300012B0A
:108F00000AD09C4B9B7F5A1CD1B29A4A91771A0087
:108F1000984B9B180422DA77C02308229B18DB1990
:108F20001B682C229B5C002B10D005200CF004F950
:108F30000300012B0AD08F4B9B7F5A1CD1B28D4A64
:108F400091771A008B4B9B180522DA77894B9B7F10
:108F50005A1E9341DAB2874B5A7708F05BF9030047
:108F6000BC2208215218D2191360BB225318DE19F3
:108F700006F0FAFA03003370BA2308215B18DE19F1
:108F800008F0A6FA03003370BB2208215318DB193E
:108F90001B78012B04D05318DB191B78032B01D14C
:108FA000012200E00022B92308201B18DB191A70E7
:108FB0001A7801210A401A70BB231B18DB191B7891
:108FC000012B07D1BC231B18DB191B68002B01D018
:108FD000012200E00022B82308201B18DB191A70B8
:108FE0001A7801210A401A70BB231B18DB191B7861
:108FF000012B0AD1BC221318DB191B68002B04D0EB
:109000005C4B1218D2191268DA63B72308201B18B8
:10901000DE1902F0B9F90300337058F01DFA0300AD
:10902000B02108200A18D2191360B9221318DB19CD
:109030001A78514B1A704F4B5B7A002B15D0B7231F
:109040001B18DB191B7801225340DBB2002B0CD01C
:10905000484B0A18D2191268DA60464B01221A747A
:1090600001F07EFF0200434B5A61424BB7210826B4
:109070008A19D21912785A723E4B1B7C002B31D0C0
:109080008B19DB191B7801225340DBB2002B29D04E
:10909000384BDB68B0229219D2191268D31A3B60A0
:1090A00000237B60FA22920000233868796819F067
:1090B000C7FA02000B0010001900FA2292000023E8
:1090C00018F0BEFB02000B001300AC229119C91965
:1090D0000B609319DB191B68284A934202D9254B70
:1090E00000221A74234B1B78002B12D0B9230821BD
:1090F0005B18DB191B7801225340DBB2002B08D030
:109100001C4BB0225218D21912685A60194B012216
:109110001A72184BB92108268A19D21912781A70B6
:10912000144B1B7A002B2BD08B19DB191B780122D7
:109130005340DBB2002B23D00CF05AFD02008423F5
:109140005B00D358A8218A19D2191360094B5B68B8
:10915000B0229219D2191268D31A8A19D219126838
:109160009A420DD8FFF7B2FC0020FFF70DFD01F089
:1091700053F9C04678A602202AB0022087130000C7
:10918000A72608217318DE19B7235B18DB191A7894
:10919000BB235B18DB191B7811001800FFF7CAFC12
:1091A00003003370D04B1B78A72608217218D21900
:1091B00012789A420ED07318DB191B781800FFF74B
:1091C000E3FCC94B08217218D21912781A70C74BE8
:1091D000FF221A700CF00CFD0300A0220821521887
:1091E000D2191360C24B1B68002B5CD00023DC2615
:1091F0007218D2191360BB235B18DB191B78012B83
:109200001BD124235B18DB190C21180008F018FA75
:10921000031E24D0242308215B18D919B54B0B2237
:1092200018005CF03DFEB44B382200219954B14B3C
:1092300008217218D219136011E0AF4B1B7A01227A
:109240005340DBB2002B0AD0A02308215B18DB19A6
:109250001B683533FF33DC225218D2191360DC2629
:109260000822B318DB191B68002B1CD0B318DB19BC
:109270001A68A24B110018005EF0C4F8031E12D049
:109280000822B318DB1919689C4B1F2218005CF0E8
:1092900007FE9A4B0022DA77954B1B68974A11001C
:1092A000180040F029F90023D82108268A19D2197C
:1092B0001360D7208319DB1900221A70BA233200F9
:1092C0009B18DB191B780B2B09D18D4B16008A18C4
:1092D000D21913608319DB1901221A708CE0BA23AA
:1092E00008215B18DB191B78072B0AD1854BD82284
:1092F0005218D2191360D7235B18DB1901221A7098
:109300007AE0BA2308215B18DB191B78062B0AD1F7
:109310007D4BD8225218D2191360D7235B18DB1962
:1093200001221A7068E0BB2308215B18DB191B7847
:10933000002B11D1704B1B7C01225340DBB2002B60
:109340000AD0724BD8225218D2191360D7235B1857
:10935000DB1901221A704FE0BB2308229B18DB198E
:109360001B78012B0BD1BA239B18DB191B78112B0F
:1093700005D1D7239B18DB1901221A703CE0BB23CF
:1093800008229B18DB191B78042B05D1D7239B18C7
:10939000DB1901221A702FE0BB2308229B18DB196E
:1093A0001B78012B11D1BC239B18DB191B68002BE8
:1093B0000BD1BA239B18DB191B780B2B05D0D723B5
:1093C0009B18DB1901221A7016E0B82308229B189B
:1093D000DB191B78002B05D0D7239B18DB19002243
:1093E0001A7009E0444B1B7C002B05D0D7230822C0
:1093F0009B18DB1901221A70454B1B68002B01D109
:1094000000F0C5FCB72308229B18DB191B78002B42
:1094100003D1394B1B7C002B01D0012200E000223C
:109420009F2008268319DB191A701A7801210A4037
:109430001A70384B1B78002B0ED08319DB191B7860
:1094400001225340DBB2002B06D0334B01225242A3
:109450001A60324B00221A702E4B9F22082152189C
:10946000D21912781A70B7235B18DB191B78002BFE
:1094700004D1214B1B7C002B00D179E0B7230822BB
:109480009B18DB191B78002B03D001F069FD03004A
:1094900001E0194B5B697B667B6E6421180018F054
:1094A00091F903003B661C4B1B683A6E9A424DD003
:1094B000194B3A6E1A603B6E632B35D83B6E0A210E
:1094C000180018F07FF903001E003B6E0A211800F7
:1094D00018F078F90B00124A12480093330010215B
:1094E0001AF022FF2BE0C046701D0020711D0020E5
:1094F000F8600020A5A6022078A60220F88F02209E
:1095000080D8061088D8061094D80610A0D8061067
:10951000FC60002066B002208C1D00201C90022000
:10952000A8D80610507502203B6E0A21180018F0CA
:1095300049F90300DC4ADD4810211AF0F5FEDC4B46
:109540001B68DA4A110018003FF0D6FFD84B1B68A1
:109550000121180022F0FAFF031E01D100F016FCD1
:10956000D34B1B680121180022F084FF00F00EFC91
:10957000D04B5B7F002B55D057F06EFF03003B674D
:10958000CC4B9B6A3A6FD21AFA23DB009A4215D36E
:10959000C84B2C229B5C0133D9B2C64B2C22995468
:1095A000C44B2C229A5CC34B9B7F9A4203D3C14B82
:1095B0002C2200219954BF4B3A6F9A62BD4B2C224A
:1095C0009B5C1900672008268319DB19B94A5218D9
:1095D000D27F1A708319DB191B7818000BF092FDEB
:1095E0000300BB66BB6EB44A0C26B81920211AF0E2
:1095F0009BFEAF4B1B68BA19110018003FF07CFFAF
:10960000AB4B1B680121180022F0A0FF031E01D103
:1096100000F0BDFBA64B1B680121180022F02AFFB9
:1096200000F0B5FBD62308215B18DB19D7225218AE
:10963000D21912781A70BA235B18DB191B780B2B1E
:109640002ED157F009FF03007B679C4B1B687A6F94
:10965000D21AFA23DB009A4210D3994B1B785A1E78
:109660009341DBB201225340DBB21A1C01231340A9
:10967000DAB2934B1A70914B7A6F1A60904B1B7849
:10968000002B01D08F4B00E08F4BD82208215218BD
:10969000D2191360D6235B18DB1901221A7025E357
:1096A000BA2308229B18DB191B78072B2ED157F001
:1096B000D3FE0300BB67854B1B68BA6FD21AFA232F
:1096C000DB009A4210D3824B1B785A1E9341DBB2C7
:1096D00001225340DBB21A1C01231340DAB27C4B47
:1096E0001A707A4BBA6F1A60794B1B78002B01D035
:1096F000744B00E0774BD82208215218D21913601E
:10970000D6235B18DB1901221A70EFE2BA23082274
:109710009B18DB191B78062B2ED157F09DFE0300FA
:10972000FB676D4B1B68FA6FD21AFA23DB009A4273
:1097300010D36A4B1B785A1E9341DBB2012253406F
:10974000DBB21A1C01231340DAB2644B1A70624B6D
:10975000FA6F1A60614B1B78002B01D0594B00E067
:109760005F4BD82208215218D2191360D6235B18F8
:10977000DB1901221A70B9E2BB2308215B18DB193F
:109780001B78002B11D14B4B1B7C01225340DBB2C9
:10979000002B0AD0534BD8225218D2191360D6236B
:1097A0005B18DB1901221A70A0E2BB2308269B1963
:1097B000DB191B78012B3CD1BA239B19DB191B78D1
:1097C000112B36D157F048FE0300982130000A18BB
:1097D000D2191360444B1B680A18D2191268D21AA6
:1097E000FA23DB009A4212D3404B1B785A1E934156
:1097F000DBB201225340DBB21A1C01231340DAB260
:109800003A4B1A70384B0A18D21912681A60374B43
:109810001B78002B01D02B4B00E0314BD8220821C4
:109820005218D2191360D6235B18DB1901221A7063
:109830005CE2BB2308229B18DB191B78042B5DD14B
:1098400057F00AFE030080217A181360284B1B682A
:109850007A181268D21AFA23DB009A4211D3254BE8
:109860001B785A1E9341DBB201225340DBB21A1C13
:1098700001231340DAB21F4B1A701D4B7A1812687D
:109880001A601C4B1B78002B01D00E4B00E01A4BCA
:10989000D82208215218D2191360D6235B18DB197D
:1098A00001221A7022E2C046B4D806105075022078
:1098B000FC60002078A60220BCD806106090022030
:1098C00059B00220C0D8061080D806105890022047
:1098D00057B0022088D80610689002205BB00220A2
:1098E00094D80610A0D806105090022055B002203F
:1098F0004090022051B00220CCD80610BB2308268D
:109900009B19DB191B78012B3CD1BC239B19DB195C
:109910001B68002B36D157F09FFD030094213000C7
:109920000A18D2191360D74B1B680A18D21912688B
:10993000D21AFA23DB009A4212D3D34B1B785A1E59
:109940009341DBB201225340DBB21A1C01231340C6
:10995000DAB2CD4B1A70CB4B0A18D21912681A60C2
:10996000C94B1B78002B01D0C84B00E0C84BD82254
:1099700008215218D2191360D6235B18DB19012273
:109980001A70B3E1B82308215B18DB191B78002B90
:109990000AD0C04BD8225218D2191360D6235B18B4
:1099A000DB1901221A70A1E1BB4B1B7C002B00D1FB
:1099B0009CE1D62308215B18DB1901221A70BA2317
:1099C0005B18DB191B780B2B2DD157F045FD0300DD
:1099D00084217A181360B14B1B687A181268D21A66
:1099E000FA23DB009A4211D3AD4B1B785A1E9341E8
:1099F000DBB201225340DBB21A1C01231340DAB25E
:109A0000A74B1A70A54B7A1812681A60A44B1B78E2
:109A1000002B01D09D4B00E0A24BD8220821521808
:109A2000D219136062E1BA2308269B19DB191B784F
:109A3000072B31D157F010FD0300802130000A18A8
:109A4000D2191360984B1B680A18D2191268D21ADF
:109A5000FA23DB009A4212D3944B1B785A1E93418F
:109A6000DBB201225340DBB21A1C01231340DAB2ED
:109A70008E4B1A708C4B0A18D21912681A608B4BD5
:109A80001B78002B01D0814B00E0894BD8220821A4
:109A90005218D219136029E1BA2308269B19DB1941
:109AA0001B78062B31D157F0D7FC030084213000FE
:109AB0000A18D21913607F4B1B680A18D219126852
:109AC000D21AFA23DB009A4212D37B4B1B785A1E20
:109AD0009341DBB201225340DBB21A1C0123134035
:109AE000DAB2754B1A70734B0A18D21912681A60E1
:109AF000714B1B78002B01D0644B00E06F4BD822D8
:109B000008215218D2191360F0E0BB2308215B181A
:109B1000DB191B78002B05D1694BD8225218D219BA
:109B20001360E3E0BB2308269B19DB191B78012B8C
:109B300037D1BA239B19DB191B78112B31D157F080
:109B40008BFC0300902130000A18D21913605D4B82
:109B50001B680A18D2191268D21AFA23DB009A423B
:109B600012D3594B1B785A1E9341DBB2012253404A
:109B7000DBB21A1C01231340DAB2534B1A70514B5B
:109B80000A18D21912681A604F4B1B78002B01D0AB
:109B90003E4B00E0494BD82208215218D2191360DD
:109BA000A4E0BB2308269B19DB191B78042B31D1B9
:109BB00057F052FC0300882130000A18D2191360B4
:109BC000424B1B680A18D2191268D21AFA23DB001A
:109BD0009A4212D33E4B1B785A1E9341DBB20122AC
:109BE0005340DBB21A1C01231340DAB2384B1A700F
:109BF000364B0A18D21912681A60354B1B78002BA5
:109C000001D0224B00E0334BD82208215218D21940
:109C100013606BE0BB2308269B19DB191B78012B13
:109C200064D1BC239B19DB191B68002B5ED157F054
:109C300013FC03008C2130000A18D2191360264B44
:109C40001B680A18D2191268D21AFA23DB009A424A
:109C500012D3224B1B785A1E9341DBB20122534090
:109C6000DBB21A1C01231340DAB21C4B1A701A4BD8
:109C70000A18D21912681A60184B1B78002B2FD0C3
:109C8000024B2EE04490022052B00220C0D80610B1
:109C9000D4D80610E0D8061078A6022064900220DE
:109CA0005AB0022080D806105C90022058B00220E2
:109CB00088D806106C9002205CB0022094D8061060
:109CC000A0D806105490022056B002204C900220DA
:109CD00054B00220CCD806104890022053B0022085
:109CE000D74BD82208215218D2191360D623082244
:109CF0009B18DB191B78002B34D0D826B318DB193E
:109D00001B68002B2ED0B318DB191A68CD4B11003D
:109D100018005DF077FB031E15D0CB4B1B680822A3
:109D2000B118CA191268110018003FF0E5FB0822AB
:109D3000B318DB191968C34B0F2218005CF0B0F898
:109D4000C04B0022DA73C04B1B680121180022F0BF
:109D5000FDFB031E1BD0BC4B1B680121180022F029
:109D600089FB14E0B84B1B680121180022F0EEFBC0
:109D700003001A0001235340DBB2002B07D0B24B83
:109D80001B680121180022F00AFE00E0C046BC2238
:109D900008201318DB191B68D0210918C9190B609A
:109DA00001005318DB191B68002B1AD1A74BDB6B82
:109DB000002B16D0BA225318DB191B780B2B09D0B5
:109DC0005318DB191B78072B04D05318DB191B78A9
:109DD000062B06D19D4BDB6BD02208215218D219DD
:109DE00013609B4B1B68002B00D156E157210820C4
:109DF0000B18DB19B7221218D21912781A70020048
:109E00008B18DB191B78002B05D1B9239B18DB19A4
:109E10001B78002B06D0CF2308229B18DB190222C7
:109E20001A7005E0CF2308229B18DB1903221A7051
:109E3000884B1B78CF2108200A18D21912789A4231
:109E40000CD0854B012252421A60844B01225242AF
:109E50001A60804B0A18D21912781A7057230822F8
:109E60009B18DB191B78002B43D0B9239B18DB19F7
:109E70001B78002B3DD0D0239B18DB191B68642175
:109E8000180017F09FFC0300BB65734B1B68BA6D8D
:109E90009A4200D1FEE0704BBA6D1A60BB6D632B25
:109EA00014D8BB6D0A21180017F08CFC03001E00AB
:109EB000BB6D0A21180017F085FC0B00684A694841
:109EC0000093330010211AF02FFA0AE0BB6D0A212B
:109ED000180017F077FC0300634A624810211AF05B
:109EE00023FA5B4B1B685F4A110018003FF004FB2C
:109EF000D0E0572308229B18DB191B78002B3ED09B
:109F000001F02EFA03003B653B6D6421180017F049
:109F100059FC0300FB64504B1B68FA6C9A4200D159
:109F2000BBE04D4BFA6C1A60FB6C632B14D8FB6CD6
:109F30000A21180017F046FC03001E00FB6C0A21E2
:109F4000180017F03FFC0B00454A464800933300C9
:109F500010211AF0E9F90AE0FB6C0A21180017F049
:109F600031FC0300404A3F4810211AF0DDF9384B1C
:109F70001B683C4A110018003FF0BEFA8DE0B9237F
:109F800008215B18DB191B78002B16D1BA22531855
:109F9000DB191B78112B09D05318DB191B78072B01
:109FA00004D05318DB191B78062B5FD1D02308226D
:109FB0009B18DB191B68002B58D0D02308229B1854
:109FC000DB191B686421180017F0FCFB03007B659C
:109FD000214B1B687A6D9A425ED01F4B7A6D1A60D6
:109FE0001E4B012252421A607B6D632B14D87B6D8D
:109FF0000A21180017F0E6FB03001E007B6D0A2102
:10A00000180017F0DFFB0B00154A164800933300C9
:10A0100010211AF089F90AE07B6D0A21180017F067
:10A02000D1FB0300104A0F4810211AF07DF9084BAC
:10A030001B680C4A110018003FF05EFA2CE0C04685
:10A04000D4D806101C900220FC60002078A60220C4
:10A05000E06000203CB00220741D0020781D00202C
:10A06000A8D806101C710220B4D80610D14B1B686A
:10A07000023312D0CF4B022252421A60CE4B012241
:10A0800052421A60CD4B1B68CD4A110018003FF0B8
:10A0900033FA02E0C04600E0C046CA4B1B68002B02
:10A0A00058D0C94B1B68C82608217218D2191360F2
:10A0B000B9235B18DB191B78002B2CD007F0A4FA0E
:10A0C0000300BB64BB6C002B2BD0BC2308215B18A6
:10A0D000DB191B6864225343B96C180017F072FB3C
:10A0E000030008217218D21913600A00B318DB1993
:10A0F0001B68002B03DA0023B218D2191360C822A0
:10A1000008215318DB191B68642B0ADD64235218DD
:10A11000D219136005E00023C82208215218D21971
:10A120001360A94B1B68C82108200A18D2191268AD
:10A130009A420FD0A34B1B680E000A18D21911685F
:10A14000002218003AF03AFF9F4B08203218D2192B
:10A1500012681A609D4B1B68002B00D15CE19C4B80
:10A160005B7F002B06D0C72308229B18DB19022235
:10A170001A705FE0BB2308229B18DB191B78002BA9
:10A1800005D1C7239B18DB1900221A7052E0BB23AC
:10A1900008229B18DB191B78012B0BD1B8239B18C5
:10A1A000DB191B78002B05D0C7239B18DB19012274
:10A1B0001A703FE0BB2208215318DB191B78022BD1
:10A1C00021D05318DB191B78032B1CD05318DB1933
:10A1D0001B78042B17D05318DB191B78012B05D1E2
:10A1E000BC235B18DB191B68002B0CD0BB23082297
:10A1F0009B18DB191B78012B0CD1BA239B18DB1998
:10A200001B78112B06D1C72308229B18DB190222C9
:10A210001A700FE0B92308229B18DB191B78002B5A
:10A2200002D06C4B1A7800E00022C72308215B188B
:10A23000DB191A70C72308229B18DB191B78022B25
:10A2400000D079E0FA237B6457F006F903003B6401
:10A250005F4B9B693A6CD61A7B6C1C0000231D0077
:10A26000FA22920000232000290018F0E9F90200E8
:10A270000B0010001900FA229200002317F0E0FAF8
:10A2800002000B0013009E4200D2BEE0504B1B7F29
:10A290005A1E9341DBB201225340DBB21A1C012348
:10A2A0001340DAB24A4B1A77494B3A6C9A61484BE1
:10A2B0001B7F002B2BD0454B1C68FF231B04180071
:10A2C00033F0B9FD03001A00302008254319DB19CB
:10A2D000111C19701104090E59701202120E9A7095
:10A2E0004319DB1900221968200027F04BFE374B79
:10A2F0001B680121180022F029F9031E00D184E017
:10A30000324B1B680121180022F0B4F87DE02F4B7E
:10A310001B680121180022F019F903001A0001231B
:10A320005340DBB2002B00D16FE0284B1B680121AA
:10A33000180022F034FB68E0264B1B78C721082563
:10A340004A19D21912789A425FD04B19DB191B783F
:10A35000022B55D059DC002B3ED0012B55D11B4B85
:10A360001C68FF231B02180033F065FD03001A0070
:10A3700034204319DB19111C19701104090E59708E
:10A380001202120E9A704319DB190022196820007C
:10A3900027F0F8FD0D4B1B680121180022F0D6F8BC
:10A3A000031E2FD0094B1B680121180022F062F810
:10A3B00028E0C046741D0020781D0020E0600020C9
:10A3C000E8D80610D4600020901D0020E460002032
:10A3D00078A602203BB00220114B1B680121180017
:10A3E00022F0B4F803001A0001235340DBB2002B23
:10A3F0000AD00B4B1B680121180022F0D0FA03E0B1
:10A40000C04602E0C04600E0C046064BC722082115
:10A410005218D21912781A70BD463BB0F0BDC04632
:10A42000E46000203BB0022080B582B000AF7860CD
:10A43000D0231B067A685A61C046BD4602B080BD73
:10A4400080B582B000AF7860D0231B067A689A612D
:10A45000C046BD4602B080BD80B584B000AF786014
:10A460000A00FB1C1A7001227B689A401300FB60F3
:10A47000FB1C1B78002B04D0FB681800FFF7D4FFEF
:10A4800003E0FB681800FFF7DBFFC046BD4604B0E1
:10A4900080BD0000B0B58AB000AF374B102200215C
:10A4A000180018F0EDFA344B00229A72334B002258
:10A4B0001A7000F0FBFF3B00180002F023FD3B0088
:10A4C0001B69DAB227257C192D4B1100180054F0B6
:10A4D0007FF9030023707B191B78002B1ED17C1998
:10A4E000274B180054F004F8030023707B191B78E5
:10A4F000002B0AD1234B01221A703B001A69224B10
:10A500001100180053F0AEF910E02723FB181A7859
:10A510001E4B1100180053F0A5F907E02723FB1884
:10A520001A781B4B1100180053F09CF901F008F940
:10A5300003003B621F257C193B6A18004FF0ECFFBB
:10A54000030023707B191B78002B04D1114B1800DA
:10A5500053F088F907E01F23FB181A780E4B1100FF
:10A56000180053F07FF90D4B180053F07BF90023CE
:10A570001800BD460AB0B0BDCC87022032B0022020
:10A58000DC87022033B00220F0D8061028D906104C
:10A5900058D9061088D90610C8D9061008DA06104E
:10A5A00080B582B000AF06F0B9FE03007B607B6827
:10A5B000002B01D1002311E07B681A785978090239
:10A5C0000A43997809040A43DB781B0613431A00EF
:10A5D000FB1C511E8A411A70FB1C1B781800BD46DB
:10A5E00002B080BD90B58DB000AF02003960FB1D98
:10A5F0001A70FB1D1B7801225340DBB2002B17D0D1
:10A6000006F08CFE0300FB62FB6A002B0BD0FB6A9A
:10A610001A78597809020A43997809040A43DB78C1
:10A620001B06134304D13B4B180053F01BF96EE09B
:10A63000394BFA1D12781A70384B3A681A6056F086
:10A640000BFF0200364B1A60354B1A68344B5A60C8
:10A65000334B01221A72324B0022DA60314B012255
:10A660001A702F4B1A68304B1A60304B00221A6058
:10A670002F4B00221A602F4B00221A702E4B1B7892
:10A68000002B10D008243A192C4B1100180053F05D
:10A6900083FF031E07D13B19DA68294B1A603B1967
:10A6A000DA68284B1A6056F0D7FE0200264B1A6073
:10A6B00000F0E6FEFB1D1B78002B0ED03B68002B44
:10A6C00006D03A68214B1100180053F0CBF81EE079
:10A6D0001F4B180053F0C6F819E006F01FFE0300E8
:10A6E000BB62BB6A002B0CD0BB6A1A78597809028E
:10A6F0000A43997809040A43DB781B0613431A00BE
:10A7000000E00022134B1100180053F0ABF8BD46D7
:10A710000DB090BD38DA061035B00220888A0220CC
:10A72000CC87022032B002208C8802209C88022034
:10A73000C487022031B0022033B00220DC8702201F
:10A74000C8870220948802209088022068DA0610C8
:10A75000B8DA061004DB061080B500AF0021002037
:10A76000FFF740FFC046BD4680BD000090B58DB0EC
:10A7700000AF7860314B1B7A01225340DBB2002BD3
:10A7800058D100F093FE2D4B00221A722C4B002260
:10A790001A700023FB622B4B1B78002B12D00C2469
:10A7A0003A19294B1100180053F0F6FE031E09D187
:10A7B0003B19DA68254B1B68191C101C17F05DFF4C
:10A7C000031CFB62224B1B78002B09D0F86A17F0A0
:10A7D000EFFF02000B0079681E4853F043F816E0C3
:10A7E0001D4B1B68002B0BD0144BDA681A4B1B68EF
:10A7F00079681A4853F036F8174B00221A6006E0C1
:10A800000E4BDA687968164B180053F02BF8104B92
:10A8100000221A70134B00221A60134B00221A7088
:10A82000124B00221A60124B00221A70034B0022B6
:10A830009A7200E0C046BD460DB090BDCC870220A4
:10A8400032B0022033B00220DC870220C887022009
:10A8500035B0022048DB06109C88022088DB0610F9
:10A86000E8DB0610888A022036B002209888022091
:10A8700034B00220F0B59DB000AFF86000237B66D5
:10A880000023FB66CF4B1B78002B3DD00C26082302
:10A89000F218D219CC4B1100180053F07DFE031EA4
:10A8A00034D10823F318DB19DB687B66C74B1B68C0
:10A8B000191C786E17F0E1FE031CFB66C44B1B6885
:10A8C000191C786E17F040FF031E1FD0C04B7A6E24
:10A8D0001A6056F0C1FD0200BE4B1A60BE4B1B78D9
:10A8E000002B13D0BD4B1B7801225340DBB2002B51
:10A8F0000CD0BA4B01221A70B94B1A68B94B11002F
:10A90000180052F0AFFF01E00123F1E156F0A4FD81
:10A910000200B04B1B68D31A3B6000237B60FA2215
:10A92000920000233868796817F08AFE02000B0055
:10A9300010001900FA229200002316F081FF020095
:10A940000B0013003B663B6EA74A934245D93A6E13
:10A95000A64B1100180052F085FFA54B1800FFF719
:10A9600005FFA44B1B7801225340DBB2002B2AD0F9
:10A9700006F0D4FC03007B647B6C002B17D07B6C4F
:10A980001A78597809020A43997809040A43DB784E
:10A990001B0613430BD1052006F000FE964B180052
:10A9A00052F060FF954B180052F05CFF13E00B2053
:10A9B00006F0F4FD924B180052F054FF914B180032
:10A9C00052F050FF07E0904B180052F04BFF8F4BB6
:10A9D000180052F047FF00238AE1864B1B78002BBA
:10A9E00023D0FC218905F86E17F04CFE031C181CBF
:10A9F00017F0D6FE0200864BDA60864B1B68002BF0
:10AA000011D0844B1B68180017F0A3FE031C191CFF
:10AA1000F86E17F091FE031E05D07F4B1800FFF76C
:10AA2000A5FE002364E1012362E106F077FC030048
:10AA3000FB65FB6D002B01D1012359E1FC21890548
:10AA4000F86E17F01FFE031C181C17F0A9FE030078
:10AA5000BB650023BB666E4BDB68BA6D9A4204D9B6
:10AA60006B4BDB68BA6DD31ABB66FB6D1A785978ED
:10AA700009020A43997809040A43DB781B06134349
:10AA80001A00BB6E93420BD9FB6D1A7859780902F4
:10AA90000A43997809040A43DB781B061343BB6613
:10AAA000BB6E002B49D02C2608203318DA19FB6D19
:10AAB0001000190010231A0017F0E8FF31000820D9
:10AAC0000B18DB191A68BB6ED21A0B18DB191A6047
:10AAD0000B18DB191B8901339AB20B18DB191A8189
:10AAE0000B18DB19180006F0D5FC494BDA68BB6E71
:10AAF000D218474BDA60494B1A68BB6ED218474BE5
:10AB00001A60354B1B78002B17D0344B1B78002B69
:10AB100013D03F4BDA68324B1B689A420DD33C4B43
:10AB2000D9682F4B1A683E4B180052F09BFE3D4BE4
:10AB30001800FFF71BFE0023DAE056F08DFC03003F
:10AB40007B65394B1B687A6DD31A1C0000231D00EE
:10AB5000FA22920000232000290017F071FD020064
:10AB60000B0010001900FA229200002316F068FE74
:10AB700002000B0013003B653B6D632B00D89DE08A
:10AB8000264B1B68002B00D198E0012104200AF01D
:10AB900021FA47250826AB19DC19012006F00EFD25
:10ABA00003002370AB19DB191B78002B40D11B4B22
:10ABB00000221A601C4B7A6D1A601C4B00221A602E
:10ABC0004BE0C04633B00220DC870220C887022059
:10ABD000948802209088022036B0022034B00220EF
:10ABE0009888022034DC0610B70B00007CDC0610CD
:10ABF000B8DC061035B00220C8DC0610FCDC0610FC
:10AC000038DD06106CDD0610A4DD0610D4DD06105C
:10AC1000CC870220888A0220FCDD06109C88022056
:10AC200014DE061050DE06108C880220C487022035
:10AC3000314B1B685A1C304B1A602F4B1C68472342
:10AC400008229B18DB191B78180002F0F7FB0200A2
:10AC50002A4B2100180052F005FE274B1B68002BE1
:10AC60002CD0254B1A68264B1100180052F0FAFD23
:10AC7000012104200AF0AEF946250826AB19DC199B
:10AC800003F08CFA03002370AB19DB191B78002B3F
:10AC900011D01C4B180052F0E5FD174B00221A6032
:10ACA000194B01221A7002F023FF184B1800FFF70E
:10ACB0005DFD00231CE0104B00221A6006F02EFB05
:10ACC0000300BB64BB6C002B11D0BB6C1A785978A5
:10ACD00009020A43997809040A43DB781B061343E7
:10ACE00005D10B4B1800FFF741FD002300E00123C5
:10ACF0001800BD461DB0F0BDC487022068DE0610F6
:10AD00008CDE0610E4DE061031B002201CDF0610D7
:10AD10002CDF061080B500AF06F046FB031E07D0FF
:10AD2000FFF73EFC031E03D0FFF716FD002300E0F3
:10AD300004231800BD4680BDB0B584B000AF786074
:10AD40007B68002B01D1012364E0344B1A787B68C7
:10AD50001A70334B1A7A7B685A7004F021FC030096
:10AD60001A007B681A722E4B5A7A7B681A742D4B24
:10AD70001B78002B07D07B680022DA602A4B1A6808
:10AD80007B685A601AE006F0C9FA0300FB60FB68B2
:10AD9000002B0CD0FB681A78597809020A4399787D
:10ADA00009040A43DB781B0613431A0000E0002263
:10ADB0007B68DA607B68DA687B685A60184B1B7ABC
:10ADC000002B1FD056F048FB0200154B1B68D31A0E
:10ADD000BB60BB681C0000231D00FA229200002308
:10ADE0002000290017F02CFC02000B0010001900B5
:10ADF000FA229200002316F023FD02000B007B686C
:10AE00005A6102E07B6800225A61054B9A7A7B689E
:10AE10001A7600231800BD4604B0B0BD32B002203F
:10AE2000CC87022035B00220888A022080B500AF8E
:10AE3000034B1800FFF79AFC00231800BD4680BDA5
:10AE400040DF061080B582B000AF7860094B1B7AF6
:10AE5000002B05D0084B180052F004FD012305E03B
:10AE60007B6819000120FFF7BDFB00231800BD46D9
:10AE700002B080BDCC87022050DF061080B582B0C2
:10AE800000AF78601B4B1B7A002B05D01A4B1800C3
:10AE900052F0E8FC012329E07B68002B05D1174B19
:10AEA000180052F0DFFC012320E0154B1B78012233
:10AEB0005340DBB2002B05D0124B180052F0D2FCED
:10AEC000012313E0104B01221A70104B7A681A60AC
:10AED0000F4B00221A707A680E4B1100180052F0C6
:10AEE000C1FC0D4B180052F0BDFC00231800BD46FC
:10AEF00002B080BDCC87022090DF0610D8DF06109C
:10AF000033B0022014E0061036B0022098880220E8
:10AF100034B0022058E00610A4E0061080B500AF5F
:10AF2000084B1B7A01225340DBB2002B01D00023D7
:10AF300004E0054B1800FFF719FC00231800BD467C
:10AF400080BDC046CC870220D8E0061080B500AF97
:10AF5000024B1B7A1800BD4680BDC046CC8702203C
:10AF600080B500AF024BDB681800BD4680BDC0460F
:10AF7000CC870220F0B591B000AFF860AC4B180060
:10AF800052F070FC56F068FA0300BB63A94B1B68D3
:10AF9000BA6BD21AFA239B009A4206D3A54BBA6B1E
:10AFA0001A60A54B180052F0FDF9012104200AF0A7
:10AFB00011F8372108200B18DB1900221A709F4B5B
:10AFC0001B7801225340DBB2002B2BD00B18DE196B
:10AFD00006F0EAF903003370994B1B7837210820FB
:10AFE0000A18D21912789A421CD00B18DB191B7858
:10AFF000002B08D0934B1B781A00934B11001800BC
:10B0000052F030FC07E08F4B1B781A008F4B110079
:10B01000180052F027FC8A4B372208215218D21907
:10B0200012781A70874B1B78022B00D1BCE000DD30
:10B03000DAE0002B02D0012B61D0D5E07F4B1B78EA
:10B0400001225340DBB2002B00D1C4E03723082299
:10B050009B18DB191B78002B00D1BCE022239B1826
:10B06000DE1906F035FA03003370222308229B18FC
:10B07000DB191B78052B00D0AFE011F00BF90300B2
:10B080007B627B6A002B33D07B6A1B7D002B2FD029
:10B090007B6A1B78032B26D108260822B318DB19FC
:10B0A000180006F0D7F9031E00D198E030000826FA
:10B0B0008319DB199A7A7B6ADB7B9A4200D08EE097
:10B0C0007B6A083319007B6ADB7B1A008319DB1962
:10B0D00018005AF025FD031E00D080E07B6A18009E
:10B0E00011F012F97BE07B6A180011F00DF976E09F
:10B0F000FFF756FA031E6ED0FFF72EFB6BE056F0FB
:10B10000ABF903003B63524B5B683A6BD31A3B606D
:10B1100000237B60FA22920000233868796817F0D8
:10B120008FFA02000B0010001900FA22920000238F
:10B1300016F086FB02000B001300FB62FB6A312B4A
:10B140004FD9232308229B18DE19FB6A1800FFF74A
:10B1500091FB030033703E4B3A6B5A602323082265
:10B160009B18DB191B7801225340DBB2002B38D02F
:10B17000324B1B7801225340DBB2002B0DD0354BF4
:10B180001B7801225340DBB2002B06D02D4B02224C
:10B190001A70314B3A6B1A6026E02A4B00221A7063
:10B1A0002C4B00221A701FE02F2308229B18DE1957
:10B1B00006F0FAF8030033702F2308229B18DB19DE
:10B1C0001B78002B0FD1254B180052F04BFB1D4B69
:10B1D00000221A7007E0C04606E0C04604E0C04600
:10B1E00002E0C04600E0C046164B1B78002B01D1A0
:10B1F000142300E064233B623B6A1C0000231D0013
:10B20000FA22920000232000290017F019FA020008
:10B210000B0010001900FA229200002316F010FB18
:10B2200002000B001300180056F028FBAAE6C046E7
:10B23000E4E00610846D022010E1061035B0022013
:10B2400039B0022032B002201CE1061050E1061095
:10B25000CC87022031B00220C087022084E1061092
:10B2600080B584B002AF134B1B68002B04D0124B87
:10B27000180052F0F7FA1AE080239A000F4910489C
:10B280000C4B019301230093002355F0C5FD0300EF
:10B290007B607B68012B06D07A680A4B110018008E
:10B2A00052F0E0FA03E0084B180052F0DBFABD461A
:10B2B00002B080BD60750220B8E1061010E10610F2
:10B2C00075AF0010DCE1061010E2061080B500AF8B
:10B2D0000D4B1B68002B13D00C4B1B7A002B03D09B
:10B2E0000B4B1800FFF742FA074B1B68180055F08C
:10B2F000D7FD054B00221A60064B180052F0B2FA37
:10B30000C046BD4680BDC04660750220CC87022085
:10B3100040E2061050E2061080B582B000AF0F4B3D
:10B320001B78002B01D0002313E005F0F7FF03008A
:10B330007B607B68002B0BD07B681A7859780902F8
:10B340000A43997809040A43DB781B06134300E09B
:10B3500000231800BD4602B080BDC04635B00220B3
:10B3600080B500AF064B1B78002B02D0054B1B6845
:10B3700002E0FFF7D1FF03001800BD4680BDC046C4
:10B3800035B00220888A022080B500AF024B1B7ABC
:10B390001800BD4680BDC046CC870220B0B588B03D
:10B3A00002AFF8603A607B6017257C193A687B68C9
:10B3B000F96800200090080004F068F90300237089
:10B3C0007B191B78002B07D1FA680C4B1100180071
:10B3D00052F048FA00230CE01723FB181B781800E2
:10B3E00002F02CF80200064B1100180052F03AFA55
:10B3F00001231800BD4606B0B0BDC04670E206107D
:10B40000B0E20610B0B584B000AF786005F0CCFFB4
:10B4100003001A0001235340DBB2002B05D0154B6B
:10B42000180052F01FFA032320E00F257C197B68D7
:10B43000180005F00BFF030023707B191B78002B0D
:10B4400007D17A680C4B1100180052F00BFA002358
:10B450000CE00F23FB181B78180001F0EFFF02002F
:10B46000064B1100180052F0FDF901231800BD46EB
:10B4700004B0B0BDE0E2061008E3061030E30610A9
:10B4800080B588B000AF3B1D180001F03BFD3B1DAF
:10B490005B6901211800FEF7DFFF034B01229A725E
:10B4A000C046BD4608B080BDCC87022080B588B0BC
:10B4B00000AF3B1D180001F025FD3B1D5B6900211D
:10B4C0001800FEF7C9FF034B00229A72C046BD4622
:10B4D00008B080BDCC87022080B582B000AF0200EA
:10B4E000FB1D1A70FB1D1B780A2B1AD89A000F4BF4
:10B4F000D3181B689F46002314E0012312E00223A7
:10B5000010E003230EE004230CE005230AE00623E9
:10B5100008E0072306E0082304E0092302E00A23E9
:10B5200000E001231800BD4602B080BD84E3061090
:10B5300080B500AFFEF7AEFF03001800FFF7CCFFA9
:10B5400003001800BD4680BDB0B58AB000AF78607A
:10B550007B68002B01D1012358E027257C190823A3
:10B56000FB181800FFF7E8FB030023707B191B781A
:10B57000002B06D07B191B781800FFF7ADFF0300E6
:10B5800044E00823FB181B78022B0DD010DC002BA5
:10B5900002D0012B04D00BE07B6800221A700BE074
:10B5A0007B6804221A7007E07B6805221A7003E0AA
:10B5B0007B6806221A70C04608243B195A787B68BB
:10B5C0005A703B191A7A7B689A703B191A7C7B680F
:10B5D0001A773B195B69FA229100180016F0F2F80D
:10B5E00003001A007B685A613B195A687B689A61AC
:10B5F0003B19DA687B685A607B6800229A607B6836
:10B60000044ADA607B6800221A6100231800BD46F4
:10B610000AB0B0BD70E3061080B588B000AF3B0043
:10B620001800FFF791FF031E02D13B001B7800E0DA
:10B6300006231800BD4608B080BD80B500AFFFF7F7
:10B6400085FC03001800BD4680BD80B500AFFFF744
:10B6500061FB03001800FFF73FFF03001800BD4621
:10B6600080BD80B500AFFFF7E1FB03001800FFF7D6
:10B6700033FF03001800BD4680BD80B582B000AF27
:10B6800078607B681800FFF7DDFB03001800FFF708
:10B6900023FF03001800BD4602B080BD80B584B012
:10B6A00000AFF8603A607B603A687B68F968080030
:10B6B000FFF774FE03001800FFF70EFF03001800E9
:10B6C000BD4604B080BD80B582B000AF78607B68B5
:10B6D0001800FFF797FE03001800FFF7FDFE0300B8
:10B6E0001800BD4602B080BD80B500AFFFF714FE64
:10B6F00003001800BD4680BD80B500AF00231800D0
:10B70000BD4680BD80B582B000AF0200FB1D1A703F
:10B71000FB1D1B7818004EF033FF03001800BD46D8
:10B7200002B080BD80B500AFFFF79AFDC046BD46B0
:10B7300080BD80B500AFFFF7C9FDC046BD4680BDE6
:10B7400080B500AF014B1800BD4680BDE8E3061090
:10B7500080B584B000AF3B1D18001FF035FC274BAF
:10B76000180052F07FF8264B180052F07BF8254B5A
:10B77000180052F077F8224B180052F073F8224A62
:10B78000224B1100180052F06DF8214A214B110094
:10B79000180052F067F8204A2049214B180052F057
:10B7A00061F8204A204B1100180052F05BF81F4B43
:10B7B000180052F057F80023FB600CE03A1DFB68BC
:10B7C000D3181B781A001A4B1100180052F04AF8CF
:10B7D000FB680133FB60FB68072BEFDD074B1800AC
:10B7E00052F040F8064B180052F03CF8034B18009A
:10B7F00052F038F8C046BD4604B080BDF4E30610F0
:10B80000F8E30610B8E40610FCE4061014E5061090
:10B810002CE5061034E506104CE5061058E5061038
:10B8200064E5061080E5061090E50610A8E5061010
:10B83000BCE5061080B582B000AF386079603A6828
:10B840007B6810001900BD4602B080BD80B584B091
:10B8500000AFF8603A607B60F9683A687B680A601C
:10B860004B60C046BD4604B080BD80B582B000AF1D
:10B8700078607B6800220121180014F0D5FCC046D6
:10B88000BD4602B080BD80B582B000AF7860D023E5
:10B890001B067A685A61C046BD4602B080BD80B5BD
:10B8A00082B000AF7860D0231B067A689A61C046E8
:10B8B000BD4602B080BD80B584B000AF78600A009C
:10B8C000FB1C1A7001227B689A401300FB60FB1C72
:10B8D0001B78002B04D0FB681800FFF7D4FF03E0AF
:10B8E000FB681800FFF7DBFFC046BD4604B080BD13
:10B8F00080B582B000AF7860D0231B067A685A62A8
:10B90000C046BD4602B080BD80B582B000AF786051
:10B91000D0231B067A689A62C046BD4602B080BD3D
:10B9200080B584B000AF78600A00FB1C1A70012259
:10B930007B689A401300FB60FB1C1B78002B04D033
:10B94000FB681800FFF7D4FF03E0FB681800FFF75F
:10B95000DBFFC046BD4604B080BD000080B582B0AC
:10B9600000AF78607B68054A944663445A4253416D
:10B97000DBB21800BD4602B080BDC0460000FCBF6F
:10B9800080B582B000AF78607B681800FFF7E6FFF3
:10B990007B681800BD4602B080BD80B582B000AFA4
:10B9A00078607B681800FFF7D9FF7B681800BD46F8
:10B9B00002B080BD80B58EB000AFF860B9601900EC
:10B9C000FB1D1A70BB1D0A1C1A70FB681800FFF7DC
:10B9D000D7FF03005B68022213407B63FB681800FB
:10B9E000FFF7CEFF030004337B6102233B617B69D9
:10B9F000C0229201944663443A691A60C046FB68CB
:10BA00001800FFF7BDFF03001900BB685A1EFB1D9D
:10BA10001B789B011A43BB1D1B78DB011343B962E2
:10BA20007B62CF233B62BB6A1A687B6A53403A6AE7
:10BA30001340BA6AFA61BB61FB69802252019446E5
:10BA40006344BA691A60C046C046FB681800FFF735
:10BA500097FF03000433FB627B6B3B63FB6A80222E
:10BA60009201944663443A6B1A60C046C046BD4694
:10BA70000EB080BD80B582B000AF78607B681800E2
:10BA8000FFF78BFF0300DB68102213405A1E93411F
:10BA9000DBB21800BD4602B080BD000080B582B0A8
:10BAA00000AF78600A00FB1C1A707B68074A93425B
:10BAB00001D1122300E01023FA1C127801214A4020
:10BAC000D2B29B181800BD4602B080BD00000440F1
:10BAD00080B582B000AF13F031FA02000B003900DC
:10BAE0000800FFF7B3FE3A687B6810001900BD46F6
:10BAF00002B080BD80B58AB000AFB860F9603A602E
:10BB00007B60BA68FB6810001900FFF793FE020023
:10BB10000B00BA61FB61B869F9693A687B68121871
:10BB20004B413A627B623A6A7B6A002B04DA01225B
:10BB30005242084B3A627B623A6A7B6A102179185A
:10BB40000800FFF783FE3A697B6910001900BD46C3
:10BB50000AB080BDFFFFFF7F80B582B000AF3860C4
:10BB60007960FFF7B5FF3A687B68FFF7C3FF020013
:10BB70000B0010001900BD4602B080BDF0B58BB0BF
:10BB800004AFF8607A603B600B26BB190A1C1A7080
:10BB90007B6B1C0000231D0020002900FFF7DCFF49
:10BBA00002000B003A617B613D687C68BB19197823
:10BBB000F8683A697B6902920393282308229B184C
:10BBC000DB191B7800932B00220011F0CCFD030041
:10BBD0001800BD4607B0F0BDF0B58BB004AFF860FB
:10BBE0007A603B600B26BB190A1C1A707B6B1C0029
:10BBF00000231D0020002900FFF7AEFF02000B000C
:10BC00003A617B613D687C68BB191978F8683A69CC
:10BC10007B6902920393282308229B18DB191B7867
:10BC200000932B00220011F0A3FE03001800BD4674
:10BC300007B0F0BD80B582B000AF7860C046BD46A9
:10BC400002B080BD80B584B000AF78607B681F2BE8
:10BC500005D87B685B0807221340FB6005E07B6822
:10BC60005B08032213400833FB60FB681800BD46E5
:10BC700004B080BD80B582B000AF78607B680122DF
:10BC800013401800BD4602B080BD80B582B000AF41
:10BC900078600A00FB1C1A707B681B6802229343C1
:10BCA0001A00FB1C1B78002B01D0022300E00023AC
:10BCB0001A437B681A60C046BD4602B080BD80B59D
:10BCC00084B000AF786039600423FB600122FB6818
:10BCD0009A401300180016F041FD031C191CFC20AB
:10BCE000800516F0D4FC031C191C386816F0CAFC39
:10BCF000031C3B600122FB689A401300180016F0F9
:10BD000028FD031C3968181C16F0D7FC031C181CEE
:10BD100016F046FD02007B685A60C046BD4604B07E
:10BD200080BD80B584B000AFF860B960FB1D1A70AB
:10BD3000BB681A01FB1D1B781A43FB685A60C0469A
:10BD4000BD4604B080BD80B582B000AF7860396078
:10BD500039687B6800221800FFF7E3FFC046BD4644
:10BD600002B080BD80B582B000AF78600A00FB1CD5
:10BD70001A707B681B68302293431A00FB1C1B78E7
:10BD80001B011A437B681A60C046BD4602B080BDE5
:10BD900080B582B000AF786008001100FB1C021C67
:10BDA0001A70BB1C0A1C1A707B681B680C22934318
:10BDB0001900FB1C1B78002B01D0042200E000229C
:10BDC000BB1C1B78002B01D0082300E00023134389
:10BDD0000A001A437B681A60C046BD4602B080BDA7
:10BDE00080B582B000AF78600A00BB1C1A80BB1C13
:10BDF0001A887B689A60C046BD4602B080BD0000CC
:10BE000080B584B000AFF860B960FB1D1A70FB68A4
:10BE10001800FFF70FFF2149FA6813009B009B18D9
:10BE20009B0000225A501D49FA6813009B009B1882
:10BE30009B00CB18083300221A601849FA681300D7
:10BE40009B009B189B00CB180C3300221A601348F0
:10BE5000BB689968FA6813009B009B189B00C31885
:10BE6000103319600D48BB685968FA6813009B00CD
:10BE70009B189B00C31804331960BB681A68FB1D2C
:10BE80001B7806481A431100FA6813009B009B18A0
:10BE90009B001950C046BD4604B080BD000005405F
:10BEA00090B587B000AF78600C243B1900221A606F
:10BEB0003B1900225A603B1900229A603B1900216D
:10BEC0001800FFF7E2FE3B1901211800FFF73BFFC6
:10BED0003B1900211800FFF745FF3B190022002104
:10BEE0001800FFF755FF074A3B1911001800FFF72C
:10BEF00077FF7B683A1913CA13C37868BD4607B049
:10BF000090BDC046FFFF000080B58AB000AFF8606A
:10BF1000B960BB1D1A80FB681800FFF78BFEFA683A
:10BF200013009B009B189B000C33154A9918BB1DEE
:10BF30001A88BB68002B01D0102300E000239A4030
:10BF4000BB68002B01D00F4B00E00F4B79623A62C7
:10BF5000FB617B6A1A683B6A5340FA6913407A6A4C
:10BF6000BA617B61BB6980225201944663447A695D
:10BF70001A60C046C046C046BD460AB080BDC04635
:10BF8000000005400000FFFFFFFF000090B583B0F8
:10BF900000AF78600A00BB1C1A807B681800FFF7AE
:10BFA00051FE04007B681800FFF764FE0100BB1C13
:10BFB0001B881A002000FFF7A7FFC046BD4603B04C
:10BFC00090BD000080B588B000AF78600A00FB1C0F
:10BFD0001A707B681800FFF72DFE7A6813009B002B
:10BFE0009B189B000E4A9A18FB1C1B78FA61BB61D8
:10BFF00001237B61FB691A68BB6953407A6913406E
:10C00000FA693A61FB603B698022520194466344BD
:10C01000FA681A60C046C046C046BD4608B080BD3A
:10C020000000054080B582B000AF7860C046BD46D4
:10C0300002B080BD80B582B000AF78607B68180028
:10C04000FFF7F0FF7B689B01A022D2059446634472
:10C050001800BD4602B080BD80B582B000AF7860E8
:10C060000A00FB1C1A707B681B68102293431A009D
:10C07000FB1C1B781B0110210B401A437B681A60C4
:10C08000C046BD4602B080BD80B582B000AF7860CA
:10C090000A00FB1C1A707B681B68202293431A005D
:10C0A000FB1C1B785B0120210B401A437B681A6044
:10C0B000C046BD4602B080BD80B582B000AF78609A
:10C0C0000A00FB1C1A70FB1C1A787B681100180010
:10C0D000FFF7C2FFC046BD4602B080BD80B582B04A
:10C0E00000AF78600A00FB1C1A70FB1C1A787B6892
:10C0F00011001800FFF7C8FFC046BD4602B080BD62
:10C1000080B582B000AF786039603B683F2B06D9BC
:10C11000094B0A4A1C21FF31094818F001FA7B68D3
:10C120001B68084A1A403B68DB031A437B681A60A5
:10C13000C046BD4602B080BDC4E50610A4E70610A7
:10C14000D8E50610FF7FE0FF80B582B000AF7860D1
:10C1500039603B680C2B06D9094B0A4A2A21FF316A
:10C16000094818F0DDF97B681B68084A1A403B68EB
:10C17000DB021A437B681A60C046BD4602B080BD30
:10C1800030E6061048E70610D8E50610FF87FFFFE7
:10C1900080B582B000AF78600A00FB1C1A70FB1CEF
:10C1A0001B78002B0ED0FB1C1B78012B0AD0FB1C2C
:10C1B0001B78022B06D00B4B0B4A3821FF310B4862
:10C1C00018F0AEF97B681B680C2293431A00FB1C25
:10C1D0001B789B001A437B681A60C046BD4602B0BC
:10C1E00080BDC04650E606107CE70610D8E5061074
:10C1F00080B584B000AFF8607A600B23FB180A1C8E
:10C200001A707B681F2B06D90E4B0F4A4C21FF3149
:10C210000E4818F085F9FB681B680D4A1A407B68C8
:10C220009B011A430B23FB181B78002B02D08023A1
:10C23000DB0000E000231A43FB681A60C046BD46DD
:10C2400004B080BD94E6061064E70610D8E5061039
:10C250003FF8FFFF80B582B000AF78600A00FB1C9A
:10C260001A70FB1C1B78002B05D07B681B68802292
:10C27000D2031A4303E07B681B68044A1A407B68B8
:10C280001A60C046BD4602B080BDC046FFFFBFFF7A
:10C2900080B582B000AF78600A00FB1C1A70FB1CEE
:10C2A0001B78002B05D07B681B68802292031A4301
:10C2B00003E07B681B68044A1A407B681A60C0462A
:10C2C000BD4602B080BDC046FFFFDFFF80B582B033
:10C2D00000AF78600A00FB1C1A70FB1C1B78002B57
:10C2E00004D07B681B6802221A4304E07B681B6849
:10C2F000022293431A007B681A60C046BD4602B012
:10C3000080BD80B582B000AF78600A00FB1C1A7057
:10C31000FB1C1B78002B04D07B681B6801221A438E
:10C3200004E07B681B68012293431A007B681A6053
:10C33000C046BD4602B080BD80B582B000AF786017
:10C340000A00FB1C1A70FB1C1B78002B05D07B68B5
:10C350001B68802212041A4303E07B681B68044AAE
:10C360001A407B681A60C046BD4602B080BDC04618
:10C37000FFFF7FFF90B585B000AF78600023FB60C2
:10C380000C243B1901211800FFF796FE3B190021F0
:10C390001800FFF7A3FE3B193F211800FFF7B0FE7E
:10C3A0007A683B1911001800FFF7CEFE3B190221F5
:10C3B0001800FFF7EDFE3B19002200211800FFF7DF
:10C3C00017FF3B1900211800FFF744FF3B1900211C
:10C3D0001800FFF75DFF3B1901211800FFF791FFDF
:10C3E0003B1900211800FFF7A7FF3B190021180097
:10C3F000FFF76CFFFB681800BD4605B090BD80B527
:10C4000082B000AF78607B681B681800BD4602B040
:10C4100080BD90B585B000AFF860B960FB1D1A70A3
:10C42000FB1D1B7801225340DBB2002B0BD0FB68B5
:10C430001800FFF7FFFD0400BB681800FFF7DFFFDF
:10C44000030023610AE0FB681800FFF7F3FD040016
:10C45000BB681800FFF7D3FF0300E360C046BD468A
:10C4600005B090BD80B584B000AFF860B960FB1D29
:10C470001A70FB1D1B7801225340DBB2002B07D042
:10C48000FB681800FFF7D6FD0300BA681A6006E0E3
:10C49000FB681800FFF7CEFD0300BA68DA63C046F8
:10C4A000BD4604B080BD80B584B000AFF860B9600F
:10C4B000FB1D1A70FB1D1B7801225340DBB2002BC1
:10C4C00007D0FB681800FFF7B5FD0300BA685A6093
:10C4D00006E0FB681800FFF7ADFD0300BA68DA62FA
:10C4E000C046BD4604B080BD80B584B000AFF860E2
:10C4F000B960FB1D1A70FB1D1B7801225340DBB293
:10C50000002B07D0FB681800FFF794FD0300BA6802
:10C510009A6006E0FB681800FFF78CFD0300BA681C
:10C52000DA61C046BD4604B080BD80B584B000AFBE
:10C53000F860B960FB1D1A70FB1D1A78B968FB68BA
:10C540001800FFF7D1FFC046BD4604B080BD80B5DE
:10C5500082B000AF78607B681800FFF763FDA0230E
:10C56000DA057B689B01D31810331A6880235B04BB
:10C5700013405A1E9341DBB21800BD4602B080BD85
:10C5800080B582B000AF786000E0C0467B681800DC
:10C59000FFF7DDFF031EF8D1C046C046BD4602B01E
:10C5A00080BD000080B500AF104B1B68002B05D18B
:10C5B000012053F047FC02000C4B1A600C4B1B6827
:10C5C000002B05D1012053F03DFC0200084B1A60FE
:10C5D000084B1B68002B05D1012053F033FC0200EF
:10C5E000044B1A60C046BD4680BDC04648A4022028
:10C5F000D08F0220D48F022090B585B000AF786034
:10C600002D4B1B78002B53D17B682C4A190010004E
:10C6100014F07CFB0121122013F0CEFD0121132028
:10C6200013F0CAFD0121102013F0C6FD012014F003
:10C63000B1FE0200224B1A60214B1B681800FFF765
:10C6400099FE0300FB600C243B1900211800FFF742
:10C650009FFD1A4B01211800FFF720FA02003B1939
:10C6600011001800FFF74CFD3B1901211800FFF7DE
:10C6700023FD3B1900211800FFF730FD104B1B680C
:10C6800018003B1900221900FFF7C3FE0C4B1B6872
:10C690001C000A4B1800FFF773F90300083300224F
:10C6A00019002000FFF7FFFE034B01221A7000E083
:10C6B000C046BD4605B090BD5EB0022000C003403C
:10C6C000941D002080B500AF0F4B1B68002B01D1DB
:10C6D000002316E00C4B1B68FA2292001100180090
:10C6E00053F094FD0300012B01D1012309E0002048
:10C6F00054F0C4FE0200054B1100180051F0B2F8CE
:10C7000000231800BD4680BD48A40220A4E6061000
:10C7100080B500AF064B1B68002B06D0044B186891
:10C7200000230022002153F0BBFAC046BD4680BD65
:10C7300048A4022080B582B000AF0200FB1D1A7031
:10C74000FB1D04480122190060F02AFCC046BD46CA
:10C7500002B080BD00C0034090B585B000AF0200BC
:10C76000FB1D1A700F243A19FB1D19780448012388
:10C7700060F0CEFB3B191B781800BD4605B090BD9C
:10C7800000C0034080B582B000AF78603960184BBC
:10C790001B68002B20DB3B681F2B1DD9144B1B682B
:10C7A00018007B6800221900FFF75CFE104B1B6825
:10C7B00018003B6801221900FFF7B7FE0C4B1B68FD
:10C7C0001800FFF7DDFE00E0C0460A4B1800FFF737
:10C7D00051F9031EF8D106E03A687B680548190054
:10C7E00060F0DEFBC046C046BD4602B080BDC0461C
:10C7F000941D002000C0034090B585B000AFB96023
:10C800007A600F217B18021C1A707868BA687B184E
:10C810001978044C0300200060F07AFBC046BD4646
:10C8200005B090BD00C0034080B582B000AF786015
:10C830007B68054A1900100014F0ACFA03001800D8
:10C84000BD4602B080BDC04600C0034090B587B071
:10C8500002AF040008001100FB1D221C1A70BB1D52
:10C86000021C1A707B1D0A1C1A70BB1D1B785A1EF5
:10C870009341DAB20F243B191A707B1D1B785A1EA4
:10C880009341DAB20E203B181A70FB1D19783B1841
:10C8900018783B191A78054C0123009303002000F7
:10C8A000FFF788F8C046BD4605B090BD00C0034004
:10C8B00080B584B000AFF860B9607A603B603B68D7
:10C8C0001B78002B1BD1BA69FB681100180010F00F
:10C8D0004BFDBB680321180013F06EFC7B6803213D
:10C8E000180013F069FCBB681800FEF7BEFF7B68F8
:10C8F0001800FEF7BAFF3B6801221A7000E0C0463C
:10C90000BD4604B080BD000080B584B002AF786041
:10C91000064A07487B680093130015221421FFF78D
:10C92000C7FFC046BD4602B080BDC04637B002203A
:10C93000381E002090B589B002AFB9607A60190046
:10C940000F23FB18021C1A700E23FB180A1C1A7006
:10C950001A4B1B68002B02D0BB68002B02D10123AD
:10C960005B4226E0154B1B68FA229200110018006A
:10C9700053F04CFC0300012B02D001235B4218E072
:10C980007C68BA680F23FB1819780D480D4B01938A
:10C990000E23FB181B7800932300FFF7EFF803002A
:10C9A0007B61064B186800230022002153F078F9C0
:10C9B0007B691800BD4607B090BDC046D08F0220ED
:10C9C000381E002050C3000090B589B002AFB96096
:10C9D0007A6019000F23FB18021C1A700E23FB1833
:10C9E0000A1C1A701A4B1B68002B02D0BB68002B64
:10C9F00002D101235B4226E0154B1B68FA2292000C
:10CA00001100180053F002FC0300012B02D0012397
:10CA10005B4218E07C68BA680F23FB1819780D4850
:10CA20000D4B01930E23FB181B7800932300FFF797
:10CA3000D3F803007B61064B186800230022002115
:10CA400053F02EF97B691800BD4607B090BDC04673
:10CA5000D08F0220381E002050C3000090B589B04E
:10CA600002AFB9607A603B600F23FB18021C1A709A
:10CA7000284B1B68002B05D0BB68002B02D03B68FD
:10CA8000002B02D101235B4240E0224B1B68FA22BB
:10CA900092001100180053F0B9FB0300012B02D0E3
:10CAA00001235B4232E07C68BA680F23FB181978D7
:10CAB00019481A4B0193012300932300FFF75EF8F6
:10CAC00003007B617B69002B09DA124B1868002395
:10CAD0000022002153F0E4F801235B4216E0BC6A17
:10CAE0003A680F23FB1819780B480C4B019300236D
:10CAF00000932300FFF770F803003B61054B1868B3
:10CB000000230022002153F0CBF83B691800BD46FA
:10CB100007B090BDD08F0220381E002050C3000007
:10CB200080B582B000AF78607B68180013F002FD1A
:10CB30007B6801211800FEF7F3FEC046BD4602B037
:10CB400080BD80B582B000AF78607B68180013F0BC
:10CB5000F1FC7B6800211800FEF7E2FE7B681800FC
:10CB6000FEF783FEC046BD4602B080BD80B582B0F0
:10CB700000AF78600A00FB1C1A70FB1C1A787B68F7
:10CB800011001800FEF797FEC046BD4602B080BDFA
:10CB900080B500AF01211920FEF78DFEC046BD46CD
:10CBA00080BD80B500AF00211920FEF784FEC0468D
:10CBB000BD4680BD80B500AFC046BD4680BD80B5D6
:10CBC00082B000AF78607A681C21002391425B41FB
:10CBD000DBB21800BD4602B080BD000090B58BB03E
:10CBE00000AFF8607A600A23FB180A1C1A80FB6801
:10CBF0001800FFF7E4FF03001A0001235340DBB2E3
:10CC0000002B01D0002377E0FB681800FFF71AF82B
:10CC100003007B623A4B1B781A007B6A1A4123207F
:10CC20003B181A701A7801210A401A703B181B78B9
:10CC300001225340DBB2002B55D07B68002B02D180
:10CC4000FA239B007B60052013F002FA0300180012
:10CC500015F07FFD041C786815F07BFD031C8F2107
:10CC6000C905181C15F029FD031C191C201C15F002
:10CC70000EFD031CFB6110243B191800FFF710F98F
:10CC8000FA693B19111C1800FFF719F81D4A3B19E6
:10CC900011001800FFF7A4F839197B6A0022180068
:10CCA000FFF7AEF80A23FB181A88FB68110018007A
:10CCB000FFF76CF97B6A01211800FFF783F9FB6825
:10CCC0000421180013F078FA01227B6A9A401300BD
:10CCD0005AB20B4B1B785BB213435BB2DAB2084B10
:10CCE0001A70012308E00A23FB181A88FB68110058
:10CCF0001800FFF74BF901231800BD460BB090BD9B
:10CD00003EB00220FFFF000080B584B000AF786025
:10CD10000A00BB1C1A807B681800FFF750FF030055
:10CD20001A0001235340DBB2002B01D0002320E086
:10CD30007B681800FEF786FF0300FB600F4B1B7833
:10CD40001A00FB681A4113000122134009D1FA238B
:10CD50009A00BB1C19887B681800FFF73FFF03008F
:10CD600007E0BB1C1A887B6811001800FFF70EF95A
:10CD700001231800BD4604B080BDC0463EB002206D
:10CD800080B584B000AF78600A00FB1C1A70FB1CF1
:10CD90001B78642B02D9FB1C64221A70FB1C1A78C6
:10CDA00013001B049B1A6421180014F00BFD0300F0
:10CDB0001A000E217B181A807B181A887B681100D4
:10CDC0001800FFF7A1FF03001800BD4604B080BDA6
:10CDD00080B500AF0F4B1800FFF70EFC1120FFF7D6
:10CDE0009FFE01211120FEF766FD0220FFF798FE4D
:10CDF0000320FFF795FE64210720FFF7C1FF012103
:10CE00000220FEF758FD00210320FEF754FDC04626
:10CE1000BD4680BDA0ACB90380B500AF064B18007D
:10CE2000FFF772FD0E20FFF77BFE01210E20FEF7BB
:10CE300042FDC046BD4680BD801A0600B0B58AB02E
:10CE400000AF786008257B19094A13CA13C313CAB7
:10CE500013C303CA03C37B687A1913CA13C313CA63
:10CE600013C303CA03C37868BD460AB0B0BDC04649
:10CE7000D0E60610B0B588B000AF78600C257B19FD
:10CE8000074A13CA13C303CA03C37B687A1913CAB8
:10CE900013C303CA03C37868BD4608B0B0BDC0461B
:10CEA000F0E60610B0B588B000AF78600C257B19AD
:10CEB000074A13CA13C303CA03C37B687A1913CA88
:10CEC00013C303CA03C37868BD4608B0B0BDC046EB
:10CED00004E70610B0B588B000AF78600C257B1968
:10CEE000074A13CA13C303CA03C37B687A1913CA58
:10CEF00013C303CA03C37868BD4608B0B0BDC046BB
:10CF000018E70610B0B58AB000AF78600C257B1921
:10CF1000094A13CA13C313CA13C312681A607B6881
:10CF20007A1913CA13C313CA13C312681A60786834
:10CF3000BD460AB0B0BDC0462CE7061080B500AFB4
:10CF4000044B1800FFF7E0FC0120FFF7FAFDC04694
:10CF5000BD4680BD801A0600B0B586B000AF3A4B22
:10CF60001B78002B01D0002369E0384B10220021F0
:10CF7000180015F085FD00204DF0D6FE0200344B60
:10CF80001A60334B1B68002B05D1324B180050F050
:10CF900069FC042353E0FFF7D1FF3B001800FFF7C3
:10CFA00099FF2B4B1A683B001B7817257C19190039
:10CFB00010004DF06BFF030023707B191B78002BD2
:10CFC00011D07B191B7818004EF0BEF90200224BDD
:10CFD0001100180050F046FC7B191B78180000F077
:10CFE000C9F903002BE0032000F084F8002103209E
:10CFF00000F0F0F80D2000F07DF800210D2000F089
:10D00000E9F80B2000F076F800210B2000F0E2F8A0
:10D010000C2000F0A5F8092000F0A2F80A2000F08A
:10D020009FF80E2000F09CF80F2000F099F8064BB6
:10D0300001221A70094B180050F014FC002318004C
:10D04000BD4606B0B0BDC04647B00220F89B0220E6
:10D050007C9B0220BCE70610DCE70610F4E7061014
:10D0600080B584B002AF114B1B68002B19D180230F
:10D070005A000F490F480D4B0193002300930023E2
:10D0800053F0CAFE03007B607B68012B04D10A4B7E
:10D09000180050F0E7FB05E0084B180050F0E2FBE9
:10D0A00000E0C046BD4602B080BDC046289D0220BB
:10D0B0001CE806104DD2001030E8061058E80610A3
:10D0C00080B500AF094B1B68002B0BD0074B1B68CA
:10D0D000180053F0E5FE054B00221A60044B1800BF
:10D0E00050F0C0FBC046BD4680BDC046289D022012
:10D0F0008CE80610B0B584B000AF0200FB1D1A70BA
:10D10000154B1B7801225340DBB2002B01D00223C8
:10D110001EE0FB1D1B780F2B01D9032318E008210B
:10D120007B1800221A607B18FA1D12781A700B4BBC
:10D130001B680F257C197A18110018004EF0C5F8ED
:10D14000030023707B191B78180000F013F903000B
:10D150001800BD4604B0B0BD47B002207C9B022041
:10D16000B0B584B000AF0200FB1D1A70174B1B78DE
:10D1700001225340DBB2002B01D0022321E0FB1D32
:10D180001B780F2B01D903231BE008217B180022F9
:10D190001A607B18FA1D12781A707B1801225A70D7
:10D1A0000B4B1B680F257C197A18110018004EF0E4
:10D1B0008CF8030023707B191B78180000F0DAF854
:10D1C00003001800BD4604B0B0BDC04647B0022001
:10D1D0007C9B0220B0B584B000AF0200FB1D1A702A
:10D1E000BB1D0A1C1A70174B1B7801225340DBB27F
:10D1F000002B01D0022321E0FB1D1B780F2B01D94E
:10D2000003231BE0BB1D1B78013B5A425341DAB29A
:10D210000F217B181A700C4B18680E257C197B188F
:10D220001A78FB1D1B7819004DF04EFF0300237088
:10D230007B191B78180000F09DF803001800BD460C
:10D2400004B0B0BD47B002207C9B022080B584B002
:10D2500000AF786054F000F90300FB600C4B1B68D2
:10D26000FA68D21AFA239B009A4206D3084BFA684E
:10D270001A60084B180050F095F80121072007F0BC
:10D28000A9FE00F009F8322054F0F8FAE2E7C046AF
:10D29000746D02201CE8061090B583B000AFFB1D32
:10D2A00000221A701EE0184B18687C1D3A1DFB1DE9
:10D2B0001B7819004DF06DFF030023707B1D1B7858
:10D2C000002B0AD13B1D1B78013B5A425341DAB275
:10D2D000FB1D1B7811000D4AD154FB1D1A78FB1D54
:10D2E00001321A70FB1D1B780F2BDCD9BB1D074ABE
:10D2F000127B1A70BB1D1B78180000F009F8C0469D
:10D30000BD4603B090BDC0467C9B0220F89B022026
:10D3100080B584B000AF0200FB1D1A700F203B18CF
:10D32000FA1D127851424A411A70104B1B783A1874
:10D3300012789A4203D10E4B00221A7011E00C4B66
:10D340001B780133DAB20A4B1A70094B1B78022B97
:10D3500007D9064B0F22BA1812781A70044B002214
:10D360001A70C046BD4604B080BDC04645B002201C
:10D3700044B0022080B582B000AF0200FB1D1A70DD
:10D38000FB1D1B78052B07D00ADC002B02D0042BD9
:10D3900004D005E0002304E0022302E0032300E0C0
:10D3A00004231800BD4602B080BD80B584B000AF34
:10D3B0000200FB1D1A7008F01BFC0300FB60FB68F9
:10D3C00078229B5C01225340DBB2002B01D000236A
:10D3D0002FE0FB1D1B783C2B01D1002329E0FB1D16
:10D3E0001B783D2B03D0FB1D1B783E2B06D1FB6821
:10D3F000F9229B5C002B01D001231AE0FB1D1B7856
:10D40000392B03D0FB1D1B783A2B06D1FB68FA227F
:10D410009B5C002B01D001230BE0FB1D1B78342B00
:10D4200006D1FB68FC229B5C002B01D0012300E0AD
:10D4300000231800BD4604B080BD000080B582B056
:10D4400000AF0200FB1D1A70FB1D1B780A2B1AD8B7
:10D450009A000F4BD3181B689F460E4B14E00E4BDF
:10D4600012E00E4B10E00E4B0EE00E4B0CE00E4B9C
:10D470000AE00E4B08E00E4B06E00E4B04E00E4BAC
:10D4800002E00E4B00E00E4B1800BD4602B080BD1E
:10D490007CEE0610F4E80610F8E8061000E9061025
:10D4A00010E9061028E9061038E9061050E90610C0
:10D4B00060E9061070E9061078E9061080E90610A8
:10D4C00090E9061080B582B000AF0200FB1D1A7013
:10D4D000FB1D1B78112B28D89A00164BD3181B68FC
:10D4E0009F46154B22E0154B20E0154B1EE0154BD7
:10D4F0001CE0154B1AE0154B18E0154B16E0154BC8
:10D5000014E0154B12E0154B10E0154B0EE0154BD7
:10D510000CE0154B0AE0154B08E0154B06E0154BE7
:10D5200004E0154B02E0154B00E0154B1800BD461A
:10D5300002B080BDA8EE061098E90610A0E906101A
:10D54000B0E90610C0E90610D0E90610DCE90610C3
:10D55000E4E90610F8E9061004EA061014EA0610D9
:10D56000F8E8061020EA061030EA061048EA06102D
:10D5700060EA061074EA061000E906108CEA06104C
:10D5800090E9061080B582B000AF0200FB1D1A7052
:10D59000FB1D1B78042B0ED89A00094BD3181B686F
:10D5A0009F46084B08E0084B06E0084B04E0084B98
:10D5B00002E0084B00E0084B1800BD4602B080BDF9
:10D5C000F0EE0610A0EA0610A8EA0610B0EA06106F
:10D5D000C0EA0610F8E8061090E90610B0B59AB057
:10D5E00000AFA0235A00594B0021180015F048FA4B
:10D5F00000204EF063FB0200544BB4215A50534BB1
:10D60000B4229B58002B01D101239BE0012052F052
:10D6100019FC02004D4BB8215A504C4BB8229B5874
:10D62000002B01D101238DE0484BA0220021995409
:10D63000464BA12200219954444BC0220021995409
:10D64000424BC12200219954404BD42200219950D1
:10D650003E4BD822002199503C4BDC2200219950AE
:10D660003A4BE02200219950384BE4220021995096
:10D67000364BE82200219950344BEC22002199547A
:10D6800001F0F0FC324B00221A70324B00221A706B
:10D6900008F0AEFA03007B6608243B1918005823F3
:10D6A0001A00002115F0ECF97B6E78229A5C3B1988
:10D6B0001A707B6EF3229A5C3B195A707B6EF122D2
:10D6C0009A5C3B199A707B6EF2229A5C3B19DA7075
:10D6D0007B6EBC229A583B195A607B6EF4229A5892
:10D6E0003B199A607B6EF8229B5C1A003B19DA604A
:10D6F0007B6E79331A003B19103311002022180079
:10D7000015F0C4F97B6E99331A003B1930331100C0
:10D710002022180015F0BAF93B0018001DF054FC47
:10D7200025003B193A00503311000822180015F06B
:10D73000ADF96323FC187B1918004EF0E3F80300E1
:10D74000237000231800BD461AB0B0BD8C8A022099
:10D750003AB002203DB00220F0B5C7B002AF786009
:10D760007B68002B01D10123A2E153F075FE030079
:10D7700086267600BA191360CF4BD4229B58BA196B
:10D7800012689A422CD2CC4BD4229A58BB191B68EF
:10D79000D31A1C0000231D00FA229200002320004F
:10D7A000290014F04DFF02000B0010001900FA22AE
:10D7B0009200002314F044F802000B001300F4223E
:10D7C000BA181360BD4B1B68BA191268D31ABC4A49
:10D7D000934203D9B94BBA1912681A60092367E159
:10D7E000B54BB8229B58FA2292001100180052F053
:10D7F0000DFD0300012B01D0092359E10C23FF3358
:10D80000FB1800221A70AC4BA22279689B180F22D9
:10D81000180015F03BF9022001F0B0FEA64BC12222
:10D8200000219954A74BFF221A7008F0E1F9030078
:10D830007A1DFF3213609C243B19180058231A00EC
:10D84000002115F01DF97B1DFF331B6878229A5CBF
:10D850003B191A707B1DFF331B68F3229A5C3B193E
:10D860005A707B1DFF331B68BC229A583B195A60C3
:10D870007B1DFF331B6879331A003B1910331100ED
:10D880002022180015F002F97B1DFF331B68993325
:10D890001A003B19303311002022180015F0F6F859
:10D8A0007B1DFF331B68F0229B5C002B2FD02824AC
:10D8B0003B1918004FF0D6FB7B1DFF331B687933F3
:10D8C00019003B19202218004FF0F4FB79687B689F
:10D8D0009B7A1A003B1918004FF0ECFB7A493B1970
:10D8E000062218004FF0E6FB0823FA183B19110036
:10D8F00018004FF000FC7549754B882252009B18A8
:10D90000DA190B001168196092889A8005E06F4B54
:10D910000622FF21180015F0B3F87A687B689B7A1D
:10D920003C1DFF349C2179186A48002500954EF073
:10D9300011F8030023700121062007F04BFB5E4B1A
:10D94000A0229B5C002B05D05B4BA0229B5C0A2B8A
:10D9500000D0A1E0584BA0229B5C0A2B06D10220EC
:10D9600001F00CFE544BC12200219954012001F01A
:10D970004BFB53F071FD0300FC22B9180B604E4BBA
:10D98000E021BA1812685A504B4BB822985800231D
:10D990000022002152F084F90C25FF357C194E4AF3
:10D9A0004E4B1100180002F0D9FC03002370012136
:10D9B000062007F00FFB7B191B78002B3ED10520BA
:10D9C00001F022FBFB23FC1801F0CEFD03002370C5
:10D9D000012001F0D3FD384BA2229B5C1900364B8D
:10D9E000A3229B5C1C00344BA4229B5C1D00324B89
:10D9F000A5229B5C1A00304B1B69394801930092A9
:10DA00002B0022004FF02EFF2B4BA2229B5C190013
:10DA1000294BA3229B5C1C00274BA4229B5C1D006E
:10DA2000254BA5229B5C1A00234B1B692D480193B3
:10DA300000922B00220006F0C1FC28E00C23FF33EB
:10DA4000FB181B780A2B06D103F064FD264B180047
:10DA50004FF008FF1BE00C23FF33FB181B78042B4F
:10DA600002D103F03FFD12E00C24FF343B191B7878
:10DA7000092B0CD003F066FD3B191B781800FFF74B
:10DA8000DDFC0200194B110018004FF0EBFE0C23D7
:10DA9000FF33FB181B780BE0074BB8229858002384
:10DAA0000022002152F0FCF80C23FF33FB181B78F6
:10DAB0001800BD4645B0F0BD8C8A0220F48F0220CC
:10DAC00088130000981D0020D4EA06109C1D002039
:10DAD000F8FEFFFF848B022040420F002E8B0220B5
