:020000041001E9
:1000000000B5324B212058609868022188439860DF
:10001000D860186158612E4B002199600221596106
:100020000121F02299502B49196001219960352056
:1000300000F044F80222904214D00621196600F024
:1000400034F8196E01211966002018661A6600F04E
:100050002CF8196E196E196E052000F02FF8012189
:100060000842F9D1002199601B49196000215960AB
:100070001A491B48016001219960EB211966A021F2
:10008000196600F012F800219960164914480160C1
:100090000121996001BC002800D000471248134993
:1000A000086003C880F30888084703B5996A0420EC
:1000B0000142FBD001200142F8D103BD02B5186610
:1000C0001866FFF7F2FF186E186E02BD00000240BE
:1000D000000000180000070000035F00212200005C
:1000E000F4000018222000A00001001008ED00E03C
:1000F00000000000000000000000000074B24E7A12
:1001000000200420F7010110CB010110CD010110E6
:10011000C9010110C9010110C9010110C901011073
:10012000C9010110C9010110C9010110D11A07103C
:10013000C9010110C9010110051B0710CF1C0710D0
:10014000C1010110C1010110C1010110C101011063
:10015000C1010110C1010110C1010110C101011053
:10016000C1010110C1010110C1010110C101011043
:10017000C1010110C1010110C1010110C101011033
:10018000C1010110C1010110C1010110C101011023
:10019000C1010110C1010110C1010110C101011013
:1001A000C1010110C1010110C1010110C101011003
:1001B000C1010110C1010110C1010110C1010110F3
:1001C000EFF30580103800BE00BE00BE00BE00BECA
:1001D00000BE00BEF2EB8871B47A0F10D47A0F1013
:1001E0003802011090A31AE71E481F49086006C88C
:1001F00081F3088810471D480068002801D019487D
:10020000F3E70DA40ECC002902D000F012F8F9E7B4
:100210001749184A002000E001C19142FCD116495B
:100220008847164988471649884700BEFDE701C937
:1002300001C29A42FBD37047D47A0F10C00000204D
:10024000A0270020B4A10F1000000420000004200B
:10025000B4A10F10001004200010042000000000C2
:10026000704700000000000008ED00E0000000D032
:10027000A0270020D4E8022081710210B5030110EC
:1002800025710210F8B5C04606480749091A8B10B7
:10029000C90FC91810B5491003D0044B002B00D06A
:1002A000984710BDA0270020A027002000000000D4
:1002B000054B10B5002B03D00449054800E000BFF2
:1002C000FFF7E2FF10BDC046000000009C34012093
:1002D00078EF071080B582B000AF7860D0231B069E
:1002E0007A685A61C046BD4602B080BD80B582B012
:1002F00000AF7860D0231B067A689A61C046BD467D
:1003000002B080BD80B584B000AF78600A00FB1CED
:100310001A7001227B689A401300FB60FB1C1B785B
:10032000002B04D0FB681800FFF7D4FF03E0FB6844
:100330001800FFF7DBFFC046BD4604B080BD80B5A6
:1003400082B000AF7860D0231B067A685A62C0463C
:10035000BD4602B080BD80B582B000AF7860D023CA
:100360001B067A689A62C046BD4602B080BD80B561
:1003700084B000AF78600A00FB1C1A7001227B6811
:100380009A401300FB60FB1C1B78002B04D0FB6819
:100390001800FFF7D4FF03E0FB681800FFF7DBFF4E
:1003A000C046BD4604B080BD80B500AFC046BD4666
:1003B00080BD000080B500AF002100201BF076FF5B
:1003C000062012F033FF01210620FFF7D0FF0121A4
:1003D0000620FFF797FF114B180017F0F0F8FFF712
:1003E000E3FF0F4B180017F0EAF806F063F94BF043
:1003F0002FF863F055FF0B4B180017F0E0F80121C0
:1004000006204EF0B7FF322011F0CFF90021062070
:100410004EF0B0FF322011F0C8F9F0E778EF071086
:1004200094EF0710B4EF071080B500AF034B1B68C3
:100430005A1C024B1A60C046BD4680BDC81501203B
:1004400080B582B000AF786039600F4B180017F0AC
:10045000B6F87A680D4B1100180017F0F5F83B68F4
:10046000002B06D03A680A4B1100180017F0ECF880
:1004700003E0084B180017F0A2F8074B180017F01C
:100480009EF872B6FEE7C046D0EF0710F4EF0710F3
:1004900008F0071018F007102CF0071080B584B092
:1004A00000AFF860B9607A60FB68064A1A60BB6802
:1004B000054A1A607B68802292001A60C046BD46D9
:1004C00004B080BD886C002070CD022080B584B05F
:1004D00000AFF860B9607A60FB68064A1A60BB68D2
:1004E000054A1A607B68C02292001A60C046BD4669
:1004F00004B080BD386E002070D5022080B500AFFA
:10050000014B1800BD4680BD78F1071080B582B060
:1005100000AF0200FB1D1A70024B1800BD4602B06E
:1005200080BDC0468CF1071080B588B000AF0200D6
:10053000FB1D1A703B1D0A1C1A80FB1D1B78002B2B
:1005400002D0032B0AD02DE0384B1968384B022219
:10055000180015F00FF90123FB6156E0354B11210E
:1005600018001CF0F5FF334B180068F025FA030063
:10057000FB61FB691F2B01D91F23FB610023BB61BA
:100580000BE02C4ABB69D3181978BB695A1C2A4B5B
:100590005200D152BB690133BB61BA69FB699A420F
:1005A000EFD332E0FB1D1B78052B01D9002339E086
:1005B000FB1D1A781D4B9200D3583B613B69002B01
:1005C00001D100232EE03B69180068F0F5F9030023
:1005D000FB612023FB60FA69FB689A4201D9FB6842
:1005E000FB6100237B610BE03A697B69D3181978C2
:1005F0007B695A1C104B5200D1527B6901337B61DD
:100600007A69FB699A42EFD3C046FB699BB201331A
:100610009BB2DB189BB2C022920013439AB2064BE6
:100620001A80054B1800BD4608B080BD781D00201B
:100630006EDD00200C5602206CDD002090B585B0E8
:1006400000AF704B18005EF025F805F0F7FD05F0DF
:10065000C1FE4CF04DFB0F243B1902221A7007F02B
:10066000ABFA031E12D0684B18005EF013F83C1969
:100670004DF066FC0300237007F07CFF4BF086FB17
:10068000031E03D0614B18005EF004F80F243B19E1
:100690001B78002B08D05E4B18005DF0FBFF3C1967
:1006A0004CF0F6FA030023700F23FB181B78002B85
:1006B0000DD14CF097FA0300BB60BB68D91DBB6835
:1006C00017331A00534B18005DF0E4FF07E00F23C7
:1006D000FB181A78504B110018005DF0DBFF4CF04E
:1006E00081FA03007B607B688E229B5C002B0AD022
:1006F00006F05AF8031E03D0484B01221A7102E09B
:10070000464B02221A717B688D229B5C002B25D000
:100710007B68B722920094466344FC1C18005FF08B
:10072000D7FE03002370FB1C1B7801225340DBB271
:10073000002B03D03A4B18005DF0ACFF06F062FAD4
:10074000FB1C1B78002B01D0012200E00222334B5E
:10075000DA70344B19000D204AF0A6FE7B688A221D
:100760009B5C002B09D000F097FC2C4B01221A70E7
:100770002D4B19000B204AF097FE4BF07BF802003E
:100780002A4B1A60294B1B68002B12D006F046FC3E
:1007900003F072FD7B688B229B5C002B09D057F025
:1007A000F1F91E4B01225A70214B19000E204AF01C
:1007B0007BFE7B688C229B5C002B09D004F074FDCF
:1007C000164B01229A701B4B19000C204AF06CFE4C
:1007D0007B688F229B5C002B0BD006F053FC07F04C
:1007E000E5FE0E4B01225A71134B190004204AF00A
:1007F0005BFE124B18005DF04DFFC046BD4605B0D4
:1008000090BDC04678F20710A0F20710CCF2071096
:10081000F0F2071028F3071054F30710F4E2012058
:1008200088F30710C4F3071034F207107436012060
:10083000D0F3071050F2071070F20710D8F307102A
:1008400080B582B000AF0200FB1D1A70FB1D1B7843
:10085000052B08D9FB1D1A78424B110018005DF0DA
:1008600019FF00237AE0FB1D1B783F4AD35C012B64
:100870000BD1FB1D1A783D4B9200D2583C4B110016
:1008800018005DF007FF002368E0FB1D1A78374B66
:100890009200D258374B110018005DF0FBFEFB1D93
:1008A0001B78052B52D89A00334BD3181B689F46F0
:1008B00000F0F2FB2C4B01221A70304B19000B2078
:1008C0004AF0F2FD012349E057F05CF9264B012282
:1008D0005A702B4B19000E204AF0E6FD01233DE033
:1008E00004F0E2FC204B01229A70264B19000C20E8
:1008F0004AF0DAFD012331E006F084F91A4B0122B7
:10090000DA70214B19000D204AF0CEFD012325E0BD
:1009100005F04AFF031E09D0134B01221A711B4B2D
:1009200019000F204AF0C0FD012317E0002315E055
:1009300006F0A8FB07F03AFE0B4B01225A71144B4C
:10094000190004204AF0B0FD012307E0FB1D1A78CE
:10095000104B110018005DF09DFE00231800BD46ED
:1009600002B080BD04F40710F4E20120901D0020C5
:1009700028F4071048F4071068F7071034F207103E
:10098000D0F3071050F20710C4F3071064F20710F9
:1009900070F2071064F4071080B582B000AF020057
:1009A000FB1D1A70FB1D1B78052B01D900230AE0E3
:1009B000FB1D1A78064B9200D258064B1100180006
:1009C0005DF068FE00231800BD4602B080BDC04641
:1009D000901D002084F4071080B582B000AF0200A3
:1009E000FB1D1A70FB1D1B78052B01D9022303E0A8
:1009F000FB1D1B78024AD35C1800BD4602B080BDC7
:100A0000F4E2012080B582B000AF0200FB1D1A7035
:100A1000FB1D1B78052B01D9054B04E0FB1D1A7843
:100A2000044B9200D3581800BD4602B080BDC046AA
:100A3000ACF40710901D0020B0B58CB000AF4CF0A6
:100A4000D1F80300BB624A4B18005DF023FE494B0E
:100A500018005DF01FFE484B18005DF01BFE454B73
:100A600018005DF017FE454B18005DF013FE444B77
:100A700018005DF00FFEBB6A8A229B5C002B01D040
:100A8000404A00E0404A1023FB181A60BB6A8B22E0
:100A90009B5C002B01D03B4A00E03B4A1023FB1833
:100AA0005A60BB6A8C229B5C002B01D0354A00E067
:100AB000354A1023FB189A60BB6A8D229B5C002B81
:100AC00001D0304A00E0304A1023FB18DA60BB6ADC
:100AD0008E229B5C002B01D02A4A00E02A4A102378
:100AE000FB181A61BB6A8F229B5C002B01D0254A40
:100AF00000E0254A1023FB185A613B1D234A13CA04
:100B000013C32F23FB1800221A701CE02F257B191A
:100B10001A781F4B9200D1587B191A781023FB18B2
:100B20009200D4587B191B781A4AD35C1A003B1DDB
:100B30009200D358184822005DF0ACFD7B191A785A
:100B40007B1901321A702F23FB181B78052BDDD976
:100B5000084B18005DF09EFD104B18005DF09AFDEB
:100B60000F4B18005DF096FDC046BD460CB0B0BD01
:100B7000B4F40710B8F4071078F50710BCF50710A7
:100B8000F0F50710B0F60710BCF607105CF7071079
:100B9000901D0020F4E20120C8F60710DCF60710D3
:100BA00008F70710B0B582B000AF78607B681C0012
:100BB00000231D00FA22920000232000290014F0D7
:100BC00097FB02000B0010001900FA22920000238C
:100BD00013F08EFC02000B001300180063F002FEFD
:100BE000C046BD4602B0B0BDF0B597B002AF786068
:100BF000C34B18005DF04EFD5FF06EFAC14B18005C
:100C00005DF048FDC04B1900012062F06BF8020056
:100C1000BE4B1A60BD4B1B68002B0BD1BC4B1800A0
:100C20005DF038FDBB4B18005DF034FD002063F033
:100C3000B7F823E2B84B18005DF02CFD5FF020FA06
:100C4000692063F0CFFDB54B18005DF023FD322025
:100C500063F0C8FDB24B18005DF01CFD2DF01EFCCA
:100C6000B04B18005DF016FDAF4B180036F00CFAD3
:100C7000AE4B18005DF00EFDA0235A00AC4BF021E6
:100C800018005DF007FDAB4AA0235900AA4B009362
:100C900013000322F0202AF03FFD0200A74B1A6048
:100CA000A64B1B68002B10D1A54B18005DF0F2FC81
:100CB000984B18005DF0EEFC944B1B68180062F036
:100CC00043FD002063F06CF8D8E19E4B18005DF006
:100CD000E1FC9A4B1B680021180026F08CFC9A4B13
:100CE00018005DF0D7FC96235A01984B11001800AC
:100CF0005DF0D0FC914B186896235B01944900226B
:100D00000092002225F0F8FE924B18005DF0C2FC24
:100D1000914B18005DF0BEFC1DF062FA8F4B18007D
:100D20005DF0B8FC00F05AFB00205FF0C1F95FF005
:100D300003FB824B1B68180025F0FFFD0300FB63DB
:100D4000FA6B874B110018005DF0A4FC63F004FB04
:100D50000300BB63BB6BFB64BB6BBB643DE063F038
:100D6000FBFA03007B637A6BFB6CD31A3B633B6B30
:100D7000002B05D03B6B180036F032F97B6BFB641F
:100D800031F0E8FD01210B204AF002FD7A6BBB6BCC
:100D9000D31AFB627A6BBB6CD31ABB62BA6AFA23B2
:100DA0005B009A4209D37B6BBB645FF0BFFA010022
:100DB000FB6AFA6B6B485DF06DFCFB6A6A4A934212
:100DC00008D95FF0B3FA0100FB6AFA6B67485DF07F
:100DD00061FC08E0052063F005FD5FF0A7FA020062
:100DE000FB6B9A42BBD3642063F0FCFC5FF09EFA7D
:100DF00002005F4B110018005DF04CFC5D4B1800C9
:100E00005DF048FC4723FB1800221A700DE04726CE
:100E1000BB191B7818005FF04BF91E2063F0E2FC51
:100E2000BB19BA19127805321A704723FB181B78C0
:100E3000642BECD964205FF03BF94F4B18005DF058
:100E400029FC4E4B18005DF025FC63F085FA030089
:100E5000FB6063F081FA0200494B1A60484B1A6844
:100E6000484B1A6063F078FA03007B62464B1B68BC
:100E70007A6AD21AFA239B009A4206D3424B7A6AC4
:100E80001A60424B18004AF083FF01210B204AF000
:100E90007FFC63F061FA03003B624BF0A3FE0200AB
:100EA000CA235B00D358FB61364B1B683A6AD31ADE
:100EB000FA699A4214D8334B3A6A1A60134B1B688A
:100EC0000A21180062F0F6F80300012B08D100F0A7
:100ED000B1FA0E4B186800230022002161F030FEA9
:100EE0000A4B1B68FA2252001100180062F0E2F867
:100EF0000300012B4CD00A2063F074FCBDE0C04617
:100F000080F70710B8F70710383401203434012077
:100F1000D0F70710FCF707102CF8071054F807104B
:100F20006CF8071090F80710A50B0110A8F807102F
:100F3000D0F8071005010710910107104C1A012085
:100F400004F907102CF9071058F9071090F9071049
:100F5000002C0020C4F90710E8F9071004FA071064
:100F60001CFA071054FA0710B70B000090FA07108C
:100F7000D0FA071004FB071024FB071058FB0710DA
:100F800028570220F8190120C4DD00208CFB07102F
:100F900063F0E2F90300BB613A4B1B68002B0BD0F6
:100FA000384B1B68BA69D31A7B617B69002B03D06D
:100FB0007B69180036F014F8324BBA691A604BF0AE
:100FC00011FE0200C4235B00D358FA2291001800DE
:100FD00013F050FA03003B612B4B1B78002B07D119
:100FE0002A4B1B683A699A4202D8274B01221A7091
:100FF00031F0B0FC03003B6463F0AEF90200244B17
:101000001B68D31AFA229100180013F033FA030078
:101010001A001E4B1A601F4B186800230022002183
:1010200061F08EFD3B6C642B06D94BF0DBFD0200BA
:10103000C2235B00D3583B643B6C042B01D80523CF
:101040003B643B6C1C0000231D00FA22920000232D
:101050002000290014F04CF902000B0010001900C8
:10106000FA229200002313F043FA02000B000C2333
:10107000FB181100180063F05DFBF3E6BD4615B0E8
:10108000F0BDC0461C1A0120BFE802203CF600203B
:10109000285702203434012080B584B004AF0E4BB1
:1010A0001B68002B04D00D4B18005DF0F3FA10E024
:1010B000C023DB001A000A490A480B4B02930B4B72
:1010C000019301230093002362F016FE0200024BFD
:1010D0001A60BD4680BDC046501A012090FB071023
:1010E000ACFB0710E90B011000510020541A01203D
:1010F00080B500AF024B1B681800BD4680BDC046DE
:10110000501A012080B582B000AF002000F058F8DE
:101110004BF068FD03007B60114B1B68002B08D06F
:101120000F4B1A687B68C233FF33190010003BF085
:10113000F3FA7B68C233FF3319000A4B0B22180005
:1011400066F09AF9084B382200219954064B002288
:10115000DA63054B00221A72C046BD4602B080BD5C
:101160003070002001710220D470022080B582B05E
:1011700000AF0200FB1D1A70BB1D0A1C1A70BB1DBC
:101180001B78002B01D0032316E0FB1D1B78042BDA
:101190000FD010DC032B0EDC022B06DA002B02D062
:1011A000012B04D007E0002306E0012304E0022322
:1011B00002E0042300E000231800BD4602B080BD19
:1011C00080B584B000AF0200FB1D1A70FB1D1B78B8
:1011D000042B22D84BF006FD0300FB60FB1D1B789F
:1011E0005B01F133FF33FA68D3180433BB600D4B56
:1011F0001B68002B12D0BB681B78002B06D0094B54
:101200001B68012118001DF0E7FB07E0054B1B6878
:10121000012118001DF075FE00E0C046BD4604B077
:1012200080BDC0463070002090B585B000AF4BF057
:10123000D9FC0300FB60FA68F2235B00D258604BD4
:101240001B689A421FD1FA68F4235B00D2585D4BA9
:101250001B689A4217D1FA68F6235B00D25C5A4B9E
:101260001B789A420FD1FA68EE23FF33D25C574BBA
:101270001B789A4207D1FA68F8235B00D258544B86
:101280001B689A4201D0012200E000220B203B188B
:101290001A701A7801210A401A703B181B78012233
:1012A0005340DBB2002B00D085E04A4B1B68002B7B
:1012B00062D0484B1C68FA68F2235B00D3581800D0
:1012C0002FF06BF803001A003B1D111C197011045C
:1012D000090E59701202120E9A703B1D00221968F5
:1012E000200023F001F93B4B1B680022FF2118006E
:1012F00023F00CF9374B1C68FA68F4235B00D358D1
:1013000018002FF04AF803001A0008203B18111C9F
:1013100019701104090E59701202120E9A703B18BE
:1013200000221968200023F0FBF82A4B1868FA689D
:10133000F6235B00D35C0022190023F00DF9254B46
:101340001868FA68EE23FF33D35C0022190023F0FB
:101350000DF9204B1B6800220121180023F0F2F840
:10136000FA68F2235B00D158FA68F4235B00D25884
:10137000194B18005DF08EF9FA68F2235B00D25821
:101380000F4B1A60FA68F4235B00D2580D4B1A60B9
:10139000FA68F6235B00D25C0B4B1A70FA68EE23F6
:1013A000FF33D25C094B1A70FA68F8235B00D258FD
:1013B000074B1A6000E0C046BD4605B090BDC04670
:1013C000B41D0020B81D0020C01D0020C11D00203C
:1013D000BC1D002008700020CCFB071080B582B037
:1013E00000AF4BF0FFFB03007B600F4B18005DF07C
:1013F00051F9FFF719FF0D4B1B68002B08D00B4B61
:101400001A687B68A233FF33190010003BF084F99F
:101410000020FFF7D5FE064B18005DF03BF9C046F3
:10142000BD4602B080BDC04610FC071030700020E1
:1014300040FC0710F0B5CBB002AFFFF7F5FE4BF064
:10144000D1FB0300F42108200A18D21913608A4B3B
:1014500000229A770B18DB191B688A229B5C002BF1
:1014600010D00020FFF7B8FA0300012B0AD0824BFE
:101470009B7F5A1CD1B2804A91771A007E4B9B18F1
:101480000022DA77F42308229B18DB191B688B22D1
:101490009B5C002B10D00120FFF79EFA0300012B6C
:1014A0000AD0754B9B7F5A1CD1B2734A91771A00B0
:1014B000714B9B180122DA77F42308229B18DB1961
:1014C0001B688C229B5C002B10D00220FFF784FA53
:1014D0000300012B0AD0684B9B7F5A1CD1B2664A8D
:1014E00091771A00644B9B180222DA77F4230822C2
:1014F0009B18DB191B688D229B5C002B10D00320EE
:10150000FFF76AFA0300012B0AD05B4B9B7F5A1C42
:10151000D1B2594A91771A00574B9B180322DA77B8
:10152000F42308229B18DB191B688E229B5C002B7E
:1015300010D00420FFF750FA0300012B0AD04E4BC5
:101540009B7F5A1CD1B24C4A91771A004A4B9B1888
:101550000422DA77F42308229B18DB191B688F22F8
:101560009B5C002B10D00520FFF736FA0300012BFF
:101570000AD0414B9B7F5A1CD1B23F4A91771A0047
:101580003D4B9B180522DA773B4B9B7F5A1E9341BC
:10159000DAB2394B5A7754F0E1FD0300F02208210A
:1015A0005218D2191360EF235B18DE1953F002FDB5
:1015B00003003370EE2208201318DE1953F0EEFCFE
:1015C00003003370ED2208201318DE1953F02EFEAD
:1015D0000300337051F06CFD0300E822082011185D
:1015E000C9190B601318D9190B68002B0ED0010014
:1015F0005318DA1913681B7E002B07D0EF235B18F2
:10160000DB191B78002B01D1012200E00022E72327
:1016100008201B18DB191A701A7801210A401A7069
:10162000EF221318DB191B78012B04D01318DB19D8
:101630001B78032B01D1012200E00022E6230820C1
:101640001B18DB191A701A7801210A401A70EF234F
:101650001B18DB191B78012B10D1F0231B18DB1989
:101660001B68002B05D1ED231B18DB191B78002B01
:1016700004D0012203E0C046D47002200022E523FA
:1016800008201B18DB191A701A7801210A401A70F9
:10169000EF231B18DB191B78012B0AD1F02213183A
:1016A000DB191B68002B04D0CC4B1218D21912681E
:1016B000DA63E42308269B19DE1903F0A3FE030076
:1016C000337062F049FE0300E02108268A19D2191E
:1016D0001360E6208319DB191A78C14B1A70C14BCD
:1016E0001B688A19D2191268D21AFA239B009A42EF
:1016F00024D9BC4B8A19D21912681A60E4239B19A9
:10170000DB191B78002B19D08319DB191978B64B1C
:101710001A68B64B18005CF0BDFFB34B1B68002B7A
:101720000CD0B14B1B68012118001DF0C1F903005A
:101730001A00AF4B110018005CF0ACFFA74B5B7AAE
:10174000002B17D0E42308215B18DB191B7801223A
:101750005340DBB2002B0DD0A04BE0225218D2191F
:101760001268DA609D4B01221A7403F0E1FB02005B
:101770009A4B5A61994BE42108268A19D21912789A
:101780005A72964B1B7C002B31D08B19DB191B78BE
:1017900001225340DBB2002B29D0904BDB68E022C2
:1017A0009219D2191268D31A3B6000237B60FA2287
:1017B000920000233868796813F09AFD02000B004C
:1017C00010001900FA229200002312F091FE02008C
:1017D0000B001300DC229119C9190B609319DB1956
:1017E0001B68844A934202D97C4B00221A747B4BBB
:1017F0001B7801225340DBB2002B10D0E6230822D5
:101800009B18DB191B78002B09D0744B00221A742B
:10181000724B00221A72714B4022012199546F4B76
:101820001B78002B12D0E62308215B18DB191B78EC
:1018300001225340DBB2002B08D0684BE022521843
:10184000D21912685A60654B01221A72634BE62165
:1018500008268A19D21912781A70604B1B7A002B4D
:1018600024D08B19DB191B7801225340DBB2002BEB
:101870001CD04BF0B7F90200C6235B00D358D82127
:101880008A19D2191360554B5B68E0229219D2195C
:101890001268D31A8A19D21912689A4206D8FFF729
:1018A00031FC0020FFF78CFC01F0AEFED7230820AE
:1018B0001B18DE19E4210B18DB191A78EF210B181D
:1018C000DB191B7811001800FFF750FC0300337080
:1018D000494B1B78D72208201218D21912789A4245
:1018E00004D13E4B40229B5C002B10D0D72608220F
:1018F000B318DB191B781800FFF762FC3E4B082277
:10190000B218D21912781A703C4BFF221A704BF0A1
:1019100069F90300D02208215218D2191360384BFC
:101920001B68002B00D1A4E000238A22520008008B
:101930005118C9190B60ED2301005B18DB191B78E6
:10194000002B04D02F4B5218D21913606CE0EF23F8
:1019500008229B18DB191B78012B1CD12426B318F5
:10196000DB190C21180054F07FFD031E5CD0082108
:101970007318D919244B0B22180065F07DFD174B05
:10198000382200219954204B8A22520008215218F3
:10199000D219136048E0114B1B7A01225340DBB28D
:1019A000002B41D0E42308215B18DB191B78002BA6
:1019B0002ED0164B8A2252005218D2191360104BA7
:1019C0001B68012118001DF073F8031E2CD00C4B6E
:1019D0001B68012118001CF0FFFF25E0D4700220D5
:1019E0008AE80220FC1901201870002070FC071002
:1019F000A0FC071087130000A81D0020A91D0020CF
:101A000030700020BCFC071001710220C4FC0710DC
:101A1000D02308215B18DB191B68C233FF338A22ED
:101A200052005218D21913608A2676000822B31881
:101A3000DB191B68002B1CD0B318DB191A68C54BC7
:101A40001100180066F06CFF031E12D00822B318B4
:101A5000DB191968BF4B1F22180065F00DFDBD4B47
:101A60000022DA77BC4B1B68BA4A110018003AF022
:101A700053FE00238821490008268A19D2191360D1
:101A80001020FF308319DB1900221A70EE23320078
:101A90009B18DB191B780A2B09D1B04B16008A184A
:101AA000D21913608319DB1901221A70E0E0EF22CA
:101AB00008215318DB191B78022B19D05318DB1996
:101AC0001B78032B14D0EE225318DB191B78012B43
:101AD0000ED05318DB191B78022B09D05318DB19D1
:101AE0001B78032B04D05318DB191B78042B0DD162
:101AF0009B4B8822520008215218D21913601023E0
:101B0000FF335B18DB1901221A70B1E0EE230821C4
:101B10005B18DB191B78062B23D1CF235B18DE194A
:101B200053F042FA03003370CF2308215B18DB190E
:101B30001B78022B06D18B4B882252005218D219E7
:101B4000136006E0884B8822520008215218D219EF
:101B500013601023FF3308229B18DB1901221A702F
:101B600086E0EF2308215B18DB191B78002B1CD1C2
:101B70007E4B1B7C01225340DBB2002B15D0E723A8
:101B80005B18DB191B78002B01D0794B00E0794BF7
:101B90008822520008215218D21913601023FF33F3
:101BA0005B18DB1901221A7062E0EF2308229B18F0
:101BB000DB191B78012B0CD1EE239B18DB191B784A
:101BC000062B06D11023FF339B18DB1901221A7054
:101BD0004EE0EF2308229B18DB191B78042B06D15B
:101BE0001023FF339B18DB1901221A7040E0ED230C
:101BF00008229B18DB191B78002B06D01023FF331B
:101C00009B18DB1900221A7032E0EF2308229B1880
:101C1000DB191B78012B12D1F0239B18DB191B68F1
:101C2000002B0CD1EE239B18DB191B780A2B06D056
:101C30001023FF339B18DB1901221A7018E0E523EB
:101C400008229B18DB191B78002B06D01023FF33CA
:101C50009B18DB1900221A700AE0444B1B7C002BF6
:101C600006D01023FF3308229B18DB1901221A70BB
:101C7000414B1B68002B01D100F0BCFEE42308227D
:101C80009B18DB191B78002B03D1384B1B7C002BD6
:101C900001D0012200E00022CE2008268319DB19A2
:101CA0001A701A7801210A401A70304B40229B5C4E
:101CB000002B0BD1314B1B78002B0ED08319DB1975
:101CC0001B7801225340DBB2002B06D02C4B0122A3
:101CD00052421A602B4B00221A70284BCE22082148
:101CE0005218D21912781A70EE225318DB191B7889
:101CF000012B19D05318DB191B78022B14D0531861
:101D0000DB191B78032B0FD05318DB191B78042B1E
:101D10000AD0EF225318DB191B78022B04D053187A
:101D2000DB191B78032B01D1012200E00022CD2317
:101D300008201B18DB191A701A7801210A401A7042
:101D4000E4231B18DB191B78002B1DD003F0F0F8DF
:101D500003001BE0D819012030700020CCFC0710D4
:101D6000D4FC0710E0FC0710ECFC0710D470022034
:101D7000F8FC071004FD071034700020D0E80220A2
:101D8000C41D0020001A0120DC4B5B69C822082614
:101D90009119C9190B60C7208319DB199219D2193F
:101DA0001268511E8A411A70E4239B19DB191B78B3
:101DB000002B04D08319DB191B78002B0CD1CF4BDF
:101DC0001B7C002B00D184E0C72308229B18DB1961
:101DD0001B78002B00D17CE0CD2308215B18DB1998
:101DE0001B7801225340DBB2002B72D0E4235B1836
:101DF000DB191B78002B03D003F09AF8030001E0F5
:101E0000BE4B5B69C02208269119C9190B60931952
:101E1000DB191B686421180012F02CFB0300BC21A5
:101E200030000A18D2191360B54B1B680A18D21972
:101E300012689A423BD0B24B0A18D21912681A6043
:101E40000A000B18DB191B68632B1AD81318DB194F
:101E50001B680A21180012F00DFB03001E00BC22B3
:101E600008201318DB191B680A21180012F002FB66
:101E70000B00A44AA44800933300102115F0C8F8C1
:101E80000EE0BC2308229B18DB191B680A211800EE
:101E900012F0F0FA03009D4A9B48102115F0B8F8A3
:101EA0009B4B1B68984A110018003AF035FC984B80
:101EB0001B68012118001CF0FBFD031E01D100F07E
:101EC00098FD934B1B68012118001CF085FD00F064
:101ED00090FDCD2308229B18DB191B78002B29D0FD
:101EE0008C4A8D4B1100180066F01AFD031E0FD0AE
:101EF000874B1B68874A110018003AF00DFC854992
:101F0000854B0F22180065F0B7FA834B0022DA7375
:101F10007F4B1B68012118001CF0CAFD031E01D174
:101F200000F068FD7A4B1B68012118001CF054FD7D
:101F300000F060FDEE2308229B18DB191B78062BAE
:101F400061D162F009FA0300BB67744B1B68BA6F7A
:101F5000D21AFA23DB009A4210D3714B1B785A1E17
:101F60009341DBB201225340DBB21A1C0123134020
:101F7000DAB26B4B1A70694BBA6F1A606F23082282
:101F80009B18DE1953F010F8030033706F230822FA
:101F90009B18DB191B78022B01D1624B00E0624BCE
:101FA0003B675F4B1B78002B01D0604B00E03B6F21
:101FB000FB66FA6E584B1100180066F0B1FC031E68
:101FC0000FD0534B1B68FA6E110018003AF0A4FBB7
:101FD000F96E514B0F22180065F04EFA4E4B00225D
:101FE000DA734B4B1B68012118001CF061FD031EC6
:101FF00001D100F0FFFC464B1B68012118001CF0CA
:10200000EBFC00F0F7FCED2308229B18DB191B7892
:10201000002B32D0E4239B18DB191B78012253409C
:10202000DBB2002B29D0424A3B4B1100180066F06E
:1020300077FC031E0FD0364B1B683D4A1100180079
:102040003AF06AFB3A49344B0F22180065F014FA53
:10205000314B0022DA732E4B1B68012118001CF053
:1020600027FD031E01D100F0C5FC294B1B6801218F
:1020700018001CF0B1FC00F0BDFCE52308229B1801
:10208000DB191B78002B57D0F0239B18DB191B683A
:10209000002B51D0E4239B18DB191B7801225340FD
:1020A000DBB2002B48D0234A1B4B1100180066F00E
:1020B00037FC031E0FD0164B1B681E4A1100180078
:1020C0003AF02AFB1B49144B0F22180065F0D4F993
:1020D000114B0022DA730E4B1B68012118001CF013
:1020E000E7FC031E01D100F085FC094B1B680121B0
:1020F00018001CF071FC00F07DFCC046D47002207A
:10210000C41D00200CFD071008E3002018FD071077
:1021100034700020D4FC0710001A01203C1A012062
:10212000CAE80220E0FC0710ECFC071020FD0710B5
:10213000BCFC07102CFD0710DA4B5B7F002B5AD03C
:1021400062F00AF903008422B9180B60D54B9B6A30
:10215000BA181268D21AFA23DB009A4217D3D14B6D
:102160002C229B5C0133D9B2CE4B2C229954CD4BFF
:102170002C229A5CCB4B9B7F9A4203D3C94B2C22D7
:1021800000219954C74B8422BA1812689A62C54B31
:102190002C229B5C19007B2008268319DB19C14A7D
:1021A0005218D27F1A708319DB191B781800FEF7BA
:1021B00029FC0300FB67FB6FBB4A0C26B8192021E2
:1021C00014F026FFB94B1B68BA19110018003AF039
:1021D000A3FAB64B1B68012118001CF069FC031E12
:1021E00001D100F007FCB14B1B68012118001CF065
:1021F000F3FB00F0FFFB87235B0008215B18DB1972
:102200001022FF325218D21912781A70EE22531887
:10221000DB191B78012B19D05318DB191B78022B03
:1022200014D05318DB191B78032B0FD05318DB196C
:102230001B78042B0AD0EF225318DB191B78022BD2
:1022400004D05318DB191B78032B24D1984B882218
:10225000520008215218D219136087235B005B18C3
:10226000DB1901221A70934B1B7801225340DBB219
:10227000002B13D0EE230A009B18DB191978EF23EB
:102280009B18DB191A788C4B18005CF003FA894B09
:1022900001221A7002E0874B00221A70EE230826F2
:1022A0009B19DB191B780A2B38D162F055F8030013
:1022B000802130000A18D2191360804B1B680A185D
:1022C000D2191268D21AFA23DB009A4212D37C4B3D
:1022D0001B785A1E9341DBB201225340DBB21A1C19
:1022E00001231340DAB2764B1A70744B0A18D219D4
:1022F00012681A60724B1B78002B01D0714B00E002
:10230000714B8822520008215218D219136087237A
:102310005B005B18DB1901221A7018E3EE23082614
:102320009B19DB191B78062B53D162F015F80300BB
:102330008C2130000A18D2191360644B1B680A18EC
:10234000D2191268D21AFA23DB009A4212D3604BD8
:102350001B785A1E9341DBB201225340DBB21A1C98
:1023600001231340DAB25A4B1A70584B0A18D2198B
:1023700012681A608B2308229B18DE1952F014FE93
:10238000030033708B2308229B18DB191B78022B68
:1023900001D1504B00E0504B842208215218D21931
:1023A00013604B4B1B78002B01D0464B04E0842379
:1023B00008229B18DB191B6888225200082152183A
:1023C000D219136087235B005B18DB1901221A7096
:1023D000BDE2EF2308215B18DB191B78002B1CD111
:1023E000304B1B7C01225340DBB2002B15D0E7237E
:1023F0005B18DB191B78002B01D0384B00E0384B01
:102400008822520008215218D219136087235B00DA
:102410005B18DB1901221A7099E2EF2308269B1939
:10242000DB191B78012B00D07EE0EE239B19DB1912
:102430001B78062B00D077E061F08EFF0300B821F7
:1024400030000A18D2191360264B1B680A18D219DB
:102450001268D21AFA23DB009A4212D3224B1B785D
:102460005A1E9341DBB201225340DBB21A1C0123F6
:102470001340DAB21C4B1A701A4B0A18D2191268A0
:102480001A60B72308229B18DE1952F08DFD030055
:102490003370B72308229B18DB191B78022B25D138
:1024A0000C4B24E0D470022034FD0710347000205F
:1024B000D4FC07109FE8022038FD0710341A0120D1
:1024C000C6E8022020FD0710CCFC0710441A0120AA
:1024D000C9E80220E0FC0710ECFC0710F8FC07102C
:1024E00004FD0710301A0120C5E80220DB4BB022A2
:1024F00008215218D2191360D94B1B78002B01D038
:10250000D84B04E0B02308229B18DB191B688822F3
:10251000520008215218D219136087235B005B1800
:10252000DB1901221A7012E2EF2308269B19DB192E
:102530001B78042B38D161F00FFF0300902130008D
:102540000A18D2191360C84B1B680A18D2191268EE
:10255000D21AFA23DB009A4212D3C44B1B785A1EBC
:102560009341DBB201225340DBB21A1C012313401A
:10257000DAB2BE4B1A70BC4B0A18D21912681A6034
:10258000BA4B1B78002B01D0B64B00E0B84B882229
:10259000520008215218D219136087235B005B1880
:1025A000DB1901221A70D2E1ED2308215B18DB1937
:1025B0001B78002B0CD0AF4B882252005218D21936
:1025C000136087235B005B18DB1901221A70BEE1E0
:1025D000EF2308269B19DB191B78012B3ED1F02332
:1025E0009B19DB191B68002B38D161F0B5FE030085
:1025F000AC2130000A18D21913609F4B1B680A18CF
:10260000D2191268D21AFA23DB009A4212D39B4BDA
:102610001B785A1E9341DBB201225340DBB21A1CD5
:1026200001231340DAB2954B1A70934B0A18D21952
:1026300012681A60914B1B78002B01D0894B00E087
:102640008F4B8822520008215218D2191360872319
:102650005B005B18DB1901221A7078E1E523082181
:102660005B18DB191B78002B0CD0864B882252009C
:102670005218D219136087235B005B18DB19012203
:102680001A7064E1804B1B7C002B00D15FE1872333
:102690005B0008269B19DB1901221A70EE239B1997
:1026A000DB191B780A2B32D161F056FE030094210E
:1026B00030000A18D2191360744B1B680A18D2191B
:1026C0001268D21AFA23DB009A4212D3704B1B789D
:1026D0005A1E9341DBB201225340DBB21A1C012384
:1026E0001340DAB26A4B1A70684B0A18D219126892
:1026F0001A60674B1B78002B01D05A4B00E0654BEA
:102700008822520008215218D21913601FE1EE23CB
:1027100008269B19DB191B78062B4DD161F01CFE96
:102720000300A02130000A18D21913605A4B1B680D
:102730000A18D2191268D21AFA23DB009A4212D36D
:10274000564B1B785A1E9341DBB201225340DBB239
:102750001A1C01231340DAB2504B1A704E4B0A1860
:10276000D21912681A609F2308229B18DE1952F0B2
:102770001BFC030033709F2308229B18DB191B7876
:10278000022B01D1464B00E0344B9822082152180D
:10279000D2191360414B1B78002B01D0314B04E060
:1027A000982308229B18DB191B68882252000821F5
:1027B0005218D2191360CAE0EF2308229B18DB19C4
:1027C0001B78002B0FD1E7239B18DB191B78002BFC
:1027D00001D0344B00E0344B8822520008215218BB
:1027E000D2191360B3E0EF2308269B19DB191B787D
:1027F000042B5FD161F0B0FD0300A42130000A1862
:10280000D2191360294B1B680A18D2191268D21A00
:10281000FA23DB009A4212D3254B1B785A1E9341B0
:10282000DBB201225340DBB21A1C01231340DAB29F
:102830001F4B1A701D4B0A18D21912681A601C4BD4
:102840001B78002B01D0074B00E0094B8822520077
:1028500008215218D219136079E0C046ECFC071029
:10286000C5E8022020FD0710201A0120C1E802203F
:1028700068FD0710BCFC0710241A0120C2E80220E2
:1028800070FD07102CFD0710D4700220381A0120AB
:10289000C7E80220CCFC0710401A0120C8E802203B
:1028A000E0FC0710F8FC071004FD07102C1A0120AB
:1028B000C4E80220ED2308215B18DB191B78002BEC
:1028C00006D0C74B882252005218D21913603EE03E
:1028D000EF2308269B19DB191B78012B37D1F02336
:1028E0009B19DB191B68002B31D161F035FD03000A
:1028F000A82130000A18D2191360BA4B1B680A18B5
:10290000D2191268D21AFA23DB009A4212D3B64BBC
:102910001B785A1E9341DBB201225340DBB21A1CD2
:1029200001231340DAB2B04B1A70AE4B0A18D21919
:1029300012681A60AC4B1B78002B01D0AB4B00E047
:10294000AB4B8822520008215218D21913608723FA
:102950005B0008229B18DB191B78002B35D08826DA
:102960007600B318DB191B68002B2ED0B318DB19C7
:102970001A68A04B1100180065F0D2FF031E15D095
:102980009D4B1B680822B118CA1912681100180063
:1029900039F0C2FE0822B318DB191968954B0F22D3
:1029A000180064F069FD934B0022DA73924B1B68A8
:1029B000012118001CF07CF8031E1BD08E4B1B68F5
:1029C000012118001CF008F814E08B4B1B68012152
:1029D00018001CF06DF803001A0001235340DBB20D
:1029E000002B07D0844B1B68012118001CF089FACA
:1029F00000E0C046F02208201318DB191B68842170
:102A000049000918C9190B6001005318DB191B682C
:102A1000002B24D1794BDB6B002B20D0EE225318F6
:102A2000DB191B780A2B12D05318DB191B78062BE5
:102A30000DD0724B1B7C002B09D1E4235B18DB19F2
:102A40001B78002B03D16D4B1B7A002B07D06B4BEF
:102A5000DB6B8422520008215218D2191360684B94
:102A60001B68002B00D1A5E2632108200B18DB199D
:102A7000E4221218D21912781A7002008B18DB198E
:102A80001B78002B05D1E6239B18DB191B78002B44
:102A900007D00823FF3308229B18DB1902221A7083
:102AA00006E00823FF3308229B18DB1903221A7063
:102AB000544B1B780822FF3208215218D219127881
:102AC0009A4217D14D4B40229B5C002B12D1E4233C
:102AD0005B18DB191B78002B1CD0E6235B18DB1975
:102AE0001B7801225340DBB2002B13D0454B1B78DF
:102AF000022B0FD0444B012252421A60434B012259
:102B000052421A603F4B0822FF3208215218D21954
:102B100012781A7087235B00FB1800221A70E523D5
:102B200008229B18DB191B78002B05D0F0239B187B
:102B3000DB191B68002B06D1632308229B18DB19C5
:102B40001B78002B05D087235B00FB1801221A702D
:102B500030E0EF2308229B18DB191B78002B13D1E0
:102B6000264B1B7C01225340DBB2002B0CD0234BA5
:102B70001B7A01225340DBB2002B05D087235B0078
:102B8000FB1800221A7015E01D4B1B68012118006C
:102B90001BF08EFF03005A1E9341DBB2012253400B
:102BA000DBB21A0087235B00FB181A701A78012128
:102BB0000A401A7087235B00FB181B78002B27D074
:102BC0000F4B1B68012118001BF072FF031E32D04F
:102BD0000B4B1B68012118001BF0FEFE2BE0C046CA
:102BE000BCFC0710281A0120C3E8022020FD0710B2
:102BF00070FD0710001A012034700020D4700220EC
:102C0000187000209EE80220AC1D0020B01D00209E
:102C1000C94B1B68012118001BF04AFF03001A0072
:102C200001235340DBB2002B05D0C34B1B680121AD
:102C300018001CF066F9632308201B18DB191B78A9
:102C4000002B64D0E6231B18DB191B78002B5ED009
:102C5000BA4B1B68842149000A18D21912689A429B
:102C600000D1A7E1B54B0A18D21912681A600B18E7
:102C7000DB191A68FA239B009A4208D20B18DB1959
:102C80001B68AF4AAF48102114F0C2F937E0842125
:102C9000490008200B18DB191B68AB4A93421DD86A
:102CA0000B18DB191B686421180011F0E3FB03000B
:102CB0007B667B6E0A21180011F0DCFB03001E000E
:102CC0007B6E0A21180011F0D5FB0B009F4A9D482E
:102CD00000933300102114F09BF910E084235B0073
:102CE00008229B18DB191B68FA229100180011F0CA
:102CF000C1FB0300964A9348102114F089F98E4BCA
:102D00001B68904A1100180039F006FD52E1632358
:102D100008229B18DB191B78002B00D186E0864B1C
:102D20001B68012118001BF0C3FE031E09D0824B53
:102D30001B68012118001BF04FFE864B18005BF04A
:102D4000A9FC854B1B7A002B0AD0834BDB6B002B35
:102D500006D0814BDB6B84225200BA18136006E068
:102D600002F03CFB030084225200BA181360734B3C
:102D70001B68842149007A1812689A4200D119E12F
:102D80006E4B7A1812681A607B181A68FA239B0037
:102D90009A4207D27B181B68694A6A48102114F0CE
:102DA00037F932E0842149007B181B68664A934258
:102DB0001CD87B181B686421180011F05BFB030012
:102DC000FB65FB6D0A21180011F054FB03001E0087
:102DD000FB6D0A21180011F04DFB0B005B4A5948AE
:102DE00000933300102114F013F90EE084235B00EC
:102DF000FB181B68FA229100180011F03BFB03003E
:102E0000534A5048102114F003F984235B00FB1847
:102E10001A684C49514B18005BF03CFC464B1B6850
:102E2000484A1100180039F077FCC3E0E523082177
:102E30005B18DB191B78002B13D1EE225318DB191A
:102E40001B78062B0DD05318DB191B780A2B08D0E2
:102E5000414B1B7C002B04D13F4B1B7A002B00D134
:102E600080E08421490008200B18DB191B68002B27
:102E700000D177E0314B1B680A18D21912689A42C8
:102E800000D197E02D4B0A18D21912681A60344B02
:102E9000012252421A600B18DB191A68FA239B00B0
:102EA0009A4208D20B18DB191B68254A25481021C5
:102EB00014F0AEF837E08421490008200B18DB1924
:102EC0001B68214A93421DD80B18DB191B6864212B
:102ED000180011F0CFFA03003B663B6E0A21180080
:102EE00011F0C8FA03001E003B6E0A21180011F011
:102EF000C1FA0B00154A134800933300102114F057
:102F000087F810E084235B0008229B18DB191B68FC
:102F1000FA229100180011F0ADFA03000C4A09489A
:102F2000102114F075F8044B1B68064A11001800B4
:102F300039F0F2FB3EE0C04618700020AC1D0020C6
:102F40007CFD071038E100200F2700000CFD071062
:102F500018FD071084FD0710D4700220B8FD07107B
:102F6000B01D0020EF2308229B18DB191B78002BD3
:102F700020D1D94B1B7C01225340DBB2002B19D04E
:102F8000D54B1B7A01225340DBB2002B12D0D34B1E
:102F90001B6802330ED0D14B022252421A60D04B32
:102FA000012252421A60CF4B1B68CF4A1100180011
:102FB00039F0B2FBCD4B1B68002B00D174E0CC4B39
:102FC0001B68FC2208215218D2191360C24B402200
:102FD0009B5C002B03D0C64B012252421A60E623B1
:102FE00008269B19DB191B78002B2AD053F0C8F850
:102FF0000300BB65BB6D002B3DD0F0239B19DB1993
:103000001B6864225343B96D180011F033FA0300B2
:10301000FC229119C9190B609319DB191B68002B4D
:1030200003DA00239219D2191360FC2208215318E5
:10303000DB191B68642B1EDD64235218D219136040
:1030400019E0EF2308215B18DB191B78002B12D144
:10305000A14B1B7C01225340DBB2002B0BD09E4BBB
:103060001B7A01225340DBB2002B04D00023FC2248
:103070005218D21913609E4B1B68FC2108200A18B5
:10308000D21912689A420FD0984B1B680E000A188A
:10309000D21911680022180035F0A0F8944B0820CE
:1030A0003218D21912681A60924B1B68002B00D19B
:1030B00050E1894B40229B5C002B02D08E4B0022BA
:1030C0001A70E52308229B18DB191B78002B05D00A
:1030D000F0239B18DB191B68002B06D1E423082280
:1030E0009B18DB191B78002B2CD0F02308229B188F
:1030F000DB191B68002B02D1774BDB6B04E0F0235C
:1031000008229B18DB191B687B657B6D7B4A934209
:1031100006D8FB2308229B18DB1901221A7042E013
:103120007B6D774A934206D8FB2308229B18DB1954
:1031300002221A7037E0FB2308229B18DB190322B6
:103140001A7030E0EF2308215B18DB191B78002B85
:1031500013D1614B1B7C01225340DBB2002B0CD0FE
:103160005D4B1B7A01225340DBB2002B05D0FB23C1
:103170005B18DB1904221A7015E05F4B1B78002BDB
:103180000BD05D4B1B78042B07D0FB2308229B1828
:10319000DB19594A12781A7005E0FB2308229B18A4
:1031A000DB1904221A70544B1B78FB2108200A18E3
:1031B000D21912789A4200D1CCE00B18DB191B7897
:1031C000042B00D9BFE09A004E4BD3181B689F46D2
:1031D000484B1E68CC231B0418002DF0DEF80300BA
:1031E0001A0030200823C118CB19111C19701104C2
:1031F000090E59701202120E9A700823C318DB19B7
:1032000000221968300021F06FF93A4B1B68012148
:1032100018001BF04DFC031E00D18DE0354B1B68E0
:10322000012118001BF0D8FB86E0324B1E68364B9C
:1032300018002DF0B2F803001A0034200823C1183A
:10324000CB19111C19701104090E59701202120EBB
:103250009A700823C318DB1900221968300021F086
:1032600043F9244B1B68012118001BF021FC031EAD
:1032700064D0204B1B68012118001BF0ADFB5DE002
:103280001C4B1E68214B18002DF087F803001A0014
:1032900038200823C118CB19111C19701104090E0C
:1032A00059701202120E9A700823C318DB190022FB
:1032B0001968300021F018F90E4B1B680121180025
:1032C0001BF0F6FB031E3BD00A4B1B6801211800C4
:1032D0001BF082FB34E0C046D4700220AC1D0020FD
:1032E000B01D002018700020F0FD07100C700020A9
:1032F000C81D0020107000209DE80220973A0000B1
:103300001F4E0000F8FD07100099FF000A8205001B
:10331000BF4B1B68012118001BF0CAFB03001A00F9
:1033200001235340DBB2002B0CD0B94B1B680121A9
:1033300018001BF0E6FD05E0C04604E0C04602E0D0
:10334000C04600E0C046B34BFB2208215218D219F8
:1033500012781A70B04B1B68002B00D150E1AF4BB4
:1033600040229B5C002B02D0AD4B00221A70AB4B6D
:103370005B7F002B06D0FA2308229B18DB19022260
:103380001A705FE0EF2308229B18DB191B78002BD3
:1033900005D1FA239B18DB1900221A7052E0EF23A3
:1033A00008229B18DB191B78012B0BD1E5239B18F6
:1033B000DB191B78002B05D0FA239B18DB1901229F
:1033C0001A703FE0EF2208215318DB191B78022BFB
:1033D00021D05318DB191B78032B1CD05318DB1991
:1033E0001B78042B17D05318DB191B78012B05D140
:1033F000F0235B18DB191B68002B0CD0EF2308228D
:103400009B18DB191B78012B0CD1EE239B18DB19C1
:103410001B78062B06D1FA2308229B18DB190222FF
:103420001A700FE0E62308229B18DB191B78002B8B
:1034300002D07B4B1A7800E00022FA2308215B18A7
:10344000DB191A70FA2308229B18DB191B78022B50
:1034500000D078E0FA233B6560F07EFF0300FB6458
:103460006E4B9B69FA6CD61A3B6D1C0000231D0045
:10347000FA22920000232000290011F039FF0200F7
:103480000B0010001900FA229200002311F030F80E
:1034900002000B0013009E4200D2AAE05F4B1B7F8C
:1034A0005A1E9341DBB201225340DBB21A1C0123A6
:1034B0001340DAB2594B1A77584BFA6C9A61574B52
:1034C0001B7F002B2BD0544B1C68FF231B041800C0
:1034D0002CF063FF03001A003C2008254319DB1978
:1034E000111C19701104090E59701202120E9A70F3
:1034F0004319DB1900221968200020F0F5FF464B24
:103500001B68012118001BF0D3FA031E00D170E0E4
:10351000414B1B68012118001BF05EFA69E03E4B2D
:103520001B68012118001BF0C3FA03001A000123D5
:103530005340DBB2002B5CD0374B1B6801211800D5
:103540001BF0DFFC55E0364B1B78FA2108254A19A1
:10355000D21912789A424CD04B19DB191B78022BE6
:1035600042D046DC002B2BD0012B42D12A4B1C68C9
:10357000FF231B0218002CF010FF03001A0040204C
:103580004319DB19111C19701104090E597012022C
:10359000120E9A704319DB1900221968200020F0DE
:1035A000A3FF1D4B1B68012118001BF081FA031EAD
:1035B0001CD0194B1B68012118001BF00DFA15E0F7
:1035C000154B1B68012118001BF072FA03001A004A
:1035D00001235340DBB2002B0AD00F4B1B680121A3
:1035E00018001BF08EFC03E0C04602E0C04600E07D
:1035F000C0460B4BFA2208215218D21912781A70C1
:10360000064B402200219954BD4649B0F0BDC0464A
:10361000107000209DE802201C700020D470022051
:103620009CE80220B0B588B000AFF860B9607A605D
:10363000FB68002B01D1032331E014243B1918004F
:1036400008231A00002112F08FF8BB68002B01D16B
:103650003B19BB601F257C19BA68FB681100180074
:103660004CF0EAFE03002370FB685B78002B07D167
:103670007A687B191978FB68180000F023FB0BE0CF
:10368000FB685B78032B07D11F23FB181A78FB68B4
:103690001100180000F08EFC1F23FB181B78180087
:1036A000BD4608B0B0BD0000F0B595B000AFF86001
:1036B000B9607A60BB68002B03DD7B681B68002B58
:1036C00001D10123E3E11823FB18180014231A0089
:1036D000002112F049F87B681B68C34A11001800EA
:1036E00065F01EF9031E00D0AEE0BB68012B1FDCA5
:1036F000BE4AFB68110018004DF0FAF8BC4AFB689E
:10370000110018004DF0F4F8BA4AFB6811001800D7
:103710004DF0EEF8B84AFB68110018004DF0E8F8DB
:10372000B64AFB68110018004DF0E2F80323AEE141
:103730007B685B68BB63B24ABB6B1100180065F025
:10374000EFF8031E36D100233B630023FB64BB6804
:10375000022B27DD7B6808331B68180062F00EFE21
:1037600003003B633B6B002B07D1A64AFB681100AB
:1037700018004DF0BDF8032389E13A6BFA239B0052
:103780009A4207D9A04AFB68110018004DF0B0F822
:1037900003237CE13A6B13005B019B1A9B009B188F
:1037A000DB00FB6418217B1804221A707B18FA6C6A
:1037B0009A6053E1954ABB6B1100180065F0B0F8B0
:1037C000031E04D11823FB1805221A7046E1904A03
:1037D000BB6B1100180065F0A3F8031E2CD1BB6869
:1037E000022B07DC8B4AFB68110018004DF080F8B3
:1037F00003234CE17B6808331B68180062F0BEFDB0
:1038000003007B637B6B002B07D1834AFB681100AD
:1038100018004DF06DF8032339E118217B180322BD
:103820001A707A6B13005B019B1A9B009B18DB00DC
:103830001A007B189A6011E1BA6B7849FB6818008E
:103840004DF056F8022322E17B681B68744A110090
:10385000180065F065F8031E00D06DE0BB68012B11
:1038600007DC704AFB68110018004DF041F8032393
:103870000DE17B685B687B64614A7B6C110018001A
:1038800065F04EF8031E24D1BB68022B07DD7B6870
:1038900008331B68180062F071FD030000E000238C
:1038A0003B64BB68032B07DD7B680C331B68180087
:1038B00062F064FD030000E00023FB6318217B1825
:1038C00008221A707B183A6C9A607B18FA6BDA60DF
:1038D000C4E04E4A7B6C1100180065F021F8031E0D
:1038E00004D11823FB1809221A70B7E04E4A7B6CEA
:1038F0001100180065F014F8031E15D101F09AFEAE
:10390000031E01D0494B00E0494B4A49F8681A00B0
:103910004CF0EEFF01F098FE02004749FB681800EA
:103920004CF0E6FF0023B2E07A6C4449FB681800D3
:103930004CF0DEFF0223AAE07B681B68404A1100BE
:10394000180064F0EDFF031E4CD1BB68012B07DCAF
:103950003C4AFB68110018004CF0CAFF032396E0B4
:103960007B685B68BB64304ABB6C1100180064F074
:10397000D7FF031E21D102F0B3FB0300180002F0B1
:10398000CDFB02003049FB6818004CF0B1FF02F09B
:10399000B1FB0300180002F0E5FB02002B49FB68B5
:1039A00018004CF0A5FF02F0AFFB02002849FB68AD
:1039B00018004CF09DFF002369E0264ABB6C110003
:1039C000180064F0ADFF031E04D11823FB180A226F
:1039D0001A7043E0BA6C2049FB6818004CF088FF6D
:1039E000022354E0022352E00CFE071018FE0710D9
:1039F00038FE071044FE071078FE0710A0FE0710DF
:103A0000D0FE0710D8FE0710F8FE071020FF0710A1
:103A100028FF071030FF07105CFF07107CFF07101E
:103A2000A4FF0710ACFF0710E8FF0710F0FF071016
:103A3000F4FF0710F8FF0710100008102C00081002
:103A4000540008105C0008107C0008109400081056
:103A5000AC000810C8000810D000081010257B1911
:103A6000180008231A00002111F07EFE2F26BC1931
:103A7000FA6879191823FB181800FFF7D3FD030023
:103A80002370BB191B78180000F0F4FA030018002B
:103A9000BD4615B0F0BDC04690B58FB000AF7860A0
:103AA0000A00FB1C1A707B68002B01D1002300E187
:103AB00010243B19180014231A00002111F054FEA1
:103AC00021007B1803225A70FB1C1A787B185A605D
:103AD0007B689B78033B3F2B00D9E0E09A00774B53
:103AE000D3181B689F4610217B180C221A707B1874
:103AF000002200211800FFF795FD714A00231000F5
:103B000019000EF095F80022002100200FF02CFD86
:103B1000FEE77B689B88032B07D8FB1C1B780321DF
:103B2000180000F0C2FA0123C3E07B6806337B6211
:103B300010203B180B221A707B6A1A7859780902F8
:103B40000A43997809040A43DB781B0613431A00D9
:103B50003B189A60A5E07B689B88032B07D8FB1C69
:103B60001B780321180000F0A0FA0123A1E07B6874
:103B70000633BB62BB6A1A785B781B0213439BB2A5
:103B8000002B04D11023FB1809221A7089E01021A0
:103B90007B1808221A70BB6A1A785B781B021343E1
:103BA0009BB21A007B189A60BB6A9A78DB781B027A
:103BB00013439BB21A007B18DA6072E000237B6328
:103BC0007B689B88032B0ED97B680633FB62FB6AFC
:103BD0001A78597809020A43997809040A43DB786C
:103BE0001B0613437B6310217B1804221A707B1879
:103BF0007A6B9A6055E01023FB1805221A7050E08A
:103C00007B689B88032B07D8FB1C1B7803211800BB
:103C100000F04BFA01234CE07B6806333B63102035
:103C20003B1803221A703B6B1A78597809020A4331
:103C3000997809040A43DB781B0613431A003B18E2
:103C40009A602EE01023FB180A221A7029E07B6884
:103C50009B88072B07D8FB1C1B780321180000F05A
:103C600024FA012325E07B68063308243A19100062
:103C7000190008231A0011F07DFD10217B18132272
:103C80001A703B191A687B189A603B195A687B189E
:103C9000DA6006E01023FB1814221A7001E00023FA
:103CA00007E01023FB18002200211800FFF7BAFCE0
:103CB00001231800BD460FB090BDC0463004081067
:103CC000204E000090B585B000AFF8607A600B23FD
:103CD000FB180A1C1A70FB681B78033B112B00D9D8
:103CE00015E19A009B4BD3181B689F460B23FB18CA
:103CF0001B78002B1AD1FB689B68002B06D1964AD3
:103D00007B68110018004CF0F3FD1EE1FB689B6816
:103D1000FA229100180010F0ADFB03001A00FB68B6
:103D20009B688E4978684CF0E3FD0EE10B23FB188D
:103D30001B7818004CF0ACFA020089497B68180027
:103D40004CF0D6FD01E10B23FB181B78002B06D1AC
:103D5000844A7B68110018004CF0CAFDF5E00B2383
:103D6000FB181B7818004CF093FA02007E497B6820
:103D700018004CF0BDFDE8E00B23FB181B78002B6E
:103D800006D17A4A7B68110018004CF0B1FDDCE0E6
:103D90000B23FB181B7818004CF07AFA02007449C8
:103DA0007B6818004CF0A4FDCFE00B23FB181B78B8
:103DB000002B06D16F4A7B68110018004CF098FD6B
:103DC000C3E00B23FB181B7818004CF061FA0200CB
:103DD00069497B6818004CF08BFDB6E00B23FB189B
:103DE0001B78002B06D1654A7B68110018004CF047
:103DF0007FFDAAE00B23FB181B7818004CF048FA53
:103E000002005F497B6818004CF072FD9DE00B23B7
:103E1000FB181B78002B06D15A4A7B68110018004A
:103E20004CF066FD91E00B23FB181B7818004CF05A
:103E30002FFA020054497B6818004CF059FD84E0C9
:103E40000B23FB181B78002B07D1FB689A684F499E
:103E50007B6818004CF04CFD77E00B23FB181B78B7
:103E600018004CF015FA020049497B6818004CF024
:103E70003FFD6AE00B23FB181B78002B06D1454A57
:103E80007B68110018004CF033FD5EE00B23FB183B
:103E90001B7818004CF0FCF902003F497B681800C1
:103EA0004CF026FD51E00B23FB181B78002B08D1AA
:103EB000FB689A68FB68DB68384978684CF018FD45
:103EC00043E00B23FB181B7818004CF0E1F90200CB
:103ED00033497B6818004CF00BFD36E00B23FB18D0
:103EE0001B78002B06D12F4A7B68110018004CF07C
:103EF000FFFC2AE00B23FB181B7818004CF0C8F9D4
:103F0000020029497B6818004CF0F2FC1DE00B23ED
:103F1000FB181B78002B08D1FB681B781A0023497B
:103F20007B6818004CF0E4FC0EE0FB681B781C007A
:103F30000B23FB181B7818004CF0AAF903001C494E
:103F4000786822004CF0D4FCC046C046BD4605B09F
:103F500090BDC04630050810F80008102401081074
:103F600058010810800108109C010810C0010810B9
:103F7000E0010810000208101C0208103C020810A2
:103F800060020810840208109C020810BC0208108D
:103F9000D8020810F402081014030810380308109F
:103FA0007003081098030810BC030810E4030810FD
:103FB0001004081090B589B002AF78600A00FB1CAD
:103FC0001A707B685A6816243B191A70FB1C1B7800
:103FD000002B13D153F01CFE0300FB603B191B7830
:103FE000F86800220192002200921022FF2153F073
:103FF000E3FDFB68180054F041FA37E017217B1805
:1040000006221A70FB1C1B78042B03D17B18092293
:104010001A7010E0FB1C1B78032B04D11723FB182C
:1040200003221A7007E0FB1C1B78062B03D1172311
:10403000FB1807221A7053F0EBFD03003B610B21C4
:104040007B181722BA1812781A701623FB181A78E0
:104050003869012301937B18009313001122FF217B
:1040600053F0AAFD3B69180054F008FAC046BD465B
:1040700007B090BD80B582B000AF0200FB1D1A7082
:10408000FB1D1B78032B09D00ADC002B02D0022B6E
:1040900002D005E0002304E0022302E0032300E055
:1040A00001231800BD4602B080BD80B586B002AFC6
:1040B0000200FB1D1A70BB1D0A1C1A7053F0A8FDEC
:1040C0000300FB600B217B18BA1D12781A70FB1DD0
:1040D0001A78F868012301937B18009313001122CA
:1040E000FF2153F069FDFB68180054F0C7F9C04682
:1040F000BD4604B080BD80B582B000AF7860D023EB
:104100001B067A685A61C046BD4602B080BD80B5C4
:1041100082B000AF7860D0231B067A689A61C046EF
:10412000BD4602B080BD80B584B000AF78600A00A3
:10413000FB1C1A7001227B689A401300FB60FB1C79
:104140001B78002B04D0FB681800FFF7D4FF03E0B6
:10415000FB681800FFF7DBFFC046BD4604B080BD1A
:10416000F0B585B000AF78600A23FB1809221A70F9
:1041700060F0F2F80300FB602DE00B23FE180A222A
:10418000BB18180050F05EF9030033700B23FB18C6
:104190001B78022B01D100233CE00B23FB181B787A
:1041A000032B03D10A23FB181B7833E00B23FB18E6
:1041B0001B78042B01D108232CE00B23FB181B7860
:1041C000052B01D1012325E001210C2047F0E0FA65
:1041D0000A2060F007FB60F0BFF80200FB68D31A0A
:1041E0001C0000231D00FA22920000232000290059
:1041F00011F07EF802000B0010001900FA22920064
:10420000002310F075F902000B007B6864339A42BA
:10421000B3D908231800BD4605B0F0BD80B584B001
:1042200000AF0200FB1D1A700D4BFB60FA68FB1D0E
:104230001B781100180050F0A5F803001A000123A4
:104240005340DBB2002B01D0092304E0FB681800C7
:10425000FFF786FF03001800BD4604B080BDC046CE
:10426000C409000080B500AF024B1B781800BD46A2
:1042700080BDC04693E80220B0B58EB000AF524B6F
:1042800014220021180011F06FFA4F4B00229A728D
:104290004E4B00221A7001F0A5FC01F035FE3B00E8
:1042A000180002F01BF83B001B69DAB237257C19B5
:1042B000474B110018005CF079FC030023707B1958
:1042C0001B78002B1ED17C19414B18005CF0FAFAC8
:1042D000030023707B191B78002B0AD13D4B012270
:1042E0001A703B001A693C4B110018005AF0D2F9C1
:1042F00010E03723FB181A78384B110018005AF0D9
:10430000C9F907E03723FB181A78354B110018005C
:104310005AF0C0F901F0F0FD03003B632F257C1932
:104320003B6B180047F0C6FC030023707B191B7819
:10433000002B04D12B4B18005AF0ACF907E02F23C7
:10434000FB181A78284B110018005AF0A3F9274BD4
:1043500018005AF09FF9264BBB62BB6A1B7F002BEB
:104360002DD04BF085FD02000B003A627B62BB6AE8
:104370005B6AFB61BB6A1A6A13001B019B1A1A0174
:10438000D21A13011A00BA617B6A002B05DC7B6A22
:10439000002B14D13B6A002B11D0FB69002B05D0F8
:1043A0003A6AFB69D31ABA699A4208D2114B0122C0
:1043B0001A703A6AF969104B18005AF06BF9002329
:1043C0001800BD460EB0B0BD7001012090E802207B
:1043D000980B012091E8022078050810B00508101C
:1043E000E005081010060810500608109006081086
:1043F000940F012096E80220C006081080B582B014
:1044000000AF51F08FFE03007B607B68002B01D171
:10441000002311E07B681A78597809020A439978D9
:1044200009040A43DB781B0613431A00FB1C511EC8
:104430008A411A70FB1C1B781800BD4602B080BD73
:1044400090B58DB000AF02003960FB1D1A70FB1DE6
:104450001B7801225340DBB2002B17D051F062FED3
:104460000300FB62FB6A002B0BD0FB6A1A785978B9
:1044700009020A43997809040A43DB781B061343AF
:1044800004D1424B18005AF005F97BE0404BFA1D6D
:1044900012781A703F4B3A681A60FB1D1B78002B8C
:1044A00001D001F0D9FA5FF057FF02003A4B1A60D1
:1044B000394B1A68384B5A60374B01221A72364B07
:1044C0000022DA60344B00221A74344B01221A7035
:1044D000314B1A68324B1A602F4B1A68314B1A60F5
:1044E000314B00221A60314B00221A60304B0022FF
:1044F0001A70304B1B78002B10D008243A192E4B21
:10450000110018005CF032FA031E07D13B19DA687B
:104510002A4B1A603B19DA68294B1A605FF01CFFBE
:104520000200284B1A6001F039FBFB1D1B78002BA1
:104530000ED03B68002B06D03A68234B11001800C0
:104540005AF0A8F81EE0214B18005AF0A3F819E021
:1045500051F0E8FD0300BB62BB6A002B0CD0BB6AC4
:104560001A78597809020A43997809040A43DB78D2
:104570001B0613431A0000E00022154B110018001F
:104580005AF088F8BD460DB090BDC046040708102B
:1045900094E80220181001207001012090E8022008
:1045A000CC0C0120C80C0120E00C01206801012086
:1045B0008FE8022091E80220980B01206C01012075
:1045C000D40C0120D00C01203407081084070810F7
:1045D000D007081080B500AF00210020FFF730FFA2
:1045E000C046BD4680BD000090B58DB000AF78607C
:1045F0000A00FB1C1A70414B1B7A01225340DBB2AC
:10460000002B00D073E03E4BFA1C12781A7001F0B8
:10461000E9FA3A4B00221A723A4B00221A70002330
:10462000FB62394B1B78002B12D00C243A19374B04
:10463000110018005CF09AF9031E09D13B19DA68E1
:10464000334B1B68191C101C10F06FFE031CFB621F
:10465000304B1B78002B09D0F86A10F0F9FE0200ED
:104660000B0079682C485AF015F816E02B4B1B68A4
:10467000002B0BD0214BDA68284B1B68796828483F
:104680005AF008F8254B00221A6006E01B4BDA6846
:104690007968244B180059F0FDFF1E4B00221A7058
:1046A000214B00221A60214B00221A70204B00225D
:1046B0001A60204B00221A70104B00229A72FB1CC9
:1046C0001B78082B15D89A001B4BD3181B689F46E4
:1046D000012001F03DFC0DE0022001F039FC09E071
:1046E000032001F035FC05E001F092FC02E0C04639
:1046F00000E0C046BD460DB090BDC046700101202F
:1047000093E8022090E8022091E80220980B012013
:104710006C01012094E8022014080810E00C01202C
:1047200054080810B40808101810012097E8022057
:10473000D80C012092E8022014140810F0B59FB0A4
:1047400000AF78610023BB6600237B67DA4B1B78E0
:10475000002B3DD00C261023F218D219D74B110094
:1047600018005CF003F9031E34D11023F318DB1991
:10477000DB68BB66D24B1B68191CB86E10F0D5FD08
:10478000031C7B67CF4B1B68191CB86E10F02CFE06
:10479000031E1FD0CB4BBA6E1A605FF0DDFD020026
:1047A000C94B1A60C94B1B78002B13D0C84B1B7820
:1047B00001225340DBB2002B0CD0C54B01221A70F2
:1047C000C44B1A68C44B1100180059F063FF01E094
:1047D000012372E25FF0C0FD0200BB4B1B68D31ADD
:1047E000BB600023FB60FA2292000023B868F968DE
:1047F00010F07EFD02000B0010001900FA2292005A
:1048000000230FF075FE02000B0013007B667B6E29
:10481000B24A934256D97A6EB14B1100180059F042
:1048200039FFB04B02211800FFF7DEFEAE4B1B78BC
:1048300001225340DBB2002B2ED051F0F1F8031EC1
:104840002AD051F06FFC0300FB64FB6C002B17D0E7
:10485000FB6C1A78597809020A43997809040A43CB
:10486000DB781B0613430BD1052051F0D7FD9F4B7E
:10487000180059F00FFF9E4B180059F00BFF1FE076
:104880000A2051F0CBFD9B4B180059F003FF9A4BC7
:10489000180059F0FFFE13E0934B1B7801225340A0
:1048A000DBB2002B04D0954B180059F0F3FE07E063
:1048B000934B180059F0EEFE924B180059F0EAFEA7
:1048C0000023FAE1884B1B78002B24D0FC218905BA
:1048D000786F10F02FFD031C181C10F0B1FD0200C2
:1048E000894BDA60894B1B68002B12D0874B1B6801
:1048F000180010F07EFD031C191C786F10F06CFD81
:10490000031E06D0824B00211800FFF76DFE002326
:10491000D3E10123D1E151F005FC03003B663B6E7E
:10492000002B01D10123C8E1FC218905786F10F02B
:1049300001FD031C181C10F083FD0300FB65002320
:104940003B67714BDB68FA6D9A4204D96E4BDB68AA
:10495000FA6DD31A3B673B6E1A78597809020A43FD
:10496000997809040A43DB781B0613431A003B6F4E
:1049700093420BD93B6E1A78597809020A43997809
:1049800009040A43DB781B0613433B673B6F002B8C
:1049900056D02C2610203318DA193B6E100019005F
:1049A00010231A0010F0E6FE310010200B18DB195E
:1049B0001A683B6FD21A0B18DB191A60524B1B7C1A
:1049C00001225340DBB2002B0AD00B18DB191B89E4
:1049D00001339AB20B18DB191A814B4B01221A745E
:1049E0002C2310229B18DB19180051F001FC464BB8
:1049F000DA683B6FD218444BDA60464B1A683B6F5B
:104A0000D218444B1A60314B1B78002B18D0304B16
:104A10001B78002B14D03C4BDA682E4B1B689A4253
:104A20000ED3394BD9682B4B1A683B4B180059F001
:104A300031FE3A4B00211800FFF7D6FD00233CE180
:104A40005FF08AFC0300BB655F2610217318DB1939
:104A500000221A705E235B18DB1901221A70304B9A
:104A60001B68BA6DD31A3B6000237B60FA22920068
:104A700000233868796810F03BFC02000B0010003E
:104A80001900FA22920000230FF032FD02000B0001
:104A9000FA235B009A4245D31E4B1B68002B41D082
:104AA00010217318DB1901221A705E235B18DB19C1
:104AB00000221A7061E0C04691E80220980B0120A4
:104AC0006C010120D40C0120D00C012097E80220B9
:104AD00092E80220D80C012000090810B70B000052
:104AE000480908108409081094E802209409081065
:104AF000C8090810040A0810380A0810700A0810BB
:104B0000A00A0810D00A0810700101201810012016
:104B1000F80A0810E00C0120100B08104C0B0810CC
:104B2000C80C0120674B1B68BA6DD31A1C00002308
:104B30001D00FA22920000232000290010F0D8FB6B
:104B400002000B0010001900FA22920000230FF05F
:104B5000CFFC02000B001300C72B0ED95A4B1B6869
:104B6000002B0AD05F2310215B18DB1901221A7079
:104B70005E235B18DB1901221A705F2310241B19B6
:104B8000DB191B78002B00D17CE001210C2046F0C2
:104B9000FFFD472521006B18DC195E267318DB1911
:104BA0001B781800FFF73AFB0300237010216B18E5
:104BB000DB191B78002B14D1434B00221A60414BA8
:104BC000BA6D1A60414B00221A607318DB191B780A
:104BD00001225340DBB2002B22D03D4BBA6D1A604C
:104BE0001EE03A4B1B685A1C384B1A605E23102299
:104BF0009B18DB191B78002B01D0364C00E0364C9B
:104C0000324B1D68472310229B18DB191B781800B4
:104C100050F0A8F8030031482A00210059F03AFD6D
:104C20002A4B1B68002B2DD0284B1A682C4B1100E7
:104C3000180059F02FFD01210C2046F0A9FD462552
:104C40001026AB19DC1950F0FBFE03002370AB19E2
:104C5000DB191B78002B12D0224B180059F01AFDDB
:104C60001A4B00221A60204B01221A7050F07CFA75
:104C70001E4B04211800FFF7B7FC00231DE0134B67
:104C800000221A6051F04EFA03003B653B6D002B89
:104C900012D03B6D1A78597809020A4399780904B1
:104CA0000A43DB781B06134306D1114B032118007E
:104CB000FFF79AFC002300E001231800BD461FB057
:104CC000F0BDC046CC0C0120E00C012068010120A1
:104CD000C80C0120640B08106C0B0810740B081032
:104CE000A00B0810F80B08108FE80220300C0810F9
:104CF000400C081080B500AF51F00AFA031E07D02F
:104D0000FFF77CFB031E03D0FFF764FC002300E0E9
:104D100004231800BD4680BDB0B584B000AF7860F4
:104D20007B68002B01D1012364E0344B1A787B6847
:104D30001A70334B1A7A7B685A7050F071FE030078
:104D40001A007B681A722E4B5A7A7B681A742D4BA4
:104D50001B78002B07D07B680022DA602A4B1A6888
:104D60007B685A601AE051F0DDF90300FB60FB68D4
:104D7000002B0CD0FB681A78597809020A439978FD
:104D800009040A43DB781B0613431A0000E00022E3
:104D90007B68DA607B68DA687B685A60184B1B7A3C
:104DA000002B1FD05FF0D8FA0200154B1B68D31AF6
:104DB000BB60BB681C0000231D00FA229200002388
:104DC0002000290010F094FA02000B0010001900D6
:104DD000FA22920000230FF08BFB02000B007B688D
:104DE0005A6102E07B6800225A61054B9A7A7B681F
:104DF0001A7600231800BD4604B0B0BD90E802202A
:104E00007001012094E802201810012080B500AF45
:104E1000134B1B78002B06D0124B1900002000F01A
:104E2000AFFD002318E0104B1B7A01225340DBB288
:104E3000002B0BD00D4B1B78002B07D000F00CFE85
:104E40000B4B180059F026FC002305E0094B082104
:104E50001800FFF7C9FB00231800BD4680BDC046FF
:104E600095E80220540C08107001012097E80220F8
:104E7000640C0810A40C081080B582B000AF7860F4
:104E80000E4B1B7A002B05D00D4B180059F002FC7D
:104E900001230FE00B4B1B78002B05D00A4B1800A9
:104EA00059F0F8FB052305E07B6819000120FFF7A6
:104EB000C7FA00231800BD4602B080BD7001012072
:104EC000B40C081097E80220F40C081080B500AF6D
:104ED0000E4B1B7A01225340DBB2002B0DD00C4B42
:104EE0001B78002B07D000F0B7FD0A4B180059F0D3
:104EF000D1FB002307E0002305E0074B0021180049
:104F0000FFF772FB00231800BD4680BD7001012031
:104F100097E802207C0E0810BC0E081080B500AF88
:104F2000024B1B7A1800BD4680BDC04670010120AF
:104F300080B500AF024BDB681800BD4680BDC0469F
:104F400070010120F0B591B000AFF860C74B1800B8
:104F500059F0A0FB5FF000FA0300BB63C44B1B6871
:104F6000BA6BD21AFA239B009A4206D3C04BBA6B93
:104F70001A60C04B180046F00BFF01210C2046F0D0
:104F800007FC372108200B18DB1900221A70BA4BD6
:104F90001B7801225340DBB2002B2BD00B18DE19FB
:104FA00051F0B6F803003370B44B1B78372108205A
:104FB0000A18D21912789A421CD00B18DB191B78E8
:104FC000002B08D0AE4B1B781A00AE4B1100180016
:104FD00059F060FB07E0AA4B1B781A00AA4B11009E
:104FE000180059F057FBA54B372208215218D21947
:104FF00012781A70A24B1B78032B00D1E4E000DD7D
:10500000F0E0022B00D1C5E000DDEBE0002B02D088
:10501000012B67D0E6E0984B1B7801225340DBB2AE
:10502000002B00D1D3E0372308269B19DB191B780E
:10503000002B00D1CBE050F0F9F8031E00D0C8E0FF
:1050400022239A19D6194FF0A9FF030033702223A7
:1050500008269A19D3191B78052B00D0BBE04EF017
:1050600027F803007B627B6A002B33D07B6A1B7EB0
:10507000002B2FD07B6A1B78042B26D1082608230F
:10508000F218D319180051F099F8031E00D1A4E0CA
:10509000300008268319DB199A7A7B6ADB7B9A42F7
:1050A00000D09AE07B6A083319007B6ADB7B1A0028
:1050B0008319DB19180062F01FF8031E00D08CE082
:1050C0007B6A18004EF010FC87E07B6A18004EF0F7
:1050D0000BFC82E0FFF792F9031E00D177E0FFF7A7
:1050E00079FA74E05FF038F903003B63674B5B6863
:1050F0003A6BD31A3B6000237B60FA2292000023B4
:105100003868796810F0F4F802000B0010001900FC
:10511000FA22920000230FF0EBF902000B001300BB
:10512000FB62FB6A312B5AD9232308229B18DE1914
:10513000FB6A1800FFF702FB03003370534B3A6B16
:105140005A60232308229B18DB191B780122534045
:10515000DBB2002B43D0484B1B7801225340DBB21B
:10516000002B0DD04A4B1B7801225340DBB2002BA1
:1051700006D0434B02221A70464B3A6B1A6031E05C
:105180003F4B00221A70444B00221A70404B002201
:105190001A7027E02F2308229B18DE1950F040FCDC
:1051A000030033702F2308229B18DB191B78002B78
:1051B00017D13A4B180059F06DFA314B00221A7092
:1051C000354B00221A700CE000F01EFB0AE0C046CE
:1051D00008E0C04606E0C04604E0C04602E0C04623
:1051E00000E0C0462E4B1B78002B17D0244B1B78B9
:1051F000002B13D150F014FC03001A00012353407C
:10520000DBB2002B0AD0264B00221A70254B180067
:1052100059F040FA0021002000F022FA184B1B78C8
:10522000012B03D0164B1B78032B01D1142300E074
:1052300064233B623B6A1C0000231D00FA2292009B
:1052400000232000290010F053F802000B0010008A
:105250001900FA22920000230FF04AF902000B0015
:10526000130018005FF0BEFA74E6C046C80E0810BE
:10527000C0DD0020F40E081094E802209AE8022015
:1052800090E80220000F0810340F08107001012070
:105290008FE802206401012093E80220680F0810C3
:1052A00096E802209C0F081080B586B004AF194B19
:1052B0001B68002B04D0184B180059F0EBF925E0BF
:1052C0008023DA0015491648164B0293164B0193BA
:1052D0000123009300235EF00FFD02000D4B1A60C6
:1052E0000C4B1B68002B01D0012300E000237B60E6
:1052F0007B68012B06D07A680C4B1100180059F01E
:10530000C9F903E00A4B180059F0C4F9BD4602B0D0
:1053100080BDC04618E30020D00F0810F40E08101E
:10532000454F0110B04300201CE30020F40F08108B
:105330002810081080B500AF0D4B1B68002B14D04F
:105340000C4B1B7A002B04D00B4B00211800FFF7ED
:105350004BF9074B1B6818005EF022FD044B00223E
:105360001A60064B180059F095F9C046BD4680BD3D
:1053700018E3002070010120581008106810081070
:1053800080B500AF024B1B681800BD4680BDC0460B
:1053900018E3002080B582B000AF0F4B1B78002BC4
:1053A00001D0002313E050F0BDFE03007B607B685A
:1053B000002B0BD07B681A78597809020A43997838
:1053C00009040A43DB781B06134300E0002318009E
:1053D000BD4602B080BDC04694E8022080B500AF53
:1053E000064B1B78002B02D0054B1B6802E0FFF731
:1053F000D1FF03001800BD4680BDC04694E80220DE
:105400001810012080B500AF024B1B7A1800BD4672
:1054100080BDC0467001012080B584B000AF7860C7
:1054200039607B68002B36D03B68002B33D00F21CE
:105430007B1800221A701A4B1B7A002B03D07B18A2
:1054400001221A7014E0174B1B78002B04D00F2395
:10545000FB1801221A700BE050F05AFE031E07D011
:10546000FEF7CCFF031E03D00F23FB1801221A7096
:105470000F23FB181B78002B06D07B6803221A70C1
:105480003B68FF221A7007E07B6800221A703B68B5
:1054900000221A7000E0C046BD4604B080BDC04680
:1054A0007001012095E8022090B591B000AFF8603E
:1054B000B9607A603E23FB1800221A80504B1B789B
:1054C000002B27D010243A194E4B110018005BF026
:1054D0004DFA031E1ED13B191B684B49181C0FF0D7
:1054E00044FF031CBB630021B86B0FF06FFF031E6A
:1054F00001D00023BB634549B86B0FF075FF031E55
:1055000001D0424BBB633E23FC18B86B0FF098FFF1
:10551000030023803E4B1B781A003E4B52003E2175
:1055200079180988D1523A4B1B780133DBB2072234
:105530001340DAB2364B1A70374B1B78072B05D85D
:10554000354B1B780133DAB2334B1A703623FB1814
:105550003E217A1812881A803423FB187A18128890
:105560001A803323FB1800221A7026E03323FB181D
:10557000197830203B18274A49008A5A1A800100BE
:105580007A1836203B1812881B889A4203D23B189F
:105590007A1812881A8030217A1834203B18128821
:1055A0001B889A4203D93B187A1812881A80332133
:1055B0007B181A787B1801321A70174B1B7833222C
:1055C000BA1812789A42D1D3FB68002B04D0FB683A
:1055D0003E22BA1812881A80BB68002B04D0BB6820
:1055E0003622BA1812881A807B68002B04D07B6898
:1055F0003422BA1812881A80C046BD4611B090BD38
:1056000091E80220980B01200000C84200E87D4785
:10561000A7E80220FCCF0120A6E8022080B500AF59
:1056200000F004FB0300013B5A425341DBB2180077
:10563000BD4680BD80B500AF024B1B781800BD464B
:1056400080BDC04695E8022080B500AF034AAE2376
:105650009B00D3581800BD4680BDC046000D0120F8
:1056600090B58FB000AF786039604B4B1B78002B42
:1056700005D04A4B180059F00DF8052387E0484B38
:105680001B7A002B03D1474B1B78002B09D0454BCD
:105690001B781A00444B1100180058F0FBFF05233B
:1056A00075E0424B1B78002B05D0414B180058F099
:1056B000F1FF05236BE050F0B3F9031E05D03D4B1D
:1056C000180058F0E7FF052361E03B4B1B780122EF
:1056D0005340DBB2002B05D0384B180058F0DAFFEE
:1056E000012354E0364BFB627B68002B02D1FB6A3E
:1056F0005B6900E07B687B633B68002B02D1FB6A3F
:105700009B6900E03B683B637B6B002B01D164230A
:105710007B633B6B002B01D11E233B63294B002293
:105720001A600C243A19284B110018005BF01EF97E
:10573000031E03D13B19DA68224B1A60214B1A6809
:10574000224B1A60224B7A6B1A603A6B13005B0192
:105750009B1A9B009B18DB001A001E4B1A605EF020
:10576000FBFD02001C4B1A601B4B1A681B4B1A6096
:10577000094B01221A700B4B03221A7000F00EFA2B
:105780003A6B796B164B180058F084FF0023180011
:10579000BD460FB090BDC04695E8022088100810A5
:1057A0007001012090E80220B810081097E802204C
:1057B000001108104411081091E802207811081017
:1057C000940F0120F40C0120980B0120E40C01201F
:1057D000F80C0120EC0C0120F00C0120E80C012059
:1057E000BC11081080B500AF054B1B78002B04D00E
:1057F000044B1900002000F0C3F8C046BD4680BD30
:1058000095E8022000120810F0B58FB000AF4E4BA3
:105810001B7801225340DBB2002B03D04B4B0022FC
:105820001A708DE050F0FCF8031E05D0484B1900AB
:10583000002000F0A5F883E05EF08EFD03007B639E
:10584000444B1B687A6BD31A3B6000237B60FA22BF
:1058500092000023386879680FF04AFD02000B00BF
:1058600010001900FA22920000230EF041FE0200FF
:105870000B0013003B63384B1B683A6B9A4205D30D
:10588000364B1900002000F07BF859E00C26BA19BD
:10589000334B110018005BF069F8031E4FD1BB19A0
:1058A000DA68304B1B68191C101C0FF03EFD031CFE
:1058B000FB62BB19DA682C4B1B68191C101C0FF01B
:1058C00093FD031E07D0BB19DA68274B1A60274BDC
:1058D0007A6B1A6021E0254B1B687A6BD31A1C0087
:1058E00000231D00FA2292000023200029000FF05F
:1058F000FFFC02000B0010001900FA2292000023A6
:105900000EF0F6FD02000B00194B9A4205D9194B17
:105910001900002000F034F812E0174B1B68180043
:105920000FF067FD031C191CF86A0FF055FD031EEC
:1059300006D0124B1900012000F022F800E0C0460A
:10594000BD460FB0F0BDC04695E8022090E80220A9
:105950000C120810F00C0120EC0C01201C12081095
:10596000980B0120F40C0120E40C0120E80C01202C
:10597000B70B00002C120810F80C0120341208108C
:1059800090B58FB000AF02003960FB1D1A702B4B31
:105990001B7801225340DBB2002B4BD100F022F9DF
:1059A00000237B63264B1B78002B12D008243A1966
:1059B000244B110018005AF0D9FF031E09D13B19DE
:1059C000DA68214B1B68191C101C0FF0AEFC031C7D
:1059D0007B631A4B00221A701C4B00221A70FB1DAD
:1059E0001B78002B1CD04AF043FA02000B00BA626D
:1059F000FB62FB6A002B05DCFB6A002B06D1BB6A4D
:105A0000002B03D0BB6A180047F038F9786B0FF011
:105A10001FFD02000B0039680D4858F03BFE0AE0FC
:105A2000786B0FF015FD02000B003968094858F03B
:105A300031FE00E0C046BD460FB090BD95E80220A3
:105A400091E80220980B0120F40C012090E802203C
:105A5000441208107C12081080B500AF054B0022DC
:105A60001A70054B00221A60044B00221A70C046BF
:105A7000BD4680BD97E80220D80C012092E80220A4
:105A800090B589B002AFF8603A607B60194B3B611A
:105A900017243B1909221A703A687B68F86839693B
:105AA00000914EF0C7FB031E06D03C193B6918005D
:105AB000FEF756FB030023701723FB181B78002BFF
:105AC00007D1FA680C4B1100180058F0E3FD0023D1
:105AD0000CE01723FB181B7818004FF043F9020065
