:020000041000EA
:1080000000B5324B2120586098680221884398605F
:10801000D860186158612E4B002199600221596186
:108020000121F02299502B491960012199603520D6
:1080300000F044F80222904214D00621196600F0A4
:1080400034F8196E01211966002018661A6600F0CE
:108050002CF8196E196E196E052000F02FF8012109
:108060000842F9D1002199601B491960002159602B
:108070001A491B48016001219960EB211966A02172
:10808000196600F012F80021996016491448016041
:108090000121996001BC002800D000471248134913
:1080A000086003C880F30888084703B5996A04206C
:1080B0000142FBD001200142F8D103BD02B5186690
:1080C0001866FFF7F2FF186E186E02BD000002403E
:1080D000000000180000070000035F0021220000DC
:1080E000F4000018222000A00001001008ED00E0BC
:1080F00000000000000000000000000074B24E7A92
:1081000000200420F7810010CB810010CD810010E9
:10811000C9810010C9810010C9810010C9810010F7
:10812000C9810010C9810010C981001021DE05102D
:10813000C9810010C981001055DE05101FE005102F
:10814000C1810010C1810010C1810010C1810010E7
:10815000C1810010C1810010C1810010C1810010D7
:10816000C1810010C1810010C1810010C1810010C7
:10817000C1810010C1810010C1810010C1810010B7
:10818000C1810010C1810010C1810010C1810010A7
:10819000C1810010C1810010C1810010C181001097
:1081A000C1810010C1810010C1810010C181001087
:1081B000C1810010C1810010C1810010C181001077
:1081C000EFF30580103800BE00BE00BE00BE00BE4A
:1081D00000BE00BEF2EB88717C1F0E10AC1F0E10AB
:1081E0003882001090A31AE71E481F49086006C88D
:1081F00081F3088810471D480068002801D01948FD
:10820000F3E70DA40ECC002902D000F012F8F9E734
:108210001749184A002000E001C19142FCD11649DB
:108220008847164988471649884700BEFDE701C9B7
:1082300001C29A42FBD37047AC1F0E10C000002051
:108240004826002034450E100000042000000420C1
:1082500034450E100010042000100420000000001F
:10826000704700000000000008ED00E0000000D0B2
:1082700048260020A4DB0220F9CE0110B5830010AF
:108280009BCE0110F8B5C04606480749091A8B1065
:10829000C90FC91810B5491003D0044B002B00D0EA
:1082A000984710BD48260020482600200000000006
:1082B000054B10B5002B03D00449054800E000BF72
:1082C000FFF7E2FF10BDC046000000005CA10220E5
:1082D00080C1061080B582B000AF7860D0231B0645
:1082E0007A685A61C046BD4602B080BD80B582B092
:1082F00000AF7860D0231B067A689A61C046BD46FD
:1083000002B080BD80B584B000AF78600A00FB1C6D
:108310001A7001227B689A401300FB60FB1C1B78DB
:10832000002B04D0FB681800FFF7D4FF03E0FB68C4
:108330001800FFF7DBFFC046BD4604B080BD80B526
:1083400082B000AF7860D0231B067A685A62C046BC
:10835000BD4602B080BD80B582B000AF7860D0234A
:108360001B067A689A62C046BD4602B080BD80B5E1
:1083700084B000AF78600A00FB1C1A7001227B6891
:108380009A401300FB60FB1C1B78002B04D0FB6899
:108390001800FFF7D4FF03E0FB681800FFF7DBFFCE
:1083A000C046BD4604B080BD80B500AFC046BD46E6
:1083B00080BD000080B500AF1BF032FA0021002024
:1083C00019F0EAFEFA239B0018000FF0FAF80620D5
:1083D00010F064FD01210620FFF7C9FF01210620EE
:1083E000FFF790FF0E4B180015F05FF8FFF7DCFF6A
:1083F0000C4B180015F059F850F06EFB58F070F85F
:10840000094B180015F051F805F026FA32200FF04C
:10841000D8F805F02AFA32200FF0D3F8F4E7C04676
:1084200080C106109CC10610BCC1061080B500AF0B
:108430000E4B1B685A1C0D4B1A600C4B1B680C49E9
:10844000180011F08DFE0B1E0DD101211920FFF730
:1084500059FF084A0023100019000FF031FA0021DB
:108460001920FFF74FFFC046BD4680BD9C9E0220ED
:1084700020A1070050C3000080B500AF72B6FEE730
:1084800080B582B000AF786039600F4B180015F0EE
:108490000CF87A680D4B1100180015F04BF83B688A
:1084A000002B06D03A680A4B1100180015F042F86C
:1084B00003E0084B180014F0F8FF074B180014F005
:1084C000F4FF72B6FEE7C046D8C10610FCC1061024
:1084D00010C2061020C2061034C2061080B500AFCC
:1084E000014B1800BD4680BDB4C3061080B582B0F4
:1084F00000AF0200FB1D1A70024B1800BD4602B00F
:1085000080BDC046C8C3061080B588B000AF020069
:10851000FB1D1A703B1D0A1C1A80FB1D1B78002BCB
:1085200002D0032B0AD02DE0384B1968384B0222B9
:10853000180012F071FF0123FB6156E0354B112149
:1085400018001AF07BFF334B18005DF01DF8030094
:10855000FB61FB691F2B01D91F23FB610023BB615A
:108560000BE02C4ABB69D3181978BB695A1C2A4BFB
:108570005200D152BB690133BB61BA69FB699A42AF
:10858000EFD332E0FB1D1B78052B01D9002339E026
:10859000FB1D1A781D4B9200D3583B613B69002BA1
:1085A00001D100232EE03B6918005CF0EDFF0300D1
:1085B000FB612023FB60FA69FB689A4201D9FB68E2
:1085C000FB6100237B610BE03A697B69D318197862
:1085D0007B695A1C104B5200D1527B6901337B617D
:1085E0007A69FB699A42EFD3C046FB699BB20133BB
:1085F0009BB2DB189BB2C022920013439AB2064B87
:108600001A80054B1800BD4608B080BD581D0020DB
:10861000DA6C022054CE0220D86C022080B582B0E1
:1086200000AF924B180053F037FD0AF063F80300D7
:108630007B6005F0B5FD8E4B180053F02DFD05F065
:1086400085FD8C4B180053F027FD09F095FA8A4BF5
:10865000180053F021FD4BF049FE031E04D0874B58
:10866000180053F019FD03E0854B180053F014FD7A
:1086700007F018FC834B180053F00EFD05F012FEB6
:10868000814B180053F008FD50F0EAFB02007F4BCD
:108690001A6050F0EBFB02007D4B1A6050F0ECFBCF
:1086A00002007C4B1A60794B1B685A425341DAB284
:1086B000FB1C1A70764B1B68002B06D0744B1B6892
:1086C00018004BF035F8031E01D1012200E0002212
:1086D000BB1C1A706F4B1B685A425341DAB27B1CA9
:1086E0001A706A4B1B68002B15D005F099FA7B684D
:1086F0002B229B5C002B11D005F012FB664B012254
:108700001A71664B19000E2050F00AFA644B1800DB
:1087100053F0C2FC02E0604B02221A71BB1C1B78B2
:10872000002B16D17B682A229B5C002B11D0584B62
:108730001B6818004BF00EF8574B0122DA70594BAA
:1087400019000C2050F0ECF9574B180053F0A4FC22
:108750000FE07B682A229B5C01225340DBB2002B96
:1087600004D0524B180053F097FC02E04A4B02220F
:10877000DA707B6827229B5C002B0ED000F0FEFB9A
:10878000454B01221A704A4B19000A2050F0C8F9D3
:10879000484B180053F080FC03E0474B180053F09F
:1087A0007BFC7B1C1B78002B1FD105F09BFE434BF1
:1087B000180053F071FC02F045FD414B180053F0D6
:1087C0006BFC7B6828229B5C002B15D04EF060FC74
:1087D000314B01225A703B4B19000D2050F0A0F98B
:1087E000394B180053F058FC06E02B4B02225A700C
:1087F000364B180053F050FC7B6829229B5C002B01
:108800000ED003F035FC244B01229A70304B190036
:108810000B2050F085F92F4B180053F03DFC03E07E
:108820002D4B180053F038FC7B682C229B5C002BEE
:1088300010D006F00DF809F0BBF9174B01225A7160
:10884000264B1900042050F06BF9254B180053F00B
:1088500023FC03E0234B180053F01EFC224B1800AE
:1088600053F01AFCC046BD4602B080BDB4C4061029
:10887000F0C406101CC5061048C5061078C50610C1
:108880009CC50610D0C50610FCC50610E471022078
:10889000D4710220E0A202202CB30220A0C4061052
:1088A0002CC6061098C4061058C606107CC60610C2
:1088B00070C40610ACC60610D0C60610F8C6061066
:1088C00024C7061058C7061060C7061084C70610D4
:1088D0008CC40610B8C70610D8C70610ACC4061062
:1088E00000C806102CC8061060C8061080B582B0FB
:1088F00000AF0200FB1D1A70FB1D1B78052B08D969
:10890000FB1D1A783C4B1100180053F0C5FB0023E7
:108910006DE0FB1D1B78394AD35C012B0BD1FB1D8D
:108920001A78374B9200D258364B1100180053F08A
:10893000B3FB00235BE0FB1D1A78314B9200D25849
:10894000314B1100180053F0A7FBFB1D1B78052BC2
:1089500045D89A002D4BD3181B689F4600F00EFB9C
:10896000264B01221A70012341E04EF091FB234B6C
:1089700001225A7001233AE003F07AFB1F4B0122D7
:108980009A70012333E0224B1B68002B10D0204B40
:108990001B6818004AF0CCFE031E09D01C4B1B6854
:1089A00018004AF0D7FE154B0122DA7001231EE0B1
:1089B000184B180053F070FB104B0222DA700023A2
:1089C00015E005F0ADF90D4B01221A7101230EE0FF
:1089D00005F03EFF094B01225A71012307E0FB1D00
:1089E0001A780D4B1100180053F056FB00231800A5
:1089F000BD4602B080BDC0468CC806102CB3022014
:108A0000701D0020B0C80610D0C80610ACC90610F2
:108A1000D4710220ECC8061018C9061080B582B0C7
:108A200000AF0200FB1D1A70FB1D1B78052B01D93E
:108A300000230AE0FB1D1A78064B9200D258064B21
:108A40001100180053F028FB00231800BD4602B0A7
:108A500080BDC046701D002038C9061080B582B0A8
:108A600000AF0200FB1D1A70FB1D1B78052B01D9FE
:108A7000022303E0FB1D1B78024AD35C1800BD46AD
:108A800002B080BD2CB3022080B582B000AF0200DE
:108A9000FB1D1A70FB1D1B78052B01D9054B04E04B
:108AA000FB1D1A78044B9200D3581800BD4602B043
:108AB00080BDC04660C90610701D002080B582B020
:108AC00000AF194B180053F0E7FA00237B6022E057
:108AD000164B3B60164A7B68D3181B78022B0BD0D1
:108AE0000DDC002B02D0012B03D008E0114B3B60C2
:108AF00005E0114B3B6002E0104B3B60C046104B61
:108B00007A689200D1583A680E4B180053F0C4FAB4
:108B10007B6801337B607B68052BD9DDC046C0468E
:108B2000BD4602B080BDC04668C9061080C90610A7
:108B30002CB3022088C9061090C9061098C90610E7
:108B4000701D0020A0C90610B0B582B000AF7860DB
:108B50007B681C0000231D00FA22920000232000E5
:108B6000290012F03BFA02000B0010001900FA2253
:108B70009200002311F032FB02000B0013001800DA
:108B800057F01CFFC046BD4602B0B0BDF0B58DB079
:108B900002AF7860D64B180053F07EFA4BF088FA9B
:108BA000D44B180053F078FA012056F0EBF902008C
:108BB000D14B1A60D04B1B68002B0BD1CF4B180048
:108BC00053F06AFACE4B180053F066FA002057F0C3
:108BD00007FA89E1CB4B180053F05EFA4BF046FAE6
:108BE000692057F0EBFEC84B180053F055FA3220BD
:108BF00057F0E4FEC54B180053F04EFA2BF062FE1E
:108C0000C34B180053F048FAC24B180033F0F2FD82
:108C1000C14B180053F040FAA0235A00BF4BF0217B
:108C2000180053F039FABE4AA0235900BD4B0093F7
:108C300013000322F02028F083FF0200BA4B1A60D1
:108C4000B94B1B68002B10D1B84B180053F024FA15
:108C5000AB4B180053F020FAA74B1B68180056F0D6
:108C6000BFFE002057F0BCF93EE1B14B180053F0B5
:108C700013FAAD4B1B680021180024F0D0FEAD4B59
:108C8000180053F009FAE1239A01AB4B11001800C8
:108C900053F002FAA44B1868E1239B01A749002274
:108CA0000092002224F03CF9A54B180053F0F4F98F
:108CB000A44B180053F0F0F91BF0A6FCA24B1800CF
:108CC00053F0EAF900F0E6FA00204BF0E3F94BF03C
:108CD00007FB954B1B68180024F043F80300FB6169
:108CE000FA699A4B1100180053F0D6F904E030F0FD
:108CF00045F8052057F062FE4BF0ECFA0200FB69E4
:108D00009A42F4D3642057F059FE4BF0E3FA020084
:108D10008F4B1100180053F0BFF98E4B180053F021
:108D2000BBF92723FB1800221A700DE02726BB1978
:108D30001B7818004BF0AEF91E2057F03FFEBB1910
:108D4000BA19127805321A702723FB181B78642B86
:108D5000ECD964204BF09EF97F4B180053F09CF93E
:108D60007E4B180053F098F957F016FC0300BB60D7
:108D700057F012FC02007A4B1A60794B1A68794B53
:108D80001A60774B1A68784B1A6057F005FC03009D
:108D9000BB61764B1B68BA69D21AFA239B009A42D0
:108DA00006D3724BBA691A60714B18004BF0D0F8B9
:108DB00001210A2050F014F857F0EEFB03007B610C
:108DC00009F098FC020088235B00D3583B61664B96
:108DD0001B687A69D31A3A699A4214D8624B7A6945
:108DE0001A60454B1B680A21180056F0AFFA0300C1
:108DF000012B08D100F07AFA3F4B186800230022BB
:108E0000002155F0EDFF3C4B1B68FA225200110087
:108E1000180056F09BFA0300012B03D00A2057F0EC
:108E2000CDFD60E0052033F091FC09F063FC020009
:108E300082235B00D358FA229100180011F090F9B8
:108E40000300FB604B4B1B78002B07D14A4B1B6880
:108E5000FA689A4202D8474B01221A702FF08EFF0F
:108E600003003B6257F098FB02003D4B1B68D31A8E
:108E7000FA229100180011F073F903001A003E4B1A
:108E80001A601D4B186800230022002155F0A8FF2E
:108E90003B6A642B06D909F02DFC020080235B009D
:108EA000D3583B623B6A042B01D805233B623B6AE3
:108EB0001C0000231D00FA2292000023200029003C
:108EC00012F08CF802000B0010001900FA22920038
:108ED000002311F083F902000B000823FB18110096
:108EE000180057F013FD50E7BD460BB0F0BDC0466B
:108EF000C4C90610FCC906103CA1022014CA061001
:108F000040CA061070CA061098CA0610B0CA0610E9
:108F1000D4CA0610498B0010ECCA061014CB0610F8
:108F2000E540051061410510349F022048CB061032
:108F300070CB06109CCB0610D4CB06106026002008
:108F400008CC06102CCC061048CC061060CC0610BD
:108F500098CC0610CCCC0610ECCC061020CD061018
:108F600078CF0220F09E0220DC9E0220346D022089
:108F700054CD061090DB0220A875022080B582B087
:108F800002AF0B4B1B68002B04D00A4B180053F0A8
:108F900083F80BE08023DB001A0007490748044BE5
:108FA000019301230093002356F0D6FFBD4680BDF8
:108FB000589F022058CD061074CD06108D8B0010DE
:108FC00080B582B000AF002000F058F809F092FBA5
:108FD00003007B60114B1B68002B08D00F4B1A68F5
:108FE0007B683E33FF331900100038F04BFF7B687D
:108FF0003E33FF3319000A4B0B2218005AF0CEFF04
:10900000084B382200219954064B0022DA63054BA5
:1090100000221A72C046BD4602B080BDA06000208A
:10902000E9CF0220BCCF022080B582B000AF0200A1
:10903000FB1D1A70BB1D0A1C1A70BB1D1B78002B70
:1090400001D0032316E0FB1D1B78042B0FD010DC8E
:10905000032B0EDC022B06DA002B02D0012B04D0EE
:1090600007E0002306E0012304E0022302E00423DA
:1090700000E000231800BD4602B080BD80B584B07A
:1090800000AF0200FB1D1A70FB1D1B78042B21D8BA
:1090900009F030FB0300FB60FB1D1B785B017133A3
:1090A000FF33FA68D318BB600C4B1B68002B12D03F
:1090B000BB681B78002B06D0084B1B6801211800E9
:1090C0001BF09EFE07E0054B1B68012118001CF0F9
:1090D0002CF900E0C046BD4604B080BDA060002071
:1090E00090B585B000AF09F005FB0300FB60FA689E
:1090F000B0235B00D258604B1B689A421FD1FA68BC
:10910000B2235B00D2585D4B1B689A4217D1FA68B4
:10911000B4235B00D25C5A4B1B789A420FD1FA6899
:109120006A23FF33D25C574B1B789A4207D1FA6807
:10913000B6235B00D258544B1B689A4201D00122DF
:1091400000E000220B203B181A701A7801210A4017
:109150001A703B181B7801225340DBB2002B00D061
:1091600085E04A4B1B68002B62D0484B1C68FA68AC
:10917000B0235B00D35818002DF023FB03001A0026
:109180003B1D111C19701104090E59701202120EA8
:109190009A703B1D00221968200021F0B9FB3B4B5F
:1091A0001B680022FF21180021F0C4FB374B1C680C
:1091B000FA68B2235B00D35818002DF002FB0300BD
:1091C0001A0008203B18111C19701104090E59705F
:1091D0001202120E9A703B1800221968200021F02A
:1091E000B3FB2A4B1868FA68B4235B00D35C0022F7
:1091F000190021F0C5FB254B1868FA686A23FF3374
:10920000D35C0022190021F0C5FB204B1B68002213
:109210000121180021F0AAFBFA68B0235B00D158A5
:10922000FA68B2235B00D258194B180052F034FF91
:10923000FA68B0235B00D2580F4B1A60FA68B22369
:109240005B00D2580D4B1A60FA68B4235B00D25C05
:109250000B4B1A70FA686A23FF33D25C094B1A7001
:10926000FA68B6235B00D258074B1A6000E0C0468C
:10927000BD4605B090BDC046941D0020981D00203D
:10928000A01D0020A11D00209C1D00207860002052
:1092900040CE061080B582B000AF09F02BFA030073
:1092A0007B600F4B180052F0F7FEFFF719FF0D4BD4
:1092B0001B68002B08D00B4B1A687B681E33FF33EA
:1092C0001900100038F0DEFD0020FFF7D7FE064B36
:1092D000180052F0E1FEC046BD4602B080BDC04657
:1092E00084CE0610A0600020B4CE0610F0B5C9B040
:1092F00002AFFFF7F5FE09F0FDF90300EC210820AD
:109300000A18D2191360704B00229A770B18DB19D8
:109310001B6827229B5C002B10D00020FFF79EFBD0
:109320000300012B0AD0684B9B7F5A1CD1B2664ABE
:1093300091771A00644B9B180022DA77EC230822FD
:109340009B18DB191B6828229B5C002B10D0012086
:10935000FFF784FB0300012B0AD05B4B9B7F5A1C59
:10936000D1B2594A91771A00574B9B180122DA77EC
:10937000EC2308229B18DB191B6829229B5C002B1D
:1093800010D00220FFF76AFB0300012B0AD04E4BDE
:109390009B7F5A1CD1B24C4A91771A004A4B9B18BA
:1093A0000222DA77EC2308229B18DB191B682A2299
:1093B0009B5C002B10D00320FFF750FB0300012B18
:1093C0000AD0414B9B7F5A1CD1B23F4A91771A0079
:1093D0003D4B9B180322DA77EC2308229B18DB19FC
:1093E0001B682B229B5C002B10D00420FFF736FB60
:1093F0000300012B0AD0344B9B7F5A1CD1B2324A56
:1094000091771A00304B9B180422DA77EC2308225C
:109410009B18DB191B682C229B5C002B10D00520AD
:10942000FFF71CFB0300012B0AD0274B9B7F5A1C24
:10943000D1B2254A91771A00234B9B180522DA777F
:10944000214B9B7F5A1E9341DAB21F4B5A774CF047
:1094500053FA0300E82208215218D2191360E722B8
:109460005318DE194BF03CFA03003370E623082151
:109470005B18DE194BF028FA03003370E72208214D
:109480005318DB191B78012B04D05318DB191B78F8
:10949000032B01D1012200E00022E52308201B1844
:1094A000DB191A701A7801210A401A70E7231B1879
:1094B000DB191B78012B09D1E8231B18DB191B686A
:1094C000002B03D0012202E0BCCF02200022E423C3
:1094D00008201B18DB191A701A7801210A401A702B
:1094E000E7231B18DB191B78012B0AD1E82213187C
:1094F000DB191B68002B04D0DD4B1218D21912683F
:10950000DA63E32308201B18DE1902F045FE03008E
:10951000337057F041F80300DC2108200A18D219F3
:109520001360E5221318DB191A78D24B1A70D04B4E
:109530005B7A002B15D0E3231B18DB191B78012263
:109540005340DBB2002B0CD0C94B0A18D219126859
:10955000DA60C74B01221A7402F00AFC0200C44B05
:109560005A61C34BE32108268A19D21912785A721C
:10957000BF4B1B7C002B31D08B19DB191B780122D0
:109580005340DBB2002B29D0B94BDB68DC229219A7
:10959000D2191268D31A3B6000237B60FA22920032
:1095A00000233868796811F019FD02000B001000E3
:1095B0001900FA229200002310F010FE02000B00A6
:1095C0001300D8229119C9190B609319DB191B6874
:1095D000A94A934202D9A64B00221A74A44B1B78C5
:1095E00001225340DBB2002B10D0E52308229B1848
:1095F000DB191B78002B09D09D4B00221A749C4B61
:1096000000221A729A4B402201219954984B1B78E0
:10961000002B12D0E52308215B18DB191B780122EF
:109620005340DBB2002B08D0914BDC225218D219E8
:1096300012685A608E4B01221A728D4BE521082662
:109640008A19D21912781A70894B1B7A002B24D0F0
:109650008B19DB191B7801225340DBB2002B1CD085
:1096600009F048F8020084235B00D358D4218A19FA
:10967000D21913607E4B5B68DC229219D2191268F2
:10968000D31A8A19D21912689A4206D8FFF798FCA1
:109690000020FFF7F3FC01F095FDD32308201B18F1
:1096A000DE19E3210B18DB191A78E7210B18DB19F7
:1096B0001B7811001800FFF7B7FC030033706F4BE5
:1096C0001B78D32208201218D21912789A4204D19A
:1096D000674B40229B5C002B10D0D3260822B31886
:1096E000DB191B781800FFF7C9FC644B0822B2187D
:1096F000D21912781A70624BFF221A7008F0FAFF22
:109700000300CC2208215218D21913605D4B1B684C
:10971000002B5FD00023862676007218D2191360C2
:10972000E7235B18DB191B78012B1BD120235B1867
:10973000DB190C2118004CF04BFA031E25D0202316
:1097400008215B18D919504B0B2218005AF026FC3F
:10975000474B3822002199544B4B08217218D219DB
:10976000136012E0424B1B7A01225340DBB2002B04
:109770000BD0CC2308215B18DB191B683E33FF3369
:10978000862252005218D2191360862676000822CB
:10979000B318DB191B68002B1CD0B318DB191A682F
:1097A0003A4B110018005BF0A3FE031E12D00822F2
:1097B000B318DB191968354B1F2218005AF0EEFB5D
:1097C000324B0022DA772F4B1B68304A1100180009
:1097D00038F058FB00238421490008268A19D21941
:1097E00013600820FF308319DB1900221A70E6236A
:1097F00032009B18DB191B780A2B09D1244B160069
:109800008A18D21913608319DB1901221A70DEE05D
:10981000E72208215318DB191B78022B19D05318A3
:10982000DB191B78032B14D0E6225318DB191B78A5
:10983000012B0ED05318DB191B78022B09D05318BB
:10984000DB191B78032B04D05318DB191B78042B6E
:1098500022D1104B8422520008215218D2191360D1
:109860000823FF335B18DB1901221A70AFE0C046F2
:10987000BCCF02206ADB022087130000881D002075
:10988000891D0020A0600020E9CF0220BC9E02209C
:10989000E4CE0610ECCE0610E62308215B18DB1997
:1098A0001B78062B23D1CB235B18DE194BF012F863
:1098B00003003370CB2308215B18DB191B78022BC4
:1098C00006D1CF4B842252005218D219136006E001
:1098D000CC4B8422520008215218D219136008235D
:1098E000FF3308229B18DB1901221A706FE0E7236F
:1098F00008215B18DB191B78002B13D1C24B1B7C92
:1099000001225340DBB2002B0CD0C04B842252000A
:109910005218D21913600823FF335B18DB19012298
:109920001A7054E0E72308229B18DB191B78012BDF
:109930000CD1E6239B18DB191B78062B06D10823D4
:10994000FF339B18DB1901221A7040E0E72308223D
:109950009B18DB191B78042B06D10823FF339B18B7
:10996000DB1901221A7032E0E72308229B18DB1969
:109970001B78012B12D1E8239B18DB191B68002BE5
:109980000CD1E6239B18DB191B780A2B06D0082381
:10999000FF339B18DB1901221A7018E0E423082218
:1099A0009B18DB191B78002B06D00823FF339B186C
:1099B000DB1900221A700AE0934B1B7C002B06D0A7
:1099C0000823FF3308229B18DB1901221A70904BE1
:1099D0001B68002B01D100F011FEE32308229B1825
:1099E000DB191B78002B03D1874B1B7C002B01D08C
:1099F000012200E00022CA2008268319DB191A7010
:109A00001A7801210A401A707F4B40229B5C002B80
:109A10000BD1804B1B78002B0ED08319DB191B78E0
:109A200001225340DBB2002B06D07B4B0122524275
:109A30001A607A4B00221A70764BCA2208215218FB
:109A4000D21912781A70E6225318DB191B78012BF1
:109A500019D05318DB191B78022B14D05318DB19BB
:109A60001B78032B0FD05318DB191B78042B0AD05B
:109A7000E7225318DB191B78022B04D05318DB198B
:109A80001B78032B01D1012200E00022C92308200A
:109A90001B18DB191A701A7801210A401A70E32387
:109AA0001B18DB191B78002B03D002F061F90300AF
:109AB00001E0554B5B69C42208269119C9190B6056
:109AC000C3208319DB199219D2191268511E8A41D9
:109AD0001A70E3239B19DB191B78002B04D0831920
:109AE000DB191B78002B0CD1474B1B7C002B00D1C2
:109AF0009CE0C32308229B18DB191B78002B00D1A4
:109B000094E0C92308215B18DB191B78012253401C
:109B1000DBB2002B00D189E0E3235B18DB191B7853
:109B2000002B03D002F024F9030001E0364B5B69FF
:109B3000BC2208269119C9190B609319DB191B68FF
:109B40006421180010F00CFB0300B82130000A1843
:109B5000D2191360304B1B680A18D21912689A4246
:109B60003BD02D4B0A18D21912681A600A000B1844
:109B7000DB191B68632B1AD81318DB191B680A2121
:109B8000180010F0EDFA03001E00B8220820131888
:109B9000DB191B680A21180010F0E2FA0B00204ABA
:109BA000204800933300102113F084F80EE0B8230E
:109BB00008229B18DB191B680A21180010F0D0FA44
:109BC0000300194A1748102113F074F8104B1B6852
:109BD000144A1100180038F055F90D4B1B6801218B
:109BE00018001BF079F9031E01D100F006FD084BA7
:109BF0001B68012118001BF003F900F0FEFCC046B1
:109C0000F8CE061004CF0610BCCF022010CF0610ED
:109C1000A4600020A2DB0220A41D0020E09E022000
:109C200018CF06108C75022024CF0610C9230822F5
:109C30009B18DB191B78002B29D0DE4ADE4B110064
:109C400018005BF055FC031E0FD0DC4B1B68D94A93
:109C50001100180038F016F9D649D74B0F2218001A
:109C60005AF09CF9D44B0022DA73D44B1B680121C3
:109C700018001BF031F9031E01D100F0BFFCCF4BDF
:109C80001B68012118001BF0BBF800F0B7FCE623AD
:109C900008229B18DB191B78062B61D156F07CFC3F
:109CA00003007B67C64B1B687A6FD21AFA23DB006E
:109CB0009A4210D3C34B1B785A1E9341DBB2012248
:109CC0005340DBB21A1C01231340DAB2BD4B1A70A9
:109CD000BB4B7A6F1A606B2308229B18DE194AF07F
:109CE000F9FD030033706B2308229B18DB191B78E6
:109CF000022B01D1B44B00E0B44BFB66B14B1B7897
:109D0000002B01D0B24B00E0FB6EBB66BA6EAA4BD3
:109D1000110018005BF0ECFB031E0FD0A74B1B6873
:109D2000BA6E1100180038F0ADF8B96EA24B0F22D0
:109D300018005AF033F9A04B0022DA739F4B1B68CE
:109D4000012118001BF0C8F8031E01D100F056FCD9
:109D50009A4B1B68012118001BF052F800F04EFCD2
:109D6000E42308229B18DB191B78002B38D0E8234A
:109D70009B18DB191B68002B32D0E3239B18DB19DF
:109D80001B7801225340DBB2002B29D0914A8A4B29
:109D9000110018005BF0ACFB031E0FD0874B1B6853
:109DA0008C4A1100180038F06DF88A49824B0F2256
:109DB00018005AF0F3F8804B0022DA737F4B1B68CF
:109DC000012118001BF088F8031E01D100F016FCD9
:109DD0007A4B1B68012118001BF012F800F00EFCF2
:109DE0007D4B5B7F002B59D056F0D6FB03008022C1
:109DF000B9180B60784B9B6ABA181268D21AFA230A
:109E0000DB009A4217D3744B2C229B5C0133D9B2EE
:109E1000714B2C229954704B2C229A5C6E4B9B7F79
:109E20009A4203D36C4B2C22002199546A4B802216
:109E3000BA1812689A62684B2C229B5C1900772032
:109E400008268319DB19644A5218D27F1A708319C5
:109E5000DB191B781800FEF717FE0300BB67BB6F0A
:109E60005E4AB819202112F025FF544B1B68BA191D
:109E70001100180038F006F8504B1B68012118003B
:109E80001BF02AF8031E01D100F0B8FB4B4B1B68F6
:109E9000012118001AF0B4FF00F0B0FB87235B002B
:109EA000FB180822FF3208215218D21912781A70B2
:109EB000E6225318DB191B78012B19D05318DB1934
:109EC0001B78022B14D05318DB191B78032B0FD0EF
:109ED0005318DB191B78042B0AD0E7225318DB191F
:109EE0001B78022B04D05318DB191B78032B23D1CA
:109EF000304B8422520008215218D2191360872354
:109F00005B00FB1801221A70354B1B78012253406D
:109F1000DBB2002B13D0E6230A009B18DB1919785B
:109F2000E7239B18DB191A782E4B180052F0B4F86F
:109F30002B4B01221A7002E0294B00221A70E623F3
:109F400008229B18DB191B780A2B53D156F024FBEF
:109F5000030084217A181360234B1B687A18126857
:109F6000D21AFA23DB009A4211D3204B1B785A1ED7
:109F70009341DBB201225340DBB21A1C0123134090
:109F8000DAB21A4B1A70184B7A1812681A60174B0B
:109F90001B78002B01D00E4B00E0154B84225200A1
:109FA00008215218D219136087235B00FB18012285
:109FB0001A70D1E2ECCE0610E09E0220A4600020D0
:109FC000289F02209ADB0220F8CE061004CF06104C
:109FD0002CCF061038CF0610BCCF022040CF061081
:109FE0007EDB022044CF0610209F022096DB022059
:109FF000E4CE0610E62308269B19DB191B78062BF6
:10A0000052D156F0C9FA0300882130000A18D2193B
:10A010001360D04B1B680A18D2191268D21AFA239F
:10A02000DB009A4212D3CC4B1B785A1E9341DBB211
:10A0300001225340DBB21A1C01231340DAB2C64B93
:10A040001A70C44B0A18D21912681A6087230822A2
:10A050009B18DE194AF03EFC030033708723082268
:10A060009B18DB191B78022B01D1BC4B00E0BC4BC9
:10A07000802208215218D2191360B74B1B78002B8D
:10A0800001D0B84B04E0802308229B18DB191B6821
:10A090008422520008215218D219136087235B00D2
:10A0A000FB1801221A7057E2E72308215B18DB191D
:10A0B0001B78002B12D1AC4B1B7C01225340DBB22E
:10A0C000002B0BD0A94B842252005218D2191360D6
:10A0D00087235B00FB1801221A703DE2E723082664
:10A0E0009B19DB191B78012B58D1E6239B19DB192F
:10A0F0001B78062B52D156F04FFA0300B4213000E2
:10A100000A18D21913609A4B1B680A18D2191268E0
:10A11000D21AFA23DB009A4212D3964B1B785A1EAE
:10A120009341DBB201225340DBB21A1C01231340DE
:10A13000DAB2904B1A708E4B0A18D21912681A6054
:10A14000B32308229B18DE194AF0C4FB03003370C6
:10A15000B32308229B18DB191B78022B01D17F4BFC
:10A1600000E07F4BAC2208215218D2191360814BBA
:10A170001B78002B01D07B4B04E0AC2308229B18FA
:10A18000DB191B688422520008215218D21913606F
:10A1900087235B00FB1801221A70DDE1E723082604
:10A1A0009B19DB191B78042B37D156F0F5F9030006
:10A1B0008C2130000A18D21913606F4B1B680A18E3
:10A1C000D2191268D21AFA23DB009A4212D36B4BCF
:10A1D0001B785A1E9341DBB201225340DBB21A1C9A
:10A1E00001231340DAB2654B1A70634B0A18D21977
:10A1F00012681A60614B1B78002B01D0594B00E0AC
:10A200005F4B8422520008215218D2191360872311
:10A210005B00FB1801221A709EE1E72308269B19B8
:10A22000DB191B78012B3DD1E8239B19DB191B6837
:10A23000002B37D156F0B0F90300A82130000A18DE
:10A24000D21913604F4B1B680A18D2191268D21A20
:10A25000FA23DB009A4212D34B4B1B785A1E9341D0
:10A26000DBB201225340DBB21A1C01231340DAB2E5
:10A27000454B1A70434B0A18D21912681A60424BA8
:10A280001B78002B01D0374B00E0404B842252005A
:10A2900008215218D219136087235B00FB18012292
:10A2A0001A7059E1E42308215B18DB191B78002B95
:10A2B0000BD0374B842252005218D21913608723D7
:10A2C0005B00FB1801221A7046E1274B1B7C002B18
:10A2D00000D141E187235B00FB1801221A70E623BD
:10A2E00008269B19DB191B780A2B59D156F054F913
:10A2F0000300902130000A18D2191360254B1B6807
:10A300000A18D2191268D21AFA23DB009A4212D321
:10A31000214B1B785A1E9341DBB201225340DBB222
:10A320001A1C01231340DAB21B4B1A70194B0A187E
:10A33000D21912681A60184B1B78002B01D0094BF8
:10A3400000E0164B8422520008215218D2191360E3
:10A3500002E1C046309F022099DB0220F8CE0610B1
:10A3600004CF06102CCF0610BCCF022010CF061051
:10A370001C9F022095DB02200C9F022091DB022013
:10A3800074CF0610109F022092DB02207CCF0610B3
:10A3900038CF0610249F022097DB0220E4CE06105F
:10A3A000E62308269B19DB191B78062B4DD156F0A6
:10A3B000F3F803009C2130000A18D2191360B94B3E
:10A3C0001B680A18D2191268D21AFA23DB009A42C3
:10A3D00012D3B54B1B785A1E9341DBB20122534076
:10A3E000DBB21A1C01231340DAB2AF4B1A70AD4B2B
:10A3F0000A18D21912681A609B2308229B18DE19CA
:10A400004AF068FA030033709B2308229B18DB197B
:10A410001B78022B01D1A54B00E0A54B942208210B
:10A420005218D2191360A04B1B78002B01D0A14BFE
:10A4300004E0942308229B18DB191B688422520035
:10A4400008215218D219136086E0E72308215B180F
:10A45000DB191B78002B06D1974B8422520052182F
:10A46000D219136078E0E72308269B19DB191B78C3
:10A47000042B32D156F090F80300A02130000A18C6
:10A48000D21913608D4B1B680A18D2191268D21AA0
:10A49000FA23DB009A4212D3894B1B785A1E934150
:10A4A000DBB201225340DBB21A1C01231340DAB2A3
:10A4B000834B1A70814B0A18D21912681A60804BAC
:10A4C0001B78002B01D07B4B00E07E4B8422520096
:10A4D00008215218D21913603EE0E72308269B1981
:10A4E000DB191B78012B37D1E8239B19DB191B687B
:10A4F000002B31D156F050F80300A42130000A1887
:10A50000D2191360704B1B680A18D2191268D21A3C
:10A51000FA23DB009A4212D36C4B1B785A1E9341EC
:10A52000DBB201225340DBB21A1C01231340DAB222
:10A53000664B1A70644B0A18D21912681A60634B82
:10A540001B78002B01D05B4B00E0614B8422520052
:10A5500008215218D219136087235B00FB181B785F
:10A56000002B36D0842676000822B318DB191B682E
:10A57000002B2ED0B318DB191A68564B11001800A7
:10A580005AF0B6FF031E15D0534B1B680822B118B2
:10A59000CA1912681100180037F074FC0822B318A9
:10A5A000DB1919684B4B0F22180059F0F7FC494B87
:10A5B0000022DA73484B1B68012118001AF08CFC4A
:10A5C000031E1BD0444B1B68012118001AF018FC15
:10A5D00014E0414B1B68012118001AF07DFC0300B8
:10A5E0001A0001235340DBB2002B07D03A4B1B6803
:10A5F000012118001AF099FE00E0C046E822082068
:10A600001318DB191B688421490079180B600100BD
:10A610005318DB191B68002B22D1304BDB6B002B4E
:10A620001ED0E6225318DB191B780A2B12D05318C0
:10A63000DB191B78062B0DD0284B1B7C002B09D176
:10A64000E3235B18DB191B78002B03D1234B1B7A08
:10A65000002B05D0214BDB6B84225200BA1813600B
:10A660001F4B1B68002B00D16FE25F2108200B18E5
:10A67000DB19E3221218D21912781A7002008B1813
:10A68000DB191B78002B05D1E5239B18DB191B7800
:10A69000002B27D0FF2308229B18DB1902221A70F7
:10A6A00026E0C0462C9F022098DB0220F8CE061040
:10A6B00004CF06102CCF061010CF0610189F0220D2
:10A6C00094DB022074CF0610149F022093DB02203B
:10A6D0007CCF0610E09E0220A4600020BCCF0220A8
:10A6E00088600020FF2308229B18DB1903221A70C0
:10A6F000DA4B1B78FF2208215218D21912789A429D
:10A7000004D1D74B40229B5C002B0ED0D54B0122AD
:10A7100052421A60D44B012252421A60CF4BFF22A0
:10A7200008215218D21912781A70FE2308215B18DA
:10A73000DB1900221A70E4230A009B18DB191B782E
:10A74000002B05D0E8239B18DB191B68002B06D1D2
:10A750005F2308229B18DB191B78002B06D0FE23F1
:10A7600008229B18DB1901221A7031E0E723082127
:10A770005B18DB191B78002B13D1B94B1B7C012212
:10A780005340DBB2002B0CD0B54B1B7A0122534057
:10A79000DBB2002B05D0FE235B18DB1900221A70F8
:10A7A00016E0B24B1B68012118001AF095FB03005C
:10A7B0005A1E9341DBB201225340DBB21A00FE2342
:10A7C00008215B18DB191A701A7801210A401A70E7
:10A7D000FE2308229B18DB191B78002B0ED0A34BFD
:10A7E0001B68012118001AF077FB031E19D09F4B3C
:10A7F0001B68012118001AF003FB12E09B4B1B6839
:10A80000012118001AF068FB03001A0001235340CD
:10A81000DBB2002B05D0954B1B68012118001AF004
:10A8200084FD5F2308229B18DB191B78002B5BD06B
:10A83000E5239B18DB191B78002B55D0894B1B682F
:10A84000842149007A1812689A4200D17DE1854B33
:10A850007A1812681A607B181A68FA239B009A42C9
:10A8600007D27B181B68824A8248102112F022FA14
:10A8700032E0842149007B181B687F4A93421CD830
:10A880007B181B68642118000FF06AFC03003B660C
:10A890003B6E0A2118000FF063FC03001E003B6EA4
:10A8A0000A2118000FF05CFC0B00744A71480093F9
:10A8B0003300102112F0FEF90EE084235B00FB1838
:10A8C0001B68FA22910018000FF04AFC03006C4A42
:10A8D0006848102112F0EEF9644B1B68654A1100BC
:10A8E000180037F0CFFA30E15F2308215B18DB193D
:10A8F0001B78002B00D173E0594B1B7A002B0AD038
:10A90000574BDB6B002B06D0554BDB6BF8225218F4
:10A91000D219136007E001F02BFC0300F822082194
:10A920005218D21913604F4B1B68F82108200A18DF
:10A93000D21912689A4200D107E14A4B0A18D2197B
:10A9400012681A600B18DB191A68FA239B009A42E6
:10A9500008D20B18DB191B68454A4648102112F033
:10A96000A9F935E0F82108200B18DB191B68424AC9
:10A9700093421DD80B18DB191B68642118000FF0D7
:10A98000EFFB0300BB65BB6D0A2118000FF0E8FB6D
:10A9900003001E00BB6D0A2118000FF0E1FB0B0045
:10A9A000364A344800933300102112F083F90FE047
:10A9B000F82308229B18DB191B68FA229100180063
:10A9C0000FF0CEFB03002E4A2A48102112F072F934
:10A9D000264B1B68274A1100180037F053FAB4E0E1
:10A9E000E42308215B18DB191B78002B12D1E62227
:10A9F0005318DB191B78062B0CD05318DB191B7866
:10AA00000A2B07D0164B1B7C002B03D1144B1B7A4F
:10AA1000002B72D0842149007B181B68002B6CD05E
:10AA2000104B1B687A1812689A4200D18DE00D4BCA
:10AA30007A1812681A600C4B012252421A607B1875
:10AA40001A68FA239B009A421CD27B181B68084A9A
:10AA50000848102112F02EF947E0C0467DDB0220A5
:10AA6000BCCF02208C1D0020901D0020886000209B
:10AA700088CF0610C47002200F27000018CF0610E0
:10AA800024CF0610842149007B181B68CC4A9342CE
:10AA90001CD87B181B68642118000FF061FB0300B1
:10AAA000FB65FB6D0A2118000FF05AFB03001E0026
:10AAB000FB6D0A2118000FF053FB0B00C14AC2487E
:10AAC00000933300102112F0F5F80EE084235B00B0
:10AAD000FB181B68FA22910018000FF041FB0300DD
:10AAE000BA4AB948102112F0E5F8B94B1B68B64ACA
:10AAF0001100180037F0C6F927E0E72308229B1859
:10AB0000DB191B78002B20D1B24B1B7C0122534058
:10AB1000DBB2002B19D0AF4B1B7A01225340DBB2C2
:10AB2000002B12D0AC4B1B6802330ED0AA4B022272
:10AB300052421A60A94B012252421A60A44B1B6870
:10AB4000A74A1100180037F09DF9A64B1B68002B8F
:10AB500000D174E0A44B1B68F42208215218D219CA
:10AB600013609C4B40229B5C002B03D09E4B012228
:10AB700052421A60E52308269B19DB191B78002B2B
:10AB80002AD04AF0CBFE03007B657B6D002B3DD0C5
:10AB9000E8239B19DB191B6864225343796D180065
:10ABA0000FF0DEFA0300F4229119C9190B60931912
:10ABB000DB191B68002B03DA00239219D2191360EA
:10ABC000F42208215318DB191B68642B1EDD642353
:10ABD0005218D219136019E0E72308215B18DB191A
:10ABE0001B78002B12D17B4B1B7C01225340DBB224
:10ABF000002B0BD0774B1B7A01225340DBB2002B8A
:10AC000004D00023F4225218D2191360764B1B682B
:10AC1000F42108200A18D21912689A420FD0714BF9
:10AC20001B680E000A18D21911680022180032F0B1
:10AC30008BFE6D4B08203218D21912681A606B4BCC
:10AC40001B68002B00D153E1624B40229B5C002B20
:10AC500002D0674B00221A70E42308229B18DB19EC
:10AC60001B78002B05D0E8239B18DB191B68002BF1
:10AC700006D1E32308229B18DB191B78002B2CD06C
:10AC8000E82308229B18DB191B68002B02D1514BCB
:10AC9000DB6B04E0E82308229B18DB191B683B658B
:10ACA0003B6D544A934206D8F32308229B18DB19C4
:10ACB00001221A7042E03B6D4F4A934206D8F323BB
:10ACC00008229B18DB1902221A7037E0F3230822AE
:10ACD0009B18DB1903221A7030E0E72308215B1868
:10ACE000DB191B78002B13D13A4B1B7C01225340FC
:10ACF000DBB2002B0CD0374B1B7A01225340DBB266
:10AD0000002B05D0F3235B18DB1904221A7015E021
:10AD1000374B1B78002B0BD0354B1B78042B07D0FF
:10AD2000F32308229B18DB19314A12781A7005E0C8
:10AD3000F32308229B18DB1904221A702C4B1B7872
:10AD4000F32108200A18D21912789A4200D1CFE0D4
:10AD50000B18DB191B78042B00D9C2E09A00274B93
:10AD6000D3181B689F46214B1E68CC231B04180078
:10AD70002BF027FD03001A002C200823C118CB1943
:10AD8000111C19701104090E59701202120E9A70DA
:10AD90000823C318DB190022196830001FF0B8FD22
:10ADA000124B1B68012118001AF096F8031E00D1FF
:10ADB00090E00E4B1B68012118001AF021F889E081
:10ADC0000F27000018CF0610C470022024CF0610F1
:10ADD00088600020BCCF02208C1D0020901D002028
:10ADE00090CF06107C600020A81D0020806000200D
:10ADF0007CDB0220973A00001F4E000098CF06101F
:10AE0000D74B1E68D74B18002BF0DBFC03001A0051
:10AE100030200823C118CB19111C19701104090E18
:10AE200059701202120E9A700823C318DB190022FF
:10AE3000196830001FF06CFDC94B1B680121180018
:10AE40001AF04AF8031E47D0C54B1B6801211800B1
:10AE500019F0D6FF40E0C24B1E68C34B18002BF020
:10AE6000B0FC03001A0034200823C118CB19111CB0
:10AE700019701104090E59701202120E9A700823EB
:10AE8000C318DB190022196830001FF041FDB44BD4
:10AE90001B68012118001AF01FF8031E1ED0B04BCA
:10AEA0001B680121180019F0ABFF17E0AC4B1B68C1
:10AEB000012118001AF010F803001A000123534072
:10AEC000DBB2002B0CD0A64B1B68012118001AF036
:10AED0002CFA05E0C04604E0C04602E0C04600E0AF
:10AEE000C046A24BF32208215218D21912781A70C8
:10AEF0009F4B1B68002B00D160E19E4B40229B5C66
:10AF0000002B02D09C4B00221A709A4B5B7F002BC7
:10AF100006D0F22308229B18DB1902221A705FE088
:10AF2000E72308229B18DB191B78002B05D1F2239D
:10AF30009B18DB1900221A7052E0E72308229B18A5
:10AF4000DB191B78012B0BD1E4239B18DB191B7831
:10AF5000002B05D0F2239B18DB1901221A703FE069
:10AF6000E72208215318DB191B78022B21D0531834
:10AF7000DB191B78032B1CD05318DB191B78042B0F
:10AF800017D05318DB191B78012B05D1E8235B1868
:10AF9000DB191B68002B0CD0E72308229B18DB1958
:10AFA0001B78012B0CD1E6239B18DB191B78062B91
:10AFB00006D1F22308229B18DB1902221A700FE037
:10AFC000E52308229B18DB191B78002B02D06A4B63
:10AFD0001A7800E00022F22308215B18DB191A70AE
:10AFE000F22308229B18DB191B78022B00D079E092
:10AFF000FA23FB6455F0D0FA0300BB645D4B9B69F8
:10B00000BA6CD61AFB6C1C0000231D00FA229200B9
:10B010000023200029000FF0E1FF02000B001000C8
:10B020001900FA22920000230FF0D8F802000B005A
:10B0300013009E4200D2BAE04E4B1B7F5A1E934132
:10B04000DBB201225340DBB21A1C01231340DAB2F7
:10B05000484B1A77474BBA6C9A61464B1B7F002BC3
:10B060002BD0434B1C68FF231B0418002BF0A9FBBB
:10B0700003001A00382008254319DB19111C197028
:10B080001104090E59701202120E9A704319DB193D
:10B090000022196820001FF03BFC354B1B68012182
:10B0A000180019F019FF031E00D180E0304B1B6817
:10B0B0000121180019F0A4FE79E02D4B1B68012135
:10B0C000180019F009FF03001A0001235340DBB2F6
:10B0D000002B00D16BE0264B1B68012118001AF0F1
:10B0E00024F964E0244B1B78F22108254A19D2196F
:10B0F00012789A425BD04B19DB191B78022B51D086
:10B1000055DC002B3AD0012B51D1194B1C68FF2381
:10B110001B0218002BF055FB03001A003C204319BA
:10B12000DB19111C19701104090E59701202120E4C
:10B130009A704319DB190022196820001FF0E8FB00
:10B140000B4B1B680121180019F0C6FE031E2BD003
:10B15000074B1B680121180019F052FE24E0C0467D
:10B16000806000200099FF000A8205007CDB02203D
:10B170008C600020BCCF02207BDB0220134B1B68BD
:10B180000121180019F0A8FE03001A000123534002
:10B19000DBB2002B0AD00D4B1B68012118001AF0FE
:10B1A000C4F803E0C04602E0C04600E0C046084BD9
:10B1B000F22208215218D21912781A70054B402237
:10B1C00000219954BD4647B0F0BDC0468C600020B8
:10B1D0007BDB0220BCCF022080B582B000AF78605C
:10B1E000D0231B067A685A61C046BD4602B080BDB6
:10B1F00080B582B000AF7860D0231B067A689A6170
:10B20000C046BD4602B080BD80B584B000AF786056
:10B210000A00FB1C1A7001227B689A401300FB6035
:10B22000FB1C1B78002B04D0FB681800FFF7D4FF31
:10B2300003E0FB681800FFF7DBFFC046BD4604B023
:10B2400080BD0000B0B58AB000AF374B102200219E
:10B25000180010F0DBF8344B00229A72334B0022B6
:10B260001A7001F02BF83B00180002F0AFFC3B0015
:10B270001B69DAB227257C192D4B1100180051F0FB
:10B28000B7FD030023707B191B78002B1ED17C199E
:10B29000274B180051F03CFC030023707B191B78EE
:10B2A000002B0AD1234B01221A703B001A69224B52
:10B2B0001100180050F0F0FE10E02723FB181A7858
:10B2C0001E4B1100180050F0E7FE07E02723FB1883
:10B2D0001A781B4B1100180050F0DEFE01F038F90F
:10B2E00003003B621F257C193B6A180047F036FFBC
:10B2F000030023707B191B78002B04D1114B18001D
:10B3000050F0CAFE07E01F23FB181A780E4B1100FD
:10B31000180050F0C1FE0D4B180050F0BDFE002388
:10B320001800BD460AB0B0BDEC95022072DB0220C9
:10B33000FC95022073DB0220ACCF0610E4CF061090
:10B3400014D0061044D0061084D00610C4D00610C5
:10B3500080B582B000AF4AF0B3FA03007B607B682F
:10B36000002B01D1002311E07B681A78597809027B
:10B370000A43997809040A43DB781B0613431A0031
:10B38000FB1C511E8A411A70FB1C1B781800BD461D
:10B3900002B080BD90B58DB000AF02003960FB1DDA
:10B3A0001A70FB1D1B7801225340DBB2002B17D013
:10B3B0004AF086FA0300FB62FB6A002B0BD0FB6AA3
:10B3C0001A78597809020A43997809040A43DB7804
:10B3D0001B06134304D13D4B180050F05DFE72E094
:10B3E0003B4BFA1D12781A703A4B3A681A6055F0C6
:10B3F000D3F80200384B1A60374B1A68364B5A6044
:10B40000354B01221A72344B0022DA60334B012291
:10B410001A70314B1A68324B1A602F4B1A68314B35
:10B420001A60314B00221A60304B00221A60304BF8
:10B4300000221A702F4B1B78002B10D008243A19C9
:10B440002D4B1100180051F0B7FB031E07D13B191B
:10B45000DA682A4B1A603B19DA68294B1A6055F0F2
:10B460009BF80200274B1A6000F012FFFB1D1B78AF
:10B47000002B0ED03B68002B06D03A68224B1100FF
:10B48000180050F009FE1EE0204B180050F004FE9A
:10B4900019E04AF015FA0300BB62BB6A002B0CD01E
:10B4A000BB6A1A78597809020A43997809040A4351
:10B4B000DB781B0613431A0000E00022144B110036
:10B4C000180050F0E9FDBD460DB090BDF4D0061057
:10B4D00075DB02202C990220EC95022072DB022001
:10B4E000B0960220AC960220C4960220E495022079
:10B4F00071DB022073DB0220FC950220E89502201C
:10B50000B8960220B496022024D1061074D10610F9
:10B51000C0D1061080B500AF00210020FFF73AFF30
:10B52000C046BD4680BD000090B58DB000AF7860CC
:10B53000314B1B7A01225340DBB2002B58D100F073
:10B54000BDFE2D4B00221A722C4B00221A700023D4
:10B55000FB622B4B1B78002B12D00C243A19294B81
:10B560001100180051F028FB031E09D13B19DA68BD
:10B57000254B1B68191C101C0FF04DFD031CFB62B2
:10B58000224B1B78002B09D0F86A0FF0D7FD020080
:10B590000B0079681E4850F07FFD16E01D4B1B68BC
:10B5A000002B0BD0144BDA681A4B1B6879681A48C9
:10B5B00050F072FD174B00221A6006E00E4BDA685D
:10B5C0007968164B180050F067FD104B00221A7076
:10B5D000134B00221A60134B00221A70124B0022E8
:10B5E0001A60124B00221A70034B00229A7200E07C
:10B5F000C046BD460DB090BDEC95022072DB022026
:10B6000073DB0220FC950220E895022075DB022006
:10B6100004D20610C496022044D20610A4D206100A
:10B620002C99022076DB0220BC96022074DB0220DB
:10B63000F0B59FB000AF78610023BB6600237B6745
:10B64000D24B1B78002B3DD00C261023F218D219B8
:10B65000CF4B1100180051F0AFFA031E34D1102364
:10B66000F318DB19DB68BB66CA4B1B68191CB86E84
:10B670000FF0D1FC031C7B67C74B1B68191CB86E0D
:10B680000FF028FD031E1FD0C34BBA6E1A6054F092
:10B6900083FF0200C14B1A60C14B1B78002B13D0F3
:10B6A000C04B1B7801225340DBB2002B0CD0BD4BAA
:10B6B00001221A70BC4B1A68BC4B1100180050F0E4
:10B6C000EBFC01E0012360E254F066FF0200B34BA3
:10B6D0001B68D31ABB600023FB60FA229200002390
:10B6E000B868F9680FF07AFC02000B00100019002E
:10B6F000FA22920000230EF071FD02000B001300ED
:10B700007B667B6EAA4A934255D97A6EA94B11008B
:10B71000180050F0C1FCA84B1800FFF705FFA74B1D
:10B720001B7801225340DBB2002B2ED049F09CFD48
:10B73000031E2AD04AF0C4F80300FB64FB6C002B04
:10B7400017D0FB6C1A78597809020A4399780904D2
:10B750000A43DB781B0613430BD105204AF01EFA7F
:10B76000974B180050F098FC964B180050F094FC42
:10B770001FE00A204AF012FA934B180050F08CFC9C
:10B78000924B180050F088FC13E08C4B1B78012280
:10B790005340DBB2002B04D08D4B180050F07CFCE2
:10B7A00007E08C4B180050F077FC8B4B180050F0E2
:10B7B00073FC0023E9E1814B1B78002B23D0FC2193
:10B7C0008905786F0FF02CFC031C181C0FF0AEFCE1
:10B7D0000200824BDA60824B1B68002B11D0804B39
:10B7E0001B6818000FF07BFC031C191C786F0FF00E
:10B7F00069FC031E05D07B4B1800FFF795FE002364
:10B80000C3E10123C1E14AF05BF803003B663B6EF4
:10B81000002B01D10123B8E1FC218905786F0FF0DD
:10B82000FFFB031C181C0FF081FC0300FB650023C9
:10B830003B676A4BDB68FA6D9A4204D9674BDB6859
:10B84000FA6DD31A3B673B6E1A78597809020A439E
:10B85000997809040A43DB781B0613431A003B6FEF
:10B8600093420BD93B6E1A78597809020A439978AA
:10B8700009040A43DB781B0613433B673B6F002B2D
:10B8800049D02C2610203318DA193B6E100019000D
:10B8900010231A000FF0C0FD310010200B18DB1927
:10B8A0001A683B6FD21A0B18DB191A600B18DB19D8
:10B8B0001B8901339AB20B18DB191A810B18DB199B
:10B8C00018004AF063F8454BDA683B6FD218434BD7
:10B8D000DA60454B1A683B6FD218434B1A60304B05
:10B8E0001B78002B17D02F4B1B78002B13D03B4B12
:10B8F000DA682D4B1B689A420DD3384BD9682A4B16
:10B900001A683A4B180050F0C7FB394B1800FFF784
:10B910000BFE002339E154F03FFE0300BB655F26B8
:10B9200010217318DB1900221A705E235B18DB19D3
:10B9300001221A702F4B1B68BA6DD31A3B6000238B
:10B940007B60FA2292000023386879680FF046FB8A
:10B9500002000B0010001900FA22920000230EF0E2
:10B960003DFC02000B00FA235B009A4244D31E4BBD
:10B970001B68002B40D010217318DB1901221A70AC
:10B980005E235B18DB1900221A7060E073DB022073
:10B99000FC950220E8950220B8960220B496022079
:10B9A00076DB022074DB0220BC960220F0D2061067
:10B9B000B70B000038D3061074D3061075DB0220D5
:10B9C00084D30610B8D30610F4D3061028D406107A
:10B9D00060D4061090D40610C0D40610EC95022056
:10B9E0002C990220E8D40610C496022000D5061037
:10B9F0003CD50610AC960220664B1B68BA6DD31A74
:10BA00001C0000231D00FA229200002320002900C0
:10BA10000FF0E4FA02000B0010001900FA22920065
:10BA200000230EF0DBFB02000B001300C72B0ED926
:10BA3000594B1B68002B0AD05F2310215B18DB19C0
:10BA400001221A705E235B18DB1901221A705F2332
:10BA500010241B19DB191B78002B00D17BE001217E
:10BA60000B204DF0BDF9472521006B18DC195E262F
:10BA70007318DB191B7818004AF096F8030023703E
:10BA800010216B18DB191B78002B14D1424B0022BC
:10BA90001A60404BBA6D1A60404B00221A6073184E
:10BAA000DB191B7801225340DBB2002B22D03C4B28
:10BAB000BA6D1A601EE0394B1B685A1C374B1A606E
:10BAC0005E2310229B18DB191B78002B01D0354C0C
:10BAD00000E0354C314B1D68472310229B18DB19C1
:10BAE0001B78180048F0FEFD030030482A002100B2
:10BAF00050F0D2FA294B1B68002B2CD0274B1A6828
:10BB00002B4B1100180050F0C7FA01210B204DF00B
:10BB100067F946251026AB19DC1949F003F8030034
:10BB20002370AB19DB191B78002B11D0214B1800A7
:10BB300050F0B2FA194B00221A601F4B01221A7002
:10BB400048F0A2FF1D4B1800FFF7EEFC00231CE09D
:10BB5000124B00221A6049F0B3FE03003B653B6DB7
:10BB6000002B11D03B6D1A78597809020A43997855
:10BB700009040A43DB781B06134305D1104B180058
:10BB8000FFF7D2FC002300E001231800BD461FB0E0
:10BB9000F0BDC046B0960220C4960220E495022073
:10BBA000AC96022054D506105CD5061064D506105C
:10BBB00090D50610E8D5061071DB022020D60610BD
:10BBC00030D6061080B500AF49F070FE031E07D0D6
:10BBD000FFF7BEFB031E03D0FFF79CFC002300E031
:10BBE00004231800BD4680BDB0B584B000AF7860B6
:10BBF0007B68002B01D1012364E0344B1A787B6809
:10BC00001A70334B1A7A7B685A7049F02DFB030087
:10BC10001A007B681A722E4B5A7A7B681A742D4B65
:10BC20001B78002B07D07B680022DA602A4B1A6849
:10BC30007B685A601AE049F043FE0300FB60FB6832
:10BC4000002B0CD0FB681A78597809020A439978BE
:10BC500009040A43DB781B0613431A0000E00022A4
:10BC60007B68DA607B68DA687B685A60184B1B7AFD
:10BC7000002B1FD054F090FC0200154B1B68D31A08
:10BC8000BB60BB681C0000231D00FA229200002349
:10BC9000200029000FF0A2F902000B00100019008B
:10BCA000FA22920000230EF099FA02000B007B6842
:10BCB0005A6102E07B6800225A61054B9A7A7B68E0
:10BCC0001A7600231800BD4604B0B0BD72DB022016
:10BCD000EC95022075DB02202C99022080B500AF84
:10BCE000034B1800FFF720FC00231800BD4680BD61
:10BCF00044D6061080B582B000AF7860094B1B7A3D
:10BD0000002B05D0084B180050F0C6F9012305E0C0
:10BD10007B6819000120FFF73DFB00231800BD469A
:10BD200002B080BDEC95022054D6061080B500AF5D
:10BD3000084B1B7A01225340DBB2002B01D00023B9
:10BD400004E0054B1800FFF7EFFB00231800BD4689
:10BD500080BDC046EC950220DCD7061080B500AF50
:10BD6000024B1B7A1800BD4680BDC046EC950220F0
:10BD700080B500AF024BDB681800BD4680BDC046F1
:10BD8000EC950220F0B591B000AFF860AC4B180014
:10BD900050F082F954F000FC0300BB63A94B1B6810
:10BDA000BA6BD21AFA239B009A4206D3A54BBA6B00
:10BDB0001A60A54B180048F0CBF801210B204DF07C
:10BDC0000FF8372108200B18DB1900221A709F4B3F
:10BDD0001B7801225340DBB2002B2BD00B18DE194D
:10BDE00049F064FD03003370994B1B78372108201C
:10BDF0000A18D21912789A421CD00B18DB191B783A
:10BE0000002B08D0934B1B781A00934B110018009D
:10BE100050F042F907E08F4B1B781A008F4B11004E
:10BE2000180050F039F98A4B372208215218D219DC
:10BE300012781A70874B1B78022B00D1BCE000DD12
:10BE4000DAE0002B02D0012B61D0D5E07F4B1B78CC
:10BE500001225340DBB2002B00D1C4E0372308227B
:10BE60009B18DB191B78002B00D1BCE022239B1808
:10BE7000DE1948F029FD03003370222308229B18A5
:10BE8000DB191B78052B00D0AFE04FF0C3FF030098
:10BE90007B627B6A002B33D07B6A1B7D002B2FD00B
:10BEA0007B6A1B78032B26D108260822B318DB19DE
:10BEB000180049F051FD031E00D198E0300008261B
:10BEC0008319DB199A7A7B6ADB7B9A4200D08EE079
:10BED0007B6A083319007B6ADB7B1A008319DB1944
:10BEE000180057F09BFE031E00D080E07B6A18000C
:10BEF0004FF0B6FF7BE07B6A18004FF0B1FF76E0B1
:10BF0000FFF726FA031E6ED0FFF704FB6BE054F038
:10BF100043FB03003B63524B5B683A6BD31A3B60B5
:10BF200000237B60FA2292000023386879680FF0C2
:10BF300055F802000B0010001900FA2292000023AD
:10BF40000EF04CF902000B001300FB62FB6A312B70
:10BF50004FD9232308229B18DE19FB6A1800FFF72C
:10BF600067FB030033703E4B3A6B5A602323082271
:10BF70009B18DB191B7801225340DBB2002B38D011
:10BF8000324B1B7801225340DBB2002B0DD0354BD6
:10BF90001B7801225340DBB2002B06D02D4B02222E
:10BFA0001A70314B3A6B1A6026E02A4B00221A7045
:10BFB0002C4B00221A701FE02F2308229B18DE1939
:10BFC00049F074FC030033702F2308229B18DB19FF
:10BFD0001B78002B0FD1254B180050F05DF81D4B3E
:10BFE00000221A7007E0C04606E0C04604E0C046E2
:10BFF00002E0C04600E0C046164B1B78002B01D182
:10C00000142300E064233B623B6A1C0000231D00F4
:10C01000FA2292000023200029000EF0DFFF020028
:10C020000B0010001900FA22920000230EF0D6F83F
:10C0300002000B001300180054F0C0FCAAE6C04632
:10C04000E8D706102C6D022014D8061075DB0220EC
:10C0500079DB022072DB022020D8061054D80610AB
:10C06000EC95022071DB0220E095022088D80610B2
:10C0700080B584B002AF134B1B68002B04D0124B69
:10C08000180050F009F81AE0C0239A000F49104830
:10C090000C4B019301230093002353F05DFF030039
:10C0A0007B607B68012B06D07A680A4B1100180070
:10C0B0004FF0F2FF03E0084B18004FF0EDFFBD46D4
:10C0C00002B080BD9C750220BCD8061014D80610A2
:10C0D00085BD0010E0D8061014D9061080B500AF59
:10C0E0000D4B1B68002B13D00C4B1B7A002B03D07D
:10C0F0000B4B1800FFF718FA074B1B68180053F09A
:10C100006FFF054B00221A60064B18004FF0C4FF6A
:10C11000C046BD4680BDC0469C750220EC950220FD
:10C1200044D9061054D9061080B582B000AF0F4B29
:10C130001B78002B01D0002313E049F0C1FB030062
:10C140007B607B68002B0BD07B681A7859780902DA
:10C150000A43997809040A43DB781B06134300E07D
:10C1600000231800BD4602B080BDC04675DB02202A
:10C1700080B500AF064B1B78002B02D0054B1B6827
:10C1800002E0FFF7D1FF03001800BD4680BDC046A6
:10C1900075DB02202C99022080B500AF024B1B7A80
:10C1A0001800BD4680BDC046EC950220B0B588B0F1
:10C1B00002AFF8603A607B6017257C193A687B68AB
:10C1C000F96800200090080049F078FD0300237012
:10C1D0007B191B78002B07D1FA680C4B1100180053
:10C1E0004FF05AFF00230CE01723FB181B781800B0
:10C1F00048F078FA0200064B110018004FF04CFF8F
:10C2000001231800BD4606B0B0BDC04674D9061063
:10C21000B4D90610B0B584B000AF786049F046FBE1
:10C2200003001A0001235340DBB2002B05D0154B4D
:10C2300018004FF031FF032320E00F257C197B68A5
:10C24000180049F00DFC030023707B191B78002BAC
:10C2500007D17A680C4B110018004FF01DFF002326
:10C260000CE00F23FB181B78180048F03BFA020083
:10C27000064B110018004FF00FFF01231800BD46B8
:10C2800004B0B0BDE4D906100CDA061034DA06109A
:10C2900080B588B000AF3B1D180001F097FC3B1D36
:10C2A0005B6901211800FEF7AFFF034B01229A7270
:10C2B000C046BD4608B080BDEC95022080B588B070
:10C2C00000AF3B1D180001F081FC3B1D5B690021A4
:10C2D0001800FEF799FF034B00229A72C046BD4634
:10C2E00008B080BDEC95022080B582B000AF02009E
:10C2F000FB1D1A70FB1D1B780A2B1AD89A000F4BD6
:10C30000D3181B689F46002314E0012312E0022388
:10C3100010E003230EE004230CE005230AE00623CB
:10C3200008E0072306E0082304E0092302E00A23CB
:10C3300000E001231800BD4602B080BD88DA061077
:10C3400080B500AFFEF77EFF03001800FFF7CCFFBB
:10C3500003001800BD4680BDB0B58AB000AF78605C
:10C360007B68002B01D1012358E027257C19082385
:10C37000FB181800FFF738FC030023707B191B78AB
:10C38000002B06D07B191B781800FFF7ADFF0300C8
:10C3900044E00823FB181B78022B0DD010DC002B87
:10C3A00002D0012B04D00BE07B6800221A700BE056
:10C3B0007B6804221A7007E07B6805221A7003E08C
:10C3C0007B6806221A70C04608243B195A787B689D
:10C3D0005A703B191A7A7B689A703B191A7C7B68F1
:10C3E0001A773B195B69FA22910018000DF0B8FE2C
:10C3F00003001A007B685A613B195A687B689A618E
:10C400003B19DA687B685A607B6800229A607B6817
:10C41000044ADA607B6800221A6100231800BD46D6
:10C420000AB0B0BD74DA061080B588B000AF3B002A
:10C430001800FFF791FF031E02D13B001B7800E0BC
:10C4400006231800BD4608B080BD80B500AFFFF7D9
:10C4500085FC03001800BD4680BD80B500AFFFF726
:10C46000B1FB03001800FFF73FFF03001800BD46B3
:10C4700080BD80B500AFFFF731FC03001800FFF767
:10C4800033FF03001800BD4680BD80B582B000AF09
:10C4900078607B681800FFF72DFC03001800FFF799
:10C4A00023FF03001800BD4602B080BD80B584B0F4
:10C4B00000AFF8603A607B603A687B68F968080012
:10C4C000FFF774FE03001800FFF70EFF03001800CB
:10C4D000BD4604B080BD80B582B000AF78607B6897
:10C4E0001800FFF797FE03001800FFF7FDFE03009A
:10C4F0001800BD4602B080BD80B500AFFFF714FE46
:10C5000003001800BD4680BD80B500AF00231800B1
:10C51000BD4680BD80B582B000AF0200FB1D1A7021
:10C52000FB1D1B78180046F04DFE03001800BD46A9
:10C5300002B080BD80B500AFFFF79AFDC046BD4692
:10C5400080BD80B500AFFFF7C9FDC046BD4680BDC8
:10C5500080B500AF014B1800BD4680BDECDA061077
:10C5600080B584B004AF084A084801230293002331
:10C570000193002300930123202110F09BFB034B28
:10C580001800BD4680BDC046F8DA061064D9022006
:10C5900080B500AF014B1800BD4680BD04DB06101E
:10C5A00080B500AF014B1800BD4680BD10DB061002
:10C5B00080B500AF1D4B18004FF06EFD1C4B1800EE
:10C5C0004FF06AFD1B4A1C4B110018004FF064FD30
:10C5D000174B18004FF060FDFFF7C2FF0200174B2A
:10C5E000110018004FF058FDFFF7D2FF0200144B66
:10C5F000110018004FF050FDFFF7D2FF0200114B61
:10C60000110018004FF048FD0F4A104B11001800A0
:10C610004FF042FD064B18004FF03EFD034B180053
:10C620004FF03AFDC046BD4680BDC0461CDB06103B
:10C6300020DB0610E0DB0610E8DB06100CDC061041
:10C6400024DC06103CDC061054DC06105CDC061012
:10C6500080B582B000AF78607B68002201211800AD
:10C660000CF096FAC046BD4602B080BD80B582B0DF
:10C6700000AF7860D0231B067A685A61C046BD4679
:10C6800002B080BD80B582B000AF7860D0231B06B9
:10C690007A689A61C046BD4602B080BD80B584B05C
:10C6A00000AF78600A00FB1C1A7001227B689A4078
:10C6B0001300FB60FB1C1B78002B04D0FB681800E8
:10C6C000FFF7D4FF03E0FB681800FFF7DBFFC0466D
:10C6D000BD4604B080BD80B582B000AF7860D02385
:10C6E0001B067A685A62C046BD4602B080BD80B55E
:10C6F00082B000AF7860D0231B067A689A62C04689
:10C70000BD4602B080BD80B584B000AF78600A003D
:10C71000FB1C1A7001227B689A401300FB60FB1C13
:10C720001B78002B04D0FB681800FFF7D4FF03E050
:10C73000FB681800FFF7DBFFC046BD4604B080BDB4
:10C7400080B582B000AF78607B68054A9446634448
:10C750005A425341DBB21800BD4602B080BDC0460C
:10C760000000FCBF80B582B000AF78607B68180025
:10C77000FFF7E6FF7B681800BD4602B080BD80B5BC
:10C7800082B000AF78607B681800FFF7D9FF7B6844
:10C790001800BD4602B080BD80B58EB000AFF86015
:10C7A000B9601900FB1D1A70BB1D0A1C1A70FB68CA
:10C7B0001800FFF7D7FF03005B68022213407B637A
:10C7C000FB681800FFF7CEFF030004337B610223F0
:10C7D0003B617B69C0229201944663443A691A60C6
:10C7E000C046FB681800FFF7BDFF03001900BB68D7
:10C7F0005A1EFB1D1B789B011A43BB1D1B78DB01D6
:10C800001343B9627B62CF233B62BB6A1A687B6ABF
:10C8100053403A6A1340BA6AFA61BB61FB698022ED
:10C82000520194466344BA691A60C046C046FB6828
:10C830001800FFF797FF03000433FB627B6B3B6339
:10C84000FB6A80229201944663443A6B1A60C046A8
:10C85000C046BD460EB080BD80B582B000AF7860E6
:10C860007B681800FFF78BFF0300DB681022134082
:10C870005A1E9341DBB21800BD4602B080BD0000D5
:10C8800080B582B000AF78600A00FB1C1A707B682C
:10C89000074A934201D1122300E01023FA1C1278B8
:10C8A00001214A40D2B29B181800BD4602B080BD9B
:10C8B0000000044080B582B000AF7860C046BD463D
:10C8C00002B080BD80B584B000AF78607B681F2B5C
:10C8D00005D87B685B0807221340FB6005E07B6896
:10C8E0005B08032213400833FB60FB681800BD4659
:10C8F00004B080BD80B582B000AF78607B68012253
:10C9000013401800BD4602B080BD80B582B000AFB4
:10C9100078600A00FB1C1A707B681B680222934334
:10C920001A00FB1C1B78002B01D0022300E000231F
:10C930001A437B681A60C046BD4602B080BD80B510
:10C9400084B000AF786039600423FB600122FB688B
:10C950009A40130018000EF0C7FB031C191CFC20A2
:10C9600080050EF062FB031C191C38680EF058FBA2
:10C97000031C3B600122FB689A40130018000EF074
:10C98000AEFB031C3968181C0EF065FB031C181C59
:10C990000EF0CCFB02007B685A60C046BD4604B076
:10C9A00080BD80B584B000AFF860B960FB1D1A701F
:10C9B000BB681A01FB1D1B781A43FB685A60C0460E
:10C9C000BD4604B080BD80B582B000AF78603960EC
:10C9D00039687B6800221800FFF7E3FFC046BD46B8
:10C9E00002B080BD80B582B000AF78600A00FB1C49
:10C9F0001A707B681B68302293431A00FB1C1B785B
:10CA00001B011A437B681A60C046BD4602B080BD58
:10CA100080B582B000AF786008001100FB1C021CDA
:10CA20001A70BB1C0A1C1A707B681B680C2293438B
:10CA30001900FB1C1B78002B01D0042200E000220F
:10CA4000BB1C1B78002B01D0082300E000231343FC
:10CA50000A001A437B681A60C046BD4602B080BD1A
:10CA600080B582B000AF78600A00BB1C1A80BB1C86
:10CA70001A887B689A60C046BD4602B080BD00003F
:10CA800080B584B000AFF860B960FB1D1A70FB6818
:10CA90001800FFF70FFF2149FA6813009B009B184D
:10CAA0009B0000225A501D49FA6813009B009B18F6
:10CAB0009B00CB18083300221A601849FA6813004B
:10CAC0009B009B189B00CB180C3300221A60134864
:10CAD000BB689968FA6813009B009B189B00C318F9
:10CAE000103319600D48BB685968FA6813009B0041
:10CAF0009B189B00C31804331960BB681A68FB1DA0
:10CB00001B7806481A431100FA6813009B009B1813
:10CB10009B001950C046BD4604B080BD00000540D2
:10CB200090B587B000AF78600C243B1900221A60E2
:10CB30003B1900225A603B1900229A603B190021E0
:10CB40001800FFF7E2FE3B1901211800FFF73BFF39
:10CB50003B1900211800FFF745FF3B190022002177
:10CB60001800FFF755FF074A3B1911001800FFF79F
:10CB700077FF7B683A1913CA13C37868BD4607B0BC
:10CB800090BDC046FFFF000080B58AB000AFF860DE
:10CB9000B960BB1D1A80FB681800FFF78BFEFA68AE
:10CBA00013009B009B189B000C33154A9918BB1D62
:10CBB0001A88BB68002B01D0102300E000239A40A4
:10CBC000BB68002B01D00F4B00E00F4B79623A623B
:10CBD000FB617B6A1A683B6A5340FA6913407A6AC0
:10CBE000BA617B61BB6980225201944663447A69D1
:10CBF0001A60C046C046C046BD460AB080BDC046A9
:10CC0000000005400000FFFFFFFF000090B583B06B
:10CC100000AF78600A00BB1C1A807B681800FFF721
:10CC200051FE04007B681800FFF764FE0100BB1C86
:10CC30001B881A002000FFF7A7FFC046BD4603B0BF
:10CC400090BD000080B588B000AF78600A00FB1C82
:10CC50001A707B681800FFF72DFE7A6813009B009E
:10CC60009B189B000E4A9A18FB1C1B78FA61BB614B
:10CC700001237B61FB691A68BB6953407A691340E1
:10CC8000FA693A61FB603B69802252019446634431
:10CC9000FA681A60C046C046C046BD4608B080BDAE
:10CCA0000000054080B582B000AF7860C046BD4648
:10CCB00002B080BD80B582B000AF78607B6818009C
:10CCC000FFF7F0FF7B689B01A022D20594466344E6
:10CCD0001800BD4602B080BD80B582B000AF78605C
:10CCE0000A00FB1C1A707B681B68102293431A0011
:10CCF000FB1C1B781B0110210B401A437B681A6038
:10CD0000C046BD4602B080BD80B582B000AF78603D
:10CD10000A00FB1C1A707B681B68202293431A00D0
:10CD2000FB1C1B785B0120210B401A437B681A60B7
:10CD3000C046BD4602B080BD80B582B000AF78600D
:10CD40000A00FB1C1A70FB1C1A787B681100180083
:10CD5000FFF7C2FFC046BD4602B080BD80B582B0BD
:10CD600000AF78600A00FB1C1A70FB1C1A787B6805
:10CD700011001800FFF7C8FFC046BD4602B080BDD5
:10CD800080B582B000AF786039603B683F2B06D930
:10CD9000094B0A4A1C21FF31094810F087F87B68CB
:10CDA0001B68084A1A403B68DB031A437B681A6019
:10CDB000C046BD4602B080BD74DC061054DE0610CD
:10CDC00088DC0610FF7FE0FF80B582B000AF78609E
:10CDD00039603B680C2B06D9094B0A4A2A21FF31DE
:10CDE000094810F063F87B681B68084A1A403B68E2
:10CDF000DB021A437B681A60C046BD4602B080BDA4
:10CE0000E0DC0610F8DD061088DC0610FF87FFFF67
:10CE100080B582B000AF78600A00FB1C1A70FB1C62
:10CE20001B78002B0ED0FB1C1B78012B0AD0FB1C9F
:10CE30001B78022B06D00B4B0B4A3821FF310B48D5
:10CE400010F034F87B681B680C2293431A00FB1C1B
:10CE50001B789B001A437B681A60C046BD4602B02F
:10CE600080BDC04600DD06102CDE061088DC0610F2
:10CE700080B584B000AFF8607A600B23FB180A1C01
:10CE80001A707B681F2B06D90E4B0F4A4C21FF31BD
:10CE90000E4810F00BF8FB681B680D4A1A407B68BF
:10CEA0009B011A430B23FB181B78002B02D0802315
:10CEB000DB0000E000231A43FB681A60C046BD4651
:10CEC00004B080BD44DD061014DE061088DC0610B8
:10CED0003FF8FFFF80B582B000AF78600A00FB1C0E
:10CEE0001A70FB1C1B78002B05D07B681B68802206
:10CEF000D2031A4303E07B681B68044A1A407B682C
:10CF00001A60C046BD4602B080BDC046FFFFBFFFED
:10CF100080B582B000AF78600A00FB1C1A70FB1C61
:10CF20001B78002B05D07B681B68802292031A4374
:10CF300003E07B681B68044A1A407B681A60C0469D
:10CF4000BD4602B080BDC046FFFFDFFF80B582B0A6
:10CF500000AF78600A00FB1C1A70FB1C1B78002BCA
:10CF600004D07B681B6802221A4304E07B681B68BC
:10CF7000022293431A007B681A60C046BD4602B085
:10CF800080BD80B582B000AF78600A00FB1C1A70CB
:10CF9000FB1C1B78002B04D07B681B6801221A4302
:10CFA00004E07B681B68012293431A007B681A60C7
:10CFB000C046BD4602B080BD80B582B000AF78608B
:10CFC0000A00FB1C1A70FB1C1B78002B05D07B6829
:10CFD0001B68802212041A4303E07B681B68044A22
:10CFE0001A407B681A60C046BD4602B080BDC0468C
:10CFF000FFFF7FFF90B585B000AF78600023FB6036
:10D000000C243B1901211800FFF796FE3B19002163
:10D010001800FFF7A3FE3B193F211800FFF7B0FEF1
:10D020007A683B1911001800FFF7CEFE3B19022168
:10D030001800FFF7EDFE3B19002200211800FFF752
:10D0400017FF3B1900211800FFF744FF3B1900218F
:10D050001800FFF75DFF3B1901211800FFF791FF52
:10D060003B1900211800FFF7A7FF3B19002118000A
:10D07000FFF76CFFFB681800BD4605B090BD80B59A
:10D0800082B000AF78607B681B681800BD4602B0B4
:10D0900080BD90B585B000AFF860B960FB1D1A7017
:10D0A000FB1D1B7801225340DBB2002B0BD0FB6829
:10D0B0001800FFF7FFFD0400BB681800FFF7DFFF53
:10D0C000030023610AE0FB681800FFF7F3FD04008A
:10D0D000BB681800FFF7D3FF0300E360C046BD46FE
:10D0E00005B090BD80B584B000AFF860B960FB1D9D
:10D0F0001A70FB1D1B7801225340DBB2002B07D0B6
:10D10000FB681800FFF7D6FD0300BA681A6006E056
:10D11000FB681800FFF7CEFD0300BA68DA63C0466B
:10D12000BD4604B080BD80B584B000AFF860B96082
:10D13000FB1D1A70FB1D1B7801225340DBB2002B34
:10D1400007D0FB681800FFF7B5FD0300BA685A6006
:10D1500006E0FB681800FFF7ADFD0300BA68DA626D
:10D16000C046BD4604B080BD80B584B000AFF86055
:10D17000B960FB1D1A70FB1D1B7801225340DBB206
:10D18000002B07D0FB681800FFF794FD0300BA6876
:10D190009A6006E0FB681800FFF78CFD0300BA6890
:10D1A000DA61C046BD4604B080BD80B584B000AF32
:10D1B000F860B960FB1D1A70FB1D1A78B968FB682E
:10D1C0001800FFF7D1FFC046BD4604B080BD80B552
:10D1D00082B000AF78607B681800FFF763FDA02382
:10D1E000DA057B689B01D31810331A6880235B042F
:10D1F00013405A1E9341DBB21800BD4602B080BDF9
:10D2000080B582B000AF786000E0C0467B6818004F
:10D21000FFF7DDFF031EF8D1C046C046BD4602B091
:10D2200080BD000080B500AF104B1B68002B05D1FE
:10D23000012051F0A7FE02000C4B1A600C4B1B683A
:10D24000002B05D1012051F09DFE0200084B1A6011
:10D25000084B1B68002B05D1012051F093FE020002
:10D26000044B1A60C046BD4680BDC04670CF022048
:10D270008C9E0220949E022090B585B000AF78600D
:10D280002D4B1B78002B53D17B682C4A19001000C2
:10D290000CF0E6F9012112200BF042FC01211320D1
:10D2A0000BF03EFC012110200BF03AFC01200CF0A9
:10D2B0003FFD0200224B1A60214B1B681800FFF74C
:10D2C00099FE0300FB600C243B1900211800FFF7B6
:10D2D0009FFD1A4B01211800FFF7D2FA02003B19FB
:10D2E00011001800FFF74CFD3B1901211800FFF752
:10D2F00023FD3B1900211800FFF730FD104B1B6880
:10D3000018003B1900221900FFF7C3FE0C4B1B68E5
:10D310001C000A4B1800FFF725FA0300083300220F
:10D3200019002000FFF7FFFE034B01221A7000E0F6
:10D33000C046BD4605B090BD9CDB022000C0034046
:10D34000AC1D002080B500AF0F4B1B68002B01D136
:10D35000002316E00C4B1B68FA2292001100180003
:10D3600051F0F4FF0300012B01D1012309E000205B
:10D3700053F024F90200054B110018004EF08CFE0A
:10D3800000231800BD4680BD70CF022054DD06107A
:10D3900080B500AF064B1B68002B06D0044B186805
:10D3A00000230022002151F01BFDC046BD4680BD78
:10D3B00070CF022080B582B000AF0200FB1D1A7052
:10D3C000FB1D0448012219005EF076FEC046BD46F2
:10D3D00002B080BD00C0034090B585B000AF020030
:10D3E000FB1D1A700F243A19FB1D197804480123FC
:10D3F0005EF022FE3B191B781800BD4605B090BDBB
:10D4000000C00340B0B584B000AF78603960314BE4
:10D410001B68002B53DB3B681F2B50D92D4B1B681F
:10D4200018007B6800221900FFF75CFE294B1B687F
:10D4300018003B6801221900FFF7B7FE264B1800C1
:10D440000CF0F8F90300FB60FB68002B29D03A6868
:10D4500013005B019B1A9B009B189B01F968180045
:10D460000CF07EFE0300BB60BB68012B19D9BB68C2
:10D470001C0000231D00FA22920000232000290036
:10D480000DF0ACFD02000B0010001900FA22920012
:10D4900000230CF0A3FE02000B001300180053F051
:10D4A0008DFA0C4B1B681800FFF7AAFE00E0C0467F
:10D4B000094B1800FFF7D0F9031EF8D106E03A68CF
:10D4C0007B68054819005EF0F7FDC046C046BD46C2
:10D4D00004B0B0BDAC1D002000C0034090B585B0C5
:10D4E00000AFB9607A600F217B18021C1A7078684F
:10D4F000BA687B181978044C030020005EF09CFD8C
:10D50000C046BD4605B090BD00C0034080B582B0A6
:10D5100000AF78607B68054A190010000CF0E4F851
:10D5200003001800BD4602B080BDC04600C00340E5
:10D5300090B587B002AF040008001100FB1D221C4B
:10D540001A70BB1D021C1A707B1D0A1C1A70BB1DB1
:10D550001B785A1E9341DAB20F243B191A707B1DB7
:10D560001B785A1E9341DAB20E203B181A70FB1D2D
:10D5700019783B1818783B191A78054C0123009349
:10D5800003002000FFF708F9C046BD4605B090BD76
:10D5900000C0034080B584B000AFF860B9607A6025
:10D5A0003B603B681B78002B1BD1BA69FB681100FC
:10D5B000180008F017FCBB68032118000BF0B0FA44
:10D5C0007B68032118000BF0ABFABB681800FFF76B
:10D5D0003FF87B681800FFF73BF83B6801221A70A0
:10D5E00000E0C046BD4604B080BD000080B584B0F8
:10D5F00002AF7860064A07487B6800931300152243
:10D600001421FFF7C7FFC046BD4602B080BDC0462B
:10D6100077DB0220B41D002090B589B002AFB9605D
:10D620007A6019000F23FB18021C1A700E23FB18D6
:10D630000A1C1A70194B1B68002B02D0BB68002B08
:10D6400002D101235B4224E0144B1B68FA229200B2
:10D650001100180051F07AFE0300012B02D00123C3
:10D660005B4216E07C68BA680F23FB1819780C48F7
:10D670000E23FB181B780093230008F0B2FD030073
:10D680007B61064B186800230022002151F0A8FBA3
:10D690007B691800BD4607B090BDC0468C9E022035
:10D6A000B41D002090B589B002AFB9607A6019004E
:10D6B0000F23FB18021C1A700E23FB180A1C1A7089
:10D6C000194B1B68002B02D0BB68002B02D1012331
:10D6D0005B4224E0144B1B68FA22920011001800F0
:10D6E00051F034FE0300012B02D001235B4216E00F
:10D6F0007C68BA680F23FB1819780C480E23FB18B6
:10D700001B780093230008F067FE03007B61064B43
:10D71000186800230022002151F062FB7B69180089
:10D72000BD4607B090BDC0468C9E0220B41D0020AF
:10D7300090B589B002AFB9607A603B600F23FB18E7
:10D74000021C1A70264B1B68002B05D0BB68002BEF
:10D7500002D03B68002B02D101235B423CE0204B0E
:10D760001B68FA2292001100180051F0EFFD03002F
:10D77000012B02D001235B422EE07C68BA680F23A4
:10D78000FB181978174801230093230008F029FD9E
:10D7900003007B617B69002B09DA114B18680023B9
:10D7A0000022002151F01CFB01235B4214E0BC6A03
:10D7B0003A680F23FB1819780A48002300932300C6
:10D7C00008F00AFE03003B61054B186800230022A5
:10D7D000002151F005FB3B691800BD4607B090BD24
:10D7E0008C9E0220B41D002080B582B000AF78600E
:10D7F0007B6818000BF052FB7B6801211800FEF7D4
:10D8000082FFC046BD4602B080BD80B582B000AF89
:10D8100078607B6818000BF041FB7B6800211800E2
:10D82000FEF771FF7B681800FEF712FFC046BD4689
:10D8300002B080BD80B582B000AF78600A00FB1CEA
:10D840001A70FB1C1A787B6811001800FEF726FF7F
:10D85000C046BD4602B080BD80B500AF0121192091
:10D86000FEF71CFFC046BD4680BD80B500AF00215D
:10D870001920FEF713FFC046BD4680BD80B500AF3E
:10D88000C046BD4680BD80B582B000AF78607A6882
:10D890001C21002391425B41DBB21800BD4602B05F
:10D8A00080BD000090B58BB000AFF8607A600A23AD
:10D8B000FB180A1C1A80FB681800FFF7E4FF03003E
:10D8C0001A0001235340DBB2002B01D0002377E084
:10D8D000FB681800FEF7F6FF03007B623A4B1B78EB
:10D8E0001A007B6A1A4123203B181A701A7801210A
:10D8F0000A401A703B181B7801225340DBB2002B00
:10D9000055D07B68002B02D1FA239B007B60052059
:10D910000BF052F8030018000DF0E1FB041C7868CE
:10D920000DF0DDFB031C8F21C905181C0DF093FBC6
:10D93000031C191C201C0DF078FB031CFB61102438
:10D940003B191800FFF7ECF8FA693B19111C180095
:10D95000FEF7F5FF1D4A3B1911001800FFF780F88C
:10D9600039197B6A00221800FFF78AF80A23FB188E
:10D970001A88FB6811001800FFF748F97B6A01213B
:10D980001800FFF75FF9FB68042118000BF0C8F8D6
:10D9900001227B6A9A4013005AB20B4B1B785BB290
:10D9A00013435BB2DAB2084B1A70012308E00A2372
:10D9B000FB181A88FB6811001800FFF727F90123EC
:10D9C0001800BD460BB090BD80DB0220FFFF0000B9
:10D9D00080B584B000AF78600A00BB1C1A807B68F9
:10D9E0001800FFF750FF03001A0001235340DBB279
:10D9F000002B01D0002320E07B681800FEF762FFB7
:10DA00000300FB600F4B1B781A00FB681A411300E0
:10DA10000122134009D1FA239A00BB1C19887B68A4
:10DA20001800FFF73FFF030007E0BB1C1A887B6864
:10DA300011001800FFF7EAF801231800BD4604B0F2
:10DA400080BDC04680DB022080B584B000AF786026
:10DA50000A00FB1C1A70FB1C1B78642B02D9FB1CF0
:10DA600064221A70FB1C1A7813001B049B1A642191
:10DA700018000CF075FB03001A000E217B181A80A9
:10DA80007B181A887B6811001800FFF7A1FF0300BC
:10DA90001800BD4604B080BD80B500AF0F4B180024
:10DAA000FFF7EAFB1120FFF79FFE01211120FEF78F
:10DAB000F5FD0220FFF798FE0320FFF795FE642195
:10DAC0000720FFF7C1FF01210220FEF7E7FD00213B
:10DAD0000320FEF7E3FDC046BD4680BDA0ACB90300
