:020000041000EA
:1080000000B5324B2120586098680221884398605F
:10801000D860186158612E4B002199600221596186
:108020000121F02299502B491960012199603520D6
:1080300000F044F80222904214D00621196600F0A4
:1080400034F8196E01211966002018661A6600F0CE
:108050002CF8196E196E196E052000F02FF8012109
:108060000842F9D1002199601B491960002159602B
:108070001A491B48016001219960EB211966A02172
:10808000196600F012F80021996016491448016041
:108090000121996001BC002800D000471248134913
:1080A000086003C880F30888084703B5996A04206C
:1080B0000142FBD001200142F8D103BD02B5186690
:1080C0001866FFF7F2FF186E186E02BD000002403E
:1080D000000000180000070000035F0021220000DC
:1080E000F4000018222000A00001001008ED00E0BC
:1080F00000000000000000000000000074B24E7A92
:1081000000200420F7810010CB810010CD810010E9
:10811000C9810010C9810010C9810010C9810010F7
:10812000C9810010C9810010C98100108122061088
:10813000C9810010C9810010B52206107F240610E5
:10814000C1810010C1810010C1810010C1810010E7
:10815000C1810010C1810010C1810010C1810010D7
:10816000C1810010C1810010C1810010C1810010C7
:10817000C1810010C1810010C1810010C1810010B7
:10818000C1810010C1810010C1810010C1810010A7
:10819000C1810010C1810010C1810010C181001097
:1081A000C1810010C1810010C1810010C181001087
:1081B000C1810010C1810010C1810010C181001077
:1081C000EFF30580103800BE00BE00BE00BE00BE4A
:1081D00000BE00BEF2EB88710C740E1030740E10ED
:1081E0003882001090A31AE71E481F49086006C88D
:1081F00081F3088810471D480068002801D01948FD
:10820000F3E70DA40ECC002902D000F012F8F9E734
:108210001749184A002000E001C19142FCD11649DB
:108220008847164988471649884700BEFDE701C9B7
:1082300001C29A42FBD3704730740E10C000002078
:1082400050260020C0990E100000042000000420D9
:10825000C0990E100010042000100420000000003F
:10826000704700000000000008ED00E0000000D0B2
:1082700050260020284402201D9D0110B5830010C7
:10828000C19C0110F8B5C04606480749091A8B1071
:10829000C90FC91810B5491003D0044B002B00D0EA
:1082A000984710BD502600205026002000000000F6
:1082B000054B10B5002B03D00449054800E000BF72
:1082C000FFF7E2FF10BDC04600000000743A012035
:1082D00010F7061080B582B000AF7860D0231B067F
:1082E0007A685A61C046BD4602B080BD80B582B092
:1082F00000AF7860D0231B067A689A61C046BD46FD
:1083000002B080BD80B584B000AF78600A00FB1C6D
:108310001A7001227B689A401300FB60FB1C1B78DB
:10832000002B04D0FB681800FFF7D4FF03E0FB68C4
:108330001800FFF7DBFFC046BD4604B080BD80B526
:1083400082B000AF7860D0231B067A685A62C046BC
:10835000BD4602B080BD80B582B000AF7860D0234A
:108360001B067A689A62C046BD4602B080BD80B5E1
:1083700084B000AF78600A00FB1C1A7001227B6891
:108380009A401300FB60FB1C1B78002B04D0FB6899
:108390001800FFF7D4FF03E0FB681800FFF7DBFFCE
:1083A000C046BD4604B080BD80B500AFC046BD46E6
:1083B00080BD000080B500AF0021002016F044FD14
:1083C00006200DF025FD01210620FFF7D0FF012139
:1083D0000620FFF797FF114B180011F0BEFEFFF7C4
:1083E000E3FF0F4B180011F0B8FE05F04FFB45F00E
:1083F000FDFD5CF02DFB0B4B180011F0AEFE0121D2
:10840000062049F093FB32200BF0C1FF002106202B
:1084100049F08CFB32200BF0BAFFF0E710F70610A2
:108420002CF706104CF7061080B500AF034B1B6805
:108430005A1C024B1A60C046BD4680BD9C0B0120F1
:1084400080B582B000AF786039600F4B180011F032
:1084500084FE7A680D4B1100180011F0C3FE3B68D2
:10846000002B06D03A680A4B1100180011F0BAFE32
:1084700003E0084B180011F070FE074B180011F0D4
:108480006CFE72B6FEE7C04668F706108CF7061061
:10849000A0F70610B0F70610C4F7061080B500AFBD
:1084A000014B1800BD4680BD10F9061080B582B0A2
:1084B00000AF0200FB1D1A70024B1800BD4602B04F
:1084C00080BDC04624F9061080B588B000AF020018
:1084D000FB1D1A703B1D0A1C1A80FB1D1B78002B0C
:1084E00002D0032B0AD02DE0384B1968384B0222FA
:1084F00018000FF00DFF0123FB6156E0354B1121F1
:10850000180017F0F3FD334B180060F021FE030054
:10851000FB61FB691F2B01D91F23FB610023BB619A
:108520000BE02C4ABB69D3181978BB695A1C2A4B3B
:108530005200D152BB690133BB61BA69FB699A42EF
:10854000EFD332E0FB1D1B78052B01D9002339E066
:10855000FB1D1A781D4B9200D3583B613B69002BE1
:1085600001D100232EE03B69180060F0F1FD03000B
:10857000FB612023FB60FA69FB689A4201D9FB6822
:10858000FB6100237B610BE03A697B69D3181978A2
:108590007B695A1C104B5200D1527B6901337B61BD
:1085A0007A69FB699A42EFD3C046FB699BB20133FB
:1085B0009BB2DB189BB2C022920013439AB2064BC7
:1085C0001A80054B1800BD4608B080BD781D0020FC
:1085D00016D5002068B1012014D5002080B584B0E4
:1085E00000AFF860B9607A60FB68064A1A60BB6841
:1085F000054A1A607B68802292001A60C046BD4618
:1086000004B080BD30640020CC28022080B584B046
:1086100000AFF860B9607A60FB68064A1A60BB6810
:10862000054A1A607B68C02292001A60C046BD46A7
:1086300004B080BDE0650020CC30022090B585B04C
:1086400000AF634B180056F009FE04F0F7FF05F089
:10865000C1F847F0C3F80F243B1902221A7007F043
:10866000F1FD031E12D05B4B180056F0F7FD3C19CC
:1086700048F0C0F90300237008F072FF46F002F9D9
:10868000031E03D0544B180056F0E8FD0F243B198D
:108690001B78002B08D0514B180056F0DFFD3C1919
:1086A00047F06CF8030023700F23FB181B78002B96
:1086B0000DD147F00DF80300BB60BB68D91DBB6846
:1086C00017331A00464B180056F0C8FD07E00F2379
:1086D000FB181A78434B1100180056F0BFFD46F006
:1086E000F7FF03007B6007F0A1F87B688E229B5C9C
:1086F000002B0AD005F044FA031E03D03A4B0122A6
:108700001A7102E0384B02221A717B688D229B5C41
:10871000002B09D005F082FC334B0122DA70334B79
:1087200019000D2045F08EFC7B688A229B5C002B93
:1087300009D000F049FC2C4B01221A702C4B190077
:108740000B2045F07FFC45F01BFE0200294B1A6010
:10875000284B1B68002B12D005F068FE02F0B2FF18
:108760007B688B229B5C002B09D04DF0CFFB1E4B0E
:1087700001225A70204B19000E2045F063FC7B68E3
:108780008C229B5C002B09D003F0B4FF164B012216
:108790009A701A4B19000C2045F054FC7B688F220C
:1087A0009B5C002B0BD005F075FE08F0F5FE0E4B20
:1087B00001225A71124B1900042045F043FC114B61
:1087C000180056F04BFDC046BD4605B090BDC046F2
:1087D00010FA061038FA061064FA061088FA061025
:1087E000C0FA0610ECFA0610A072012020FB061059
:1087F000CCF906104C3C01202CFB0610E8F90610C1
:1088000008FA061034FB061080B582B000AF0200F3
:10881000FB1D1A70FB1D1B78052B08D9FB1D1A7850
:10882000424B1100180056F019FD00237AE0FB1DA1
:108830001B783F4AD35C012B0BD1FB1D1A783D4BB3
:108840009200D2583C4B1100180056F007FD00234F
:1088500068E0FB1D1A78374B9200D258374B110055
:10886000180056F0FBFCFB1D1B78052B52D89A0014
:10887000334BD3181B689F4600F0A6FB2C4B0122FC
:108880001A70304B19000B2045F0DCFB012349E046
:108890004DF03CFB264B01225A702B4B19000E2049
:1088A00045F0D0FB01233DE003F024FF204B0122E3
:1088B0009A70264B19000C2045F0C4FB012331E0CF
:1088C00005F0ACFB1A4B0122DA70214B19000D2088
:1088D00045F0B8FB012325E005F052F9031E09D04D
:1088E000134B01221A711B4B19000F2045F0AAFBF4
:1088F000012317E0002315E005F0CCFD08F04CFE45
:108900000B4B01225A71144B1900042045F09AFBBD
:10891000012307E0FB1D1A78104B1100180056F0D8
:108920009DFC00231800BD4602B080BD60FB061010
:10893000A0720120901D002084FB0610A4FB0610ED
:10894000C4FE0610CCF906102CFB0610E8F9061040
:1089500020FB0610FCF9061008FA0610C0FB0610F2
:1089600080B582B000AF0200FB1D1A70FB1D1B78A2
:10897000052B01D900230AE0FB1D1A78064B920053
:10898000D258064B1100180056F068FC002318005E
:10899000BD4602B080BDC046901D0020E0FB061021
:1089A00080B582B000AF0200FB1D1A70FB1D1B7862
:1089B000052B01D9022303E0FB1D1B78024AD35C7F
:1089C0001800BD4602B080BDA072012080B582B003
:1089D00000AF0200FB1D1A70FB1D1B78052B01D98F
:1089E000054B04E0FB1D1A78044B9200D358180085
:1089F000BD4602B080BDC04608FC0610901D002098
:108A0000B0B58CB000AF46F063FE0300BB624A4BCA
:108A1000180056F023FC494B180056F01FFC484B39
:108A2000180056F01BFC454B180056F017FC454B40
:108A3000180056F013FC444B180056F00FFCBB6AAC
:108A40008A229B5C002B01D0404A00E0404A102360
:108A5000FB181A60BB6A8B229B5C002B01D03B4A3F
:108A600000E03B4A1023FB185A60BB6A8C229B5CD7
:108A7000002B01D0354A00E0354A1023FB189A60DC
:108A8000BB6A8D229B5C002B01D0304A00E0304A4B
:108A90001023FB18DA60BB6A8E229B5C002B01D08E
:108AA0002A4A00E02A4A1023FB181A61BB6A8F2267
:108AB0009B5C002B01D0254A00E0254A1023FB18BF
:108AC0005A613B1D234A13CA13C32F23FB180022EC
:108AD0001A701CE02F257B191A781F4B9200D15871
:108AE0007B191A781023FB189200D4587B191B7835
:108AF0001A4AD35C1A003B1D9200D3581848220032
:108B000056F0ACFB7B191A787B1901321A702F23AF
:108B1000FB181B78052BDDD9084B180056F09EFB7F
:108B2000104B180056F09AFB0F4B180056F096FBAE
:108B3000C046BD460CB0B0BD10FC061014FC0610BB
:108B4000D4FC061018FD06104CFD06100CFE061095
:108B500018FE0610B8FE0610901D0020A07201201D
:108B600024FE061038FE061064FE0610B0B582B072
:108B700000AF78607B681C0000231D00FA22920081
:108B80000023200029000FF0A5F902000B001000BF
:108B90001900FA22920000230EF09CFA02000B004A
:108BA000130018005CF0F6F9C046BD4602B0B0BD37
:108BB000F0B58FB002AF7860DF4B180056F04EFB77
:108BC00058F056F8DD4B180056F048FBDC4B190006
:108BD00001205AF05FFC0200DA4B1A60D94B1B6887
:108BE000002B0BD1D84B180056F038FBD74B180090
:108BF00056F034FB00205BF0ABFC99E1D44B18003D
:108C000056F02CFB58F008F869205CF0C3F9D14B02
:108C1000180056F023FB32205CF0BCF9CE4B180054
:108C200056F01CFB28F008FACC4B180056F016FB47
:108C3000CB4B180030F0F6FFCA4B180056F00EFB75
:108C4000A0235A00C84BF021180056F007FBC74A72
:108C5000A0235900C64B009313000322F02025F0F7
:108C600029FB0200C34B1A60C24B1B68002B10D1BA
:108C7000C14B180056F0F2FAB44B180056F0EEFA59
:108C8000B04B1B6818005BF037F900205BF060FC0C
:108C90004EE1BA4B180056F0E1FAB64B1B680021C2
:108CA000180021F076FAB64B180056F0D7FA962342
:108CB0005A01B44B1100180056F0D0FAAD4B1868A9
:108CC00096235B01B04900220092002220F0E2FCD2
:108CD000AE4B180056F0C2FAAD4B180056F0BEFA73
:108CE00018F04CF8AB4B180056F0B8FA00F004FB43
:108CF000002057F0A9FF58F0EBF89E4B1B681800B6
:108D000020F0E9FB03007B627A6AA34B1100180094
:108D100056F0A4FA04E02CF0EBFB05205CF03AF9E5
:108D200058F0D0F802007B6A9A42F4D364205CF0D9
:108D300031F958F0C7F80200984B1100180056F0AE
:108D40008DFA974B180056F089FA2F23FB18002252
:108D50001A700DE02F26BB191B78180057F074FF0E
:108D60001E205CF017F9BB19BA19127805321A7077
:108D70002F23FB181B78642BECD9642057F064FF79
:108D8000884B180056F06AFA874B180056F066FABE
:108D90005BF0BAFE0300BB605BF0B6FE0200834BE3
:108DA0001A60824B1A68824B1A605BF0ADFE0300BA
:108DB0003B62804B1B683A6AD21AFA239B009A42A4
:108DC00006D37C4B3A6A1A607B4B180045F05CFD79
:108DD00001210B2045F094FA5BF096FE0300FB6145
:108DE00046F076FC0200CA235B00D358BB61704B8F
:108DF0001B68FA69D31ABA699A4214D86C4BFA699B
:108E00001A60504B1B680A2118005AF02BFD030012
:108E1000012B08D100F09CFA4A4B1868002300226D
:108E200000215AF065FA474B1B68FA2252001100E4
:108E300018005AF017FD0300012B03D00A205CF044
:108E4000A9F874E05BF060FE03007B615B4B1B687C
:108E5000002B0BD0594B1B687A69D31A3B613B69D5
:108E6000002B03D03B69180030F088FE534B7A6921
:108E70001A6046F02DFC0200C4235B00D358FA228E
:108E8000910018000EF0E8F80300FB604C4B1B78D3
:108E9000002B07D14B4B1B68FA689A4202D8484B0B
:108EA00001221A702CF024FB0300BB625BF02CFE45
:108EB00002003E4B1B68D31AFA22910018000EF0F4
:108EC000CBF803001A003F4B1A601E4B18680023B2
:108ED000002200215AF00CFABB6A642B06D946F036
:108EE000F7FB0200C2235B00D358BB62BB6A042BB2
:108EF00001D80523BB62BB6A1C0000231D00FA22B7
:108F000092000023200029000EF0E4FF02000B0075
:108F100010001900FA22920000230EF0DBF8020084
:108F20000B000823FB18110018005BF0DBFF3CE787
:108F3000BD460DB0F0BDC046DCFE061014FF0610A5
:108F4000142A0120102A01202CFF061058FF0610B9
:108F500088FF0610B0FF0610C8FF0610ECFF0610D1
:108F60006D8B0010040007102C0007109D0C0610DC
:108F7000290D061028100120600007108800071036
:108F8000B4000710EC000710602600202001071035
:108F9000440107106001071078010710B0010710A5
:108FA000E4010710040207103802071084B2012000
:108FB000CC0F012070D500206C020710F80F0120A3
:108FC0001344022008EE002080B584B004AF0E4B9D
:108FD0001B68002B04D00D4B180056F03FF910E031
:108FE000C023DB001A000A490A480B4B02930B4BC3
:108FF00001930123009300235BF056FA0200024B19
:109000001A60BD4680BDC0462C10012070020710BA
:109010008C020710B18B001020500020301001206E
:1090200080B582B000AF002000F058F846F050FB49
:1090300003007B60114B1B68002B08D00F4B1A6894
:109040007B68C233FF331900100036F033F97B68B8
:10905000C233FF3319000A4B0B2218005EF0D8FD13
:10906000084B382200219954064B0022DA63054B45
:1090700000221A72C046BD4602B080BDD8670020EB
:109080005DCC012030CC012080B582B000AF020061
:10909000FB1D1A70BB1D0A1C1A70BB1D1B78002B10
:1090A00001D0032316E0FB1D1B78042B0FD010DC2E
:1090B000032B0EDC022B06DA002B02D0012B04D08E
:1090C00007E0002306E0012304E0022302E004237A
:1090D00000E000231800BD4602B080BD80B584B01A
:1090E00000AF0200FB1D1A70FB1D1B78042B22D859
:1090F00046F0EEFA0300FB60FB1D1B785B01F133C9
:10910000FF33FA68D3180433BB600D4B1B68002B88
:1091100012D0BB681B78002B06D0094B1B680121BD
:10912000180018F027FA07E0054B1B68012118000A
:1091300018F0B5FC00E0C046BD4604B080BDC04696
:10914000D867002090B585B000AF46F0C1FA0300A3
:10915000FB60FA68F2235B00D258604B1B689A42AE
:109160001FD1FA68F4235B00D2585D4B1B689A420A
:1091700017D1FA68F6235B00D25C5A4B1B789A42EF
:109180000FD1FA68EE23FF33D25C574B1B789A421B
:1091900007D1FA68F8235B00D258544B1B689A42F7
:1091A00001D0012200E000220B203B181A701A782F
:1091B00001210A401A703B181B7801225340DBB290
:1091C000002B00D085E04A4B1B68002B62D0484B37
:1091D0001C68FA68F2235B00D358180029F0ABFE34
:1091E00003001A003B1D111C19701104090E59705F
:1091F0001202120E9A703B1D0022196820001DF009
:1092000041FF3B4B1B680022FF2118001DF04CFF63
:10921000374B1C68FA68F4235B00D358180029F018
:109220008AFE03001A0008203B18111C1970110453
:10923000090E59701202120E9A703B18002219681A
:1092400020001DF03BFF2A4B1868FA68F6235B00EC
:10925000D35C002219001DF04DFF254B1868FA68F9
:10926000EE23FF33D35C002219001DF04DFF204B8D
:109270001B680022012118001DF032FFFA68F2235A
:109280005B00D158FA68F4235B00D258194B1800E0
:1092900055F0E4FFFA68F2235B00D2580F4B1A60D6
:1092A000FA68F4235B00D2580D4B1A60FA68F62373
:1092B0005B00D25C0B4B1A70FA68EE23FF33D25C72
:1092C000094B1A70FA68F8235B00D258074B1A60F2
:1092D00000E0C046BD4605B090BDC046B41D0020AC
:1092E000B81D0020C01D0020C11D0020BC1D002095
:1092F000B0670020AC02071080B582B000AF46F026
:10930000E7F903007B600F4B180055F0A7FFFFF74C
:1093100019FF0D4B1B68002B08D00B4B1A687B689C
:10932000A233FF331900100035F0C4FF0020FFF70F
:10933000D5FE064B180055F091FFC046BD4602B061
:1093400080BDC046F0020710D86700202003071038
:10935000F0B5CBB002AFFFF7F5FE46F0B9F9030068
:10936000F42108200A18D21913608A4B00229A7738
:109370000B18DB191B688A229B5C002B10D0002085
:10938000FFF70EFB0300012B0AD0824B9B7F5A1C78
:10939000D1B2804A91771A007E4B9B180022DA776F
:1093A000F42308229B18DB191B688B229B5C002B83
:1093B00010D00120FFF7F4FA0300012B0AD0754BFF
:1093C0009B7F5A1CD1B2734A91771A00714B9B183C
:1093D0000122DA77F42308229B18DB191B688C2200
:1093E0009B5C002B10D00220FFF7DAFA0300012B60
:1093F0000AD0684B9B7F5A1CD1B2664A91771A00FB
:10940000644B9B180222DA77F42308229B18DB199D
:109410001B688D229B5C002B10D00320FFF7C0FA45
:109420000300012B0AD05B4B9B7F5A1CD1B2594AD7
:1094300091771A00574B9B180322DA77F4230822FE
:109440009B18DB191B688E229B5C002B10D004201C
:10945000FFF7A6FA0300012B0AD04E4B9B7F5A1C44
:10946000D1B24C4A91771A004A4B9B180422DA7702
:10947000F42308229B18DB191B688F229B5C002BAE
:1094800010D00520FFF78CFA0300012B0AD0414BC6
:109490009B7F5A1CD1B23F4A91771A003D4B9B18D3
:1094A0000522DA773B4B9B7F5A1E9341DAB2394B48
:1094B0005A774BF06FF80300F02208215218D219A6
:1094C0001360EF235B18DE1949F090FF030033703F
:1094D000EE2208201318DE1949F07CFF03003370D8
:1094E000ED2208201318DE194AF0BCF8030033708F
:1094F00055F0F2FD0300E82208201118C9190B608D
:109500001318D9190B68002B0ED001005318DA1963
:1095100013681B7D002B07D0EF235B18DB191B782A
:10952000002B01D1012200E00022E72308201B18B4
:10953000DB191A701A7801210A401A70EF221318E9
:10954000DB191B78012B04D01318DB191B78032BB4
:1095500001D1012200E00022E62308201B18DB19BC
:109560001A701A7801210A401A70EF231B18DB19B0
:109570001B78012B10D1F0231B18DB191B68002B63
:1095800005D1ED231B18DB191B78002B04D0012219
:1095900003E0C04630CC01200022E52308201B1840
:1095A000DB191A701A7801210A401A70EF231B1870
:1095B000DB191B78012B0AD1F0221318DB191B6869
:1095C000002B04D0CC4B1218D2191268DA63E423B2
:1095D00008269B19DE1903F031F9030033705BF0A4
:1095E00093FA0300E02108268A19D2191360E620B5
:1095F0008319DB191A78C14B1A70C14B1B688A1981
:10960000D2191268D21AFA239B009A4224D9BC4B71
:109610008A19D21912681A60E4239B19DB191B7886
:10962000002B19D08319DB191978B64B1A68B64B81
:10963000180055F013FEB34B1B68002B0CD0B14B38
:109640001B680121180018F001F803001A00AF4B45
:109650001100180055F002FEA74B5B7A002B17D0C3
:10966000E42308215B18DB191B7801225340DBB28D
:10967000002B0DD0A04BE0225218D2191268DA60EC
:109680009D4B01221A7402F079FE02009A4B5A6136
:10969000994BE42108268A19D21912785A72964BEE
:1096A0001B7C002B31D08B19DB191B780122534016
:1096B000DBB2002B29D0904BDB68E0229219D21943
:1096C0001268D31A3B6000237B60FA2292000023C9
:1096D000386879680EF0FEFB02000B0010001900DC
:1096E000FA22920000230DF0F5FC02000B0013009B
:1096F000DC229119C9190B609319DB191B68844A84
:10970000934202D97C4B00221A747B4B1B780122B6
:109710005340DBB2002B10D0E62308229B18DB1944
:109720001B78002B09D0744B00221A74724B002254
:109730001A72714B4022012199546F4B1B78002BF8
:1097400012D0E62308215B18DB191B780122534055
:10975000DBB2002B08D0684BE0225218D2191268F5
:109760005A60654B01221A72634BE62108268A195A
:10977000D21912781A70604B1B7A002B24D08B19E7
:10978000DB191B7801225340DBB2002B1CD045F0C3
:109790009FFF0200C6235B00D358D8218A19D21933
:1097A0001360554B5B68E0229219D2191268D31AE4
:1097B0008A19D21912689A4206D8FFF731FC0020A4
:1097C000FFF78CFC01F0AEFED72308201B18DE1932
:1097D000E4210B18DB191A78EF210B18DB191B7821
:1097E00011001800FFF750FC03003370494B1B7841
:1097F000D72208201218D21912789A4204D13E4B6F
:1098000040229B5C002B10D0D7260822B318DB190E
:109810001B781800FFF762FC3E4B0822B218D219E1
:1098200012781A703C4BFF221A7045F051FF03006A
:10983000D02208215218D2191360384B1B68002B14
:1098400000D1A4E000238A22520008005118C9194F
:109850000B60ED2301005B18DB191B78002B04D093
:109860002F4B5218D21913606CE0EF2308229B187B
:10987000DB191B78012B1CD12426B318DB190C2112
:1098800018004BF00DF8031E5CD008217318D9198D
:10989000244B0B2218005EF0BBF9174B3822002135
:1098A0009954204B8A22520008215218D219136071
:1098B00048E0114B1B7A01225340DBB2002B41D010
:1098C000E42308215B18DB191B78002B2ED0164BE4
:1098D0008A2252005218D2191360104B1B680121C2
:1098E000180017F0B3FE031E2CD00C4B1B6801218F
:1098F000180017F03FFE25E030CC0120E4430220A1
:10990000D00F0120C067002050030710800307100C
:1099100087130000A81D0020A91D0020D867002083
:109920009C0307105DCC0120A4030710D02308215D
:109930005B18DB191B68C233FF338A2252005218AE
:10994000D21913608A2676000822B318DB191B6827
:10995000002B1CD0B318DB191A68C54B1100180076
:109960005FF0AAFB031E12D00822B318DB19196896
:10997000BF4B1F2218005EF04BF9BD4B0022DA7777
:10998000BC4B1B68BA4A1100180035F093FC002349
:109990008821490008268A19D21913601020FF3047
:1099A0008319DB1900221A70EE2332009B18DB1991
:1099B0001B780A2B09D1B04B16008A18D2191360F4
:1099C0008319DB1901221A70E0E0EF2208215318F5
:1099D000DB191B78022B19D05318DB191B78032BCA
:1099E00014D0EE225318DB191B78012B0ED053181C
:1099F000DB191B78022B09D05318DB191B78032BBA
:109A000004D05318DB191B78042B0DD19B4B8822F3
:109A1000520008215218D21913601023FF335B182B
:109A2000DB1901221A70B1E0EE2308215B18DB1963
:109A30001B78062B23D1CF235B18DE1949F0D0FC0D
:109A400003003370CF2308215B18DB191B78022B2E
:109A500006D18B4B882252005218D219136006E0AF
:109A6000884B8822520008215218D2191360102303
:109A7000FF3308229B18DB1901221A7086E0EF23BE
:109A800008215B18DB191B78002B1CD17E4B1B7C3B
:109A900001225340DBB2002B15D0E7235B18DB1902
:109AA0001B78002B01D0794B00E0794B88225200C3
:109AB00008215218D21913601023FF335B18DB19E9
:109AC00001221A7062E0EF2308229B18DB191B7831
:109AD000012B0CD1EE239B18DB191B78062B06D12A
:109AE0001023FF339B18DB1901221A704EE0EF237D
:109AF00008229B18DB191B78042B06D11023FF3397
:109B00009B18DB1901221A7040E0ED2308229B18F4
:109B1000DB191B78002B06D01023FF339B18DB19B1
:109B200000221A7032E0EF2308229B18DB191B7801
:109B3000012B12D1F0239B18DB191B68002B0CD1D1
:109B4000EE239B18DB191B780A2B06D01023FF335A
:109B50009B18DB1901221A7018E0E52308229B18D4
:109B6000DB191B78002B06D01023FF339B18DB1961
:109B700000221A700AE0444B1B7C002B06D01023F5
:109B8000FF3308229B18DB1901221A70414B1B6816
:109B9000002B01D100F0BCFEE42308229B18DB1946
:109BA0001B78002B03D1384B1B7C002B01D00122EA
:109BB00000E00022CE2008268319DB191A701A78DB
:109BC00001210A401A70304B40229B5C002B0BD1C4
:109BD000314B1B78002B0ED08319DB191B78012227
:109BE0005340DBB2002B06D02C4B012252421A60AC
:109BF0002B4B00221A70284BCE2208215218D21962
:109C000012781A70EE225318DB191B78012B19D029
:109C10005318DB191B78022B14D05318DB191B784F
:109C2000032B0FD05318DB191B78042B0AD0EF221B
:109C30005318DB191B78022B04D05318DB191B783F
:109C4000032B01D1012200E00022CD2308201B18A4
:109C5000DB191A701A7801210A401A70E4231B18C4
:109C6000DB191B78002B1DD002F088FB03001BE0E2
:109C7000AC0F0120D8670020AC030710B403071015
:109C8000C0030710CC03071030CC0120D803071005
:109C9000E4030710DC67002024440220C41D0020D8
:109CA000D40F0120DC4B5B69C82208269119C91921
:109CB0000B60C7208319DB199219D2191268511E43
:109CC0008A411A70E4239B19DB191B78002B04D0FE
:109CD0008319DB191B78002B0CD1CF4B1B7C002B7D
:109CE00000D184E0C72308229B18DB191B78002BC6
:109CF00000D17CE0CD2308215B18DB191B78012201
:109D00005340DBB2002B72D0E4235B18DB191B78C5
:109D1000002B03D002F032FB030001E0BE4B5B6975
:109D2000C02208269119C9190B609319DB191B6809
:109D3000642118000DF090F90300BC2130000A18CE
:109D4000D2191360B54B1B680A18D21912689A42CF
:109D50003BD0B24B0A18D21912681A600A000B18CD
:109D6000DB191B68632B1AD81318DB191B680A212F
:109D700018000DF071F903001E00BC220820131812
:109D8000DB191B680A2118000DF066F90B00A44AC4
:109D9000A4480093330010210FF008FF0EE0BC230D
:109DA00008229B18DB191B680A2118000DF054F9D2
:109DB00003009D4A9B4810210FF0F8FE9B4B1B6847
:109DC000984A1100180035F075FA984B1B6801216C
:109DD000180017F03BFC031E01D100F098FD934BD7
:109DE0001B680121180017F0C5FB00F090FDCD2382
:109DF00008229B18DB191B78002B29D08C4A8D4B2D
:109E0000110018005FF058F9031E0FD0874B1B6834
:109E1000874A1100180035F04DFA8549854B0F220D
:109E200018005DF0F5FE834B0022DA737F4B1B6850
:109E30000121180017F00AFC031E01D100F068FD93
:109E40007A4B1B680121180017F094FB00F060FDAD
:109E5000EE2308229B18DB191B78062B61D15AF0E0
:109E600053FE0300BB67744B1B68BA6FD21AFA2308
:109E7000DB009A4210D3714B1B785A1E9341DBB220
:109E800001225340DBB21A1C01231340DAB26B4BA0
:109E90001A70694BBA6F1A606F2308229B18DE197B
:109EA00049F09EFA030033706F2308229B18DB19D8
:109EB0001B78022B01D1624B00E0624B3B675F4B8A
:109EC0001B78002B01D0604B00E03B6FFB66FA6E05
:109ED000584B110018005FF0EFF8031E0FD0534BE2
:109EE0001B68FA6E1100180035F0E4F9F96E514B59
:109EF0000F2218005DF08CFE4E4B0022DA734B4BA4
:109F00001B680121180017F0A1FB031E01D100F00E
:109F1000FFFC464B1B680121180017F02BFB00F0DB
:109F2000F7FCED2308229B18DB191B78002B32D09D
:109F3000E4239B18DB191B7801225340DBB2002B72
:109F400029D0424A3B4B110018005FF0B5F8031EC0
:109F50000FD0364B1B683D4A1100180035F0AAF9A6
:109F60003A49344B0F2218005DF052FE314B00226B
:109F7000DA732E4B1B680121180017F067FB031ED4
:109F800001D100F0C5FC294B1B680121180017F016
:109F9000F1FA00F0BDFCE52308229B18DB191B78C1
:109FA000002B57D0F0239B18DB191B68002B51D0D6
:109FB000E4239B18DB191B7801225340DBB2002BF2
:109FC00048D0234A1B4B110018005FF075F8031EA0
:109FD0000FD0164B1B681E4A1100180035F06AF9A5
:109FE0001B49144B0F2218005DF012FE114B00228A
:109FF000DA730E4B1B680121180017F027FB031EB4
:10A0000001D100F085FC094B1B680121180017F0F5
:10A01000B1FA00F07DFCC04630CC0120C41D002008
:10A02000EC030710D4DA0020F8030710DC670020E7
:10A03000B4030710D40F0120181001201E44022081
:10A04000C0030710CC030710000407109C0307107F
:10A050000C040710DA4B5B7F002B5AD05AF054FDEA
:10A0600003008422B9180B60D54B9B6ABA1812689A
:10A07000D21AFA23DB009A4217D3D14B2C229B5CD5
:10A080000133D9B2CE4B2C229954CD4B2C229A5C61
:10A09000CB4B9B7F9A4203D3C94B2C22002199546E
:10A0A000C74B8422BA1812689A62C54B2C229B5C5B
:10A0B00019007B2008268319DB19C14A5218D27F68
:10A0C0001A708319DB191B781800FEF77FFC030058
:10A0D000FB67FB6FBB4A0C26B81920210FF066FD09
:10A0E000B94B1B68BA191100180035F0E3F8B64BEC
:10A0F0001B680121180017F0A9FA031E01D100F016
:10A1000007FCB14B1B680121180017F033FA00F06F
:10A11000FFFB87235B0008215B18DB191022FF324D
:10A120005218D21912781A70EE225318DB191B78C4
:10A13000012B19D05318DB191B78022B14D053189C
:10A14000DB191B78032B0FD05318DB191B78042B5A
:10A150000AD0EF225318DB191B78022B04D05318B6
:10A16000DB191B78032B24D1984B8822520008213D
:10A170005218D219136087235B005B18DB19012288
:10A180001A70934B1B7801225340DBB2002B13D083
:10A19000EE230A009B18DB191978EF239B18DB19B3
:10A1A0001A788C4B180055F059F8894B01221A7017
:10A1B00002E0874B00221A70EE2308269B19DB1958
:10A1C0001B780A2B38D15AF09FFC03008021300005
:10A1D0000A18D2191360804B1B680A18D21912682A
:10A1E000D21AFA23DB009A4212D37C4B1B785A1EF8
:10A1F0009341DBB201225340DBB21A1C012313400E
:10A20000DAB2764B1A70744B0A18D21912681A60B7
:10A21000724B1B78002B01D0714B00E0714B8822F0
:10A22000520008215218D219136087235B005B1873
:10A23000DB1901221A7018E3EE2308269B19DB199B
:10A240001B78062B53D15AF05FFC03008C213000A1
:10A250000A18D2191360644B1B680A18D2191268C5
:10A26000D21AFA23DB009A4212D3604B1B785A1E93
:10A270009341DBB201225340DBB21A1C012313408D
:10A28000DAB25A4B1A70584B0A18D21912681A606F
:10A290008B2308229B18DE1949F0A2F803003370C3
:10A2A0008B2308229B18DB191B78022B01D1504B02
:10A2B00000E0504B842208215218D21913604B4BF6
:10A2C0001B78002B01D0464B04E0842308229B1806
:10A2D000DB191B688822520008215218D21913601A
:10A2E00087235B005B18DB1901221A70BDE2EF23A4
:10A2F00008215B18DB191B78002B1CD1304B1B7C11
:10A3000001225340DBB2002B15D0E7235B18DB1989
:10A310001B78002B01D0384B00E0384B88225200CC
:10A3200008215218D219136087235B005B18DB19D0
:10A3300001221A7099E2EF2308269B19DB191B787A
:10A34000012B00D07EE0EE239B19DB191B78062B36
:10A3500000D077E05AF0D8FB0300B82130000A188B
:10A36000D2191360264B1B680A18D2191268D21A28
:10A37000FA23DB009A4212D3224B1B785A1E9341D8
:10A38000DBB201225340DBB21A1C01231340DAB2C4
:10A390001C4B1A701A4B0A18D21912681A60B7238C
:10A3A00008229B18DE1949F01BF803003370B7230D
:10A3B00008229B18DB191B78022B25D10C4B24E0BB
:10A3C00030CC012014040710DC670020B403071010
:10A3D000F843022018040710101001201A4402202C
:10A3E00000040710AC030710201001201D440220B8
:10A3F000C0030710CC030710D8030710E4030710AD
:10A400000C10012019440220DB4BB0220821521805
:10A41000D2191360D94B1B78002B01D0D84B04E024
:10A42000B02308229B18DB191B68882252000821E0
:10A430005218D219136087235B005B18DB190122C5
:10A440001A7012E2EF2308269B19DB191B78042BE4
:10A4500038D15AF059FB0300902130000A18D21964
:10A460001360C84B1B680A18D2191268D21AFA2353
:10A47000DB009A4212D3C44B1B785A1E9341DBB2C5
:10A4800001225340DBB21A1C01231340DAB2BE4B47
:10A490001A70BC4B0A18D21912681A60BA4B1B7892
:10A4A000002B01D0B64B00E0B84B882252000821A7
:10A4B0005218D219136087235B005B18DB19012245
:10A4C0001A70D2E1ED2308215B18DB191B78002BF1
:10A4D0000CD0AF4B882252005218D2191360872338
:10A4E0005B005B18DB1901221A70BEE1EF2308261E
:10A4F0009B19DB191B78012B3ED1F0239B19DB192B
:10A500001B68002B38D15AF0FFFA0300AC21300051
:10A510000A18D21913609F4B1B680A18D2191268C7
:10A52000D21AFA23DB009A4212D39B4B1B785A1E95
:10A530009341DBB201225340DBB21A1C01231340CA
:10A54000DAB2954B1A70934B0A18D21912681A6036
:10A55000914B1B78002B01D0894B00E08F4B882258
:10A56000520008215218D219136087235B005B1830
:10A57000DB1901221A7078E1E52308215B18DB1949
:10A580001B78002B0CD0864B882252005218D2190F
:10A59000136087235B005B18DB1901221A7064E1EA
:10A5A000804B1B7C002B00D15FE187235B000826DA
:10A5B0009B19DB1901221A70EE239B19DB191B78FA
:10A5C0000A2B32D15AF0A0FA0300942130000A1865
:10A5D000D2191360744B1B680A18D2191268D21A68
:10A5E000FA23DB009A4212D3704B1B785A1E934118
:10A5F000DBB201225340DBB21A1C01231340DAB252
:10A600006A4B1A70684B0A18D21912681A60674BA5
:10A610001B78002B01D05A4B00E0654B882252007A
:10A6200008215218D21913601FE1EE2308269B1946
:10A63000DB191B78062B4DD15AF066FA0300A021D6
:10A6400030000A18D21913605A4B1B680A18D21925
:10A650001268D21AFA23DB009A4212D3564B1B78A7
:10A660005A1E9341DBB201225340DBB21A1C012374
:10A670001340DAB2504B1A704E4B0A18D2191268B6
:10A680001A609F2308229B18DE1948F0A9FE0300D8
:10A6900033709F2308229B18DB191B78022B01D1F2
:10A6A000464B00E0344B982208215218D21913600F
:10A6B000414B1B78002B01D0314B04E0982308223A
:10A6C0009B18DB191B688822520008215218D219E6
:10A6D0001360CAE0EF2308229B18DB191B78002BBC
:10A6E0000FD1E7239B18DB191B78002B01D0344BCB
:10A6F00000E0344B8822520008215218D21913600E
:10A70000B3E0EF2308269B19DB191B78042B5FD1DC
:10A710005AF0FAF90300A42130000A18D219136084
:10A72000294B1B680A18D2191268D21AFA23DB00C7
:10A730009A4212D3254B1B785A1E9341DBB2012259
:10A740005340DBB21A1C01231340DAB21F4B1A70BC
:10A750001D4B0A18D21912681A601C4B1B78002B6B
:10A7600001D0074B00E0094B882252000821521803
:10A77000D219136079E0C046CC03071019440220B7
:10A7800000040710FC0F01201544022048040710A4
:10A790009C030710001001201644022050040710EB
:10A7A0000C04071030CC0120141001201B4402209F
:10A7B000AC0307101C1001201C440220C00307102A
:10A7C000D8030710E40307100810012018440220E2
:10A7D000ED2308215B18DB191B78002B06D0C74B33
:10A7E000882252005218D21913603EE0EF23082647
:10A7F0009B19DB191B78012B37D1F0239B19DB192F
:10A800001B68002B31D15AF07FF90300A8213000DA
:10A810000A18D2191360BA4B1B680A18D2191268A9
:10A82000D21AFA23DB009A4212D3B64B1B785A1E77
:10A830009341DBB201225340DBB21A1C01231340C7
:10A84000DAB2B04B1A70AE4B0A18D21912681A60FD
:10A85000AC4B1B78002B01D0AB4B00E0AB4B8822FC
:10A86000520008215218D219136087235B00082276
:10A870009B18DB191B78002B35D088267600B3187F
:10A88000DB191B68002B2ED0B318DB191A68A04BFC
:10A89000110018005EF010FC031E15D09D4B1B68C4
:10A8A0000822B118CA1912681100180034F002FD0C
:10A8B0000822B318DB191968954B0F2218005DF0B8
:10A8C000A7F9934B0022DA73924B1B680121180001
:10A8D00016F0BCFE031E1BD08E4B1B680121180016
:10A8E00016F048FE14E08B4B1B680121180016F08F
:10A8F000ADFE03001A0001235340DBB2002B07D04A
:10A90000844B1B680121180017F0C9F800E0C0460D
:10A91000F02208201318DB191B688421490009184C
:10A92000C9190B6001005318DB191B68002B24D1D7
:10A93000794BDB6B002B20D0EE225318DB191B78F0
:10A940000A2B12D05318DB191B78062B0DD0724B33
:10A950001B7C002B09D1E4235B18DB191B78002B2F
:10A9600003D16D4B1B7A002B07D06B4BDB6B842222
:10A97000520008215218D2191360684B1B68002B33
:10A9800000D1A5E2632108200B18DB19E42212187C
:10A99000D21912781A7002008B18DB191B78002B61
:10A9A00005D1E6239B18DB191B78002B07D0082361
:10A9B000FF3308229B18DB1902221A7006E00823D5
:10A9C000FF3308229B18DB1903221A70544B1B78A3
:10A9D0000822FF3208215218D21912789A4217D150
:10A9E0004D4B40229B5C002B12D1E4235B18DB19FA
:10A9F0001B78002B1CD0E6235B18DB191B78012287
:10AA00005340DBB2002B13D0454B1B78022B0FD0E9
:10AA1000444B012252421A60434B012252421A60B7
:10AA20003F4B0822FF3208215218D21912781A70AF
:10AA300087235B00FB1800221A70E52308229B186D
:10AA4000DB191B78002B05D0F0239B18DB191B6842
:10AA5000002B06D1632308229B18DB191B78002BDF
:10AA600005D087235B00FB1801221A7030E0EF232A
:10AA700008229B18DB191B78002B13D1264B1B7C5B
:10AA800001225340DBB2002B0CD0234B1B7A012256
:10AA90005340DBB2002B05D087235B00FB1800225C
:10AAA0001A7015E01D4B1B680121180016F0CEFD31
:10AAB00003005A1E9341DBB201225340DBB21A005D
:10AAC00087235B00FB181A701A7801210A401A705C
:10AAD00087235B00FB181B78002B27D00F4B1B68CC
:10AAE0000121180016F0B2FD031E32D00B4B1B687B
:10AAF0000121180016F03EFD2BE0C0469C03071014
:10AB0000041001201744022000040710500407100D
:10AB1000D40F0120DC67002030CC0120C06700206A
:10AB2000F7430220AC1D0020B01D0020C94B1B685C
:10AB30000121180016F08AFD03001A00012353407A
:10AB4000DBB2002B05D0C34B1B680121180016F0A7
:10AB5000A6FF632308201B18DB191B78002B64D089
:10AB6000E6231B18DB191B78002B5ED0BA4B1B6841
:10AB7000842149000A18D21912689A4200D1A7E12B
:10AB8000B54B0A18D21912681A600B18DB191A682B
:10AB9000FA239B009A4208D20B18DB191B68AF4AB4
:10ABA000AF4810210FF002F837E084214900082057
:10ABB0000B18DB191B68AB4A93421DD80B18DB1925
:10ABC0001B68642118000CF047FA03007B667B6E5B
:10ABD0000A2118000CF040FA03001E007B6E0A21C7
:10ABE00018000CF039FA0B009F4A9D48009333007F
:10ABF00010210EF0DBFF10E084235B0008229B187D
:10AC0000DB191B68FA22910018000CF025FA0300EA
:10AC1000964A934810210EF0C9FF8E4B1B68904A4C
:10AC20001100180034F046FB52E1632308229B1800
:10AC3000DB191B78002B00D186E0864B1B680121B5
:10AC4000180016F003FD031E09D0824B1B6801217A
:10AC5000180016F08FFC864B180054F0FFFA854B55
:10AC60001B7A002B0AD0834BDB6B002B06D0814B69
:10AC7000DB6B84225200BA18136006E001F0CAFDB3
:10AC8000030084225200BA181360734B1B6884219E
:10AC900049007A1812689A4200D119E16E4B7A186D
:10ACA00012681A607B181A68FA239B009A4207D22E
:10ACB0007B181B68694A6A4810210EF077FF32E062
:10ACC000842149007B181B68664A93421CD87B1874
:10ACD0001B68642118000CF0BFF90300FB65FB6DD5
:10ACE0000A2118000CF0B8F903001E00FB6D0A21C0
:10ACF00018000CF0B1F90B005B4A5948009333007F
:10AD000010210EF053FF0EE084235B00FB181B683C
:10AD1000FA22910018000CF09FF90300534A5048A2
:10AD200010210EF043FF84235B00FB181A684C4986
:10AD3000514B180054F092FA464B1B68484A1100D8
:10AD4000180034F0B7FAC3E0E52308215B18DB19DB
:10AD50001B78002B13D1EE225318DB191B78062B1E
:10AD60000DD05318DB191B780A2B08D0414B1B7CE4
:10AD7000002B04D13F4B1B7A002B00D180E08421B3
:10AD8000490008200B18DB191B68002B00D177E065
:10AD9000314B1B680A18D21912689A4200D197E009
:10ADA0002D4B0A18D21912681A60344B01225242F4
:10ADB0001A600B18DB191A68FA239B009A4208D212
:10ADC0000B18DB191B68254A254810210EF0EEFEF2
:10ADD00037E08421490008200B18DB191B68214A41
:10ADE00093421DD80B18DB191B68642118000CF066
:10ADF00033F903003B663B6E0A2118000CF02CF976
:10AE000003001E003B6E0A2118000CF025F90B0010
:10AE1000154A13480093330010210EF0C7FE10E0CE
:10AE200084235B0008229B18DB191B68FA2291001F
:10AE300018000CF011F903000C4A094810210EF01B
:10AE4000B5FE044B1B68064A1100180034F032FAB4
:10AE50003EE0C046C0670020AC1D00205C04071027
:10AE6000E4D800200F270000EC030710F8030710B8
:10AE70006404071030CC012098040710B01D002096
:10AE8000EF2308229B18DB191B78002B20D1D94B0C
:10AE90001B7C01225340DBB2002B19D0D54B1B7A0F
:10AEA00001225340DBB2002B12D0D34B1B6802337C
:10AEB0000ED0D14B022252421A60D04B0122524294
:10AEC0001A60CF4B1B68CF4A1100180034F0F2F91A
:10AED000CD4B1B68002B00D174E0CC4B1B68FC22CF
:10AEE00008215218D2191360C24B40229B5C002BE0
:10AEF00003D0C64B012252421A60E62308269B1952
:10AF0000DB191B78002B2AD049F056FB0300BB65E8
:10AF1000BB6D002B3DD0F0239B19DB191B6864220D
:10AF20005343B96D18000CF097F80300FC229119F7
:10AF3000C9190B609319DB191B68002B03DA002376
:10AF40009219D2191360FC2208215318DB191B68CF
:10AF5000642B1EDD64235218D219136019E0EF230D
:10AF600008215B18DB191B78002B12D1A14B1B7C2D
:10AF700001225340DBB2002B0BD09E4B1B7A0122E7
:10AF80005340DBB2002B04D00023FC225218D2190C
:10AF900013609E4B1B68FC2108200A18D219126806
:10AFA0009A420FD0984B1B680E000A18D2191168EC
:10AFB000002218002FF0E0FE944B08203218D2191E
:10AFC00012681A60924B1B68002B00D150E1894B2C
:10AFD00040229B5C002B02D08E4B00221A70E5238E
:10AFE00008229B18DB191B78002B05D0F0239B1837
:10AFF000DB191B68002B06D1E42308229B18DB1900
:10B000001B78002B2CD0F02308229B18DB191B681F
:10B01000002B02D1774BDB6B04E0F02308229B1856
:10B02000DB191B687B657B6D7B4A934206D8FB234B
:10B0300008229B18DB1901221A7042E07B6D774AC7
:10B04000934206D8FB2308229B18DB1902221A70B0
:10B0500037E0FB2308229B18DB1903221A7030E02B
:10B06000EF2308215B18DB191B78002B13D1614BF0
:10B070001B7C01225340DBB2002B0CD05D4B1B7AB2
:10B0800001225340DBB2002B05D0FB235B18DB19F8
:10B0900004221A7015E05F4B1B78002B0BD05D4B20
:10B0A0001B78042B07D0FB2308229B18DB19594A75
:10B0B00012781A7005E0FB2308229B18DB19042282
:10B0C0001A70544B1B78FB2108200A18D2191278E9
:10B0D0009A4200D1CCE00B18DB191B78042B00D965
:10B0E000BFE09A004E4BD3181B689F46484B1E6822
:10B0F000CC231B04180027F01EFF03001A00302089
:10B100000823C118CB19111C19701104090E5970AC
:10B110001202120E9A700823C318DB190022196854
:10B1200030001BF0AFFF3A4B1B680121180016F0EE
:10B130008DFA031E00D18DE0354B1B6801211800EC
:10B1400016F018FA86E0324B1E68364B180027F0CE
:10B15000F2FE03001A0034200823C118CB19111C79
:10B1600019701104090E59701202120E9A700823F8
:10B17000C318DB190022196830001BF083FF244B31
:10B180001B680121180016F061FA031E64D0204BE1
:10B190001B680121180016F0EDF95DE01C4B1E68DC
:10B1A000214B180027F0C7FE03001A00382008239F
:10B1B000C118CB19111C19701104090E5970120213
:10B1C000120E9A700823C318DB1900221968300088
:10B1D0001BF058FF0E4B1B680121180016F036FAC1
:10B1E000031E3BD00A4B1B680121180016F0C2F960
:10B1F00034E0C04630CC0120AC1D0020B01D002042
:10B20000C0670020D0040710B4670020C81D0020CC
:10B21000B8670020F6430220973A00001F4E000056
:10B22000D80407100099FF000A820500BF4B1B6875
:10B230000121180016F00AFA03001A0001235340F6
:10B24000DBB2002B0CD0B94B1B680121180016F0A3
:10B2500026FC05E0C04604E0C04602E0C04600E02F
:10B26000C046B34BFB2208215218D21912781A702B
:10B27000B04B1B68002B00D150E1AF4B40229B5CD0
:10B28000002B02D0AD4B00221A70AB4B5B7F002B22
:10B2900006D0FA2308229B18DB1902221A705FE0FD
:10B2A000EF2308229B18DB191B78002B05D1FA230A
:10B2B0009B18DB1900221A7052E0EF2308229B181A
:10B2C000DB191B78012B0BD1E5239B18DB191B78AD
:10B2D000002B05D0FA239B18DB1901221A703FE0DE
:10B2E000EF2208215318DB191B78022B21D05318A9
:10B2F000DB191B78032B1CD05318DB191B78042B8C
:10B3000017D05318DB191B78012B05D1F0235B18DC
:10B31000DB191B68002B0CD0EF2308229B18DB19CC
:10B320001B78012B0CD1EE239B18DB191B78062B05
:10B3300006D1FA2308229B18DB1902221A700FE0AB
:10B34000E62308229B18DB191B78002B02D07B4BCD
:10B350001A7800E00022FA2308215B18DB191A7022
:10B36000FA2308229B18DB191B78022B00D078E007
:10B37000FA233B6559F0C8FB0300FB646E4B9B69E5
:10B38000FA6CD61A3B6D1C0000231D00FA229200B5
:10B390000023200029000CF09DFD02000B0010008E
:10B3A0001900FA22920000230BF094FE02000B0019
:10B3B00013009E4200D2AAE05F4B1B7F5A1E9341AE
:10B3C000DBB201225340DBB21A1C01231340DAB274
:10B3D000594B1A77584BFA6C9A61574B1B7F002BCD
:10B3E0002BD0544B1C68FF231B04180027F0A3FD2F
:10B3F00003001A003C2008254319DB19111C1970A1
:10B400001104090E59701202120E9A704319DB19B9
:10B410000022196820001BF035FE464B1B680121F5
:10B42000180016F013F9031E00D170E0414B1B68A1
:10B430000121180016F09EF869E03E4B1B680121BF
:10B44000180016F003F903001A0001235340DBB281
:10B45000002B5CD0374B1B680121180016F01FFB36
:10B4600055E0364B1B78FA2108254A19D219127873
:10B470009A424CD04B19DB191B78022B42D046DC88
:10B48000002B2BD0012B42D12A4B1C68FF231B021F
:10B49000180027F050FD03001A0040204319DB1963
:10B4A000111C19701104090E59701202120E9A70B3
:10B4B0004319DB190022196820001BF0E3FD1D4B26
:10B4C0001B680121180016F0C1F8031E1CD0194B8F
:10B4D0001B680121180016F04DF815E0154B1B688C
:10B4E0000121180016F0B2F803001A00012353409E
:10B4F000DBB2002B0AD00F4B1B680121180016F09D
:10B50000CEFA03E0C04602E0C04600E0C0460B4B66
:10B51000FA2208215218D21912781A70064B4022CA
:10B5200000219954BD4649B0F0BDC046B86700201F
:10B53000F6430220C467002030CC0120F5430220EE
:10B5400080B582B000AF7860D0231B067A685A615C
:10B55000C046BD4602B080BD80B582B000AF786005
:10B56000D0231B067A689A61C046BD4602B080BDF2
:10B5700080B584B000AF78600A00FB1C1A7001220D
:10B580007B689A401300FB60FB1C1B78002B04D0E7
:10B59000FB681800FFF7D4FF03E0FB681800FFF713
:10B5A000DBFFC046BD4604B080BDF0B585B000AF3E
:10B5B00078600A23FB1809221A7059F0A5FA0300D3
:10B5C000FB602DE00B23FE180A22BB18180047F081
:10B5D00097F9030033700B23FB181B78022B01D162
:10B5E00000233CE00B23FB181B78032B03D10A2319
:10B5F000FB181B7833E00B23FB181B78042B01D1BD
:10B6000008232CE00B23FB181B78052B01D1012309
:10B6100025E001210C2042F073FE0A2059F0BAFC0B
:10B6200059F072FA0200FB68D31A1C0000231D00B7
:10B63000FA2292000023200029000CF04BFC0200AB
:10B640000B0010001900FA22920000230BF042FDBB
:10B6500002000B007B6864339A42B3D908231800B8
:10B66000BD4605B0F0BD000080B584B000AF02005B
:10B67000FB1D1A700D4BFB60FA68FB1D1B78110057
:10B68000180047F0DDF803001A0001235340DBB235
:10B69000002B01D0092304E0FB681800FFF785FFA9
:10B6A00003001800BD4604B080BDC046C4090000B8
:10B6B00080B500AF024B1B781800BD4680BDC04668
:10B6C000ED430220B0B58EB000AF524B14220021E2
:10B6D00018000CF017FE4F4B00229A724E4B0022BE
:10B6E0001A7001F08DFC01F00FFE3B00180001F014
:10B6F000F5FF3B001B69DAB237257C19474B110077
:10B70000180055F06DFF030023707B191B78002B88
:10B710001ED17C19414B180055F0EEFD030023703B
:10B720007B191B78002B0AD13D4B01221A703B007C
:10B730001A693C4B1100180053F090FD10E03723BC
:10B74000FB181A78384B1100180053F087FD07E0FA
:10B750003723FB181A78354B1100180053F07EFD83
:10B7600001F0CAFD03003B632F257C193B6B1800D9
:10B7700043F01CF8030023707B191B78002B04D1C5
:10B780002B4B180053F06AFD07E02F23FB181A78A3
:10B79000284B1100180053F061FD274B180053F09F
:10B7A0005DFD264BBB62BB6A1B7F002B2DD003F0D7
:10B7B000E9FC02000B003A627B62BB6A5B6AFB61D8
:10B7C000BB6A1A6A13001B019B1A1A01D21A1301D1
:10B7D0001A00BA617B6A002B05DC7B6A002B14D14E
:10B7E0003B6A002B11D0FB69002B05D03A6AFB693C
:10B7F000D31ABA699A4208D2114B01221A703A6AD6
:10B80000F969104B180053F029FD00231800BD46BC
:10B810000EB0B0BD44F70020EA4302206C010120C5
:10B82000EB430220EC040710240507105405071011
:10B8300084050710C40507100406071068050120D9
:10B84000F04302203406071080B582B000AF48F004
:10B8500085FE03007B607B68002B01D1002311E093
:10B860007B681A78597809020A43997809040A43CF
:10B87000DB781B0613431A00FB1C511E8A411A7009
:10B88000FB1C1B781800BD4602B080BD90B58DB082
:10B8900000AF02003960FB1D1A70FB1D1B780122EE
:10B8A0005340DBB2002B17D048F058FE0300FB6278
:10B8B000FB6A002B0BD0FB6A1A78597809020A43FD
:10B8C000997809040A43DB781B06134304D1424BE1
:10B8D000180053F0C3FC7BE0404BFA1D12781A703D
:10B8E0003F4B3A681A60FB1D1B78002B01D001F01A
:10B8F000CFFA59F009F902003A4B1A60394B1A682D
:10B90000384B5A60374B01221A72364B0022DA60EC
:10B91000344B00221A74344B01221A70314B1A68CE
:10B92000324B1A602F4B1A68314B1A60314B002290
:10B930001A60314B00221A60304B00221A70304BD3
:10B940001B78002B10D008243A192E4B1100180038
:10B9500055F026FD031E07D13B19DA682A4B1A6001
:10B960003B19DA68294B1A6059F0CEF80200284BCF
:10B970001A6001F02FFBFB1D1B78002B0ED03B68DB
:10B98000002B06D03A68234B1100180053F066FCD8
:10B990001EE0214B180053F061FC19E048F0DEFD79
:10B9A0000300BB62BB6A002B0CD0BB6A1A785978C3
:10B9B00009020A43997809040A43DB781B061343FA
:10B9C0001A0000E00022154B1100180053F046FC4D
:10B9D000BD460DB090BDC04678060710EE4302206C
:10B9E000EC05012044F70020EA430220A0020120D8
:10B9F0009C020120B40201203CF70020E943022010
:10BA0000EB4302206C01012040F70020A802012036
:10BA1000A4020120A8060710F80607104407071023
:10BA200080B500AF00210020FFF730FFC046BD46C3
:10BA300080BD000090B58DB000AF78600A00FB1C9F
:10BA40001A70414B1B7A01225340DBB2002B00D00D
:10BA500073E03E4BFA1C12781A7001F0D1FA3A4B9F
:10BA600000221A723A4B00221A700023FB62394BF3
:10BA70001B78002B12D00C243A19374B11001800F8
:10BA800055F08EFC031E09D13B19DA68334B1B6855
:10BA9000191C101C0CF03BFA031CFB62304B1B788A
:10BAA000002B09D0F86A0CF0C5FA02000B00796887
:10BAB0002C4853F0D3FB16E02B4B1B68002B0BD00C
:10BAC000214BDA68284B1B687968284853F0C6FB7D
:10BAD000254B00221A6006E01B4BDA687968244B7C
:10BAE000180053F0BBFB1E4B00221A70214B0022A2
:10BAF0001A60214B00221A70204B00221A60204B42
:10BB000000221A70104B00229A72FB1C1B78082B23
:10BB100015D89A001B4BD3181B689F46012001F0D3
:10BB200017FC0DE0022001F013FC09E0032001F0F6
:10BB30000FFC05E001F06CFC02E0C04600E0C046EE
:10BB4000BD460DB090BDC04644F70020ED43022035
:10BB5000EA430220EB4302206C01012040F7002061
:10BB6000EE43022088070710B4020120C80707101F
:10BB700028080710EC050120F1430220AC02012047
:10BB8000EC4302203C130710F0B59FB000AF786182
:10BB90000023BB6600237B67DA4B1B78002B3DD06C
:10BBA0000C261023F218D219D74B1100180055F0AB
:10BBB000F7FB031E34D11023F318DB19DB68BB66D7
:10BBC000D24B1B68191CB86E0CF0A1F9031C7B67E3
:10BBD000CF4B1B68191CB86E0CF0F8F9031E1FD070
:10BBE000CB4BBA6E1A6058F08FFF0200C94B1A6037
:10BBF000C94B1B78002B13D0C84B1B780122534034
:10BC0000DBB2002B0CD0C54B01221A70C44B1A6852
:10BC1000C44B1100180053F021FB01E0012372E234
:10BC200058F072FF0200BB4B1B68D31ABB600023A5
:10BC3000FB60FA2292000023B868F9680CF04AF918
:10BC400002000B0010001900FA22920000230BF0F2
:10BC500041FA02000B0013007B667B6EB24A9342EE
:10BC600056D97A6EB14B1100180053F0F7FAB04B69
:10BC700002211800FFF7DEFEAE4B1B780122534075
:10BC8000DBB2002B2ED048F0E7F8031E2AD048F094
:10BC900065FC0300FB64FB6C002B17D0FB6C1A786F
:10BCA000597809020A43997809040A43DB781B068C
:10BCB00013430BD1052048F0CDFD9F4B180053F0E6
:10BCC000CDFA9E4B180053F0C9FA1FE00A2048F045
:10BCD000C1FD9B4B180053F0C1FA9A4B180053F06A
:10BCE000BDFA13E0934B1B7801225340DBB2002BCB
:10BCF00004D0954B180053F0B1FA07E0934B1800AD
:10BD000053F0ACFA924B180053F0A8FA0023FAE172
:10BD1000884B1B78002B24D0FC218905786F0CF010
:10BD2000FBF8031C181C0CF07DF90200894BDA604B
:10BD3000894B1B68002B12D0874B1B6818000CF036
:10BD40004AF9031C191C786F0CF038F9031E06D051
:10BD5000824B00211800FFF76DFE0023D3E1012381
:10BD6000D1E148F0FBFB03003B663B6E002B01D1A9
:10BD70000123C8E1FC218905786F0CF0CDF8031C84
:10BD8000181C0CF04FF90300FB6500233B67714B57
:10BD9000DB68FA6D9A4204D96E4BDB68FA6DD31AF0
:10BDA0003B673B6E1A78597809020A43997809046F
:10BDB0000A43DB781B0613431A003B6F93420BD9EF
:10BDC0003B6E1A78597809020A43997809040A43A4
:10BDD000DB781B0613433B673B6F002B56D02C26AA
:10BDE00010203318DA193B6E1000190010231A00C6
:10BDF0000CF08EFA310010200B18DB191A683B6F1B
:10BE0000D21A0B18DB191A60524B1B7C01225340CB
:10BE1000DBB2002B0AD00B18DB191B8901339AB255
:10BE20000B18DB191A814B4B01221A742C23102298
:10BE30009B18DB19180048F0F7FB464BDA683B6F9C
:10BE4000D218444BDA60464B1A683B6FD218444B09
:10BE50001A60314B1B78002B18D0304B1B78002B0D
:10BE600014D03C4BDA682E4B1B689A420ED3394BE8
:10BE7000D9682B4B1A683B4B180053F0EFF93A4B3B
:10BE800000211800FFF7D6FD00233CE158F03CFEEE
:10BE90000300BB655F2610217318DB1900221A709E
:10BEA0005E235B18DB1901221A70304B1B68BA6DD8
:10BEB000D31A3B6000237B60FA229200002338688B
:10BEC00079680CF007F802000B0010001900FA2244
:10BED000920000230BF0FEF802000B00FA235B0037
:10BEE0009A4245D31E4B1B68002B41D0102173187A
:10BEF000DB1901221A705E235B18DB1900221A700D
:10BF000061E0C046EB4302206C01012040F70020B5
:10BF1000A8020120A4020120F1430220EC430220E8
:10BF2000AC02012074080710B70B0000BC08071012
:10BF3000F8080710EE430220080907103C09071013
:10BF400078090710AC090710E4090710140A071054
:10BF5000440A071044F70020EC0501206C0A071082
:10BF6000B4020120840A0710C00A07109C020120B5
:10BF7000674B1B68BA6DD31A1C0000231D00FA2200
:10BF800092000023200029000BF0A4FF02000B0008
:10BF900010001900FA22920000230BF09BF8020017
:10BFA0000B001300C72B0ED95A4B1B68002B0AD06D
:10BFB0005F2310215B18DB1901221A705E235B18C6
:10BFC000DB1901221A705F2310241B19DB191B785F
:10BFD000002B00D17CE001210C2042F091F9472593
:10BFE00021006B18DC195E267318DB191B7818000A
:10BFF000FFF73AFB0300237010216B18DB191B7845
:10C00000002B14D1434B00221A60414BBA6D1A60C9
:10C01000414B00221A607318DB191B780122534030
:10C02000DBB2002B22D03D4BBA6D1A601EE03A4BBA
:10C030001B685A1C384B1A605E2310229B18DB19B0
:10C040001B78002B01D0364C00E0364C324B1D687B
:10C05000472310229B18DB191B78180047F0C6F8FD
:10C06000030031482A00210053F0F8F82A4B1B68DE
:10C07000002B2DD0284B1A682C4B1100180053F0C0
:10C08000EDF801210C2042F03BF946251026AB19B2
:10C09000DC1947F0F1FE03002370AB19DB191B78A4
:10C0A000002B12D0224B180053F0D8F81A4B002264
:10C0B0001A60204B01221A7047F072FA1E4B0421BD
:10C0C0001800FFF7B7FC00231DE0134B00221A6095
:10C0D00048F044FA03003B653B6D002B12D03B6DEA
:10C0E0001A78597809020A43997809040A43DB78D7
:10C0F0001B06134306D1114B03211800FFF79AFCCE
:10C10000002300E001231800BD461FB0F0BDC0466B
:10C11000A0020120B40201203CF700209C02012073
:10C12000D80A0710E00A0710E80A0710140B0710D6
:10C130006C0B0710E9430220A40B0710B40B071087
:10C1400080B500AF48F000FA031E07D0FFF77CFB74
:10C15000031E03D0FFF764FC002300E00423180053
:10C16000BD4680BDB0B584B000AF78607B68002B61
:10C1700001D1012364E0344B1A787B681A70334B89
:10C180001A7A7B685A7047F067FE03001A007B68D2
:10C190001A722E4B5A7A7B681A742D4B1B78002B1F
:10C1A00007D07B680022DA602A4B1A687B685A60E5
:10C1B0001AE048F0D3F90300FB60FB68002B0CD0B9
:10C1C000FB681A78597809020A43997809040A43E6
:10C1D000DB781B0613431A0000E000227B68DA605C
:10C1E0007B68DA687B685A60184B1B7A002B1FD07B
:10C1F00058F08AFC0200154B1B68D31ABB60BB6861
:10C200001C0000231D00FA229200002320002900B8
:10C210000BF060FE02000B0010001900FA229200E1
:10C2200000230AF057FF02000B007B685A6102E00E
:10C230007B6800225A61054B9A7A7B681A76002344
:10C240001800BD4604B0B0BDEA43022044F7002008
:10C25000EE430220EC05012080B500AF134B1B78A4
:10C26000002B06D0124B1900002000F0A5FD002382
:10C2700018E0104B1B7A01225340DBB2002B0BD08D
:10C280000D4B1B78002B07D000F002FE0B4B180063
:10C2900052F0E4FF002305E0094B08211800FFF7E6
:10C2A000C9FB00231800BD4680BDC046EF430220F5
:10C2B000C80B071044F70020F1430220D80B0710E9
:10C2C000180C071080B582B000AF78600E4B1B7A57
:10C2D000002B05D00D4B180052F0C0FF01230FE0DA
:10C2E0000B4B1B78002B05D00A4B180052F0B6FF01
:10C2F000052305E07B6819000120FFF7C7FA00233A
:10C300001800BD4602B080BD44F70020280C07107D
:10C31000F1430220680C071080B500AF0E4B1B7A6A
:10C3200001225340DBB2002B0DD00C4B1B78002BAD
:10C3300007D000F0ADFD0A4B180052F08FFF00232C
:10C3400007E0002305E0074B00211800FFF772FB10
:10C3500000231800BD4680BD44F70020F1430220B1
:10C36000F00D0710300E071080B500AF024B1B7A9E
:10C370001800BD4680BDC04644F7002080B500AF20
:10C38000024BDB681800BD4680BDC04644F7002064
:10C39000F0B591B000AFF860C74B180052F05EFFE7
:10C3A00058F0B2FB0300BB63C44B1B68BA6BD21AD4
:10C3B000FA239B009A4206D3C04BBA6B1A60C04B5B
:10C3C000180042F061FA01210C2041F099FF372159
:10C3D00008200B18DB1900221A70BA4B1B780122B7
:10C3E0005340DBB2002B2BD00B18DE1948F0ACF811
:10C3F00003003370B44B1B78372108200A18D21978
:10C4000012789A421CD00B18DB191B78002B08D02D
:10C41000AE4B1B781A00AE4B1100180052F01EFFF5
:10C4200007E0AA4B1B781A00AA4B1100180052F023
:10C4300015FFA54B372208215218D21912781A700D
:10C44000A24B1B78032B00D1E4E000DDF0E0022BCF
:10C4500000D1C5E000DDEBE0002B02D0012B67D05E
:10C46000E6E0984B1B7801225340DBB2002B00D151
:10C47000D3E0372308269B19DB191B78002B00D14A
:10C48000CBE047F0EFF8031E00D0C8E022239A1952
:10C49000D61946F09FFF03003370222308269A190D
:10C4A000D3191B78052B00D0BBE052F015FE03001A
:10C4B0007B627B6A002B33D07B6A1B7D002B2FD0E5
:10C4C0007B6A1B78042B26D108260823F218D3197F
:10C4D000180048F08FF8031E00D1A4E030000826B1
:10C4E0008319DB199A7A7B6ADB7B9A4200D09AE047
:10C4F0007B6A083319007B6ADB7B1A008319DB191E
:10C5000018005BF0C5F9031E00D08CE07B6A1800B0
:10C5100052F008FE87E07B6A180052F003FE82E0CA
:10C52000FFF792F9031E00D177E0FFF779FA74E084
:10C5300058F0EAFA03003B63674B5B683A6BD31A27
:10C540003B6000237B60FA22920000233868796800
:10C550000BF0C0FC02000B0010001900FA22920040
:10C5600000230AF0B7FD02000B001300FB62FB6A18
:10C57000312B5AD9232308229B18DE19FB6A180095
:10C58000FFF702FB03003370534B3A6B5A602323CF
:10C5900008229B18DB191B7801225340DBB2002BC9
:10C5A00043D0484B1B7801225340DBB2002B0DD007
:10C5B0004A4B1B7801225340DBB2002B06D0434B81
:10C5C00002221A70464B3A6B1A6031E03F4B002250
:10C5D0001A70444B00221A70404B00221A7027E058
:10C5E0002F2308229B18DE1947F036FC0300337016
:10C5F0002F2308229B18DB191B78002B17D13A4BED
:10C60000180052F02BFE314B00221A70354B0022DD
:10C610001A700CE000F014FB0AE0C04608E0C046C7
:10C6200006E0C04604E0C04602E0C04600E0C04666
:10C630002E4B1B78002B17D0244B1B78002B13D1CB
:10C6400047F00AFC03001A0001235340DBB2002B21
:10C650000AD0264B00221A70254B180052F0FEFD1E
:10C660000021002000F018FA184B1B78012B03D092
:10C67000164B1B78032B01D1142300E064233B628B
:10C680003B6A1C0000231D00FA22920000232000B8
:10C6900029000BF01FFC02000B0010001900FA2209
:10C6A000920000230AF016FD02000B001300180090
:10C6B00058F070FC74E6C0463C0E071068D50020A8
:10C6C000680E0710EE430220F3430220EA430220E3
:10C6D000740E0710A80E071044F70020E94302204B
:10C6E00038F70020ED430220DC0E0710F043022053
:10C6F000100F071080B586B004AF194B1B68002BD4
:10C7000004D0184B180052F0A9FD25E08023DA0070
:10C7100015491648164B0293164B019301230093BB
:10C72000002357F0C1FE02000D4B1A600C4B1B6832
:10C73000002B01D0012300E000237B607B68012BEC
:10C7400006D07A680C4B1100180052F087FD03E008
:10C750000A4B180052F082FDBD4602B080BDC046B3
:10C76000E4DA0020440F0710680E071091C3001090
:10C77000103E0020E8DA0020680F07109C0F071019
:10C7800080B500AF0D4B1B68002B14D00C4B1B7AEF
:10C79000002B04D00B4B00211800FFF74BF9074B7F
:10C7A0001B68180057F0D4FE044B00221A60064B99
:10C7B000180052F053FDC046BD4680BDE4DA0020AB
:10C7C00044F70020CC0F0710DC0F071080B582B0B3
:10C7D00000AF0F4B1B78002B01D0002313E047F074
:10C7E000BDFE03007B607B68002B0BD07B681A7852
:10C7F000597809020A43997809040A43DB781B0631
:10C80000134300E000231800BD4602B080BDC046BF
:10C81000EE43022080B500AF064B1B78002B02D000
:10C82000054B1B6802E0FFF7D1FF03001800BD466F
:10C8300080BDC046EE430220EC05012080B500AF6C
:10C84000024B1B7A1800BD4680BDC04644F700204D
:10C8500080B584B000AF786039607B68002B36D03B
:10C860003B68002B33D00F217B1800221A701A4B23
:10C870001B7A002B03D07B1801221A7014E0174B8F
:10C880001B78002B04D00F23FB1801221A700BE039
:10C8900047F05AFE031E07D0FEF7D6FF031E03D053
:10C8A0000F23FB1801221A700F23FB181B78002B93
:10C8B00006D07B6803221A703B68FF221A7007E0DB
:10C8C0007B6800221A703B6800221A7000E0C046A4
:10C8D000BD4604B080BDC04644F70020EF430220AF
:10C8E00090B591B000AFF860B9607A603E23FB1854
:10C8F00000221A80504B1B78002B27D010243A19A5
:10C900004E4B1100180054F04BFD031E1ED13B1975
:10C910001B684B49181C0BF01AFB031CBB6300215E
:10C92000B86B0BF045FB031E01D00023BB634549E8
:10C93000B86B0BF04BFB031E01D0424BBB633E2395
:10C94000FC18B86B0BF06EFB030023803E4B1B788A
:10C950001A003E4B52003E2179180988D1523A4BB9
:10C960001B780133DBB207221340DAB2364B1A7060
:10C97000374B1B78072B05D8354B1B780133DAB2C0
:10C98000334B1A703623FB183E217A1812881A800E
:10C990003423FB187A1812881A803323FB180022DC
:10C9A0001A7026E03323FB18197830203B18274AE9
:10C9B00049008A5A1A8001007A1836203B181288DA
:10C9C0001B889A4203D23B187A1812881A803021A9
:10C9D0007A1834203B1812881B889A4203D93B18D6
:10C9E0007A1812881A8033217B181A787B18013242
:10C9F0001A70174B1B783322BA1812789A42D1D387
:10CA0000FB68002B04D0FB683E22BA1812881A80FB
:10CA1000BB68002B04D0BB683622BA1812881A8073
:10CA20007B68002B04D07B683422BA1812881A80E5
:10CA3000C046BD4611B090BDEB4302206C01012001
:10CA40000000C84200E87D4700440220C060012089
:10CA5000FF43022080B500AF00F0E8FA0300013B7D
:10CA60005A425341DBB21800BD4680BD80B500AFCD
:10CA7000024B1B781800BD4680BDC046EF43022024
:10CA800080B500AF034AAE239B00D3581800BD46C3
:10CA900080BDC046D402012090B58FB000AF786051
:10CAA00039604B4B1B78002B05D04A4B180052F0D5
:10CAB000D5FB052387E0484B1B7A002B03D1474B5E
:10CAC0001B78002B09D0454B1B781A00444B1100F2
:10CAD000180052F0C3FB052375E0424B1B78002B76
:10CAE00005D0414B180052F0B9FB05236BE047F02D
:10CAF000B3F9031E05D03D4B180052F0AFFB0523E0
:10CB000061E03B4B1B7801225340DBB2002B05D088
:10CB1000384B180052F0A2FB012354E0364BFB6265
:10CB20007B68002B02D1FB6A5B6900E07B687B635A
:10CB30003B68002B02D1FB6A9B6900E03B683B63CA
:10CB40007B6B002B01D164237B633B6B002B01D1FA
:10CB50001E233B63294B00221A600C243A19284BF0
:10CB60001100180054F01CFC031E03D13B19DA68B5
:10CB7000224B1A60214B1A68224B1A60224B7A6BA7
:10CB80001A603A6B13005B019B1A9B009B18DB0039
:10CB90001A001E4B1A6057F0B7FF02001C4B1A60B8
:10CBA0001B4B1A681B4B1A60094B01221A700B4B66
:10CBB00003221A7000F00EFA3A6B796B164B1800CC
:10CBC00052F04CFB00231800BD460FB090BDC0468C
:10CBD000EF430220FC0F071044F70020EA43022035
:10CBE0002C100710F143022074100710B810071022
:10CBF000EB430220EC10071068050120C802012059
:10CC00006C010120B8020120CC020120C0020120E9
:10CC1000C4020120BC0201203011071080B500AF12
:10CC2000054B1B78002B04D0044B1900002000F0AA
:10CC3000C3F8C046BD4680BDEF4302207411071003
:10CC4000F0B58FB000AF4E4B1B7801225340DBB2E2
:10CC5000002B03D04B4B00221A708DE047F0FCF8FC
:10CC6000031E05D0484B1900002000F0A5F883E012
:10CC700057F04AFF03007B63444B1B687A6BD31A5F
:10CC80003B6000237B60FA229200002338687968B9
:10CC90000BF020F902000B0010001900FA2292009C
:10CCA00000230AF017FA02000B0013003B63384B15
:10CCB0001B683A6B9A4205D3364B1900002000F0EE
:10CCC0007BF859E00C26BA19334B1100180054F0C8
:10CCD00067FB031E4FD1BB19DA68304B1B68191C68
:10CCE000101C0BF014F9031CFB62BB19DA682C4B07
:10CCF0001B68191C101C0BF069F9031E07D0BB1927
:10CD0000DA68274B1A60274B7A6B1A6021E0254BB3
:10CD10001B687A6BD31A1C0000231D00FA229200B4
:10CD20000023200029000BF0D5F802000B001000B2
:10CD30001900FA22920000230AF0CCF902000B003D
:10CD4000194B9A4205D9194B1900002000F034F80C
:10CD500012E0174B1B6818000BF03DF9031C191C5F
:10CD6000F86A0BF02BF9031E06D0124B19000120B4
:10CD700000F022F800E0C046BD460FB0F0BDC0464E
:10CD8000EF430220EA43022080110710C402012071
:10CD9000C0020120901107106C010120C80201207F
:10CDA000B8020120BC020120B70B0000A01107103F
:10CDB000CC020120A811071090B58FB000AF02007F
:10CDC0003960FB1D1A702B4B1B7801225340DBB2DC
:10CDD000002B4BD100F014F900237B63264B1B780A
:10CDE000002B12D008243A19244B1100180054F0DB
:10CDF000D7FA031E09D13B19DA68214B1B68191CAD
:10CE0000101C0BF084F8031C7B631A4B00221A7071
:10CE10001C4B00221A70FB1D1B78002B1CD002F04B
:10CE2000B1F902000B00BA62FB62FB6A002B05DC61
:10CE3000FB6A002B06D1BB6A002B03D0BB6A18002B
:10CE400042F092FC786B0BF0F5F802000B003968A9
:10CE50000D4852F003FA0AE0786B0BF0EBF8020091
:10CE60000B003968094852F0F9F900E0C046BD46A8
:10CE70000FB090BDEF430220EB4302206C01012074
:10CE8000C8020120EA430220B8110710F011071070
:10CE900080B500AF054B00221A70054B00221A60C6
:10CEA000044B00221A70C046BD4680BDF1430220EB
:10CEB000AC020120EC43022090B589B002AFF860CB
:10CEC0003A607B60194B3B6117243B1909221A70A9
:10CED0003A687B68F8683969009145F009FC031EDF
:10CEE00006D03C193B691800FEF75FFB0300237076
:10CEF0001723FB181B78002B07D1FA680C4B110085
:10CF0000180052F0ABF900230CE01723FB181B7834
:10CF1000180046F06BF90200064B1100180052F0A1
:10CF20009DF901231800BD4607B090BD10270000F1
:10CF3000281207106812071090B585B000AF78600E
:10CF400047F002FB03001A0001235340DBB2002B21
:10CF500005D01C4B180052F081F903232EE01A4B28
:10CF6000BB600F243B1909221A70BA687B68110054
:10CF7000180045F077FB031E06D03C19BB6818006B
:10CF8000FEF713FB030023700F23FB181B78002B05
:10CF900007D17A680D4B1100180052F05FF9002399
:10CFA0000CE00F23FB181B78180046F01FF9020055
:10CFB000074B1100180052F051F901231800BD462B
:10CFC00005B090BD9812071088130000C01207101A
:10CFD000E812071080B586B000AF3B00180000F0E3
:10CFE0007DFB3B005B6901211800FEF7C1FA034B92
:10CFF00001229A72C046BD4606B080BD44F70020AB
:10D0000080B586B000AF3B00180000F067FB3B0026
:10D010005B6900211800FEF7ABFA034B00229A72FD
:10D02000C046BD4606B080BD44F7002080B500AFC5
:10D03000024B9B7A1800BD4680BDC04644F70020D5
:10D0400080B582B000AF0200FB1D1A70FB1D1B787B
:10D050000A2B1AD89A000F4BD3181B689F4600233F
:10D0600014E0012312E0022310E003230EE0042366
:10D070000CE005230AE0062308E0072306E0082366
:10D0800004E0092302E00A2300E001231800BD4662
:10D0900002B080BD6013071080B500AFFEF712FB31
:10D0A00003001800FFF7CCFF03001800BD4680BD49
:10D0B000B0B58AB000AF78607B68002B01D1012346
:10D0C00058E027257C190823FB181800FFF74AF8B9
:10D0D000030023707B191B78002B06D07B191B786B
:10D0E0001800FFF7ADFF030044E00823FB181B788E
:10D0F000022B0DD010DC002B02D0012B04D00BE052
:10D100007B6800221A700BE07B6804221A7007E02B
:10D110007B6805221A7003E07B6806221A70C046FD
:10D1200008243B195A787B685A703B191A7A7B6835
:10D130009A703B191A7C7B681A773B195B69FA2253
:10D140009100180009F088FF03001A007B685A61FB
:10D150003B195A687B689A613B19DA687B685A60A8
:10D160007B6800229A607B68044ADA607B68002250
:10D170001A6100231800BD460AB0B0BD281307107D
:10D1800080B588B000AF3B001800FFF791FF031E89
:10D1900002D13B001B7800E006231800BD4608B012
:10D1A00080BD80B500AFFFF7DFF803001800BD4673
:10D1B00080BD80B500AFFEF7C3FF03001800FFF786
:10D1C0003FFF03001800BD4680BD80B500AFFFF7EC
:10D1D00043F803001800FFF733FF03001800BD46B3
:10D1E00080BD80B582B000AF78607B681800FFF723
:10D1F00069F803001800FFF723FF03001800BD467D
:10D2000002B080BD80B584B000AFF8603A607B604A
:10D210003A687B68F9680800FFF74EFE03001800C3
:10D22000FFF70EFF03001800BD4604B080BD80B5B7
:10D2300082B000AF78607B681800FFF77DFE0300C6
:10D240001800FFF7FDFE03001800BD4602B080BDC8
:10D2500080B500AFFFF7BAFA03001800BD4680BDE5
:10D2600080B500AF00231800BD4680BD80B582B0F8
:10D2700000AF0200FB1D1A70FB1D1B78180041F067
:10D28000C9FA03001800BD4602B080BD80B500AFEA
:10D29000FFF730FAC046BD4680BD80B500AFFFF74E
:10D2A0006FFAC046BD4680BDB0B584B000AF7860AF
:10D2B00039600F257C193A687B6811001800FFF768
:10D2C000EBFB030023707B191B785A1E9341DBB2E2
:10D2D0001800BD4604B0B0BD80B500AFFFF79EFC9E
:10D2E00000231800BD4680BD80B500AF00F0CEF829
:10D2F00000231800BD4680BD80B500AF014B18006B
:10D30000BD4680BDD013071080B500AF0A4B002288
:10D310001A700A4B00221A70094B00221A60094B3E
:10D3200000221A70084B00221A70084B180051F0A6
:10D3300095FFC046BD4680BD0F440220094402202F
:10D34000387201200A440220FE430220DC13071039
:10D3500080B582B000AF0200FB1D1A70244B1B6821
:10D360005A1C234B1A60234B00221A70224BFA1DC1
:10D3700012781A70214B1B78022B0BD1FB1D1B78E6
:10D38000180000F0EFF802001D4B1100180051F0DA
:10D3900065FF29E01B4B1B780133DAB2194B1A7079
:10D3A000184B1B78022B0FD9144B02221A70FB1D4D
:10D3B0001B78180000F0D6F801000D4B1A68124BCC
:10D3C000180051F04BFF0FE00C4B01221A70FB1DAF
:10D3D0001B78180000F0C6F801000A4B1B781A00F1
:10D3E0000A48032351F03AFFBD4602B080BDC04653
:10D3F00038720120FE430220094402200F4402201B
:10D40000F81307100A4402202814071060140710AC
:10D4100080B500AF184B1B78012B1BD1174B1B7825
:10D420000133DAB2154B1A70144B1B78022B1FD93B
:10D43000114B00221A70124B00221A70114B00225D
:10D440001A700E4B1B781A000F4B1100180051F088
:10D4500005FF0DE0084B1B78002B09D1094B1B7809
:10D46000002B05D0074B1B78013BDAB2054B1A7035
:10D47000C046BD4680BDC0460F440220FE43022088
:10D48000094402200A44022088140710B0B500AFF6
:10D490000E4B1B781C000E4B1B78180000F062F836
:10D4A00002000C4B2100180051F0D8FE074B00225F
:10D4B0001A70074B00221A70074B00221A70074B94
:10D4C00000221A70C046BD46B0BDC0460F440220BF
:10D4D00009440220B81407100A440220FE43022027
:10D4E00080B500AF024B1B781800BD4680BDC0461A
:10D4F0000F44022080B500AF024B1B781800BD46D8
:10D5000080BDC0460944022080B500AF024B1B68B5
:10D510001800BD4680BDC0463872012080B582B07B
:10D5200000AF0200FB1D1A70FB1D1B78022B09D0F7
:10D530000ADC002B02D0012B02D005E0054B04E0F1
:10D54000054B02E0054B00E0054B1800BD4602B05C
:10D5500080BDC046F0140710F41407100015071022
:10D560000815071080B582B000AF0200FB1D1A70CD
:10D57000FB1D1B78072B08DC002B1BDB072B19D8A6
:10D580009A000F4BD3181B689F46FF2B10D011E059
:10D590000C4B10E00C4B0EE00C4B0CE00C4B0AE07B
:10D5A0000C4B08E00C4B06E00C4B04E00C4B02E08B
:10D5B0000C4B00E00C4B1800BD4602B080BDC046CD
:10D5C0006C1507100C150710141507101C15071003
:10D5D00024150710301507104015071048150710BF
:10D5E00054150710641507100815071080B584B08E
:10D5F00004AF084A08480123029300230193002343
:10D600000093012320210CF0D1FA034B1800BD46F2
:10D6100080BDC0468C1507100C3D022080B500AFC0
:10D62000014B1800BD4680BD9815071080B500AFAE
:10D63000014B1800BD4680BDA415071080B500AF92
:10D640001D4B180051F00AFE1C4B180051F006FE4D
:10D650001B4A1C4B1100180051F000FE174B18001C
:10D6600051F0FCFDFFF7C2FF0200174B110018003C
:10D6700051F0F4FDFFF7D2FF0200144B1100180027
:10D6800051F0ECFDFFF7D2FF0200114B1100180022
:10D6900051F0E4FD0F4A104B1100180051F0DEFD6F
:10D6A000064B180051F0DAFD034B180051F0D6FD7F
:10D6B000C046BD4680BDC046B0150710B415071062
:10D6C000741607107C160710A0160710B81607105E
:10D6D000D0160710E8160710F016071090B58BB09B
:10D6E00000AF786041F022F803007B620C243B1904
:10D6F000180018231A0000210AF004FE7B6A002B90
:10D7000024D07B6A4B229B5C1A0021007B181A6094
:10D710007B6A4A229B5C1A007B185A607B6A412212
:10D720009B5C1A007B189A607B6A4D229B5C1A00F6
:10D730007B18DA607B6A4E229B5C1A007B181A61A8
:10D740007B6A4F229B5C1A007B185A617B680C2213
:10D75000BA1813CA13C313CA13C37868BD460BB0F3
:10D7600090BD000080B582B000AF78607B68002B70
:10D7700002D07B6847221A60024B1800BD4602B0F7
:10D7800080BDC0461C24071080B500AF42F026F8CB
:10D79000C046BD4680BD000080B500AF034B1800F9
:10D7A00041F0C6FF03001800BD4680BDD402012031
:10D7B00080B582B000AF78603960054A3968786812
:10D7C0000E230CF0F3F903001800BD4602B080BD33
:10D7D000C823071090B583B000AFFC1D094B18009B
:10D7E00041F0A6F803002370FB1D1B78002B03D02B
:10D7F000054B180051F032FDFB1D1B781800BD468B
:10D8000003B090BDA8290710E423071080B500AF2E
:10D81000014B1800BD4680BD2C2C0710B0B586B05A
:10D8200002AF914B180051F019FD0021002011F0BA
:10D830000BFB8E4B7B607B6858687B6859787B68F4
:10D840009A787B68DB7843F08BFF7B6858697B684C
:10D85000597C7B689B7C1A0044F072F87B68362206
:10D860009B5CFF2B19D07B6836229B5C180044F030
:10D8700037F97B6836229B5C0021180044F056F98A
:10D880000A2006F0D9FF7B6836229B5C0121180034
:10D8900044F04CF90A2006F0CFFF754B180051F008
:10D8A000DDFC0023FB600B23FB1808221A7019E033
:10D8B000F91C0B243B1918780023012244F0BEF810
:10D8C000031E09DB3B191A786A4B1100180051F04E
:10D8D000C5FCFB680133FB600B217B181A787B18B1
:10D8E00001321A700B23FB181B78772BE0D9FB68E9
:10D8F000002B04D1604B180051F0B0FC05E0FA6831
:10D900005E4B1100180051F0A9FC7B683922985C2D
:10D91000F91C0023012244F091F8031E08DA7B6809
:10D9200039229B5C1A00564B1100180051F096FCEE
:10D930007B684922985CF91C0023012244F07EF8A0
:10D94000031E08DA7B6849229B5C1A004D4B1100CC
:10D95000180051F083FC7B682022985C7B68596A30
:10D960007B6821229A5C7B6822241C5D7B684125B0
:10D970005B5D0093230043F0D7FD7B684B229B5CEB
:10D98000FF2B05D07B684B229B5C180044F0A8F865
:10D990007B684E229B5CFF2B07D07B684E229B5CF2
:10D9A00000220121180044F0A5F87B6836229B5C18
:10D9B000FF2B0CD07B6836229B5C180044F090F85B
:10D9C0007B6836229B5C0121180044F0AFF87B682D
:10D9D00030229B5C180044F083F87B6831229B5C0A
:10D9E000180044F07DF87B6833229B5C180044F0FB
:10D9F00077F87B6833229B5C0121180044F096F88D
:10DA00007B6832229B5CFF2B17D07B6832229B5CA9
:10DA1000FA2292001100180044F094F87B68322238
:10DA20009A5C7B6835215B5C002B01D0002300E011
:10DA300064231900100044F0BEF87B683A229B5C16
:10DA4000180044F04DF87B683A229B5C01211800D5
:10DA500044F06CF80C4B180051F000FC0023180047
:10DA6000BD4604B0B0BDC046F42907102C2C0710E9
:10DA7000282A07104C2A07107C2A0710A82A07100A
:10DA8000DC2A0710102B07104C2B071090B583B021
:10DA900000AF0F4B180051F0E1FBFC1D0D4B1800BF
:10DAA00040F034FE03002370FB1D1B78002B04D1D3
:10DAB000094B180051F0D2FB03E0084B180051F05D
:10DAC000CDFBFB1D1B781800BD4603B090BDC046C2
:10DAD0007C2B0710842C0710BC2B0710F42B07108D
